{
	"contracts/core/JobBoardDelta.sol": {
		"JobBoardDelta": {
			"abi": [
				{
					"inputs": [
						{
							"internalType": "address",
							"name": "_admin",
							"type": "address"
						},
						{
							"internalType": "address",
							"name": "_paymentErc20",
							"type": "address"
						},
						{
							"internalType": "uint256",
							"name": "_chainId",
							"type": "uint256"
						}
					],
					"stateMutability": "nonpayable",
					"type": "constructor"
				},
				{
					"inputs": [
						{
							"internalType": "uint256",
							"name": "_jobId",
							"type": "uint256"
						},
						{
							"internalType": "address",
							"name": "_erc20",
							"type": "address"
						},
						{
							"internalType": "uint256",
							"name": "_rewardAmount",
							"type": "uint256"
						},
						{
							"internalType": "uint256",
							"name": "_amountPerApplicant",
							"type": "uint256"
						}
					],
					"name": "addReward",
					"outputs": [
						{
							"components": [
								{
									"internalType": "address",
									"name": "erc20",
									"type": "address"
								},
								{
									"internalType": "uint256",
									"name": "totalReward",
									"type": "uint256"
								},
								{
									"internalType": "uint256",
									"name": "individualReward",
									"type": "uint256"
								},
								{
									"internalType": "uint256",
									"name": "distributed",
									"type": "uint256"
								}
							],
							"internalType": "struct Reward",
							"name": "_reward",
							"type": "tuple"
						}
					],
					"stateMutability": "payable",
					"type": "function"
				},
				{
					"inputs": [
						{
							"internalType": "uint256",
							"name": "_jobId",
							"type": "uint256"
						},
						{
							"internalType": "string",
							"name": "_resumeCid",
							"type": "string"
						},
						{
							"internalType": "uint256",
							"name": "_rewardChainId",
							"type": "uint256"
						},
						{
							"internalType": "address",
							"name": "_rewardAddress",
							"type": "address"
						},
						{
							"internalType": "bool",
							"name": "_isReferral",
							"type": "bool"
						}
					],
					"name": "applyForJob",
					"outputs": [
						{
							"internalType": "uint256",
							"name": "_applicantCount",
							"type": "uint256"
						}
					],
					"stateMutability": "nonpayable",
					"type": "function"
				},
				{
					"inputs": [
						{
							"internalType": "uint256",
							"name": "_jobId",
							"type": "uint256"
						},
						{
							"internalType": "uint256[]",
							"name": "_applicantIds",
							"type": "uint256[]"
						}
					],
					"name": "approveRewards",
					"outputs": [
						{
							"internalType": "uint256",
							"name": "_rewardedCount",
							"type": "uint256"
						}
					],
					"stateMutability": "nonpayable",
					"type": "function"
				},
				{
					"inputs": [
						{
							"internalType": "uint256",
							"name": "_applicantId",
							"type": "uint256"
						}
					],
					"name": "getApplicant",
					"outputs": [
						{
							"components": [
								{
									"internalType": "uint256",
									"name": "id",
									"type": "uint256"
								},
								{
									"internalType": "string",
									"name": "resumeCid",
									"type": "string"
								},
								{
									"internalType": "uint256",
									"name": "chainId",
									"type": "uint256"
								},
								{
									"internalType": "address",
									"name": "rewardAddress",
									"type": "address"
								},
								{
									"internalType": "bool",
									"name": "referral",
									"type": "bool"
								}
							],
							"internalType": "struct Applicant",
							"name": "_applicant",
							"type": "tuple"
						}
					],
					"stateMutability": "view",
					"type": "function"
				},
				{
					"inputs": [
						{
							"internalType": "uint256",
							"name": "_jobId",
							"type": "uint256"
						}
					],
					"name": "getApplicantIds",
					"outputs": [
						{
							"internalType": "uint256[]",
							"name": "_jobIds",
							"type": "uint256[]"
						}
					],
					"stateMutability": "view",
					"type": "function"
				},
				{
					"inputs": [
						{
							"internalType": "uint256",
							"name": "_jobId",
							"type": "uint256"
						}
					],
					"name": "getJob",
					"outputs": [
						{
							"components": [
								{
									"internalType": "uint256",
									"name": "id",
									"type": "uint256"
								},
								{
									"internalType": "string",
									"name": "cid",
									"type": "string"
								},
								{
									"internalType": "uint256",
									"name": "postedDate",
									"type": "uint256"
								},
								{
									"internalType": "uint256",
									"name": "expiredDate",
									"type": "uint256"
								},
								{
									"internalType": "bool",
									"name": "available",
									"type": "bool"
								},
								{
									"internalType": "address",
									"name": "owner",
									"type": "address"
								}
							],
							"internalType": "struct Job",
							"name": "_job",
							"type": "tuple"
						}
					],
					"stateMutability": "view",
					"type": "function"
				},
				{
					"inputs": [],
					"name": "getJobIds",
					"outputs": [
						{
							"internalType": "uint256[]",
							"name": "_ids",
							"type": "uint256[]"
						}
					],
					"stateMutability": "view",
					"type": "function"
				},
				{
					"inputs": [
						{
							"internalType": "uint256",
							"name": "_jobId",
							"type": "uint256"
						}
					],
					"name": "getJobReward",
					"outputs": [
						{
							"components": [
								{
									"internalType": "address",
									"name": "erc20",
									"type": "address"
								},
								{
									"internalType": "uint256",
									"name": "totalReward",
									"type": "uint256"
								},
								{
									"internalType": "uint256",
									"name": "individualReward",
									"type": "uint256"
								},
								{
									"internalType": "uint256",
									"name": "distributed",
									"type": "uint256"
								}
							],
							"internalType": "struct Reward",
							"name": "_reward",
							"type": "tuple"
						}
					],
					"stateMutability": "view",
					"type": "function"
				},
				{
					"inputs": [],
					"name": "getOwnerJobIds",
					"outputs": [
						{
							"internalType": "uint256[]",
							"name": "_jobIds",
							"type": "uint256[]"
						}
					],
					"stateMutability": "view",
					"type": "function"
				},
				{
					"inputs": [],
					"name": "getPaymentErc20",
					"outputs": [
						{
							"internalType": "address",
							"name": "_paymentErc20",
							"type": "address"
						}
					],
					"stateMutability": "view",
					"type": "function"
				},
				{
					"inputs": [
						{
							"internalType": "enum Duration",
							"name": "_duration",
							"type": "uint8"
						}
					],
					"name": "getPrice",
					"outputs": [
						{
							"internalType": "uint256",
							"name": "_price",
							"type": "uint256"
						}
					],
					"stateMutability": "view",
					"type": "function"
				},
				{
					"inputs": [
						{
							"internalType": "uint256",
							"name": "_jobId",
							"type": "uint256"
						}
					],
					"name": "hasReward",
					"outputs": [
						{
							"internalType": "bool",
							"name": "_hasReward",
							"type": "bool"
						}
					],
					"stateMutability": "view",
					"type": "function"
				},
				{
					"inputs": [
						{
							"internalType": "uint256",
							"name": "_jobId",
							"type": "uint256"
						}
					],
					"name": "makeJobUnavailable",
					"outputs": [
						{
							"components": [
								{
									"internalType": "uint256",
									"name": "id",
									"type": "uint256"
								},
								{
									"internalType": "string",
									"name": "cid",
									"type": "string"
								},
								{
									"internalType": "uint256",
									"name": "postedDate",
									"type": "uint256"
								},
								{
									"internalType": "uint256",
									"name": "expiredDate",
									"type": "uint256"
								},
								{
									"internalType": "bool",
									"name": "available",
									"type": "bool"
								},
								{
									"internalType": "address",
									"name": "owner",
									"type": "address"
								}
							],
							"internalType": "struct Job",
							"name": "_job",
							"type": "tuple"
						}
					],
					"stateMutability": "nonpayable",
					"type": "function"
				},
				{
					"inputs": [
						{
							"internalType": "string",
							"name": "_cid",
							"type": "string"
						},
						{
							"internalType": "enum Duration",
							"name": "_duration",
							"type": "uint8"
						}
					],
					"name": "postJob",
					"outputs": [
						{
							"components": [
								{
									"internalType": "uint256",
									"name": "id",
									"type": "uint256"
								},
								{
									"internalType": "string",
									"name": "cid",
									"type": "string"
								},
								{
									"internalType": "uint256",
									"name": "postedDate",
									"type": "uint256"
								},
								{
									"internalType": "uint256",
									"name": "expiredDate",
									"type": "uint256"
								},
								{
									"internalType": "bool",
									"name": "available",
									"type": "bool"
								},
								{
									"internalType": "address",
									"name": "owner",
									"type": "address"
								}
							],
							"internalType": "struct Job",
							"name": "_job",
							"type": "tuple"
						}
					],
					"stateMutability": "payable",
					"type": "function"
				},
				{
					"inputs": [
						{
							"internalType": "enum Duration",
							"name": "_duration",
							"type": "uint8"
						},
						{
							"internalType": "uint256",
							"name": "_price",
							"type": "uint256"
						}
					],
					"name": "setPrice",
					"outputs": [
						{
							"internalType": "bool",
							"name": "_set",
							"type": "bool"
						}
					],
					"stateMutability": "nonpayable",
					"type": "function"
				}
			],
			"devdoc": {
				"kind": "dev",
				"methods": {},
				"version": 1
			},
			"evm": {
				"assembly": "    /* \"contracts/core/JobBoardDelta.sol\":239:8457  contract JobBoardDelta is IJobBoardDelta {... */\n  mstore(0x40, 0xe0)\n    /* \"contracts/core/JobBoardDelta.sol\":1053:1257  constructor(address _admin, address _paymentErc20, uint256 _chainId) {... */\n  callvalue\n  dup1\n  iszero\n  tag_1\n  jumpi\n  0x00\n  dup1\n  revert\ntag_1:\n  pop\n  mload(0x40)\n  sub(codesize, bytecodeSize)\n  dup1\n  bytecodeSize\n  dup4\n  codecopy\n  dup2\n  dup2\n  add\n  0x40\n  mstore\n  dup2\n  add\n  swap1\n  tag_2\n  swap2\n  swap1\n  tag_3\n  jump\t// in\ntag_2:\n    /* \"contracts/core/JobBoardDelta.sol\":1141:1147  _admin */\n  dup3\n    /* \"contracts/core/JobBoardDelta.sol\":1133:1138  admin */\n  0x01\n  0x00\n    /* \"contracts/core/JobBoardDelta.sol\":1133:1147  admin = _admin */\n  0x0100\n  exp\n  dup2\n  sload\n  dup2\n  0xffffffffffffffffffffffffffffffffffffffff\n  mul\n  not\n  and\n  swap1\n  dup4\n  0xffffffffffffffffffffffffffffffffffffffff\n  and\n  mul\n  or\n  swap1\n  sstore\n  pop\n    /* \"contracts/core/JobBoardDelta.sol\":1174:1187  _paymentErc20 */\n  dup2\n    /* \"contracts/core/JobBoardDelta.sol\":1159:1187  paymentErc20 = _paymentErc20 */\n  0xffffffffffffffffffffffffffffffffffffffff\n  and\n  0xa0\n  dup2\n  0xffffffffffffffffffffffffffffffffffffffff\n  and\n  dup2\n  mstore\n  pop\n  pop\n    /* \"contracts/core/JobBoardDelta.sol\":1214:1218  this */\n  address\n    /* \"contracts/core/JobBoardDelta.sol\":1199:1219  self = address(this) */\n  0xffffffffffffffffffffffffffffffffffffffff\n  and\n  0x80\n  dup2\n  0xffffffffffffffffffffffffffffffffffffffff\n  and\n  dup2\n  mstore\n  pop\n  pop\n    /* \"contracts/core/JobBoardDelta.sol\":1240:1248  _chainId */\n  dup1\n    /* \"contracts/core/JobBoardDelta.sol\":1230:1248  chainId = _chainId */\n  0xc0\n  dup2\n  dup2\n  mstore\n  pop\n  pop\n    /* \"contracts/core/JobBoardDelta.sol\":1053:1257  constructor(address _admin, address _paymentErc20, uint256 _chainId) {... */\n  pop\n  pop\n  pop\n    /* \"contracts/core/JobBoardDelta.sol\":239:8457  contract JobBoardDelta is IJobBoardDelta {... */\n  jump(tag_6)\n    /* \"#utility.yul\":88:205   */\ntag_8:\n    /* \"#utility.yul\":197:198   */\n  0x00\n    /* \"#utility.yul\":194:195   */\n  dup1\n    /* \"#utility.yul\":187:199   */\n  revert\n    /* \"#utility.yul\":334:460   */\ntag_10:\n    /* \"#utility.yul\":371:378   */\n  0x00\n    /* \"#utility.yul\":411:453   */\n  0xffffffffffffffffffffffffffffffffffffffff\n    /* \"#utility.yul\":404:409   */\n  dup3\n    /* \"#utility.yul\":400:454   */\n  and\n    /* \"#utility.yul\":389:454   */\n  swap1\n  pop\n    /* \"#utility.yul\":334:460   */\n  swap2\n  swap1\n  pop\n  jump\t// out\n    /* \"#utility.yul\":466:562   */\ntag_11:\n    /* \"#utility.yul\":503:510   */\n  0x00\n    /* \"#utility.yul\":532:556   */\n  tag_23\n    /* \"#utility.yul\":550:555   */\n  dup3\n    /* \"#utility.yul\":532:556   */\n  tag_10\n  jump\t// in\ntag_23:\n    /* \"#utility.yul\":521:556   */\n  swap1\n  pop\n    /* \"#utility.yul\":466:562   */\n  swap2\n  swap1\n  pop\n  jump\t// out\n    /* \"#utility.yul\":568:690   */\ntag_12:\n    /* \"#utility.yul\":641:665   */\n  tag_25\n    /* \"#utility.yul\":659:664   */\n  dup2\n    /* \"#utility.yul\":641:665   */\n  tag_11\n  jump\t// in\ntag_25:\n    /* \"#utility.yul\":634:639   */\n  dup2\n    /* \"#utility.yul\":631:666   */\n  eq\n    /* \"#utility.yul\":621:684   */\n  tag_26\n  jumpi\n    /* \"#utility.yul\":680:681   */\n  0x00\n    /* \"#utility.yul\":677:678   */\n  dup1\n    /* \"#utility.yul\":670:682   */\n  revert\n    /* \"#utility.yul\":621:684   */\ntag_26:\n    /* \"#utility.yul\":568:690   */\n  pop\n  jump\t// out\n    /* \"#utility.yul\":696:839   */\ntag_13:\n    /* \"#utility.yul\":753:758   */\n  0x00\n    /* \"#utility.yul\":784:790   */\n  dup2\n    /* \"#utility.yul\":778:791   */\n  mload\n    /* \"#utility.yul\":769:791   */\n  swap1\n  pop\n    /* \"#utility.yul\":800:833   */\n  tag_28\n    /* \"#utility.yul\":827:832   */\n  dup2\n    /* \"#utility.yul\":800:833   */\n  tag_12\n  jump\t// in\ntag_28:\n    /* \"#utility.yul\":696:839   */\n  swap3\n  swap2\n  pop\n  pop\n  jump\t// out\n    /* \"#utility.yul\":845:922   */\ntag_14:\n    /* \"#utility.yul\":882:889   */\n  0x00\n    /* \"#utility.yul\":911:916   */\n  dup2\n    /* \"#utility.yul\":900:916   */\n  swap1\n  pop\n    /* \"#utility.yul\":845:922   */\n  swap2\n  swap1\n  pop\n  jump\t// out\n    /* \"#utility.yul\":928:1050   */\ntag_15:\n    /* \"#utility.yul\":1001:1025   */\n  tag_31\n    /* \"#utility.yul\":1019:1024   */\n  dup2\n    /* \"#utility.yul\":1001:1025   */\n  tag_14\n  jump\t// in\ntag_31:\n    /* \"#utility.yul\":994:999   */\n  dup2\n    /* \"#utility.yul\":991:1026   */\n  eq\n    /* \"#utility.yul\":981:1044   */\n  tag_32\n  jumpi\n    /* \"#utility.yul\":1040:1041   */\n  0x00\n    /* \"#utility.yul\":1037:1038   */\n  dup1\n    /* \"#utility.yul\":1030:1042   */\n  revert\n    /* \"#utility.yul\":981:1044   */\ntag_32:\n    /* \"#utility.yul\":928:1050   */\n  pop\n  jump\t// out\n    /* \"#utility.yul\":1056:1199   */\ntag_16:\n    /* \"#utility.yul\":1113:1118   */\n  0x00\n    /* \"#utility.yul\":1144:1150   */\n  dup2\n    /* \"#utility.yul\":1138:1151   */\n  mload\n    /* \"#utility.yul\":1129:1151   */\n  swap1\n  pop\n    /* \"#utility.yul\":1160:1193   */\n  tag_34\n    /* \"#utility.yul\":1187:1192   */\n  dup2\n    /* \"#utility.yul\":1160:1193   */\n  tag_15\n  jump\t// in\ntag_34:\n    /* \"#utility.yul\":1056:1199   */\n  swap3\n  swap2\n  pop\n  pop\n  jump\t// out\n    /* \"#utility.yul\":1205:1868   */\ntag_3:\n    /* \"#utility.yul\":1293:1299   */\n  0x00\n    /* \"#utility.yul\":1301:1307   */\n  dup1\n    /* \"#utility.yul\":1309:1315   */\n  0x00\n    /* \"#utility.yul\":1358:1360   */\n  0x60\n    /* \"#utility.yul\":1346:1355   */\n  dup5\n    /* \"#utility.yul\":1337:1344   */\n  dup7\n    /* \"#utility.yul\":1333:1356   */\n  sub\n    /* \"#utility.yul\":1329:1361   */\n  slt\n    /* \"#utility.yul\":1326:1445   */\n  iszero\n  tag_36\n  jumpi\n    /* \"#utility.yul\":1364:1443   */\n  tag_37\n  tag_8\n  jump\t// in\ntag_37:\n    /* \"#utility.yul\":1326:1445   */\ntag_36:\n    /* \"#utility.yul\":1484:1485   */\n  0x00\n    /* \"#utility.yul\":1509:1573   */\n  tag_38\n    /* \"#utility.yul\":1565:1572   */\n  dup7\n    /* \"#utility.yul\":1556:1562   */\n  dup3\n    /* \"#utility.yul\":1545:1554   */\n  dup8\n    /* \"#utility.yul\":1541:1563   */\n  add\n    /* \"#utility.yul\":1509:1573   */\n  tag_13\n  jump\t// in\ntag_38:\n    /* \"#utility.yul\":1499:1573   */\n  swap4\n  pop\n    /* \"#utility.yul\":1455:1583   */\n  pop\n    /* \"#utility.yul\":1622:1624   */\n  0x20\n    /* \"#utility.yul\":1648:1712   */\n  tag_39\n    /* \"#utility.yul\":1704:1711   */\n  dup7\n    /* \"#utility.yul\":1695:1701   */\n  dup3\n    /* \"#utility.yul\":1684:1693   */\n  dup8\n    /* \"#utility.yul\":1680:1702   */\n  add\n    /* \"#utility.yul\":1648:1712   */\n  tag_13\n  jump\t// in\ntag_39:\n    /* \"#utility.yul\":1638:1712   */\n  swap3\n  pop\n    /* \"#utility.yul\":1593:1722   */\n  pop\n    /* \"#utility.yul\":1761:1763   */\n  0x40\n    /* \"#utility.yul\":1787:1851   */\n  tag_40\n    /* \"#utility.yul\":1843:1850   */\n  dup7\n    /* \"#utility.yul\":1834:1840   */\n  dup3\n    /* \"#utility.yul\":1823:1832   */\n  dup8\n    /* \"#utility.yul\":1819:1841   */\n  add\n    /* \"#utility.yul\":1787:1851   */\n  tag_16\n  jump\t// in\ntag_40:\n    /* \"#utility.yul\":1777:1851   */\n  swap2\n  pop\n    /* \"#utility.yul\":1732:1861   */\n  pop\n    /* \"#utility.yul\":1205:1868   */\n  swap3\n  pop\n  swap3\n  pop\n  swap3\n  jump\t// out\n    /* \"contracts/core/JobBoardDelta.sol\":239:8457  contract JobBoardDelta is IJobBoardDelta {... */\ntag_6:\n  mload(0x80)\n  mload(0xa0)\n  mload(0xc0)\n  codecopy(0x00, dataOffset(sub_0), dataSize(sub_0))\n  0x00\n  assignImmutable(\"0xfef02113b0e2de238e6d5cd38d074ddd9182c404abd3e453d7e5b4a50defe07c\")\n  0x00\n  assignImmutable(\"0xba29c92f83f4de98d3d45f425254e56d997394d41fbe14eb717b7e43b163ec7b\")\n  0x00\n  assignImmutable(\"0x386729e4d0259bcb363527c54b64d30f72196af65182d1d22218eac92f007f67\")\n  return(0x00, dataSize(sub_0))\nstop\n\nsub_0: assembly {\n        /* \"contracts/core/JobBoardDelta.sol\":239:8457  contract JobBoardDelta is IJobBoardDelta {... */\n      mstore(0x40, 0x80)\n      jumpi(tag_1, lt(calldatasize, 0x04))\n      shr(0xe0, calldataload(0x00))\n      dup1\n      0x78d5b517\n      gt\n      tag_17\n      jumpi\n      dup1\n      0xa9144e1a\n      gt\n      tag_18\n      jumpi\n      dup1\n      0xa9144e1a\n      eq\n      tag_13\n      jumpi\n      dup1\n      0xbf22c457\n      eq\n      tag_14\n      jumpi\n      dup1\n      0xcd449446\n      eq\n      tag_15\n      jumpi\n      dup1\n      0xeea3f82d\n      eq\n      tag_16\n      jumpi\n      jump(tag_1)\n    tag_18:\n      dup1\n      0x78d5b517\n      eq\n      tag_9\n      jumpi\n      dup1\n      0x83238fb4\n      eq\n      tag_10\n      jumpi\n      dup1\n      0x9217cbe0\n      eq\n      tag_11\n      jumpi\n      dup1\n      0x970e003c\n      eq\n      tag_12\n      jumpi\n      jump(tag_1)\n    tag_17:\n      dup1\n      0x43351d95\n      gt\n      tag_19\n      jumpi\n      dup1\n      0x43351d95\n      eq\n      tag_5\n      jumpi\n      dup1\n      0x4b0fa847\n      eq\n      tag_6\n      jumpi\n      dup1\n      0x4fb3bebc\n      eq\n      tag_7\n      jumpi\n      dup1\n      0x6a00670b\n      eq\n      tag_8\n      jumpi\n      jump(tag_1)\n    tag_19:\n      dup1\n      0x098b2cbd\n      eq\n      tag_2\n      jumpi\n      dup1\n      0x37f1e7f2\n      eq\n      tag_3\n      jumpi\n      dup1\n      0x393f190d\n      eq\n      tag_4\n      jumpi\n    tag_1:\n      0x00\n      dup1\n      revert\n        /* \"contracts/core/JobBoardDelta.sol\":3327:3471  function getApplicantIds(uint256 _jobId) view external returns (uint256 [] memory _jobIds) {... */\n    tag_2:\n      callvalue\n      dup1\n      iszero\n      tag_20\n      jumpi\n      0x00\n      dup1\n      revert\n    tag_20:\n      pop\n      tag_21\n      0x04\n      dup1\n      calldatasize\n      sub\n      dup2\n      add\n      swap1\n      tag_22\n      swap2\n      swap1\n      tag_23\n      jump\t// in\n    tag_22:\n      tag_24\n      jump\t// in\n    tag_21:\n      mload(0x40)\n      tag_25\n      swap2\n      swap1\n      tag_26\n      jump\t// in\n    tag_25:\n      mload(0x40)\n      dup1\n      swap2\n      sub\n      swap1\n      return\n        /* \"contracts/core/JobBoardDelta.sol\":1869:1999  function getPrice(Duration _duration)  view external returns (uint256 _price) {... */\n    tag_3:\n      callvalue\n      dup1\n      iszero\n      tag_27\n      jumpi\n      0x00\n      dup1\n      revert\n    tag_27:\n      pop\n      tag_28\n      0x04\n      dup1\n      calldatasize\n      sub\n      dup2\n      add\n      swap1\n      tag_29\n      swap2\n      swap1\n      tag_30\n      jump\t// in\n    tag_29:\n      tag_31\n      jump\t// in\n    tag_28:\n      mload(0x40)\n      tag_32\n      swap2\n      swap1\n      tag_33\n      jump\t// in\n    tag_32:\n      mload(0x40)\n      dup1\n      swap2\n      sub\n      swap1\n      return\n        /* \"contracts/core/JobBoardDelta.sol\":6527:6653  function getOwnerJobIds() view external returns (uint256 [] memory _jobIds) {... */\n    tag_4:\n      callvalue\n      dup1\n      iszero\n      tag_34\n      jumpi\n      0x00\n      dup1\n      revert\n    tag_34:\n      pop\n      tag_35\n      tag_36\n      jump\t// in\n    tag_35:\n      mload(0x40)\n      tag_37\n      swap2\n      swap1\n      tag_26\n      jump\t// in\n    tag_37:\n      mload(0x40)\n      dup1\n      swap2\n      sub\n      swap1\n      return\n        /* \"contracts/core/JobBoardDelta.sol\":1624:1861  function makeJobUnavailable(uint256 _jobId) external returns (Job memory _job){... */\n    tag_5:\n      callvalue\n      dup1\n      iszero\n      tag_38\n      jumpi\n      0x00\n      dup1\n      revert\n    tag_38:\n      pop\n      tag_39\n      0x04\n      dup1\n      calldatasize\n      sub\n      dup2\n      add\n      swap1\n      tag_40\n      swap2\n      swap1\n      tag_23\n      jump\t// in\n    tag_40:\n      tag_41\n      jump\t// in\n    tag_39:\n      mload(0x40)\n      tag_42\n      swap2\n      swap1\n      tag_43\n      jump\t// in\n    tag_42:\n      mload(0x40)\n      dup1\n      swap2\n      sub\n      swap1\n      return\n        /* \"contracts/core/JobBoardDelta.sol\":1265:1364  function getJobIds() view external returns (uint256 [] memory _ids){... */\n    tag_6:\n      callvalue\n      dup1\n      iszero\n      tag_44\n      jumpi\n      0x00\n      dup1\n      revert\n    tag_44:\n      pop\n      tag_45\n      tag_46\n      jump\t// in\n    tag_45:\n      mload(0x40)\n      tag_47\n      swap2\n      swap1\n      tag_26\n      jump\t// in\n    tag_47:\n      mload(0x40)\n      dup1\n      swap2\n      sub\n      swap1\n      return\n        /* \"contracts/core/JobBoardDelta.sol\":2423:3319  function applyForJob(uint256 _jobId, string memory _resumeCid, uint256 _rewardChainId, address _rewardAddress, bool _isReferral) external returns (uint256 _applicantCount) {... */\n    tag_7:\n      callvalue\n      dup1\n      iszero\n      tag_48\n      jumpi\n      0x00\n      dup1\n      revert\n    tag_48:\n      pop\n      tag_49\n      0x04\n      dup1\n      calldatasize\n      sub\n      dup2\n      add\n      swap1\n      tag_50\n      swap2\n      swap1\n      tag_51\n      jump\t// in\n    tag_50:\n      tag_52\n      jump\t// in\n    tag_49:\n      mload(0x40)\n      tag_53\n      swap2\n      swap1\n      tag_33\n      jump\t// in\n    tag_53:\n      mload(0x40)\n      dup1\n      swap2\n      sub\n      swap1\n      return\n        /* \"contracts/core/JobBoardDelta.sol\":6661:6832  function setPrice(Duration _duration, uint256 _price) external onlyAdmin returns (bool _set) {... */\n    tag_8:\n      callvalue\n      dup1\n      iszero\n      tag_54\n      jumpi\n      0x00\n      dup1\n      revert\n    tag_54:\n      pop\n      tag_55\n      0x04\n      dup1\n      calldatasize\n      sub\n      dup2\n      add\n      swap1\n      tag_56\n      swap2\n      swap1\n      tag_57\n      jump\t// in\n    tag_56:\n      tag_58\n      jump\t// in\n    tag_55:\n      mload(0x40)\n      tag_59\n      swap2\n      swap1\n      tag_60\n      jump\t// in\n    tag_59:\n      mload(0x40)\n      dup1\n      swap2\n      sub\n      swap1\n      return\n        /* \"contracts/core/JobBoardDelta.sol\":5691:6519  function addReward(uint256 _jobId, address _erc20, uint256 _rewardAmount, uint256 _amountPerApplicant) payable external returns (Reward memory _reward) {... */\n    tag_9:\n      tag_61\n      0x04\n      dup1\n      calldatasize\n      sub\n      dup2\n      add\n      swap1\n      tag_62\n      swap2\n      swap1\n      tag_63\n      jump\t// in\n    tag_62:\n      tag_64\n      jump\t// in\n    tag_61:\n      mload(0x40)\n      tag_65\n      swap2\n      swap1\n      tag_66\n      jump\t// in\n    tag_65:\n      mload(0x40)\n      dup1\n      swap2\n      sub\n      swap1\n      return\n        /* \"contracts/core/JobBoardDelta.sol\":3479:4886  function approveRewards(uint256 _jobId, uint256 [] memory _applicantIds) external returns (uint256 _rewardedCount) {... */\n    tag_10:\n      callvalue\n      dup1\n      iszero\n      tag_67\n      jumpi\n      0x00\n      dup1\n      revert\n    tag_67:\n      pop\n      tag_68\n      0x04\n      dup1\n      calldatasize\n      sub\n      dup2\n      add\n      swap1\n      tag_69\n      swap2\n      swap1\n      tag_70\n      jump\t// in\n    tag_69:\n      tag_71\n      jump\t// in\n    tag_68:\n      mload(0x40)\n      tag_72\n      swap2\n      swap1\n      tag_33\n      jump\t// in\n    tag_72:\n      mload(0x40)\n      dup1\n      swap2\n      sub\n      swap1\n      return\n        /* \"contracts/core/JobBoardDelta.sol\":2007:2119  function getPaymentErc20() view external returns (address _paymentErc20) {... */\n    tag_11:\n      callvalue\n      dup1\n      iszero\n      tag_73\n      jumpi\n      0x00\n      dup1\n      revert\n    tag_73:\n      pop\n      tag_74\n      tag_75\n      jump\t// in\n    tag_74:\n      mload(0x40)\n      tag_76\n      swap2\n      swap1\n      tag_77\n      jump\t// in\n    tag_76:\n      mload(0x40)\n      dup1\n      swap2\n      sub\n      swap1\n      return\n        /* \"contracts/core/JobBoardDelta.sol\":1492:1616  function hasReward(uint256 _jobId) view external returns (bool _hasReward) {... */\n    tag_12:\n      callvalue\n      dup1\n      iszero\n      tag_78\n      jumpi\n      0x00\n      dup1\n      revert\n    tag_78:\n      pop\n      tag_79\n      0x04\n      dup1\n      calldatasize\n      sub\n      dup2\n      add\n      swap1\n      tag_80\n      swap2\n      swap1\n      tag_23\n      jump\t// in\n    tag_80:\n      tag_81\n      jump\t// in\n    tag_79:\n      mload(0x40)\n      tag_82\n      swap2\n      swap1\n      tag_60\n      jump\t// in\n    tag_82:\n      mload(0x40)\n      dup1\n      swap2\n      sub\n      swap1\n      return\n        /* \"contracts/core/JobBoardDelta.sol\":4894:5683  function postJob(string memory _cid, Duration _duration) payable external returns (Job memory _job){... */\n    tag_13:\n      tag_83\n      0x04\n      dup1\n      calldatasize\n      sub\n      dup2\n      add\n      swap1\n      tag_84\n      swap2\n      swap1\n      tag_85\n      jump\t// in\n    tag_84:\n      tag_86\n      jump\t// in\n    tag_83:\n      mload(0x40)\n      tag_87\n      swap2\n      swap1\n      tag_43\n      jump\t// in\n    tag_87:\n      mload(0x40)\n      dup1\n      swap2\n      sub\n      swap1\n      return\n        /* \"contracts/core/JobBoardDelta.sol\":1372:1484  function getJob(uint256 _jobId) view external returns (Job memory _job){... */\n    tag_14:\n      callvalue\n      dup1\n      iszero\n      tag_88\n      jumpi\n      0x00\n      dup1\n      revert\n    tag_88:\n      pop\n      tag_89\n      0x04\n      dup1\n      calldatasize\n      sub\n      dup2\n      add\n      swap1\n      tag_90\n      swap2\n      swap1\n      tag_23\n      jump\t// in\n    tag_90:\n      tag_91\n      jump\t// in\n    tag_89:\n      mload(0x40)\n      tag_92\n      swap2\n      swap1\n      tag_43\n      jump\t// in\n    tag_92:\n      mload(0x40)\n      dup1\n      swap2\n      sub\n      swap1\n      return\n        /* \"contracts/core/JobBoardDelta.sol\":2127:2258  function getJobReward(uint256 _jobId) view external returns (Reward memory _reward) {... */\n    tag_15:\n      callvalue\n      dup1\n      iszero\n      tag_93\n      jumpi\n      0x00\n      dup1\n      revert\n    tag_93:\n      pop\n      tag_94\n      0x04\n      dup1\n      calldatasize\n      sub\n      dup2\n      add\n      swap1\n      tag_95\n      swap2\n      swap1\n      tag_23\n      jump\t// in\n    tag_95:\n      tag_96\n      jump\t// in\n    tag_94:\n      mload(0x40)\n      tag_97\n      swap2\n      swap1\n      tag_66\n      jump\t// in\n    tag_97:\n      mload(0x40)\n      dup1\n      swap2\n      sub\n      swap1\n      return\n        /* \"contracts/core/JobBoardDelta.sol\":2266:2415  function getApplicant(uint256 _applicantId) view external returns (Applicant memory _applicant) {... */\n    tag_16:\n      callvalue\n      dup1\n      iszero\n      tag_98\n      jumpi\n      0x00\n      dup1\n      revert\n    tag_98:\n      pop\n      tag_99\n      0x04\n      dup1\n      calldatasize\n      sub\n      dup2\n      add\n      swap1\n      tag_100\n      swap2\n      swap1\n      tag_23\n      jump\t// in\n    tag_100:\n      tag_101\n      jump\t// in\n    tag_99:\n      mload(0x40)\n      tag_102\n      swap2\n      swap1\n      tag_103\n      jump\t// in\n    tag_102:\n      mload(0x40)\n      dup1\n      swap2\n      sub\n      swap1\n      return\n        /* \"contracts/core/JobBoardDelta.sol\":3327:3471  function getApplicantIds(uint256 _jobId) view external returns (uint256 [] memory _jobIds) {... */\n    tag_24:\n        /* \"contracts/core/JobBoardDelta.sol\":3391:3416  uint256 [] memory _jobIds */\n      0x60\n        /* \"contracts/core/JobBoardDelta.sol\":3436:3455  applicantIdsByJobId */\n      0x08\n        /* \"contracts/core/JobBoardDelta.sol\":3436:3463  applicantIdsByJobId[_jobId] */\n      0x00\n        /* \"contracts/core/JobBoardDelta.sol\":3456:3462  _jobId */\n      dup4\n        /* \"contracts/core/JobBoardDelta.sol\":3436:3463  applicantIdsByJobId[_jobId] */\n      dup2\n      mstore\n      0x20\n      add\n      swap1\n      dup2\n      mstore\n      0x20\n      add\n      0x00\n      keccak256\n        /* \"contracts/core/JobBoardDelta.sol\":3429:3463  return applicantIdsByJobId[_jobId] */\n      dup1\n      sload\n      dup1\n      0x20\n      mul\n      0x20\n      add\n      mload(0x40)\n      swap1\n      dup2\n      add\n      0x40\n      mstore\n      dup1\n      swap3\n      swap2\n      swap1\n      dup2\n      dup2\n      mstore\n      0x20\n      add\n      dup3\n      dup1\n      sload\n      dup1\n      iszero\n      tag_105\n      jumpi\n      0x20\n      mul\n      dup3\n      add\n      swap2\n      swap1\n      0x00\n      mstore\n      keccak256(0x00, 0x20)\n      swap1\n    tag_106:\n      dup2\n      sload\n      dup2\n      mstore\n      0x20\n      add\n      swap1\n      0x01\n      add\n      swap1\n      dup1\n      dup4\n      gt\n      tag_106\n      jumpi\n    tag_105:\n      pop\n      pop\n      pop\n      pop\n      pop\n      swap1\n      pop\n        /* \"contracts/core/JobBoardDelta.sol\":3327:3471  function getApplicantIds(uint256 _jobId) view external returns (uint256 [] memory _jobIds) {... */\n      swap2\n      swap1\n      pop\n      jump\t// out\n        /* \"contracts/core/JobBoardDelta.sol\":1869:1999  function getPrice(Duration _duration)  view external returns (uint256 _price) {... */\n    tag_31:\n        /* \"contracts/core/JobBoardDelta.sol\":1931:1945  uint256 _price */\n      0x00\n        /* \"contracts/core/JobBoardDelta.sol\":1965:1980  priceByDuration */\n      0x07\n        /* \"contracts/core/JobBoardDelta.sol\":1965:1991  priceByDuration[_duration] */\n      0x00\n        /* \"contracts/core/JobBoardDelta.sol\":1981:1990  _duration */\n      dup4\n        /* \"contracts/core/JobBoardDelta.sol\":1965:1991  priceByDuration[_duration] */\n      0x02\n      dup2\n      gt\n      iszero\n      tag_108\n      jumpi\n      tag_109\n      tag_110\n      jump\t// in\n    tag_109:\n    tag_108:\n      0x02\n      dup2\n      gt\n      iszero\n      tag_111\n      jumpi\n      tag_112\n      tag_110\n      jump\t// in\n    tag_112:\n    tag_111:\n      dup2\n      mstore\n      0x20\n      add\n      swap1\n      dup2\n      mstore\n      0x20\n      add\n      0x00\n      keccak256\n      sload\n        /* \"contracts/core/JobBoardDelta.sol\":1958:1991  return priceByDuration[_duration] */\n      swap1\n      pop\n        /* \"contracts/core/JobBoardDelta.sol\":1869:1999  function getPrice(Duration _duration)  view external returns (uint256 _price) {... */\n      swap2\n      swap1\n      pop\n      jump\t// out\n        /* \"contracts/core/JobBoardDelta.sol\":6527:6653  function getOwnerJobIds() view external returns (uint256 [] memory _jobIds) {... */\n    tag_36:\n        /* \"contracts/core/JobBoardDelta.sol\":6576:6601  uint256 [] memory _jobIds */\n      0x60\n        /* \"contracts/core/JobBoardDelta.sol\":6621:6633  jobIdByOwner */\n      0x04\n        /* \"contracts/core/JobBoardDelta.sol\":6621:6645  jobIdByOwner[msg.sender] */\n      0x00\n        /* \"contracts/core/JobBoardDelta.sol\":6634:6644  msg.sender */\n      caller\n        /* \"contracts/core/JobBoardDelta.sol\":6621:6645  jobIdByOwner[msg.sender] */\n      0xffffffffffffffffffffffffffffffffffffffff\n      and\n      0xffffffffffffffffffffffffffffffffffffffff\n      and\n      dup2\n      mstore\n      0x20\n      add\n      swap1\n      dup2\n      mstore\n      0x20\n      add\n      0x00\n      keccak256\n        /* \"contracts/core/JobBoardDelta.sol\":6614:6645  return jobIdByOwner[msg.sender] */\n      dup1\n      sload\n      dup1\n      0x20\n      mul\n      0x20\n      add\n      mload(0x40)\n      swap1\n      dup2\n      add\n      0x40\n      mstore\n      dup1\n      swap3\n      swap2\n      swap1\n      dup2\n      dup2\n      mstore\n      0x20\n      add\n      dup3\n      dup1\n      sload\n      dup1\n      iszero\n      tag_114\n      jumpi\n      0x20\n      mul\n      dup3\n      add\n      swap2\n      swap1\n      0x00\n      mstore\n      keccak256(0x00, 0x20)\n      swap1\n    tag_115:\n      dup2\n      sload\n      dup2\n      mstore\n      0x20\n      add\n      swap1\n      0x01\n      add\n      swap1\n      dup1\n      dup4\n      gt\n      tag_115\n      jumpi\n    tag_114:\n      pop\n      pop\n      pop\n      pop\n      pop\n      swap1\n      pop\n        /* \"contracts/core/JobBoardDelta.sol\":6527:6653  function getOwnerJobIds() view external returns (uint256 [] memory _jobIds) {... */\n      swap1\n      jump\t// out\n        /* \"contracts/core/JobBoardDelta.sol\":1624:1861  function makeJobUnavailable(uint256 _jobId) external returns (Job memory _job){... */\n    tag_41:\n        /* \"contracts/core/JobBoardDelta.sol\":1686:1701  Job memory _job */\n      tag_116\n      tag_117\n      jump\t// in\n    tag_116:\n        /* \"contracts/core/JobBoardDelta.sol\":1746:1756  msg.sender */\n      caller\n        /* \"contracts/core/JobBoardDelta.sol\":1721:1756  jobById[_jobId].owner == msg.sender */\n      0xffffffffffffffffffffffffffffffffffffffff\n      and\n        /* \"contracts/core/JobBoardDelta.sol\":1721:1728  jobById */\n      0x03\n        /* \"contracts/core/JobBoardDelta.sol\":1721:1736  jobById[_jobId] */\n      0x00\n        /* \"contracts/core/JobBoardDelta.sol\":1729:1735  _jobId */\n      dup5\n        /* \"contracts/core/JobBoardDelta.sol\":1721:1736  jobById[_jobId] */\n      dup2\n      mstore\n      0x20\n      add\n      swap1\n      dup2\n      mstore\n      0x20\n      add\n      0x00\n      keccak256\n        /* \"contracts/core/JobBoardDelta.sol\":1721:1742  jobById[_jobId].owner */\n      0x04\n      add\n      0x01\n      swap1\n      sload\n      swap1\n      0x0100\n      exp\n      swap1\n      div\n      0xffffffffffffffffffffffffffffffffffffffff\n      and\n        /* \"contracts/core/JobBoardDelta.sol\":1721:1756  jobById[_jobId].owner == msg.sender */\n      0xffffffffffffffffffffffffffffffffffffffff\n      and\n      eq\n        /* \"contracts/core/JobBoardDelta.sol\":1713:1775  require(jobById[_jobId].owner == msg.sender, \"job owner only\") */\n      tag_119\n      jumpi\n      mload(0x40)\n      0x08c379a000000000000000000000000000000000000000000000000000000000\n      dup2\n      mstore\n      0x04\n      add\n      tag_120\n      swap1\n      tag_121\n      jump\t// in\n    tag_120:\n      mload(0x40)\n      dup1\n      swap2\n      sub\n      swap1\n      revert\n    tag_119:\n        /* \"contracts/core/JobBoardDelta.sol\":1814:1819  false */\n      0x00\n        /* \"contracts/core/JobBoardDelta.sol\":1786:1793  jobById */\n      0x03\n        /* \"contracts/core/JobBoardDelta.sol\":1786:1801  jobById[_jobId] */\n      0x00\n        /* \"contracts/core/JobBoardDelta.sol\":1794:1800  _jobId */\n      dup5\n        /* \"contracts/core/JobBoardDelta.sol\":1786:1801  jobById[_jobId] */\n      dup2\n      mstore\n      0x20\n      add\n      swap1\n      dup2\n      mstore\n      0x20\n      add\n      0x00\n      keccak256\n        /* \"contracts/core/JobBoardDelta.sol\":1786:1811  jobById[_jobId].available */\n      0x04\n      add\n      0x00\n        /* \"contracts/core/JobBoardDelta.sol\":1786:1819  jobById[_jobId].available = false */\n      0x0100\n      exp\n      dup2\n      sload\n      dup2\n      0xff\n      mul\n      not\n      and\n      swap1\n      dup4\n      iszero\n      iszero\n      mul\n      or\n      swap1\n      sstore\n      pop\n        /* \"contracts/core/JobBoardDelta.sol\":1838:1845  jobById */\n      0x03\n        /* \"contracts/core/JobBoardDelta.sol\":1838:1853  jobById[_jobId] */\n      0x00\n        /* \"contracts/core/JobBoardDelta.sol\":1846:1852  _jobId */\n      dup4\n        /* \"contracts/core/JobBoardDelta.sol\":1838:1853  jobById[_jobId] */\n      dup2\n      mstore\n      0x20\n      add\n      swap1\n      dup2\n      mstore\n      0x20\n      add\n      0x00\n      keccak256\n        /* \"contracts/core/JobBoardDelta.sol\":1831:1853  return jobById[_jobId] */\n      mload(0x40)\n      dup1\n      0xc0\n      add\n      0x40\n      mstore\n      swap1\n      dup2\n      0x00\n      dup3\n      add\n      sload\n      dup2\n      mstore\n      0x20\n      add\n      0x01\n      dup3\n      add\n      dup1\n      sload\n      tag_122\n      swap1\n      tag_123\n      jump\t// in\n    tag_122:\n      dup1\n      0x1f\n      add\n      0x20\n      dup1\n      swap2\n      div\n      mul\n      0x20\n      add\n      mload(0x40)\n      swap1\n      dup2\n      add\n      0x40\n      mstore\n      dup1\n      swap3\n      swap2\n      swap1\n      dup2\n      dup2\n      mstore\n      0x20\n      add\n      dup3\n      dup1\n      sload\n      tag_124\n      swap1\n      tag_123\n      jump\t// in\n    tag_124:\n      dup1\n      iszero\n      tag_125\n      jumpi\n      dup1\n      0x1f\n      lt\n      tag_126\n      jumpi\n      0x0100\n      dup1\n      dup4\n      sload\n      div\n      mul\n      dup4\n      mstore\n      swap2\n      0x20\n      add\n      swap2\n      jump(tag_125)\n    tag_126:\n      dup3\n      add\n      swap2\n      swap1\n      0x00\n      mstore\n      keccak256(0x00, 0x20)\n      swap1\n    tag_127:\n      dup2\n      sload\n      dup2\n      mstore\n      swap1\n      0x01\n      add\n      swap1\n      0x20\n      add\n      dup1\n      dup4\n      gt\n      tag_127\n      jumpi\n      dup3\n      swap1\n      sub\n      0x1f\n      and\n      dup3\n      add\n      swap2\n    tag_125:\n      pop\n      pop\n      pop\n      pop\n      pop\n      dup2\n      mstore\n      0x20\n      add\n      0x02\n      dup3\n      add\n      sload\n      dup2\n      mstore\n      0x20\n      add\n      0x03\n      dup3\n      add\n      sload\n      dup2\n      mstore\n      0x20\n      add\n      0x04\n      dup3\n      add\n      0x00\n      swap1\n      sload\n      swap1\n      0x0100\n      exp\n      swap1\n      div\n      0xff\n      and\n      iszero\n      iszero\n      iszero\n      iszero\n      dup2\n      mstore\n      0x20\n      add\n      0x04\n      dup3\n      add\n      0x01\n      swap1\n      sload\n      swap1\n      0x0100\n      exp\n      swap1\n      div\n      0xffffffffffffffffffffffffffffffffffffffff\n      and\n      0xffffffffffffffffffffffffffffffffffffffff\n      and\n      0xffffffffffffffffffffffffffffffffffffffff\n      and\n      dup2\n      mstore\n      pop\n      pop\n      swap1\n      pop\n        /* \"contracts/core/JobBoardDelta.sol\":1624:1861  function makeJobUnavailable(uint256 _jobId) external returns (Job memory _job){... */\n      swap2\n      swap1\n      pop\n      jump\t// out\n        /* \"contracts/core/JobBoardDelta.sol\":1265:1364  function getJobIds() view external returns (uint256 [] memory _ids){... */\n    tag_46:\n        /* \"contracts/core/JobBoardDelta.sol\":1309:1331  uint256 [] memory _ids */\n      0x60\n        /* \"contracts/core/JobBoardDelta.sol\":1350:1356  jobIds */\n      0x02\n        /* \"contracts/core/JobBoardDelta.sol\":1343:1356  return jobIds */\n      dup1\n      sload\n      dup1\n      0x20\n      mul\n      0x20\n      add\n      mload(0x40)\n      swap1\n      dup2\n      add\n      0x40\n      mstore\n      dup1\n      swap3\n      swap2\n      swap1\n      dup2\n      dup2\n      mstore\n      0x20\n      add\n      dup3\n      dup1\n      sload\n      dup1\n      iszero\n      tag_129\n      jumpi\n      0x20\n      mul\n      dup3\n      add\n      swap2\n      swap1\n      0x00\n      mstore\n      keccak256(0x00, 0x20)\n      swap1\n    tag_130:\n      dup2\n      sload\n      dup2\n      mstore\n      0x20\n      add\n      swap1\n      0x01\n      add\n      swap1\n      dup1\n      dup4\n      gt\n      tag_130\n      jumpi\n    tag_129:\n      pop\n      pop\n      pop\n      pop\n      pop\n      swap1\n      pop\n        /* \"contracts/core/JobBoardDelta.sol\":1265:1364  function getJobIds() view external returns (uint256 [] memory _ids){... */\n      swap1\n      jump\t// out\n        /* \"contracts/core/JobBoardDelta.sol\":2423:3319  function applyForJob(uint256 _jobId, string memory _resumeCid, uint256 _rewardChainId, address _rewardAddress, bool _isReferral) external returns (uint256 _applicantCount) {... */\n    tag_52:\n        /* \"contracts/core/JobBoardDelta.sol\":2570:2593  uint256 _applicantCount */\n      0x00\n        /* \"contracts/core/JobBoardDelta.sol\":2643:2647  true */\n      0x01\n        /* \"contracts/core/JobBoardDelta.sol\":2614:2647  jobById[_jobId].available == true */\n      iszero\n      iszero\n        /* \"contracts/core/JobBoardDelta.sol\":2614:2621  jobById */\n      0x03\n        /* \"contracts/core/JobBoardDelta.sol\":2614:2629  jobById[_jobId] */\n      0x00\n        /* \"contracts/core/JobBoardDelta.sol\":2622:2628  _jobId */\n      dup9\n        /* \"contracts/core/JobBoardDelta.sol\":2614:2629  jobById[_jobId] */\n      dup2\n      mstore\n      0x20\n      add\n      swap1\n      dup2\n      mstore\n      0x20\n      add\n      0x00\n      keccak256\n        /* \"contracts/core/JobBoardDelta.sol\":2614:2639  jobById[_jobId].available */\n      0x04\n      add\n      0x00\n      swap1\n      sload\n      swap1\n      0x0100\n      exp\n      swap1\n      div\n      0xff\n      and\n        /* \"contracts/core/JobBoardDelta.sol\":2614:2647  jobById[_jobId].available == true */\n      iszero\n      iszero\n      eq\n        /* \"contracts/core/JobBoardDelta.sol\":2606:2667  require(jobById[_jobId].available == true, \"job unavailable\") */\n      tag_132\n      jumpi\n      mload(0x40)\n      0x08c379a000000000000000000000000000000000000000000000000000000000\n      dup2\n      mstore\n      0x04\n      add\n      tag_133\n      swap1\n      tag_134\n      jump\t// in\n    tag_133:\n      mload(0x40)\n      dup1\n      swap2\n      sub\n      swap1\n      revert\n    tag_132:\n        /* \"contracts/core/JobBoardDelta.sol\":2678:2698  uint256 applicantId_ */\n      0x00\n        /* \"contracts/core/JobBoardDelta.sol\":2701:2708  getId() */\n      tag_135\n        /* \"contracts/core/JobBoardDelta.sol\":2701:2706  getId */\n      tag_136\n        /* \"contracts/core/JobBoardDelta.sol\":2701:2708  getId() */\n      jump\t// in\n    tag_135:\n        /* \"contracts/core/JobBoardDelta.sol\":2678:2708  uint256 applicantId_ = getId() */\n      swap1\n      pop\n        /* \"contracts/core/JobBoardDelta.sol\":2749:3201  Applicant({... */\n      mload(0x40)\n      dup1\n      0xa0\n      add\n      0x40\n      mstore\n      dup1\n        /* \"contracts/core/JobBoardDelta.sol\":2819:2831  applicantId_ */\n      dup3\n        /* \"contracts/core/JobBoardDelta.sol\":2749:3201  Applicant({... */\n      dup2\n      mstore\n      0x20\n      add\n        /* \"contracts/core/JobBoardDelta.sol\":2898:2908  _resumeCid */\n      dup8\n        /* \"contracts/core/JobBoardDelta.sol\":2749:3201  Applicant({... */\n      dup2\n      mstore\n      0x20\n      add\n        /* \"contracts/core/JobBoardDelta.sol\":2973:2987  _rewardChainId */\n      dup7\n        /* \"contracts/core/JobBoardDelta.sol\":2749:3201  Applicant({... */\n      dup2\n      mstore\n      0x20\n      add\n        /* \"contracts/core/JobBoardDelta.sol\":3058:3072  _rewardAddress */\n      dup6\n        /* \"contracts/core/JobBoardDelta.sol\":2749:3201  Applicant({... */\n      0xffffffffffffffffffffffffffffffffffffffff\n      and\n      dup2\n      mstore\n      0x20\n      add\n        /* \"contracts/core/JobBoardDelta.sol\":3138:3149  _isReferral */\n      dup5\n        /* \"contracts/core/JobBoardDelta.sol\":2749:3201  Applicant({... */\n      iszero\n      iszero\n      dup2\n      mstore\n      pop\n        /* \"contracts/core/JobBoardDelta.sol\":2719:2732  applicantById */\n      0x09\n        /* \"contracts/core/JobBoardDelta.sol\":2719:2746  applicantById[applicantId_] */\n      0x00\n        /* \"contracts/core/JobBoardDelta.sol\":2733:2745  applicantId_ */\n      dup4\n        /* \"contracts/core/JobBoardDelta.sol\":2719:2746  applicantById[applicantId_] */\n      dup2\n      mstore\n      0x20\n      add\n      swap1\n      dup2\n      mstore\n      0x20\n      add\n      0x00\n      keccak256\n        /* \"contracts/core/JobBoardDelta.sol\":2719:3201  applicantById[applicantId_] = Applicant({... */\n      0x00\n      dup3\n      add\n      mload\n      dup2\n      0x00\n      add\n      sstore\n      0x20\n      dup3\n      add\n      mload\n      dup2\n      0x01\n      add\n      swap1\n      dup2\n      tag_137\n      swap2\n      swap1\n      tag_138\n      jump\t// in\n    tag_137:\n      pop\n      0x40\n      dup3\n      add\n      mload\n      dup2\n      0x02\n      add\n      sstore\n      0x60\n      dup3\n      add\n      mload\n      dup2\n      0x03\n      add\n      exp(0x0100, 0x00)\n      dup2\n      sload\n      dup2\n      0xffffffffffffffffffffffffffffffffffffffff\n      mul\n      not\n      and\n      swap1\n      dup4\n      0xffffffffffffffffffffffffffffffffffffffff\n      and\n      mul\n      or\n      swap1\n      sstore\n      pop\n      0x80\n      dup3\n      add\n      mload\n      dup2\n      0x03\n      add\n      exp(0x0100, 0x14)\n      dup2\n      sload\n      dup2\n      0xff\n      mul\n      not\n      and\n      swap1\n      dup4\n      iszero\n      iszero\n      mul\n      or\n      swap1\n      sstore\n      pop\n      swap1\n      pop\n      pop\n        /* \"contracts/core/JobBoardDelta.sol\":3212:3231  applicantIdsByJobId */\n      0x08\n        /* \"contracts/core/JobBoardDelta.sol\":3212:3239  applicantIdsByJobId[_jobId] */\n      0x00\n        /* \"contracts/core/JobBoardDelta.sol\":3232:3238  _jobId */\n      dup9\n        /* \"contracts/core/JobBoardDelta.sol\":3212:3239  applicantIdsByJobId[_jobId] */\n      dup2\n      mstore\n      0x20\n      add\n      swap1\n      dup2\n      mstore\n      0x20\n      add\n      0x00\n      keccak256\n        /* \"contracts/core/JobBoardDelta.sol\":3245:3257  applicantId_ */\n      dup2\n        /* \"contracts/core/JobBoardDelta.sol\":3212:3258  applicantIdsByJobId[_jobId].push(applicantId_) */\n      swap1\n      dup1\n      0x01\n      dup2\n      sload\n      add\n      dup1\n      dup3\n      sstore\n      dup1\n      swap2\n      pop\n      pop\n      0x01\n      swap1\n      sub\n      swap1\n      0x00\n      mstore\n      keccak256(0x00, 0x20)\n      add\n      0x00\n      swap1\n      swap2\n      swap1\n      swap2\n      swap1\n      swap2\n      pop\n      sstore\n        /* \"contracts/core/JobBoardDelta.sol\":3276:3295  applicantIdsByJobId */\n      0x08\n        /* \"contracts/core/JobBoardDelta.sol\":3276:3303  applicantIdsByJobId[_jobId] */\n      0x00\n        /* \"contracts/core/JobBoardDelta.sol\":3296:3302  _jobId */\n      dup9\n        /* \"contracts/core/JobBoardDelta.sol\":3276:3303  applicantIdsByJobId[_jobId] */\n      dup2\n      mstore\n      0x20\n      add\n      swap1\n      dup2\n      mstore\n      0x20\n      add\n      0x00\n      keccak256\n        /* \"contracts/core/JobBoardDelta.sol\":3276:3310  applicantIdsByJobId[_jobId].length */\n      dup1\n      sload\n      swap1\n      pop\n        /* \"contracts/core/JobBoardDelta.sol\":3269:3310  return applicantIdsByJobId[_jobId].length */\n      swap2\n      pop\n      pop\n        /* \"contracts/core/JobBoardDelta.sol\":2423:3319  function applyForJob(uint256 _jobId, string memory _resumeCid, uint256 _rewardChainId, address _rewardAddress, bool _isReferral) external returns (uint256 _applicantCount) {... */\n      swap6\n      swap5\n      pop\n      pop\n      pop\n      pop\n      pop\n      jump\t// out\n        /* \"contracts/core/JobBoardDelta.sol\":6661:6832  function setPrice(Duration _duration, uint256 _price) external onlyAdmin returns (bool _set) {... */\n    tag_58:\n        /* \"contracts/core/JobBoardDelta.sol\":6743:6752  bool _set */\n      0x00\n        /* \"contracts/core/JobBoardDelta.sol\":343:348  admin */\n      0x01\n      0x00\n      swap1\n      sload\n      swap1\n      0x0100\n      exp\n      swap1\n      div\n      0xffffffffffffffffffffffffffffffffffffffff\n      and\n        /* \"contracts/core/JobBoardDelta.sol\":329:348  msg.sender == admin */\n      0xffffffffffffffffffffffffffffffffffffffff\n      and\n        /* \"contracts/core/JobBoardDelta.sol\":329:339  msg.sender */\n      caller\n        /* \"contracts/core/JobBoardDelta.sol\":329:348  msg.sender == admin */\n      0xffffffffffffffffffffffffffffffffffffffff\n      and\n      eq\n        /* \"contracts/core/JobBoardDelta.sol\":321:363  require(msg.sender == admin, \"admin only\") */\n      tag_141\n      jumpi\n      mload(0x40)\n      0x08c379a000000000000000000000000000000000000000000000000000000000\n      dup2\n      mstore\n      0x04\n      add\n      tag_142\n      swap1\n      tag_143\n      jump\t// in\n    tag_142:\n      mload(0x40)\n      dup1\n      swap2\n      sub\n      swap1\n      revert\n    tag_141:\n        /* \"contracts/core/JobBoardDelta.sol\":6794:6800  _price */\n      dup2\n        /* \"contracts/core/JobBoardDelta.sol\":6765:6780  priceByDuration */\n      0x07\n        /* \"contracts/core/JobBoardDelta.sol\":6765:6791  priceByDuration[_duration] */\n      0x00\n        /* \"contracts/core/JobBoardDelta.sol\":6781:6790  _duration */\n      dup6\n        /* \"contracts/core/JobBoardDelta.sol\":6765:6791  priceByDuration[_duration] */\n      0x02\n      dup2\n      gt\n      iszero\n      tag_145\n      jumpi\n      tag_146\n      tag_110\n      jump\t// in\n    tag_146:\n    tag_145:\n      0x02\n      dup2\n      gt\n      iszero\n      tag_147\n      jumpi\n      tag_148\n      tag_110\n      jump\t// in\n    tag_148:\n    tag_147:\n      dup2\n      mstore\n      0x20\n      add\n      swap1\n      dup2\n      mstore\n      0x20\n      add\n      0x00\n      keccak256\n        /* \"contracts/core/JobBoardDelta.sol\":6765:6800  priceByDuration[_duration] = _price */\n      dup2\n      swap1\n      sstore\n      pop\n        /* \"contracts/core/JobBoardDelta.sol\":6819:6823  true */\n      0x01\n        /* \"contracts/core/JobBoardDelta.sol\":6812:6823  return true */\n      swap1\n      pop\n        /* \"contracts/core/JobBoardDelta.sol\":6661:6832  function setPrice(Duration _duration, uint256 _price) external onlyAdmin returns (bool _set) {... */\n      swap3\n      swap2\n      pop\n      pop\n      jump\t// out\n        /* \"contracts/core/JobBoardDelta.sol\":5691:6519  function addReward(uint256 _jobId, address _erc20, uint256 _rewardAmount, uint256 _amountPerApplicant) payable external returns (Reward memory _reward) {... */\n    tag_64:\n        /* \"contracts/core/JobBoardDelta.sol\":5820:5841  Reward memory _reward */\n      tag_149\n      tag_150\n      jump\t// in\n    tag_149:\n        /* \"contracts/core/JobBoardDelta.sol\":5887:5897  msg.sender */\n      caller\n        /* \"contracts/core/JobBoardDelta.sol\":5862:5897  jobById[_jobId].owner == msg.sender */\n      0xffffffffffffffffffffffffffffffffffffffff\n      and\n        /* \"contracts/core/JobBoardDelta.sol\":5862:5869  jobById */\n      0x03\n        /* \"contracts/core/JobBoardDelta.sol\":5862:5877  jobById[_jobId] */\n      0x00\n        /* \"contracts/core/JobBoardDelta.sol\":5870:5876  _jobId */\n      dup8\n        /* \"contracts/core/JobBoardDelta.sol\":5862:5877  jobById[_jobId] */\n      dup2\n      mstore\n      0x20\n      add\n      swap1\n      dup2\n      mstore\n      0x20\n      add\n      0x00\n      keccak256\n        /* \"contracts/core/JobBoardDelta.sol\":5862:5883  jobById[_jobId].owner */\n      0x04\n      add\n      0x01\n      swap1\n      sload\n      swap1\n      0x0100\n      exp\n      swap1\n      div\n      0xffffffffffffffffffffffffffffffffffffffff\n      and\n        /* \"contracts/core/JobBoardDelta.sol\":5862:5897  jobById[_jobId].owner == msg.sender */\n      0xffffffffffffffffffffffffffffffffffffffff\n      and\n      eq\n        /* \"contracts/core/JobBoardDelta.sol\":5854:5916  require(jobById[_jobId].owner == msg.sender, \"job owner only\") */\n      tag_152\n      jumpi\n      mload(0x40)\n      0x08c379a000000000000000000000000000000000000000000000000000000000\n      dup2\n      mstore\n      0x04\n      add\n      tag_153\n      swap1\n      tag_121\n      jump\t// in\n    tag_153:\n      mload(0x40)\n      dup1\n      swap2\n      sub\n      swap1\n      revert\n    tag_152:\n        /* \"contracts/core/JobBoardDelta.sol\":5964:5968  true */\n      0x01\n        /* \"contracts/core/JobBoardDelta.sol\":5935:5968  jobById[_jobId].available == true */\n      iszero\n      iszero\n        /* \"contracts/core/JobBoardDelta.sol\":5935:5942  jobById */\n      0x03\n        /* \"contracts/core/JobBoardDelta.sol\":5935:5950  jobById[_jobId] */\n      0x00\n        /* \"contracts/core/JobBoardDelta.sol\":5943:5949  _jobId */\n      dup8\n        /* \"contracts/core/JobBoardDelta.sol\":5935:5950  jobById[_jobId] */\n      dup2\n      mstore\n      0x20\n      add\n      swap1\n      dup2\n      mstore\n      0x20\n      add\n      0x00\n      keccak256\n        /* \"contracts/core/JobBoardDelta.sol\":5935:5960  jobById[_jobId].available */\n      0x04\n      add\n      0x00\n      swap1\n      sload\n      swap1\n      0x0100\n      exp\n      swap1\n      div\n      0xff\n      and\n        /* \"contracts/core/JobBoardDelta.sol\":5935:5968  jobById[_jobId].available == true */\n      iszero\n      iszero\n      eq\n        /* \"contracts/core/JobBoardDelta.sol\":5927:5988  require(jobById[_jobId].available == true, \"job unavailable\") */\n      tag_154\n      jumpi\n      mload(0x40)\n      0x08c379a000000000000000000000000000000000000000000000000000000000\n      dup2\n      mstore\n      0x04\n      add\n      tag_155\n      swap1\n      tag_134\n      jump\t// in\n    tag_155:\n      mload(0x40)\n      dup1\n      swap2\n      sub\n      swap1\n      revert\n    tag_154:\n        /* \"contracts/core/JobBoardDelta.sol\":6009:6042  transferIn(_erc20, _rewardAmount) */\n      tag_156\n        /* \"contracts/core/JobBoardDelta.sol\":6020:6026  _erc20 */\n      dup5\n        /* \"contracts/core/JobBoardDelta.sol\":6028:6041  _rewardAmount */\n      dup5\n        /* \"contracts/core/JobBoardDelta.sol\":6009:6019  transferIn */\n      tag_157\n        /* \"contracts/core/JobBoardDelta.sol\":6009:6042  transferIn(_erc20, _rewardAmount) */\n      jump\t// in\n    tag_156:\n        /* \"contracts/core/JobBoardDelta.sol\":6001:6069  require(transferIn(_erc20, _rewardAmount), \"reward transfer failed\") */\n      tag_158\n      jumpi\n      mload(0x40)\n      0x08c379a000000000000000000000000000000000000000000000000000000000\n      dup2\n      mstore\n      0x04\n      add\n      tag_159\n      swap1\n      tag_160\n      jump\t// in\n    tag_159:\n      mload(0x40)\n      dup1\n      swap2\n      sub\n      swap1\n      revert\n    tag_158:\n        /* \"contracts/core/JobBoardDelta.sol\":6109:6113  true */\n      0x01\n        /* \"contracts/core/JobBoardDelta.sol\":6082:6098  hasRewardByJobId */\n      0x05\n        /* \"contracts/core/JobBoardDelta.sol\":6082:6106  hasRewardByJobId[_jobId] */\n      0x00\n        /* \"contracts/core/JobBoardDelta.sol\":6099:6105  _jobId */\n      dup8\n        /* \"contracts/core/JobBoardDelta.sol\":6082:6106  hasRewardByJobId[_jobId] */\n      dup2\n      mstore\n      0x20\n      add\n      swap1\n      dup2\n      mstore\n      0x20\n      add\n      0x00\n      keccak256\n      0x00\n        /* \"contracts/core/JobBoardDelta.sol\":6082:6113  hasRewardByJobId[_jobId] = true */\n      0x0100\n      exp\n      dup2\n      sload\n      dup2\n      0xff\n      mul\n      not\n      and\n      swap1\n      dup4\n      iszero\n      iszero\n      mul\n      or\n      swap1\n      sstore\n      pop\n        /* \"contracts/core/JobBoardDelta.sol\":6149:6472  Reward({... */\n      mload(0x40)\n      dup1\n      0x80\n      add\n      0x40\n      mstore\n      dup1\n        /* \"contracts/core/JobBoardDelta.sol\":6209:6215  _erc20 */\n      dup6\n        /* \"contracts/core/JobBoardDelta.sol\":6149:6472  Reward({... */\n      0xffffffffffffffffffffffffffffffffffffffff\n      and\n      dup2\n      mstore\n      0x20\n      add\n        /* \"contracts/core/JobBoardDelta.sol\":6273:6286  _rewardAmount */\n      dup5\n        /* \"contracts/core/JobBoardDelta.sol\":6149:6472  Reward({... */\n      dup2\n      mstore\n      0x20\n      add\n        /* \"contracts/core/JobBoardDelta.sol\":6350:6369  _amountPerApplicant */\n      dup4\n        /* \"contracts/core/JobBoardDelta.sol\":6149:6472  Reward({... */\n      dup2\n      mstore\n      0x20\n      add\n        /* \"contracts/core/JobBoardDelta.sol\":6427:6428  0 */\n      0x00\n        /* \"contracts/core/JobBoardDelta.sol\":6149:6472  Reward({... */\n      dup2\n      mstore\n      pop\n        /* \"contracts/core/JobBoardDelta.sol\":6125:6138  rewardByJobId */\n      0x06\n        /* \"contracts/core/JobBoardDelta.sol\":6125:6146  rewardByJobId[_jobId] */\n      0x00\n        /* \"contracts/core/JobBoardDelta.sol\":6139:6145  _jobId */\n      dup8\n        /* \"contracts/core/JobBoardDelta.sol\":6125:6146  rewardByJobId[_jobId] */\n      dup2\n      mstore\n      0x20\n      add\n      swap1\n      dup2\n      mstore\n      0x20\n      add\n      0x00\n      keccak256\n        /* \"contracts/core/JobBoardDelta.sol\":6125:6472  rewardByJobId[_jobId] = Reward({... */\n      0x00\n      dup3\n      add\n      mload\n      dup2\n      0x00\n      add\n      exp(0x0100, 0x00)\n      dup2\n      sload\n      dup2\n      0xffffffffffffffffffffffffffffffffffffffff\n      mul\n      not\n      and\n      swap1\n      dup4\n      0xffffffffffffffffffffffffffffffffffffffff\n      and\n      mul\n      or\n      swap1\n      sstore\n      pop\n      0x20\n      dup3\n      add\n      mload\n      dup2\n      0x01\n      add\n      sstore\n      0x40\n      dup3\n      add\n      mload\n      dup2\n      0x02\n      add\n      sstore\n      0x60\n      dup3\n      add\n      mload\n      dup2\n      0x03\n      add\n      sstore\n      swap1\n      pop\n      pop\n        /* \"contracts/core/JobBoardDelta.sol\":6490:6503  rewardByJobId */\n      0x06\n        /* \"contracts/core/JobBoardDelta.sol\":6490:6511  rewardByJobId[_jobId] */\n      0x00\n        /* \"contracts/core/JobBoardDelta.sol\":6504:6510  _jobId */\n      dup7\n        /* \"contracts/core/JobBoardDelta.sol\":6490:6511  rewardByJobId[_jobId] */\n      dup2\n      mstore\n      0x20\n      add\n      swap1\n      dup2\n      mstore\n      0x20\n      add\n      0x00\n      keccak256\n        /* \"contracts/core/JobBoardDelta.sol\":6483:6511  return rewardByJobId[_jobId] */\n      mload(0x40)\n      dup1\n      0x80\n      add\n      0x40\n      mstore\n      swap1\n      dup2\n      0x00\n      dup3\n      add\n      0x00\n      swap1\n      sload\n      swap1\n      0x0100\n      exp\n      swap1\n      div\n      0xffffffffffffffffffffffffffffffffffffffff\n      and\n      0xffffffffffffffffffffffffffffffffffffffff\n      and\n      0xffffffffffffffffffffffffffffffffffffffff\n      and\n      dup2\n      mstore\n      0x20\n      add\n      0x01\n      dup3\n      add\n      sload\n      dup2\n      mstore\n      0x20\n      add\n      0x02\n      dup3\n      add\n      sload\n      dup2\n      mstore\n      0x20\n      add\n      0x03\n      dup3\n      add\n      sload\n      dup2\n      mstore\n      pop\n      pop\n      swap1\n      pop\n        /* \"contracts/core/JobBoardDelta.sol\":5691:6519  function addReward(uint256 _jobId, address _erc20, uint256 _rewardAmount, uint256 _amountPerApplicant) payable external returns (Reward memory _reward) {... */\n      swap5\n      swap4\n      pop\n      pop\n      pop\n      pop\n      jump\t// out\n        /* \"contracts/core/JobBoardDelta.sol\":3479:4886  function approveRewards(uint256 _jobId, uint256 [] memory _applicantIds) external returns (uint256 _rewardedCount) {... */\n    tag_71:\n        /* \"contracts/core/JobBoardDelta.sol\":3570:3592  uint256 _rewardedCount */\n      0x00\n        /* \"contracts/core/JobBoardDelta.sol\":3639:3649  msg.sender */\n      caller\n        /* \"contracts/core/JobBoardDelta.sol\":3614:3649  jobById[_jobId].owner == msg.sender */\n      0xffffffffffffffffffffffffffffffffffffffff\n      and\n        /* \"contracts/core/JobBoardDelta.sol\":3614:3621  jobById */\n      0x03\n        /* \"contracts/core/JobBoardDelta.sol\":3614:3629  jobById[_jobId] */\n      0x00\n        /* \"contracts/core/JobBoardDelta.sol\":3622:3628  _jobId */\n      dup6\n        /* \"contracts/core/JobBoardDelta.sol\":3614:3629  jobById[_jobId] */\n      dup2\n      mstore\n      0x20\n      add\n      swap1\n      dup2\n      mstore\n      0x20\n      add\n      0x00\n      keccak256\n        /* \"contracts/core/JobBoardDelta.sol\":3614:3635  jobById[_jobId].owner */\n      0x04\n      add\n      0x01\n      swap1\n      sload\n      swap1\n      0x0100\n      exp\n      swap1\n      div\n      0xffffffffffffffffffffffffffffffffffffffff\n      and\n        /* \"contracts/core/JobBoardDelta.sol\":3614:3649  jobById[_jobId].owner == msg.sender */\n      0xffffffffffffffffffffffffffffffffffffffff\n      and\n      eq\n        /* \"contracts/core/JobBoardDelta.sol\":3606:3668  require(jobById[_jobId].owner == msg.sender, \"job owner only\") */\n      tag_162\n      jumpi\n      mload(0x40)\n      0x08c379a000000000000000000000000000000000000000000000000000000000\n      dup2\n      mstore\n      0x04\n      add\n      tag_163\n      swap1\n      tag_121\n      jump\t// in\n    tag_163:\n      mload(0x40)\n      dup1\n      swap2\n      sub\n      swap1\n      revert\n    tag_162:\n        /* \"contracts/core/JobBoardDelta.sol\":3685:3694  uint256 x */\n      0x00\n        /* \"contracts/core/JobBoardDelta.sol\":3681:4879  for(uint256 x = 0; x < _applicantIds.length; x++) {... */\n    tag_164:\n        /* \"contracts/core/JobBoardDelta.sol\":3704:3717  _applicantIds */\n      dup3\n        /* \"contracts/core/JobBoardDelta.sol\":3704:3724  _applicantIds.length */\n      mload\n        /* \"contracts/core/JobBoardDelta.sol\":3700:3701  x */\n      dup2\n        /* \"contracts/core/JobBoardDelta.sol\":3700:3724  x < _applicantIds.length */\n      lt\n        /* \"contracts/core/JobBoardDelta.sol\":3681:4879  for(uint256 x = 0; x < _applicantIds.length; x++) {... */\n      iszero\n      tag_165\n      jumpi\n        /* \"contracts/core/JobBoardDelta.sol\":3746:3766  uint256 applicantId_ */\n      0x00\n        /* \"contracts/core/JobBoardDelta.sol\":3769:3782  _applicantIds */\n      dup4\n        /* \"contracts/core/JobBoardDelta.sol\":3783:3784  x */\n      dup3\n        /* \"contracts/core/JobBoardDelta.sol\":3769:3785  _applicantIds[x] */\n      dup2\n      mload\n      dup2\n      lt\n      tag_167\n      jumpi\n      tag_168\n      tag_169\n      jump\t// in\n    tag_168:\n    tag_167:\n      0x20\n      mul\n      0x20\n      add\n      add\n      mload\n        /* \"contracts/core/JobBoardDelta.sol\":3746:3785  uint256 applicantId_ = _applicantIds[x] */\n      swap1\n      pop\n        /* \"contracts/core/JobBoardDelta.sol\":3801:3819  uint256 remaining_ */\n      0x00\n        /* \"contracts/core/JobBoardDelta.sol\":3858:3871  rewardByJobId */\n      0x06\n        /* \"contracts/core/JobBoardDelta.sol\":3858:3879  rewardByJobId[_jobId] */\n      0x00\n        /* \"contracts/core/JobBoardDelta.sol\":3872:3878  _jobId */\n      dup8\n        /* \"contracts/core/JobBoardDelta.sol\":3858:3879  rewardByJobId[_jobId] */\n      dup2\n      mstore\n      0x20\n      add\n      swap1\n      dup2\n      mstore\n      0x20\n      add\n      0x00\n      keccak256\n        /* \"contracts/core/JobBoardDelta.sol\":3858:3891  rewardByJobId[_jobId].distributed */\n      0x03\n      add\n      sload\n        /* \"contracts/core/JobBoardDelta.sol\":3822:3835  rewardByJobId */\n      0x06\n        /* \"contracts/core/JobBoardDelta.sol\":3822:3843  rewardByJobId[_jobId] */\n      0x00\n        /* \"contracts/core/JobBoardDelta.sol\":3836:3842  _jobId */\n      dup9\n        /* \"contracts/core/JobBoardDelta.sol\":3822:3843  rewardByJobId[_jobId] */\n      dup2\n      mstore\n      0x20\n      add\n      swap1\n      dup2\n      mstore\n      0x20\n      add\n      0x00\n      keccak256\n        /* \"contracts/core/JobBoardDelta.sol\":3822:3855  rewardByJobId[_jobId].totalReward */\n      0x01\n      add\n      sload\n        /* \"contracts/core/JobBoardDelta.sol\":3822:3891  rewardByJobId[_jobId].totalReward - rewardByJobId[_jobId].distributed */\n      tag_170\n      swap2\n      swap1\n      tag_171\n      jump\t// in\n    tag_170:\n        /* \"contracts/core/JobBoardDelta.sol\":3801:3891  uint256 remaining_ = rewardByJobId[_jobId].totalReward - rewardByJobId[_jobId].distributed */\n      swap1\n      pop\n        /* \"contracts/core/JobBoardDelta.sol\":3910:3941  isApplicantByApplicantIdByJobId */\n      0x0a\n        /* \"contracts/core/JobBoardDelta.sol\":3910:3949  isApplicantByApplicantIdByJobId[_jobId] */\n      0x00\n        /* \"contracts/core/JobBoardDelta.sol\":3942:3948  _jobId */\n      dup8\n        /* \"contracts/core/JobBoardDelta.sol\":3910:3949  isApplicantByApplicantIdByJobId[_jobId] */\n      dup2\n      mstore\n      0x20\n      add\n      swap1\n      dup2\n      mstore\n      0x20\n      add\n      0x00\n      keccak256\n        /* \"contracts/core/JobBoardDelta.sol\":3910:3963  isApplicantByApplicantIdByJobId[_jobId][applicantId_] */\n      0x00\n        /* \"contracts/core/JobBoardDelta.sol\":3950:3962  applicantId_ */\n      dup4\n        /* \"contracts/core/JobBoardDelta.sol\":3910:3963  isApplicantByApplicantIdByJobId[_jobId][applicantId_] */\n      dup2\n      mstore\n      0x20\n      add\n      swap1\n      dup2\n      mstore\n      0x20\n      add\n      0x00\n      keccak256\n      0x00\n      swap1\n      sload\n      swap1\n      0x0100\n      exp\n      swap1\n      div\n      0xff\n      and\n        /* \"contracts/core/JobBoardDelta.sol\":3910:3981  isApplicantByApplicantIdByJobId[_jobId][applicantId_] && remaining_ > 0 */\n      dup1\n      iszero\n      tag_172\n      jumpi\n      pop\n        /* \"contracts/core/JobBoardDelta.sol\":3980:3981  0 */\n      0x00\n        /* \"contracts/core/JobBoardDelta.sol\":3967:3977  remaining_ */\n      dup2\n        /* \"contracts/core/JobBoardDelta.sol\":3967:3981  remaining_ > 0 */\n      gt\n        /* \"contracts/core/JobBoardDelta.sol\":3910:3981  isApplicantByApplicantIdByJobId[_jobId][applicantId_] && remaining_ > 0 */\n    tag_172:\n        /* \"contracts/core/JobBoardDelta.sol\":3907:4868  if(isApplicantByApplicantIdByJobId[_jobId][applicantId_] && remaining_ > 0){... */\n      iszero\n      tag_173\n      jumpi\n        /* \"contracts/core/JobBoardDelta.sol\":4002:4029  Applicant memory applicant_ */\n      0x00\n        /* \"contracts/core/JobBoardDelta.sol\":4032:4045  applicantById */\n      0x09\n        /* \"contracts/core/JobBoardDelta.sol\":4032:4059  applicantById[applicantId_] */\n      0x00\n        /* \"contracts/core/JobBoardDelta.sol\":4046:4058  applicantId_ */\n      dup5\n        /* \"contracts/core/JobBoardDelta.sol\":4032:4059  applicantById[applicantId_] */\n      dup2\n      mstore\n      0x20\n      add\n      swap1\n      dup2\n      mstore\n      0x20\n      add\n      0x00\n      keccak256\n        /* \"contracts/core/JobBoardDelta.sol\":4002:4059  Applicant memory applicant_ = applicantById[applicantId_] */\n      mload(0x40)\n      dup1\n      0xa0\n      add\n      0x40\n      mstore\n      swap1\n      dup2\n      0x00\n      dup3\n      add\n      sload\n      dup2\n      mstore\n      0x20\n      add\n      0x01\n      dup3\n      add\n      dup1\n      sload\n      tag_174\n      swap1\n      tag_123\n      jump\t// in\n    tag_174:\n      dup1\n      0x1f\n      add\n      0x20\n      dup1\n      swap2\n      div\n      mul\n      0x20\n      add\n      mload(0x40)\n      swap1\n      dup2\n      add\n      0x40\n      mstore\n      dup1\n      swap3\n      swap2\n      swap1\n      dup2\n      dup2\n      mstore\n      0x20\n      add\n      dup3\n      dup1\n      sload\n      tag_175\n      swap1\n      tag_123\n      jump\t// in\n    tag_175:\n      dup1\n      iszero\n      tag_176\n      jumpi\n      dup1\n      0x1f\n      lt\n      tag_177\n      jumpi\n      0x0100\n      dup1\n      dup4\n      sload\n      div\n      mul\n      dup4\n      mstore\n      swap2\n      0x20\n      add\n      swap2\n      jump(tag_176)\n    tag_177:\n      dup3\n      add\n      swap2\n      swap1\n      0x00\n      mstore\n      keccak256(0x00, 0x20)\n      swap1\n    tag_178:\n      dup2\n      sload\n      dup2\n      mstore\n      swap1\n      0x01\n      add\n      swap1\n      0x20\n      add\n      dup1\n      dup4\n      gt\n      tag_178\n      jumpi\n      dup3\n      swap1\n      sub\n      0x1f\n      and\n      dup3\n      add\n      swap2\n    tag_176:\n      pop\n      pop\n      pop\n      pop\n      pop\n      dup2\n      mstore\n      0x20\n      add\n      0x02\n      dup3\n      add\n      sload\n      dup2\n      mstore\n      0x20\n      add\n      0x03\n      dup3\n      add\n      0x00\n      swap1\n      sload\n      swap1\n      0x0100\n      exp\n      swap1\n      div\n      0xffffffffffffffffffffffffffffffffffffffff\n      and\n      0xffffffffffffffffffffffffffffffffffffffff\n      and\n      0xffffffffffffffffffffffffffffffffffffffff\n      and\n      dup2\n      mstore\n      0x20\n      add\n      0x03\n      dup3\n      add\n      0x14\n      swap1\n      sload\n      swap1\n      0x0100\n      exp\n      swap1\n      div\n      0xff\n      and\n      iszero\n      iszero\n      iszero\n      iszero\n      dup2\n      mstore\n      pop\n      pop\n      swap1\n      pop\n        /* \"contracts/core/JobBoardDelta.sol\":4079:4102  uint256 transferAmount_ */\n      0x00\n        /* \"contracts/core/JobBoardDelta.sol\":4144:4157  rewardByJobId */\n      0x06\n        /* \"contracts/core/JobBoardDelta.sol\":4144:4165  rewardByJobId[_jobId] */\n      0x00\n        /* \"contracts/core/JobBoardDelta.sol\":4158:4164  _jobId */\n      dup10\n        /* \"contracts/core/JobBoardDelta.sol\":4144:4165  rewardByJobId[_jobId] */\n      dup2\n      mstore\n      0x20\n      add\n      swap1\n      dup2\n      mstore\n      0x20\n      add\n      0x00\n      keccak256\n        /* \"contracts/core/JobBoardDelta.sol\":4144:4182  rewardByJobId[_jobId].individualReward */\n      0x02\n      add\n      sload\n        /* \"contracts/core/JobBoardDelta.sol\":4130:4140  remaining_ */\n      dup4\n        /* \"contracts/core/JobBoardDelta.sol\":4130:4182  remaining_ >= rewardByJobId[_jobId].individualReward */\n      lt\n        /* \"contracts/core/JobBoardDelta.sol\":4127:4381  if(remaining_ >= rewardByJobId[_jobId].individualReward){... */\n      tag_179\n      jumpi\n        /* \"contracts/core/JobBoardDelta.sol\":4224:4237  rewardByJobId */\n      0x06\n        /* \"contracts/core/JobBoardDelta.sol\":4224:4245  rewardByJobId[_jobId] */\n      0x00\n        /* \"contracts/core/JobBoardDelta.sol\":4238:4244  _jobId */\n      dup10\n        /* \"contracts/core/JobBoardDelta.sol\":4224:4245  rewardByJobId[_jobId] */\n      dup2\n      mstore\n      0x20\n      add\n      swap1\n      dup2\n      mstore\n      0x20\n      add\n      0x00\n      keccak256\n        /* \"contracts/core/JobBoardDelta.sol\":4224:4262  rewardByJobId[_jobId].individualReward */\n      0x02\n      add\n      sload\n        /* \"contracts/core/JobBoardDelta.sol\":4206:4262  transferAmount_ = rewardByJobId[_jobId].individualReward */\n      swap1\n      pop\n        /* \"contracts/core/JobBoardDelta.sol\":4127:4381  if(remaining_ >= rewardByJobId[_jobId].individualReward){... */\n      jump(tag_180)\n    tag_179:\n        /* \"contracts/core/JobBoardDelta.sol\":4349:4359  remaining_ */\n      dup3\n        /* \"contracts/core/JobBoardDelta.sol\":4331:4359  transferAmount_ = remaining_ */\n      swap1\n      pop\n        /* \"contracts/core/JobBoardDelta.sol\":4127:4381  if(remaining_ >= rewardByJobId[_jobId].individualReward){... */\n    tag_180:\n        /* \"contracts/core/JobBoardDelta.sol\":4437:4452  transferAmount_ */\n      dup1\n        /* \"contracts/core/JobBoardDelta.sol\":4400:4413  rewardByJobId */\n      0x06\n        /* \"contracts/core/JobBoardDelta.sol\":4400:4421  rewardByJobId[_jobId] */\n      0x00\n        /* \"contracts/core/JobBoardDelta.sol\":4414:4420  _jobId */\n      dup11\n        /* \"contracts/core/JobBoardDelta.sol\":4400:4421  rewardByJobId[_jobId] */\n      dup2\n      mstore\n      0x20\n      add\n      swap1\n      dup2\n      mstore\n      0x20\n      add\n      0x00\n      keccak256\n        /* \"contracts/core/JobBoardDelta.sol\":4400:4433  rewardByJobId[_jobId].distributed */\n      0x03\n      add\n      0x00\n        /* \"contracts/core/JobBoardDelta.sol\":4400:4452  rewardByJobId[_jobId].distributed += transferAmount_ */\n      dup3\n      dup3\n      sload\n      tag_181\n      swap2\n      swap1\n      tag_182\n      jump\t// in\n    tag_181:\n      swap3\n      pop\n      pop\n      dup2\n      swap1\n      sstore\n      pop\n        /* \"contracts/core/JobBoardDelta.sol\":4497:4504  chainId */\n      immutable(\"0xfef02113b0e2de238e6d5cd38d074ddd9182c404abd3e453d7e5b4a50defe07c\")\n        /* \"contracts/core/JobBoardDelta.sol\":4475:4485  applicant_ */\n      dup3\n        /* \"contracts/core/JobBoardDelta.sol\":4475:4493  applicant_.chainId */\n      0x40\n      add\n      mload\n        /* \"contracts/core/JobBoardDelta.sol\":4475:4504  applicant_.chainId == chainId */\n      sub\n        /* \"contracts/core/JobBoardDelta.sol\":4472:4815  if(applicant_.chainId == chainId) {... */\n      tag_183\n      jumpi\n        /* \"contracts/core/JobBoardDelta.sol\":4529:4612  transferOut(rewardByJobId[_jobId].erc20, transferAmount_, applicant_.rewardAddress) */\n      tag_184\n        /* \"contracts/core/JobBoardDelta.sol\":4541:4554  rewardByJobId */\n      0x06\n        /* \"contracts/core/JobBoardDelta.sol\":4541:4562  rewardByJobId[_jobId] */\n      0x00\n        /* \"contracts/core/JobBoardDelta.sol\":4555:4561  _jobId */\n      dup11\n        /* \"contracts/core/JobBoardDelta.sol\":4541:4562  rewardByJobId[_jobId] */\n      dup2\n      mstore\n      0x20\n      add\n      swap1\n      dup2\n      mstore\n      0x20\n      add\n      0x00\n      keccak256\n        /* \"contracts/core/JobBoardDelta.sol\":4541:4568  rewardByJobId[_jobId].erc20 */\n      0x00\n      add\n      0x00\n      swap1\n      sload\n      swap1\n      0x0100\n      exp\n      swap1\n      div\n      0xffffffffffffffffffffffffffffffffffffffff\n      and\n        /* \"contracts/core/JobBoardDelta.sol\":4570:4585  transferAmount_ */\n      dup3\n        /* \"contracts/core/JobBoardDelta.sol\":4587:4597  applicant_ */\n      dup5\n        /* \"contracts/core/JobBoardDelta.sol\":4587:4611  applicant_.rewardAddress */\n      0x60\n      add\n      mload\n        /* \"contracts/core/JobBoardDelta.sol\":4529:4540  transferOut */\n      tag_185\n        /* \"contracts/core/JobBoardDelta.sol\":4529:4612  transferOut(rewardByJobId[_jobId].erc20, transferAmount_, applicant_.rewardAddress) */\n      jump\t// in\n    tag_184:\n      pop\n        /* \"contracts/core/JobBoardDelta.sol\":4472:4815  if(applicant_.chainId == chainId) {... */\n      jump(tag_186)\n    tag_183:\n        /* \"contracts/core/JobBoardDelta.sol\":4681:4794  transferOutCrossChain(rewardByJobId[_jobId].erc20, transferAmount_, applicant_.rewardAddress, applicant_.chainId) */\n      tag_187\n        /* \"contracts/core/JobBoardDelta.sol\":4703:4716  rewardByJobId */\n      0x06\n        /* \"contracts/core/JobBoardDelta.sol\":4703:4724  rewardByJobId[_jobId] */\n      0x00\n        /* \"contracts/core/JobBoardDelta.sol\":4717:4723  _jobId */\n      dup11\n        /* \"contracts/core/JobBoardDelta.sol\":4703:4724  rewardByJobId[_jobId] */\n      dup2\n      mstore\n      0x20\n      add\n      swap1\n      dup2\n      mstore\n      0x20\n      add\n      0x00\n      keccak256\n        /* \"contracts/core/JobBoardDelta.sol\":4703:4730  rewardByJobId[_jobId].erc20 */\n      0x00\n      add\n      0x00\n      swap1\n      sload\n      swap1\n      0x0100\n      exp\n      swap1\n      div\n      0xffffffffffffffffffffffffffffffffffffffff\n      and\n        /* \"contracts/core/JobBoardDelta.sol\":4732:4747  transferAmount_ */\n      dup3\n        /* \"contracts/core/JobBoardDelta.sol\":4749:4759  applicant_ */\n      dup5\n        /* \"contracts/core/JobBoardDelta.sol\":4749:4773  applicant_.rewardAddress */\n      0x60\n      add\n      mload\n        /* \"contracts/core/JobBoardDelta.sol\":4775:4785  applicant_ */\n      dup6\n        /* \"contracts/core/JobBoardDelta.sol\":4775:4793  applicant_.chainId */\n      0x40\n      add\n      mload\n        /* \"contracts/core/JobBoardDelta.sol\":4681:4702  transferOutCrossChain */\n      tag_188\n        /* \"contracts/core/JobBoardDelta.sol\":4681:4794  transferOutCrossChain(rewardByJobId[_jobId].erc20, transferAmount_, applicant_.rewardAddress, applicant_.chainId) */\n      jump\t// in\n    tag_187:\n      pop\n        /* \"contracts/core/JobBoardDelta.sol\":4472:4815  if(applicant_.chainId == chainId) {... */\n    tag_186:\n        /* \"contracts/core/JobBoardDelta.sol\":4835:4851  _rewardedCount++ */\n      dup6\n      dup1\n      tag_189\n      swap1\n      tag_190\n      jump\t// in\n    tag_189:\n      swap7\n      pop\n      pop\n        /* \"contracts/core/JobBoardDelta.sol\":3982:4868  {... */\n      pop\n      pop\n        /* \"contracts/core/JobBoardDelta.sol\":3907:4868  if(isApplicantByApplicantIdByJobId[_jobId][applicantId_] && remaining_ > 0){... */\n    tag_173:\n        /* \"contracts/core/JobBoardDelta.sol\":3731:4879  {... */\n      pop\n      pop\n        /* \"contracts/core/JobBoardDelta.sol\":3726:3729  x++ */\n      dup1\n      dup1\n      0x01\n      add\n      swap2\n      pop\n      pop\n        /* \"contracts/core/JobBoardDelta.sol\":3681:4879  for(uint256 x = 0; x < _applicantIds.length; x++) {... */\n      jump(tag_164)\n    tag_165:\n      pop\n        /* \"contracts/core/JobBoardDelta.sol\":3479:4886  function approveRewards(uint256 _jobId, uint256 [] memory _applicantIds) external returns (uint256 _rewardedCount) {... */\n      swap3\n      swap2\n      pop\n      pop\n      jump\t// out\n        /* \"contracts/core/JobBoardDelta.sol\":2007:2119  function getPaymentErc20() view external returns (address _paymentErc20) {... */\n    tag_75:\n        /* \"contracts/core/JobBoardDelta.sol\":2057:2078  address _paymentErc20 */\n      0x00\n        /* \"contracts/core/JobBoardDelta.sol\":2098:2110  paymentErc20 */\n      immutable(\"0xba29c92f83f4de98d3d45f425254e56d997394d41fbe14eb717b7e43b163ec7b\")\n        /* \"contracts/core/JobBoardDelta.sol\":2091:2110  return paymentErc20 */\n      swap1\n      pop\n        /* \"contracts/core/JobBoardDelta.sol\":2007:2119  function getPaymentErc20() view external returns (address _paymentErc20) {... */\n      swap1\n      jump\t// out\n        /* \"contracts/core/JobBoardDelta.sol\":1492:1616  function hasReward(uint256 _jobId) view external returns (bool _hasReward) {... */\n    tag_81:\n        /* \"contracts/core/JobBoardDelta.sol\":1550:1565  bool _hasReward */\n      0x00\n        /* \"contracts/core/JobBoardDelta.sol\":1584:1600  hasRewardByJobId */\n      0x05\n        /* \"contracts/core/JobBoardDelta.sol\":1584:1608  hasRewardByJobId[_jobId] */\n      0x00\n        /* \"contracts/core/JobBoardDelta.sol\":1601:1607  _jobId */\n      dup4\n        /* \"contracts/core/JobBoardDelta.sol\":1584:1608  hasRewardByJobId[_jobId] */\n      dup2\n      mstore\n      0x20\n      add\n      swap1\n      dup2\n      mstore\n      0x20\n      add\n      0x00\n      keccak256\n      0x00\n      swap1\n      sload\n      swap1\n      0x0100\n      exp\n      swap1\n      div\n      0xff\n      and\n        /* \"contracts/core/JobBoardDelta.sol\":1577:1608  return hasRewardByJobId[_jobId] */\n      swap1\n      pop\n        /* \"contracts/core/JobBoardDelta.sol\":1492:1616  function hasReward(uint256 _jobId) view external returns (bool _hasReward) {... */\n      swap2\n      swap1\n      pop\n      jump\t// out\n        /* \"contracts/core/JobBoardDelta.sol\":4894:5683  function postJob(string memory _cid, Duration _duration) payable external returns (Job memory _job){... */\n    tag_86:\n        /* \"contracts/core/JobBoardDelta.sol\":4977:4992  Job memory _job */\n      tag_193\n      tag_117\n      jump\t// in\n    tag_193:\n        /* \"contracts/core/JobBoardDelta.sol\":5004:5018  uint256 jobId_ */\n      0x00\n        /* \"contracts/core/JobBoardDelta.sol\":5021:5028  getId() */\n      tag_195\n        /* \"contracts/core/JobBoardDelta.sol\":5021:5026  getId */\n      tag_136\n        /* \"contracts/core/JobBoardDelta.sol\":5021:5028  getId() */\n      jump\t// in\n    tag_195:\n        /* \"contracts/core/JobBoardDelta.sol\":5004:5028  uint256 jobId_ = getId() */\n      swap1\n      pop\n        /* \"contracts/core/JobBoardDelta.sol\":5039:5051  uint256 fee_ */\n      0x00\n        /* \"contracts/core/JobBoardDelta.sol\":5054:5069  priceByDuration */\n      0x07\n        /* \"contracts/core/JobBoardDelta.sol\":5054:5080  priceByDuration[_duration] */\n      0x00\n        /* \"contracts/core/JobBoardDelta.sol\":5070:5079  _duration */\n      dup6\n        /* \"contracts/core/JobBoardDelta.sol\":5054:5080  priceByDuration[_duration] */\n      0x02\n      dup2\n      gt\n      iszero\n      tag_196\n      jumpi\n      tag_197\n      tag_110\n      jump\t// in\n    tag_197:\n    tag_196:\n      0x02\n      dup2\n      gt\n      iszero\n      tag_198\n      jumpi\n      tag_199\n      tag_110\n      jump\t// in\n    tag_199:\n    tag_198:\n      dup2\n      mstore\n      0x20\n      add\n      swap1\n      dup2\n      mstore\n      0x20\n      add\n      0x00\n      keccak256\n      sload\n        /* \"contracts/core/JobBoardDelta.sol\":5039:5080  uint256 fee_ = priceByDuration[_duration] */\n      swap1\n      pop\n        /* \"contracts/core/JobBoardDelta.sol\":5101:5131  transferIn(paymentErc20, fee_) */\n      tag_200\n        /* \"contracts/core/JobBoardDelta.sol\":5112:5124  paymentErc20 */\n      immutable(\"0xba29c92f83f4de98d3d45f425254e56d997394d41fbe14eb717b7e43b163ec7b\")\n        /* \"contracts/core/JobBoardDelta.sol\":5126:5130  fee_ */\n      dup3\n        /* \"contracts/core/JobBoardDelta.sol\":5101:5111  transferIn */\n      tag_157\n        /* \"contracts/core/JobBoardDelta.sol\":5101:5131  transferIn(paymentErc20, fee_) */\n      jump\t// in\n    tag_200:\n        /* \"contracts/core/JobBoardDelta.sol\":5093:5159  require(transferIn(paymentErc20, fee_), \"payment transfer failed\") */\n      tag_201\n      jumpi\n      mload(0x40)\n      0x08c379a000000000000000000000000000000000000000000000000000000000\n      dup2\n      mstore\n      0x04\n      add\n      tag_202\n      swap1\n      tag_203\n      jump\t// in\n    tag_202:\n      mload(0x40)\n      dup1\n      swap2\n      sub\n      swap1\n      revert\n    tag_201:\n        /* \"contracts/core/JobBoardDelta.sol\":5172:5178  jobIds */\n      0x02\n        /* \"contracts/core/JobBoardDelta.sol\":5184:5190  jobId_ */\n      dup3\n        /* \"contracts/core/JobBoardDelta.sol\":5172:5191  jobIds.push(jobId_) */\n      swap1\n      dup1\n      0x01\n      dup2\n      sload\n      add\n      dup1\n      dup3\n      sstore\n      dup1\n      swap2\n      pop\n      pop\n      0x01\n      swap1\n      sub\n      swap1\n      0x00\n      mstore\n      keccak256(0x00, 0x20)\n      add\n      0x00\n      swap1\n      swap2\n      swap1\n      swap2\n      swap1\n      swap2\n      pop\n      sstore\n        /* \"contracts/core/JobBoardDelta.sol\":5220:5604  Job({... */\n      mload(0x40)\n      dup1\n      0xc0\n      add\n      0x40\n      mstore\n      dup1\n        /* \"contracts/core/JobBoardDelta.sol\":5264:5270  jobId_ */\n      dup4\n        /* \"contracts/core/JobBoardDelta.sol\":5220:5604  Job({... */\n      dup2\n      mstore\n      0x20\n      add\n        /* \"contracts/core/JobBoardDelta.sol\":5312:5316  _cid */\n      dup7\n        /* \"contracts/core/JobBoardDelta.sol\":5220:5604  Job({... */\n      dup2\n      mstore\n      0x20\n      add\n        /* \"contracts/core/JobBoardDelta.sol\":5366:5381  block.timestamp */\n      timestamp\n        /* \"contracts/core/JobBoardDelta.sol\":5220:5604  Job({... */\n      dup2\n      mstore\n      0x20\n      add\n        /* \"contracts/core/JobBoardDelta.sol\":5456:5471  block.timestamp */\n      timestamp\n        /* \"contracts/core/JobBoardDelta.sol\":5431:5453  getDuration(_duration) */\n      tag_205\n        /* \"contracts/core/JobBoardDelta.sol\":5443:5452  _duration */\n      dup8\n        /* \"contracts/core/JobBoardDelta.sol\":5431:5442  getDuration */\n      tag_206\n        /* \"contracts/core/JobBoardDelta.sol\":5431:5453  getDuration(_duration) */\n      jump\t// in\n    tag_205:\n        /* \"contracts/core/JobBoardDelta.sol\":5431:5471  getDuration(_duration) + block.timestamp */\n      tag_207\n      swap2\n      swap1\n      tag_182\n      jump\t// in\n    tag_207:\n        /* \"contracts/core/JobBoardDelta.sol\":5220:5604  Job({... */\n      dup2\n      mstore\n      0x20\n      add\n        /* \"contracts/core/JobBoardDelta.sol\":5518:5522  true */\n      0x01\n        /* \"contracts/core/JobBoardDelta.sol\":5220:5604  Job({... */\n      iszero\n      iszero\n      dup2\n      mstore\n      0x20\n      add\n        /* \"contracts/core/JobBoardDelta.sol\":5566:5576  msg.sender */\n      caller\n        /* \"contracts/core/JobBoardDelta.sol\":5220:5604  Job({... */\n      0xffffffffffffffffffffffffffffffffffffffff\n      and\n      dup2\n      mstore\n      pop\n        /* \"contracts/core/JobBoardDelta.sol\":5202:5209  jobById */\n      0x03\n        /* \"contracts/core/JobBoardDelta.sol\":5202:5217  jobById[jobId_] */\n      0x00\n        /* \"contracts/core/JobBoardDelta.sol\":5210:5216  jobId_ */\n      dup5\n        /* \"contracts/core/JobBoardDelta.sol\":5202:5217  jobById[jobId_] */\n      dup2\n      mstore\n      0x20\n      add\n      swap1\n      dup2\n      mstore\n      0x20\n      add\n      0x00\n      keccak256\n        /* \"contracts/core/JobBoardDelta.sol\":5202:5604  jobById[jobId_] = Job({... */\n      0x00\n      dup3\n      add\n      mload\n      dup2\n      0x00\n      add\n      sstore\n      0x20\n      dup3\n      add\n      mload\n      dup2\n      0x01\n      add\n      swap1\n      dup2\n      tag_208\n      swap2\n      swap1\n      tag_138\n      jump\t// in\n    tag_208:\n      pop\n      0x40\n      dup3\n      add\n      mload\n      dup2\n      0x02\n      add\n      sstore\n      0x60\n      dup3\n      add\n      mload\n      dup2\n      0x03\n      add\n      sstore\n      0x80\n      dup3\n      add\n      mload\n      dup2\n      0x04\n      add\n      exp(0x0100, 0x00)\n      dup2\n      sload\n      dup2\n      0xff\n      mul\n      not\n      and\n      swap1\n      dup4\n      iszero\n      iszero\n      mul\n      or\n      swap1\n      sstore\n      pop\n      0xa0\n      dup3\n      add\n      mload\n      dup2\n      0x04\n      add\n      exp(0x0100, 0x01)\n      dup2\n      sload\n      dup2\n      0xffffffffffffffffffffffffffffffffffffffff\n      mul\n      not\n      and\n      swap1\n      dup4\n      0xffffffffffffffffffffffffffffffffffffffff\n      and\n      mul\n      or\n      swap1\n      sstore\n      pop\n      swap1\n      pop\n      pop\n        /* \"contracts/core/JobBoardDelta.sol\":5615:5627  jobIdByOwner */\n      0x04\n        /* \"contracts/core/JobBoardDelta.sol\":5615:5639  jobIdByOwner[msg.sender] */\n      0x00\n        /* \"contracts/core/JobBoardDelta.sol\":5628:5638  msg.sender */\n      caller\n        /* \"contracts/core/JobBoardDelta.sol\":5615:5639  jobIdByOwner[msg.sender] */\n      0xffffffffffffffffffffffffffffffffffffffff\n      and\n      0xffffffffffffffffffffffffffffffffffffffff\n      and\n      dup2\n      mstore\n      0x20\n      add\n      swap1\n      dup2\n      mstore\n      0x20\n      add\n      0x00\n      keccak256\n        /* \"contracts/core/JobBoardDelta.sol\":5645:5651  jobId_ */\n      dup3\n        /* \"contracts/core/JobBoardDelta.sol\":5615:5652  jobIdByOwner[msg.sender].push(jobId_) */\n      swap1\n      dup1\n      0x01\n      dup2\n      sload\n      add\n      dup1\n      dup3\n      sstore\n      dup1\n      swap2\n      pop\n      pop\n      0x01\n      swap1\n      sub\n      swap1\n      0x00\n      mstore\n      keccak256(0x00, 0x20)\n      add\n      0x00\n      swap1\n      swap2\n      swap1\n      swap2\n      swap1\n      swap2\n      pop\n      sstore\n        /* \"contracts/core/JobBoardDelta.sol\":5663:5674  return _job */\n      pop\n      pop\n        /* \"contracts/core/JobBoardDelta.sol\":4894:5683  function postJob(string memory _cid, Duration _duration) payable external returns (Job memory _job){... */\n      swap3\n      swap2\n      pop\n      pop\n      jump\t// out\n        /* \"contracts/core/JobBoardDelta.sol\":1372:1484  function getJob(uint256 _jobId) view external returns (Job memory _job){... */\n    tag_91:\n        /* \"contracts/core/JobBoardDelta.sol\":1427:1442  Job memory _job */\n      tag_210\n      tag_117\n      jump\t// in\n    tag_210:\n        /* \"contracts/core/JobBoardDelta.sol\":1461:1468  jobById */\n      0x03\n        /* \"contracts/core/JobBoardDelta.sol\":1461:1476  jobById[_jobId] */\n      0x00\n        /* \"contracts/core/JobBoardDelta.sol\":1469:1475  _jobId */\n      dup4\n        /* \"contracts/core/JobBoardDelta.sol\":1461:1476  jobById[_jobId] */\n      dup2\n      mstore\n      0x20\n      add\n      swap1\n      dup2\n      mstore\n      0x20\n      add\n      0x00\n      keccak256\n        /* \"contracts/core/JobBoardDelta.sol\":1454:1476  return jobById[_jobId] */\n      mload(0x40)\n      dup1\n      0xc0\n      add\n      0x40\n      mstore\n      swap1\n      dup2\n      0x00\n      dup3\n      add\n      sload\n      dup2\n      mstore\n      0x20\n      add\n      0x01\n      dup3\n      add\n      dup1\n      sload\n      tag_212\n      swap1\n      tag_123\n      jump\t// in\n    tag_212:\n      dup1\n      0x1f\n      add\n      0x20\n      dup1\n      swap2\n      div\n      mul\n      0x20\n      add\n      mload(0x40)\n      swap1\n      dup2\n      add\n      0x40\n      mstore\n      dup1\n      swap3\n      swap2\n      swap1\n      dup2\n      dup2\n      mstore\n      0x20\n      add\n      dup3\n      dup1\n      sload\n      tag_213\n      swap1\n      tag_123\n      jump\t// in\n    tag_213:\n      dup1\n      iszero\n      tag_214\n      jumpi\n      dup1\n      0x1f\n      lt\n      tag_215\n      jumpi\n      0x0100\n      dup1\n      dup4\n      sload\n      div\n      mul\n      dup4\n      mstore\n      swap2\n      0x20\n      add\n      swap2\n      jump(tag_214)\n    tag_215:\n      dup3\n      add\n      swap2\n      swap1\n      0x00\n      mstore\n      keccak256(0x00, 0x20)\n      swap1\n    tag_216:\n      dup2\n      sload\n      dup2\n      mstore\n      swap1\n      0x01\n      add\n      swap1\n      0x20\n      add\n      dup1\n      dup4\n      gt\n      tag_216\n      jumpi\n      dup3\n      swap1\n      sub\n      0x1f\n      and\n      dup3\n      add\n      swap2\n    tag_214:\n      pop\n      pop\n      pop\n      pop\n      pop\n      dup2\n      mstore\n      0x20\n      add\n      0x02\n      dup3\n      add\n      sload\n      dup2\n      mstore\n      0x20\n      add\n      0x03\n      dup3\n      add\n      sload\n      dup2\n      mstore\n      0x20\n      add\n      0x04\n      dup3\n      add\n      0x00\n      swap1\n      sload\n      swap1\n      0x0100\n      exp\n      swap1\n      div\n      0xff\n      and\n      iszero\n      iszero\n      iszero\n      iszero\n      dup2\n      mstore\n      0x20\n      add\n      0x04\n      dup3\n      add\n      0x01\n      swap1\n      sload\n      swap1\n      0x0100\n      exp\n      swap1\n      div\n      0xffffffffffffffffffffffffffffffffffffffff\n      and\n      0xffffffffffffffffffffffffffffffffffffffff\n      and\n      0xffffffffffffffffffffffffffffffffffffffff\n      and\n      dup2\n      mstore\n      pop\n      pop\n      swap1\n      pop\n        /* \"contracts/core/JobBoardDelta.sol\":1372:1484  function getJob(uint256 _jobId) view external returns (Job memory _job){... */\n      swap2\n      swap1\n      pop\n      jump\t// out\n        /* \"contracts/core/JobBoardDelta.sol\":2127:2258  function getJobReward(uint256 _jobId) view external returns (Reward memory _reward) {... */\n    tag_96:\n        /* \"contracts/core/JobBoardDelta.sol\":2188:2209  Reward memory _reward */\n      tag_217\n      tag_150\n      jump\t// in\n    tag_217:\n        /* \"contracts/core/JobBoardDelta.sol\":2229:2242  rewardByJobId */\n      0x06\n        /* \"contracts/core/JobBoardDelta.sol\":2229:2250  rewardByJobId[_jobId] */\n      0x00\n        /* \"contracts/core/JobBoardDelta.sol\":2243:2249  _jobId */\n      dup4\n        /* \"contracts/core/JobBoardDelta.sol\":2229:2250  rewardByJobId[_jobId] */\n      dup2\n      mstore\n      0x20\n      add\n      swap1\n      dup2\n      mstore\n      0x20\n      add\n      0x00\n      keccak256\n        /* \"contracts/core/JobBoardDelta.sol\":2222:2250  return rewardByJobId[_jobId] */\n      mload(0x40)\n      dup1\n      0x80\n      add\n      0x40\n      mstore\n      swap1\n      dup2\n      0x00\n      dup3\n      add\n      0x00\n      swap1\n      sload\n      swap1\n      0x0100\n      exp\n      swap1\n      div\n      0xffffffffffffffffffffffffffffffffffffffff\n      and\n      0xffffffffffffffffffffffffffffffffffffffff\n      and\n      0xffffffffffffffffffffffffffffffffffffffff\n      and\n      dup2\n      mstore\n      0x20\n      add\n      0x01\n      dup3\n      add\n      sload\n      dup2\n      mstore\n      0x20\n      add\n      0x02\n      dup3\n      add\n      sload\n      dup2\n      mstore\n      0x20\n      add\n      0x03\n      dup3\n      add\n      sload\n      dup2\n      mstore\n      pop\n      pop\n      swap1\n      pop\n        /* \"contracts/core/JobBoardDelta.sol\":2127:2258  function getJobReward(uint256 _jobId) view external returns (Reward memory _reward) {... */\n      swap2\n      swap1\n      pop\n      jump\t// out\n        /* \"contracts/core/JobBoardDelta.sol\":2266:2415  function getApplicant(uint256 _applicantId) view external returns (Applicant memory _applicant) {... */\n    tag_101:\n        /* \"contracts/core/JobBoardDelta.sol\":2333:2360  Applicant memory _applicant */\n      tag_219\n      tag_220\n      jump\t// in\n    tag_219:\n        /* \"contracts/core/JobBoardDelta.sol\":2380:2393  applicantById */\n      0x09\n        /* \"contracts/core/JobBoardDelta.sol\":2380:2407  applicantById[_applicantId] */\n      0x00\n        /* \"contracts/core/JobBoardDelta.sol\":2394:2406  _applicantId */\n      dup4\n        /* \"contracts/core/JobBoardDelta.sol\":2380:2407  applicantById[_applicantId] */\n      dup2\n      mstore\n      0x20\n      add\n      swap1\n      dup2\n      mstore\n      0x20\n      add\n      0x00\n      keccak256\n        /* \"contracts/core/JobBoardDelta.sol\":2373:2407  return applicantById[_applicantId] */\n      mload(0x40)\n      dup1\n      0xa0\n      add\n      0x40\n      mstore\n      swap1\n      dup2\n      0x00\n      dup3\n      add\n      sload\n      dup2\n      mstore\n      0x20\n      add\n      0x01\n      dup3\n      add\n      dup1\n      sload\n      tag_222\n      swap1\n      tag_123\n      jump\t// in\n    tag_222:\n      dup1\n      0x1f\n      add\n      0x20\n      dup1\n      swap2\n      div\n      mul\n      0x20\n      add\n      mload(0x40)\n      swap1\n      dup2\n      add\n      0x40\n      mstore\n      dup1\n      swap3\n      swap2\n      swap1\n      dup2\n      dup2\n      mstore\n      0x20\n      add\n      dup3\n      dup1\n      sload\n      tag_223\n      swap1\n      tag_123\n      jump\t// in\n    tag_223:\n      dup1\n      iszero\n      tag_224\n      jumpi\n      dup1\n      0x1f\n      lt\n      tag_225\n      jumpi\n      0x0100\n      dup1\n      dup4\n      sload\n      div\n      mul\n      dup4\n      mstore\n      swap2\n      0x20\n      add\n      swap2\n      jump(tag_224)\n    tag_225:\n      dup3\n      add\n      swap2\n      swap1\n      0x00\n      mstore\n      keccak256(0x00, 0x20)\n      swap1\n    tag_226:\n      dup2\n      sload\n      dup2\n      mstore\n      swap1\n      0x01\n      add\n      swap1\n      0x20\n      add\n      dup1\n      dup4\n      gt\n      tag_226\n      jumpi\n      dup3\n      swap1\n      sub\n      0x1f\n      and\n      dup3\n      add\n      swap2\n    tag_224:\n      pop\n      pop\n      pop\n      pop\n      pop\n      dup2\n      mstore\n      0x20\n      add\n      0x02\n      dup3\n      add\n      sload\n      dup2\n      mstore\n      0x20\n      add\n      0x03\n      dup3\n      add\n      0x00\n      swap1\n      sload\n      swap1\n      0x0100\n      exp\n      swap1\n      div\n      0xffffffffffffffffffffffffffffffffffffffff\n      and\n      0xffffffffffffffffffffffffffffffffffffffff\n      and\n      0xffffffffffffffffffffffffffffffffffffffff\n      and\n      dup2\n      mstore\n      0x20\n      add\n      0x03\n      dup3\n      add\n      0x14\n      swap1\n      sload\n      swap1\n      0x0100\n      exp\n      swap1\n      div\n      0xff\n      and\n      iszero\n      iszero\n      iszero\n      iszero\n      dup2\n      mstore\n      pop\n      pop\n      swap1\n      pop\n        /* \"contracts/core/JobBoardDelta.sol\":2266:2415  function getApplicant(uint256 _applicantId) view external returns (Applicant memory _applicant) {... */\n      swap2\n      swap1\n      pop\n      jump\t// out\n        /* \"contracts/core/JobBoardDelta.sol\":6954:7056  function getId() internal returns (uint256 _id) {... */\n    tag_136:\n        /* \"contracts/core/JobBoardDelta.sol\":6989:7000  uint256 _id */\n      0x00\n        /* \"contracts/core/JobBoardDelta.sol\":7019:7024  index */\n      dup1\n      0x00\n        /* \"contracts/core/JobBoardDelta.sol\":7019:7026  index++ */\n      dup2\n      sload\n      dup1\n      swap3\n      swap2\n      swap1\n      tag_228\n      swap1\n      tag_190\n      jump\t// in\n    tag_228:\n      swap2\n      swap1\n      pop\n      sstore\n        /* \"contracts/core/JobBoardDelta.sol\":7013:7026  _id = index++ */\n      swap1\n      pop\n        /* \"contracts/core/JobBoardDelta.sol\":6954:7056  function getId() internal returns (uint256 _id) {... */\n      swap1\n      jump\t// out\n        /* \"contracts/core/JobBoardDelta.sol\":7478:7878  function transferIn(address _erc20, uint256 _amount ) internal returns (bool _success) {... */\n    tag_157:\n        /* \"contracts/core/JobBoardDelta.sol\":7550:7563  bool _success */\n      0x00\n        /* \"contracts/core/JobBoardDelta.sol\":417:459  0xEeeeeEeeeEeEeeEeEeEeeEEEeeeeEeeeeeeeEEeE */\n      0xeeeeeeeeeeeeeeeeeeeeeeeeeeeeeeeeeeeeeeee\n        /* \"contracts/core/JobBoardDelta.sol\":7579:7595  _erc20 == NATIVE */\n      0xffffffffffffffffffffffffffffffffffffffff\n      and\n        /* \"contracts/core/JobBoardDelta.sol\":7579:7585  _erc20 */\n      dup4\n        /* \"contracts/core/JobBoardDelta.sol\":7579:7595  _erc20 == NATIVE */\n      0xffffffffffffffffffffffffffffffffffffffff\n      and\n      sub\n        /* \"contracts/core/JobBoardDelta.sol\":7576:7871  if(_erc20 == NATIVE){... */\n      tag_230\n      jumpi\n        /* \"contracts/core/JobBoardDelta.sol\":7632:7639  _amount */\n      dup2\n        /* \"contracts/core/JobBoardDelta.sol\":7619:7628  msg.value */\n      callvalue\n        /* \"contracts/core/JobBoardDelta.sol\":7619:7639  msg.value >= _amount */\n      lt\n      iszero\n        /* \"contracts/core/JobBoardDelta.sol\":7611:7674  require(msg.value >= _amount, \"insufficient funds transmitted\") */\n      tag_231\n      jumpi\n      mload(0x40)\n      0x08c379a000000000000000000000000000000000000000000000000000000000\n      dup2\n      mstore\n      0x04\n      add\n      tag_232\n      swap1\n      tag_233\n      jump\t// in\n    tag_232:\n      mload(0x40)\n      dup1\n      swap2\n      sub\n      swap1\n      revert\n    tag_231:\n        /* \"contracts/core/JobBoardDelta.sol\":7696:7700  true */\n      0x01\n        /* \"contracts/core/JobBoardDelta.sol\":7689:7700  return true */\n      swap1\n      pop\n      jump(tag_229)\n        /* \"contracts/core/JobBoardDelta.sol\":7576:7871  if(_erc20 == NATIVE){... */\n    tag_230:\n        /* \"contracts/core/JobBoardDelta.sol\":7742:7755  IERC20 erc20_ */\n      0x00\n        /* \"contracts/core/JobBoardDelta.sol\":7765:7771  _erc20 */\n      dup4\n        /* \"contracts/core/JobBoardDelta.sol\":7742:7772  IERC20 erc20_ = IERC20(_erc20) */\n      swap1\n      pop\n        /* \"contracts/core/JobBoardDelta.sol\":7786:7792  erc20_ */\n      dup1\n        /* \"contracts/core/JobBoardDelta.sol\":7786:7805  erc20_.transferFrom */\n      0xffffffffffffffffffffffffffffffffffffffff\n      and\n      0x23b872dd\n        /* \"contracts/core/JobBoardDelta.sol\":7806:7816  msg.sender */\n      caller\n        /* \"contracts/core/JobBoardDelta.sol\":7818:7822  self */\n      immutable(\"0x386729e4d0259bcb363527c54b64d30f72196af65182d1d22218eac92f007f67\")\n        /* \"contracts/core/JobBoardDelta.sol\":7824:7831  _amount */\n      dup7\n        /* \"contracts/core/JobBoardDelta.sol\":7786:7832  erc20_.transferFrom(msg.sender, self, _amount) */\n      mload(0x40)\n      dup5\n      0xffffffff\n      and\n      0xe0\n      shl\n      dup2\n      mstore\n      0x04\n      add\n      tag_235\n      swap4\n      swap3\n      swap2\n      swap1\n      tag_236\n      jump\t// in\n    tag_235:\n      0x20\n      mload(0x40)\n      dup1\n      dup4\n      sub\n      dup2\n      0x00\n      dup8\n      gas\n      call\n      iszero\n      dup1\n      iszero\n      tag_238\n      jumpi\n      returndatasize\n      0x00\n      dup1\n      returndatacopy\n      revert(0x00, returndatasize)\n    tag_238:\n      pop\n      pop\n      pop\n      pop\n      mload(0x40)\n      returndatasize\n      not(0x1f)\n      0x1f\n      dup3\n      add\n      and\n      dup3\n      add\n      dup1\n      0x40\n      mstore\n      pop\n      dup2\n      add\n      swap1\n      tag_239\n      swap2\n      swap1\n      tag_240\n      jump\t// in\n    tag_239:\n      pop\n        /* \"contracts/core/JobBoardDelta.sol\":7854:7858  true */\n      0x01\n        /* \"contracts/core/JobBoardDelta.sol\":7847:7858  return true */\n      swap2\n      pop\n      pop\n        /* \"contracts/core/JobBoardDelta.sol\":7478:7878  function transferIn(address _erc20, uint256 _amount ) internal returns (bool _success) {... */\n    tag_229:\n      swap3\n      swap2\n      pop\n      pop\n      jump\t// out\n        /* \"contracts/core/JobBoardDelta.sol\":7886:8287  function transferOut(address _erc20, uint256 _amount , address _destination) internal returns (bool _success) {... */\n    tag_185:\n        /* \"contracts/core/JobBoardDelta.sol\":7981:7994  bool _success */\n      0x00\n        /* \"contracts/core/JobBoardDelta.sol\":417:459  0xEeeeeEeeeEeEeeEeEeEeeEEEeeeeEeeeeeeeEEeE */\n      0xeeeeeeeeeeeeeeeeeeeeeeeeeeeeeeeeeeeeeeee\n        /* \"contracts/core/JobBoardDelta.sol\":8010:8026  _erc20 == NATIVE */\n      0xffffffffffffffffffffffffffffffffffffffff\n      and\n        /* \"contracts/core/JobBoardDelta.sol\":8010:8016  _erc20 */\n      dup5\n        /* \"contracts/core/JobBoardDelta.sol\":8010:8026  _erc20 == NATIVE */\n      0xffffffffffffffffffffffffffffffffffffffff\n      and\n      sub\n        /* \"contracts/core/JobBoardDelta.sol\":8007:8280  if(_erc20 == NATIVE){... */\n      tag_242\n      jumpi\n        /* \"contracts/core/JobBoardDelta.sol\":8050:8062  _destination */\n      dup2\n        /* \"contracts/core/JobBoardDelta.sol\":8042:8072  payable(_destination).transfer */\n      0xffffffffffffffffffffffffffffffffffffffff\n      and\n        /* \"contracts/core/JobBoardDelta.sol\":8042:8081  payable(_destination).transfer(_amount) */\n      0x08fc\n        /* \"contracts/core/JobBoardDelta.sol\":8073:8080  _amount */\n      dup5\n        /* \"contracts/core/JobBoardDelta.sol\":8042:8081  payable(_destination).transfer(_amount) */\n      swap1\n      dup2\n      iszero\n      mul\n      swap1\n      mload(0x40)\n      0x00\n      mload(0x40)\n      dup1\n      dup4\n      sub\n      dup2\n      dup6\n      dup9\n      dup9\n      call\n      swap4\n      pop\n      pop\n      pop\n      pop\n      iszero\n      dup1\n      iszero\n      tag_244\n      jumpi\n      returndatasize\n      0x00\n      dup1\n      returndatacopy\n      revert(0x00, returndatasize)\n    tag_244:\n      pop\n        /* \"contracts/core/JobBoardDelta.sol\":8103:8107  true */\n      0x01\n        /* \"contracts/core/JobBoardDelta.sol\":8096:8107  return true */\n      swap1\n      pop\n      jump(tag_241)\n        /* \"contracts/core/JobBoardDelta.sol\":8007:8280  if(_erc20 == NATIVE){... */\n    tag_242:\n        /* \"contracts/core/JobBoardDelta.sol\":8149:8162  IERC20 erc20_ */\n      0x00\n        /* \"contracts/core/JobBoardDelta.sol\":8172:8178  _erc20 */\n      dup5\n        /* \"contracts/core/JobBoardDelta.sol\":8149:8179  IERC20 erc20_ = IERC20(_erc20) */\n      swap1\n      pop\n        /* \"contracts/core/JobBoardDelta.sol\":8193:8199  erc20_ */\n      dup1\n        /* \"contracts/core/JobBoardDelta.sol\":8193:8212  erc20_.transferFrom */\n      0xffffffffffffffffffffffffffffffffffffffff\n      and\n      0x23b872dd\n        /* \"contracts/core/JobBoardDelta.sol\":8213:8217  self */\n      immutable(\"0x386729e4d0259bcb363527c54b64d30f72196af65182d1d22218eac92f007f67\")\n        /* \"contracts/core/JobBoardDelta.sol\":8219:8231  _destination */\n      dup6\n        /* \"contracts/core/JobBoardDelta.sol\":8233:8240  _amount */\n      dup8\n        /* \"contracts/core/JobBoardDelta.sol\":8193:8241  erc20_.transferFrom(self, _destination, _amount) */\n      mload(0x40)\n      dup5\n      0xffffffff\n      and\n      0xe0\n      shl\n      dup2\n      mstore\n      0x04\n      add\n      tag_246\n      swap4\n      swap3\n      swap2\n      swap1\n      tag_236\n      jump\t// in\n    tag_246:\n      0x20\n      mload(0x40)\n      dup1\n      dup4\n      sub\n      dup2\n      0x00\n      dup8\n      gas\n      call\n      iszero\n      dup1\n      iszero\n      tag_248\n      jumpi\n      returndatasize\n      0x00\n      dup1\n      returndatacopy\n      revert(0x00, returndatasize)\n    tag_248:\n      pop\n      pop\n      pop\n      pop\n      mload(0x40)\n      returndatasize\n      not(0x1f)\n      0x1f\n      dup3\n      add\n      and\n      dup3\n      add\n      dup1\n      0x40\n      mstore\n      pop\n      dup2\n      add\n      swap1\n      tag_249\n      swap2\n      swap1\n      tag_240\n      jump\t// in\n    tag_249:\n      pop\n        /* \"contracts/core/JobBoardDelta.sol\":8263:8267  true */\n      0x01\n        /* \"contracts/core/JobBoardDelta.sol\":8256:8267  return true */\n      swap2\n      pop\n      pop\n        /* \"contracts/core/JobBoardDelta.sol\":7886:8287  function transferOut(address _erc20, uint256 _amount , address _destination) internal returns (bool _success) {... */\n    tag_241:\n      swap4\n      swap3\n      pop\n      pop\n      pop\n      jump\t// out\n        /* \"contracts/core/JobBoardDelta.sol\":8295:8452  function transferOutCrossChain(address _erc20, uint256 _amount , address _destination, uint256 _destinationChain) internal returns (bool _success) {... */\n    tag_188:\n        /* \"contracts/core/JobBoardDelta.sol\":8427:8440  bool _success */\n      0x00\n        /* \"contracts/core/JobBoardDelta.sol\":8295:8452  function transferOutCrossChain(address _erc20, uint256 _amount , address _destination, uint256 _destinationChain) internal returns (bool _success) {... */\n      swap5\n      swap4\n      pop\n      pop\n      pop\n      pop\n      jump\t// out\n        /* \"contracts/core/JobBoardDelta.sol\":7064:7470  function getDuration(Duration _duration) pure internal returns (uint256 _seconds) {... */\n    tag_206:\n        /* \"contracts/core/JobBoardDelta.sol\":7128:7144  uint256 _seconds */\n      0x00\n        /* \"contracts/core/JobBoardDelta.sol\":7168:7184  60 * 60 * 24 * 7 */\n      0x093a80\n        /* \"contracts/core/JobBoardDelta.sol\":7157:7184  _seconds = 60 * 60 * 24 * 7 */\n      swap1\n      pop\n        /* \"contracts/core/JobBoardDelta.sol\":7211:7228  Duration.ONE_WEEK */\n      0x00\n        /* \"contracts/core/JobBoardDelta.sol\":7198:7228  _duration == Duration.ONE_WEEK */\n      0x02\n      dup2\n      gt\n      iszero\n      tag_252\n      jumpi\n      tag_253\n      tag_110\n      jump\t// in\n    tag_253:\n    tag_252:\n        /* \"contracts/core/JobBoardDelta.sol\":7198:7207  _duration */\n      dup3\n        /* \"contracts/core/JobBoardDelta.sol\":7198:7228  _duration == Duration.ONE_WEEK */\n      0x02\n      dup2\n      gt\n      iszero\n      tag_254\n      jumpi\n      tag_255\n      tag_110\n      jump\t// in\n    tag_255:\n    tag_254:\n      sub\n        /* \"contracts/core/JobBoardDelta.sol\":7195:7273  if(_duration == Duration.ONE_WEEK) {... */\n      iszero\n        /* \"contracts/core/JobBoardDelta.sol\":7245:7260  return _seconds */\n      tag_251\n        /* \"contracts/core/JobBoardDelta.sol\":7195:7273  if(_duration == Duration.ONE_WEEK) {... */\n      jumpi\n        /* \"contracts/core/JobBoardDelta.sol\":7302:7320  Duration.TWO_WEEKS */\n      0x01\n        /* \"contracts/core/JobBoardDelta.sol\":7288:7320  _duration  == Duration.TWO_WEEKS */\n      0x02\n      dup2\n      gt\n      iszero\n      tag_257\n      jumpi\n      tag_258\n      tag_110\n      jump\t// in\n    tag_258:\n    tag_257:\n        /* \"contracts/core/JobBoardDelta.sol\":7288:7297  _duration */\n      dup3\n        /* \"contracts/core/JobBoardDelta.sol\":7288:7320  _duration  == Duration.TWO_WEEKS */\n      0x02\n      dup2\n      gt\n      iszero\n      tag_259\n      jumpi\n      tag_260\n      tag_110\n      jump\t// in\n    tag_260:\n    tag_259:\n      sub\n        /* \"contracts/core/JobBoardDelta.sol\":7285:7368  if(_duration  == Duration.TWO_WEEKS) {... */\n      tag_261\n      jumpi\n        /* \"contracts/core/JobBoardDelta.sol\":7355:7356  2 */\n      0x02\n        /* \"contracts/core/JobBoardDelta.sol\":7344:7352  _seconds */\n      dup2\n        /* \"contracts/core/JobBoardDelta.sol\":7344:7356  _seconds * 2 */\n      tag_262\n      swap2\n      swap1\n      tag_263\n      jump\t// in\n    tag_262:\n        /* \"contracts/core/JobBoardDelta.sol\":7337:7356  return _seconds * 2 */\n      swap1\n      pop\n      jump(tag_251)\n        /* \"contracts/core/JobBoardDelta.sol\":7285:7368  if(_duration  == Duration.TWO_WEEKS) {... */\n    tag_261:\n        /* \"contracts/core/JobBoardDelta.sol\":7396:7414  Duration.ONE_MONTH */\n      0x02\n        /* \"contracts/core/JobBoardDelta.sol\":7383:7414  _duration == Duration.ONE_MONTH */\n      dup1\n      dup2\n      gt\n      iszero\n      tag_264\n      jumpi\n      tag_265\n      tag_110\n      jump\t// in\n    tag_265:\n    tag_264:\n        /* \"contracts/core/JobBoardDelta.sol\":7383:7392  _duration */\n      dup3\n        /* \"contracts/core/JobBoardDelta.sol\":7383:7414  _duration == Duration.ONE_MONTH */\n      0x02\n      dup2\n      gt\n      iszero\n      tag_266\n      jumpi\n      tag_267\n      tag_110\n      jump\t// in\n    tag_267:\n    tag_266:\n      sub\n        /* \"contracts/core/JobBoardDelta.sol\":7380:7463  if(_duration == Duration.ONE_MONTH) {... */\n      tag_268\n      jumpi\n        /* \"contracts/core/JobBoardDelta.sol\":7449:7450  4 */\n      0x04\n        /* \"contracts/core/JobBoardDelta.sol\":7438:7446  _seconds */\n      dup2\n        /* \"contracts/core/JobBoardDelta.sol\":7438:7450  _seconds * 4 */\n      tag_269\n      swap2\n      swap1\n      tag_263\n      jump\t// in\n    tag_269:\n        /* \"contracts/core/JobBoardDelta.sol\":7431:7450  return _seconds * 4 */\n      swap1\n      pop\n      jump(tag_251)\n        /* \"contracts/core/JobBoardDelta.sol\":7380:7463  if(_duration == Duration.ONE_MONTH) {... */\n    tag_268:\n        /* \"contracts/core/JobBoardDelta.sol\":7064:7470  function getDuration(Duration _duration) pure internal returns (uint256 _seconds) {... */\n    tag_251:\n      swap2\n      swap1\n      pop\n      jump\t// out\n    tag_117:\n      mload(0x40)\n      dup1\n      0xc0\n      add\n      0x40\n      mstore\n      dup1\n      0x00\n      dup2\n      mstore\n      0x20\n      add\n      0x60\n      dup2\n      mstore\n      0x20\n      add\n      0x00\n      dup2\n      mstore\n      0x20\n      add\n      0x00\n      dup2\n      mstore\n      0x20\n      add\n      iszero(iszero(0x00))\n      dup2\n      mstore\n      0x20\n      add\n      and(0xffffffffffffffffffffffffffffffffffffffff, 0x00)\n      dup2\n      mstore\n      pop\n      swap1\n      jump\t// out\n    tag_150:\n      mload(0x40)\n      dup1\n      0x80\n      add\n      0x40\n      mstore\n      dup1\n      and(0xffffffffffffffffffffffffffffffffffffffff, 0x00)\n      dup2\n      mstore\n      0x20\n      add\n      0x00\n      dup2\n      mstore\n      0x20\n      add\n      0x00\n      dup2\n      mstore\n      0x20\n      add\n      0x00\n      dup2\n      mstore\n      pop\n      swap1\n      jump\t// out\n    tag_220:\n      mload(0x40)\n      dup1\n      0xa0\n      add\n      0x40\n      mstore\n      dup1\n      0x00\n      dup2\n      mstore\n      0x20\n      add\n      0x60\n      dup2\n      mstore\n      0x20\n      add\n      0x00\n      dup2\n      mstore\n      0x20\n      add\n      and(0xffffffffffffffffffffffffffffffffffffffff, 0x00)\n      dup2\n      mstore\n      0x20\n      add\n      iszero(iszero(0x00))\n      dup2\n      mstore\n      pop\n      swap1\n      jump\t// out\n        /* \"#utility.yul\":7:82   */\n    tag_270:\n        /* \"#utility.yul\":40:46   */\n      0x00\n        /* \"#utility.yul\":73:75   */\n      0x40\n        /* \"#utility.yul\":67:76   */\n      mload\n        /* \"#utility.yul\":57:76   */\n      swap1\n      pop\n        /* \"#utility.yul\":7:82   */\n      swap1\n      jump\t// out\n        /* \"#utility.yul\":88:205   */\n    tag_271:\n        /* \"#utility.yul\":197:198   */\n      0x00\n        /* \"#utility.yul\":194:195   */\n      dup1\n        /* \"#utility.yul\":187:199   */\n      revert\n        /* \"#utility.yul\":211:328   */\n    tag_272:\n        /* \"#utility.yul\":320:321   */\n      0x00\n        /* \"#utility.yul\":317:318   */\n      dup1\n        /* \"#utility.yul\":310:322   */\n      revert\n        /* \"#utility.yul\":334:411   */\n    tag_273:\n        /* \"#utility.yul\":371:378   */\n      0x00\n        /* \"#utility.yul\":400:405   */\n      dup2\n        /* \"#utility.yul\":389:405   */\n      swap1\n      pop\n        /* \"#utility.yul\":334:411   */\n      swap2\n      swap1\n      pop\n      jump\t// out\n        /* \"#utility.yul\":417:539   */\n    tag_274:\n        /* \"#utility.yul\":490:514   */\n      tag_355\n        /* \"#utility.yul\":508:513   */\n      dup2\n        /* \"#utility.yul\":490:514   */\n      tag_273\n      jump\t// in\n    tag_355:\n        /* \"#utility.yul\":483:488   */\n      dup2\n        /* \"#utility.yul\":480:515   */\n      eq\n        /* \"#utility.yul\":470:533   */\n      tag_356\n      jumpi\n        /* \"#utility.yul\":529:530   */\n      0x00\n        /* \"#utility.yul\":526:527   */\n      dup1\n        /* \"#utility.yul\":519:531   */\n      revert\n        /* \"#utility.yul\":470:533   */\n    tag_356:\n        /* \"#utility.yul\":417:539   */\n      pop\n      jump\t// out\n        /* \"#utility.yul\":545:684   */\n    tag_275:\n        /* \"#utility.yul\":591:596   */\n      0x00\n        /* \"#utility.yul\":629:635   */\n      dup2\n        /* \"#utility.yul\":616:636   */\n      calldataload\n        /* \"#utility.yul\":607:636   */\n      swap1\n      pop\n        /* \"#utility.yul\":645:678   */\n      tag_358\n        /* \"#utility.yul\":672:677   */\n      dup2\n        /* \"#utility.yul\":645:678   */\n      tag_274\n      jump\t// in\n    tag_358:\n        /* \"#utility.yul\":545:684   */\n      swap3\n      swap2\n      pop\n      pop\n      jump\t// out\n        /* \"#utility.yul\":690:1019   */\n    tag_23:\n        /* \"#utility.yul\":749:755   */\n      0x00\n        /* \"#utility.yul\":798:800   */\n      0x20\n        /* \"#utility.yul\":786:795   */\n      dup3\n        /* \"#utility.yul\":777:784   */\n      dup5\n        /* \"#utility.yul\":773:796   */\n      sub\n        /* \"#utility.yul\":769:801   */\n      slt\n        /* \"#utility.yul\":766:885   */\n      iszero\n      tag_360\n      jumpi\n        /* \"#utility.yul\":804:883   */\n      tag_361\n      tag_271\n      jump\t// in\n    tag_361:\n        /* \"#utility.yul\":766:885   */\n    tag_360:\n        /* \"#utility.yul\":924:925   */\n      0x00\n        /* \"#utility.yul\":949:1002   */\n      tag_362\n        /* \"#utility.yul\":994:1001   */\n      dup5\n        /* \"#utility.yul\":985:991   */\n      dup3\n        /* \"#utility.yul\":974:983   */\n      dup6\n        /* \"#utility.yul\":970:992   */\n      add\n        /* \"#utility.yul\":949:1002   */\n      tag_275\n      jump\t// in\n    tag_362:\n        /* \"#utility.yul\":939:1002   */\n      swap2\n      pop\n        /* \"#utility.yul\":895:1012   */\n      pop\n        /* \"#utility.yul\":690:1019   */\n      swap3\n      swap2\n      pop\n      pop\n      jump\t// out\n        /* \"#utility.yul\":1025:1139   */\n    tag_276:\n        /* \"#utility.yul\":1092:1098   */\n      0x00\n        /* \"#utility.yul\":1126:1131   */\n      dup2\n        /* \"#utility.yul\":1120:1132   */\n      mload\n        /* \"#utility.yul\":1110:1132   */\n      swap1\n      pop\n        /* \"#utility.yul\":1025:1139   */\n      swap2\n      swap1\n      pop\n      jump\t// out\n        /* \"#utility.yul\":1145:1329   */\n    tag_277:\n        /* \"#utility.yul\":1244:1255   */\n      0x00\n        /* \"#utility.yul\":1278:1284   */\n      dup3\n        /* \"#utility.yul\":1273:1276   */\n      dup3\n        /* \"#utility.yul\":1266:1285   */\n      mstore\n        /* \"#utility.yul\":1318:1322   */\n      0x20\n        /* \"#utility.yul\":1313:1316   */\n      dup3\n        /* \"#utility.yul\":1309:1323   */\n      add\n        /* \"#utility.yul\":1294:1323   */\n      swap1\n      pop\n        /* \"#utility.yul\":1145:1329   */\n      swap3\n      swap2\n      pop\n      pop\n      jump\t// out\n        /* \"#utility.yul\":1335:1467   */\n    tag_278:\n        /* \"#utility.yul\":1402:1406   */\n      0x00\n        /* \"#utility.yul\":1425:1428   */\n      dup2\n        /* \"#utility.yul\":1417:1428   */\n      swap1\n      pop\n        /* \"#utility.yul\":1455:1459   */\n      0x20\n        /* \"#utility.yul\":1450:1453   */\n      dup3\n        /* \"#utility.yul\":1446:1460   */\n      add\n        /* \"#utility.yul\":1438:1460   */\n      swap1\n      pop\n        /* \"#utility.yul\":1335:1467   */\n      swap2\n      swap1\n      pop\n      jump\t// out\n        /* \"#utility.yul\":1473:1581   */\n    tag_279:\n        /* \"#utility.yul\":1550:1574   */\n      tag_367\n        /* \"#utility.yul\":1568:1573   */\n      dup2\n        /* \"#utility.yul\":1550:1574   */\n      tag_273\n      jump\t// in\n    tag_367:\n        /* \"#utility.yul\":1545:1548   */\n      dup3\n        /* \"#utility.yul\":1538:1575   */\n      mstore\n        /* \"#utility.yul\":1473:1581   */\n      pop\n      pop\n      jump\t// out\n        /* \"#utility.yul\":1587:1766   */\n    tag_280:\n        /* \"#utility.yul\":1656:1666   */\n      0x00\n        /* \"#utility.yul\":1677:1723   */\n      tag_369\n        /* \"#utility.yul\":1719:1722   */\n      dup4\n        /* \"#utility.yul\":1711:1717   */\n      dup4\n        /* \"#utility.yul\":1677:1723   */\n      tag_279\n      jump\t// in\n    tag_369:\n        /* \"#utility.yul\":1755:1759   */\n      0x20\n        /* \"#utility.yul\":1750:1753   */\n      dup4\n        /* \"#utility.yul\":1746:1760   */\n      add\n        /* \"#utility.yul\":1732:1760   */\n      swap1\n      pop\n        /* \"#utility.yul\":1587:1766   */\n      swap3\n      swap2\n      pop\n      pop\n      jump\t// out\n        /* \"#utility.yul\":1772:1885   */\n    tag_281:\n        /* \"#utility.yul\":1842:1846   */\n      0x00\n        /* \"#utility.yul\":1874:1878   */\n      0x20\n        /* \"#utility.yul\":1869:1872   */\n      dup3\n        /* \"#utility.yul\":1865:1879   */\n      add\n        /* \"#utility.yul\":1857:1879   */\n      swap1\n      pop\n        /* \"#utility.yul\":1772:1885   */\n      swap2\n      swap1\n      pop\n      jump\t// out\n        /* \"#utility.yul\":1921:2653   */\n    tag_282:\n        /* \"#utility.yul\":2040:2043   */\n      0x00\n        /* \"#utility.yul\":2069:2123   */\n      tag_372\n        /* \"#utility.yul\":2117:2122   */\n      dup3\n        /* \"#utility.yul\":2069:2123   */\n      tag_276\n      jump\t// in\n    tag_372:\n        /* \"#utility.yul\":2139:2225   */\n      tag_373\n        /* \"#utility.yul\":2218:2224   */\n      dup2\n        /* \"#utility.yul\":2213:2216   */\n      dup6\n        /* \"#utility.yul\":2139:2225   */\n      tag_277\n      jump\t// in\n    tag_373:\n        /* \"#utility.yul\":2132:2225   */\n      swap4\n      pop\n        /* \"#utility.yul\":2249:2305   */\n      tag_374\n        /* \"#utility.yul\":2299:2304   */\n      dup4\n        /* \"#utility.yul\":2249:2305   */\n      tag_278\n      jump\t// in\n    tag_374:\n        /* \"#utility.yul\":2328:2335   */\n      dup1\n        /* \"#utility.yul\":2359:2360   */\n      0x00\n        /* \"#utility.yul\":2344:2628   */\n    tag_375:\n        /* \"#utility.yul\":2369:2375   */\n      dup4\n        /* \"#utility.yul\":2366:2367   */\n      dup2\n        /* \"#utility.yul\":2363:2376   */\n      lt\n        /* \"#utility.yul\":2344:2628   */\n      iszero\n      tag_377\n      jumpi\n        /* \"#utility.yul\":2445:2451   */\n      dup2\n        /* \"#utility.yul\":2439:2452   */\n      mload\n        /* \"#utility.yul\":2472:2535   */\n      tag_378\n        /* \"#utility.yul\":2531:2534   */\n      dup9\n        /* \"#utility.yul\":2516:2529   */\n      dup3\n        /* \"#utility.yul\":2472:2535   */\n      tag_280\n      jump\t// in\n    tag_378:\n        /* \"#utility.yul\":2465:2535   */\n      swap8\n      pop\n        /* \"#utility.yul\":2558:2618   */\n      tag_379\n        /* \"#utility.yul\":2611:2617   */\n      dup4\n        /* \"#utility.yul\":2558:2618   */\n      tag_281\n      jump\t// in\n    tag_379:\n        /* \"#utility.yul\":2548:2618   */\n      swap3\n      pop\n        /* \"#utility.yul\":2404:2628   */\n      pop\n        /* \"#utility.yul\":2391:2392   */\n      0x01\n        /* \"#utility.yul\":2388:2389   */\n      dup2\n        /* \"#utility.yul\":2384:2393   */\n      add\n        /* \"#utility.yul\":2379:2393   */\n      swap1\n      pop\n        /* \"#utility.yul\":2344:2628   */\n      jump(tag_375)\n    tag_377:\n        /* \"#utility.yul\":2348:2362   */\n      pop\n        /* \"#utility.yul\":2644:2647   */\n      dup6\n        /* \"#utility.yul\":2637:2647   */\n      swap4\n      pop\n        /* \"#utility.yul\":2045:2653   */\n      pop\n      pop\n      pop\n        /* \"#utility.yul\":1921:2653   */\n      swap3\n      swap2\n      pop\n      pop\n      jump\t// out\n        /* \"#utility.yul\":2659:3032   */\n    tag_26:\n        /* \"#utility.yul\":2802:2806   */\n      0x00\n        /* \"#utility.yul\":2840:2842   */\n      0x20\n        /* \"#utility.yul\":2829:2838   */\n      dup3\n        /* \"#utility.yul\":2825:2843   */\n      add\n        /* \"#utility.yul\":2817:2843   */\n      swap1\n      pop\n        /* \"#utility.yul\":2889:2898   */\n      dup2\n        /* \"#utility.yul\":2883:2887   */\n      dup2\n        /* \"#utility.yul\":2879:2899   */\n      sub\n        /* \"#utility.yul\":2875:2876   */\n      0x00\n        /* \"#utility.yul\":2864:2873   */\n      dup4\n        /* \"#utility.yul\":2860:2877   */\n      add\n        /* \"#utility.yul\":2853:2900   */\n      mstore\n        /* \"#utility.yul\":2917:3025   */\n      tag_381\n        /* \"#utility.yul\":3020:3024   */\n      dup2\n        /* \"#utility.yul\":3011:3017   */\n      dup5\n        /* \"#utility.yul\":2917:3025   */\n      tag_282\n      jump\t// in\n    tag_381:\n        /* \"#utility.yul\":2909:3025   */\n      swap1\n      pop\n        /* \"#utility.yul\":2659:3032   */\n      swap3\n      swap2\n      pop\n      pop\n      jump\t// out\n        /* \"#utility.yul\":3038:3150   */\n    tag_283:\n        /* \"#utility.yul\":3124:3125   */\n      0x03\n        /* \"#utility.yul\":3117:3122   */\n      dup2\n        /* \"#utility.yul\":3114:3126   */\n      lt\n        /* \"#utility.yul\":3104:3144   */\n      tag_383\n      jumpi\n        /* \"#utility.yul\":3140:3141   */\n      0x00\n        /* \"#utility.yul\":3137:3138   */\n      dup1\n        /* \"#utility.yul\":3130:3142   */\n      revert\n        /* \"#utility.yul\":3104:3144   */\n    tag_383:\n        /* \"#utility.yul\":3038:3150   */\n      pop\n      jump\t// out\n        /* \"#utility.yul\":3156:3321   */\n    tag_284:\n        /* \"#utility.yul\":3215:3220   */\n      0x00\n        /* \"#utility.yul\":3253:3259   */\n      dup2\n        /* \"#utility.yul\":3240:3260   */\n      calldataload\n        /* \"#utility.yul\":3231:3260   */\n      swap1\n      pop\n        /* \"#utility.yul\":3269:3315   */\n      tag_385\n        /* \"#utility.yul\":3309:3314   */\n      dup2\n        /* \"#utility.yul\":3269:3315   */\n      tag_283\n      jump\t// in\n    tag_385:\n        /* \"#utility.yul\":3156:3321   */\n      swap3\n      swap2\n      pop\n      pop\n      jump\t// out\n        /* \"#utility.yul\":3327:3682   */\n    tag_30:\n        /* \"#utility.yul\":3399:3405   */\n      0x00\n        /* \"#utility.yul\":3448:3450   */\n      0x20\n        /* \"#utility.yul\":3436:3445   */\n      dup3\n        /* \"#utility.yul\":3427:3434   */\n      dup5\n        /* \"#utility.yul\":3423:3446   */\n      sub\n        /* \"#utility.yul\":3419:3451   */\n      slt\n        /* \"#utility.yul\":3416:3535   */\n      iszero\n      tag_387\n      jumpi\n        /* \"#utility.yul\":3454:3533   */\n      tag_388\n      tag_271\n      jump\t// in\n    tag_388:\n        /* \"#utility.yul\":3416:3535   */\n    tag_387:\n        /* \"#utility.yul\":3574:3575   */\n      0x00\n        /* \"#utility.yul\":3599:3665   */\n      tag_389\n        /* \"#utility.yul\":3657:3664   */\n      dup5\n        /* \"#utility.yul\":3648:3654   */\n      dup3\n        /* \"#utility.yul\":3637:3646   */\n      dup6\n        /* \"#utility.yul\":3633:3655   */\n      add\n        /* \"#utility.yul\":3599:3665   */\n      tag_284\n      jump\t// in\n    tag_389:\n        /* \"#utility.yul\":3589:3665   */\n      swap2\n      pop\n        /* \"#utility.yul\":3545:3675   */\n      pop\n        /* \"#utility.yul\":3327:3682   */\n      swap3\n      swap2\n      pop\n      pop\n      jump\t// out\n        /* \"#utility.yul\":3688:3806   */\n    tag_285:\n        /* \"#utility.yul\":3775:3799   */\n      tag_391\n        /* \"#utility.yul\":3793:3798   */\n      dup2\n        /* \"#utility.yul\":3775:3799   */\n      tag_273\n      jump\t// in\n    tag_391:\n        /* \"#utility.yul\":3770:3773   */\n      dup3\n        /* \"#utility.yul\":3763:3800   */\n      mstore\n        /* \"#utility.yul\":3688:3806   */\n      pop\n      pop\n      jump\t// out\n        /* \"#utility.yul\":3812:4034   */\n    tag_33:\n        /* \"#utility.yul\":3905:3909   */\n      0x00\n        /* \"#utility.yul\":3943:3945   */\n      0x20\n        /* \"#utility.yul\":3932:3941   */\n      dup3\n        /* \"#utility.yul\":3928:3946   */\n      add\n        /* \"#utility.yul\":3920:3946   */\n      swap1\n      pop\n        /* \"#utility.yul\":3956:4027   */\n      tag_393\n        /* \"#utility.yul\":4024:4025   */\n      0x00\n        /* \"#utility.yul\":4013:4022   */\n      dup4\n        /* \"#utility.yul\":4009:4026   */\n      add\n        /* \"#utility.yul\":4000:4006   */\n      dup5\n        /* \"#utility.yul\":3956:4027   */\n      tag_285\n      jump\t// in\n    tag_393:\n        /* \"#utility.yul\":3812:4034   */\n      swap3\n      swap2\n      pop\n      pop\n      jump\t// out\n        /* \"#utility.yul\":4040:4139   */\n    tag_286:\n        /* \"#utility.yul\":4092:4098   */\n      0x00\n        /* \"#utility.yul\":4126:4131   */\n      dup2\n        /* \"#utility.yul\":4120:4132   */\n      mload\n        /* \"#utility.yul\":4110:4132   */\n      swap1\n      pop\n        /* \"#utility.yul\":4040:4139   */\n      swap2\n      swap1\n      pop\n      jump\t// out\n        /* \"#utility.yul\":4145:4304   */\n    tag_287:\n        /* \"#utility.yul\":4219:4230   */\n      0x00\n        /* \"#utility.yul\":4253:4259   */\n      dup3\n        /* \"#utility.yul\":4248:4251   */\n      dup3\n        /* \"#utility.yul\":4241:4260   */\n      mstore\n        /* \"#utility.yul\":4293:4297   */\n      0x20\n        /* \"#utility.yul\":4288:4291   */\n      dup3\n        /* \"#utility.yul\":4284:4298   */\n      add\n        /* \"#utility.yul\":4269:4298   */\n      swap1\n      pop\n        /* \"#utility.yul\":4145:4304   */\n      swap3\n      swap2\n      pop\n      pop\n      jump\t// out\n        /* \"#utility.yul\":4310:4449   */\n    tag_288:\n        /* \"#utility.yul\":4399:4405   */\n      dup3\n        /* \"#utility.yul\":4394:4397   */\n      dup2\n        /* \"#utility.yul\":4389:4392   */\n      dup4\n        /* \"#utility.yul\":4383:4406   */\n      mcopy\n        /* \"#utility.yul\":4440:4441   */\n      0x00\n        /* \"#utility.yul\":4431:4437   */\n      dup4\n        /* \"#utility.yul\":4426:4429   */\n      dup4\n        /* \"#utility.yul\":4422:4438   */\n      add\n        /* \"#utility.yul\":4415:4442   */\n      mstore\n        /* \"#utility.yul\":4310:4449   */\n      pop\n      pop\n      pop\n      jump\t// out\n        /* \"#utility.yul\":4455:4557   */\n    tag_289:\n        /* \"#utility.yul\":4496:4502   */\n      0x00\n        /* \"#utility.yul\":4547:4549   */\n      0x1f\n        /* \"#utility.yul\":4543:4550   */\n      not\n        /* \"#utility.yul\":4538:4540   */\n      0x1f\n        /* \"#utility.yul\":4531:4536   */\n      dup4\n        /* \"#utility.yul\":4527:4541   */\n      add\n        /* \"#utility.yul\":4523:4551   */\n      and\n        /* \"#utility.yul\":4513:4551   */\n      swap1\n      pop\n        /* \"#utility.yul\":4455:4557   */\n      swap2\n      swap1\n      pop\n      jump\t// out\n        /* \"#utility.yul\":4563:4920   */\n    tag_290:\n        /* \"#utility.yul\":4641:4644   */\n      0x00\n        /* \"#utility.yul\":4669:4708   */\n      tag_399\n        /* \"#utility.yul\":4702:4707   */\n      dup3\n        /* \"#utility.yul\":4669:4708   */\n      tag_286\n      jump\t// in\n    tag_399:\n        /* \"#utility.yul\":4724:4785   */\n      tag_400\n        /* \"#utility.yul\":4778:4784   */\n      dup2\n        /* \"#utility.yul\":4773:4776   */\n      dup6\n        /* \"#utility.yul\":4724:4785   */\n      tag_287\n      jump\t// in\n    tag_400:\n        /* \"#utility.yul\":4717:4785   */\n      swap4\n      pop\n        /* \"#utility.yul\":4794:4859   */\n      tag_401\n        /* \"#utility.yul\":4852:4858   */\n      dup2\n        /* \"#utility.yul\":4847:4850   */\n      dup6\n        /* \"#utility.yul\":4840:4844   */\n      0x20\n        /* \"#utility.yul\":4833:4838   */\n      dup7\n        /* \"#utility.yul\":4829:4845   */\n      add\n        /* \"#utility.yul\":4794:4859   */\n      tag_288\n      jump\t// in\n    tag_401:\n        /* \"#utility.yul\":4884:4913   */\n      tag_402\n        /* \"#utility.yul\":4906:4912   */\n      dup2\n        /* \"#utility.yul\":4884:4913   */\n      tag_289\n      jump\t// in\n    tag_402:\n        /* \"#utility.yul\":4879:4882   */\n      dup5\n        /* \"#utility.yul\":4875:4914   */\n      add\n        /* \"#utility.yul\":4868:4914   */\n      swap2\n      pop\n        /* \"#utility.yul\":4645:4920   */\n      pop\n        /* \"#utility.yul\":4563:4920   */\n      swap3\n      swap2\n      pop\n      pop\n      jump\t// out\n        /* \"#utility.yul\":4926:5016   */\n    tag_291:\n        /* \"#utility.yul\":4960:4967   */\n      0x00\n        /* \"#utility.yul\":5003:5008   */\n      dup2\n        /* \"#utility.yul\":4996:5009   */\n      iszero\n        /* \"#utility.yul\":4989:5010   */\n      iszero\n        /* \"#utility.yul\":4978:5010   */\n      swap1\n      pop\n        /* \"#utility.yul\":4926:5016   */\n      swap2\n      swap1\n      pop\n      jump\t// out\n        /* \"#utility.yul\":5022:5121   */\n    tag_292:\n        /* \"#utility.yul\":5093:5114   */\n      tag_405\n        /* \"#utility.yul\":5108:5113   */\n      dup2\n        /* \"#utility.yul\":5093:5114   */\n      tag_291\n      jump\t// in\n    tag_405:\n        /* \"#utility.yul\":5088:5091   */\n      dup3\n        /* \"#utility.yul\":5081:5115   */\n      mstore\n        /* \"#utility.yul\":5022:5121   */\n      pop\n      pop\n      jump\t// out\n        /* \"#utility.yul\":5127:5253   */\n    tag_293:\n        /* \"#utility.yul\":5164:5171   */\n      0x00\n        /* \"#utility.yul\":5204:5246   */\n      0xffffffffffffffffffffffffffffffffffffffff\n        /* \"#utility.yul\":5197:5202   */\n      dup3\n        /* \"#utility.yul\":5193:5247   */\n      and\n        /* \"#utility.yul\":5182:5247   */\n      swap1\n      pop\n        /* \"#utility.yul\":5127:5253   */\n      swap2\n      swap1\n      pop\n      jump\t// out\n        /* \"#utility.yul\":5259:5355   */\n    tag_294:\n        /* \"#utility.yul\":5296:5303   */\n      0x00\n        /* \"#utility.yul\":5325:5349   */\n      tag_408\n        /* \"#utility.yul\":5343:5348   */\n      dup3\n        /* \"#utility.yul\":5325:5349   */\n      tag_293\n      jump\t// in\n    tag_408:\n        /* \"#utility.yul\":5314:5349   */\n      swap1\n      pop\n        /* \"#utility.yul\":5259:5355   */\n      swap2\n      swap1\n      pop\n      jump\t// out\n        /* \"#utility.yul\":5361:5469   */\n    tag_295:\n        /* \"#utility.yul\":5438:5462   */\n      tag_410\n        /* \"#utility.yul\":5456:5461   */\n      dup2\n        /* \"#utility.yul\":5438:5462   */\n      tag_294\n      jump\t// in\n    tag_410:\n        /* \"#utility.yul\":5433:5436   */\n      dup3\n        /* \"#utility.yul\":5426:5463   */\n      mstore\n        /* \"#utility.yul\":5361:5469   */\n      pop\n      pop\n      jump\t// out\n        /* \"#utility.yul\":5507:6811   */\n    tag_296:\n        /* \"#utility.yul\":5618:5621   */\n      0x00\n        /* \"#utility.yul\":5654:5658   */\n      0xc0\n        /* \"#utility.yul\":5649:5652   */\n      dup4\n        /* \"#utility.yul\":5645:5659   */\n      add\n        /* \"#utility.yul\":5739:5743   */\n      0x00\n        /* \"#utility.yul\":5732:5737   */\n      dup4\n        /* \"#utility.yul\":5728:5744   */\n      add\n        /* \"#utility.yul\":5722:5745   */\n      mload\n        /* \"#utility.yul\":5758:5821   */\n      tag_412\n        /* \"#utility.yul\":5815:5819   */\n      0x00\n        /* \"#utility.yul\":5810:5813   */\n      dup7\n        /* \"#utility.yul\":5806:5820   */\n      add\n        /* \"#utility.yul\":5792:5804   */\n      dup3\n        /* \"#utility.yul\":5758:5821   */\n      tag_279\n      jump\t// in\n    tag_412:\n        /* \"#utility.yul\":5669:5831   */\n      pop\n        /* \"#utility.yul\":5912:5916   */\n      0x20\n        /* \"#utility.yul\":5905:5910   */\n      dup4\n        /* \"#utility.yul\":5901:5917   */\n      add\n        /* \"#utility.yul\":5895:5918   */\n      mload\n        /* \"#utility.yul\":5965:5968   */\n      dup5\n        /* \"#utility.yul\":5959:5963   */\n      dup3\n        /* \"#utility.yul\":5955:5969   */\n      sub\n        /* \"#utility.yul\":5948:5952   */\n      0x20\n        /* \"#utility.yul\":5943:5946   */\n      dup7\n        /* \"#utility.yul\":5939:5953   */\n      add\n        /* \"#utility.yul\":5932:5970   */\n      mstore\n        /* \"#utility.yul\":5991:6064   */\n      tag_413\n        /* \"#utility.yul\":6059:6063   */\n      dup3\n        /* \"#utility.yul\":6045:6057   */\n      dup3\n        /* \"#utility.yul\":5991:6064   */\n      tag_290\n      jump\t// in\n    tag_413:\n        /* \"#utility.yul\":5983:6064   */\n      swap2\n      pop\n        /* \"#utility.yul\":5841:6075   */\n      pop\n        /* \"#utility.yul\":6163:6167   */\n      0x40\n        /* \"#utility.yul\":6156:6161   */\n      dup4\n        /* \"#utility.yul\":6152:6168   */\n      add\n        /* \"#utility.yul\":6146:6169   */\n      mload\n        /* \"#utility.yul\":6182:6245   */\n      tag_414\n        /* \"#utility.yul\":6239:6243   */\n      0x40\n        /* \"#utility.yul\":6234:6237   */\n      dup7\n        /* \"#utility.yul\":6230:6244   */\n      add\n        /* \"#utility.yul\":6216:6228   */\n      dup3\n        /* \"#utility.yul\":6182:6245   */\n      tag_279\n      jump\t// in\n    tag_414:\n        /* \"#utility.yul\":6085:6255   */\n      pop\n        /* \"#utility.yul\":6344:6348   */\n      0x60\n        /* \"#utility.yul\":6337:6342   */\n      dup4\n        /* \"#utility.yul\":6333:6349   */\n      add\n        /* \"#utility.yul\":6327:6350   */\n      mload\n        /* \"#utility.yul\":6363:6426   */\n      tag_415\n        /* \"#utility.yul\":6420:6424   */\n      0x60\n        /* \"#utility.yul\":6415:6418   */\n      dup7\n        /* \"#utility.yul\":6411:6425   */\n      add\n        /* \"#utility.yul\":6397:6409   */\n      dup3\n        /* \"#utility.yul\":6363:6426   */\n      tag_279\n      jump\t// in\n    tag_415:\n        /* \"#utility.yul\":6265:6436   */\n      pop\n        /* \"#utility.yul\":6523:6527   */\n      0x80\n        /* \"#utility.yul\":6516:6521   */\n      dup4\n        /* \"#utility.yul\":6512:6528   */\n      add\n        /* \"#utility.yul\":6506:6529   */\n      mload\n        /* \"#utility.yul\":6542:6599   */\n      tag_416\n        /* \"#utility.yul\":6593:6597   */\n      0x80\n        /* \"#utility.yul\":6588:6591   */\n      dup7\n        /* \"#utility.yul\":6584:6598   */\n      add\n        /* \"#utility.yul\":6570:6582   */\n      dup3\n        /* \"#utility.yul\":6542:6599   */\n      tag_292\n      jump\t// in\n    tag_416:\n        /* \"#utility.yul\":6446:6609   */\n      pop\n        /* \"#utility.yul\":6692:6696   */\n      0xa0\n        /* \"#utility.yul\":6685:6690   */\n      dup4\n        /* \"#utility.yul\":6681:6697   */\n      add\n        /* \"#utility.yul\":6675:6698   */\n      mload\n        /* \"#utility.yul\":6711:6774   */\n      tag_417\n        /* \"#utility.yul\":6768:6772   */\n      0xa0\n        /* \"#utility.yul\":6763:6766   */\n      dup7\n        /* \"#utility.yul\":6759:6773   */\n      add\n        /* \"#utility.yul\":6745:6757   */\n      dup3\n        /* \"#utility.yul\":6711:6774   */\n      tag_295\n      jump\t// in\n    tag_417:\n        /* \"#utility.yul\":6619:6784   */\n      pop\n        /* \"#utility.yul\":6801:6805   */\n      dup1\n        /* \"#utility.yul\":6794:6805   */\n      swap2\n      pop\n        /* \"#utility.yul\":5623:6811   */\n      pop\n        /* \"#utility.yul\":5507:6811   */\n      swap3\n      swap2\n      pop\n      pop\n      jump\t// out\n        /* \"#utility.yul\":6817:7174   */\n    tag_43:\n        /* \"#utility.yul\":6952:6956   */\n      0x00\n        /* \"#utility.yul\":6990:6992   */\n      0x20\n        /* \"#utility.yul\":6979:6988   */\n      dup3\n        /* \"#utility.yul\":6975:6993   */\n      add\n        /* \"#utility.yul\":6967:6993   */\n      swap1\n      pop\n        /* \"#utility.yul\":7039:7048   */\n      dup2\n        /* \"#utility.yul\":7033:7037   */\n      dup2\n        /* \"#utility.yul\":7029:7049   */\n      sub\n        /* \"#utility.yul\":7025:7026   */\n      0x00\n        /* \"#utility.yul\":7014:7023   */\n      dup4\n        /* \"#utility.yul\":7010:7027   */\n      add\n        /* \"#utility.yul\":7003:7050   */\n      mstore\n        /* \"#utility.yul\":7067:7167   */\n      tag_419\n        /* \"#utility.yul\":7162:7166   */\n      dup2\n        /* \"#utility.yul\":7153:7159   */\n      dup5\n        /* \"#utility.yul\":7067:7167   */\n      tag_296\n      jump\t// in\n    tag_419:\n        /* \"#utility.yul\":7059:7167   */\n      swap1\n      pop\n        /* \"#utility.yul\":6817:7174   */\n      swap3\n      swap2\n      pop\n      pop\n      jump\t// out\n        /* \"#utility.yul\":7180:7297   */\n    tag_297:\n        /* \"#utility.yul\":7289:7290   */\n      0x00\n        /* \"#utility.yul\":7286:7287   */\n      dup1\n        /* \"#utility.yul\":7279:7291   */\n      revert\n        /* \"#utility.yul\":7303:7420   */\n    tag_298:\n        /* \"#utility.yul\":7412:7413   */\n      0x00\n        /* \"#utility.yul\":7409:7410   */\n      dup1\n        /* \"#utility.yul\":7402:7414   */\n      revert\n        /* \"#utility.yul\":7426:7606   */\n    tag_299:\n        /* \"#utility.yul\":7474:7551   */\n      0x4e487b7100000000000000000000000000000000000000000000000000000000\n        /* \"#utility.yul\":7471:7472   */\n      0x00\n        /* \"#utility.yul\":7464:7552   */\n      mstore\n        /* \"#utility.yul\":7571:7575   */\n      0x41\n        /* \"#utility.yul\":7568:7569   */\n      0x04\n        /* \"#utility.yul\":7561:7576   */\n      mstore\n        /* \"#utility.yul\":7595:7599   */\n      0x24\n        /* \"#utility.yul\":7592:7593   */\n      0x00\n        /* \"#utility.yul\":7585:7600   */\n      revert\n        /* \"#utility.yul\":7612:7893   */\n    tag_300:\n        /* \"#utility.yul\":7695:7722   */\n      tag_424\n        /* \"#utility.yul\":7717:7721   */\n      dup3\n        /* \"#utility.yul\":7695:7722   */\n      tag_289\n      jump\t// in\n    tag_424:\n        /* \"#utility.yul\":7687:7693   */\n      dup2\n        /* \"#utility.yul\":7683:7723   */\n      add\n        /* \"#utility.yul\":7825:7831   */\n      dup2\n        /* \"#utility.yul\":7813:7823   */\n      dup2\n        /* \"#utility.yul\":7810:7832   */\n      lt\n        /* \"#utility.yul\":7789:7807   */\n      0xffffffffffffffff\n        /* \"#utility.yul\":7777:7787   */\n      dup3\n        /* \"#utility.yul\":7774:7808   */\n      gt\n        /* \"#utility.yul\":7771:7833   */\n      or\n        /* \"#utility.yul\":7768:7856   */\n      iszero\n      tag_425\n      jumpi\n        /* \"#utility.yul\":7836:7854   */\n      tag_426\n      tag_299\n      jump\t// in\n    tag_426:\n        /* \"#utility.yul\":7768:7856   */\n    tag_425:\n        /* \"#utility.yul\":7876:7886   */\n      dup1\n        /* \"#utility.yul\":7872:7874   */\n      0x40\n        /* \"#utility.yul\":7865:7887   */\n      mstore\n        /* \"#utility.yul\":7655:7893   */\n      pop\n        /* \"#utility.yul\":7612:7893   */\n      pop\n      pop\n      jump\t// out\n        /* \"#utility.yul\":7899:8028   */\n    tag_301:\n        /* \"#utility.yul\":7933:7939   */\n      0x00\n        /* \"#utility.yul\":7960:7980   */\n      tag_428\n      tag_270\n      jump\t// in\n    tag_428:\n        /* \"#utility.yul\":7950:7980   */\n      swap1\n      pop\n        /* \"#utility.yul\":7989:8022   */\n      tag_429\n        /* \"#utility.yul\":8017:8021   */\n      dup3\n        /* \"#utility.yul\":8009:8015   */\n      dup3\n        /* \"#utility.yul\":7989:8022   */\n      tag_300\n      jump\t// in\n    tag_429:\n        /* \"#utility.yul\":7899:8028   */\n      swap2\n      swap1\n      pop\n      jump\t// out\n        /* \"#utility.yul\":8034:8342   */\n    tag_302:\n        /* \"#utility.yul\":8096:8100   */\n      0x00\n        /* \"#utility.yul\":8186:8204   */\n      0xffffffffffffffff\n        /* \"#utility.yul\":8178:8184   */\n      dup3\n        /* \"#utility.yul\":8175:8205   */\n      gt\n        /* \"#utility.yul\":8172:8228   */\n      iszero\n      tag_431\n      jumpi\n        /* \"#utility.yul\":8208:8226   */\n      tag_432\n      tag_299\n      jump\t// in\n    tag_432:\n        /* \"#utility.yul\":8172:8228   */\n    tag_431:\n        /* \"#utility.yul\":8246:8275   */\n      tag_433\n        /* \"#utility.yul\":8268:8274   */\n      dup3\n        /* \"#utility.yul\":8246:8275   */\n      tag_289\n      jump\t// in\n    tag_433:\n        /* \"#utility.yul\":8238:8275   */\n      swap1\n      pop\n        /* \"#utility.yul\":8330:8334   */\n      0x20\n        /* \"#utility.yul\":8324:8328   */\n      dup2\n        /* \"#utility.yul\":8320:8335   */\n      add\n        /* \"#utility.yul\":8312:8335   */\n      swap1\n      pop\n        /* \"#utility.yul\":8034:8342   */\n      swap2\n      swap1\n      pop\n      jump\t// out\n        /* \"#utility.yul\":8348:8496   */\n    tag_303:\n        /* \"#utility.yul\":8446:8452   */\n      dup3\n        /* \"#utility.yul\":8441:8444   */\n      dup2\n        /* \"#utility.yul\":8436:8439   */\n      dup4\n        /* \"#utility.yul\":8423:8453   */\n      calldatacopy\n        /* \"#utility.yul\":8487:8488   */\n      0x00\n        /* \"#utility.yul\":8478:8484   */\n      dup4\n        /* \"#utility.yul\":8473:8476   */\n      dup4\n        /* \"#utility.yul\":8469:8485   */\n      add\n        /* \"#utility.yul\":8462:8489   */\n      mstore\n        /* \"#utility.yul\":8348:8496   */\n      pop\n      pop\n      pop\n      jump\t// out\n        /* \"#utility.yul\":8502:8927   */\n    tag_304:\n        /* \"#utility.yul\":8580:8585   */\n      0x00\n        /* \"#utility.yul\":8605:8671   */\n      tag_436\n        /* \"#utility.yul\":8621:8670   */\n      tag_437\n        /* \"#utility.yul\":8663:8669   */\n      dup5\n        /* \"#utility.yul\":8621:8670   */\n      tag_302\n      jump\t// in\n    tag_437:\n        /* \"#utility.yul\":8605:8671   */\n      tag_301\n      jump\t// in\n    tag_436:\n        /* \"#utility.yul\":8596:8671   */\n      swap1\n      pop\n        /* \"#utility.yul\":8694:8700   */\n      dup3\n        /* \"#utility.yul\":8687:8692   */\n      dup2\n        /* \"#utility.yul\":8680:8701   */\n      mstore\n        /* \"#utility.yul\":8732:8736   */\n      0x20\n        /* \"#utility.yul\":8725:8730   */\n      dup2\n        /* \"#utility.yul\":8721:8737   */\n      add\n        /* \"#utility.yul\":8770:8773   */\n      dup5\n        /* \"#utility.yul\":8761:8767   */\n      dup5\n        /* \"#utility.yul\":8756:8759   */\n      dup5\n        /* \"#utility.yul\":8752:8768   */\n      add\n        /* \"#utility.yul\":8749:8774   */\n      gt\n        /* \"#utility.yul\":8746:8858   */\n      iszero\n      tag_438\n      jumpi\n        /* \"#utility.yul\":8777:8856   */\n      tag_439\n      tag_298\n      jump\t// in\n    tag_439:\n        /* \"#utility.yul\":8746:8858   */\n    tag_438:\n        /* \"#utility.yul\":8867:8921   */\n      tag_440\n        /* \"#utility.yul\":8914:8920   */\n      dup5\n        /* \"#utility.yul\":8909:8912   */\n      dup3\n        /* \"#utility.yul\":8904:8907   */\n      dup6\n        /* \"#utility.yul\":8867:8921   */\n      tag_303\n      jump\t// in\n    tag_440:\n        /* \"#utility.yul\":8586:8927   */\n      pop\n        /* \"#utility.yul\":8502:8927   */\n      swap4\n      swap3\n      pop\n      pop\n      pop\n      jump\t// out\n        /* \"#utility.yul\":8947:9287   */\n    tag_305:\n        /* \"#utility.yul\":9003:9008   */\n      0x00\n        /* \"#utility.yul\":9052:9055   */\n      dup3\n        /* \"#utility.yul\":9045:9049   */\n      0x1f\n        /* \"#utility.yul\":9037:9043   */\n      dup4\n        /* \"#utility.yul\":9033:9050   */\n      add\n        /* \"#utility.yul\":9029:9056   */\n      slt\n        /* \"#utility.yul\":9019:9141   */\n      tag_442\n      jumpi\n        /* \"#utility.yul\":9060:9139   */\n      tag_443\n      tag_297\n      jump\t// in\n    tag_443:\n        /* \"#utility.yul\":9019:9141   */\n    tag_442:\n        /* \"#utility.yul\":9177:9183   */\n      dup2\n        /* \"#utility.yul\":9164:9184   */\n      calldataload\n        /* \"#utility.yul\":9202:9281   */\n      tag_444\n        /* \"#utility.yul\":9277:9280   */\n      dup5\n        /* \"#utility.yul\":9269:9275   */\n      dup3\n        /* \"#utility.yul\":9262:9266   */\n      0x20\n        /* \"#utility.yul\":9254:9260   */\n      dup7\n        /* \"#utility.yul\":9250:9267   */\n      add\n        /* \"#utility.yul\":9202:9281   */\n      tag_304\n      jump\t// in\n    tag_444:\n        /* \"#utility.yul\":9193:9281   */\n      swap2\n      pop\n        /* \"#utility.yul\":9009:9287   */\n      pop\n        /* \"#utility.yul\":8947:9287   */\n      swap3\n      swap2\n      pop\n      pop\n      jump\t// out\n        /* \"#utility.yul\":9293:9415   */\n    tag_306:\n        /* \"#utility.yul\":9366:9390   */\n      tag_446\n        /* \"#utility.yul\":9384:9389   */\n      dup2\n        /* \"#utility.yul\":9366:9390   */\n      tag_294\n      jump\t// in\n    tag_446:\n        /* \"#utility.yul\":9359:9364   */\n      dup2\n        /* \"#utility.yul\":9356:9391   */\n      eq\n        /* \"#utility.yul\":9346:9409   */\n      tag_447\n      jumpi\n        /* \"#utility.yul\":9405:9406   */\n      0x00\n        /* \"#utility.yul\":9402:9403   */\n      dup1\n        /* \"#utility.yul\":9395:9407   */\n      revert\n        /* \"#utility.yul\":9346:9409   */\n    tag_447:\n        /* \"#utility.yul\":9293:9415   */\n      pop\n      jump\t// out\n        /* \"#utility.yul\":9421:9560   */\n    tag_307:\n        /* \"#utility.yul\":9467:9472   */\n      0x00\n        /* \"#utility.yul\":9505:9511   */\n      dup2\n        /* \"#utility.yul\":9492:9512   */\n      calldataload\n        /* \"#utility.yul\":9483:9512   */\n      swap1\n      pop\n        /* \"#utility.yul\":9521:9554   */\n      tag_449\n        /* \"#utility.yul\":9548:9553   */\n      dup2\n        /* \"#utility.yul\":9521:9554   */\n      tag_306\n      jump\t// in\n    tag_449:\n        /* \"#utility.yul\":9421:9560   */\n      swap3\n      swap2\n      pop\n      pop\n      jump\t// out\n        /* \"#utility.yul\":9566:9682   */\n    tag_308:\n        /* \"#utility.yul\":9636:9657   */\n      tag_451\n        /* \"#utility.yul\":9651:9656   */\n      dup2\n        /* \"#utility.yul\":9636:9657   */\n      tag_291\n      jump\t// in\n    tag_451:\n        /* \"#utility.yul\":9629:9634   */\n      dup2\n        /* \"#utility.yul\":9626:9658   */\n      eq\n        /* \"#utility.yul\":9616:9676   */\n      tag_452\n      jumpi\n        /* \"#utility.yul\":9672:9673   */\n      0x00\n        /* \"#utility.yul\":9669:9670   */\n      dup1\n        /* \"#utility.yul\":9662:9674   */\n      revert\n        /* \"#utility.yul\":9616:9676   */\n    tag_452:\n        /* \"#utility.yul\":9566:9682   */\n      pop\n      jump\t// out\n        /* \"#utility.yul\":9688:9821   */\n    tag_309:\n        /* \"#utility.yul\":9731:9736   */\n      0x00\n        /* \"#utility.yul\":9769:9775   */\n      dup2\n        /* \"#utility.yul\":9756:9776   */\n      calldataload\n        /* \"#utility.yul\":9747:9776   */\n      swap1\n      pop\n        /* \"#utility.yul\":9785:9815   */\n      tag_454\n        /* \"#utility.yul\":9809:9814   */\n      dup2\n        /* \"#utility.yul\":9785:9815   */\n      tag_308\n      jump\t// in\n    tag_454:\n        /* \"#utility.yul\":9688:9821   */\n      swap3\n      swap2\n      pop\n      pop\n      jump\t// out\n        /* \"#utility.yul\":9827:10912   */\n    tag_51:\n        /* \"#utility.yul\":9929:9935   */\n      0x00\n        /* \"#utility.yul\":9937:9943   */\n      dup1\n        /* \"#utility.yul\":9945:9951   */\n      0x00\n        /* \"#utility.yul\":9953:9959   */\n      dup1\n        /* \"#utility.yul\":9961:9967   */\n      0x00\n        /* \"#utility.yul\":10010:10013   */\n      0xa0\n        /* \"#utility.yul\":9998:10007   */\n      dup7\n        /* \"#utility.yul\":9989:9996   */\n      dup9\n        /* \"#utility.yul\":9985:10008   */\n      sub\n        /* \"#utility.yul\":9981:10014   */\n      slt\n        /* \"#utility.yul\":9978:10098   */\n      iszero\n      tag_456\n      jumpi\n        /* \"#utility.yul\":10017:10096   */\n      tag_457\n      tag_271\n      jump\t// in\n    tag_457:\n        /* \"#utility.yul\":9978:10098   */\n    tag_456:\n        /* \"#utility.yul\":10137:10138   */\n      0x00\n        /* \"#utility.yul\":10162:10215   */\n      tag_458\n        /* \"#utility.yul\":10207:10214   */\n      dup9\n        /* \"#utility.yul\":10198:10204   */\n      dup3\n        /* \"#utility.yul\":10187:10196   */\n      dup10\n        /* \"#utility.yul\":10183:10205   */\n      add\n        /* \"#utility.yul\":10162:10215   */\n      tag_275\n      jump\t// in\n    tag_458:\n        /* \"#utility.yul\":10152:10215   */\n      swap6\n      pop\n        /* \"#utility.yul\":10108:10225   */\n      pop\n        /* \"#utility.yul\":10292:10294   */\n      0x20\n        /* \"#utility.yul\":10281:10290   */\n      dup7\n        /* \"#utility.yul\":10277:10295   */\n      add\n        /* \"#utility.yul\":10264:10296   */\n      calldataload\n        /* \"#utility.yul\":10323:10341   */\n      0xffffffffffffffff\n        /* \"#utility.yul\":10315:10321   */\n      dup2\n        /* \"#utility.yul\":10312:10342   */\n      gt\n        /* \"#utility.yul\":10309:10426   */\n      iszero\n      tag_459\n      jumpi\n        /* \"#utility.yul\":10345:10424   */\n      tag_460\n      tag_272\n      jump\t// in\n    tag_460:\n        /* \"#utility.yul\":10309:10426   */\n    tag_459:\n        /* \"#utility.yul\":10450:10513   */\n      tag_461\n        /* \"#utility.yul\":10505:10512   */\n      dup9\n        /* \"#utility.yul\":10496:10502   */\n      dup3\n        /* \"#utility.yul\":10485:10494   */\n      dup10\n        /* \"#utility.yul\":10481:10503   */\n      add\n        /* \"#utility.yul\":10450:10513   */\n      tag_305\n      jump\t// in\n    tag_461:\n        /* \"#utility.yul\":10440:10513   */\n      swap5\n      pop\n        /* \"#utility.yul\":10235:10523   */\n      pop\n        /* \"#utility.yul\":10562:10564   */\n      0x40\n        /* \"#utility.yul\":10588:10641   */\n      tag_462\n        /* \"#utility.yul\":10633:10640   */\n      dup9\n        /* \"#utility.yul\":10624:10630   */\n      dup3\n        /* \"#utility.yul\":10613:10622   */\n      dup10\n        /* \"#utility.yul\":10609:10631   */\n      add\n        /* \"#utility.yul\":10588:10641   */\n      tag_275\n      jump\t// in\n    tag_462:\n        /* \"#utility.yul\":10578:10641   */\n      swap4\n      pop\n        /* \"#utility.yul\":10533:10651   */\n      pop\n        /* \"#utility.yul\":10690:10692   */\n      0x60\n        /* \"#utility.yul\":10716:10769   */\n      tag_463\n        /* \"#utility.yul\":10761:10768   */\n      dup9\n        /* \"#utility.yul\":10752:10758   */\n      dup3\n        /* \"#utility.yul\":10741:10750   */\n      dup10\n        /* \"#utility.yul\":10737:10759   */\n      add\n        /* \"#utility.yul\":10716:10769   */\n      tag_307\n      jump\t// in\n    tag_463:\n        /* \"#utility.yul\":10706:10769   */\n      swap3\n      pop\n        /* \"#utility.yul\":10661:10779   */\n      pop\n        /* \"#utility.yul\":10818:10821   */\n      0x80\n        /* \"#utility.yul\":10845:10895   */\n      tag_464\n        /* \"#utility.yul\":10887:10894   */\n      dup9\n        /* \"#utility.yul\":10878:10884   */\n      dup3\n        /* \"#utility.yul\":10867:10876   */\n      dup10\n        /* \"#utility.yul\":10863:10885   */\n      add\n        /* \"#utility.yul\":10845:10895   */\n      tag_309\n      jump\t// in\n    tag_464:\n        /* \"#utility.yul\":10835:10895   */\n      swap2\n      pop\n        /* \"#utility.yul\":10789:10905   */\n      pop\n        /* \"#utility.yul\":9827:10912   */\n      swap3\n      swap6\n      pop\n      swap3\n      swap6\n      swap1\n      swap4\n      pop\n      jump\t// out\n        /* \"#utility.yul\":10918:11418   */\n    tag_57:\n        /* \"#utility.yul\":10999:11005   */\n      0x00\n        /* \"#utility.yul\":11007:11013   */\n      dup1\n        /* \"#utility.yul\":11056:11058   */\n      0x40\n        /* \"#utility.yul\":11044:11053   */\n      dup4\n        /* \"#utility.yul\":11035:11042   */\n      dup6\n        /* \"#utility.yul\":11031:11054   */\n      sub\n        /* \"#utility.yul\":11027:11059   */\n      slt\n        /* \"#utility.yul\":11024:11143   */\n      iszero\n      tag_466\n      jumpi\n        /* \"#utility.yul\":11062:11141   */\n      tag_467\n      tag_271\n      jump\t// in\n    tag_467:\n        /* \"#utility.yul\":11024:11143   */\n    tag_466:\n        /* \"#utility.yul\":11182:11183   */\n      0x00\n        /* \"#utility.yul\":11207:11273   */\n      tag_468\n        /* \"#utility.yul\":11265:11272   */\n      dup6\n        /* \"#utility.yul\":11256:11262   */\n      dup3\n        /* \"#utility.yul\":11245:11254   */\n      dup7\n        /* \"#utility.yul\":11241:11263   */\n      add\n        /* \"#utility.yul\":11207:11273   */\n      tag_284\n      jump\t// in\n    tag_468:\n        /* \"#utility.yul\":11197:11273   */\n      swap3\n      pop\n        /* \"#utility.yul\":11153:11283   */\n      pop\n        /* \"#utility.yul\":11322:11324   */\n      0x20\n        /* \"#utility.yul\":11348:11401   */\n      tag_469\n        /* \"#utility.yul\":11393:11400   */\n      dup6\n        /* \"#utility.yul\":11384:11390   */\n      dup3\n        /* \"#utility.yul\":11373:11382   */\n      dup7\n        /* \"#utility.yul\":11369:11391   */\n      add\n        /* \"#utility.yul\":11348:11401   */\n      tag_275\n      jump\t// in\n    tag_469:\n        /* \"#utility.yul\":11338:11401   */\n      swap2\n      pop\n        /* \"#utility.yul\":11293:11411   */\n      pop\n        /* \"#utility.yul\":10918:11418   */\n      swap3\n      pop\n      swap3\n      swap1\n      pop\n      jump\t// out\n        /* \"#utility.yul\":11424:11533   */\n    tag_310:\n        /* \"#utility.yul\":11505:11526   */\n      tag_471\n        /* \"#utility.yul\":11520:11525   */\n      dup2\n        /* \"#utility.yul\":11505:11526   */\n      tag_291\n      jump\t// in\n    tag_471:\n        /* \"#utility.yul\":11500:11503   */\n      dup3\n        /* \"#utility.yul\":11493:11527   */\n      mstore\n        /* \"#utility.yul\":11424:11533   */\n      pop\n      pop\n      jump\t// out\n        /* \"#utility.yul\":11539:11749   */\n    tag_60:\n        /* \"#utility.yul\":11626:11630   */\n      0x00\n        /* \"#utility.yul\":11664:11666   */\n      0x20\n        /* \"#utility.yul\":11653:11662   */\n      dup3\n        /* \"#utility.yul\":11649:11667   */\n      add\n        /* \"#utility.yul\":11641:11667   */\n      swap1\n      pop\n        /* \"#utility.yul\":11677:11742   */\n      tag_473\n        /* \"#utility.yul\":11739:11740   */\n      0x00\n        /* \"#utility.yul\":11728:11737   */\n      dup4\n        /* \"#utility.yul\":11724:11741   */\n      add\n        /* \"#utility.yul\":11715:11721   */\n      dup5\n        /* \"#utility.yul\":11677:11742   */\n      tag_310\n      jump\t// in\n    tag_473:\n        /* \"#utility.yul\":11539:11749   */\n      swap3\n      swap2\n      pop\n      pop\n      jump\t// out\n        /* \"#utility.yul\":11755:12520   */\n    tag_63:\n        /* \"#utility.yul\":11841:11847   */\n      0x00\n        /* \"#utility.yul\":11849:11855   */\n      dup1\n        /* \"#utility.yul\":11857:11863   */\n      0x00\n        /* \"#utility.yul\":11865:11871   */\n      dup1\n        /* \"#utility.yul\":11914:11917   */\n      0x80\n        /* \"#utility.yul\":11902:11911   */\n      dup6\n        /* \"#utility.yul\":11893:11900   */\n      dup8\n        /* \"#utility.yul\":11889:11912   */\n      sub\n        /* \"#utility.yul\":11885:11918   */\n      slt\n        /* \"#utility.yul\":11882:12002   */\n      iszero\n      tag_475\n      jumpi\n        /* \"#utility.yul\":11921:12000   */\n      tag_476\n      tag_271\n      jump\t// in\n    tag_476:\n        /* \"#utility.yul\":11882:12002   */\n    tag_475:\n        /* \"#utility.yul\":12041:12042   */\n      0x00\n        /* \"#utility.yul\":12066:12119   */\n      tag_477\n        /* \"#utility.yul\":12111:12118   */\n      dup8\n        /* \"#utility.yul\":12102:12108   */\n      dup3\n        /* \"#utility.yul\":12091:12100   */\n      dup9\n        /* \"#utility.yul\":12087:12109   */\n      add\n        /* \"#utility.yul\":12066:12119   */\n      tag_275\n      jump\t// in\n    tag_477:\n        /* \"#utility.yul\":12056:12119   */\n      swap5\n      pop\n        /* \"#utility.yul\":12012:12129   */\n      pop\n        /* \"#utility.yul\":12168:12170   */\n      0x20\n        /* \"#utility.yul\":12194:12247   */\n      tag_478\n        /* \"#utility.yul\":12239:12246   */\n      dup8\n        /* \"#utility.yul\":12230:12236   */\n      dup3\n        /* \"#utility.yul\":12219:12228   */\n      dup9\n        /* \"#utility.yul\":12215:12237   */\n      add\n        /* \"#utility.yul\":12194:12247   */\n      tag_307\n      jump\t// in\n    tag_478:\n        /* \"#utility.yul\":12184:12247   */\n      swap4\n      pop\n        /* \"#utility.yul\":12139:12257   */\n      pop\n        /* \"#utility.yul\":12296:12298   */\n      0x40\n        /* \"#utility.yul\":12322:12375   */\n      tag_479\n        /* \"#utility.yul\":12367:12374   */\n      dup8\n        /* \"#utility.yul\":12358:12364   */\n      dup3\n        /* \"#utility.yul\":12347:12356   */\n      dup9\n        /* \"#utility.yul\":12343:12365   */\n      add\n        /* \"#utility.yul\":12322:12375   */\n      tag_275\n      jump\t// in\n    tag_479:\n        /* \"#utility.yul\":12312:12375   */\n      swap3\n      pop\n        /* \"#utility.yul\":12267:12385   */\n      pop\n        /* \"#utility.yul\":12424:12426   */\n      0x60\n        /* \"#utility.yul\":12450:12503   */\n      tag_480\n        /* \"#utility.yul\":12495:12502   */\n      dup8\n        /* \"#utility.yul\":12486:12492   */\n      dup3\n        /* \"#utility.yul\":12475:12484   */\n      dup9\n        /* \"#utility.yul\":12471:12493   */\n      add\n        /* \"#utility.yul\":12450:12503   */\n      tag_275\n      jump\t// in\n    tag_480:\n        /* \"#utility.yul\":12440:12503   */\n      swap2\n      pop\n        /* \"#utility.yul\":12395:12513   */\n      pop\n        /* \"#utility.yul\":11755:12520   */\n      swap3\n      swap6\n      swap2\n      swap5\n      pop\n      swap3\n      pop\n      jump\t// out\n        /* \"#utility.yul\":12564:13444   */\n    tag_311:\n        /* \"#utility.yul\":12709:12713   */\n      0x80\n        /* \"#utility.yul\":12704:12707   */\n      dup3\n        /* \"#utility.yul\":12700:12714   */\n      add\n        /* \"#utility.yul\":12797:12801   */\n      0x00\n        /* \"#utility.yul\":12790:12795   */\n      dup3\n        /* \"#utility.yul\":12786:12802   */\n      add\n        /* \"#utility.yul\":12780:12803   */\n      mload\n        /* \"#utility.yul\":12816:12879   */\n      tag_482\n        /* \"#utility.yul\":12873:12877   */\n      0x00\n        /* \"#utility.yul\":12868:12871   */\n      dup6\n        /* \"#utility.yul\":12864:12878   */\n      add\n        /* \"#utility.yul\":12850:12862   */\n      dup3\n        /* \"#utility.yul\":12816:12879   */\n      tag_295\n      jump\t// in\n    tag_482:\n        /* \"#utility.yul\":12724:12889   */\n      pop\n        /* \"#utility.yul\":12978:12982   */\n      0x20\n        /* \"#utility.yul\":12971:12976   */\n      dup3\n        /* \"#utility.yul\":12967:12983   */\n      add\n        /* \"#utility.yul\":12961:12984   */\n      mload\n        /* \"#utility.yul\":12997:13060   */\n      tag_483\n        /* \"#utility.yul\":13054:13058   */\n      0x20\n        /* \"#utility.yul\":13049:13052   */\n      dup6\n        /* \"#utility.yul\":13045:13059   */\n      add\n        /* \"#utility.yul\":13031:13043   */\n      dup3\n        /* \"#utility.yul\":12997:13060   */\n      tag_279\n      jump\t// in\n    tag_483:\n        /* \"#utility.yul\":12899:13070   */\n      pop\n        /* \"#utility.yul\":13164:13168   */\n      0x40\n        /* \"#utility.yul\":13157:13162   */\n      dup3\n        /* \"#utility.yul\":13153:13169   */\n      add\n        /* \"#utility.yul\":13147:13170   */\n      mload\n        /* \"#utility.yul\":13183:13246   */\n      tag_484\n        /* \"#utility.yul\":13240:13244   */\n      0x40\n        /* \"#utility.yul\":13235:13238   */\n      dup6\n        /* \"#utility.yul\":13231:13245   */\n      add\n        /* \"#utility.yul\":13217:13229   */\n      dup3\n        /* \"#utility.yul\":13183:13246   */\n      tag_279\n      jump\t// in\n    tag_484:\n        /* \"#utility.yul\":13080:13256   */\n      pop\n        /* \"#utility.yul\":13345:13349   */\n      0x60\n        /* \"#utility.yul\":13338:13343   */\n      dup3\n        /* \"#utility.yul\":13334:13350   */\n      add\n        /* \"#utility.yul\":13328:13351   */\n      mload\n        /* \"#utility.yul\":13364:13427   */\n      tag_485\n        /* \"#utility.yul\":13421:13425   */\n      0x60\n        /* \"#utility.yul\":13416:13419   */\n      dup6\n        /* \"#utility.yul\":13412:13426   */\n      add\n        /* \"#utility.yul\":13398:13410   */\n      dup3\n        /* \"#utility.yul\":13364:13427   */\n      tag_279\n      jump\t// in\n    tag_485:\n        /* \"#utility.yul\":13266:13437   */\n      pop\n        /* \"#utility.yul\":12678:13444   */\n      pop\n        /* \"#utility.yul\":12564:13444   */\n      pop\n      pop\n      jump\t// out\n        /* \"#utility.yul\":13450:13769   */\n    tag_66:\n        /* \"#utility.yul\":13591:13595   */\n      0x00\n        /* \"#utility.yul\":13629:13632   */\n      0x80\n        /* \"#utility.yul\":13618:13627   */\n      dup3\n        /* \"#utility.yul\":13614:13633   */\n      add\n        /* \"#utility.yul\":13606:13633   */\n      swap1\n      pop\n        /* \"#utility.yul\":13643:13762   */\n      tag_487\n        /* \"#utility.yul\":13759:13760   */\n      0x00\n        /* \"#utility.yul\":13748:13757   */\n      dup4\n        /* \"#utility.yul\":13744:13761   */\n      add\n        /* \"#utility.yul\":13735:13741   */\n      dup5\n        /* \"#utility.yul\":13643:13762   */\n      tag_311\n      jump\t// in\n    tag_487:\n        /* \"#utility.yul\":13450:13769   */\n      swap3\n      swap2\n      pop\n      pop\n      jump\t// out\n        /* \"#utility.yul\":13775:14086   */\n    tag_312:\n        /* \"#utility.yul\":13852:13856   */\n      0x00\n        /* \"#utility.yul\":13942:13960   */\n      0xffffffffffffffff\n        /* \"#utility.yul\":13934:13940   */\n      dup3\n        /* \"#utility.yul\":13931:13961   */\n      gt\n        /* \"#utility.yul\":13928:13984   */\n      iszero\n      tag_489\n      jumpi\n        /* \"#utility.yul\":13964:13982   */\n      tag_490\n      tag_299\n      jump\t// in\n    tag_490:\n        /* \"#utility.yul\":13928:13984   */\n    tag_489:\n        /* \"#utility.yul\":14014:14018   */\n      0x20\n        /* \"#utility.yul\":14006:14012   */\n      dup3\n        /* \"#utility.yul\":14002:14019   */\n      mul\n        /* \"#utility.yul\":13994:14019   */\n      swap1\n      pop\n        /* \"#utility.yul\":14074:14078   */\n      0x20\n        /* \"#utility.yul\":14068:14072   */\n      dup2\n        /* \"#utility.yul\":14064:14079   */\n      add\n        /* \"#utility.yul\":14056:14079   */\n      swap1\n      pop\n        /* \"#utility.yul\":13775:14086   */\n      swap2\n      swap1\n      pop\n      jump\t// out\n        /* \"#utility.yul\":14092:14209   */\n    tag_313:\n        /* \"#utility.yul\":14201:14202   */\n      0x00\n        /* \"#utility.yul\":14198:14199   */\n      dup1\n        /* \"#utility.yul\":14191:14203   */\n      revert\n        /* \"#utility.yul\":14232:14942   */\n    tag_314:\n        /* \"#utility.yul\":14328:14333   */\n      0x00\n        /* \"#utility.yul\":14353:14434   */\n      tag_493\n        /* \"#utility.yul\":14369:14433   */\n      tag_494\n        /* \"#utility.yul\":14426:14432   */\n      dup5\n        /* \"#utility.yul\":14369:14433   */\n      tag_312\n      jump\t// in\n    tag_494:\n        /* \"#utility.yul\":14353:14434   */\n      tag_301\n      jump\t// in\n    tag_493:\n        /* \"#utility.yul\":14344:14434   */\n      swap1\n      pop\n        /* \"#utility.yul\":14454:14459   */\n      dup1\n        /* \"#utility.yul\":14483:14489   */\n      dup4\n        /* \"#utility.yul\":14476:14481   */\n      dup3\n        /* \"#utility.yul\":14469:14490   */\n      mstore\n        /* \"#utility.yul\":14517:14521   */\n      0x20\n        /* \"#utility.yul\":14510:14515   */\n      dup3\n        /* \"#utility.yul\":14506:14522   */\n      add\n        /* \"#utility.yul\":14499:14522   */\n      swap1\n      pop\n        /* \"#utility.yul\":14570:14574   */\n      0x20\n        /* \"#utility.yul\":14562:14568   */\n      dup5\n        /* \"#utility.yul\":14558:14575   */\n      mul\n        /* \"#utility.yul\":14550:14556   */\n      dup4\n        /* \"#utility.yul\":14546:14576   */\n      add\n        /* \"#utility.yul\":14599:14602   */\n      dup6\n        /* \"#utility.yul\":14591:14597   */\n      dup2\n        /* \"#utility.yul\":14588:14603   */\n      gt\n        /* \"#utility.yul\":14585:14707   */\n      iszero\n      tag_495\n      jumpi\n        /* \"#utility.yul\":14618:14697   */\n      tag_496\n      tag_313\n      jump\t// in\n    tag_496:\n        /* \"#utility.yul\":14585:14707   */\n    tag_495:\n        /* \"#utility.yul\":14733:14739   */\n      dup4\n        /* \"#utility.yul\":14716:14936   */\n    tag_497:\n        /* \"#utility.yul\":14750:14756   */\n      dup2\n        /* \"#utility.yul\":14745:14748   */\n      dup2\n        /* \"#utility.yul\":14742:14757   */\n      lt\n        /* \"#utility.yul\":14716:14936   */\n      iszero\n      tag_499\n      jumpi\n        /* \"#utility.yul\":14825:14828   */\n      dup1\n        /* \"#utility.yul\":14854:14891   */\n      tag_500\n        /* \"#utility.yul\":14887:14890   */\n      dup9\n        /* \"#utility.yul\":14875:14885   */\n      dup3\n        /* \"#utility.yul\":14854:14891   */\n      tag_275\n      jump\t// in\n    tag_500:\n        /* \"#utility.yul\":14849:14852   */\n      dup5\n        /* \"#utility.yul\":14842:14892   */\n      mstore\n        /* \"#utility.yul\":14921:14925   */\n      0x20\n        /* \"#utility.yul\":14916:14919   */\n      dup5\n        /* \"#utility.yul\":14912:14926   */\n      add\n        /* \"#utility.yul\":14905:14926   */\n      swap4\n      pop\n        /* \"#utility.yul\":14792:14936   */\n      pop\n        /* \"#utility.yul\":14776:14780   */\n      0x20\n        /* \"#utility.yul\":14771:14774   */\n      dup2\n        /* \"#utility.yul\":14767:14781   */\n      add\n        /* \"#utility.yul\":14760:14781   */\n      swap1\n      pop\n        /* \"#utility.yul\":14716:14936   */\n      jump(tag_497)\n    tag_499:\n        /* \"#utility.yul\":14720:14741   */\n      pop\n        /* \"#utility.yul\":14334:14942   */\n      pop\n      pop\n        /* \"#utility.yul\":14232:14942   */\n      swap4\n      swap3\n      pop\n      pop\n      pop\n      jump\t// out\n        /* \"#utility.yul\":14965:15335   */\n    tag_315:\n        /* \"#utility.yul\":15036:15041   */\n      0x00\n        /* \"#utility.yul\":15085:15088   */\n      dup3\n        /* \"#utility.yul\":15078:15082   */\n      0x1f\n        /* \"#utility.yul\":15070:15076   */\n      dup4\n        /* \"#utility.yul\":15066:15083   */\n      add\n        /* \"#utility.yul\":15062:15089   */\n      slt\n        /* \"#utility.yul\":15052:15174   */\n      tag_502\n      jumpi\n        /* \"#utility.yul\":15093:15172   */\n      tag_503\n      tag_297\n      jump\t// in\n    tag_503:\n        /* \"#utility.yul\":15052:15174   */\n    tag_502:\n        /* \"#utility.yul\":15210:15216   */\n      dup2\n        /* \"#utility.yul\":15197:15217   */\n      calldataload\n        /* \"#utility.yul\":15235:15329   */\n      tag_504\n        /* \"#utility.yul\":15325:15328   */\n      dup5\n        /* \"#utility.yul\":15317:15323   */\n      dup3\n        /* \"#utility.yul\":15310:15314   */\n      0x20\n        /* \"#utility.yul\":15302:15308   */\n      dup7\n        /* \"#utility.yul\":15298:15315   */\n      add\n        /* \"#utility.yul\":15235:15329   */\n      tag_314\n      jump\t// in\n    tag_504:\n        /* \"#utility.yul\":15226:15329   */\n      swap2\n      pop\n        /* \"#utility.yul\":15042:15335   */\n      pop\n        /* \"#utility.yul\":14965:15335   */\n      swap3\n      swap2\n      pop\n      pop\n      jump\t// out\n        /* \"#utility.yul\":15341:16025   */\n    tag_70:\n        /* \"#utility.yul\":15434:15440   */\n      0x00\n        /* \"#utility.yul\":15442:15448   */\n      dup1\n        /* \"#utility.yul\":15491:15493   */\n      0x40\n        /* \"#utility.yul\":15479:15488   */\n      dup4\n        /* \"#utility.yul\":15470:15477   */\n      dup6\n        /* \"#utility.yul\":15466:15489   */\n      sub\n        /* \"#utility.yul\":15462:15494   */\n      slt\n        /* \"#utility.yul\":15459:15578   */\n      iszero\n      tag_506\n      jumpi\n        /* \"#utility.yul\":15497:15576   */\n      tag_507\n      tag_271\n      jump\t// in\n    tag_507:\n        /* \"#utility.yul\":15459:15578   */\n    tag_506:\n        /* \"#utility.yul\":15617:15618   */\n      0x00\n        /* \"#utility.yul\":15642:15695   */\n      tag_508\n        /* \"#utility.yul\":15687:15694   */\n      dup6\n        /* \"#utility.yul\":15678:15684   */\n      dup3\n        /* \"#utility.yul\":15667:15676   */\n      dup7\n        /* \"#utility.yul\":15663:15685   */\n      add\n        /* \"#utility.yul\":15642:15695   */\n      tag_275\n      jump\t// in\n    tag_508:\n        /* \"#utility.yul\":15632:15695   */\n      swap3\n      pop\n        /* \"#utility.yul\":15588:15705   */\n      pop\n        /* \"#utility.yul\":15772:15774   */\n      0x20\n        /* \"#utility.yul\":15761:15770   */\n      dup4\n        /* \"#utility.yul\":15757:15775   */\n      add\n        /* \"#utility.yul\":15744:15776   */\n      calldataload\n        /* \"#utility.yul\":15803:15821   */\n      0xffffffffffffffff\n        /* \"#utility.yul\":15795:15801   */\n      dup2\n        /* \"#utility.yul\":15792:15822   */\n      gt\n        /* \"#utility.yul\":15789:15906   */\n      iszero\n      tag_509\n      jumpi\n        /* \"#utility.yul\":15825:15904   */\n      tag_510\n      tag_272\n      jump\t// in\n    tag_510:\n        /* \"#utility.yul\":15789:15906   */\n    tag_509:\n        /* \"#utility.yul\":15930:16008   */\n      tag_511\n        /* \"#utility.yul\":16000:16007   */\n      dup6\n        /* \"#utility.yul\":15991:15997   */\n      dup3\n        /* \"#utility.yul\":15980:15989   */\n      dup7\n        /* \"#utility.yul\":15976:15998   */\n      add\n        /* \"#utility.yul\":15930:16008   */\n      tag_315\n      jump\t// in\n    tag_511:\n        /* \"#utility.yul\":15920:16008   */\n      swap2\n      pop\n        /* \"#utility.yul\":15715:16018   */\n      pop\n        /* \"#utility.yul\":15341:16025   */\n      swap3\n      pop\n      swap3\n      swap1\n      pop\n      jump\t// out\n        /* \"#utility.yul\":16031:16149   */\n    tag_316:\n        /* \"#utility.yul\":16118:16142   */\n      tag_513\n        /* \"#utility.yul\":16136:16141   */\n      dup2\n        /* \"#utility.yul\":16118:16142   */\n      tag_294\n      jump\t// in\n    tag_513:\n        /* \"#utility.yul\":16113:16116   */\n      dup3\n        /* \"#utility.yul\":16106:16143   */\n      mstore\n        /* \"#utility.yul\":16031:16149   */\n      pop\n      pop\n      jump\t// out\n        /* \"#utility.yul\":16155:16377   */\n    tag_77:\n        /* \"#utility.yul\":16248:16252   */\n      0x00\n        /* \"#utility.yul\":16286:16288   */\n      0x20\n        /* \"#utility.yul\":16275:16284   */\n      dup3\n        /* \"#utility.yul\":16271:16289   */\n      add\n        /* \"#utility.yul\":16263:16289   */\n      swap1\n      pop\n        /* \"#utility.yul\":16299:16370   */\n      tag_515\n        /* \"#utility.yul\":16367:16368   */\n      0x00\n        /* \"#utility.yul\":16356:16365   */\n      dup4\n        /* \"#utility.yul\":16352:16369   */\n      add\n        /* \"#utility.yul\":16343:16349   */\n      dup5\n        /* \"#utility.yul\":16299:16370   */\n      tag_316\n      jump\t// in\n    tag_515:\n        /* \"#utility.yul\":16155:16377   */\n      swap3\n      swap2\n      pop\n      pop\n      jump\t// out\n        /* \"#utility.yul\":16383:17063   */\n    tag_85:\n        /* \"#utility.yul\":16474:16480   */\n      0x00\n        /* \"#utility.yul\":16482:16488   */\n      dup1\n        /* \"#utility.yul\":16531:16533   */\n      0x40\n        /* \"#utility.yul\":16519:16528   */\n      dup4\n        /* \"#utility.yul\":16510:16517   */\n      dup6\n        /* \"#utility.yul\":16506:16529   */\n      sub\n        /* \"#utility.yul\":16502:16534   */\n      slt\n        /* \"#utility.yul\":16499:16618   */\n      iszero\n      tag_517\n      jumpi\n        /* \"#utility.yul\":16537:16616   */\n      tag_518\n      tag_271\n      jump\t// in\n    tag_518:\n        /* \"#utility.yul\":16499:16618   */\n    tag_517:\n        /* \"#utility.yul\":16685:16686   */\n      0x00\n        /* \"#utility.yul\":16674:16683   */\n      dup4\n        /* \"#utility.yul\":16670:16687   */\n      add\n        /* \"#utility.yul\":16657:16688   */\n      calldataload\n        /* \"#utility.yul\":16715:16733   */\n      0xffffffffffffffff\n        /* \"#utility.yul\":16707:16713   */\n      dup2\n        /* \"#utility.yul\":16704:16734   */\n      gt\n        /* \"#utility.yul\":16701:16818   */\n      iszero\n      tag_519\n      jumpi\n        /* \"#utility.yul\":16737:16816   */\n      tag_520\n      tag_272\n      jump\t// in\n    tag_520:\n        /* \"#utility.yul\":16701:16818   */\n    tag_519:\n        /* \"#utility.yul\":16842:16905   */\n      tag_521\n        /* \"#utility.yul\":16897:16904   */\n      dup6\n        /* \"#utility.yul\":16888:16894   */\n      dup3\n        /* \"#utility.yul\":16877:16886   */\n      dup7\n        /* \"#utility.yul\":16873:16895   */\n      add\n        /* \"#utility.yul\":16842:16905   */\n      tag_305\n      jump\t// in\n    tag_521:\n        /* \"#utility.yul\":16832:16905   */\n      swap3\n      pop\n        /* \"#utility.yul\":16628:16915   */\n      pop\n        /* \"#utility.yul\":16954:16956   */\n      0x20\n        /* \"#utility.yul\":16980:17046   */\n      tag_522\n        /* \"#utility.yul\":17038:17045   */\n      dup6\n        /* \"#utility.yul\":17029:17035   */\n      dup3\n        /* \"#utility.yul\":17018:17027   */\n      dup7\n        /* \"#utility.yul\":17014:17036   */\n      add\n        /* \"#utility.yul\":16980:17046   */\n      tag_284\n      jump\t// in\n    tag_522:\n        /* \"#utility.yul\":16970:17046   */\n      swap2\n      pop\n        /* \"#utility.yul\":16925:17056   */\n      pop\n        /* \"#utility.yul\":16383:17063   */\n      swap3\n      pop\n      swap3\n      swap1\n      pop\n      jump\t// out\n        /* \"#utility.yul\":17113:18258   */\n    tag_317:\n        /* \"#utility.yul\":17236:17239   */\n      0x00\n        /* \"#utility.yul\":17272:17276   */\n      0xa0\n        /* \"#utility.yul\":17267:17270   */\n      dup4\n        /* \"#utility.yul\":17263:17277   */\n      add\n        /* \"#utility.yul\":17357:17361   */\n      0x00\n        /* \"#utility.yul\":17350:17355   */\n      dup4\n        /* \"#utility.yul\":17346:17362   */\n      add\n        /* \"#utility.yul\":17340:17363   */\n      mload\n        /* \"#utility.yul\":17376:17439   */\n      tag_524\n        /* \"#utility.yul\":17433:17437   */\n      0x00\n        /* \"#utility.yul\":17428:17431   */\n      dup7\n        /* \"#utility.yul\":17424:17438   */\n      add\n        /* \"#utility.yul\":17410:17422   */\n      dup3\n        /* \"#utility.yul\":17376:17439   */\n      tag_279\n      jump\t// in\n    tag_524:\n        /* \"#utility.yul\":17287:17449   */\n      pop\n        /* \"#utility.yul\":17536:17540   */\n      0x20\n        /* \"#utility.yul\":17529:17534   */\n      dup4\n        /* \"#utility.yul\":17525:17541   */\n      add\n        /* \"#utility.yul\":17519:17542   */\n      mload\n        /* \"#utility.yul\":17589:17592   */\n      dup5\n        /* \"#utility.yul\":17583:17587   */\n      dup3\n        /* \"#utility.yul\":17579:17593   */\n      sub\n        /* \"#utility.yul\":17572:17576   */\n      0x20\n        /* \"#utility.yul\":17567:17570   */\n      dup7\n        /* \"#utility.yul\":17563:17577   */\n      add\n        /* \"#utility.yul\":17556:17594   */\n      mstore\n        /* \"#utility.yul\":17615:17688   */\n      tag_525\n        /* \"#utility.yul\":17683:17687   */\n      dup3\n        /* \"#utility.yul\":17669:17681   */\n      dup3\n        /* \"#utility.yul\":17615:17688   */\n      tag_290\n      jump\t// in\n    tag_525:\n        /* \"#utility.yul\":17607:17688   */\n      swap2\n      pop\n        /* \"#utility.yul\":17459:17699   */\n      pop\n        /* \"#utility.yul\":17784:17788   */\n      0x40\n        /* \"#utility.yul\":17777:17782   */\n      dup4\n        /* \"#utility.yul\":17773:17789   */\n      add\n        /* \"#utility.yul\":17767:17790   */\n      mload\n        /* \"#utility.yul\":17803:17866   */\n      tag_526\n        /* \"#utility.yul\":17860:17864   */\n      0x40\n        /* \"#utility.yul\":17855:17858   */\n      dup7\n        /* \"#utility.yul\":17851:17865   */\n      add\n        /* \"#utility.yul\":17837:17849   */\n      dup3\n        /* \"#utility.yul\":17803:17866   */\n      tag_279\n      jump\t// in\n    tag_526:\n        /* \"#utility.yul\":17709:17876   */\n      pop\n        /* \"#utility.yul\":17967:17971   */\n      0x60\n        /* \"#utility.yul\":17960:17965   */\n      dup4\n        /* \"#utility.yul\":17956:17972   */\n      add\n        /* \"#utility.yul\":17950:17973   */\n      mload\n        /* \"#utility.yul\":17986:18049   */\n      tag_527\n        /* \"#utility.yul\":18043:18047   */\n      0x60\n        /* \"#utility.yul\":18038:18041   */\n      dup7\n        /* \"#utility.yul\":18034:18048   */\n      add\n        /* \"#utility.yul\":18020:18032   */\n      dup3\n        /* \"#utility.yul\":17986:18049   */\n      tag_295\n      jump\t// in\n    tag_527:\n        /* \"#utility.yul\":17886:18059   */\n      pop\n        /* \"#utility.yul\":18145:18149   */\n      0x80\n        /* \"#utility.yul\":18138:18143   */\n      dup4\n        /* \"#utility.yul\":18134:18150   */\n      add\n        /* \"#utility.yul\":18128:18151   */\n      mload\n        /* \"#utility.yul\":18164:18221   */\n      tag_528\n        /* \"#utility.yul\":18215:18219   */\n      0x80\n        /* \"#utility.yul\":18210:18213   */\n      dup7\n        /* \"#utility.yul\":18206:18220   */\n      add\n        /* \"#utility.yul\":18192:18204   */\n      dup3\n        /* \"#utility.yul\":18164:18221   */\n      tag_292\n      jump\t// in\n    tag_528:\n        /* \"#utility.yul\":18069:18231   */\n      pop\n        /* \"#utility.yul\":18248:18252   */\n      dup1\n        /* \"#utility.yul\":18241:18252   */\n      swap2\n      pop\n        /* \"#utility.yul\":17241:18258   */\n      pop\n        /* \"#utility.yul\":17113:18258   */\n      swap3\n      swap2\n      pop\n      pop\n      jump\t// out\n        /* \"#utility.yul\":18264:18645   */\n    tag_103:\n        /* \"#utility.yul\":18411:18415   */\n      0x00\n        /* \"#utility.yul\":18449:18451   */\n      0x20\n        /* \"#utility.yul\":18438:18447   */\n      dup3\n        /* \"#utility.yul\":18434:18452   */\n      add\n        /* \"#utility.yul\":18426:18452   */\n      swap1\n      pop\n        /* \"#utility.yul\":18498:18507   */\n      dup2\n        /* \"#utility.yul\":18492:18496   */\n      dup2\n        /* \"#utility.yul\":18488:18508   */\n      sub\n        /* \"#utility.yul\":18484:18485   */\n      0x00\n        /* \"#utility.yul\":18473:18482   */\n      dup4\n        /* \"#utility.yul\":18469:18486   */\n      add\n        /* \"#utility.yul\":18462:18509   */\n      mstore\n        /* \"#utility.yul\":18526:18638   */\n      tag_530\n        /* \"#utility.yul\":18633:18637   */\n      dup2\n        /* \"#utility.yul\":18624:18630   */\n      dup5\n        /* \"#utility.yul\":18526:18638   */\n      tag_317\n      jump\t// in\n    tag_530:\n        /* \"#utility.yul\":18518:18638   */\n      swap1\n      pop\n        /* \"#utility.yul\":18264:18645   */\n      swap3\n      swap2\n      pop\n      pop\n      jump\t// out\n        /* \"#utility.yul\":18651:18831   */\n    tag_110:\n        /* \"#utility.yul\":18699:18776   */\n      0x4e487b7100000000000000000000000000000000000000000000000000000000\n        /* \"#utility.yul\":18696:18697   */\n      0x00\n        /* \"#utility.yul\":18689:18777   */\n      mstore\n        /* \"#utility.yul\":18796:18800   */\n      0x21\n        /* \"#utility.yul\":18793:18794   */\n      0x04\n        /* \"#utility.yul\":18786:18801   */\n      mstore\n        /* \"#utility.yul\":18820:18824   */\n      0x24\n        /* \"#utility.yul\":18817:18818   */\n      0x00\n        /* \"#utility.yul\":18810:18825   */\n      revert\n        /* \"#utility.yul\":18837:19006   */\n    tag_318:\n        /* \"#utility.yul\":18921:18932   */\n      0x00\n        /* \"#utility.yul\":18955:18961   */\n      dup3\n        /* \"#utility.yul\":18950:18953   */\n      dup3\n        /* \"#utility.yul\":18943:18962   */\n      mstore\n        /* \"#utility.yul\":18995:18999   */\n      0x20\n        /* \"#utility.yul\":18990:18993   */\n      dup3\n        /* \"#utility.yul\":18986:19000   */\n      add\n        /* \"#utility.yul\":18971:19000   */\n      swap1\n      pop\n        /* \"#utility.yul\":18837:19006   */\n      swap3\n      swap2\n      pop\n      pop\n      jump\t// out\n        /* \"#utility.yul\":19012:19176   */\n    tag_319:\n        /* \"#utility.yul\":19152:19168   */\n      0x6a6f62206f776e6572206f6e6c79000000000000000000000000000000000000\n        /* \"#utility.yul\":19148:19149   */\n      0x00\n        /* \"#utility.yul\":19140:19146   */\n      dup3\n        /* \"#utility.yul\":19136:19150   */\n      add\n        /* \"#utility.yul\":19129:19169   */\n      mstore\n        /* \"#utility.yul\":19012:19176   */\n      pop\n      jump\t// out\n        /* \"#utility.yul\":19182:19548   */\n    tag_320:\n        /* \"#utility.yul\":19324:19327   */\n      0x00\n        /* \"#utility.yul\":19345:19412   */\n      tag_535\n        /* \"#utility.yul\":19409:19411   */\n      0x0e\n        /* \"#utility.yul\":19404:19407   */\n      dup4\n        /* \"#utility.yul\":19345:19412   */\n      tag_318\n      jump\t// in\n    tag_535:\n        /* \"#utility.yul\":19338:19412   */\n      swap2\n      pop\n        /* \"#utility.yul\":19421:19514   */\n      tag_536\n        /* \"#utility.yul\":19510:19513   */\n      dup3\n        /* \"#utility.yul\":19421:19514   */\n      tag_319\n      jump\t// in\n    tag_536:\n        /* \"#utility.yul\":19539:19541   */\n      0x20\n        /* \"#utility.yul\":19534:19537   */\n      dup3\n        /* \"#utility.yul\":19530:19542   */\n      add\n        /* \"#utility.yul\":19523:19542   */\n      swap1\n      pop\n        /* \"#utility.yul\":19182:19548   */\n      swap2\n      swap1\n      pop\n      jump\t// out\n        /* \"#utility.yul\":19554:19973   */\n    tag_121:\n        /* \"#utility.yul\":19720:19724   */\n      0x00\n        /* \"#utility.yul\":19758:19760   */\n      0x20\n        /* \"#utility.yul\":19747:19756   */\n      dup3\n        /* \"#utility.yul\":19743:19761   */\n      add\n        /* \"#utility.yul\":19735:19761   */\n      swap1\n      pop\n        /* \"#utility.yul\":19807:19816   */\n      dup2\n        /* \"#utility.yul\":19801:19805   */\n      dup2\n        /* \"#utility.yul\":19797:19817   */\n      sub\n        /* \"#utility.yul\":19793:19794   */\n      0x00\n        /* \"#utility.yul\":19782:19791   */\n      dup4\n        /* \"#utility.yul\":19778:19795   */\n      add\n        /* \"#utility.yul\":19771:19818   */\n      mstore\n        /* \"#utility.yul\":19835:19966   */\n      tag_538\n        /* \"#utility.yul\":19961:19965   */\n      dup2\n        /* \"#utility.yul\":19835:19966   */\n      tag_320\n      jump\t// in\n    tag_538:\n        /* \"#utility.yul\":19827:19966   */\n      swap1\n      pop\n        /* \"#utility.yul\":19554:19973   */\n      swap2\n      swap1\n      pop\n      jump\t// out\n        /* \"#utility.yul\":19979:20159   */\n    tag_321:\n        /* \"#utility.yul\":20027:20104   */\n      0x4e487b7100000000000000000000000000000000000000000000000000000000\n        /* \"#utility.yul\":20024:20025   */\n      0x00\n        /* \"#utility.yul\":20017:20105   */\n      mstore\n        /* \"#utility.yul\":20124:20128   */\n      0x22\n        /* \"#utility.yul\":20121:20122   */\n      0x04\n        /* \"#utility.yul\":20114:20129   */\n      mstore\n        /* \"#utility.yul\":20148:20152   */\n      0x24\n        /* \"#utility.yul\":20145:20146   */\n      0x00\n        /* \"#utility.yul\":20138:20153   */\n      revert\n        /* \"#utility.yul\":20165:20485   */\n    tag_123:\n        /* \"#utility.yul\":20209:20215   */\n      0x00\n        /* \"#utility.yul\":20246:20247   */\n      0x02\n        /* \"#utility.yul\":20240:20244   */\n      dup3\n        /* \"#utility.yul\":20236:20248   */\n      div\n        /* \"#utility.yul\":20226:20248   */\n      swap1\n      pop\n        /* \"#utility.yul\":20293:20294   */\n      0x01\n        /* \"#utility.yul\":20287:20291   */\n      dup3\n        /* \"#utility.yul\":20283:20295   */\n      and\n        /* \"#utility.yul\":20314:20332   */\n      dup1\n        /* \"#utility.yul\":20304:20385   */\n      tag_541\n      jumpi\n        /* \"#utility.yul\":20370:20374   */\n      0x7f\n        /* \"#utility.yul\":20362:20368   */\n      dup3\n        /* \"#utility.yul\":20358:20375   */\n      and\n        /* \"#utility.yul\":20348:20375   */\n      swap2\n      pop\n        /* \"#utility.yul\":20304:20385   */\n    tag_541:\n        /* \"#utility.yul\":20432:20434   */\n      0x20\n        /* \"#utility.yul\":20424:20430   */\n      dup3\n        /* \"#utility.yul\":20421:20435   */\n      lt\n        /* \"#utility.yul\":20401:20419   */\n      dup2\n        /* \"#utility.yul\":20398:20436   */\n      sub\n        /* \"#utility.yul\":20395:20479   */\n      tag_542\n      jumpi\n        /* \"#utility.yul\":20451:20469   */\n      tag_543\n      tag_321\n      jump\t// in\n    tag_543:\n        /* \"#utility.yul\":20395:20479   */\n    tag_542:\n        /* \"#utility.yul\":20216:20485   */\n      pop\n        /* \"#utility.yul\":20165:20485   */\n      swap2\n      swap1\n      pop\n      jump\t// out\n        /* \"#utility.yul\":20491:20656   */\n    tag_322:\n        /* \"#utility.yul\":20631:20648   */\n      0x6a6f6220756e617661696c61626c650000000000000000000000000000000000\n        /* \"#utility.yul\":20627:20628   */\n      0x00\n        /* \"#utility.yul\":20619:20625   */\n      dup3\n        /* \"#utility.yul\":20615:20629   */\n      add\n        /* \"#utility.yul\":20608:20649   */\n      mstore\n        /* \"#utility.yul\":20491:20656   */\n      pop\n      jump\t// out\n        /* \"#utility.yul\":20662:21028   */\n    tag_323:\n        /* \"#utility.yul\":20804:20807   */\n      0x00\n        /* \"#utility.yul\":20825:20892   */\n      tag_546\n        /* \"#utility.yul\":20889:20891   */\n      0x0f\n        /* \"#utility.yul\":20884:20887   */\n      dup4\n        /* \"#utility.yul\":20825:20892   */\n      tag_318\n      jump\t// in\n    tag_546:\n        /* \"#utility.yul\":20818:20892   */\n      swap2\n      pop\n        /* \"#utility.yul\":20901:20994   */\n      tag_547\n        /* \"#utility.yul\":20990:20993   */\n      dup3\n        /* \"#utility.yul\":20901:20994   */\n      tag_322\n      jump\t// in\n    tag_547:\n        /* \"#utility.yul\":21019:21021   */\n      0x20\n        /* \"#utility.yul\":21014:21017   */\n      dup3\n        /* \"#utility.yul\":21010:21022   */\n      add\n        /* \"#utility.yul\":21003:21022   */\n      swap1\n      pop\n        /* \"#utility.yul\":20662:21028   */\n      swap2\n      swap1\n      pop\n      jump\t// out\n        /* \"#utility.yul\":21034:21453   */\n    tag_134:\n        /* \"#utility.yul\":21200:21204   */\n      0x00\n        /* \"#utility.yul\":21238:21240   */\n      0x20\n        /* \"#utility.yul\":21227:21236   */\n      dup3\n        /* \"#utility.yul\":21223:21241   */\n      add\n        /* \"#utility.yul\":21215:21241   */\n      swap1\n      pop\n        /* \"#utility.yul\":21287:21296   */\n      dup2\n        /* \"#utility.yul\":21281:21285   */\n      dup2\n        /* \"#utility.yul\":21277:21297   */\n      sub\n        /* \"#utility.yul\":21273:21274   */\n      0x00\n        /* \"#utility.yul\":21262:21271   */\n      dup4\n        /* \"#utility.yul\":21258:21275   */\n      add\n        /* \"#utility.yul\":21251:21298   */\n      mstore\n        /* \"#utility.yul\":21315:21446   */\n      tag_549\n        /* \"#utility.yul\":21441:21445   */\n      dup2\n        /* \"#utility.yul\":21315:21446   */\n      tag_323\n      jump\t// in\n    tag_549:\n        /* \"#utility.yul\":21307:21446   */\n      swap1\n      pop\n        /* \"#utility.yul\":21034:21453   */\n      swap2\n      swap1\n      pop\n      jump\t// out\n        /* \"#utility.yul\":21459:21600   */\n    tag_324:\n        /* \"#utility.yul\":21508:21512   */\n      0x00\n        /* \"#utility.yul\":21531:21534   */\n      dup2\n        /* \"#utility.yul\":21523:21534   */\n      swap1\n      pop\n        /* \"#utility.yul\":21554:21557   */\n      dup2\n        /* \"#utility.yul\":21551:21552   */\n      0x00\n        /* \"#utility.yul\":21544:21558   */\n      mstore\n        /* \"#utility.yul\":21588:21592   */\n      0x20\n        /* \"#utility.yul\":21585:21586   */\n      0x00\n        /* \"#utility.yul\":21575:21593   */\n      keccak256\n        /* \"#utility.yul\":21567:21593   */\n      swap1\n      pop\n        /* \"#utility.yul\":21459:21600   */\n      swap2\n      swap1\n      pop\n      jump\t// out\n        /* \"#utility.yul\":21606:21699   */\n    tag_325:\n        /* \"#utility.yul\":21643:21649   */\n      0x00\n        /* \"#utility.yul\":21690:21692   */\n      0x20\n        /* \"#utility.yul\":21685:21687   */\n      0x1f\n        /* \"#utility.yul\":21678:21683   */\n      dup4\n        /* \"#utility.yul\":21674:21688   */\n      add\n        /* \"#utility.yul\":21670:21693   */\n      div\n        /* \"#utility.yul\":21660:21693   */\n      swap1\n      pop\n        /* \"#utility.yul\":21606:21699   */\n      swap2\n      swap1\n      pop\n      jump\t// out\n        /* \"#utility.yul\":21705:21812   */\n    tag_326:\n        /* \"#utility.yul\":21749:21757   */\n      0x00\n        /* \"#utility.yul\":21799:21804   */\n      dup3\n        /* \"#utility.yul\":21793:21797   */\n      dup3\n        /* \"#utility.yul\":21789:21805   */\n      shl\n        /* \"#utility.yul\":21768:21805   */\n      swap1\n      pop\n        /* \"#utility.yul\":21705:21812   */\n      swap3\n      swap2\n      pop\n      pop\n      jump\t// out\n        /* \"#utility.yul\":21818:22211   */\n    tag_327:\n        /* \"#utility.yul\":21887:21893   */\n      0x00\n        /* \"#utility.yul\":21937:21938   */\n      0x08\n        /* \"#utility.yul\":21925:21935   */\n      dup4\n        /* \"#utility.yul\":21921:21939   */\n      mul\n        /* \"#utility.yul\":21960:22057   */\n      tag_554\n        /* \"#utility.yul\":21990:22056   */\n      0xffffffffffffffffffffffffffffffffffffffffffffffffffffffffffffffff\n        /* \"#utility.yul\":21979:21988   */\n      dup3\n        /* \"#utility.yul\":21960:22057   */\n      tag_326\n      jump\t// in\n    tag_554:\n        /* \"#utility.yul\":22078:22117   */\n      tag_555\n        /* \"#utility.yul\":22108:22116   */\n      dup7\n        /* \"#utility.yul\":22097:22106   */\n      dup4\n        /* \"#utility.yul\":22078:22117   */\n      tag_326\n      jump\t// in\n    tag_555:\n        /* \"#utility.yul\":22066:22117   */\n      swap6\n      pop\n        /* \"#utility.yul\":22150:22154   */\n      dup1\n        /* \"#utility.yul\":22146:22155   */\n      not\n        /* \"#utility.yul\":22139:22144   */\n      dup5\n        /* \"#utility.yul\":22135:22156   */\n      and\n        /* \"#utility.yul\":22126:22156   */\n      swap4\n      pop\n        /* \"#utility.yul\":22199:22203   */\n      dup1\n        /* \"#utility.yul\":22189:22197   */\n      dup7\n        /* \"#utility.yul\":22185:22204   */\n      and\n        /* \"#utility.yul\":22178:22183   */\n      dup5\n        /* \"#utility.yul\":22175:22205   */\n      or\n        /* \"#utility.yul\":22165:22205   */\n      swap3\n      pop\n        /* \"#utility.yul\":21894:22211   */\n      pop\n      pop\n        /* \"#utility.yul\":21818:22211   */\n      swap4\n      swap3\n      pop\n      pop\n      pop\n      jump\t// out\n        /* \"#utility.yul\":22217:22277   */\n    tag_328:\n        /* \"#utility.yul\":22245:22248   */\n      0x00\n        /* \"#utility.yul\":22266:22271   */\n      dup2\n        /* \"#utility.yul\":22259:22271   */\n      swap1\n      pop\n        /* \"#utility.yul\":22217:22277   */\n      swap2\n      swap1\n      pop\n      jump\t// out\n        /* \"#utility.yul\":22283:22425   */\n    tag_329:\n        /* \"#utility.yul\":22333:22342   */\n      0x00\n        /* \"#utility.yul\":22366:22419   */\n      tag_558\n        /* \"#utility.yul\":22384:22418   */\n      tag_559\n        /* \"#utility.yul\":22393:22417   */\n      tag_560\n        /* \"#utility.yul\":22411:22416   */\n      dup5\n        /* \"#utility.yul\":22393:22417   */\n      tag_273\n      jump\t// in\n    tag_560:\n        /* \"#utility.yul\":22384:22418   */\n      tag_328\n      jump\t// in\n    tag_559:\n        /* \"#utility.yul\":22366:22419   */\n      tag_273\n      jump\t// in\n    tag_558:\n        /* \"#utility.yul\":22353:22419   */\n      swap1\n      pop\n        /* \"#utility.yul\":22283:22425   */\n      swap2\n      swap1\n      pop\n      jump\t// out\n        /* \"#utility.yul\":22431:22506   */\n    tag_330:\n        /* \"#utility.yul\":22474:22477   */\n      0x00\n        /* \"#utility.yul\":22495:22500   */\n      dup2\n        /* \"#utility.yul\":22488:22500   */\n      swap1\n      pop\n        /* \"#utility.yul\":22431:22506   */\n      swap2\n      swap1\n      pop\n      jump\t// out\n        /* \"#utility.yul\":22512:22781   */\n    tag_331:\n        /* \"#utility.yul\":22622:22661   */\n      tag_563\n        /* \"#utility.yul\":22653:22660   */\n      dup4\n        /* \"#utility.yul\":22622:22661   */\n      tag_329\n      jump\t// in\n    tag_563:\n        /* \"#utility.yul\":22683:22774   */\n      tag_564\n        /* \"#utility.yul\":22732:22773   */\n      tag_565\n        /* \"#utility.yul\":22756:22772   */\n      dup3\n        /* \"#utility.yul\":22732:22773   */\n      tag_330\n      jump\t// in\n    tag_565:\n        /* \"#utility.yul\":22724:22730   */\n      dup5\n        /* \"#utility.yul\":22717:22721   */\n      dup5\n        /* \"#utility.yul\":22711:22722   */\n      sload\n        /* \"#utility.yul\":22683:22774   */\n      tag_327\n      jump\t// in\n    tag_564:\n        /* \"#utility.yul\":22677:22681   */\n      dup3\n        /* \"#utility.yul\":22670:22775   */\n      sstore\n        /* \"#utility.yul\":22588:22781   */\n      pop\n        /* \"#utility.yul\":22512:22781   */\n      pop\n      pop\n      pop\n      jump\t// out\n        /* \"#utility.yul\":22787:22860   */\n    tag_332:\n        /* \"#utility.yul\":22832:22835   */\n      0x00\n        /* \"#utility.yul\":22787:22860   */\n      swap1\n      jump\t// out\n        /* \"#utility.yul\":22866:23055   */\n    tag_333:\n        /* \"#utility.yul\":22943:22975   */\n      tag_568\n      tag_332\n      jump\t// in\n    tag_568:\n        /* \"#utility.yul\":22984:23049   */\n      tag_569\n        /* \"#utility.yul\":23042:23048   */\n      dup2\n        /* \"#utility.yul\":23034:23040   */\n      dup5\n        /* \"#utility.yul\":23028:23032   */\n      dup5\n        /* \"#utility.yul\":22984:23049   */\n      tag_331\n      jump\t// in\n    tag_569:\n        /* \"#utility.yul\":22919:23055   */\n      pop\n        /* \"#utility.yul\":22866:23055   */\n      pop\n      pop\n      jump\t// out\n        /* \"#utility.yul\":23061:23247   */\n    tag_334:\n        /* \"#utility.yul\":23121:23241   */\n    tag_571:\n        /* \"#utility.yul\":23138:23141   */\n      dup2\n        /* \"#utility.yul\":23131:23136   */\n      dup2\n        /* \"#utility.yul\":23128:23142   */\n      lt\n        /* \"#utility.yul\":23121:23241   */\n      iszero\n      tag_573\n      jumpi\n        /* \"#utility.yul\":23192:23231   */\n      tag_574\n        /* \"#utility.yul\":23229:23230   */\n      0x00\n        /* \"#utility.yul\":23222:23227   */\n      dup3\n        /* \"#utility.yul\":23192:23231   */\n      tag_333\n      jump\t// in\n    tag_574:\n        /* \"#utility.yul\":23165:23166   */\n      0x01\n        /* \"#utility.yul\":23158:23163   */\n      dup2\n        /* \"#utility.yul\":23154:23167   */\n      add\n        /* \"#utility.yul\":23145:23167   */\n      swap1\n      pop\n        /* \"#utility.yul\":23121:23241   */\n      jump(tag_571)\n    tag_573:\n        /* \"#utility.yul\":23061:23247   */\n      pop\n      pop\n      jump\t// out\n        /* \"#utility.yul\":23253:23796   */\n    tag_335:\n        /* \"#utility.yul\":23354:23356   */\n      0x1f\n        /* \"#utility.yul\":23349:23352   */\n      dup3\n        /* \"#utility.yul\":23346:23357   */\n      gt\n        /* \"#utility.yul\":23343:23789   */\n      iszero\n      tag_576\n      jumpi\n        /* \"#utility.yul\":23388:23426   */\n      tag_577\n        /* \"#utility.yul\":23420:23425   */\n      dup2\n        /* \"#utility.yul\":23388:23426   */\n      tag_324\n      jump\t// in\n    tag_577:\n        /* \"#utility.yul\":23472:23501   */\n      tag_578\n        /* \"#utility.yul\":23490:23500   */\n      dup5\n        /* \"#utility.yul\":23472:23501   */\n      tag_325\n      jump\t// in\n    tag_578:\n        /* \"#utility.yul\":23462:23470   */\n      dup2\n        /* \"#utility.yul\":23458:23502   */\n      add\n        /* \"#utility.yul\":23655:23657   */\n      0x20\n        /* \"#utility.yul\":23643:23653   */\n      dup6\n        /* \"#utility.yul\":23640:23658   */\n      lt\n        /* \"#utility.yul\":23637:23686   */\n      iszero\n      tag_579\n      jumpi\n        /* \"#utility.yul\":23676:23684   */\n      dup2\n        /* \"#utility.yul\":23661:23684   */\n      swap1\n      pop\n        /* \"#utility.yul\":23637:23686   */\n    tag_579:\n        /* \"#utility.yul\":23699:23779   */\n      tag_580\n        /* \"#utility.yul\":23755:23777   */\n      tag_581\n        /* \"#utility.yul\":23773:23776   */\n      dup6\n        /* \"#utility.yul\":23755:23777   */\n      tag_325\n      jump\t// in\n    tag_581:\n        /* \"#utility.yul\":23745:23753   */\n      dup4\n        /* \"#utility.yul\":23741:23778   */\n      add\n        /* \"#utility.yul\":23728:23739   */\n      dup3\n        /* \"#utility.yul\":23699:23779   */\n      tag_334\n      jump\t// in\n    tag_580:\n        /* \"#utility.yul\":23358:23789   */\n      pop\n      pop\n        /* \"#utility.yul\":23343:23789   */\n    tag_576:\n        /* \"#utility.yul\":23253:23796   */\n      pop\n      pop\n      pop\n      jump\t// out\n        /* \"#utility.yul\":23802:23919   */\n    tag_336:\n        /* \"#utility.yul\":23856:23864   */\n      0x00\n        /* \"#utility.yul\":23906:23911   */\n      dup3\n        /* \"#utility.yul\":23900:23904   */\n      dup3\n        /* \"#utility.yul\":23896:23912   */\n      shr\n        /* \"#utility.yul\":23875:23912   */\n      swap1\n      pop\n        /* \"#utility.yul\":23802:23919   */\n      swap3\n      swap2\n      pop\n      pop\n      jump\t// out\n        /* \"#utility.yul\":23925:24094   */\n    tag_337:\n        /* \"#utility.yul\":23969:23975   */\n      0x00\n        /* \"#utility.yul\":24002:24053   */\n      tag_584\n        /* \"#utility.yul\":24050:24051   */\n      0x00\n        /* \"#utility.yul\":24046:24052   */\n      not\n        /* \"#utility.yul\":24038:24043   */\n      dup5\n        /* \"#utility.yul\":24035:24036   */\n      0x08\n        /* \"#utility.yul\":24031:24044   */\n      mul\n        /* \"#utility.yul\":24002:24053   */\n      tag_336\n      jump\t// in\n    tag_584:\n        /* \"#utility.yul\":23998:24054   */\n      not\n        /* \"#utility.yul\":24083:24087   */\n      dup1\n        /* \"#utility.yul\":24077:24081   */\n      dup4\n        /* \"#utility.yul\":24073:24088   */\n      and\n        /* \"#utility.yul\":24063:24088   */\n      swap2\n      pop\n        /* \"#utility.yul\":23976:24094   */\n      pop\n        /* \"#utility.yul\":23925:24094   */\n      swap3\n      swap2\n      pop\n      pop\n      jump\t// out\n        /* \"#utility.yul\":24099:24394   */\n    tag_338:\n        /* \"#utility.yul\":24175:24179   */\n      0x00\n        /* \"#utility.yul\":24321:24350   */\n      tag_586\n        /* \"#utility.yul\":24346:24349   */\n      dup4\n        /* \"#utility.yul\":24340:24344   */\n      dup4\n        /* \"#utility.yul\":24321:24350   */\n      tag_337\n      jump\t// in\n    tag_586:\n        /* \"#utility.yul\":24313:24350   */\n      swap2\n      pop\n        /* \"#utility.yul\":24383:24386   */\n      dup3\n        /* \"#utility.yul\":24380:24381   */\n      0x02\n        /* \"#utility.yul\":24376:24387   */\n      mul\n        /* \"#utility.yul\":24370:24374   */\n      dup3\n        /* \"#utility.yul\":24367:24388   */\n      or\n        /* \"#utility.yul\":24359:24388   */\n      swap1\n      pop\n        /* \"#utility.yul\":24099:24394   */\n      swap3\n      swap2\n      pop\n      pop\n      jump\t// out\n        /* \"#utility.yul\":24399:25794   */\n    tag_138:\n        /* \"#utility.yul\":24516:24553   */\n      tag_588\n        /* \"#utility.yul\":24549:24552   */\n      dup3\n        /* \"#utility.yul\":24516:24553   */\n      tag_286\n      jump\t// in\n    tag_588:\n        /* \"#utility.yul\":24618:24636   */\n      0xffffffffffffffff\n        /* \"#utility.yul\":24610:24616   */\n      dup2\n        /* \"#utility.yul\":24607:24637   */\n      gt\n        /* \"#utility.yul\":24604:24660   */\n      iszero\n      tag_589\n      jumpi\n        /* \"#utility.yul\":24640:24658   */\n      tag_590\n      tag_299\n      jump\t// in\n    tag_590:\n        /* \"#utility.yul\":24604:24660   */\n    tag_589:\n        /* \"#utility.yul\":24684:24722   */\n      tag_591\n        /* \"#utility.yul\":24716:24720   */\n      dup3\n        /* \"#utility.yul\":24710:24721   */\n      sload\n        /* \"#utility.yul\":24684:24722   */\n      tag_123\n      jump\t// in\n    tag_591:\n        /* \"#utility.yul\":24769:24836   */\n      tag_592\n        /* \"#utility.yul\":24829:24835   */\n      dup3\n        /* \"#utility.yul\":24821:24827   */\n      dup3\n        /* \"#utility.yul\":24815:24819   */\n      dup6\n        /* \"#utility.yul\":24769:24836   */\n      tag_335\n      jump\t// in\n    tag_592:\n        /* \"#utility.yul\":24863:24864   */\n      0x00\n        /* \"#utility.yul\":24887:24891   */\n      0x20\n        /* \"#utility.yul\":24874:24891   */\n      swap1\n      pop\n        /* \"#utility.yul\":24919:24921   */\n      0x1f\n        /* \"#utility.yul\":24911:24917   */\n      dup4\n        /* \"#utility.yul\":24908:24922   */\n      gt\n        /* \"#utility.yul\":24936:24937   */\n      0x01\n        /* \"#utility.yul\":24931:25549   */\n      dup2\n      eq\n      tag_594\n      jumpi\n        /* \"#utility.yul\":25593:25594   */\n      0x00\n        /* \"#utility.yul\":25610:25616   */\n      dup5\n        /* \"#utility.yul\":25607:25684   */\n      iszero\n      tag_595\n      jumpi\n        /* \"#utility.yul\":25659:25668   */\n      dup3\n        /* \"#utility.yul\":25654:25657   */\n      dup8\n        /* \"#utility.yul\":25650:25669   */\n      add\n        /* \"#utility.yul\":25644:25670   */\n      mload\n        /* \"#utility.yul\":25635:25670   */\n      swap1\n      pop\n        /* \"#utility.yul\":25607:25684   */\n    tag_595:\n        /* \"#utility.yul\":25710:25777   */\n      tag_596\n        /* \"#utility.yul\":25770:25776   */\n      dup6\n        /* \"#utility.yul\":25763:25768   */\n      dup3\n        /* \"#utility.yul\":25710:25777   */\n      tag_338\n      jump\t// in\n    tag_596:\n        /* \"#utility.yul\":25704:25708   */\n      dup7\n        /* \"#utility.yul\":25697:25778   */\n      sstore\n        /* \"#utility.yul\":25566:25788   */\n      pop\n        /* \"#utility.yul\":24901:25788   */\n      jump(tag_593)\n        /* \"#utility.yul\":24931:25549   */\n    tag_594:\n        /* \"#utility.yul\":24983:24987   */\n      0x1f\n        /* \"#utility.yul\":24979:24988   */\n      not\n        /* \"#utility.yul\":24971:24977   */\n      dup5\n        /* \"#utility.yul\":24967:24989   */\n      and\n        /* \"#utility.yul\":25017:25054   */\n      tag_597\n        /* \"#utility.yul\":25049:25053   */\n      dup7\n        /* \"#utility.yul\":25017:25054   */\n      tag_324\n      jump\t// in\n    tag_597:\n        /* \"#utility.yul\":25076:25077   */\n      0x00\n        /* \"#utility.yul\":25090:25298   */\n    tag_598:\n        /* \"#utility.yul\":25104:25111   */\n      dup3\n        /* \"#utility.yul\":25101:25102   */\n      dup2\n        /* \"#utility.yul\":25098:25112   */\n      lt\n        /* \"#utility.yul\":25090:25298   */\n      iszero\n      tag_600\n      jumpi\n        /* \"#utility.yul\":25183:25192   */\n      dup5\n        /* \"#utility.yul\":25178:25181   */\n      dup10\n        /* \"#utility.yul\":25174:25193   */\n      add\n        /* \"#utility.yul\":25168:25194   */\n      mload\n        /* \"#utility.yul\":25160:25166   */\n      dup3\n        /* \"#utility.yul\":25153:25195   */\n      sstore\n        /* \"#utility.yul\":25234:25235   */\n      0x01\n        /* \"#utility.yul\":25226:25232   */\n      dup3\n        /* \"#utility.yul\":25222:25236   */\n      add\n        /* \"#utility.yul\":25212:25236   */\n      swap2\n      pop\n        /* \"#utility.yul\":25281:25283   */\n      0x20\n        /* \"#utility.yul\":25270:25279   */\n      dup6\n        /* \"#utility.yul\":25266:25284   */\n      add\n        /* \"#utility.yul\":25253:25284   */\n      swap5\n      pop\n        /* \"#utility.yul\":25127:25131   */\n      0x20\n        /* \"#utility.yul\":25124:25125   */\n      dup2\n        /* \"#utility.yul\":25120:25132   */\n      add\n        /* \"#utility.yul\":25115:25132   */\n      swap1\n      pop\n        /* \"#utility.yul\":25090:25298   */\n      jump(tag_598)\n    tag_600:\n        /* \"#utility.yul\":25326:25332   */\n      dup7\n        /* \"#utility.yul\":25317:25324   */\n      dup4\n        /* \"#utility.yul\":25314:25333   */\n      lt\n        /* \"#utility.yul\":25311:25490   */\n      iszero\n      tag_601\n      jumpi\n        /* \"#utility.yul\":25384:25393   */\n      dup5\n        /* \"#utility.yul\":25379:25382   */\n      dup10\n        /* \"#utility.yul\":25375:25394   */\n      add\n        /* \"#utility.yul\":25369:25395   */\n      mload\n        /* \"#utility.yul\":25427:25475   */\n      tag_602\n        /* \"#utility.yul\":25469:25473   */\n      0x1f\n        /* \"#utility.yul\":25461:25467   */\n      dup10\n        /* \"#utility.yul\":25457:25474   */\n      and\n        /* \"#utility.yul\":25446:25455   */\n      dup3\n        /* \"#utility.yul\":25427:25475   */\n      tag_337\n      jump\t// in\n    tag_602:\n        /* \"#utility.yul\":25419:25425   */\n      dup4\n        /* \"#utility.yul\":25412:25476   */\n      sstore\n        /* \"#utility.yul\":25334:25490   */\n      pop\n        /* \"#utility.yul\":25311:25490   */\n    tag_601:\n        /* \"#utility.yul\":25536:25537   */\n      0x01\n        /* \"#utility.yul\":25532:25533   */\n      0x02\n        /* \"#utility.yul\":25524:25530   */\n      dup9\n        /* \"#utility.yul\":25520:25534   */\n      mul\n        /* \"#utility.yul\":25516:25538   */\n      add\n        /* \"#utility.yul\":25510:25514   */\n      dup9\n        /* \"#utility.yul\":25503:25539   */\n      sstore\n        /* \"#utility.yul\":24938:25549   */\n      pop\n      pop\n      pop\n        /* \"#utility.yul\":24901:25788   */\n    tag_593:\n      pop\n        /* \"#utility.yul\":24491:25794   */\n      pop\n      pop\n      pop\n        /* \"#utility.yul\":24399:25794   */\n      pop\n      pop\n      jump\t// out\n        /* \"#utility.yul\":25800:25960   */\n    tag_339:\n        /* \"#utility.yul\":25940:25952   */\n      0x61646d696e206f6e6c7900000000000000000000000000000000000000000000\n        /* \"#utility.yul\":25936:25937   */\n      0x00\n        /* \"#utility.yul\":25928:25934   */\n      dup3\n        /* \"#utility.yul\":25924:25938   */\n      add\n        /* \"#utility.yul\":25917:25953   */\n      mstore\n        /* \"#utility.yul\":25800:25960   */\n      pop\n      jump\t// out\n        /* \"#utility.yul\":25966:26332   */\n    tag_340:\n        /* \"#utility.yul\":26108:26111   */\n      0x00\n        /* \"#utility.yul\":26129:26196   */\n      tag_605\n        /* \"#utility.yul\":26193:26195   */\n      0x0a\n        /* \"#utility.yul\":26188:26191   */\n      dup4\n        /* \"#utility.yul\":26129:26196   */\n      tag_318\n      jump\t// in\n    tag_605:\n        /* \"#utility.yul\":26122:26196   */\n      swap2\n      pop\n        /* \"#utility.yul\":26205:26298   */\n      tag_606\n        /* \"#utility.yul\":26294:26297   */\n      dup3\n        /* \"#utility.yul\":26205:26298   */\n      tag_339\n      jump\t// in\n    tag_606:\n        /* \"#utility.yul\":26323:26325   */\n      0x20\n        /* \"#utility.yul\":26318:26321   */\n      dup3\n        /* \"#utility.yul\":26314:26326   */\n      add\n        /* \"#utility.yul\":26307:26326   */\n      swap1\n      pop\n        /* \"#utility.yul\":25966:26332   */\n      swap2\n      swap1\n      pop\n      jump\t// out\n        /* \"#utility.yul\":26338:26757   */\n    tag_143:\n        /* \"#utility.yul\":26504:26508   */\n      0x00\n        /* \"#utility.yul\":26542:26544   */\n      0x20\n        /* \"#utility.yul\":26531:26540   */\n      dup3\n        /* \"#utility.yul\":26527:26545   */\n      add\n        /* \"#utility.yul\":26519:26545   */\n      swap1\n      pop\n        /* \"#utility.yul\":26591:26600   */\n      dup2\n        /* \"#utility.yul\":26585:26589   */\n      dup2\n        /* \"#utility.yul\":26581:26601   */\n      sub\n        /* \"#utility.yul\":26577:26578   */\n      0x00\n        /* \"#utility.yul\":26566:26575   */\n      dup4\n        /* \"#utility.yul\":26562:26579   */\n      add\n        /* \"#utility.yul\":26555:26602   */\n      mstore\n        /* \"#utility.yul\":26619:26750   */\n      tag_608\n        /* \"#utility.yul\":26745:26749   */\n      dup2\n        /* \"#utility.yul\":26619:26750   */\n      tag_340\n      jump\t// in\n    tag_608:\n        /* \"#utility.yul\":26611:26750   */\n      swap1\n      pop\n        /* \"#utility.yul\":26338:26757   */\n      swap2\n      swap1\n      pop\n      jump\t// out\n        /* \"#utility.yul\":26763:26935   */\n    tag_341:\n        /* \"#utility.yul\":26903:26927   */\n      0x726577617264207472616e73666572206661696c656400000000000000000000\n        /* \"#utility.yul\":26899:26900   */\n      0x00\n        /* \"#utility.yul\":26891:26897   */\n      dup3\n        /* \"#utility.yul\":26887:26901   */\n      add\n        /* \"#utility.yul\":26880:26928   */\n      mstore\n        /* \"#utility.yul\":26763:26935   */\n      pop\n      jump\t// out\n        /* \"#utility.yul\":26941:27307   */\n    tag_342:\n        /* \"#utility.yul\":27083:27086   */\n      0x00\n        /* \"#utility.yul\":27104:27171   */\n      tag_611\n        /* \"#utility.yul\":27168:27170   */\n      0x16\n        /* \"#utility.yul\":27163:27166   */\n      dup4\n        /* \"#utility.yul\":27104:27171   */\n      tag_318\n      jump\t// in\n    tag_611:\n        /* \"#utility.yul\":27097:27171   */\n      swap2\n      pop\n        /* \"#utility.yul\":27180:27273   */\n      tag_612\n        /* \"#utility.yul\":27269:27272   */\n      dup3\n        /* \"#utility.yul\":27180:27273   */\n      tag_341\n      jump\t// in\n    tag_612:\n        /* \"#utility.yul\":27298:27300   */\n      0x20\n        /* \"#utility.yul\":27293:27296   */\n      dup3\n        /* \"#utility.yul\":27289:27301   */\n      add\n        /* \"#utility.yul\":27282:27301   */\n      swap1\n      pop\n        /* \"#utility.yul\":26941:27307   */\n      swap2\n      swap1\n      pop\n      jump\t// out\n        /* \"#utility.yul\":27313:27732   */\n    tag_160:\n        /* \"#utility.yul\":27479:27483   */\n      0x00\n        /* \"#utility.yul\":27517:27519   */\n      0x20\n        /* \"#utility.yul\":27506:27515   */\n      dup3\n        /* \"#utility.yul\":27502:27520   */\n      add\n        /* \"#utility.yul\":27494:27520   */\n      swap1\n      pop\n        /* \"#utility.yul\":27566:27575   */\n      dup2\n        /* \"#utility.yul\":27560:27564   */\n      dup2\n        /* \"#utility.yul\":27556:27576   */\n      sub\n        /* \"#utility.yul\":27552:27553   */\n      0x00\n        /* \"#utility.yul\":27541:27550   */\n      dup4\n        /* \"#utility.yul\":27537:27554   */\n      add\n        /* \"#utility.yul\":27530:27577   */\n      mstore\n        /* \"#utility.yul\":27594:27725   */\n      tag_614\n        /* \"#utility.yul\":27720:27724   */\n      dup2\n        /* \"#utility.yul\":27594:27725   */\n      tag_342\n      jump\t// in\n    tag_614:\n        /* \"#utility.yul\":27586:27725   */\n      swap1\n      pop\n        /* \"#utility.yul\":27313:27732   */\n      swap2\n      swap1\n      pop\n      jump\t// out\n        /* \"#utility.yul\":27738:27918   */\n    tag_169:\n        /* \"#utility.yul\":27786:27863   */\n      0x4e487b7100000000000000000000000000000000000000000000000000000000\n        /* \"#utility.yul\":27783:27784   */\n      0x00\n        /* \"#utility.yul\":27776:27864   */\n      mstore\n        /* \"#utility.yul\":27883:27887   */\n      0x32\n        /* \"#utility.yul\":27880:27881   */\n      0x04\n        /* \"#utility.yul\":27873:27888   */\n      mstore\n        /* \"#utility.yul\":27907:27911   */\n      0x24\n        /* \"#utility.yul\":27904:27905   */\n      0x00\n        /* \"#utility.yul\":27897:27912   */\n      revert\n        /* \"#utility.yul\":27924:28104   */\n    tag_343:\n        /* \"#utility.yul\":27972:28049   */\n      0x4e487b7100000000000000000000000000000000000000000000000000000000\n        /* \"#utility.yul\":27969:27970   */\n      0x00\n        /* \"#utility.yul\":27962:28050   */\n      mstore\n        /* \"#utility.yul\":28069:28073   */\n      0x11\n        /* \"#utility.yul\":28066:28067   */\n      0x04\n        /* \"#utility.yul\":28059:28074   */\n      mstore\n        /* \"#utility.yul\":28093:28097   */\n      0x24\n        /* \"#utility.yul\":28090:28091   */\n      0x00\n        /* \"#utility.yul\":28083:28098   */\n      revert\n        /* \"#utility.yul\":28110:28304   */\n    tag_171:\n        /* \"#utility.yul\":28150:28154   */\n      0x00\n        /* \"#utility.yul\":28170:28190   */\n      tag_618\n        /* \"#utility.yul\":28188:28189   */\n      dup3\n        /* \"#utility.yul\":28170:28190   */\n      tag_273\n      jump\t// in\n    tag_618:\n        /* \"#utility.yul\":28165:28190   */\n      swap2\n      pop\n        /* \"#utility.yul\":28204:28224   */\n      tag_619\n        /* \"#utility.yul\":28222:28223   */\n      dup4\n        /* \"#utility.yul\":28204:28224   */\n      tag_273\n      jump\t// in\n    tag_619:\n        /* \"#utility.yul\":28199:28224   */\n      swap3\n      pop\n        /* \"#utility.yul\":28248:28249   */\n      dup3\n        /* \"#utility.yul\":28245:28246   */\n      dup3\n        /* \"#utility.yul\":28241:28250   */\n      sub\n        /* \"#utility.yul\":28233:28250   */\n      swap1\n      pop\n        /* \"#utility.yul\":28272:28273   */\n      dup2\n        /* \"#utility.yul\":28266:28270   */\n      dup2\n        /* \"#utility.yul\":28263:28274   */\n      gt\n        /* \"#utility.yul\":28260:28297   */\n      iszero\n      tag_620\n      jumpi\n        /* \"#utility.yul\":28277:28295   */\n      tag_621\n      tag_343\n      jump\t// in\n    tag_621:\n        /* \"#utility.yul\":28260:28297   */\n    tag_620:\n        /* \"#utility.yul\":28110:28304   */\n      swap3\n      swap2\n      pop\n      pop\n      jump\t// out\n        /* \"#utility.yul\":28310:28501   */\n    tag_182:\n        /* \"#utility.yul\":28350:28353   */\n      0x00\n        /* \"#utility.yul\":28369:28389   */\n      tag_623\n        /* \"#utility.yul\":28387:28388   */\n      dup3\n        /* \"#utility.yul\":28369:28389   */\n      tag_273\n      jump\t// in\n    tag_623:\n        /* \"#utility.yul\":28364:28389   */\n      swap2\n      pop\n        /* \"#utility.yul\":28403:28423   */\n      tag_624\n        /* \"#utility.yul\":28421:28422   */\n      dup4\n        /* \"#utility.yul\":28403:28423   */\n      tag_273\n      jump\t// in\n    tag_624:\n        /* \"#utility.yul\":28398:28423   */\n      swap3\n      pop\n        /* \"#utility.yul\":28446:28447   */\n      dup3\n        /* \"#utility.yul\":28443:28444   */\n      dup3\n        /* \"#utility.yul\":28439:28448   */\n      add\n        /* \"#utility.yul\":28432:28448   */\n      swap1\n      pop\n        /* \"#utility.yul\":28467:28470   */\n      dup1\n        /* \"#utility.yul\":28464:28465   */\n      dup3\n        /* \"#utility.yul\":28461:28471   */\n      gt\n        /* \"#utility.yul\":28458:28494   */\n      iszero\n      tag_625\n      jumpi\n        /* \"#utility.yul\":28474:28492   */\n      tag_626\n      tag_343\n      jump\t// in\n    tag_626:\n        /* \"#utility.yul\":28458:28494   */\n    tag_625:\n        /* \"#utility.yul\":28310:28501   */\n      swap3\n      swap2\n      pop\n      pop\n      jump\t// out\n        /* \"#utility.yul\":28507:28740   */\n    tag_190:\n        /* \"#utility.yul\":28546:28549   */\n      0x00\n        /* \"#utility.yul\":28569:28593   */\n      tag_628\n        /* \"#utility.yul\":28587:28592   */\n      dup3\n        /* \"#utility.yul\":28569:28593   */\n      tag_273\n      jump\t// in\n    tag_628:\n        /* \"#utility.yul\":28560:28593   */\n      swap2\n      pop\n        /* \"#utility.yul\":28615:28681   */\n      0xffffffffffffffffffffffffffffffffffffffffffffffffffffffffffffffff\n        /* \"#utility.yul\":28608:28613   */\n      dup3\n        /* \"#utility.yul\":28605:28682   */\n      sub\n        /* \"#utility.yul\":28602:28705   */\n      tag_629\n      jumpi\n        /* \"#utility.yul\":28685:28703   */\n      tag_630\n      tag_343\n      jump\t// in\n    tag_630:\n        /* \"#utility.yul\":28602:28705   */\n    tag_629:\n        /* \"#utility.yul\":28732:28733   */\n      0x01\n        /* \"#utility.yul\":28725:28730   */\n      dup3\n        /* \"#utility.yul\":28721:28734   */\n      add\n        /* \"#utility.yul\":28714:28734   */\n      swap1\n      pop\n        /* \"#utility.yul\":28507:28740   */\n      swap2\n      swap1\n      pop\n      jump\t// out\n        /* \"#utility.yul\":28746:28919   */\n    tag_344:\n        /* \"#utility.yul\":28886:28911   */\n      0x7061796d656e74207472616e73666572206661696c6564000000000000000000\n        /* \"#utility.yul\":28882:28883   */\n      0x00\n        /* \"#utility.yul\":28874:28880   */\n      dup3\n        /* \"#utility.yul\":28870:28884   */\n      add\n        /* \"#utility.yul\":28863:28912   */\n      mstore\n        /* \"#utility.yul\":28746:28919   */\n      pop\n      jump\t// out\n        /* \"#utility.yul\":28925:29291   */\n    tag_345:\n        /* \"#utility.yul\":29067:29070   */\n      0x00\n        /* \"#utility.yul\":29088:29155   */\n      tag_633\n        /* \"#utility.yul\":29152:29154   */\n      0x17\n        /* \"#utility.yul\":29147:29150   */\n      dup4\n        /* \"#utility.yul\":29088:29155   */\n      tag_318\n      jump\t// in\n    tag_633:\n        /* \"#utility.yul\":29081:29155   */\n      swap2\n      pop\n        /* \"#utility.yul\":29164:29257   */\n      tag_634\n        /* \"#utility.yul\":29253:29256   */\n      dup3\n        /* \"#utility.yul\":29164:29257   */\n      tag_344\n      jump\t// in\n    tag_634:\n        /* \"#utility.yul\":29282:29284   */\n      0x20\n        /* \"#utility.yul\":29277:29280   */\n      dup3\n        /* \"#utility.yul\":29273:29285   */\n      add\n        /* \"#utility.yul\":29266:29285   */\n      swap1\n      pop\n        /* \"#utility.yul\":28925:29291   */\n      swap2\n      swap1\n      pop\n      jump\t// out\n        /* \"#utility.yul\":29297:29716   */\n    tag_203:\n        /* \"#utility.yul\":29463:29467   */\n      0x00\n        /* \"#utility.yul\":29501:29503   */\n      0x20\n        /* \"#utility.yul\":29490:29499   */\n      dup3\n        /* \"#utility.yul\":29486:29504   */\n      add\n        /* \"#utility.yul\":29478:29504   */\n      swap1\n      pop\n        /* \"#utility.yul\":29550:29559   */\n      dup2\n        /* \"#utility.yul\":29544:29548   */\n      dup2\n        /* \"#utility.yul\":29540:29560   */\n      sub\n        /* \"#utility.yul\":29536:29537   */\n      0x00\n        /* \"#utility.yul\":29525:29534   */\n      dup4\n        /* \"#utility.yul\":29521:29538   */\n      add\n        /* \"#utility.yul\":29514:29561   */\n      mstore\n        /* \"#utility.yul\":29578:29709   */\n      tag_636\n        /* \"#utility.yul\":29704:29708   */\n      dup2\n        /* \"#utility.yul\":29578:29709   */\n      tag_345\n      jump\t// in\n    tag_636:\n        /* \"#utility.yul\":29570:29709   */\n      swap1\n      pop\n        /* \"#utility.yul\":29297:29716   */\n      swap2\n      swap1\n      pop\n      jump\t// out\n        /* \"#utility.yul\":29722:29902   */\n    tag_346:\n        /* \"#utility.yul\":29862:29894   */\n      0x696e73756666696369656e742066756e6473207472616e736d69747465640000\n        /* \"#utility.yul\":29858:29859   */\n      0x00\n        /* \"#utility.yul\":29850:29856   */\n      dup3\n        /* \"#utility.yul\":29846:29860   */\n      add\n        /* \"#utility.yul\":29839:29895   */\n      mstore\n        /* \"#utility.yul\":29722:29902   */\n      pop\n      jump\t// out\n        /* \"#utility.yul\":29908:30274   */\n    tag_347:\n        /* \"#utility.yul\":30050:30053   */\n      0x00\n        /* \"#utility.yul\":30071:30138   */\n      tag_639\n        /* \"#utility.yul\":30135:30137   */\n      0x1e\n        /* \"#utility.yul\":30130:30133   */\n      dup4\n        /* \"#utility.yul\":30071:30138   */\n      tag_318\n      jump\t// in\n    tag_639:\n        /* \"#utility.yul\":30064:30138   */\n      swap2\n      pop\n        /* \"#utility.yul\":30147:30240   */\n      tag_640\n        /* \"#utility.yul\":30236:30239   */\n      dup3\n        /* \"#utility.yul\":30147:30240   */\n      tag_346\n      jump\t// in\n    tag_640:\n        /* \"#utility.yul\":30265:30267   */\n      0x20\n        /* \"#utility.yul\":30260:30263   */\n      dup3\n        /* \"#utility.yul\":30256:30268   */\n      add\n        /* \"#utility.yul\":30249:30268   */\n      swap1\n      pop\n        /* \"#utility.yul\":29908:30274   */\n      swap2\n      swap1\n      pop\n      jump\t// out\n        /* \"#utility.yul\":30280:30699   */\n    tag_233:\n        /* \"#utility.yul\":30446:30450   */\n      0x00\n        /* \"#utility.yul\":30484:30486   */\n      0x20\n        /* \"#utility.yul\":30473:30482   */\n      dup3\n        /* \"#utility.yul\":30469:30487   */\n      add\n        /* \"#utility.yul\":30461:30487   */\n      swap1\n      pop\n        /* \"#utility.yul\":30533:30542   */\n      dup2\n        /* \"#utility.yul\":30527:30531   */\n      dup2\n        /* \"#utility.yul\":30523:30543   */\n      sub\n        /* \"#utility.yul\":30519:30520   */\n      0x00\n        /* \"#utility.yul\":30508:30517   */\n      dup4\n        /* \"#utility.yul\":30504:30521   */\n      add\n        /* \"#utility.yul\":30497:30544   */\n      mstore\n        /* \"#utility.yul\":30561:30692   */\n      tag_642\n        /* \"#utility.yul\":30687:30691   */\n      dup2\n        /* \"#utility.yul\":30561:30692   */\n      tag_347\n      jump\t// in\n    tag_642:\n        /* \"#utility.yul\":30553:30692   */\n      swap1\n      pop\n        /* \"#utility.yul\":30280:30699   */\n      swap2\n      swap1\n      pop\n      jump\t// out\n        /* \"#utility.yul\":30705:31147   */\n    tag_236:\n        /* \"#utility.yul\":30854:30858   */\n      0x00\n        /* \"#utility.yul\":30892:30894   */\n      0x60\n        /* \"#utility.yul\":30881:30890   */\n      dup3\n        /* \"#utility.yul\":30877:30895   */\n      add\n        /* \"#utility.yul\":30869:30895   */\n      swap1\n      pop\n        /* \"#utility.yul\":30905:30976   */\n      tag_644\n        /* \"#utility.yul\":30973:30974   */\n      0x00\n        /* \"#utility.yul\":30962:30971   */\n      dup4\n        /* \"#utility.yul\":30958:30975   */\n      add\n        /* \"#utility.yul\":30949:30955   */\n      dup7\n        /* \"#utility.yul\":30905:30976   */\n      tag_316\n      jump\t// in\n    tag_644:\n        /* \"#utility.yul\":30986:31058   */\n      tag_645\n        /* \"#utility.yul\":31054:31056   */\n      0x20\n        /* \"#utility.yul\":31043:31052   */\n      dup4\n        /* \"#utility.yul\":31039:31057   */\n      add\n        /* \"#utility.yul\":31030:31036   */\n      dup6\n        /* \"#utility.yul\":30986:31058   */\n      tag_316\n      jump\t// in\n    tag_645:\n        /* \"#utility.yul\":31068:31140   */\n      tag_646\n        /* \"#utility.yul\":31136:31138   */\n      0x40\n        /* \"#utility.yul\":31125:31134   */\n      dup4\n        /* \"#utility.yul\":31121:31139   */\n      add\n        /* \"#utility.yul\":31112:31118   */\n      dup5\n        /* \"#utility.yul\":31068:31140   */\n      tag_285\n      jump\t// in\n    tag_646:\n        /* \"#utility.yul\":30705:31147   */\n      swap5\n      swap4\n      pop\n      pop\n      pop\n      pop\n      jump\t// out\n        /* \"#utility.yul\":31153:31290   */\n    tag_348:\n        /* \"#utility.yul\":31207:31212   */\n      0x00\n        /* \"#utility.yul\":31238:31244   */\n      dup2\n        /* \"#utility.yul\":31232:31245   */\n      mload\n        /* \"#utility.yul\":31223:31245   */\n      swap1\n      pop\n        /* \"#utility.yul\":31254:31284   */\n      tag_648\n        /* \"#utility.yul\":31278:31283   */\n      dup2\n        /* \"#utility.yul\":31254:31284   */\n      tag_308\n      jump\t// in\n    tag_648:\n        /* \"#utility.yul\":31153:31290   */\n      swap3\n      swap2\n      pop\n      pop\n      jump\t// out\n        /* \"#utility.yul\":31296:31641   */\n    tag_240:\n        /* \"#utility.yul\":31363:31369   */\n      0x00\n        /* \"#utility.yul\":31412:31414   */\n      0x20\n        /* \"#utility.yul\":31400:31409   */\n      dup3\n        /* \"#utility.yul\":31391:31398   */\n      dup5\n        /* \"#utility.yul\":31387:31410   */\n      sub\n        /* \"#utility.yul\":31383:31415   */\n      slt\n        /* \"#utility.yul\":31380:31499   */\n      iszero\n      tag_650\n      jumpi\n        /* \"#utility.yul\":31418:31497   */\n      tag_651\n      tag_271\n      jump\t// in\n    tag_651:\n        /* \"#utility.yul\":31380:31499   */\n    tag_650:\n        /* \"#utility.yul\":31538:31539   */\n      0x00\n        /* \"#utility.yul\":31563:31624   */\n      tag_652\n        /* \"#utility.yul\":31616:31623   */\n      dup5\n        /* \"#utility.yul\":31607:31613   */\n      dup3\n        /* \"#utility.yul\":31596:31605   */\n      dup6\n        /* \"#utility.yul\":31592:31614   */\n      add\n        /* \"#utility.yul\":31563:31624   */\n      tag_348\n      jump\t// in\n    tag_652:\n        /* \"#utility.yul\":31553:31624   */\n      swap2\n      pop\n        /* \"#utility.yul\":31509:31634   */\n      pop\n        /* \"#utility.yul\":31296:31641   */\n      swap3\n      swap2\n      pop\n      pop\n      jump\t// out\n        /* \"#utility.yul\":31647:32057   */\n    tag_263:\n        /* \"#utility.yul\":31687:31694   */\n      0x00\n        /* \"#utility.yul\":31710:31730   */\n      tag_654\n        /* \"#utility.yul\":31728:31729   */\n      dup3\n        /* \"#utility.yul\":31710:31730   */\n      tag_273\n      jump\t// in\n    tag_654:\n        /* \"#utility.yul\":31705:31730   */\n      swap2\n      pop\n        /* \"#utility.yul\":31744:31764   */\n      tag_655\n        /* \"#utility.yul\":31762:31763   */\n      dup4\n        /* \"#utility.yul\":31744:31764   */\n      tag_273\n      jump\t// in\n    tag_655:\n        /* \"#utility.yul\":31739:31764   */\n      swap3\n      pop\n        /* \"#utility.yul\":31799:31800   */\n      dup3\n        /* \"#utility.yul\":31796:31797   */\n      dup3\n        /* \"#utility.yul\":31792:31801   */\n      mul\n        /* \"#utility.yul\":31821:31851   */\n      tag_656\n        /* \"#utility.yul\":31839:31850   */\n      dup2\n        /* \"#utility.yul\":31821:31851   */\n      tag_273\n      jump\t// in\n    tag_656:\n        /* \"#utility.yul\":31810:31851   */\n      swap2\n      pop\n        /* \"#utility.yul\":32000:32001   */\n      dup3\n        /* \"#utility.yul\":31991:31998   */\n      dup3\n        /* \"#utility.yul\":31987:32002   */\n      div\n        /* \"#utility.yul\":31984:31985   */\n      dup5\n        /* \"#utility.yul\":31981:32003   */\n      eq\n        /* \"#utility.yul\":31961:31962   */\n      dup4\n        /* \"#utility.yul\":31954:31963   */\n      iszero\n        /* \"#utility.yul\":31934:32017   */\n      or\n        /* \"#utility.yul\":31911:32050   */\n      tag_657\n      jumpi\n        /* \"#utility.yul\":32030:32048   */\n      tag_658\n      tag_343\n      jump\t// in\n    tag_658:\n        /* \"#utility.yul\":31911:32050   */\n    tag_657:\n        /* \"#utility.yul\":31695:32057   */\n      pop\n        /* \"#utility.yul\":31647:32057   */\n      swap3\n      swap2\n      pop\n      pop\n      jump\t// out\n\n    auxdata: 0xa2646970667358221220feef2c8021e576c793ad3b4700e30b920477ffbf66ca940f8a953ac7d76d2e2364736f6c634300081a0033\n}\n",
				"bytecode": {
					"linkReferences": {},
					"object": "60e060405234801561000f575f80fd5b50604051612cb3380380612cb38339818101604052810190610031919061017a565b8260015f6101000a81548173ffffffffffffffffffffffffffffffffffffffff021916908373ffffffffffffffffffffffffffffffffffffffff1602179055508173ffffffffffffffffffffffffffffffffffffffff1660a08173ffffffffffffffffffffffffffffffffffffffff16815250503073ffffffffffffffffffffffffffffffffffffffff1660808173ffffffffffffffffffffffffffffffffffffffff16815250508060c081815250505050506101ca565b5f80fd5b5f73ffffffffffffffffffffffffffffffffffffffff82169050919050565b5f610116826100ed565b9050919050565b6101268161010c565b8114610130575f80fd5b50565b5f815190506101418161011d565b92915050565b5f819050919050565b61015981610147565b8114610163575f80fd5b50565b5f8151905061017481610150565b92915050565b5f805f60608486031215610191576101906100e9565b5b5f61019e86828701610133565b93505060206101af86828701610133565b92505060406101c086828701610166565b9150509250925092565b60805160a05160c051612ab16102025f395f610fe201525f81816110c4015261115f01525f818161174c015261188e0152612ab15ff3fe6080604052600436106100e7575f3560e01c806378d5b51711610089578063a9144e1a11610058578063a9144e1a1461033d578063bf22c4571461036d578063cd449446146103a9578063eea3f82d146103e5576100e7565b806378d5b5171461026b57806383238fb41461029b5780639217cbe0146102d7578063970e003c14610301576100e7565b806343351d95116100c557806343351d951461018d5780634b0fa847146101c95780634fb3bebc146101f35780636a00670b1461022f576100e7565b8063098b2cbd146100eb57806337f1e7f214610127578063393f190d14610163575b5f80fd5b3480156100f6575f80fd5b50610111600480360381019061010c9190611ae6565b610421565b60405161011e9190611bc8565b60405180910390f35b348015610132575f80fd5b5061014d60048036038101906101489190611c0b565b610488565b60405161015a9190611c45565b60405180910390f35b34801561016e575f80fd5b506101776104c6565b6040516101849190611bc8565b60405180910390f35b348015610198575f80fd5b506101b360048036038101906101ae9190611ae6565b610557565b6040516101c09190611dad565b60405180910390f35b3480156101d4575f80fd5b506101dd61076c565b6040516101ea9190611bc8565b60405180910390f35b3480156101fe575f80fd5b5061021960048036038101906102149190611f4d565b6107c2565b6040516102269190611c45565b60405180910390f35b34801561023a575f80fd5b5061025560048036038101906102509190611fe0565b61096c565b604051610262919061202d565b60405180910390f35b61028560048036038101906102809190612046565b610a40565b60405161029291906120fd565b60405180910390f35b3480156102a6575f80fd5b506102c160048036038101906102bc91906121da565b610d08565b6040516102ce9190611c45565b60405180910390f35b3480156102e2575f80fd5b506102eb6110c1565b6040516102f89190612243565b60405180910390f35b34801561030c575f80fd5b5061032760048036038101906103229190611ae6565b6110e8565b604051610334919061202d565b60405180910390f35b6103576004803603810190610352919061225c565b61110e565b6040516103649190611dad565b60405180910390f35b348015610378575f80fd5b50610393600480360381019061038e9190611ae6565b611357565b6040516103a09190611dad565b60405180910390f35b3480156103b4575f80fd5b506103cf60048036038101906103ca9190611ae6565b61149f565b6040516103dc91906120fd565b60405180910390f35b3480156103f0575f80fd5b5061040b60048036038101906104069190611ae6565b61153c565b6040516104189190612329565b60405180910390f35b606060085f8381526020019081526020015f2080548060200260200160405190810160405280929190818152602001828054801561047c57602002820191905f5260205f20905b815481526020019060010190808311610468575b50505050509050919050565b5f60075f83600281111561049f5761049e612349565b5b60028111156104b1576104b0612349565b5b81526020019081526020015f20549050919050565b606060045f3373ffffffffffffffffffffffffffffffffffffffff1673ffffffffffffffffffffffffffffffffffffffff1681526020019081526020015f2080548060200260200160405190810160405280929190818152602001828054801561054d57602002820191905f5260205f20905b815481526020019060010190808311610539575b5050505050905090565b61055f6119dc565b3373ffffffffffffffffffffffffffffffffffffffff1660035f8481526020019081526020015f2060040160019054906101000a900473ffffffffffffffffffffffffffffffffffffffff1673ffffffffffffffffffffffffffffffffffffffff1614610601576040517f08c379a00000000000000000000000000000000000000000000000000000000081526004016105f8906123d0565b60405180910390fd5b5f60035f8481526020019081526020015f206004015f6101000a81548160ff02191690831515021790555060035f8381526020019081526020015f206040518060c00160405290815f82015481526020016001820180546106619061241b565b80601f016020809104026020016040519081016040528092919081815260200182805461068d9061241b565b80156106d85780601f106106af576101008083540402835291602001916106d8565b820191905f5260205f20905b8154815290600101906020018083116106bb57829003601f168201915b505050505081526020016002820154815260200160038201548152602001600482015f9054906101000a900460ff161515151581526020016004820160019054906101000a900473ffffffffffffffffffffffffffffffffffffffff1673ffffffffffffffffffffffffffffffffffffffff1673ffffffffffffffffffffffffffffffffffffffff16815250509050919050565b606060028054806020026020016040519081016040528092919081815260200182805480156107b857602002820191905f5260205f20905b8154815260200190600101908083116107a4575b5050505050905090565b5f6001151560035f8881526020019081526020015f206004015f9054906101000a900460ff1615151461082a576040517f08c379a000000000000000000000000000000000000000000000000000000000815260040161082190612495565b60405180910390fd5b5f61083361167a565b90506040518060a001604052808281526020018781526020018681526020018573ffffffffffffffffffffffffffffffffffffffff16815260200184151581525060095f8381526020019081526020015f205f820151815f015560208201518160010190816108a29190612650565b50604082015181600201556060820151816003015f6101000a81548173ffffffffffffffffffffffffffffffffffffffff021916908373ffffffffffffffffffffffffffffffffffffffff16021790555060808201518160030160146101000a81548160ff02191690831515021790555090505060085f8881526020019081526020015f2081908060018154018082558091505060019003905f5260205f20015f909190919091505560085f8881526020019081526020015f208054905091505095945050505050565b5f60015f9054906101000a900473ffffffffffffffffffffffffffffffffffffffff1673ffffffffffffffffffffffffffffffffffffffff163373ffffffffffffffffffffffffffffffffffffffff16146109fc576040517f08c379a00000000000000000000000000000000000000000000000000000000081526004016109f390612769565b60405180910390fd5b8160075f856002811115610a1357610a12612349565b5b6002811115610a2557610a24612349565b5b81526020019081526020015f20819055506001905092915050565b610a48611a25565b3373ffffffffffffffffffffffffffffffffffffffff1660035f8781526020019081526020015f2060040160019054906101000a900473ffffffffffffffffffffffffffffffffffffffff1673ffffffffffffffffffffffffffffffffffffffff1614610aea576040517f08c379a0000000000000000000000000000000000000000000000000000000008152600401610ae1906123d0565b60405180910390fd5b6001151560035f8781526020019081526020015f206004015f9054906101000a900460ff16151514610b51576040517f08c379a0000000000000000000000000000000000000000000000000000000008152600401610b4890612495565b60405180910390fd5b610b5b8484611695565b610b9a576040517f08c379a0000000000000000000000000000000000000000000000000000000008152600401610b91906127d1565b60405180910390fd5b600160055f8781526020019081526020015f205f6101000a81548160ff02191690831515021790555060405180608001604052808573ffffffffffffffffffffffffffffffffffffffff1681526020018481526020018381526020015f81525060065f8781526020019081526020015f205f820151815f015f6101000a81548173ffffffffffffffffffffffffffffffffffffffff021916908373ffffffffffffffffffffffffffffffffffffffff16021790555060208201518160010155604082015181600201556060820151816003015590505060065f8681526020019081526020015f206040518060800160405290815f82015f9054906101000a900473ffffffffffffffffffffffffffffffffffffffff1673ffffffffffffffffffffffffffffffffffffffff1673ffffffffffffffffffffffffffffffffffffffff16815260200160018201548152602001600282015481526020016003820154815250509050949350505050565b5f3373ffffffffffffffffffffffffffffffffffffffff1660035f8581526020019081526020015f2060040160019054906101000a900473ffffffffffffffffffffffffffffffffffffffff1673ffffffffffffffffffffffffffffffffffffffff1614610dab576040517f08c379a0000000000000000000000000000000000000000000000000000000008152600401610da2906123d0565b60405180910390fd5b5f5b82518110156110ba575f838281518110610dca57610dc96127ef565b5b602002602001015190505f60065f8781526020019081526020015f206003015460065f8881526020019081526020015f2060010154610e099190612849565b9050600a5f8781526020019081526020015f205f8381526020019081526020015f205f9054906101000a900460ff168015610e4357505f81115b156110ab575f60095f8481526020019081526020015f206040518060a00160405290815f8201548152602001600182018054610e7e9061241b565b80601f0160208091040260200160405190810160405280929190818152602001828054610eaa9061241b565b8015610ef55780601f10610ecc57610100808354040283529160200191610ef5565b820191905f5260205f20905b815481529060010190602001808311610ed857829003601f168201915b5050505050815260200160028201548152602001600382015f9054906101000a900473ffffffffffffffffffffffffffffffffffffffff1673ffffffffffffffffffffffffffffffffffffffff1673ffffffffffffffffffffffffffffffffffffffff1681526020016003820160149054906101000a900460ff16151515158152505090505f60065f8981526020019081526020015f20600201548310610fb25760065f8981526020019081526020015f20600201549050610fb6565b8290505b8060065f8a81526020019081526020015f206003015f828254610fd9919061287c565b925050819055507f00000000000000000000000000000000000000000000000000000000000000008260400151036110525761104c60065f8a81526020019081526020015f205f015f9054906101000a900473ffffffffffffffffffffffffffffffffffffffff168284606001516117d7565b5061109a565b61109860065f8a81526020019081526020015f205f015f9054906101000a900473ffffffffffffffffffffffffffffffffffffffff16828460600151856040015161191b565b505b85806110a5906128af565b96505050505b50508080600101915050610dad565b5092915050565b5f7f0000000000000000000000000000000000000000000000000000000000000000905090565b5f60055f8381526020019081526020015f205f9054906101000a900460ff169050919050565b6111166119dc565b5f61111f61167a565b90505f60075f85600281111561113857611137612349565b5b600281111561114a57611149612349565b5b81526020019081526020015f205490506111847f000000000000000000000000000000000000000000000000000000000000000082611695565b6111c3576040517f08c379a00000000000000000000000000000000000000000000000000000000081526004016111ba90612940565b60405180910390fd5b600282908060018154018082558091505060019003905f5260205f20015f90919091909150556040518060c001604052808381526020018681526020014281526020014261121087611924565b61121a919061287c565b81526020016001151581526020013373ffffffffffffffffffffffffffffffffffffffff1681525060035f8481526020019081526020015f205f820151815f015560208201518160010190816112709190612650565b5060408201518160020155606082015181600301556080820151816004015f6101000a81548160ff02191690831515021790555060a08201518160040160016101000a81548173ffffffffffffffffffffffffffffffffffffffff021916908373ffffffffffffffffffffffffffffffffffffffff16021790555090505060045f3373ffffffffffffffffffffffffffffffffffffffff1673ffffffffffffffffffffffffffffffffffffffff1681526020019081526020015f2082908060018154018082558091505060019003905f5260205f20015f9091909190915055505092915050565b61135f6119dc565b60035f8381526020019081526020015f206040518060c00160405290815f82015481526020016001820180546113949061241b565b80601f01602080910402602001604051908101604052809291908181526020018280546113c09061241b565b801561140b5780601f106113e25761010080835404028352916020019161140b565b820191905f5260205f20905b8154815290600101906020018083116113ee57829003601f168201915b505050505081526020016002820154815260200160038201548152602001600482015f9054906101000a900460ff161515151581526020016004820160019054906101000a900473ffffffffffffffffffffffffffffffffffffffff1673ffffffffffffffffffffffffffffffffffffffff1673ffffffffffffffffffffffffffffffffffffffff16815250509050919050565b6114a7611a25565b60065f8381526020019081526020015f206040518060800160405290815f82015f9054906101000a900473ffffffffffffffffffffffffffffffffffffffff1673ffffffffffffffffffffffffffffffffffffffff1673ffffffffffffffffffffffffffffffffffffffff16815260200160018201548152602001600282015481526020016003820154815250509050919050565b611544611a5f565b60095f8381526020019081526020015f206040518060a00160405290815f82015481526020016001820180546115799061241b565b80601f01602080910402602001604051908101604052809291908181526020018280546115a59061241b565b80156115f05780601f106115c7576101008083540402835291602001916115f0565b820191905f5260205f20905b8154815290600101906020018083116115d357829003601f168201915b5050505050815260200160028201548152602001600382015f9054906101000a900473ffffffffffffffffffffffffffffffffffffffff1673ffffffffffffffffffffffffffffffffffffffff1673ffffffffffffffffffffffffffffffffffffffff1681526020016003820160149054906101000a900460ff1615151515815250509050919050565b5f805f81548092919061168c906128af565b91905055905090565b5f73eeeeeeeeeeeeeeeeeeeeeeeeeeeeeeeeeeeeeeee73ffffffffffffffffffffffffffffffffffffffff168373ffffffffffffffffffffffffffffffffffffffff16036117295781341015611720576040517f08c379a0000000000000000000000000000000000000000000000000000000008152600401611717906129a8565b60405180910390fd5b600190506117d1565b5f8390508073ffffffffffffffffffffffffffffffffffffffff166323b872dd337f0000000000000000000000000000000000000000000000000000000000000000866040518463ffffffff1660e01b815260040161178a939291906129c6565b6020604051808303815f875af11580156117a6573d5f803e3d5ffd5b505050506040513d601f19601f820116820180604052508101906117ca9190612a0f565b5060019150505b92915050565b5f73eeeeeeeeeeeeeeeeeeeeeeeeeeeeeeeeeeeeeeee73ffffffffffffffffffffffffffffffffffffffff168473ffffffffffffffffffffffffffffffffffffffff160361186c578173ffffffffffffffffffffffffffffffffffffffff166108fc8490811502906040515f60405180830381858888f19350505050158015611862573d5f803e3d5ffd5b5060019050611914565b5f8490508073ffffffffffffffffffffffffffffffffffffffff166323b872dd7f000000000000000000000000000000000000000000000000000000000000000085876040518463ffffffff1660e01b81526004016118cd939291906129c6565b6020604051808303815f875af11580156118e9573d5f803e3d5ffd5b505050506040513d601f19601f8201168201806040525081019061190d9190612a0f565b5060019150505b9392505050565b5f949350505050565b5f62093a8090505f600281111561193e5761193d612349565b5b82600281111561195157611950612349565b5b03156119d7576001600281111561196b5761196a612349565b5b82600281111561197e5761197d612349565b5b03611997576002816119909190612a3a565b90506119d7565b6002808111156119aa576119a9612349565b5b8260028111156119bd576119bc612349565b5b036119d6576004816119cf9190612a3a565b90506119d7565b5b919050565b6040518060c001604052805f8152602001606081526020015f81526020015f81526020015f151581526020015f73ffffffffffffffffffffffffffffffffffffffff1681525090565b60405180608001604052805f73ffffffffffffffffffffffffffffffffffffffff1681526020015f81526020015f81526020015f81525090565b6040518060a001604052805f8152602001606081526020015f81526020015f73ffffffffffffffffffffffffffffffffffffffff1681526020015f151581525090565b5f604051905090565b5f80fd5b5f80fd5b5f819050919050565b611ac581611ab3565b8114611acf575f80fd5b50565b5f81359050611ae081611abc565b92915050565b5f60208284031215611afb57611afa611aab565b5b5f611b0884828501611ad2565b91505092915050565b5f81519050919050565b5f82825260208201905092915050565b5f819050602082019050919050565b611b4381611ab3565b82525050565b5f611b548383611b3a565b60208301905092915050565b5f602082019050919050565b5f611b7682611b11565b611b808185611b1b565b9350611b8b83611b2b565b805f5b83811015611bbb578151611ba28882611b49565b9750611bad83611b60565b925050600181019050611b8e565b5085935050505092915050565b5f6020820190508181035f830152611be08184611b6c565b905092915050565b60038110611bf4575f80fd5b50565b5f81359050611c0581611be8565b92915050565b5f60208284031215611c2057611c1f611aab565b5b5f611c2d84828501611bf7565b91505092915050565b611c3f81611ab3565b82525050565b5f602082019050611c585f830184611c36565b92915050565b5f81519050919050565b5f82825260208201905092915050565b8281835e5f83830152505050565b5f601f19601f8301169050919050565b5f611ca082611c5e565b611caa8185611c68565b9350611cba818560208601611c78565b611cc381611c86565b840191505092915050565b5f8115159050919050565b611ce281611cce565b82525050565b5f73ffffffffffffffffffffffffffffffffffffffff82169050919050565b5f611d1182611ce8565b9050919050565b611d2181611d07565b82525050565b5f60c083015f830151611d3c5f860182611b3a565b5060208301518482036020860152611d548282611c96565b9150506040830151611d696040860182611b3a565b506060830151611d7c6060860182611b3a565b506080830151611d8f6080860182611cd9565b5060a0830151611da260a0860182611d18565b508091505092915050565b5f6020820190508181035f830152611dc58184611d27565b905092915050565b5f80fd5b5f80fd5b7f4e487b71000000000000000000000000000000000000000000000000000000005f52604160045260245ffd5b611e0b82611c86565b810181811067ffffffffffffffff82111715611e2a57611e29611dd5565b5b80604052505050565b5f611e3c611aa2565b9050611e488282611e02565b919050565b5f67ffffffffffffffff821115611e6757611e66611dd5565b5b611e7082611c86565b9050602081019050919050565b828183375f83830152505050565b5f611e9d611e9884611e4d565b611e33565b905082815260208101848484011115611eb957611eb8611dd1565b5b611ec4848285611e7d565b509392505050565b5f82601f830112611ee057611edf611dcd565b5b8135611ef0848260208601611e8b565b91505092915050565b611f0281611d07565b8114611f0c575f80fd5b50565b5f81359050611f1d81611ef9565b92915050565b611f2c81611cce565b8114611f36575f80fd5b50565b5f81359050611f4781611f23565b92915050565b5f805f805f60a08688031215611f6657611f65611aab565b5b5f611f7388828901611ad2565b955050602086013567ffffffffffffffff811115611f9457611f93611aaf565b5b611fa088828901611ecc565b9450506040611fb188828901611ad2565b9350506060611fc288828901611f0f565b9250506080611fd388828901611f39565b9150509295509295909350565b5f8060408385031215611ff657611ff5611aab565b5b5f61200385828601611bf7565b925050602061201485828601611ad2565b9150509250929050565b61202781611cce565b82525050565b5f6020820190506120405f83018461201e565b92915050565b5f805f806080858703121561205e5761205d611aab565b5b5f61206b87828801611ad2565b945050602061207c87828801611f0f565b935050604061208d87828801611ad2565b925050606061209e87828801611ad2565b91505092959194509250565b608082015f8201516120be5f850182611d18565b5060208201516120d16020850182611b3a565b5060408201516120e46040850182611b3a565b5060608201516120f76060850182611b3a565b50505050565b5f6080820190506121105f8301846120aa565b92915050565b5f67ffffffffffffffff8211156121305761212f611dd5565b5b602082029050602081019050919050565b5f80fd5b5f61215761215284612116565b611e33565b9050808382526020820190506020840283018581111561217a57612179612141565b5b835b818110156121a3578061218f8882611ad2565b84526020840193505060208101905061217c565b5050509392505050565b5f82601f8301126121c1576121c0611dcd565b5b81356121d1848260208601612145565b91505092915050565b5f80604083850312156121f0576121ef611aab565b5b5f6121fd85828601611ad2565b925050602083013567ffffffffffffffff81111561221e5761221d611aaf565b5b61222a858286016121ad565b9150509250929050565b61223d81611d07565b82525050565b5f6020820190506122565f830184612234565b92915050565b5f806040838503121561227257612271611aab565b5b5f83013567ffffffffffffffff81111561228f5761228e611aaf565b5b61229b85828601611ecc565b92505060206122ac85828601611bf7565b9150509250929050565b5f60a083015f8301516122cb5f860182611b3a565b50602083015184820360208601526122e38282611c96565b91505060408301516122f86040860182611b3a565b50606083015161230b6060860182611d18565b50608083015161231e6080860182611cd9565b508091505092915050565b5f6020820190508181035f83015261234181846122b6565b905092915050565b7f4e487b71000000000000000000000000000000000000000000000000000000005f52602160045260245ffd5b5f82825260208201905092915050565b7f6a6f62206f776e6572206f6e6c790000000000000000000000000000000000005f82015250565b5f6123ba600e83612376565b91506123c582612386565b602082019050919050565b5f6020820190508181035f8301526123e7816123ae565b9050919050565b7f4e487b71000000000000000000000000000000000000000000000000000000005f52602260045260245ffd5b5f600282049050600182168061243257607f821691505b602082108103612445576124446123ee565b5b50919050565b7f6a6f6220756e617661696c61626c6500000000000000000000000000000000005f82015250565b5f61247f600f83612376565b915061248a8261244b565b602082019050919050565b5f6020820190508181035f8301526124ac81612473565b9050919050565b5f819050815f5260205f209050919050565b5f6020601f8301049050919050565b5f82821b905092915050565b5f6008830261250f7fffffffffffffffffffffffffffffffffffffffffffffffffffffffffffffffff826124d4565b61251986836124d4565b95508019841693508086168417925050509392505050565b5f819050919050565b5f61255461254f61254a84611ab3565b612531565b611ab3565b9050919050565b5f819050919050565b61256d8361253a565b6125816125798261255b565b8484546124e0565b825550505050565b5f90565b612595612589565b6125a0818484612564565b505050565b5b818110156125c3576125b85f8261258d565b6001810190506125a6565b5050565b601f821115612608576125d9816124b3565b6125e2846124c5565b810160208510156125f1578190505b6126056125fd856124c5565b8301826125a5565b50505b505050565b5f82821c905092915050565b5f6126285f198460080261260d565b1980831691505092915050565b5f6126408383612619565b9150826002028217905092915050565b61265982611c5e565b67ffffffffffffffff81111561267257612671611dd5565b5b61267c825461241b565b6126878282856125c7565b5f60209050601f8311600181146126b8575f84156126a6578287015190505b6126b08582612635565b865550612717565b601f1984166126c6866124b3565b5f5b828110156126ed578489015182556001820191506020850194506020810190506126c8565b8683101561270a5784890151612706601f891682612619565b8355505b6001600288020188555050505b505050505050565b7f61646d696e206f6e6c79000000000000000000000000000000000000000000005f82015250565b5f612753600a83612376565b915061275e8261271f565b602082019050919050565b5f6020820190508181035f83015261278081612747565b9050919050565b7f726577617264207472616e73666572206661696c6564000000000000000000005f82015250565b5f6127bb601683612376565b91506127c682612787565b602082019050919050565b5f6020820190508181035f8301526127e8816127af565b9050919050565b7f4e487b71000000000000000000000000000000000000000000000000000000005f52603260045260245ffd5b7f4e487b71000000000000000000000000000000000000000000000000000000005f52601160045260245ffd5b5f61285382611ab3565b915061285e83611ab3565b92508282039050818111156128765761287561281c565b5b92915050565b5f61288682611ab3565b915061289183611ab3565b92508282019050808211156128a9576128a861281c565b5b92915050565b5f6128b982611ab3565b91507fffffffffffffffffffffffffffffffffffffffffffffffffffffffffffffffff82036128eb576128ea61281c565b5b600182019050919050565b7f7061796d656e74207472616e73666572206661696c65640000000000000000005f82015250565b5f61292a601783612376565b9150612935826128f6565b602082019050919050565b5f6020820190508181035f8301526129578161291e565b9050919050565b7f696e73756666696369656e742066756e6473207472616e736d697474656400005f82015250565b5f612992601e83612376565b915061299d8261295e565b602082019050919050565b5f6020820190508181035f8301526129bf81612986565b9050919050565b5f6060820190506129d95f830186612234565b6129e66020830185612234565b6129f36040830184611c36565b949350505050565b5f81519050612a0981611f23565b92915050565b5f60208284031215612a2457612a23611aab565b5b5f612a31848285016129fb565b91505092915050565b5f612a4482611ab3565b9150612a4f83611ab3565b9250828202612a5d81611ab3565b91508282048414831517612a7457612a7361281c565b5b509291505056fea2646970667358221220feef2c8021e576c793ad3b4700e30b920477ffbf66ca940f8a953ac7d76d2e2364736f6c634300081a0033",
					"opcodes": "PUSH1 0xE0 PUSH1 0x40 MSTORE CALLVALUE DUP1 ISZERO PUSH2 0xF JUMPI PUSH0 DUP1 REVERT JUMPDEST POP PUSH1 0x40 MLOAD PUSH2 0x2CB3 CODESIZE SUB DUP1 PUSH2 0x2CB3 DUP4 CODECOPY DUP2 DUP2 ADD PUSH1 0x40 MSTORE DUP2 ADD SWAP1 PUSH2 0x31 SWAP2 SWAP1 PUSH2 0x17A JUMP JUMPDEST DUP3 PUSH1 0x1 PUSH0 PUSH2 0x100 EXP DUP2 SLOAD DUP2 PUSH20 0xFFFFFFFFFFFFFFFFFFFFFFFFFFFFFFFFFFFFFFFF MUL NOT AND SWAP1 DUP4 PUSH20 0xFFFFFFFFFFFFFFFFFFFFFFFFFFFFFFFFFFFFFFFF AND MUL OR SWAP1 SSTORE POP DUP2 PUSH20 0xFFFFFFFFFFFFFFFFFFFFFFFFFFFFFFFFFFFFFFFF AND PUSH1 0xA0 DUP2 PUSH20 0xFFFFFFFFFFFFFFFFFFFFFFFFFFFFFFFFFFFFFFFF AND DUP2 MSTORE POP POP ADDRESS PUSH20 0xFFFFFFFFFFFFFFFFFFFFFFFFFFFFFFFFFFFFFFFF AND PUSH1 0x80 DUP2 PUSH20 0xFFFFFFFFFFFFFFFFFFFFFFFFFFFFFFFFFFFFFFFF AND DUP2 MSTORE POP POP DUP1 PUSH1 0xC0 DUP2 DUP2 MSTORE POP POP POP POP POP PUSH2 0x1CA JUMP JUMPDEST PUSH0 DUP1 REVERT JUMPDEST PUSH0 PUSH20 0xFFFFFFFFFFFFFFFFFFFFFFFFFFFFFFFFFFFFFFFF DUP3 AND SWAP1 POP SWAP2 SWAP1 POP JUMP JUMPDEST PUSH0 PUSH2 0x116 DUP3 PUSH2 0xED JUMP JUMPDEST SWAP1 POP SWAP2 SWAP1 POP JUMP JUMPDEST PUSH2 0x126 DUP2 PUSH2 0x10C JUMP JUMPDEST DUP2 EQ PUSH2 0x130 JUMPI PUSH0 DUP1 REVERT JUMPDEST POP JUMP JUMPDEST PUSH0 DUP2 MLOAD SWAP1 POP PUSH2 0x141 DUP2 PUSH2 0x11D JUMP JUMPDEST SWAP3 SWAP2 POP POP JUMP JUMPDEST PUSH0 DUP2 SWAP1 POP SWAP2 SWAP1 POP JUMP JUMPDEST PUSH2 0x159 DUP2 PUSH2 0x147 JUMP JUMPDEST DUP2 EQ PUSH2 0x163 JUMPI PUSH0 DUP1 REVERT JUMPDEST POP JUMP JUMPDEST PUSH0 DUP2 MLOAD SWAP1 POP PUSH2 0x174 DUP2 PUSH2 0x150 JUMP JUMPDEST SWAP3 SWAP2 POP POP JUMP JUMPDEST PUSH0 DUP1 PUSH0 PUSH1 0x60 DUP5 DUP7 SUB SLT ISZERO PUSH2 0x191 JUMPI PUSH2 0x190 PUSH2 0xE9 JUMP JUMPDEST JUMPDEST PUSH0 PUSH2 0x19E DUP7 DUP3 DUP8 ADD PUSH2 0x133 JUMP JUMPDEST SWAP4 POP POP PUSH1 0x20 PUSH2 0x1AF DUP7 DUP3 DUP8 ADD PUSH2 0x133 JUMP JUMPDEST SWAP3 POP POP PUSH1 0x40 PUSH2 0x1C0 DUP7 DUP3 DUP8 ADD PUSH2 0x166 JUMP JUMPDEST SWAP2 POP POP SWAP3 POP SWAP3 POP SWAP3 JUMP JUMPDEST PUSH1 0x80 MLOAD PUSH1 0xA0 MLOAD PUSH1 0xC0 MLOAD PUSH2 0x2AB1 PUSH2 0x202 PUSH0 CODECOPY PUSH0 PUSH2 0xFE2 ADD MSTORE PUSH0 DUP2 DUP2 PUSH2 0x10C4 ADD MSTORE PUSH2 0x115F ADD MSTORE PUSH0 DUP2 DUP2 PUSH2 0x174C ADD MSTORE PUSH2 0x188E ADD MSTORE PUSH2 0x2AB1 PUSH0 RETURN INVALID PUSH1 0x80 PUSH1 0x40 MSTORE PUSH1 0x4 CALLDATASIZE LT PUSH2 0xE7 JUMPI PUSH0 CALLDATALOAD PUSH1 0xE0 SHR DUP1 PUSH4 0x78D5B517 GT PUSH2 0x89 JUMPI DUP1 PUSH4 0xA9144E1A GT PUSH2 0x58 JUMPI DUP1 PUSH4 0xA9144E1A EQ PUSH2 0x33D JUMPI DUP1 PUSH4 0xBF22C457 EQ PUSH2 0x36D JUMPI DUP1 PUSH4 0xCD449446 EQ PUSH2 0x3A9 JUMPI DUP1 PUSH4 0xEEA3F82D EQ PUSH2 0x3E5 JUMPI PUSH2 0xE7 JUMP JUMPDEST DUP1 PUSH4 0x78D5B517 EQ PUSH2 0x26B JUMPI DUP1 PUSH4 0x83238FB4 EQ PUSH2 0x29B JUMPI DUP1 PUSH4 0x9217CBE0 EQ PUSH2 0x2D7 JUMPI DUP1 PUSH4 0x970E003C EQ PUSH2 0x301 JUMPI PUSH2 0xE7 JUMP JUMPDEST DUP1 PUSH4 0x43351D95 GT PUSH2 0xC5 JUMPI DUP1 PUSH4 0x43351D95 EQ PUSH2 0x18D JUMPI DUP1 PUSH4 0x4B0FA847 EQ PUSH2 0x1C9 JUMPI DUP1 PUSH4 0x4FB3BEBC EQ PUSH2 0x1F3 JUMPI DUP1 PUSH4 0x6A00670B EQ PUSH2 0x22F JUMPI PUSH2 0xE7 JUMP JUMPDEST DUP1 PUSH4 0x98B2CBD EQ PUSH2 0xEB JUMPI DUP1 PUSH4 0x37F1E7F2 EQ PUSH2 0x127 JUMPI DUP1 PUSH4 0x393F190D EQ PUSH2 0x163 JUMPI JUMPDEST PUSH0 DUP1 REVERT JUMPDEST CALLVALUE DUP1 ISZERO PUSH2 0xF6 JUMPI PUSH0 DUP1 REVERT JUMPDEST POP PUSH2 0x111 PUSH1 0x4 DUP1 CALLDATASIZE SUB DUP2 ADD SWAP1 PUSH2 0x10C SWAP2 SWAP1 PUSH2 0x1AE6 JUMP JUMPDEST PUSH2 0x421 JUMP JUMPDEST PUSH1 0x40 MLOAD PUSH2 0x11E SWAP2 SWAP1 PUSH2 0x1BC8 JUMP JUMPDEST PUSH1 0x40 MLOAD DUP1 SWAP2 SUB SWAP1 RETURN JUMPDEST CALLVALUE DUP1 ISZERO PUSH2 0x132 JUMPI PUSH0 DUP1 REVERT JUMPDEST POP PUSH2 0x14D PUSH1 0x4 DUP1 CALLDATASIZE SUB DUP2 ADD SWAP1 PUSH2 0x148 SWAP2 SWAP1 PUSH2 0x1C0B JUMP JUMPDEST PUSH2 0x488 JUMP JUMPDEST PUSH1 0x40 MLOAD PUSH2 0x15A SWAP2 SWAP1 PUSH2 0x1C45 JUMP JUMPDEST PUSH1 0x40 MLOAD DUP1 SWAP2 SUB SWAP1 RETURN JUMPDEST CALLVALUE DUP1 ISZERO PUSH2 0x16E JUMPI PUSH0 DUP1 REVERT JUMPDEST POP PUSH2 0x177 PUSH2 0x4C6 JUMP JUMPDEST PUSH1 0x40 MLOAD PUSH2 0x184 SWAP2 SWAP1 PUSH2 0x1BC8 JUMP JUMPDEST PUSH1 0x40 MLOAD DUP1 SWAP2 SUB SWAP1 RETURN JUMPDEST CALLVALUE DUP1 ISZERO PUSH2 0x198 JUMPI PUSH0 DUP1 REVERT JUMPDEST POP PUSH2 0x1B3 PUSH1 0x4 DUP1 CALLDATASIZE SUB DUP2 ADD SWAP1 PUSH2 0x1AE SWAP2 SWAP1 PUSH2 0x1AE6 JUMP JUMPDEST PUSH2 0x557 JUMP JUMPDEST PUSH1 0x40 MLOAD PUSH2 0x1C0 SWAP2 SWAP1 PUSH2 0x1DAD JUMP JUMPDEST PUSH1 0x40 MLOAD DUP1 SWAP2 SUB SWAP1 RETURN JUMPDEST CALLVALUE DUP1 ISZERO PUSH2 0x1D4 JUMPI PUSH0 DUP1 REVERT JUMPDEST POP PUSH2 0x1DD PUSH2 0x76C JUMP JUMPDEST PUSH1 0x40 MLOAD PUSH2 0x1EA SWAP2 SWAP1 PUSH2 0x1BC8 JUMP JUMPDEST PUSH1 0x40 MLOAD DUP1 SWAP2 SUB SWAP1 RETURN JUMPDEST CALLVALUE DUP1 ISZERO PUSH2 0x1FE JUMPI PUSH0 DUP1 REVERT JUMPDEST POP PUSH2 0x219 PUSH1 0x4 DUP1 CALLDATASIZE SUB DUP2 ADD SWAP1 PUSH2 0x214 SWAP2 SWAP1 PUSH2 0x1F4D JUMP JUMPDEST PUSH2 0x7C2 JUMP JUMPDEST PUSH1 0x40 MLOAD PUSH2 0x226 SWAP2 SWAP1 PUSH2 0x1C45 JUMP JUMPDEST PUSH1 0x40 MLOAD DUP1 SWAP2 SUB SWAP1 RETURN JUMPDEST CALLVALUE DUP1 ISZERO PUSH2 0x23A JUMPI PUSH0 DUP1 REVERT JUMPDEST POP PUSH2 0x255 PUSH1 0x4 DUP1 CALLDATASIZE SUB DUP2 ADD SWAP1 PUSH2 0x250 SWAP2 SWAP1 PUSH2 0x1FE0 JUMP JUMPDEST PUSH2 0x96C JUMP JUMPDEST PUSH1 0x40 MLOAD PUSH2 0x262 SWAP2 SWAP1 PUSH2 0x202D JUMP JUMPDEST PUSH1 0x40 MLOAD DUP1 SWAP2 SUB SWAP1 RETURN JUMPDEST PUSH2 0x285 PUSH1 0x4 DUP1 CALLDATASIZE SUB DUP2 ADD SWAP1 PUSH2 0x280 SWAP2 SWAP1 PUSH2 0x2046 JUMP JUMPDEST PUSH2 0xA40 JUMP JUMPDEST PUSH1 0x40 MLOAD PUSH2 0x292 SWAP2 SWAP1 PUSH2 0x20FD JUMP JUMPDEST PUSH1 0x40 MLOAD DUP1 SWAP2 SUB SWAP1 RETURN JUMPDEST CALLVALUE DUP1 ISZERO PUSH2 0x2A6 JUMPI PUSH0 DUP1 REVERT JUMPDEST POP PUSH2 0x2C1 PUSH1 0x4 DUP1 CALLDATASIZE SUB DUP2 ADD SWAP1 PUSH2 0x2BC SWAP2 SWAP1 PUSH2 0x21DA JUMP JUMPDEST PUSH2 0xD08 JUMP JUMPDEST PUSH1 0x40 MLOAD PUSH2 0x2CE SWAP2 SWAP1 PUSH2 0x1C45 JUMP JUMPDEST PUSH1 0x40 MLOAD DUP1 SWAP2 SUB SWAP1 RETURN JUMPDEST CALLVALUE DUP1 ISZERO PUSH2 0x2E2 JUMPI PUSH0 DUP1 REVERT JUMPDEST POP PUSH2 0x2EB PUSH2 0x10C1 JUMP JUMPDEST PUSH1 0x40 MLOAD PUSH2 0x2F8 SWAP2 SWAP1 PUSH2 0x2243 JUMP JUMPDEST PUSH1 0x40 MLOAD DUP1 SWAP2 SUB SWAP1 RETURN JUMPDEST CALLVALUE DUP1 ISZERO PUSH2 0x30C JUMPI PUSH0 DUP1 REVERT JUMPDEST POP PUSH2 0x327 PUSH1 0x4 DUP1 CALLDATASIZE SUB DUP2 ADD SWAP1 PUSH2 0x322 SWAP2 SWAP1 PUSH2 0x1AE6 JUMP JUMPDEST PUSH2 0x10E8 JUMP JUMPDEST PUSH1 0x40 MLOAD PUSH2 0x334 SWAP2 SWAP1 PUSH2 0x202D JUMP JUMPDEST PUSH1 0x40 MLOAD DUP1 SWAP2 SUB SWAP1 RETURN JUMPDEST PUSH2 0x357 PUSH1 0x4 DUP1 CALLDATASIZE SUB DUP2 ADD SWAP1 PUSH2 0x352 SWAP2 SWAP1 PUSH2 0x225C JUMP JUMPDEST PUSH2 0x110E JUMP JUMPDEST PUSH1 0x40 MLOAD PUSH2 0x364 SWAP2 SWAP1 PUSH2 0x1DAD JUMP JUMPDEST PUSH1 0x40 MLOAD DUP1 SWAP2 SUB SWAP1 RETURN JUMPDEST CALLVALUE DUP1 ISZERO PUSH2 0x378 JUMPI PUSH0 DUP1 REVERT JUMPDEST POP PUSH2 0x393 PUSH1 0x4 DUP1 CALLDATASIZE SUB DUP2 ADD SWAP1 PUSH2 0x38E SWAP2 SWAP1 PUSH2 0x1AE6 JUMP JUMPDEST PUSH2 0x1357 JUMP JUMPDEST PUSH1 0x40 MLOAD PUSH2 0x3A0 SWAP2 SWAP1 PUSH2 0x1DAD JUMP JUMPDEST PUSH1 0x40 MLOAD DUP1 SWAP2 SUB SWAP1 RETURN JUMPDEST CALLVALUE DUP1 ISZERO PUSH2 0x3B4 JUMPI PUSH0 DUP1 REVERT JUMPDEST POP PUSH2 0x3CF PUSH1 0x4 DUP1 CALLDATASIZE SUB DUP2 ADD SWAP1 PUSH2 0x3CA SWAP2 SWAP1 PUSH2 0x1AE6 JUMP JUMPDEST PUSH2 0x149F JUMP JUMPDEST PUSH1 0x40 MLOAD PUSH2 0x3DC SWAP2 SWAP1 PUSH2 0x20FD JUMP JUMPDEST PUSH1 0x40 MLOAD DUP1 SWAP2 SUB SWAP1 RETURN JUMPDEST CALLVALUE DUP1 ISZERO PUSH2 0x3F0 JUMPI PUSH0 DUP1 REVERT JUMPDEST POP PUSH2 0x40B PUSH1 0x4 DUP1 CALLDATASIZE SUB DUP2 ADD SWAP1 PUSH2 0x406 SWAP2 SWAP1 PUSH2 0x1AE6 JUMP JUMPDEST PUSH2 0x153C JUMP JUMPDEST PUSH1 0x40 MLOAD PUSH2 0x418 SWAP2 SWAP1 PUSH2 0x2329 JUMP JUMPDEST PUSH1 0x40 MLOAD DUP1 SWAP2 SUB SWAP1 RETURN JUMPDEST PUSH1 0x60 PUSH1 0x8 PUSH0 DUP4 DUP2 MSTORE PUSH1 0x20 ADD SWAP1 DUP2 MSTORE PUSH1 0x20 ADD PUSH0 KECCAK256 DUP1 SLOAD DUP1 PUSH1 0x20 MUL PUSH1 0x20 ADD PUSH1 0x40 MLOAD SWAP1 DUP2 ADD PUSH1 0x40 MSTORE DUP1 SWAP3 SWAP2 SWAP1 DUP2 DUP2 MSTORE PUSH1 0x20 ADD DUP3 DUP1 SLOAD DUP1 ISZERO PUSH2 0x47C JUMPI PUSH1 0x20 MUL DUP3 ADD SWAP2 SWAP1 PUSH0 MSTORE PUSH1 0x20 PUSH0 KECCAK256 SWAP1 JUMPDEST DUP2 SLOAD DUP2 MSTORE PUSH1 0x20 ADD SWAP1 PUSH1 0x1 ADD SWAP1 DUP1 DUP4 GT PUSH2 0x468 JUMPI JUMPDEST POP POP POP POP POP SWAP1 POP SWAP2 SWAP1 POP JUMP JUMPDEST PUSH0 PUSH1 0x7 PUSH0 DUP4 PUSH1 0x2 DUP2 GT ISZERO PUSH2 0x49F JUMPI PUSH2 0x49E PUSH2 0x2349 JUMP JUMPDEST JUMPDEST PUSH1 0x2 DUP2 GT ISZERO PUSH2 0x4B1 JUMPI PUSH2 0x4B0 PUSH2 0x2349 JUMP JUMPDEST JUMPDEST DUP2 MSTORE PUSH1 0x20 ADD SWAP1 DUP2 MSTORE PUSH1 0x20 ADD PUSH0 KECCAK256 SLOAD SWAP1 POP SWAP2 SWAP1 POP JUMP JUMPDEST PUSH1 0x60 PUSH1 0x4 PUSH0 CALLER PUSH20 0xFFFFFFFFFFFFFFFFFFFFFFFFFFFFFFFFFFFFFFFF AND PUSH20 0xFFFFFFFFFFFFFFFFFFFFFFFFFFFFFFFFFFFFFFFF AND DUP2 MSTORE PUSH1 0x20 ADD SWAP1 DUP2 MSTORE PUSH1 0x20 ADD PUSH0 KECCAK256 DUP1 SLOAD DUP1 PUSH1 0x20 MUL PUSH1 0x20 ADD PUSH1 0x40 MLOAD SWAP1 DUP2 ADD PUSH1 0x40 MSTORE DUP1 SWAP3 SWAP2 SWAP1 DUP2 DUP2 MSTORE PUSH1 0x20 ADD DUP3 DUP1 SLOAD DUP1 ISZERO PUSH2 0x54D JUMPI PUSH1 0x20 MUL DUP3 ADD SWAP2 SWAP1 PUSH0 MSTORE PUSH1 0x20 PUSH0 KECCAK256 SWAP1 JUMPDEST DUP2 SLOAD DUP2 MSTORE PUSH1 0x20 ADD SWAP1 PUSH1 0x1 ADD SWAP1 DUP1 DUP4 GT PUSH2 0x539 JUMPI JUMPDEST POP POP POP POP POP SWAP1 POP SWAP1 JUMP JUMPDEST PUSH2 0x55F PUSH2 0x19DC JUMP JUMPDEST CALLER PUSH20 0xFFFFFFFFFFFFFFFFFFFFFFFFFFFFFFFFFFFFFFFF AND PUSH1 0x3 PUSH0 DUP5 DUP2 MSTORE PUSH1 0x20 ADD SWAP1 DUP2 MSTORE PUSH1 0x20 ADD PUSH0 KECCAK256 PUSH1 0x4 ADD PUSH1 0x1 SWAP1 SLOAD SWAP1 PUSH2 0x100 EXP SWAP1 DIV PUSH20 0xFFFFFFFFFFFFFFFFFFFFFFFFFFFFFFFFFFFFFFFF AND PUSH20 0xFFFFFFFFFFFFFFFFFFFFFFFFFFFFFFFFFFFFFFFF AND EQ PUSH2 0x601 JUMPI PUSH1 0x40 MLOAD PUSH32 0x8C379A000000000000000000000000000000000000000000000000000000000 DUP2 MSTORE PUSH1 0x4 ADD PUSH2 0x5F8 SWAP1 PUSH2 0x23D0 JUMP JUMPDEST PUSH1 0x40 MLOAD DUP1 SWAP2 SUB SWAP1 REVERT JUMPDEST PUSH0 PUSH1 0x3 PUSH0 DUP5 DUP2 MSTORE PUSH1 0x20 ADD SWAP1 DUP2 MSTORE PUSH1 0x20 ADD PUSH0 KECCAK256 PUSH1 0x4 ADD PUSH0 PUSH2 0x100 EXP DUP2 SLOAD DUP2 PUSH1 0xFF MUL NOT AND SWAP1 DUP4 ISZERO ISZERO MUL OR SWAP1 SSTORE POP PUSH1 0x3 PUSH0 DUP4 DUP2 MSTORE PUSH1 0x20 ADD SWAP1 DUP2 MSTORE PUSH1 0x20 ADD PUSH0 KECCAK256 PUSH1 0x40 MLOAD DUP1 PUSH1 0xC0 ADD PUSH1 0x40 MSTORE SWAP1 DUP2 PUSH0 DUP3 ADD SLOAD DUP2 MSTORE PUSH1 0x20 ADD PUSH1 0x1 DUP3 ADD DUP1 SLOAD PUSH2 0x661 SWAP1 PUSH2 0x241B JUMP JUMPDEST DUP1 PUSH1 0x1F ADD PUSH1 0x20 DUP1 SWAP2 DIV MUL PUSH1 0x20 ADD PUSH1 0x40 MLOAD SWAP1 DUP2 ADD PUSH1 0x40 MSTORE DUP1 SWAP3 SWAP2 SWAP1 DUP2 DUP2 MSTORE PUSH1 0x20 ADD DUP3 DUP1 SLOAD PUSH2 0x68D SWAP1 PUSH2 0x241B JUMP JUMPDEST DUP1 ISZERO PUSH2 0x6D8 JUMPI DUP1 PUSH1 0x1F LT PUSH2 0x6AF JUMPI PUSH2 0x100 DUP1 DUP4 SLOAD DIV MUL DUP4 MSTORE SWAP2 PUSH1 0x20 ADD SWAP2 PUSH2 0x6D8 JUMP JUMPDEST DUP3 ADD SWAP2 SWAP1 PUSH0 MSTORE PUSH1 0x20 PUSH0 KECCAK256 SWAP1 JUMPDEST DUP2 SLOAD DUP2 MSTORE SWAP1 PUSH1 0x1 ADD SWAP1 PUSH1 0x20 ADD DUP1 DUP4 GT PUSH2 0x6BB JUMPI DUP3 SWAP1 SUB PUSH1 0x1F AND DUP3 ADD SWAP2 JUMPDEST POP POP POP POP POP DUP2 MSTORE PUSH1 0x20 ADD PUSH1 0x2 DUP3 ADD SLOAD DUP2 MSTORE PUSH1 0x20 ADD PUSH1 0x3 DUP3 ADD SLOAD DUP2 MSTORE PUSH1 0x20 ADD PUSH1 0x4 DUP3 ADD PUSH0 SWAP1 SLOAD SWAP1 PUSH2 0x100 EXP SWAP1 DIV PUSH1 0xFF AND ISZERO ISZERO ISZERO ISZERO DUP2 MSTORE PUSH1 0x20 ADD PUSH1 0x4 DUP3 ADD PUSH1 0x1 SWAP1 SLOAD SWAP1 PUSH2 0x100 EXP SWAP1 DIV PUSH20 0xFFFFFFFFFFFFFFFFFFFFFFFFFFFFFFFFFFFFFFFF AND PUSH20 0xFFFFFFFFFFFFFFFFFFFFFFFFFFFFFFFFFFFFFFFF AND PUSH20 0xFFFFFFFFFFFFFFFFFFFFFFFFFFFFFFFFFFFFFFFF AND DUP2 MSTORE POP POP SWAP1 POP SWAP2 SWAP1 POP JUMP JUMPDEST PUSH1 0x60 PUSH1 0x2 DUP1 SLOAD DUP1 PUSH1 0x20 MUL PUSH1 0x20 ADD PUSH1 0x40 MLOAD SWAP1 DUP2 ADD PUSH1 0x40 MSTORE DUP1 SWAP3 SWAP2 SWAP1 DUP2 DUP2 MSTORE PUSH1 0x20 ADD DUP3 DUP1 SLOAD DUP1 ISZERO PUSH2 0x7B8 JUMPI PUSH1 0x20 MUL DUP3 ADD SWAP2 SWAP1 PUSH0 MSTORE PUSH1 0x20 PUSH0 KECCAK256 SWAP1 JUMPDEST DUP2 SLOAD DUP2 MSTORE PUSH1 0x20 ADD SWAP1 PUSH1 0x1 ADD SWAP1 DUP1 DUP4 GT PUSH2 0x7A4 JUMPI JUMPDEST POP POP POP POP POP SWAP1 POP SWAP1 JUMP JUMPDEST PUSH0 PUSH1 0x1 ISZERO ISZERO PUSH1 0x3 PUSH0 DUP9 DUP2 MSTORE PUSH1 0x20 ADD SWAP1 DUP2 MSTORE PUSH1 0x20 ADD PUSH0 KECCAK256 PUSH1 0x4 ADD PUSH0 SWAP1 SLOAD SWAP1 PUSH2 0x100 EXP SWAP1 DIV PUSH1 0xFF AND ISZERO ISZERO EQ PUSH2 0x82A JUMPI PUSH1 0x40 MLOAD PUSH32 0x8C379A000000000000000000000000000000000000000000000000000000000 DUP2 MSTORE PUSH1 0x4 ADD PUSH2 0x821 SWAP1 PUSH2 0x2495 JUMP JUMPDEST PUSH1 0x40 MLOAD DUP1 SWAP2 SUB SWAP1 REVERT JUMPDEST PUSH0 PUSH2 0x833 PUSH2 0x167A JUMP JUMPDEST SWAP1 POP PUSH1 0x40 MLOAD DUP1 PUSH1 0xA0 ADD PUSH1 0x40 MSTORE DUP1 DUP3 DUP2 MSTORE PUSH1 0x20 ADD DUP8 DUP2 MSTORE PUSH1 0x20 ADD DUP7 DUP2 MSTORE PUSH1 0x20 ADD DUP6 PUSH20 0xFFFFFFFFFFFFFFFFFFFFFFFFFFFFFFFFFFFFFFFF AND DUP2 MSTORE PUSH1 0x20 ADD DUP5 ISZERO ISZERO DUP2 MSTORE POP PUSH1 0x9 PUSH0 DUP4 DUP2 MSTORE PUSH1 0x20 ADD SWAP1 DUP2 MSTORE PUSH1 0x20 ADD PUSH0 KECCAK256 PUSH0 DUP3 ADD MLOAD DUP2 PUSH0 ADD SSTORE PUSH1 0x20 DUP3 ADD MLOAD DUP2 PUSH1 0x1 ADD SWAP1 DUP2 PUSH2 0x8A2 SWAP2 SWAP1 PUSH2 0x2650 JUMP JUMPDEST POP PUSH1 0x40 DUP3 ADD MLOAD DUP2 PUSH1 0x2 ADD SSTORE PUSH1 0x60 DUP3 ADD MLOAD DUP2 PUSH1 0x3 ADD PUSH0 PUSH2 0x100 EXP DUP2 SLOAD DUP2 PUSH20 0xFFFFFFFFFFFFFFFFFFFFFFFFFFFFFFFFFFFFFFFF MUL NOT AND SWAP1 DUP4 PUSH20 0xFFFFFFFFFFFFFFFFFFFFFFFFFFFFFFFFFFFFFFFF AND MUL OR SWAP1 SSTORE POP PUSH1 0x80 DUP3 ADD MLOAD DUP2 PUSH1 0x3 ADD PUSH1 0x14 PUSH2 0x100 EXP DUP2 SLOAD DUP2 PUSH1 0xFF MUL NOT AND SWAP1 DUP4 ISZERO ISZERO MUL OR SWAP1 SSTORE POP SWAP1 POP POP PUSH1 0x8 PUSH0 DUP9 DUP2 MSTORE PUSH1 0x20 ADD SWAP1 DUP2 MSTORE PUSH1 0x20 ADD PUSH0 KECCAK256 DUP2 SWAP1 DUP1 PUSH1 0x1 DUP2 SLOAD ADD DUP1 DUP3 SSTORE DUP1 SWAP2 POP POP PUSH1 0x1 SWAP1 SUB SWAP1 PUSH0 MSTORE PUSH1 0x20 PUSH0 KECCAK256 ADD PUSH0 SWAP1 SWAP2 SWAP1 SWAP2 SWAP1 SWAP2 POP SSTORE PUSH1 0x8 PUSH0 DUP9 DUP2 MSTORE PUSH1 0x20 ADD SWAP1 DUP2 MSTORE PUSH1 0x20 ADD PUSH0 KECCAK256 DUP1 SLOAD SWAP1 POP SWAP2 POP POP SWAP6 SWAP5 POP POP POP POP POP JUMP JUMPDEST PUSH0 PUSH1 0x1 PUSH0 SWAP1 SLOAD SWAP1 PUSH2 0x100 EXP SWAP1 DIV PUSH20 0xFFFFFFFFFFFFFFFFFFFFFFFFFFFFFFFFFFFFFFFF AND PUSH20 0xFFFFFFFFFFFFFFFFFFFFFFFFFFFFFFFFFFFFFFFF AND CALLER PUSH20 0xFFFFFFFFFFFFFFFFFFFFFFFFFFFFFFFFFFFFFFFF AND EQ PUSH2 0x9FC JUMPI PUSH1 0x40 MLOAD PUSH32 0x8C379A000000000000000000000000000000000000000000000000000000000 DUP2 MSTORE PUSH1 0x4 ADD PUSH2 0x9F3 SWAP1 PUSH2 0x2769 JUMP JUMPDEST PUSH1 0x40 MLOAD DUP1 SWAP2 SUB SWAP1 REVERT JUMPDEST DUP2 PUSH1 0x7 PUSH0 DUP6 PUSH1 0x2 DUP2 GT ISZERO PUSH2 0xA13 JUMPI PUSH2 0xA12 PUSH2 0x2349 JUMP JUMPDEST JUMPDEST PUSH1 0x2 DUP2 GT ISZERO PUSH2 0xA25 JUMPI PUSH2 0xA24 PUSH2 0x2349 JUMP JUMPDEST JUMPDEST DUP2 MSTORE PUSH1 0x20 ADD SWAP1 DUP2 MSTORE PUSH1 0x20 ADD PUSH0 KECCAK256 DUP2 SWAP1 SSTORE POP PUSH1 0x1 SWAP1 POP SWAP3 SWAP2 POP POP JUMP JUMPDEST PUSH2 0xA48 PUSH2 0x1A25 JUMP JUMPDEST CALLER PUSH20 0xFFFFFFFFFFFFFFFFFFFFFFFFFFFFFFFFFFFFFFFF AND PUSH1 0x3 PUSH0 DUP8 DUP2 MSTORE PUSH1 0x20 ADD SWAP1 DUP2 MSTORE PUSH1 0x20 ADD PUSH0 KECCAK256 PUSH1 0x4 ADD PUSH1 0x1 SWAP1 SLOAD SWAP1 PUSH2 0x100 EXP SWAP1 DIV PUSH20 0xFFFFFFFFFFFFFFFFFFFFFFFFFFFFFFFFFFFFFFFF AND PUSH20 0xFFFFFFFFFFFFFFFFFFFFFFFFFFFFFFFFFFFFFFFF AND EQ PUSH2 0xAEA JUMPI PUSH1 0x40 MLOAD PUSH32 0x8C379A000000000000000000000000000000000000000000000000000000000 DUP2 MSTORE PUSH1 0x4 ADD PUSH2 0xAE1 SWAP1 PUSH2 0x23D0 JUMP JUMPDEST PUSH1 0x40 MLOAD DUP1 SWAP2 SUB SWAP1 REVERT JUMPDEST PUSH1 0x1 ISZERO ISZERO PUSH1 0x3 PUSH0 DUP8 DUP2 MSTORE PUSH1 0x20 ADD SWAP1 DUP2 MSTORE PUSH1 0x20 ADD PUSH0 KECCAK256 PUSH1 0x4 ADD PUSH0 SWAP1 SLOAD SWAP1 PUSH2 0x100 EXP SWAP1 DIV PUSH1 0xFF AND ISZERO ISZERO EQ PUSH2 0xB51 JUMPI PUSH1 0x40 MLOAD PUSH32 0x8C379A000000000000000000000000000000000000000000000000000000000 DUP2 MSTORE PUSH1 0x4 ADD PUSH2 0xB48 SWAP1 PUSH2 0x2495 JUMP JUMPDEST PUSH1 0x40 MLOAD DUP1 SWAP2 SUB SWAP1 REVERT JUMPDEST PUSH2 0xB5B DUP5 DUP5 PUSH2 0x1695 JUMP JUMPDEST PUSH2 0xB9A JUMPI PUSH1 0x40 MLOAD PUSH32 0x8C379A000000000000000000000000000000000000000000000000000000000 DUP2 MSTORE PUSH1 0x4 ADD PUSH2 0xB91 SWAP1 PUSH2 0x27D1 JUMP JUMPDEST PUSH1 0x40 MLOAD DUP1 SWAP2 SUB SWAP1 REVERT JUMPDEST PUSH1 0x1 PUSH1 0x5 PUSH0 DUP8 DUP2 MSTORE PUSH1 0x20 ADD SWAP1 DUP2 MSTORE PUSH1 0x20 ADD PUSH0 KECCAK256 PUSH0 PUSH2 0x100 EXP DUP2 SLOAD DUP2 PUSH1 0xFF MUL NOT AND SWAP1 DUP4 ISZERO ISZERO MUL OR SWAP1 SSTORE POP PUSH1 0x40 MLOAD DUP1 PUSH1 0x80 ADD PUSH1 0x40 MSTORE DUP1 DUP6 PUSH20 0xFFFFFFFFFFFFFFFFFFFFFFFFFFFFFFFFFFFFFFFF AND DUP2 MSTORE PUSH1 0x20 ADD DUP5 DUP2 MSTORE PUSH1 0x20 ADD DUP4 DUP2 MSTORE PUSH1 0x20 ADD PUSH0 DUP2 MSTORE POP PUSH1 0x6 PUSH0 DUP8 DUP2 MSTORE PUSH1 0x20 ADD SWAP1 DUP2 MSTORE PUSH1 0x20 ADD PUSH0 KECCAK256 PUSH0 DUP3 ADD MLOAD DUP2 PUSH0 ADD PUSH0 PUSH2 0x100 EXP DUP2 SLOAD DUP2 PUSH20 0xFFFFFFFFFFFFFFFFFFFFFFFFFFFFFFFFFFFFFFFF MUL NOT AND SWAP1 DUP4 PUSH20 0xFFFFFFFFFFFFFFFFFFFFFFFFFFFFFFFFFFFFFFFF AND MUL OR SWAP1 SSTORE POP PUSH1 0x20 DUP3 ADD MLOAD DUP2 PUSH1 0x1 ADD SSTORE PUSH1 0x40 DUP3 ADD MLOAD DUP2 PUSH1 0x2 ADD SSTORE PUSH1 0x60 DUP3 ADD MLOAD DUP2 PUSH1 0x3 ADD SSTORE SWAP1 POP POP PUSH1 0x6 PUSH0 DUP7 DUP2 MSTORE PUSH1 0x20 ADD SWAP1 DUP2 MSTORE PUSH1 0x20 ADD PUSH0 KECCAK256 PUSH1 0x40 MLOAD DUP1 PUSH1 0x80 ADD PUSH1 0x40 MSTORE SWAP1 DUP2 PUSH0 DUP3 ADD PUSH0 SWAP1 SLOAD SWAP1 PUSH2 0x100 EXP SWAP1 DIV PUSH20 0xFFFFFFFFFFFFFFFFFFFFFFFFFFFFFFFFFFFFFFFF AND PUSH20 0xFFFFFFFFFFFFFFFFFFFFFFFFFFFFFFFFFFFFFFFF AND PUSH20 0xFFFFFFFFFFFFFFFFFFFFFFFFFFFFFFFFFFFFFFFF AND DUP2 MSTORE PUSH1 0x20 ADD PUSH1 0x1 DUP3 ADD SLOAD DUP2 MSTORE PUSH1 0x20 ADD PUSH1 0x2 DUP3 ADD SLOAD DUP2 MSTORE PUSH1 0x20 ADD PUSH1 0x3 DUP3 ADD SLOAD DUP2 MSTORE POP POP SWAP1 POP SWAP5 SWAP4 POP POP POP POP JUMP JUMPDEST PUSH0 CALLER PUSH20 0xFFFFFFFFFFFFFFFFFFFFFFFFFFFFFFFFFFFFFFFF AND PUSH1 0x3 PUSH0 DUP6 DUP2 MSTORE PUSH1 0x20 ADD SWAP1 DUP2 MSTORE PUSH1 0x20 ADD PUSH0 KECCAK256 PUSH1 0x4 ADD PUSH1 0x1 SWAP1 SLOAD SWAP1 PUSH2 0x100 EXP SWAP1 DIV PUSH20 0xFFFFFFFFFFFFFFFFFFFFFFFFFFFFFFFFFFFFFFFF AND PUSH20 0xFFFFFFFFFFFFFFFFFFFFFFFFFFFFFFFFFFFFFFFF AND EQ PUSH2 0xDAB JUMPI PUSH1 0x40 MLOAD PUSH32 0x8C379A000000000000000000000000000000000000000000000000000000000 DUP2 MSTORE PUSH1 0x4 ADD PUSH2 0xDA2 SWAP1 PUSH2 0x23D0 JUMP JUMPDEST PUSH1 0x40 MLOAD DUP1 SWAP2 SUB SWAP1 REVERT JUMPDEST PUSH0 JUMPDEST DUP3 MLOAD DUP2 LT ISZERO PUSH2 0x10BA JUMPI PUSH0 DUP4 DUP3 DUP2 MLOAD DUP2 LT PUSH2 0xDCA JUMPI PUSH2 0xDC9 PUSH2 0x27EF JUMP JUMPDEST JUMPDEST PUSH1 0x20 MUL PUSH1 0x20 ADD ADD MLOAD SWAP1 POP PUSH0 PUSH1 0x6 PUSH0 DUP8 DUP2 MSTORE PUSH1 0x20 ADD SWAP1 DUP2 MSTORE PUSH1 0x20 ADD PUSH0 KECCAK256 PUSH1 0x3 ADD SLOAD PUSH1 0x6 PUSH0 DUP9 DUP2 MSTORE PUSH1 0x20 ADD SWAP1 DUP2 MSTORE PUSH1 0x20 ADD PUSH0 KECCAK256 PUSH1 0x1 ADD SLOAD PUSH2 0xE09 SWAP2 SWAP1 PUSH2 0x2849 JUMP JUMPDEST SWAP1 POP PUSH1 0xA PUSH0 DUP8 DUP2 MSTORE PUSH1 0x20 ADD SWAP1 DUP2 MSTORE PUSH1 0x20 ADD PUSH0 KECCAK256 PUSH0 DUP4 DUP2 MSTORE PUSH1 0x20 ADD SWAP1 DUP2 MSTORE PUSH1 0x20 ADD PUSH0 KECCAK256 PUSH0 SWAP1 SLOAD SWAP1 PUSH2 0x100 EXP SWAP1 DIV PUSH1 0xFF AND DUP1 ISZERO PUSH2 0xE43 JUMPI POP PUSH0 DUP2 GT JUMPDEST ISZERO PUSH2 0x10AB JUMPI PUSH0 PUSH1 0x9 PUSH0 DUP5 DUP2 MSTORE PUSH1 0x20 ADD SWAP1 DUP2 MSTORE PUSH1 0x20 ADD PUSH0 KECCAK256 PUSH1 0x40 MLOAD DUP1 PUSH1 0xA0 ADD PUSH1 0x40 MSTORE SWAP1 DUP2 PUSH0 DUP3 ADD SLOAD DUP2 MSTORE PUSH1 0x20 ADD PUSH1 0x1 DUP3 ADD DUP1 SLOAD PUSH2 0xE7E SWAP1 PUSH2 0x241B JUMP JUMPDEST DUP1 PUSH1 0x1F ADD PUSH1 0x20 DUP1 SWAP2 DIV MUL PUSH1 0x20 ADD PUSH1 0x40 MLOAD SWAP1 DUP2 ADD PUSH1 0x40 MSTORE DUP1 SWAP3 SWAP2 SWAP1 DUP2 DUP2 MSTORE PUSH1 0x20 ADD DUP3 DUP1 SLOAD PUSH2 0xEAA SWAP1 PUSH2 0x241B JUMP JUMPDEST DUP1 ISZERO PUSH2 0xEF5 JUMPI DUP1 PUSH1 0x1F LT PUSH2 0xECC JUMPI PUSH2 0x100 DUP1 DUP4 SLOAD DIV MUL DUP4 MSTORE SWAP2 PUSH1 0x20 ADD SWAP2 PUSH2 0xEF5 JUMP JUMPDEST DUP3 ADD SWAP2 SWAP1 PUSH0 MSTORE PUSH1 0x20 PUSH0 KECCAK256 SWAP1 JUMPDEST DUP2 SLOAD DUP2 MSTORE SWAP1 PUSH1 0x1 ADD SWAP1 PUSH1 0x20 ADD DUP1 DUP4 GT PUSH2 0xED8 JUMPI DUP3 SWAP1 SUB PUSH1 0x1F AND DUP3 ADD SWAP2 JUMPDEST POP POP POP POP POP DUP2 MSTORE PUSH1 0x20 ADD PUSH1 0x2 DUP3 ADD SLOAD DUP2 MSTORE PUSH1 0x20 ADD PUSH1 0x3 DUP3 ADD PUSH0 SWAP1 SLOAD SWAP1 PUSH2 0x100 EXP SWAP1 DIV PUSH20 0xFFFFFFFFFFFFFFFFFFFFFFFFFFFFFFFFFFFFFFFF AND PUSH20 0xFFFFFFFFFFFFFFFFFFFFFFFFFFFFFFFFFFFFFFFF AND PUSH20 0xFFFFFFFFFFFFFFFFFFFFFFFFFFFFFFFFFFFFFFFF AND DUP2 MSTORE PUSH1 0x20 ADD PUSH1 0x3 DUP3 ADD PUSH1 0x14 SWAP1 SLOAD SWAP1 PUSH2 0x100 EXP SWAP1 DIV PUSH1 0xFF AND ISZERO ISZERO ISZERO ISZERO DUP2 MSTORE POP POP SWAP1 POP PUSH0 PUSH1 0x6 PUSH0 DUP10 DUP2 MSTORE PUSH1 0x20 ADD SWAP1 DUP2 MSTORE PUSH1 0x20 ADD PUSH0 KECCAK256 PUSH1 0x2 ADD SLOAD DUP4 LT PUSH2 0xFB2 JUMPI PUSH1 0x6 PUSH0 DUP10 DUP2 MSTORE PUSH1 0x20 ADD SWAP1 DUP2 MSTORE PUSH1 0x20 ADD PUSH0 KECCAK256 PUSH1 0x2 ADD SLOAD SWAP1 POP PUSH2 0xFB6 JUMP JUMPDEST DUP3 SWAP1 POP JUMPDEST DUP1 PUSH1 0x6 PUSH0 DUP11 DUP2 MSTORE PUSH1 0x20 ADD SWAP1 DUP2 MSTORE PUSH1 0x20 ADD PUSH0 KECCAK256 PUSH1 0x3 ADD PUSH0 DUP3 DUP3 SLOAD PUSH2 0xFD9 SWAP2 SWAP1 PUSH2 0x287C JUMP JUMPDEST SWAP3 POP POP DUP2 SWAP1 SSTORE POP PUSH32 0x0 DUP3 PUSH1 0x40 ADD MLOAD SUB PUSH2 0x1052 JUMPI PUSH2 0x104C PUSH1 0x6 PUSH0 DUP11 DUP2 MSTORE PUSH1 0x20 ADD SWAP1 DUP2 MSTORE PUSH1 0x20 ADD PUSH0 KECCAK256 PUSH0 ADD PUSH0 SWAP1 SLOAD SWAP1 PUSH2 0x100 EXP SWAP1 DIV PUSH20 0xFFFFFFFFFFFFFFFFFFFFFFFFFFFFFFFFFFFFFFFF AND DUP3 DUP5 PUSH1 0x60 ADD MLOAD PUSH2 0x17D7 JUMP JUMPDEST POP PUSH2 0x109A JUMP JUMPDEST PUSH2 0x1098 PUSH1 0x6 PUSH0 DUP11 DUP2 MSTORE PUSH1 0x20 ADD SWAP1 DUP2 MSTORE PUSH1 0x20 ADD PUSH0 KECCAK256 PUSH0 ADD PUSH0 SWAP1 SLOAD SWAP1 PUSH2 0x100 EXP SWAP1 DIV PUSH20 0xFFFFFFFFFFFFFFFFFFFFFFFFFFFFFFFFFFFFFFFF AND DUP3 DUP5 PUSH1 0x60 ADD MLOAD DUP6 PUSH1 0x40 ADD MLOAD PUSH2 0x191B JUMP JUMPDEST POP JUMPDEST DUP6 DUP1 PUSH2 0x10A5 SWAP1 PUSH2 0x28AF JUMP JUMPDEST SWAP7 POP POP POP POP JUMPDEST POP POP DUP1 DUP1 PUSH1 0x1 ADD SWAP2 POP POP PUSH2 0xDAD JUMP JUMPDEST POP SWAP3 SWAP2 POP POP JUMP JUMPDEST PUSH0 PUSH32 0x0 SWAP1 POP SWAP1 JUMP JUMPDEST PUSH0 PUSH1 0x5 PUSH0 DUP4 DUP2 MSTORE PUSH1 0x20 ADD SWAP1 DUP2 MSTORE PUSH1 0x20 ADD PUSH0 KECCAK256 PUSH0 SWAP1 SLOAD SWAP1 PUSH2 0x100 EXP SWAP1 DIV PUSH1 0xFF AND SWAP1 POP SWAP2 SWAP1 POP JUMP JUMPDEST PUSH2 0x1116 PUSH2 0x19DC JUMP JUMPDEST PUSH0 PUSH2 0x111F PUSH2 0x167A JUMP JUMPDEST SWAP1 POP PUSH0 PUSH1 0x7 PUSH0 DUP6 PUSH1 0x2 DUP2 GT ISZERO PUSH2 0x1138 JUMPI PUSH2 0x1137 PUSH2 0x2349 JUMP JUMPDEST JUMPDEST PUSH1 0x2 DUP2 GT ISZERO PUSH2 0x114A JUMPI PUSH2 0x1149 PUSH2 0x2349 JUMP JUMPDEST JUMPDEST DUP2 MSTORE PUSH1 0x20 ADD SWAP1 DUP2 MSTORE PUSH1 0x20 ADD PUSH0 KECCAK256 SLOAD SWAP1 POP PUSH2 0x1184 PUSH32 0x0 DUP3 PUSH2 0x1695 JUMP JUMPDEST PUSH2 0x11C3 JUMPI PUSH1 0x40 MLOAD PUSH32 0x8C379A000000000000000000000000000000000000000000000000000000000 DUP2 MSTORE PUSH1 0x4 ADD PUSH2 0x11BA SWAP1 PUSH2 0x2940 JUMP JUMPDEST PUSH1 0x40 MLOAD DUP1 SWAP2 SUB SWAP1 REVERT JUMPDEST PUSH1 0x2 DUP3 SWAP1 DUP1 PUSH1 0x1 DUP2 SLOAD ADD DUP1 DUP3 SSTORE DUP1 SWAP2 POP POP PUSH1 0x1 SWAP1 SUB SWAP1 PUSH0 MSTORE PUSH1 0x20 PUSH0 KECCAK256 ADD PUSH0 SWAP1 SWAP2 SWAP1 SWAP2 SWAP1 SWAP2 POP SSTORE PUSH1 0x40 MLOAD DUP1 PUSH1 0xC0 ADD PUSH1 0x40 MSTORE DUP1 DUP4 DUP2 MSTORE PUSH1 0x20 ADD DUP7 DUP2 MSTORE PUSH1 0x20 ADD TIMESTAMP DUP2 MSTORE PUSH1 0x20 ADD TIMESTAMP PUSH2 0x1210 DUP8 PUSH2 0x1924 JUMP JUMPDEST PUSH2 0x121A SWAP2 SWAP1 PUSH2 0x287C JUMP JUMPDEST DUP2 MSTORE PUSH1 0x20 ADD PUSH1 0x1 ISZERO ISZERO DUP2 MSTORE PUSH1 0x20 ADD CALLER PUSH20 0xFFFFFFFFFFFFFFFFFFFFFFFFFFFFFFFFFFFFFFFF AND DUP2 MSTORE POP PUSH1 0x3 PUSH0 DUP5 DUP2 MSTORE PUSH1 0x20 ADD SWAP1 DUP2 MSTORE PUSH1 0x20 ADD PUSH0 KECCAK256 PUSH0 DUP3 ADD MLOAD DUP2 PUSH0 ADD SSTORE PUSH1 0x20 DUP3 ADD MLOAD DUP2 PUSH1 0x1 ADD SWAP1 DUP2 PUSH2 0x1270 SWAP2 SWAP1 PUSH2 0x2650 JUMP JUMPDEST POP PUSH1 0x40 DUP3 ADD MLOAD DUP2 PUSH1 0x2 ADD SSTORE PUSH1 0x60 DUP3 ADD MLOAD DUP2 PUSH1 0x3 ADD SSTORE PUSH1 0x80 DUP3 ADD MLOAD DUP2 PUSH1 0x4 ADD PUSH0 PUSH2 0x100 EXP DUP2 SLOAD DUP2 PUSH1 0xFF MUL NOT AND SWAP1 DUP4 ISZERO ISZERO MUL OR SWAP1 SSTORE POP PUSH1 0xA0 DUP3 ADD MLOAD DUP2 PUSH1 0x4 ADD PUSH1 0x1 PUSH2 0x100 EXP DUP2 SLOAD DUP2 PUSH20 0xFFFFFFFFFFFFFFFFFFFFFFFFFFFFFFFFFFFFFFFF MUL NOT AND SWAP1 DUP4 PUSH20 0xFFFFFFFFFFFFFFFFFFFFFFFFFFFFFFFFFFFFFFFF AND MUL OR SWAP1 SSTORE POP SWAP1 POP POP PUSH1 0x4 PUSH0 CALLER PUSH20 0xFFFFFFFFFFFFFFFFFFFFFFFFFFFFFFFFFFFFFFFF AND PUSH20 0xFFFFFFFFFFFFFFFFFFFFFFFFFFFFFFFFFFFFFFFF AND DUP2 MSTORE PUSH1 0x20 ADD SWAP1 DUP2 MSTORE PUSH1 0x20 ADD PUSH0 KECCAK256 DUP3 SWAP1 DUP1 PUSH1 0x1 DUP2 SLOAD ADD DUP1 DUP3 SSTORE DUP1 SWAP2 POP POP PUSH1 0x1 SWAP1 SUB SWAP1 PUSH0 MSTORE PUSH1 0x20 PUSH0 KECCAK256 ADD PUSH0 SWAP1 SWAP2 SWAP1 SWAP2 SWAP1 SWAP2 POP SSTORE POP POP SWAP3 SWAP2 POP POP JUMP JUMPDEST PUSH2 0x135F PUSH2 0x19DC JUMP JUMPDEST PUSH1 0x3 PUSH0 DUP4 DUP2 MSTORE PUSH1 0x20 ADD SWAP1 DUP2 MSTORE PUSH1 0x20 ADD PUSH0 KECCAK256 PUSH1 0x40 MLOAD DUP1 PUSH1 0xC0 ADD PUSH1 0x40 MSTORE SWAP1 DUP2 PUSH0 DUP3 ADD SLOAD DUP2 MSTORE PUSH1 0x20 ADD PUSH1 0x1 DUP3 ADD DUP1 SLOAD PUSH2 0x1394 SWAP1 PUSH2 0x241B JUMP JUMPDEST DUP1 PUSH1 0x1F ADD PUSH1 0x20 DUP1 SWAP2 DIV MUL PUSH1 0x20 ADD PUSH1 0x40 MLOAD SWAP1 DUP2 ADD PUSH1 0x40 MSTORE DUP1 SWAP3 SWAP2 SWAP1 DUP2 DUP2 MSTORE PUSH1 0x20 ADD DUP3 DUP1 SLOAD PUSH2 0x13C0 SWAP1 PUSH2 0x241B JUMP JUMPDEST DUP1 ISZERO PUSH2 0x140B JUMPI DUP1 PUSH1 0x1F LT PUSH2 0x13E2 JUMPI PUSH2 0x100 DUP1 DUP4 SLOAD DIV MUL DUP4 MSTORE SWAP2 PUSH1 0x20 ADD SWAP2 PUSH2 0x140B JUMP JUMPDEST DUP3 ADD SWAP2 SWAP1 PUSH0 MSTORE PUSH1 0x20 PUSH0 KECCAK256 SWAP1 JUMPDEST DUP2 SLOAD DUP2 MSTORE SWAP1 PUSH1 0x1 ADD SWAP1 PUSH1 0x20 ADD DUP1 DUP4 GT PUSH2 0x13EE JUMPI DUP3 SWAP1 SUB PUSH1 0x1F AND DUP3 ADD SWAP2 JUMPDEST POP POP POP POP POP DUP2 MSTORE PUSH1 0x20 ADD PUSH1 0x2 DUP3 ADD SLOAD DUP2 MSTORE PUSH1 0x20 ADD PUSH1 0x3 DUP3 ADD SLOAD DUP2 MSTORE PUSH1 0x20 ADD PUSH1 0x4 DUP3 ADD PUSH0 SWAP1 SLOAD SWAP1 PUSH2 0x100 EXP SWAP1 DIV PUSH1 0xFF AND ISZERO ISZERO ISZERO ISZERO DUP2 MSTORE PUSH1 0x20 ADD PUSH1 0x4 DUP3 ADD PUSH1 0x1 SWAP1 SLOAD SWAP1 PUSH2 0x100 EXP SWAP1 DIV PUSH20 0xFFFFFFFFFFFFFFFFFFFFFFFFFFFFFFFFFFFFFFFF AND PUSH20 0xFFFFFFFFFFFFFFFFFFFFFFFFFFFFFFFFFFFFFFFF AND PUSH20 0xFFFFFFFFFFFFFFFFFFFFFFFFFFFFFFFFFFFFFFFF AND DUP2 MSTORE POP POP SWAP1 POP SWAP2 SWAP1 POP JUMP JUMPDEST PUSH2 0x14A7 PUSH2 0x1A25 JUMP JUMPDEST PUSH1 0x6 PUSH0 DUP4 DUP2 MSTORE PUSH1 0x20 ADD SWAP1 DUP2 MSTORE PUSH1 0x20 ADD PUSH0 KECCAK256 PUSH1 0x40 MLOAD DUP1 PUSH1 0x80 ADD PUSH1 0x40 MSTORE SWAP1 DUP2 PUSH0 DUP3 ADD PUSH0 SWAP1 SLOAD SWAP1 PUSH2 0x100 EXP SWAP1 DIV PUSH20 0xFFFFFFFFFFFFFFFFFFFFFFFFFFFFFFFFFFFFFFFF AND PUSH20 0xFFFFFFFFFFFFFFFFFFFFFFFFFFFFFFFFFFFFFFFF AND PUSH20 0xFFFFFFFFFFFFFFFFFFFFFFFFFFFFFFFFFFFFFFFF AND DUP2 MSTORE PUSH1 0x20 ADD PUSH1 0x1 DUP3 ADD SLOAD DUP2 MSTORE PUSH1 0x20 ADD PUSH1 0x2 DUP3 ADD SLOAD DUP2 MSTORE PUSH1 0x20 ADD PUSH1 0x3 DUP3 ADD SLOAD DUP2 MSTORE POP POP SWAP1 POP SWAP2 SWAP1 POP JUMP JUMPDEST PUSH2 0x1544 PUSH2 0x1A5F JUMP JUMPDEST PUSH1 0x9 PUSH0 DUP4 DUP2 MSTORE PUSH1 0x20 ADD SWAP1 DUP2 MSTORE PUSH1 0x20 ADD PUSH0 KECCAK256 PUSH1 0x40 MLOAD DUP1 PUSH1 0xA0 ADD PUSH1 0x40 MSTORE SWAP1 DUP2 PUSH0 DUP3 ADD SLOAD DUP2 MSTORE PUSH1 0x20 ADD PUSH1 0x1 DUP3 ADD DUP1 SLOAD PUSH2 0x1579 SWAP1 PUSH2 0x241B JUMP JUMPDEST DUP1 PUSH1 0x1F ADD PUSH1 0x20 DUP1 SWAP2 DIV MUL PUSH1 0x20 ADD PUSH1 0x40 MLOAD SWAP1 DUP2 ADD PUSH1 0x40 MSTORE DUP1 SWAP3 SWAP2 SWAP1 DUP2 DUP2 MSTORE PUSH1 0x20 ADD DUP3 DUP1 SLOAD PUSH2 0x15A5 SWAP1 PUSH2 0x241B JUMP JUMPDEST DUP1 ISZERO PUSH2 0x15F0 JUMPI DUP1 PUSH1 0x1F LT PUSH2 0x15C7 JUMPI PUSH2 0x100 DUP1 DUP4 SLOAD DIV MUL DUP4 MSTORE SWAP2 PUSH1 0x20 ADD SWAP2 PUSH2 0x15F0 JUMP JUMPDEST DUP3 ADD SWAP2 SWAP1 PUSH0 MSTORE PUSH1 0x20 PUSH0 KECCAK256 SWAP1 JUMPDEST DUP2 SLOAD DUP2 MSTORE SWAP1 PUSH1 0x1 ADD SWAP1 PUSH1 0x20 ADD DUP1 DUP4 GT PUSH2 0x15D3 JUMPI DUP3 SWAP1 SUB PUSH1 0x1F AND DUP3 ADD SWAP2 JUMPDEST POP POP POP POP POP DUP2 MSTORE PUSH1 0x20 ADD PUSH1 0x2 DUP3 ADD SLOAD DUP2 MSTORE PUSH1 0x20 ADD PUSH1 0x3 DUP3 ADD PUSH0 SWAP1 SLOAD SWAP1 PUSH2 0x100 EXP SWAP1 DIV PUSH20 0xFFFFFFFFFFFFFFFFFFFFFFFFFFFFFFFFFFFFFFFF AND PUSH20 0xFFFFFFFFFFFFFFFFFFFFFFFFFFFFFFFFFFFFFFFF AND PUSH20 0xFFFFFFFFFFFFFFFFFFFFFFFFFFFFFFFFFFFFFFFF AND DUP2 MSTORE PUSH1 0x20 ADD PUSH1 0x3 DUP3 ADD PUSH1 0x14 SWAP1 SLOAD SWAP1 PUSH2 0x100 EXP SWAP1 DIV PUSH1 0xFF AND ISZERO ISZERO ISZERO ISZERO DUP2 MSTORE POP POP SWAP1 POP SWAP2 SWAP1 POP JUMP JUMPDEST PUSH0 DUP1 PUSH0 DUP2 SLOAD DUP1 SWAP3 SWAP2 SWAP1 PUSH2 0x168C SWAP1 PUSH2 0x28AF JUMP JUMPDEST SWAP2 SWAP1 POP SSTORE SWAP1 POP SWAP1 JUMP JUMPDEST PUSH0 PUSH20 0xEEEEEEEEEEEEEEEEEEEEEEEEEEEEEEEEEEEEEEEE PUSH20 0xFFFFFFFFFFFFFFFFFFFFFFFFFFFFFFFFFFFFFFFF AND DUP4 PUSH20 0xFFFFFFFFFFFFFFFFFFFFFFFFFFFFFFFFFFFFFFFF AND SUB PUSH2 0x1729 JUMPI DUP2 CALLVALUE LT ISZERO PUSH2 0x1720 JUMPI PUSH1 0x40 MLOAD PUSH32 0x8C379A000000000000000000000000000000000000000000000000000000000 DUP2 MSTORE PUSH1 0x4 ADD PUSH2 0x1717 SWAP1 PUSH2 0x29A8 JUMP JUMPDEST PUSH1 0x40 MLOAD DUP1 SWAP2 SUB SWAP1 REVERT JUMPDEST PUSH1 0x1 SWAP1 POP PUSH2 0x17D1 JUMP JUMPDEST PUSH0 DUP4 SWAP1 POP DUP1 PUSH20 0xFFFFFFFFFFFFFFFFFFFFFFFFFFFFFFFFFFFFFFFF AND PUSH4 0x23B872DD CALLER PUSH32 0x0 DUP7 PUSH1 0x40 MLOAD DUP5 PUSH4 0xFFFFFFFF AND PUSH1 0xE0 SHL DUP2 MSTORE PUSH1 0x4 ADD PUSH2 0x178A SWAP4 SWAP3 SWAP2 SWAP1 PUSH2 0x29C6 JUMP JUMPDEST PUSH1 0x20 PUSH1 0x40 MLOAD DUP1 DUP4 SUB DUP2 PUSH0 DUP8 GAS CALL ISZERO DUP1 ISZERO PUSH2 0x17A6 JUMPI RETURNDATASIZE PUSH0 DUP1 RETURNDATACOPY RETURNDATASIZE PUSH0 REVERT JUMPDEST POP POP POP POP PUSH1 0x40 MLOAD RETURNDATASIZE PUSH1 0x1F NOT PUSH1 0x1F DUP3 ADD AND DUP3 ADD DUP1 PUSH1 0x40 MSTORE POP DUP2 ADD SWAP1 PUSH2 0x17CA SWAP2 SWAP1 PUSH2 0x2A0F JUMP JUMPDEST POP PUSH1 0x1 SWAP2 POP POP JUMPDEST SWAP3 SWAP2 POP POP JUMP JUMPDEST PUSH0 PUSH20 0xEEEEEEEEEEEEEEEEEEEEEEEEEEEEEEEEEEEEEEEE PUSH20 0xFFFFFFFFFFFFFFFFFFFFFFFFFFFFFFFFFFFFFFFF AND DUP5 PUSH20 0xFFFFFFFFFFFFFFFFFFFFFFFFFFFFFFFFFFFFFFFF AND SUB PUSH2 0x186C JUMPI DUP2 PUSH20 0xFFFFFFFFFFFFFFFFFFFFFFFFFFFFFFFFFFFFFFFF AND PUSH2 0x8FC DUP5 SWAP1 DUP2 ISZERO MUL SWAP1 PUSH1 0x40 MLOAD PUSH0 PUSH1 0x40 MLOAD DUP1 DUP4 SUB DUP2 DUP6 DUP9 DUP9 CALL SWAP4 POP POP POP POP ISZERO DUP1 ISZERO PUSH2 0x1862 JUMPI RETURNDATASIZE PUSH0 DUP1 RETURNDATACOPY RETURNDATASIZE PUSH0 REVERT JUMPDEST POP PUSH1 0x1 SWAP1 POP PUSH2 0x1914 JUMP JUMPDEST PUSH0 DUP5 SWAP1 POP DUP1 PUSH20 0xFFFFFFFFFFFFFFFFFFFFFFFFFFFFFFFFFFFFFFFF AND PUSH4 0x23B872DD PUSH32 0x0 DUP6 DUP8 PUSH1 0x40 MLOAD DUP5 PUSH4 0xFFFFFFFF AND PUSH1 0xE0 SHL DUP2 MSTORE PUSH1 0x4 ADD PUSH2 0x18CD SWAP4 SWAP3 SWAP2 SWAP1 PUSH2 0x29C6 JUMP JUMPDEST PUSH1 0x20 PUSH1 0x40 MLOAD DUP1 DUP4 SUB DUP2 PUSH0 DUP8 GAS CALL ISZERO DUP1 ISZERO PUSH2 0x18E9 JUMPI RETURNDATASIZE PUSH0 DUP1 RETURNDATACOPY RETURNDATASIZE PUSH0 REVERT JUMPDEST POP POP POP POP PUSH1 0x40 MLOAD RETURNDATASIZE PUSH1 0x1F NOT PUSH1 0x1F DUP3 ADD AND DUP3 ADD DUP1 PUSH1 0x40 MSTORE POP DUP2 ADD SWAP1 PUSH2 0x190D SWAP2 SWAP1 PUSH2 0x2A0F JUMP JUMPDEST POP PUSH1 0x1 SWAP2 POP POP JUMPDEST SWAP4 SWAP3 POP POP POP JUMP JUMPDEST PUSH0 SWAP5 SWAP4 POP POP POP POP JUMP JUMPDEST PUSH0 PUSH3 0x93A80 SWAP1 POP PUSH0 PUSH1 0x2 DUP2 GT ISZERO PUSH2 0x193E JUMPI PUSH2 0x193D PUSH2 0x2349 JUMP JUMPDEST JUMPDEST DUP3 PUSH1 0x2 DUP2 GT ISZERO PUSH2 0x1951 JUMPI PUSH2 0x1950 PUSH2 0x2349 JUMP JUMPDEST JUMPDEST SUB ISZERO PUSH2 0x19D7 JUMPI PUSH1 0x1 PUSH1 0x2 DUP2 GT ISZERO PUSH2 0x196B JUMPI PUSH2 0x196A PUSH2 0x2349 JUMP JUMPDEST JUMPDEST DUP3 PUSH1 0x2 DUP2 GT ISZERO PUSH2 0x197E JUMPI PUSH2 0x197D PUSH2 0x2349 JUMP JUMPDEST JUMPDEST SUB PUSH2 0x1997 JUMPI PUSH1 0x2 DUP2 PUSH2 0x1990 SWAP2 SWAP1 PUSH2 0x2A3A JUMP JUMPDEST SWAP1 POP PUSH2 0x19D7 JUMP JUMPDEST PUSH1 0x2 DUP1 DUP2 GT ISZERO PUSH2 0x19AA JUMPI PUSH2 0x19A9 PUSH2 0x2349 JUMP JUMPDEST JUMPDEST DUP3 PUSH1 0x2 DUP2 GT ISZERO PUSH2 0x19BD JUMPI PUSH2 0x19BC PUSH2 0x2349 JUMP JUMPDEST JUMPDEST SUB PUSH2 0x19D6 JUMPI PUSH1 0x4 DUP2 PUSH2 0x19CF SWAP2 SWAP1 PUSH2 0x2A3A JUMP JUMPDEST SWAP1 POP PUSH2 0x19D7 JUMP JUMPDEST JUMPDEST SWAP2 SWAP1 POP JUMP JUMPDEST PUSH1 0x40 MLOAD DUP1 PUSH1 0xC0 ADD PUSH1 0x40 MSTORE DUP1 PUSH0 DUP2 MSTORE PUSH1 0x20 ADD PUSH1 0x60 DUP2 MSTORE PUSH1 0x20 ADD PUSH0 DUP2 MSTORE PUSH1 0x20 ADD PUSH0 DUP2 MSTORE PUSH1 0x20 ADD PUSH0 ISZERO ISZERO DUP2 MSTORE PUSH1 0x20 ADD PUSH0 PUSH20 0xFFFFFFFFFFFFFFFFFFFFFFFFFFFFFFFFFFFFFFFF AND DUP2 MSTORE POP SWAP1 JUMP JUMPDEST PUSH1 0x40 MLOAD DUP1 PUSH1 0x80 ADD PUSH1 0x40 MSTORE DUP1 PUSH0 PUSH20 0xFFFFFFFFFFFFFFFFFFFFFFFFFFFFFFFFFFFFFFFF AND DUP2 MSTORE PUSH1 0x20 ADD PUSH0 DUP2 MSTORE PUSH1 0x20 ADD PUSH0 DUP2 MSTORE PUSH1 0x20 ADD PUSH0 DUP2 MSTORE POP SWAP1 JUMP JUMPDEST PUSH1 0x40 MLOAD DUP1 PUSH1 0xA0 ADD PUSH1 0x40 MSTORE DUP1 PUSH0 DUP2 MSTORE PUSH1 0x20 ADD PUSH1 0x60 DUP2 MSTORE PUSH1 0x20 ADD PUSH0 DUP2 MSTORE PUSH1 0x20 ADD PUSH0 PUSH20 0xFFFFFFFFFFFFFFFFFFFFFFFFFFFFFFFFFFFFFFFF AND DUP2 MSTORE PUSH1 0x20 ADD PUSH0 ISZERO ISZERO DUP2 MSTORE POP SWAP1 JUMP JUMPDEST PUSH0 PUSH1 0x40 MLOAD SWAP1 POP SWAP1 JUMP JUMPDEST PUSH0 DUP1 REVERT JUMPDEST PUSH0 DUP1 REVERT JUMPDEST PUSH0 DUP2 SWAP1 POP SWAP2 SWAP1 POP JUMP JUMPDEST PUSH2 0x1AC5 DUP2 PUSH2 0x1AB3 JUMP JUMPDEST DUP2 EQ PUSH2 0x1ACF JUMPI PUSH0 DUP1 REVERT JUMPDEST POP JUMP JUMPDEST PUSH0 DUP2 CALLDATALOAD SWAP1 POP PUSH2 0x1AE0 DUP2 PUSH2 0x1ABC JUMP JUMPDEST SWAP3 SWAP2 POP POP JUMP JUMPDEST PUSH0 PUSH1 0x20 DUP3 DUP5 SUB SLT ISZERO PUSH2 0x1AFB JUMPI PUSH2 0x1AFA PUSH2 0x1AAB JUMP JUMPDEST JUMPDEST PUSH0 PUSH2 0x1B08 DUP5 DUP3 DUP6 ADD PUSH2 0x1AD2 JUMP JUMPDEST SWAP2 POP POP SWAP3 SWAP2 POP POP JUMP JUMPDEST PUSH0 DUP2 MLOAD SWAP1 POP SWAP2 SWAP1 POP JUMP JUMPDEST PUSH0 DUP3 DUP3 MSTORE PUSH1 0x20 DUP3 ADD SWAP1 POP SWAP3 SWAP2 POP POP JUMP JUMPDEST PUSH0 DUP2 SWAP1 POP PUSH1 0x20 DUP3 ADD SWAP1 POP SWAP2 SWAP1 POP JUMP JUMPDEST PUSH2 0x1B43 DUP2 PUSH2 0x1AB3 JUMP JUMPDEST DUP3 MSTORE POP POP JUMP JUMPDEST PUSH0 PUSH2 0x1B54 DUP4 DUP4 PUSH2 0x1B3A JUMP JUMPDEST PUSH1 0x20 DUP4 ADD SWAP1 POP SWAP3 SWAP2 POP POP JUMP JUMPDEST PUSH0 PUSH1 0x20 DUP3 ADD SWAP1 POP SWAP2 SWAP1 POP JUMP JUMPDEST PUSH0 PUSH2 0x1B76 DUP3 PUSH2 0x1B11 JUMP JUMPDEST PUSH2 0x1B80 DUP2 DUP6 PUSH2 0x1B1B JUMP JUMPDEST SWAP4 POP PUSH2 0x1B8B DUP4 PUSH2 0x1B2B JUMP JUMPDEST DUP1 PUSH0 JUMPDEST DUP4 DUP2 LT ISZERO PUSH2 0x1BBB JUMPI DUP2 MLOAD PUSH2 0x1BA2 DUP9 DUP3 PUSH2 0x1B49 JUMP JUMPDEST SWAP8 POP PUSH2 0x1BAD DUP4 PUSH2 0x1B60 JUMP JUMPDEST SWAP3 POP POP PUSH1 0x1 DUP2 ADD SWAP1 POP PUSH2 0x1B8E JUMP JUMPDEST POP DUP6 SWAP4 POP POP POP POP SWAP3 SWAP2 POP POP JUMP JUMPDEST PUSH0 PUSH1 0x20 DUP3 ADD SWAP1 POP DUP2 DUP2 SUB PUSH0 DUP4 ADD MSTORE PUSH2 0x1BE0 DUP2 DUP5 PUSH2 0x1B6C JUMP JUMPDEST SWAP1 POP SWAP3 SWAP2 POP POP JUMP JUMPDEST PUSH1 0x3 DUP2 LT PUSH2 0x1BF4 JUMPI PUSH0 DUP1 REVERT JUMPDEST POP JUMP JUMPDEST PUSH0 DUP2 CALLDATALOAD SWAP1 POP PUSH2 0x1C05 DUP2 PUSH2 0x1BE8 JUMP JUMPDEST SWAP3 SWAP2 POP POP JUMP JUMPDEST PUSH0 PUSH1 0x20 DUP3 DUP5 SUB SLT ISZERO PUSH2 0x1C20 JUMPI PUSH2 0x1C1F PUSH2 0x1AAB JUMP JUMPDEST JUMPDEST PUSH0 PUSH2 0x1C2D DUP5 DUP3 DUP6 ADD PUSH2 0x1BF7 JUMP JUMPDEST SWAP2 POP POP SWAP3 SWAP2 POP POP JUMP JUMPDEST PUSH2 0x1C3F DUP2 PUSH2 0x1AB3 JUMP JUMPDEST DUP3 MSTORE POP POP JUMP JUMPDEST PUSH0 PUSH1 0x20 DUP3 ADD SWAP1 POP PUSH2 0x1C58 PUSH0 DUP4 ADD DUP5 PUSH2 0x1C36 JUMP JUMPDEST SWAP3 SWAP2 POP POP JUMP JUMPDEST PUSH0 DUP2 MLOAD SWAP1 POP SWAP2 SWAP1 POP JUMP JUMPDEST PUSH0 DUP3 DUP3 MSTORE PUSH1 0x20 DUP3 ADD SWAP1 POP SWAP3 SWAP2 POP POP JUMP JUMPDEST DUP3 DUP2 DUP4 MCOPY PUSH0 DUP4 DUP4 ADD MSTORE POP POP POP JUMP JUMPDEST PUSH0 PUSH1 0x1F NOT PUSH1 0x1F DUP4 ADD AND SWAP1 POP SWAP2 SWAP1 POP JUMP JUMPDEST PUSH0 PUSH2 0x1CA0 DUP3 PUSH2 0x1C5E JUMP JUMPDEST PUSH2 0x1CAA DUP2 DUP6 PUSH2 0x1C68 JUMP JUMPDEST SWAP4 POP PUSH2 0x1CBA DUP2 DUP6 PUSH1 0x20 DUP7 ADD PUSH2 0x1C78 JUMP JUMPDEST PUSH2 0x1CC3 DUP2 PUSH2 0x1C86 JUMP JUMPDEST DUP5 ADD SWAP2 POP POP SWAP3 SWAP2 POP POP JUMP JUMPDEST PUSH0 DUP2 ISZERO ISZERO SWAP1 POP SWAP2 SWAP1 POP JUMP JUMPDEST PUSH2 0x1CE2 DUP2 PUSH2 0x1CCE JUMP JUMPDEST DUP3 MSTORE POP POP JUMP JUMPDEST PUSH0 PUSH20 0xFFFFFFFFFFFFFFFFFFFFFFFFFFFFFFFFFFFFFFFF DUP3 AND SWAP1 POP SWAP2 SWAP1 POP JUMP JUMPDEST PUSH0 PUSH2 0x1D11 DUP3 PUSH2 0x1CE8 JUMP JUMPDEST SWAP1 POP SWAP2 SWAP1 POP JUMP JUMPDEST PUSH2 0x1D21 DUP2 PUSH2 0x1D07 JUMP JUMPDEST DUP3 MSTORE POP POP JUMP JUMPDEST PUSH0 PUSH1 0xC0 DUP4 ADD PUSH0 DUP4 ADD MLOAD PUSH2 0x1D3C PUSH0 DUP7 ADD DUP3 PUSH2 0x1B3A JUMP JUMPDEST POP PUSH1 0x20 DUP4 ADD MLOAD DUP5 DUP3 SUB PUSH1 0x20 DUP7 ADD MSTORE PUSH2 0x1D54 DUP3 DUP3 PUSH2 0x1C96 JUMP JUMPDEST SWAP2 POP POP PUSH1 0x40 DUP4 ADD MLOAD PUSH2 0x1D69 PUSH1 0x40 DUP7 ADD DUP3 PUSH2 0x1B3A JUMP JUMPDEST POP PUSH1 0x60 DUP4 ADD MLOAD PUSH2 0x1D7C PUSH1 0x60 DUP7 ADD DUP3 PUSH2 0x1B3A JUMP JUMPDEST POP PUSH1 0x80 DUP4 ADD MLOAD PUSH2 0x1D8F PUSH1 0x80 DUP7 ADD DUP3 PUSH2 0x1CD9 JUMP JUMPDEST POP PUSH1 0xA0 DUP4 ADD MLOAD PUSH2 0x1DA2 PUSH1 0xA0 DUP7 ADD DUP3 PUSH2 0x1D18 JUMP JUMPDEST POP DUP1 SWAP2 POP POP SWAP3 SWAP2 POP POP JUMP JUMPDEST PUSH0 PUSH1 0x20 DUP3 ADD SWAP1 POP DUP2 DUP2 SUB PUSH0 DUP4 ADD MSTORE PUSH2 0x1DC5 DUP2 DUP5 PUSH2 0x1D27 JUMP JUMPDEST SWAP1 POP SWAP3 SWAP2 POP POP JUMP JUMPDEST PUSH0 DUP1 REVERT JUMPDEST PUSH0 DUP1 REVERT JUMPDEST PUSH32 0x4E487B7100000000000000000000000000000000000000000000000000000000 PUSH0 MSTORE PUSH1 0x41 PUSH1 0x4 MSTORE PUSH1 0x24 PUSH0 REVERT JUMPDEST PUSH2 0x1E0B DUP3 PUSH2 0x1C86 JUMP JUMPDEST DUP2 ADD DUP2 DUP2 LT PUSH8 0xFFFFFFFFFFFFFFFF DUP3 GT OR ISZERO PUSH2 0x1E2A JUMPI PUSH2 0x1E29 PUSH2 0x1DD5 JUMP JUMPDEST JUMPDEST DUP1 PUSH1 0x40 MSTORE POP POP POP JUMP JUMPDEST PUSH0 PUSH2 0x1E3C PUSH2 0x1AA2 JUMP JUMPDEST SWAP1 POP PUSH2 0x1E48 DUP3 DUP3 PUSH2 0x1E02 JUMP JUMPDEST SWAP2 SWAP1 POP JUMP JUMPDEST PUSH0 PUSH8 0xFFFFFFFFFFFFFFFF DUP3 GT ISZERO PUSH2 0x1E67 JUMPI PUSH2 0x1E66 PUSH2 0x1DD5 JUMP JUMPDEST JUMPDEST PUSH2 0x1E70 DUP3 PUSH2 0x1C86 JUMP JUMPDEST SWAP1 POP PUSH1 0x20 DUP2 ADD SWAP1 POP SWAP2 SWAP1 POP JUMP JUMPDEST DUP3 DUP2 DUP4 CALLDATACOPY PUSH0 DUP4 DUP4 ADD MSTORE POP POP POP JUMP JUMPDEST PUSH0 PUSH2 0x1E9D PUSH2 0x1E98 DUP5 PUSH2 0x1E4D JUMP JUMPDEST PUSH2 0x1E33 JUMP JUMPDEST SWAP1 POP DUP3 DUP2 MSTORE PUSH1 0x20 DUP2 ADD DUP5 DUP5 DUP5 ADD GT ISZERO PUSH2 0x1EB9 JUMPI PUSH2 0x1EB8 PUSH2 0x1DD1 JUMP JUMPDEST JUMPDEST PUSH2 0x1EC4 DUP5 DUP3 DUP6 PUSH2 0x1E7D JUMP JUMPDEST POP SWAP4 SWAP3 POP POP POP JUMP JUMPDEST PUSH0 DUP3 PUSH1 0x1F DUP4 ADD SLT PUSH2 0x1EE0 JUMPI PUSH2 0x1EDF PUSH2 0x1DCD JUMP JUMPDEST JUMPDEST DUP2 CALLDATALOAD PUSH2 0x1EF0 DUP5 DUP3 PUSH1 0x20 DUP7 ADD PUSH2 0x1E8B JUMP JUMPDEST SWAP2 POP POP SWAP3 SWAP2 POP POP JUMP JUMPDEST PUSH2 0x1F02 DUP2 PUSH2 0x1D07 JUMP JUMPDEST DUP2 EQ PUSH2 0x1F0C JUMPI PUSH0 DUP1 REVERT JUMPDEST POP JUMP JUMPDEST PUSH0 DUP2 CALLDATALOAD SWAP1 POP PUSH2 0x1F1D DUP2 PUSH2 0x1EF9 JUMP JUMPDEST SWAP3 SWAP2 POP POP JUMP JUMPDEST PUSH2 0x1F2C DUP2 PUSH2 0x1CCE JUMP JUMPDEST DUP2 EQ PUSH2 0x1F36 JUMPI PUSH0 DUP1 REVERT JUMPDEST POP JUMP JUMPDEST PUSH0 DUP2 CALLDATALOAD SWAP1 POP PUSH2 0x1F47 DUP2 PUSH2 0x1F23 JUMP JUMPDEST SWAP3 SWAP2 POP POP JUMP JUMPDEST PUSH0 DUP1 PUSH0 DUP1 PUSH0 PUSH1 0xA0 DUP7 DUP9 SUB SLT ISZERO PUSH2 0x1F66 JUMPI PUSH2 0x1F65 PUSH2 0x1AAB JUMP JUMPDEST JUMPDEST PUSH0 PUSH2 0x1F73 DUP9 DUP3 DUP10 ADD PUSH2 0x1AD2 JUMP JUMPDEST SWAP6 POP POP PUSH1 0x20 DUP7 ADD CALLDATALOAD PUSH8 0xFFFFFFFFFFFFFFFF DUP2 GT ISZERO PUSH2 0x1F94 JUMPI PUSH2 0x1F93 PUSH2 0x1AAF JUMP JUMPDEST JUMPDEST PUSH2 0x1FA0 DUP9 DUP3 DUP10 ADD PUSH2 0x1ECC JUMP JUMPDEST SWAP5 POP POP PUSH1 0x40 PUSH2 0x1FB1 DUP9 DUP3 DUP10 ADD PUSH2 0x1AD2 JUMP JUMPDEST SWAP4 POP POP PUSH1 0x60 PUSH2 0x1FC2 DUP9 DUP3 DUP10 ADD PUSH2 0x1F0F JUMP JUMPDEST SWAP3 POP POP PUSH1 0x80 PUSH2 0x1FD3 DUP9 DUP3 DUP10 ADD PUSH2 0x1F39 JUMP JUMPDEST SWAP2 POP POP SWAP3 SWAP6 POP SWAP3 SWAP6 SWAP1 SWAP4 POP JUMP JUMPDEST PUSH0 DUP1 PUSH1 0x40 DUP4 DUP6 SUB SLT ISZERO PUSH2 0x1FF6 JUMPI PUSH2 0x1FF5 PUSH2 0x1AAB JUMP JUMPDEST JUMPDEST PUSH0 PUSH2 0x2003 DUP6 DUP3 DUP7 ADD PUSH2 0x1BF7 JUMP JUMPDEST SWAP3 POP POP PUSH1 0x20 PUSH2 0x2014 DUP6 DUP3 DUP7 ADD PUSH2 0x1AD2 JUMP JUMPDEST SWAP2 POP POP SWAP3 POP SWAP3 SWAP1 POP JUMP JUMPDEST PUSH2 0x2027 DUP2 PUSH2 0x1CCE JUMP JUMPDEST DUP3 MSTORE POP POP JUMP JUMPDEST PUSH0 PUSH1 0x20 DUP3 ADD SWAP1 POP PUSH2 0x2040 PUSH0 DUP4 ADD DUP5 PUSH2 0x201E JUMP JUMPDEST SWAP3 SWAP2 POP POP JUMP JUMPDEST PUSH0 DUP1 PUSH0 DUP1 PUSH1 0x80 DUP6 DUP8 SUB SLT ISZERO PUSH2 0x205E JUMPI PUSH2 0x205D PUSH2 0x1AAB JUMP JUMPDEST JUMPDEST PUSH0 PUSH2 0x206B DUP8 DUP3 DUP9 ADD PUSH2 0x1AD2 JUMP JUMPDEST SWAP5 POP POP PUSH1 0x20 PUSH2 0x207C DUP8 DUP3 DUP9 ADD PUSH2 0x1F0F JUMP JUMPDEST SWAP4 POP POP PUSH1 0x40 PUSH2 0x208D DUP8 DUP3 DUP9 ADD PUSH2 0x1AD2 JUMP JUMPDEST SWAP3 POP POP PUSH1 0x60 PUSH2 0x209E DUP8 DUP3 DUP9 ADD PUSH2 0x1AD2 JUMP JUMPDEST SWAP2 POP POP SWAP3 SWAP6 SWAP2 SWAP5 POP SWAP3 POP JUMP JUMPDEST PUSH1 0x80 DUP3 ADD PUSH0 DUP3 ADD MLOAD PUSH2 0x20BE PUSH0 DUP6 ADD DUP3 PUSH2 0x1D18 JUMP JUMPDEST POP PUSH1 0x20 DUP3 ADD MLOAD PUSH2 0x20D1 PUSH1 0x20 DUP6 ADD DUP3 PUSH2 0x1B3A JUMP JUMPDEST POP PUSH1 0x40 DUP3 ADD MLOAD PUSH2 0x20E4 PUSH1 0x40 DUP6 ADD DUP3 PUSH2 0x1B3A JUMP JUMPDEST POP PUSH1 0x60 DUP3 ADD MLOAD PUSH2 0x20F7 PUSH1 0x60 DUP6 ADD DUP3 PUSH2 0x1B3A JUMP JUMPDEST POP POP POP POP JUMP JUMPDEST PUSH0 PUSH1 0x80 DUP3 ADD SWAP1 POP PUSH2 0x2110 PUSH0 DUP4 ADD DUP5 PUSH2 0x20AA JUMP JUMPDEST SWAP3 SWAP2 POP POP JUMP JUMPDEST PUSH0 PUSH8 0xFFFFFFFFFFFFFFFF DUP3 GT ISZERO PUSH2 0x2130 JUMPI PUSH2 0x212F PUSH2 0x1DD5 JUMP JUMPDEST JUMPDEST PUSH1 0x20 DUP3 MUL SWAP1 POP PUSH1 0x20 DUP2 ADD SWAP1 POP SWAP2 SWAP1 POP JUMP JUMPDEST PUSH0 DUP1 REVERT JUMPDEST PUSH0 PUSH2 0x2157 PUSH2 0x2152 DUP5 PUSH2 0x2116 JUMP JUMPDEST PUSH2 0x1E33 JUMP JUMPDEST SWAP1 POP DUP1 DUP4 DUP3 MSTORE PUSH1 0x20 DUP3 ADD SWAP1 POP PUSH1 0x20 DUP5 MUL DUP4 ADD DUP6 DUP2 GT ISZERO PUSH2 0x217A JUMPI PUSH2 0x2179 PUSH2 0x2141 JUMP JUMPDEST JUMPDEST DUP4 JUMPDEST DUP2 DUP2 LT ISZERO PUSH2 0x21A3 JUMPI DUP1 PUSH2 0x218F DUP9 DUP3 PUSH2 0x1AD2 JUMP JUMPDEST DUP5 MSTORE PUSH1 0x20 DUP5 ADD SWAP4 POP POP PUSH1 0x20 DUP2 ADD SWAP1 POP PUSH2 0x217C JUMP JUMPDEST POP POP POP SWAP4 SWAP3 POP POP POP JUMP JUMPDEST PUSH0 DUP3 PUSH1 0x1F DUP4 ADD SLT PUSH2 0x21C1 JUMPI PUSH2 0x21C0 PUSH2 0x1DCD JUMP JUMPDEST JUMPDEST DUP2 CALLDATALOAD PUSH2 0x21D1 DUP5 DUP3 PUSH1 0x20 DUP7 ADD PUSH2 0x2145 JUMP JUMPDEST SWAP2 POP POP SWAP3 SWAP2 POP POP JUMP JUMPDEST PUSH0 DUP1 PUSH1 0x40 DUP4 DUP6 SUB SLT ISZERO PUSH2 0x21F0 JUMPI PUSH2 0x21EF PUSH2 0x1AAB JUMP JUMPDEST JUMPDEST PUSH0 PUSH2 0x21FD DUP6 DUP3 DUP7 ADD PUSH2 0x1AD2 JUMP JUMPDEST SWAP3 POP POP PUSH1 0x20 DUP4 ADD CALLDATALOAD PUSH8 0xFFFFFFFFFFFFFFFF DUP2 GT ISZERO PUSH2 0x221E JUMPI PUSH2 0x221D PUSH2 0x1AAF JUMP JUMPDEST JUMPDEST PUSH2 0x222A DUP6 DUP3 DUP7 ADD PUSH2 0x21AD JUMP JUMPDEST SWAP2 POP POP SWAP3 POP SWAP3 SWAP1 POP JUMP JUMPDEST PUSH2 0x223D DUP2 PUSH2 0x1D07 JUMP JUMPDEST DUP3 MSTORE POP POP JUMP JUMPDEST PUSH0 PUSH1 0x20 DUP3 ADD SWAP1 POP PUSH2 0x2256 PUSH0 DUP4 ADD DUP5 PUSH2 0x2234 JUMP JUMPDEST SWAP3 SWAP2 POP POP JUMP JUMPDEST PUSH0 DUP1 PUSH1 0x40 DUP4 DUP6 SUB SLT ISZERO PUSH2 0x2272 JUMPI PUSH2 0x2271 PUSH2 0x1AAB JUMP JUMPDEST JUMPDEST PUSH0 DUP4 ADD CALLDATALOAD PUSH8 0xFFFFFFFFFFFFFFFF DUP2 GT ISZERO PUSH2 0x228F JUMPI PUSH2 0x228E PUSH2 0x1AAF JUMP JUMPDEST JUMPDEST PUSH2 0x229B DUP6 DUP3 DUP7 ADD PUSH2 0x1ECC JUMP JUMPDEST SWAP3 POP POP PUSH1 0x20 PUSH2 0x22AC DUP6 DUP3 DUP7 ADD PUSH2 0x1BF7 JUMP JUMPDEST SWAP2 POP POP SWAP3 POP SWAP3 SWAP1 POP JUMP JUMPDEST PUSH0 PUSH1 0xA0 DUP4 ADD PUSH0 DUP4 ADD MLOAD PUSH2 0x22CB PUSH0 DUP7 ADD DUP3 PUSH2 0x1B3A JUMP JUMPDEST POP PUSH1 0x20 DUP4 ADD MLOAD DUP5 DUP3 SUB PUSH1 0x20 DUP7 ADD MSTORE PUSH2 0x22E3 DUP3 DUP3 PUSH2 0x1C96 JUMP JUMPDEST SWAP2 POP POP PUSH1 0x40 DUP4 ADD MLOAD PUSH2 0x22F8 PUSH1 0x40 DUP7 ADD DUP3 PUSH2 0x1B3A JUMP JUMPDEST POP PUSH1 0x60 DUP4 ADD MLOAD PUSH2 0x230B PUSH1 0x60 DUP7 ADD DUP3 PUSH2 0x1D18 JUMP JUMPDEST POP PUSH1 0x80 DUP4 ADD MLOAD PUSH2 0x231E PUSH1 0x80 DUP7 ADD DUP3 PUSH2 0x1CD9 JUMP JUMPDEST POP DUP1 SWAP2 POP POP SWAP3 SWAP2 POP POP JUMP JUMPDEST PUSH0 PUSH1 0x20 DUP3 ADD SWAP1 POP DUP2 DUP2 SUB PUSH0 DUP4 ADD MSTORE PUSH2 0x2341 DUP2 DUP5 PUSH2 0x22B6 JUMP JUMPDEST SWAP1 POP SWAP3 SWAP2 POP POP JUMP JUMPDEST PUSH32 0x4E487B7100000000000000000000000000000000000000000000000000000000 PUSH0 MSTORE PUSH1 0x21 PUSH1 0x4 MSTORE PUSH1 0x24 PUSH0 REVERT JUMPDEST PUSH0 DUP3 DUP3 MSTORE PUSH1 0x20 DUP3 ADD SWAP1 POP SWAP3 SWAP2 POP POP JUMP JUMPDEST PUSH32 0x6A6F62206F776E6572206F6E6C79000000000000000000000000000000000000 PUSH0 DUP3 ADD MSTORE POP JUMP JUMPDEST PUSH0 PUSH2 0x23BA PUSH1 0xE DUP4 PUSH2 0x2376 JUMP JUMPDEST SWAP2 POP PUSH2 0x23C5 DUP3 PUSH2 0x2386 JUMP JUMPDEST PUSH1 0x20 DUP3 ADD SWAP1 POP SWAP2 SWAP1 POP JUMP JUMPDEST PUSH0 PUSH1 0x20 DUP3 ADD SWAP1 POP DUP2 DUP2 SUB PUSH0 DUP4 ADD MSTORE PUSH2 0x23E7 DUP2 PUSH2 0x23AE JUMP JUMPDEST SWAP1 POP SWAP2 SWAP1 POP JUMP JUMPDEST PUSH32 0x4E487B7100000000000000000000000000000000000000000000000000000000 PUSH0 MSTORE PUSH1 0x22 PUSH1 0x4 MSTORE PUSH1 0x24 PUSH0 REVERT JUMPDEST PUSH0 PUSH1 0x2 DUP3 DIV SWAP1 POP PUSH1 0x1 DUP3 AND DUP1 PUSH2 0x2432 JUMPI PUSH1 0x7F DUP3 AND SWAP2 POP JUMPDEST PUSH1 0x20 DUP3 LT DUP2 SUB PUSH2 0x2445 JUMPI PUSH2 0x2444 PUSH2 0x23EE JUMP JUMPDEST JUMPDEST POP SWAP2 SWAP1 POP JUMP JUMPDEST PUSH32 0x6A6F6220756E617661696C61626C650000000000000000000000000000000000 PUSH0 DUP3 ADD MSTORE POP JUMP JUMPDEST PUSH0 PUSH2 0x247F PUSH1 0xF DUP4 PUSH2 0x2376 JUMP JUMPDEST SWAP2 POP PUSH2 0x248A DUP3 PUSH2 0x244B JUMP JUMPDEST PUSH1 0x20 DUP3 ADD SWAP1 POP SWAP2 SWAP1 POP JUMP JUMPDEST PUSH0 PUSH1 0x20 DUP3 ADD SWAP1 POP DUP2 DUP2 SUB PUSH0 DUP4 ADD MSTORE PUSH2 0x24AC DUP2 PUSH2 0x2473 JUMP JUMPDEST SWAP1 POP SWAP2 SWAP1 POP JUMP JUMPDEST PUSH0 DUP2 SWAP1 POP DUP2 PUSH0 MSTORE PUSH1 0x20 PUSH0 KECCAK256 SWAP1 POP SWAP2 SWAP1 POP JUMP JUMPDEST PUSH0 PUSH1 0x20 PUSH1 0x1F DUP4 ADD DIV SWAP1 POP SWAP2 SWAP1 POP JUMP JUMPDEST PUSH0 DUP3 DUP3 SHL SWAP1 POP SWAP3 SWAP2 POP POP JUMP JUMPDEST PUSH0 PUSH1 0x8 DUP4 MUL PUSH2 0x250F PUSH32 0xFFFFFFFFFFFFFFFFFFFFFFFFFFFFFFFFFFFFFFFFFFFFFFFFFFFFFFFFFFFFFFFF DUP3 PUSH2 0x24D4 JUMP JUMPDEST PUSH2 0x2519 DUP7 DUP4 PUSH2 0x24D4 JUMP JUMPDEST SWAP6 POP DUP1 NOT DUP5 AND SWAP4 POP DUP1 DUP7 AND DUP5 OR SWAP3 POP POP POP SWAP4 SWAP3 POP POP POP JUMP JUMPDEST PUSH0 DUP2 SWAP1 POP SWAP2 SWAP1 POP JUMP JUMPDEST PUSH0 PUSH2 0x2554 PUSH2 0x254F PUSH2 0x254A DUP5 PUSH2 0x1AB3 JUMP JUMPDEST PUSH2 0x2531 JUMP JUMPDEST PUSH2 0x1AB3 JUMP JUMPDEST SWAP1 POP SWAP2 SWAP1 POP JUMP JUMPDEST PUSH0 DUP2 SWAP1 POP SWAP2 SWAP1 POP JUMP JUMPDEST PUSH2 0x256D DUP4 PUSH2 0x253A JUMP JUMPDEST PUSH2 0x2581 PUSH2 0x2579 DUP3 PUSH2 0x255B JUMP JUMPDEST DUP5 DUP5 SLOAD PUSH2 0x24E0 JUMP JUMPDEST DUP3 SSTORE POP POP POP POP JUMP JUMPDEST PUSH0 SWAP1 JUMP JUMPDEST PUSH2 0x2595 PUSH2 0x2589 JUMP JUMPDEST PUSH2 0x25A0 DUP2 DUP5 DUP5 PUSH2 0x2564 JUMP JUMPDEST POP POP POP JUMP JUMPDEST JUMPDEST DUP2 DUP2 LT ISZERO PUSH2 0x25C3 JUMPI PUSH2 0x25B8 PUSH0 DUP3 PUSH2 0x258D JUMP JUMPDEST PUSH1 0x1 DUP2 ADD SWAP1 POP PUSH2 0x25A6 JUMP JUMPDEST POP POP JUMP JUMPDEST PUSH1 0x1F DUP3 GT ISZERO PUSH2 0x2608 JUMPI PUSH2 0x25D9 DUP2 PUSH2 0x24B3 JUMP JUMPDEST PUSH2 0x25E2 DUP5 PUSH2 0x24C5 JUMP JUMPDEST DUP2 ADD PUSH1 0x20 DUP6 LT ISZERO PUSH2 0x25F1 JUMPI DUP2 SWAP1 POP JUMPDEST PUSH2 0x2605 PUSH2 0x25FD DUP6 PUSH2 0x24C5 JUMP JUMPDEST DUP4 ADD DUP3 PUSH2 0x25A5 JUMP JUMPDEST POP POP JUMPDEST POP POP POP JUMP JUMPDEST PUSH0 DUP3 DUP3 SHR SWAP1 POP SWAP3 SWAP2 POP POP JUMP JUMPDEST PUSH0 PUSH2 0x2628 PUSH0 NOT DUP5 PUSH1 0x8 MUL PUSH2 0x260D JUMP JUMPDEST NOT DUP1 DUP4 AND SWAP2 POP POP SWAP3 SWAP2 POP POP JUMP JUMPDEST PUSH0 PUSH2 0x2640 DUP4 DUP4 PUSH2 0x2619 JUMP JUMPDEST SWAP2 POP DUP3 PUSH1 0x2 MUL DUP3 OR SWAP1 POP SWAP3 SWAP2 POP POP JUMP JUMPDEST PUSH2 0x2659 DUP3 PUSH2 0x1C5E JUMP JUMPDEST PUSH8 0xFFFFFFFFFFFFFFFF DUP2 GT ISZERO PUSH2 0x2672 JUMPI PUSH2 0x2671 PUSH2 0x1DD5 JUMP JUMPDEST JUMPDEST PUSH2 0x267C DUP3 SLOAD PUSH2 0x241B JUMP JUMPDEST PUSH2 0x2687 DUP3 DUP3 DUP6 PUSH2 0x25C7 JUMP JUMPDEST PUSH0 PUSH1 0x20 SWAP1 POP PUSH1 0x1F DUP4 GT PUSH1 0x1 DUP2 EQ PUSH2 0x26B8 JUMPI PUSH0 DUP5 ISZERO PUSH2 0x26A6 JUMPI DUP3 DUP8 ADD MLOAD SWAP1 POP JUMPDEST PUSH2 0x26B0 DUP6 DUP3 PUSH2 0x2635 JUMP JUMPDEST DUP7 SSTORE POP PUSH2 0x2717 JUMP JUMPDEST PUSH1 0x1F NOT DUP5 AND PUSH2 0x26C6 DUP7 PUSH2 0x24B3 JUMP JUMPDEST PUSH0 JUMPDEST DUP3 DUP2 LT ISZERO PUSH2 0x26ED JUMPI DUP5 DUP10 ADD MLOAD DUP3 SSTORE PUSH1 0x1 DUP3 ADD SWAP2 POP PUSH1 0x20 DUP6 ADD SWAP5 POP PUSH1 0x20 DUP2 ADD SWAP1 POP PUSH2 0x26C8 JUMP JUMPDEST DUP7 DUP4 LT ISZERO PUSH2 0x270A JUMPI DUP5 DUP10 ADD MLOAD PUSH2 0x2706 PUSH1 0x1F DUP10 AND DUP3 PUSH2 0x2619 JUMP JUMPDEST DUP4 SSTORE POP JUMPDEST PUSH1 0x1 PUSH1 0x2 DUP9 MUL ADD DUP9 SSTORE POP POP POP JUMPDEST POP POP POP POP POP POP JUMP JUMPDEST PUSH32 0x61646D696E206F6E6C7900000000000000000000000000000000000000000000 PUSH0 DUP3 ADD MSTORE POP JUMP JUMPDEST PUSH0 PUSH2 0x2753 PUSH1 0xA DUP4 PUSH2 0x2376 JUMP JUMPDEST SWAP2 POP PUSH2 0x275E DUP3 PUSH2 0x271F JUMP JUMPDEST PUSH1 0x20 DUP3 ADD SWAP1 POP SWAP2 SWAP1 POP JUMP JUMPDEST PUSH0 PUSH1 0x20 DUP3 ADD SWAP1 POP DUP2 DUP2 SUB PUSH0 DUP4 ADD MSTORE PUSH2 0x2780 DUP2 PUSH2 0x2747 JUMP JUMPDEST SWAP1 POP SWAP2 SWAP1 POP JUMP JUMPDEST PUSH32 0x726577617264207472616E73666572206661696C656400000000000000000000 PUSH0 DUP3 ADD MSTORE POP JUMP JUMPDEST PUSH0 PUSH2 0x27BB PUSH1 0x16 DUP4 PUSH2 0x2376 JUMP JUMPDEST SWAP2 POP PUSH2 0x27C6 DUP3 PUSH2 0x2787 JUMP JUMPDEST PUSH1 0x20 DUP3 ADD SWAP1 POP SWAP2 SWAP1 POP JUMP JUMPDEST PUSH0 PUSH1 0x20 DUP3 ADD SWAP1 POP DUP2 DUP2 SUB PUSH0 DUP4 ADD MSTORE PUSH2 0x27E8 DUP2 PUSH2 0x27AF JUMP JUMPDEST SWAP1 POP SWAP2 SWAP1 POP JUMP JUMPDEST PUSH32 0x4E487B7100000000000000000000000000000000000000000000000000000000 PUSH0 MSTORE PUSH1 0x32 PUSH1 0x4 MSTORE PUSH1 0x24 PUSH0 REVERT JUMPDEST PUSH32 0x4E487B7100000000000000000000000000000000000000000000000000000000 PUSH0 MSTORE PUSH1 0x11 PUSH1 0x4 MSTORE PUSH1 0x24 PUSH0 REVERT JUMPDEST PUSH0 PUSH2 0x2853 DUP3 PUSH2 0x1AB3 JUMP JUMPDEST SWAP2 POP PUSH2 0x285E DUP4 PUSH2 0x1AB3 JUMP JUMPDEST SWAP3 POP DUP3 DUP3 SUB SWAP1 POP DUP2 DUP2 GT ISZERO PUSH2 0x2876 JUMPI PUSH2 0x2875 PUSH2 0x281C JUMP JUMPDEST JUMPDEST SWAP3 SWAP2 POP POP JUMP JUMPDEST PUSH0 PUSH2 0x2886 DUP3 PUSH2 0x1AB3 JUMP JUMPDEST SWAP2 POP PUSH2 0x2891 DUP4 PUSH2 0x1AB3 JUMP JUMPDEST SWAP3 POP DUP3 DUP3 ADD SWAP1 POP DUP1 DUP3 GT ISZERO PUSH2 0x28A9 JUMPI PUSH2 0x28A8 PUSH2 0x281C JUMP JUMPDEST JUMPDEST SWAP3 SWAP2 POP POP JUMP JUMPDEST PUSH0 PUSH2 0x28B9 DUP3 PUSH2 0x1AB3 JUMP JUMPDEST SWAP2 POP PUSH32 0xFFFFFFFFFFFFFFFFFFFFFFFFFFFFFFFFFFFFFFFFFFFFFFFFFFFFFFFFFFFFFFFF DUP3 SUB PUSH2 0x28EB JUMPI PUSH2 0x28EA PUSH2 0x281C JUMP JUMPDEST JUMPDEST PUSH1 0x1 DUP3 ADD SWAP1 POP SWAP2 SWAP1 POP JUMP JUMPDEST PUSH32 0x7061796D656E74207472616E73666572206661696C6564000000000000000000 PUSH0 DUP3 ADD MSTORE POP JUMP JUMPDEST PUSH0 PUSH2 0x292A PUSH1 0x17 DUP4 PUSH2 0x2376 JUMP JUMPDEST SWAP2 POP PUSH2 0x2935 DUP3 PUSH2 0x28F6 JUMP JUMPDEST PUSH1 0x20 DUP3 ADD SWAP1 POP SWAP2 SWAP1 POP JUMP JUMPDEST PUSH0 PUSH1 0x20 DUP3 ADD SWAP1 POP DUP2 DUP2 SUB PUSH0 DUP4 ADD MSTORE PUSH2 0x2957 DUP2 PUSH2 0x291E JUMP JUMPDEST SWAP1 POP SWAP2 SWAP1 POP JUMP JUMPDEST PUSH32 0x696E73756666696369656E742066756E6473207472616E736D69747465640000 PUSH0 DUP3 ADD MSTORE POP JUMP JUMPDEST PUSH0 PUSH2 0x2992 PUSH1 0x1E DUP4 PUSH2 0x2376 JUMP JUMPDEST SWAP2 POP PUSH2 0x299D DUP3 PUSH2 0x295E JUMP JUMPDEST PUSH1 0x20 DUP3 ADD SWAP1 POP SWAP2 SWAP1 POP JUMP JUMPDEST PUSH0 PUSH1 0x20 DUP3 ADD SWAP1 POP DUP2 DUP2 SUB PUSH0 DUP4 ADD MSTORE PUSH2 0x29BF DUP2 PUSH2 0x2986 JUMP JUMPDEST SWAP1 POP SWAP2 SWAP1 POP JUMP JUMPDEST PUSH0 PUSH1 0x60 DUP3 ADD SWAP1 POP PUSH2 0x29D9 PUSH0 DUP4 ADD DUP7 PUSH2 0x2234 JUMP JUMPDEST PUSH2 0x29E6 PUSH1 0x20 DUP4 ADD DUP6 PUSH2 0x2234 JUMP JUMPDEST PUSH2 0x29F3 PUSH1 0x40 DUP4 ADD DUP5 PUSH2 0x1C36 JUMP JUMPDEST SWAP5 SWAP4 POP POP POP POP JUMP JUMPDEST PUSH0 DUP2 MLOAD SWAP1 POP PUSH2 0x2A09 DUP2 PUSH2 0x1F23 JUMP JUMPDEST SWAP3 SWAP2 POP POP JUMP JUMPDEST PUSH0 PUSH1 0x20 DUP3 DUP5 SUB SLT ISZERO PUSH2 0x2A24 JUMPI PUSH2 0x2A23 PUSH2 0x1AAB JUMP JUMPDEST JUMPDEST PUSH0 PUSH2 0x2A31 DUP5 DUP3 DUP6 ADD PUSH2 0x29FB JUMP JUMPDEST SWAP2 POP POP SWAP3 SWAP2 POP POP JUMP JUMPDEST PUSH0 PUSH2 0x2A44 DUP3 PUSH2 0x1AB3 JUMP JUMPDEST SWAP2 POP PUSH2 0x2A4F DUP4 PUSH2 0x1AB3 JUMP JUMPDEST SWAP3 POP DUP3 DUP3 MUL PUSH2 0x2A5D DUP2 PUSH2 0x1AB3 JUMP JUMPDEST SWAP2 POP DUP3 DUP3 DIV DUP5 EQ DUP4 ISZERO OR PUSH2 0x2A74 JUMPI PUSH2 0x2A73 PUSH2 0x281C JUMP JUMPDEST JUMPDEST POP SWAP3 SWAP2 POP POP JUMP INVALID LOG2 PUSH5 0x6970667358 0x22 SLT KECCAK256 INVALID 0xEF 0x2C DUP1 0x21 0xE5 PUSH23 0xC793AD3B4700E30B920477FFBF66CA940F8A953AC7D76D 0x2E 0x23 PUSH5 0x736F6C6343 STOP ADDMOD BYTE STOP CALLER "
				},
				"gasEstimates": {
					"creation": {
						"codeDepositCost": "2185800",
						"executionCost": "infinite",
						"totalCost": "infinite"
					},
					"external": {
						"addReward(uint256,address,uint256,uint256)": "infinite",
						"applyForJob(uint256,string,uint256,address,bool)": "infinite",
						"approveRewards(uint256,uint256[])": "infinite",
						"getApplicant(uint256)": "infinite",
						"getApplicantIds(uint256)": "infinite",
						"getJob(uint256)": "infinite",
						"getJobIds()": "infinite",
						"getJobReward(uint256)": "infinite",
						"getOwnerJobIds()": "infinite",
						"getPaymentErc20()": "infinite",
						"getPrice(uint8)": "2825",
						"hasReward(uint256)": "2899",
						"makeJobUnavailable(uint256)": "infinite",
						"postJob(string,uint8)": "infinite",
						"setPrice(uint8,uint256)": "25228"
					},
					"internal": {
						"getDuration(enum Duration)": "infinite",
						"getId()": "24371",
						"transferIn(address,uint256)": "infinite",
						"transferOut(address,uint256,address)": "infinite",
						"transferOutCrossChain(address,uint256,address,uint256)": "25"
					}
				},
				"methodIdentifiers": {
					"addReward(uint256,address,uint256,uint256)": "78d5b517",
					"applyForJob(uint256,string,uint256,address,bool)": "4fb3bebc",
					"approveRewards(uint256,uint256[])": "83238fb4",
					"getApplicant(uint256)": "eea3f82d",
					"getApplicantIds(uint256)": "098b2cbd",
					"getJob(uint256)": "bf22c457",
					"getJobIds()": "4b0fa847",
					"getJobReward(uint256)": "cd449446",
					"getOwnerJobIds()": "393f190d",
					"getPaymentErc20()": "9217cbe0",
					"getPrice(uint8)": "37f1e7f2",
					"hasReward(uint256)": "970e003c",
					"makeJobUnavailable(uint256)": "43351d95",
					"postJob(string,uint8)": "a9144e1a",
					"setPrice(uint8,uint256)": "6a00670b"
				}
			},
			"storageLayout": {
				"storage": [
					{
						"astId": 415,
						"contract": "contracts/core/JobBoardDelta.sol:JobBoardDelta",
						"label": "index",
						"offset": 0,
						"slot": "0",
						"type": "t_uint256"
					},
					{
						"astId": 417,
						"contract": "contracts/core/JobBoardDelta.sol:JobBoardDelta",
						"label": "admin",
						"offset": 0,
						"slot": "1",
						"type": "t_address"
					},
					{
						"astId": 424,
						"contract": "contracts/core/JobBoardDelta.sol:JobBoardDelta",
						"label": "jobIds",
						"offset": 0,
						"slot": "2",
						"type": "t_array(t_uint256)dyn_storage"
					},
					{
						"astId": 429,
						"contract": "contracts/core/JobBoardDelta.sol:JobBoardDelta",
						"label": "jobById",
						"offset": 0,
						"slot": "3",
						"type": "t_mapping(t_uint256,t_struct(Job)1151_storage)"
					},
					{
						"astId": 434,
						"contract": "contracts/core/JobBoardDelta.sol:JobBoardDelta",
						"label": "jobIdByOwner",
						"offset": 0,
						"slot": "4",
						"type": "t_mapping(t_address,t_array(t_uint256)dyn_storage)"
					},
					{
						"astId": 438,
						"contract": "contracts/core/JobBoardDelta.sol:JobBoardDelta",
						"label": "hasRewardByJobId",
						"offset": 0,
						"slot": "5",
						"type": "t_mapping(t_uint256,t_bool)"
					},
					{
						"astId": 443,
						"contract": "contracts/core/JobBoardDelta.sol:JobBoardDelta",
						"label": "rewardByJobId",
						"offset": 0,
						"slot": "6",
						"type": "t_mapping(t_uint256,t_struct(Reward)1160_storage)"
					},
					{
						"astId": 448,
						"contract": "contracts/core/JobBoardDelta.sol:JobBoardDelta",
						"label": "priceByDuration",
						"offset": 0,
						"slot": "7",
						"type": "t_mapping(t_enum(Duration)1175,t_uint256)"
					},
					{
						"astId": 453,
						"contract": "contracts/core/JobBoardDelta.sol:JobBoardDelta",
						"label": "applicantIdsByJobId",
						"offset": 0,
						"slot": "8",
						"type": "t_mapping(t_uint256,t_array(t_uint256)dyn_storage)"
					},
					{
						"astId": 458,
						"contract": "contracts/core/JobBoardDelta.sol:JobBoardDelta",
						"label": "applicantById",
						"offset": 0,
						"slot": "9",
						"type": "t_mapping(t_uint256,t_struct(Applicant)1171_storage)"
					},
					{
						"astId": 464,
						"contract": "contracts/core/JobBoardDelta.sol:JobBoardDelta",
						"label": "isApplicantByApplicantIdByJobId",
						"offset": 0,
						"slot": "10",
						"type": "t_mapping(t_uint256,t_mapping(t_uint256,t_bool))"
					}
				],
				"types": {
					"t_address": {
						"encoding": "inplace",
						"label": "address",
						"numberOfBytes": "20"
					},
					"t_array(t_uint256)dyn_storage": {
						"base": "t_uint256",
						"encoding": "dynamic_array",
						"label": "uint256[]",
						"numberOfBytes": "32"
					},
					"t_bool": {
						"encoding": "inplace",
						"label": "bool",
						"numberOfBytes": "1"
					},
					"t_enum(Duration)1175": {
						"encoding": "inplace",
						"label": "enum Duration",
						"numberOfBytes": "1"
					},
					"t_mapping(t_address,t_array(t_uint256)dyn_storage)": {
						"encoding": "mapping",
						"key": "t_address",
						"label": "mapping(address => uint256[])",
						"numberOfBytes": "32",
						"value": "t_array(t_uint256)dyn_storage"
					},
					"t_mapping(t_enum(Duration)1175,t_uint256)": {
						"encoding": "mapping",
						"key": "t_enum(Duration)1175",
						"label": "mapping(enum Duration => uint256)",
						"numberOfBytes": "32",
						"value": "t_uint256"
					},
					"t_mapping(t_uint256,t_array(t_uint256)dyn_storage)": {
						"encoding": "mapping",
						"key": "t_uint256",
						"label": "mapping(uint256 => uint256[])",
						"numberOfBytes": "32",
						"value": "t_array(t_uint256)dyn_storage"
					},
					"t_mapping(t_uint256,t_bool)": {
						"encoding": "mapping",
						"key": "t_uint256",
						"label": "mapping(uint256 => bool)",
						"numberOfBytes": "32",
						"value": "t_bool"
					},
					"t_mapping(t_uint256,t_mapping(t_uint256,t_bool))": {
						"encoding": "mapping",
						"key": "t_uint256",
						"label": "mapping(uint256 => mapping(uint256 => bool))",
						"numberOfBytes": "32",
						"value": "t_mapping(t_uint256,t_bool)"
					},
					"t_mapping(t_uint256,t_struct(Applicant)1171_storage)": {
						"encoding": "mapping",
						"key": "t_uint256",
						"label": "mapping(uint256 => struct Applicant)",
						"numberOfBytes": "32",
						"value": "t_struct(Applicant)1171_storage"
					},
					"t_mapping(t_uint256,t_struct(Job)1151_storage)": {
						"encoding": "mapping",
						"key": "t_uint256",
						"label": "mapping(uint256 => struct Job)",
						"numberOfBytes": "32",
						"value": "t_struct(Job)1151_storage"
					},
					"t_mapping(t_uint256,t_struct(Reward)1160_storage)": {
						"encoding": "mapping",
						"key": "t_uint256",
						"label": "mapping(uint256 => struct Reward)",
						"numberOfBytes": "32",
						"value": "t_struct(Reward)1160_storage"
					},
					"t_string_storage": {
						"encoding": "bytes",
						"label": "string",
						"numberOfBytes": "32"
					},
					"t_struct(Applicant)1171_storage": {
						"encoding": "inplace",
						"label": "struct Applicant",
						"members": [
							{
								"astId": 1162,
								"contract": "contracts/core/JobBoardDelta.sol:JobBoardDelta",
								"label": "id",
								"offset": 0,
								"slot": "0",
								"type": "t_uint256"
							},
							{
								"astId": 1164,
								"contract": "contracts/core/JobBoardDelta.sol:JobBoardDelta",
								"label": "resumeCid",
								"offset": 0,
								"slot": "1",
								"type": "t_string_storage"
							},
							{
								"astId": 1166,
								"contract": "contracts/core/JobBoardDelta.sol:JobBoardDelta",
								"label": "chainId",
								"offset": 0,
								"slot": "2",
								"type": "t_uint256"
							},
							{
								"astId": 1168,
								"contract": "contracts/core/JobBoardDelta.sol:JobBoardDelta",
								"label": "rewardAddress",
								"offset": 0,
								"slot": "3",
								"type": "t_address"
							},
							{
								"astId": 1170,
								"contract": "contracts/core/JobBoardDelta.sol:JobBoardDelta",
								"label": "referral",
								"offset": 20,
								"slot": "3",
								"type": "t_bool"
							}
						],
						"numberOfBytes": "128"
					},
					"t_struct(Job)1151_storage": {
						"encoding": "inplace",
						"label": "struct Job",
						"members": [
							{
								"astId": 1140,
								"contract": "contracts/core/JobBoardDelta.sol:JobBoardDelta",
								"label": "id",
								"offset": 0,
								"slot": "0",
								"type": "t_uint256"
							},
							{
								"astId": 1142,
								"contract": "contracts/core/JobBoardDelta.sol:JobBoardDelta",
								"label": "cid",
								"offset": 0,
								"slot": "1",
								"type": "t_string_storage"
							},
							{
								"astId": 1144,
								"contract": "contracts/core/JobBoardDelta.sol:JobBoardDelta",
								"label": "postedDate",
								"offset": 0,
								"slot": "2",
								"type": "t_uint256"
							},
							{
								"astId": 1146,
								"contract": "contracts/core/JobBoardDelta.sol:JobBoardDelta",
								"label": "expiredDate",
								"offset": 0,
								"slot": "3",
								"type": "t_uint256"
							},
							{
								"astId": 1148,
								"contract": "contracts/core/JobBoardDelta.sol:JobBoardDelta",
								"label": "available",
								"offset": 0,
								"slot": "4",
								"type": "t_bool"
							},
							{
								"astId": 1150,
								"contract": "contracts/core/JobBoardDelta.sol:JobBoardDelta",
								"label": "owner",
								"offset": 1,
								"slot": "4",
								"type": "t_address"
							}
						],
						"numberOfBytes": "160"
					},
					"t_struct(Reward)1160_storage": {
						"encoding": "inplace",
						"label": "struct Reward",
						"members": [
							{
								"astId": 1153,
								"contract": "contracts/core/JobBoardDelta.sol:JobBoardDelta",
								"label": "erc20",
								"offset": 0,
								"slot": "0",
								"type": "t_address"
							},
							{
								"astId": 1155,
								"contract": "contracts/core/JobBoardDelta.sol:JobBoardDelta",
								"label": "totalReward",
								"offset": 0,
								"slot": "1",
								"type": "t_uint256"
							},
							{
								"astId": 1157,
								"contract": "contracts/core/JobBoardDelta.sol:JobBoardDelta",
								"label": "individualReward",
								"offset": 0,
								"slot": "2",
								"type": "t_uint256"
							},
							{
								"astId": 1159,
								"contract": "contracts/core/JobBoardDelta.sol:JobBoardDelta",
								"label": "distributed",
								"offset": 0,
								"slot": "3",
								"type": "t_uint256"
							}
						],
						"numberOfBytes": "128"
					},
					"t_uint256": {
						"encoding": "inplace",
						"label": "uint256",
						"numberOfBytes": "32"
					}
				}
			},
			"userdoc": {
				"kind": "user",
				"methods": {},
				"version": 1
			}
		}
	}
}