{
	"contracts/core/JobBoardDelta.sol": {
		"JobBoardDelta": {
			"abi": [
				{
					"inputs": [
						{
							"internalType": "address",
							"name": "_admin",
							"type": "address"
						}
					],
					"stateMutability": "nonpayable",
					"type": "constructor"
				},
				{
					"inputs": [
						{
							"internalType": "uint256",
							"name": "_jobId",
							"type": "uint256"
						},
						{
							"internalType": "address",
							"name": "_erc20",
							"type": "address"
						},
						{
							"internalType": "uint256",
							"name": "_rewardAmount",
							"type": "uint256"
						},
						{
							"internalType": "uint256",
							"name": "_amountPerApplicant",
							"type": "uint256"
						}
					],
					"name": "addReward",
					"outputs": [
						{
							"components": [
								{
									"internalType": "address",
									"name": "erc20",
									"type": "address"
								},
								{
									"internalType": "uint256",
									"name": "totalReward",
									"type": "uint256"
								},
								{
									"internalType": "uint256",
									"name": "individualReward",
									"type": "uint256"
								},
								{
									"internalType": "uint256",
									"name": "distributed",
									"type": "uint256"
								}
							],
							"internalType": "struct Reward",
							"name": "_reward",
							"type": "tuple"
						}
					],
					"stateMutability": "payable",
					"type": "function"
				},
				{
					"inputs": [
						{
							"internalType": "uint256",
							"name": "_jobId",
							"type": "uint256"
						}
					],
					"name": "getJob",
					"outputs": [
						{
							"components": [
								{
									"internalType": "uint256",
									"name": "id",
									"type": "uint256"
								},
								{
									"internalType": "string",
									"name": "cid",
									"type": "string"
								},
								{
									"internalType": "uint256",
									"name": "postedDate",
									"type": "uint256"
								},
								{
									"internalType": "uint256",
									"name": "expiredDate",
									"type": "uint256"
								},
								{
									"internalType": "bool",
									"name": "available",
									"type": "bool"
								},
								{
									"internalType": "address",
									"name": "owner",
									"type": "address"
								}
							],
							"internalType": "struct Job",
							"name": "_job",
							"type": "tuple"
						}
					],
					"stateMutability": "view",
					"type": "function"
				},
				{
					"inputs": [],
					"name": "getJobIds",
					"outputs": [
						{
							"internalType": "uint256[]",
							"name": "_ids",
							"type": "uint256[]"
						}
					],
					"stateMutability": "view",
					"type": "function"
				},
				{
					"inputs": [],
					"name": "getOwnerJobIds",
					"outputs": [
						{
							"internalType": "uint256[]",
							"name": "_jobIds",
							"type": "uint256[]"
						}
					],
					"stateMutability": "view",
					"type": "function"
				},
				{
					"inputs": [
						{
							"internalType": "uint256",
							"name": "_jobId",
							"type": "uint256"
						}
					],
					"name": "hasReward",
					"outputs": [
						{
							"internalType": "bool",
							"name": "_hasReward",
							"type": "bool"
						}
					],
					"stateMutability": "view",
					"type": "function"
				},
				{
					"inputs": [
						{
							"internalType": "uint256",
							"name": "_jobId",
							"type": "uint256"
						}
					],
					"name": "makeJobUnavailable",
					"outputs": [
						{
							"components": [
								{
									"internalType": "uint256",
									"name": "id",
									"type": "uint256"
								},
								{
									"internalType": "string",
									"name": "cid",
									"type": "string"
								},
								{
									"internalType": "uint256",
									"name": "postedDate",
									"type": "uint256"
								},
								{
									"internalType": "uint256",
									"name": "expiredDate",
									"type": "uint256"
								},
								{
									"internalType": "bool",
									"name": "available",
									"type": "bool"
								},
								{
									"internalType": "address",
									"name": "owner",
									"type": "address"
								}
							],
							"internalType": "struct Job",
							"name": "_job",
							"type": "tuple"
						}
					],
					"stateMutability": "nonpayable",
					"type": "function"
				},
				{
					"inputs": [
						{
							"internalType": "string",
							"name": "_cid",
							"type": "string"
						},
						{
							"internalType": "enum Duration",
							"name": "_duration",
							"type": "uint8"
						}
					],
					"name": "postJob",
					"outputs": [
						{
							"components": [
								{
									"internalType": "uint256",
									"name": "id",
									"type": "uint256"
								},
								{
									"internalType": "string",
									"name": "cid",
									"type": "string"
								},
								{
									"internalType": "uint256",
									"name": "postedDate",
									"type": "uint256"
								},
								{
									"internalType": "uint256",
									"name": "expiredDate",
									"type": "uint256"
								},
								{
									"internalType": "bool",
									"name": "available",
									"type": "bool"
								},
								{
									"internalType": "address",
									"name": "owner",
									"type": "address"
								}
							],
							"internalType": "struct Job",
							"name": "_job",
							"type": "tuple"
						}
					],
					"stateMutability": "payable",
					"type": "function"
				}
			],
			"devdoc": {
				"kind": "dev",
				"methods": {},
				"version": 1
			},
			"evm": {
				"assembly": "    /* \"contracts/core/JobBoardDelta.sol\":120:3411  contract JobBoardDelta is IJobBoardDelta {... */\n  mstore(0x40, 0x80)\n    /* \"contracts/core/JobBoardDelta.sol\":521:583  constructor(address _admin) {... */\n  callvalue\n  dup1\n  iszero\n  tag_1\n  jumpi\n  0x00\n  dup1\n  revert\ntag_1:\n  pop\n  mload(0x40)\n  sub(codesize, bytecodeSize)\n  dup1\n  bytecodeSize\n  dup4\n  codecopy\n  dup2\n  dup2\n  add\n  0x40\n  mstore\n  dup2\n  add\n  swap1\n  tag_2\n  swap2\n  swap1\n  tag_3\n  jump\t// in\ntag_2:\n    /* \"contracts/core/JobBoardDelta.sol\":568:574  _admin */\n  dup1\n    /* \"contracts/core/JobBoardDelta.sol\":560:565  admin */\n  0x01\n  0x00\n    /* \"contracts/core/JobBoardDelta.sol\":560:574  admin = _admin */\n  0x0100\n  exp\n  dup2\n  sload\n  dup2\n  0xffffffffffffffffffffffffffffffffffffffff\n  mul\n  not\n  and\n  swap1\n  dup4\n  0xffffffffffffffffffffffffffffffffffffffff\n  and\n  mul\n  or\n  swap1\n  sstore\n  pop\n    /* \"contracts/core/JobBoardDelta.sol\":521:583  constructor(address _admin) {... */\n  pop\n    /* \"contracts/core/JobBoardDelta.sol\":120:3411  contract JobBoardDelta is IJobBoardDelta {... */\n  jump(tag_6)\n    /* \"#utility.yul\":88:205   */\ntag_8:\n    /* \"#utility.yul\":197:198   */\n  0x00\n    /* \"#utility.yul\":194:195   */\n  dup1\n    /* \"#utility.yul\":187:199   */\n  revert\n    /* \"#utility.yul\":334:460   */\ntag_10:\n    /* \"#utility.yul\":371:378   */\n  0x00\n    /* \"#utility.yul\":411:453   */\n  0xffffffffffffffffffffffffffffffffffffffff\n    /* \"#utility.yul\":404:409   */\n  dup3\n    /* \"#utility.yul\":400:454   */\n  and\n    /* \"#utility.yul\":389:454   */\n  swap1\n  pop\n    /* \"#utility.yul\":334:460   */\n  swap2\n  swap1\n  pop\n  jump\t// out\n    /* \"#utility.yul\":466:562   */\ntag_11:\n    /* \"#utility.yul\":503:510   */\n  0x00\n    /* \"#utility.yul\":532:556   */\n  tag_20\n    /* \"#utility.yul\":550:555   */\n  dup3\n    /* \"#utility.yul\":532:556   */\n  tag_10\n  jump\t// in\ntag_20:\n    /* \"#utility.yul\":521:556   */\n  swap1\n  pop\n    /* \"#utility.yul\":466:562   */\n  swap2\n  swap1\n  pop\n  jump\t// out\n    /* \"#utility.yul\":568:690   */\ntag_12:\n    /* \"#utility.yul\":641:665   */\n  tag_22\n    /* \"#utility.yul\":659:664   */\n  dup2\n    /* \"#utility.yul\":641:665   */\n  tag_11\n  jump\t// in\ntag_22:\n    /* \"#utility.yul\":634:639   */\n  dup2\n    /* \"#utility.yul\":631:666   */\n  eq\n    /* \"#utility.yul\":621:684   */\n  tag_23\n  jumpi\n    /* \"#utility.yul\":680:681   */\n  0x00\n    /* \"#utility.yul\":677:678   */\n  dup1\n    /* \"#utility.yul\":670:682   */\n  revert\n    /* \"#utility.yul\":621:684   */\ntag_23:\n    /* \"#utility.yul\":568:690   */\n  pop\n  jump\t// out\n    /* \"#utility.yul\":696:839   */\ntag_13:\n    /* \"#utility.yul\":753:758   */\n  0x00\n    /* \"#utility.yul\":784:790   */\n  dup2\n    /* \"#utility.yul\":778:791   */\n  mload\n    /* \"#utility.yul\":769:791   */\n  swap1\n  pop\n    /* \"#utility.yul\":800:833   */\n  tag_25\n    /* \"#utility.yul\":827:832   */\n  dup2\n    /* \"#utility.yul\":800:833   */\n  tag_12\n  jump\t// in\ntag_25:\n    /* \"#utility.yul\":696:839   */\n  swap3\n  swap2\n  pop\n  pop\n  jump\t// out\n    /* \"#utility.yul\":845:1196   */\ntag_3:\n    /* \"#utility.yul\":915:921   */\n  0x00\n    /* \"#utility.yul\":964:966   */\n  0x20\n    /* \"#utility.yul\":952:961   */\n  dup3\n    /* \"#utility.yul\":943:950   */\n  dup5\n    /* \"#utility.yul\":939:962   */\n  sub\n    /* \"#utility.yul\":935:967   */\n  slt\n    /* \"#utility.yul\":932:1051   */\n  iszero\n  tag_27\n  jumpi\n    /* \"#utility.yul\":970:1049   */\n  tag_28\n  tag_8\n  jump\t// in\ntag_28:\n    /* \"#utility.yul\":932:1051   */\ntag_27:\n    /* \"#utility.yul\":1090:1091   */\n  0x00\n    /* \"#utility.yul\":1115:1179   */\n  tag_29\n    /* \"#utility.yul\":1171:1178   */\n  dup5\n    /* \"#utility.yul\":1162:1168   */\n  dup3\n    /* \"#utility.yul\":1151:1160   */\n  dup6\n    /* \"#utility.yul\":1147:1169   */\n  add\n    /* \"#utility.yul\":1115:1179   */\n  tag_13\n  jump\t// in\ntag_29:\n    /* \"#utility.yul\":1105:1179   */\n  swap2\n  pop\n    /* \"#utility.yul\":1061:1189   */\n  pop\n    /* \"#utility.yul\":845:1196   */\n  swap3\n  swap2\n  pop\n  pop\n  jump\t// out\n    /* \"contracts/core/JobBoardDelta.sol\":120:3411  contract JobBoardDelta is IJobBoardDelta {... */\ntag_6:\n  dataSize(sub_0)\n  dup1\n  dataOffset(sub_0)\n  0x00\n  codecopy\n  0x00\n  return\nstop\n\nsub_0: assembly {\n        /* \"contracts/core/JobBoardDelta.sol\":120:3411  contract JobBoardDelta is IJobBoardDelta {... */\n      mstore(0x40, 0x80)\n      jumpi(tag_1, lt(calldatasize, 0x04))\n      shr(0xe0, calldataload(0x00))\n      dup1\n      0x78d5b517\n      gt\n      tag_9\n      jumpi\n      dup1\n      0x78d5b517\n      eq\n      tag_5\n      jumpi\n      dup1\n      0x970e003c\n      eq\n      tag_6\n      jumpi\n      dup1\n      0xa9144e1a\n      eq\n      tag_7\n      jumpi\n      dup1\n      0xbf22c457\n      eq\n      tag_8\n      jumpi\n      jump(tag_1)\n    tag_9:\n      dup1\n      0x393f190d\n      eq\n      tag_2\n      jumpi\n      dup1\n      0x43351d95\n      eq\n      tag_3\n      jumpi\n      dup1\n      0x4b0fa847\n      eq\n      tag_4\n      jumpi\n    tag_1:\n      0x00\n      dup1\n      revert\n        /* \"contracts/core/JobBoardDelta.sol\":2624:2750  function getOwnerJobIds() view external returns (uint256 [] memory _jobIds) {... */\n    tag_2:\n      callvalue\n      dup1\n      iszero\n      tag_10\n      jumpi\n      0x00\n      dup1\n      revert\n    tag_10:\n      pop\n      tag_11\n      tag_12\n      jump\t// in\n    tag_11:\n      mload(0x40)\n      tag_13\n      swap2\n      swap1\n      tag_14\n      jump\t// in\n    tag_13:\n      mload(0x40)\n      dup1\n      swap2\n      sub\n      swap1\n      return\n        /* \"contracts/core/JobBoardDelta.sol\":950:1187  function makeJobUnavailable(uint256 _jobId) external returns (Job memory _job){... */\n    tag_3:\n      callvalue\n      dup1\n      iszero\n      tag_15\n      jumpi\n      0x00\n      dup1\n      revert\n    tag_15:\n      pop\n      tag_16\n      0x04\n      dup1\n      calldatasize\n      sub\n      dup2\n      add\n      swap1\n      tag_17\n      swap2\n      swap1\n      tag_18\n      jump\t// in\n    tag_17:\n      tag_19\n      jump\t// in\n    tag_16:\n      mload(0x40)\n      tag_20\n      swap2\n      swap1\n      tag_21\n      jump\t// in\n    tag_20:\n      mload(0x40)\n      dup1\n      swap2\n      sub\n      swap1\n      return\n        /* \"contracts/core/JobBoardDelta.sol\":591:690  function getJobIds() view external returns (uint256 [] memory _ids){... */\n    tag_4:\n      callvalue\n      dup1\n      iszero\n      tag_22\n      jumpi\n      0x00\n      dup1\n      revert\n    tag_22:\n      pop\n      tag_23\n      tag_24\n      jump\t// in\n    tag_23:\n      mload(0x40)\n      tag_25\n      swap2\n      swap1\n      tag_14\n      jump\t// in\n    tag_25:\n      mload(0x40)\n      dup1\n      swap2\n      sub\n      swap1\n      return\n        /* \"contracts/core/JobBoardDelta.sol\":1859:2616  function addReward(uint256 _jobId, address _erc20, uint256 _rewardAmount, uint256 _amountPerApplicant) payable external returns (Reward memory _reward) {... */\n    tag_5:\n      tag_26\n      0x04\n      dup1\n      calldatasize\n      sub\n      dup2\n      add\n      swap1\n      tag_27\n      swap2\n      swap1\n      tag_28\n      jump\t// in\n    tag_27:\n      tag_29\n      jump\t// in\n    tag_26:\n      mload(0x40)\n      tag_30\n      swap2\n      swap1\n      tag_31\n      jump\t// in\n    tag_30:\n      mload(0x40)\n      dup1\n      swap2\n      sub\n      swap1\n      return\n        /* \"contracts/core/JobBoardDelta.sol\":818:942  function hasReward(uint256 _jobId) view external returns (bool _hasReward) {... */\n    tag_6:\n      callvalue\n      dup1\n      iszero\n      tag_32\n      jumpi\n      0x00\n      dup1\n      revert\n    tag_32:\n      pop\n      tag_33\n      0x04\n      dup1\n      calldatasize\n      sub\n      dup2\n      add\n      swap1\n      tag_34\n      swap2\n      swap1\n      tag_18\n      jump\t// in\n    tag_34:\n      tag_35\n      jump\t// in\n    tag_33:\n      mload(0x40)\n      tag_36\n      swap2\n      swap1\n      tag_37\n      jump\t// in\n    tag_36:\n      mload(0x40)\n      dup1\n      swap2\n      sub\n      swap1\n      return\n        /* \"contracts/core/JobBoardDelta.sol\":1195:1851  function postJob(string memory _cid, Duration _duration) payable external returns (Job memory _job){... */\n    tag_7:\n      tag_38\n      0x04\n      dup1\n      calldatasize\n      sub\n      dup2\n      add\n      swap1\n      tag_39\n      swap2\n      swap1\n      tag_40\n      jump\t// in\n    tag_39:\n      tag_41\n      jump\t// in\n    tag_38:\n      mload(0x40)\n      tag_42\n      swap2\n      swap1\n      tag_21\n      jump\t// in\n    tag_42:\n      mload(0x40)\n      dup1\n      swap2\n      sub\n      swap1\n      return\n        /* \"contracts/core/JobBoardDelta.sol\":698:810  function getJob(uint256 _jobId) view external returns (Job memory _job){... */\n    tag_8:\n      callvalue\n      dup1\n      iszero\n      tag_43\n      jumpi\n      0x00\n      dup1\n      revert\n    tag_43:\n      pop\n      tag_44\n      0x04\n      dup1\n      calldatasize\n      sub\n      dup2\n      add\n      swap1\n      tag_45\n      swap2\n      swap1\n      tag_18\n      jump\t// in\n    tag_45:\n      tag_46\n      jump\t// in\n    tag_44:\n      mload(0x40)\n      tag_47\n      swap2\n      swap1\n      tag_21\n      jump\t// in\n    tag_47:\n      mload(0x40)\n      dup1\n      swap2\n      sub\n      swap1\n      return\n        /* \"contracts/core/JobBoardDelta.sol\":2624:2750  function getOwnerJobIds() view external returns (uint256 [] memory _jobIds) {... */\n    tag_12:\n        /* \"contracts/core/JobBoardDelta.sol\":2673:2698  uint256 [] memory _jobIds */\n      0x60\n        /* \"contracts/core/JobBoardDelta.sol\":2718:2730  jobIdByOwner */\n      0x04\n        /* \"contracts/core/JobBoardDelta.sol\":2718:2742  jobIdByOwner[msg.sender] */\n      0x00\n        /* \"contracts/core/JobBoardDelta.sol\":2731:2741  msg.sender */\n      caller\n        /* \"contracts/core/JobBoardDelta.sol\":2718:2742  jobIdByOwner[msg.sender] */\n      0xffffffffffffffffffffffffffffffffffffffff\n      and\n      0xffffffffffffffffffffffffffffffffffffffff\n      and\n      dup2\n      mstore\n      0x20\n      add\n      swap1\n      dup2\n      mstore\n      0x20\n      add\n      0x00\n      keccak256\n        /* \"contracts/core/JobBoardDelta.sol\":2711:2742  return jobIdByOwner[msg.sender] */\n      dup1\n      sload\n      dup1\n      0x20\n      mul\n      0x20\n      add\n      mload(0x40)\n      swap1\n      dup2\n      add\n      0x40\n      mstore\n      dup1\n      swap3\n      swap2\n      swap1\n      dup2\n      dup2\n      mstore\n      0x20\n      add\n      dup3\n      dup1\n      sload\n      dup1\n      iszero\n      tag_49\n      jumpi\n      0x20\n      mul\n      dup3\n      add\n      swap2\n      swap1\n      0x00\n      mstore\n      keccak256(0x00, 0x20)\n      swap1\n    tag_50:\n      dup2\n      sload\n      dup2\n      mstore\n      0x20\n      add\n      swap1\n      0x01\n      add\n      swap1\n      dup1\n      dup4\n      gt\n      tag_50\n      jumpi\n    tag_49:\n      pop\n      pop\n      pop\n      pop\n      pop\n      swap1\n      pop\n        /* \"contracts/core/JobBoardDelta.sol\":2624:2750  function getOwnerJobIds() view external returns (uint256 [] memory _jobIds) {... */\n      swap1\n      jump\t// out\n        /* \"contracts/core/JobBoardDelta.sol\":950:1187  function makeJobUnavailable(uint256 _jobId) external returns (Job memory _job){... */\n    tag_19:\n        /* \"contracts/core/JobBoardDelta.sol\":1012:1027  Job memory _job */\n      tag_51\n      tag_52\n      jump\t// in\n    tag_51:\n        /* \"contracts/core/JobBoardDelta.sol\":1072:1082  msg.sender */\n      caller\n        /* \"contracts/core/JobBoardDelta.sol\":1047:1082  jobById[_jobId].owner == msg.sender */\n      0xffffffffffffffffffffffffffffffffffffffff\n      and\n        /* \"contracts/core/JobBoardDelta.sol\":1047:1054  jobById */\n      0x03\n        /* \"contracts/core/JobBoardDelta.sol\":1047:1062  jobById[_jobId] */\n      0x00\n        /* \"contracts/core/JobBoardDelta.sol\":1055:1061  _jobId */\n      dup5\n        /* \"contracts/core/JobBoardDelta.sol\":1047:1062  jobById[_jobId] */\n      dup2\n      mstore\n      0x20\n      add\n      swap1\n      dup2\n      mstore\n      0x20\n      add\n      0x00\n      keccak256\n        /* \"contracts/core/JobBoardDelta.sol\":1047:1068  jobById[_jobId].owner */\n      0x04\n      add\n      0x01\n      swap1\n      sload\n      swap1\n      0x0100\n      exp\n      swap1\n      div\n      0xffffffffffffffffffffffffffffffffffffffff\n      and\n        /* \"contracts/core/JobBoardDelta.sol\":1047:1082  jobById[_jobId].owner == msg.sender */\n      0xffffffffffffffffffffffffffffffffffffffff\n      and\n      eq\n        /* \"contracts/core/JobBoardDelta.sol\":1039:1101  require(jobById[_jobId].owner == msg.sender, \"job owner only\") */\n      tag_54\n      jumpi\n      mload(0x40)\n      0x08c379a000000000000000000000000000000000000000000000000000000000\n      dup2\n      mstore\n      0x04\n      add\n      tag_55\n      swap1\n      tag_56\n      jump\t// in\n    tag_55:\n      mload(0x40)\n      dup1\n      swap2\n      sub\n      swap1\n      revert\n    tag_54:\n        /* \"contracts/core/JobBoardDelta.sol\":1140:1145  false */\n      0x00\n        /* \"contracts/core/JobBoardDelta.sol\":1112:1119  jobById */\n      0x03\n        /* \"contracts/core/JobBoardDelta.sol\":1112:1127  jobById[_jobId] */\n      0x00\n        /* \"contracts/core/JobBoardDelta.sol\":1120:1126  _jobId */\n      dup5\n        /* \"contracts/core/JobBoardDelta.sol\":1112:1127  jobById[_jobId] */\n      dup2\n      mstore\n      0x20\n      add\n      swap1\n      dup2\n      mstore\n      0x20\n      add\n      0x00\n      keccak256\n        /* \"contracts/core/JobBoardDelta.sol\":1112:1137  jobById[_jobId].available */\n      0x04\n      add\n      0x00\n        /* \"contracts/core/JobBoardDelta.sol\":1112:1145  jobById[_jobId].available = false */\n      0x0100\n      exp\n      dup2\n      sload\n      dup2\n      0xff\n      mul\n      not\n      and\n      swap1\n      dup4\n      iszero\n      iszero\n      mul\n      or\n      swap1\n      sstore\n      pop\n        /* \"contracts/core/JobBoardDelta.sol\":1164:1171  jobById */\n      0x03\n        /* \"contracts/core/JobBoardDelta.sol\":1164:1179  jobById[_jobId] */\n      0x00\n        /* \"contracts/core/JobBoardDelta.sol\":1172:1178  _jobId */\n      dup4\n        /* \"contracts/core/JobBoardDelta.sol\":1164:1179  jobById[_jobId] */\n      dup2\n      mstore\n      0x20\n      add\n      swap1\n      dup2\n      mstore\n      0x20\n      add\n      0x00\n      keccak256\n        /* \"contracts/core/JobBoardDelta.sol\":1157:1179  return jobById[_jobId] */\n      mload(0x40)\n      dup1\n      0xc0\n      add\n      0x40\n      mstore\n      swap1\n      dup2\n      0x00\n      dup3\n      add\n      sload\n      dup2\n      mstore\n      0x20\n      add\n      0x01\n      dup3\n      add\n      dup1\n      sload\n      tag_57\n      swap1\n      tag_58\n      jump\t// in\n    tag_57:\n      dup1\n      0x1f\n      add\n      0x20\n      dup1\n      swap2\n      div\n      mul\n      0x20\n      add\n      mload(0x40)\n      swap1\n      dup2\n      add\n      0x40\n      mstore\n      dup1\n      swap3\n      swap2\n      swap1\n      dup2\n      dup2\n      mstore\n      0x20\n      add\n      dup3\n      dup1\n      sload\n      tag_59\n      swap1\n      tag_58\n      jump\t// in\n    tag_59:\n      dup1\n      iszero\n      tag_60\n      jumpi\n      dup1\n      0x1f\n      lt\n      tag_61\n      jumpi\n      0x0100\n      dup1\n      dup4\n      sload\n      div\n      mul\n      dup4\n      mstore\n      swap2\n      0x20\n      add\n      swap2\n      jump(tag_60)\n    tag_61:\n      dup3\n      add\n      swap2\n      swap1\n      0x00\n      mstore\n      keccak256(0x00, 0x20)\n      swap1\n    tag_62:\n      dup2\n      sload\n      dup2\n      mstore\n      swap1\n      0x01\n      add\n      swap1\n      0x20\n      add\n      dup1\n      dup4\n      gt\n      tag_62\n      jumpi\n      dup3\n      swap1\n      sub\n      0x1f\n      and\n      dup3\n      add\n      swap2\n    tag_60:\n      pop\n      pop\n      pop\n      pop\n      pop\n      dup2\n      mstore\n      0x20\n      add\n      0x02\n      dup3\n      add\n      sload\n      dup2\n      mstore\n      0x20\n      add\n      0x03\n      dup3\n      add\n      sload\n      dup2\n      mstore\n      0x20\n      add\n      0x04\n      dup3\n      add\n      0x00\n      swap1\n      sload\n      swap1\n      0x0100\n      exp\n      swap1\n      div\n      0xff\n      and\n      iszero\n      iszero\n      iszero\n      iszero\n      dup2\n      mstore\n      0x20\n      add\n      0x04\n      dup3\n      add\n      0x01\n      swap1\n      sload\n      swap1\n      0x0100\n      exp\n      swap1\n      div\n      0xffffffffffffffffffffffffffffffffffffffff\n      and\n      0xffffffffffffffffffffffffffffffffffffffff\n      and\n      0xffffffffffffffffffffffffffffffffffffffff\n      and\n      dup2\n      mstore\n      pop\n      pop\n      swap1\n      pop\n        /* \"contracts/core/JobBoardDelta.sol\":950:1187  function makeJobUnavailable(uint256 _jobId) external returns (Job memory _job){... */\n      swap2\n      swap1\n      pop\n      jump\t// out\n        /* \"contracts/core/JobBoardDelta.sol\":591:690  function getJobIds() view external returns (uint256 [] memory _ids){... */\n    tag_24:\n        /* \"contracts/core/JobBoardDelta.sol\":635:657  uint256 [] memory _ids */\n      0x60\n        /* \"contracts/core/JobBoardDelta.sol\":676:682  jobIds */\n      0x02\n        /* \"contracts/core/JobBoardDelta.sol\":669:682  return jobIds */\n      dup1\n      sload\n      dup1\n      0x20\n      mul\n      0x20\n      add\n      mload(0x40)\n      swap1\n      dup2\n      add\n      0x40\n      mstore\n      dup1\n      swap3\n      swap2\n      swap1\n      dup2\n      dup2\n      mstore\n      0x20\n      add\n      dup3\n      dup1\n      sload\n      dup1\n      iszero\n      tag_64\n      jumpi\n      0x20\n      mul\n      dup3\n      add\n      swap2\n      swap1\n      0x00\n      mstore\n      keccak256(0x00, 0x20)\n      swap1\n    tag_65:\n      dup2\n      sload\n      dup2\n      mstore\n      0x20\n      add\n      swap1\n      0x01\n      add\n      swap1\n      dup1\n      dup4\n      gt\n      tag_65\n      jumpi\n    tag_64:\n      pop\n      pop\n      pop\n      pop\n      pop\n      swap1\n      pop\n        /* \"contracts/core/JobBoardDelta.sol\":591:690  function getJobIds() view external returns (uint256 [] memory _ids){... */\n      swap1\n      jump\t// out\n        /* \"contracts/core/JobBoardDelta.sol\":1859:2616  function addReward(uint256 _jobId, address _erc20, uint256 _rewardAmount, uint256 _amountPerApplicant) payable external returns (Reward memory _reward) {... */\n    tag_29:\n        /* \"contracts/core/JobBoardDelta.sol\":1988:2009  Reward memory _reward */\n      tag_66\n      tag_67\n      jump\t// in\n    tag_66:\n        /* \"contracts/core/JobBoardDelta.sol\":2055:2065  msg.sender */\n      caller\n        /* \"contracts/core/JobBoardDelta.sol\":2030:2065  jobById[_jobId].owner == msg.sender */\n      0xffffffffffffffffffffffffffffffffffffffff\n      and\n        /* \"contracts/core/JobBoardDelta.sol\":2030:2037  jobById */\n      0x03\n        /* \"contracts/core/JobBoardDelta.sol\":2030:2045  jobById[_jobId] */\n      0x00\n        /* \"contracts/core/JobBoardDelta.sol\":2038:2044  _jobId */\n      dup8\n        /* \"contracts/core/JobBoardDelta.sol\":2030:2045  jobById[_jobId] */\n      dup2\n      mstore\n      0x20\n      add\n      swap1\n      dup2\n      mstore\n      0x20\n      add\n      0x00\n      keccak256\n        /* \"contracts/core/JobBoardDelta.sol\":2030:2051  jobById[_jobId].owner */\n      0x04\n      add\n      0x01\n      swap1\n      sload\n      swap1\n      0x0100\n      exp\n      swap1\n      div\n      0xffffffffffffffffffffffffffffffffffffffff\n      and\n        /* \"contracts/core/JobBoardDelta.sol\":2030:2065  jobById[_jobId].owner == msg.sender */\n      0xffffffffffffffffffffffffffffffffffffffff\n      and\n      eq\n        /* \"contracts/core/JobBoardDelta.sol\":2022:2084  require(jobById[_jobId].owner == msg.sender, \"job owner only\") */\n      tag_69\n      jumpi\n      mload(0x40)\n      0x08c379a000000000000000000000000000000000000000000000000000000000\n      dup2\n      mstore\n      0x04\n      add\n      tag_70\n      swap1\n      tag_56\n      jump\t// in\n    tag_70:\n      mload(0x40)\n      dup1\n      swap2\n      sub\n      swap1\n      revert\n    tag_69:\n        /* \"contracts/core/JobBoardDelta.sol\":2132:2136  true */\n      0x01\n        /* \"contracts/core/JobBoardDelta.sol\":2103:2136  jobById[_jobId].available == true */\n      iszero\n      iszero\n        /* \"contracts/core/JobBoardDelta.sol\":2103:2110  jobById */\n      0x03\n        /* \"contracts/core/JobBoardDelta.sol\":2103:2118  jobById[_jobId] */\n      0x00\n        /* \"contracts/core/JobBoardDelta.sol\":2111:2117  _jobId */\n      dup8\n        /* \"contracts/core/JobBoardDelta.sol\":2103:2118  jobById[_jobId] */\n      dup2\n      mstore\n      0x20\n      add\n      swap1\n      dup2\n      mstore\n      0x20\n      add\n      0x00\n      keccak256\n        /* \"contracts/core/JobBoardDelta.sol\":2103:2128  jobById[_jobId].available */\n      0x04\n      add\n      0x00\n      swap1\n      sload\n      swap1\n      0x0100\n      exp\n      swap1\n      div\n      0xff\n      and\n        /* \"contracts/core/JobBoardDelta.sol\":2103:2136  jobById[_jobId].available == true */\n      iszero\n      iszero\n      eq\n        /* \"contracts/core/JobBoardDelta.sol\":2095:2156  require(jobById[_jobId].available == true, \"job unavailable\") */\n      tag_71\n      jumpi\n      mload(0x40)\n      0x08c379a000000000000000000000000000000000000000000000000000000000\n      dup2\n      mstore\n      0x04\n      add\n      tag_72\n      swap1\n      tag_73\n      jump\t// in\n    tag_72:\n      mload(0x40)\n      dup1\n      swap2\n      sub\n      swap1\n      revert\n    tag_71:\n        /* \"contracts/core/JobBoardDelta.sol\":2206:2210  true */\n      0x01\n        /* \"contracts/core/JobBoardDelta.sol\":2179:2195  hasRewardByJobId */\n      0x05\n        /* \"contracts/core/JobBoardDelta.sol\":2179:2203  hasRewardByJobId[_jobId] */\n      0x00\n        /* \"contracts/core/JobBoardDelta.sol\":2196:2202  _jobId */\n      dup8\n        /* \"contracts/core/JobBoardDelta.sol\":2179:2203  hasRewardByJobId[_jobId] */\n      dup2\n      mstore\n      0x20\n      add\n      swap1\n      dup2\n      mstore\n      0x20\n      add\n      0x00\n      keccak256\n      0x00\n        /* \"contracts/core/JobBoardDelta.sol\":2179:2210  hasRewardByJobId[_jobId] = true */\n      0x0100\n      exp\n      dup2\n      sload\n      dup2\n      0xff\n      mul\n      not\n      and\n      swap1\n      dup4\n      iszero\n      iszero\n      mul\n      or\n      swap1\n      sstore\n      pop\n        /* \"contracts/core/JobBoardDelta.sol\":2246:2569  Reward({... */\n      mload(0x40)\n      dup1\n      0x80\n      add\n      0x40\n      mstore\n      dup1\n        /* \"contracts/core/JobBoardDelta.sol\":2306:2312  _erc20 */\n      dup6\n        /* \"contracts/core/JobBoardDelta.sol\":2246:2569  Reward({... */\n      0xffffffffffffffffffffffffffffffffffffffff\n      and\n      dup2\n      mstore\n      0x20\n      add\n        /* \"contracts/core/JobBoardDelta.sol\":2370:2383  _rewardAmount */\n      dup5\n        /* \"contracts/core/JobBoardDelta.sol\":2246:2569  Reward({... */\n      dup2\n      mstore\n      0x20\n      add\n        /* \"contracts/core/JobBoardDelta.sol\":2447:2466  _amountPerApplicant */\n      dup4\n        /* \"contracts/core/JobBoardDelta.sol\":2246:2569  Reward({... */\n      dup2\n      mstore\n      0x20\n      add\n        /* \"contracts/core/JobBoardDelta.sol\":2524:2525  0 */\n      0x00\n        /* \"contracts/core/JobBoardDelta.sol\":2246:2569  Reward({... */\n      dup2\n      mstore\n      pop\n        /* \"contracts/core/JobBoardDelta.sol\":2222:2235  rewardByJobId */\n      0x06\n        /* \"contracts/core/JobBoardDelta.sol\":2222:2243  rewardByJobId[_jobId] */\n      0x00\n        /* \"contracts/core/JobBoardDelta.sol\":2236:2242  _jobId */\n      dup8\n        /* \"contracts/core/JobBoardDelta.sol\":2222:2243  rewardByJobId[_jobId] */\n      dup2\n      mstore\n      0x20\n      add\n      swap1\n      dup2\n      mstore\n      0x20\n      add\n      0x00\n      keccak256\n        /* \"contracts/core/JobBoardDelta.sol\":2222:2569  rewardByJobId[_jobId] = Reward({... */\n      0x00\n      dup3\n      add\n      mload\n      dup2\n      0x00\n      add\n      exp(0x0100, 0x00)\n      dup2\n      sload\n      dup2\n      0xffffffffffffffffffffffffffffffffffffffff\n      mul\n      not\n      and\n      swap1\n      dup4\n      0xffffffffffffffffffffffffffffffffffffffff\n      and\n      mul\n      or\n      swap1\n      sstore\n      pop\n      0x20\n      dup3\n      add\n      mload\n      dup2\n      0x01\n      add\n      sstore\n      0x40\n      dup3\n      add\n      mload\n      dup2\n      0x02\n      add\n      sstore\n      0x60\n      dup3\n      add\n      mload\n      dup2\n      0x03\n      add\n      sstore\n      swap1\n      pop\n      pop\n        /* \"contracts/core/JobBoardDelta.sol\":2587:2600  rewardByJobId */\n      0x06\n        /* \"contracts/core/JobBoardDelta.sol\":2587:2608  rewardByJobId[_jobId] */\n      0x00\n        /* \"contracts/core/JobBoardDelta.sol\":2601:2607  _jobId */\n      dup7\n        /* \"contracts/core/JobBoardDelta.sol\":2587:2608  rewardByJobId[_jobId] */\n      dup2\n      mstore\n      0x20\n      add\n      swap1\n      dup2\n      mstore\n      0x20\n      add\n      0x00\n      keccak256\n        /* \"contracts/core/JobBoardDelta.sol\":2580:2608  return rewardByJobId[_jobId] */\n      mload(0x40)\n      dup1\n      0x80\n      add\n      0x40\n      mstore\n      swap1\n      dup2\n      0x00\n      dup3\n      add\n      0x00\n      swap1\n      sload\n      swap1\n      0x0100\n      exp\n      swap1\n      div\n      0xffffffffffffffffffffffffffffffffffffffff\n      and\n      0xffffffffffffffffffffffffffffffffffffffff\n      and\n      0xffffffffffffffffffffffffffffffffffffffff\n      and\n      dup2\n      mstore\n      0x20\n      add\n      0x01\n      dup3\n      add\n      sload\n      dup2\n      mstore\n      0x20\n      add\n      0x02\n      dup3\n      add\n      sload\n      dup2\n      mstore\n      0x20\n      add\n      0x03\n      dup3\n      add\n      sload\n      dup2\n      mstore\n      pop\n      pop\n      swap1\n      pop\n        /* \"contracts/core/JobBoardDelta.sol\":1859:2616  function addReward(uint256 _jobId, address _erc20, uint256 _rewardAmount, uint256 _amountPerApplicant) payable external returns (Reward memory _reward) {... */\n      swap5\n      swap4\n      pop\n      pop\n      pop\n      pop\n      jump\t// out\n        /* \"contracts/core/JobBoardDelta.sol\":818:942  function hasReward(uint256 _jobId) view external returns (bool _hasReward) {... */\n    tag_35:\n        /* \"contracts/core/JobBoardDelta.sol\":876:891  bool _hasReward */\n      0x00\n        /* \"contracts/core/JobBoardDelta.sol\":910:926  hasRewardByJobId */\n      0x05\n        /* \"contracts/core/JobBoardDelta.sol\":910:934  hasRewardByJobId[_jobId] */\n      0x00\n        /* \"contracts/core/JobBoardDelta.sol\":927:933  _jobId */\n      dup4\n        /* \"contracts/core/JobBoardDelta.sol\":910:934  hasRewardByJobId[_jobId] */\n      dup2\n      mstore\n      0x20\n      add\n      swap1\n      dup2\n      mstore\n      0x20\n      add\n      0x00\n      keccak256\n      0x00\n      swap1\n      sload\n      swap1\n      0x0100\n      exp\n      swap1\n      div\n      0xff\n      and\n        /* \"contracts/core/JobBoardDelta.sol\":903:934  return hasRewardByJobId[_jobId] */\n      swap1\n      pop\n        /* \"contracts/core/JobBoardDelta.sol\":818:942  function hasReward(uint256 _jobId) view external returns (bool _hasReward) {... */\n      swap2\n      swap1\n      pop\n      jump\t// out\n        /* \"contracts/core/JobBoardDelta.sol\":1195:1851  function postJob(string memory _cid, Duration _duration) payable external returns (Job memory _job){... */\n    tag_41:\n        /* \"contracts/core/JobBoardDelta.sol\":1278:1293  Job memory _job */\n      tag_75\n      tag_52\n      jump\t// in\n    tag_75:\n        /* \"contracts/core/JobBoardDelta.sol\":1305:1319  uint256 jobId_ */\n      0x00\n        /* \"contracts/core/JobBoardDelta.sol\":1322:1329  getId() */\n      tag_77\n        /* \"contracts/core/JobBoardDelta.sol\":1322:1327  getId */\n      tag_78\n        /* \"contracts/core/JobBoardDelta.sol\":1322:1329  getId() */\n      jump\t// in\n    tag_77:\n        /* \"contracts/core/JobBoardDelta.sol\":1305:1329  uint256 jobId_ = getId() */\n      swap1\n      pop\n        /* \"contracts/core/JobBoardDelta.sol\":1340:1346  jobIds */\n      0x02\n        /* \"contracts/core/JobBoardDelta.sol\":1352:1358  jobId_ */\n      dup2\n        /* \"contracts/core/JobBoardDelta.sol\":1340:1359  jobIds.push(jobId_) */\n      swap1\n      dup1\n      0x01\n      dup2\n      sload\n      add\n      dup1\n      dup3\n      sstore\n      dup1\n      swap2\n      pop\n      pop\n      0x01\n      swap1\n      sub\n      swap1\n      0x00\n      mstore\n      keccak256(0x00, 0x20)\n      add\n      0x00\n      swap1\n      swap2\n      swap1\n      swap2\n      swap1\n      swap2\n      pop\n      sstore\n        /* \"contracts/core/JobBoardDelta.sol\":1388:1772  Job({... */\n      mload(0x40)\n      dup1\n      0xc0\n      add\n      0x40\n      mstore\n      dup1\n        /* \"contracts/core/JobBoardDelta.sol\":1432:1438  jobId_ */\n      dup3\n        /* \"contracts/core/JobBoardDelta.sol\":1388:1772  Job({... */\n      dup2\n      mstore\n      0x20\n      add\n        /* \"contracts/core/JobBoardDelta.sol\":1480:1484  _cid */\n      dup6\n        /* \"contracts/core/JobBoardDelta.sol\":1388:1772  Job({... */\n      dup2\n      mstore\n      0x20\n      add\n        /* \"contracts/core/JobBoardDelta.sol\":1534:1549  block.timestamp */\n      timestamp\n        /* \"contracts/core/JobBoardDelta.sol\":1388:1772  Job({... */\n      dup2\n      mstore\n      0x20\n      add\n        /* \"contracts/core/JobBoardDelta.sol\":1624:1639  block.timestamp */\n      timestamp\n        /* \"contracts/core/JobBoardDelta.sol\":1599:1621  getDuration(_duration) */\n      tag_80\n        /* \"contracts/core/JobBoardDelta.sol\":1611:1620  _duration */\n      dup7\n        /* \"contracts/core/JobBoardDelta.sol\":1599:1610  getDuration */\n      tag_81\n        /* \"contracts/core/JobBoardDelta.sol\":1599:1621  getDuration(_duration) */\n      jump\t// in\n    tag_80:\n        /* \"contracts/core/JobBoardDelta.sol\":1599:1639  getDuration(_duration) + block.timestamp */\n      tag_82\n      swap2\n      swap1\n      tag_83\n      jump\t// in\n    tag_82:\n        /* \"contracts/core/JobBoardDelta.sol\":1388:1772  Job({... */\n      dup2\n      mstore\n      0x20\n      add\n        /* \"contracts/core/JobBoardDelta.sol\":1686:1690  true */\n      0x01\n        /* \"contracts/core/JobBoardDelta.sol\":1388:1772  Job({... */\n      iszero\n      iszero\n      dup2\n      mstore\n      0x20\n      add\n        /* \"contracts/core/JobBoardDelta.sol\":1734:1744  msg.sender */\n      caller\n        /* \"contracts/core/JobBoardDelta.sol\":1388:1772  Job({... */\n      0xffffffffffffffffffffffffffffffffffffffff\n      and\n      dup2\n      mstore\n      pop\n        /* \"contracts/core/JobBoardDelta.sol\":1370:1377  jobById */\n      0x03\n        /* \"contracts/core/JobBoardDelta.sol\":1370:1385  jobById[jobId_] */\n      0x00\n        /* \"contracts/core/JobBoardDelta.sol\":1378:1384  jobId_ */\n      dup4\n        /* \"contracts/core/JobBoardDelta.sol\":1370:1385  jobById[jobId_] */\n      dup2\n      mstore\n      0x20\n      add\n      swap1\n      dup2\n      mstore\n      0x20\n      add\n      0x00\n      keccak256\n        /* \"contracts/core/JobBoardDelta.sol\":1370:1772  jobById[jobId_] = Job({... */\n      0x00\n      dup3\n      add\n      mload\n      dup2\n      0x00\n      add\n      sstore\n      0x20\n      dup3\n      add\n      mload\n      dup2\n      0x01\n      add\n      swap1\n      dup2\n      tag_84\n      swap2\n      swap1\n      tag_85\n      jump\t// in\n    tag_84:\n      pop\n      0x40\n      dup3\n      add\n      mload\n      dup2\n      0x02\n      add\n      sstore\n      0x60\n      dup3\n      add\n      mload\n      dup2\n      0x03\n      add\n      sstore\n      0x80\n      dup3\n      add\n      mload\n      dup2\n      0x04\n      add\n      exp(0x0100, 0x00)\n      dup2\n      sload\n      dup2\n      0xff\n      mul\n      not\n      and\n      swap1\n      dup4\n      iszero\n      iszero\n      mul\n      or\n      swap1\n      sstore\n      pop\n      0xa0\n      dup3\n      add\n      mload\n      dup2\n      0x04\n      add\n      exp(0x0100, 0x01)\n      dup2\n      sload\n      dup2\n      0xffffffffffffffffffffffffffffffffffffffff\n      mul\n      not\n      and\n      swap1\n      dup4\n      0xffffffffffffffffffffffffffffffffffffffff\n      and\n      mul\n      or\n      swap1\n      sstore\n      pop\n      swap1\n      pop\n      pop\n        /* \"contracts/core/JobBoardDelta.sol\":1783:1795  jobIdByOwner */\n      0x04\n        /* \"contracts/core/JobBoardDelta.sol\":1783:1807  jobIdByOwner[msg.sender] */\n      0x00\n        /* \"contracts/core/JobBoardDelta.sol\":1796:1806  msg.sender */\n      caller\n        /* \"contracts/core/JobBoardDelta.sol\":1783:1807  jobIdByOwner[msg.sender] */\n      0xffffffffffffffffffffffffffffffffffffffff\n      and\n      0xffffffffffffffffffffffffffffffffffffffff\n      and\n      dup2\n      mstore\n      0x20\n      add\n      swap1\n      dup2\n      mstore\n      0x20\n      add\n      0x00\n      keccak256\n        /* \"contracts/core/JobBoardDelta.sol\":1813:1819  jobId_ */\n      dup2\n        /* \"contracts/core/JobBoardDelta.sol\":1783:1820  jobIdByOwner[msg.sender].push(jobId_) */\n      swap1\n      dup1\n      0x01\n      dup2\n      sload\n      add\n      dup1\n      dup3\n      sstore\n      dup1\n      swap2\n      pop\n      pop\n      0x01\n      swap1\n      sub\n      swap1\n      0x00\n      mstore\n      keccak256(0x00, 0x20)\n      add\n      0x00\n      swap1\n      swap2\n      swap1\n      swap2\n      swap1\n      swap2\n      pop\n      sstore\n        /* \"contracts/core/JobBoardDelta.sol\":1831:1842  return _job */\n      pop\n        /* \"contracts/core/JobBoardDelta.sol\":1195:1851  function postJob(string memory _cid, Duration _duration) payable external returns (Job memory _job){... */\n      swap3\n      swap2\n      pop\n      pop\n      jump\t// out\n        /* \"contracts/core/JobBoardDelta.sol\":698:810  function getJob(uint256 _jobId) view external returns (Job memory _job){... */\n    tag_46:\n        /* \"contracts/core/JobBoardDelta.sol\":753:768  Job memory _job */\n      tag_87\n      tag_52\n      jump\t// in\n    tag_87:\n        /* \"contracts/core/JobBoardDelta.sol\":787:794  jobById */\n      0x03\n        /* \"contracts/core/JobBoardDelta.sol\":787:802  jobById[_jobId] */\n      0x00\n        /* \"contracts/core/JobBoardDelta.sol\":795:801  _jobId */\n      dup4\n        /* \"contracts/core/JobBoardDelta.sol\":787:802  jobById[_jobId] */\n      dup2\n      mstore\n      0x20\n      add\n      swap1\n      dup2\n      mstore\n      0x20\n      add\n      0x00\n      keccak256\n        /* \"contracts/core/JobBoardDelta.sol\":780:802  return jobById[_jobId] */\n      mload(0x40)\n      dup1\n      0xc0\n      add\n      0x40\n      mstore\n      swap1\n      dup2\n      0x00\n      dup3\n      add\n      sload\n      dup2\n      mstore\n      0x20\n      add\n      0x01\n      dup3\n      add\n      dup1\n      sload\n      tag_89\n      swap1\n      tag_58\n      jump\t// in\n    tag_89:\n      dup1\n      0x1f\n      add\n      0x20\n      dup1\n      swap2\n      div\n      mul\n      0x20\n      add\n      mload(0x40)\n      swap1\n      dup2\n      add\n      0x40\n      mstore\n      dup1\n      swap3\n      swap2\n      swap1\n      dup2\n      dup2\n      mstore\n      0x20\n      add\n      dup3\n      dup1\n      sload\n      tag_90\n      swap1\n      tag_58\n      jump\t// in\n    tag_90:\n      dup1\n      iszero\n      tag_91\n      jumpi\n      dup1\n      0x1f\n      lt\n      tag_92\n      jumpi\n      0x0100\n      dup1\n      dup4\n      sload\n      div\n      mul\n      dup4\n      mstore\n      swap2\n      0x20\n      add\n      swap2\n      jump(tag_91)\n    tag_92:\n      dup3\n      add\n      swap2\n      swap1\n      0x00\n      mstore\n      keccak256(0x00, 0x20)\n      swap1\n    tag_93:\n      dup2\n      sload\n      dup2\n      mstore\n      swap1\n      0x01\n      add\n      swap1\n      0x20\n      add\n      dup1\n      dup4\n      gt\n      tag_93\n      jumpi\n      dup3\n      swap1\n      sub\n      0x1f\n      and\n      dup3\n      add\n      swap2\n    tag_91:\n      pop\n      pop\n      pop\n      pop\n      pop\n      dup2\n      mstore\n      0x20\n      add\n      0x02\n      dup3\n      add\n      sload\n      dup2\n      mstore\n      0x20\n      add\n      0x03\n      dup3\n      add\n      sload\n      dup2\n      mstore\n      0x20\n      add\n      0x04\n      dup3\n      add\n      0x00\n      swap1\n      sload\n      swap1\n      0x0100\n      exp\n      swap1\n      div\n      0xff\n      and\n      iszero\n      iszero\n      iszero\n      iszero\n      dup2\n      mstore\n      0x20\n      add\n      0x04\n      dup3\n      add\n      0x01\n      swap1\n      sload\n      swap1\n      0x0100\n      exp\n      swap1\n      div\n      0xffffffffffffffffffffffffffffffffffffffff\n      and\n      0xffffffffffffffffffffffffffffffffffffffff\n      and\n      0xffffffffffffffffffffffffffffffffffffffff\n      and\n      dup2\n      mstore\n      pop\n      pop\n      swap1\n      pop\n        /* \"contracts/core/JobBoardDelta.sol\":698:810  function getJob(uint256 _jobId) view external returns (Job memory _job){... */\n      swap2\n      swap1\n      pop\n      jump\t// out\n        /* \"contracts/core/JobBoardDelta.sol\":2872:2974  function getId() internal returns (uint256 _id) {... */\n    tag_78:\n        /* \"contracts/core/JobBoardDelta.sol\":2907:2918  uint256 _id */\n      0x00\n        /* \"contracts/core/JobBoardDelta.sol\":2937:2942  index */\n      dup1\n      0x00\n        /* \"contracts/core/JobBoardDelta.sol\":2937:2944  index++ */\n      dup2\n      sload\n      dup1\n      swap3\n      swap2\n      swap1\n      tag_95\n      swap1\n      tag_96\n      jump\t// in\n    tag_95:\n      swap2\n      swap1\n      pop\n      sstore\n        /* \"contracts/core/JobBoardDelta.sol\":2931:2944  _id = index++ */\n      swap1\n      pop\n        /* \"contracts/core/JobBoardDelta.sol\":2872:2974  function getId() internal returns (uint256 _id) {... */\n      swap1\n      jump\t// out\n        /* \"contracts/core/JobBoardDelta.sol\":2986:3404  function getDuration(Duration _duration) pure internal returns (uint256 _seconds) {... */\n    tag_81:\n        /* \"contracts/core/JobBoardDelta.sol\":3050:3066  uint256 _seconds */\n      0x00\n        /* \"contracts/core/JobBoardDelta.sol\":3090:3106  60 * 60 * 24 * 7 */\n      0x093a80\n        /* \"contracts/core/JobBoardDelta.sol\":3079:3106  _seconds = 60 * 60 * 24 * 7 */\n      swap1\n      pop\n        /* \"contracts/core/JobBoardDelta.sol\":3133:3150  Duration.ONE_WEEK */\n      0x00\n        /* \"contracts/core/JobBoardDelta.sol\":3120:3150  _duration == Duration.ONE_WEEK */\n      0x02\n      dup2\n      gt\n      iszero\n      tag_98\n      jumpi\n      tag_99\n      tag_100\n      jump\t// in\n    tag_99:\n    tag_98:\n        /* \"contracts/core/JobBoardDelta.sol\":3120:3129  _duration */\n      dup3\n        /* \"contracts/core/JobBoardDelta.sol\":3120:3150  _duration == Duration.ONE_WEEK */\n      0x02\n      dup2\n      gt\n      iszero\n      tag_101\n      jumpi\n      tag_102\n      tag_100\n      jump\t// in\n    tag_102:\n    tag_101:\n      sub\n        /* \"contracts/core/JobBoardDelta.sol\":3117:3195  if(_duration == Duration.ONE_WEEK) {... */\n      iszero\n        /* \"contracts/core/JobBoardDelta.sol\":3167:3182  return _seconds */\n      tag_97\n        /* \"contracts/core/JobBoardDelta.sol\":3117:3195  if(_duration == Duration.ONE_WEEK) {... */\n      jumpi\n        /* \"contracts/core/JobBoardDelta.sol\":3224:3242  Duration.TWO_WEEKS */\n      0x01\n        /* \"contracts/core/JobBoardDelta.sol\":3210:3242  _duration  == Duration.TWO_WEEKS */\n      0x02\n      dup2\n      gt\n      iszero\n      tag_104\n      jumpi\n      tag_105\n      tag_100\n      jump\t// in\n    tag_105:\n    tag_104:\n        /* \"contracts/core/JobBoardDelta.sol\":3210:3219  _duration */\n      dup3\n        /* \"contracts/core/JobBoardDelta.sol\":3210:3242  _duration  == Duration.TWO_WEEKS */\n      0x02\n      dup2\n      gt\n      iszero\n      tag_106\n      jumpi\n      tag_107\n      tag_100\n      jump\t// in\n    tag_107:\n    tag_106:\n      sub\n        /* \"contracts/core/JobBoardDelta.sol\":3207:3290  if(_duration  == Duration.TWO_WEEKS) {... */\n      tag_108\n      jumpi\n        /* \"contracts/core/JobBoardDelta.sol\":3277:3278  2 */\n      0x02\n        /* \"contracts/core/JobBoardDelta.sol\":3266:3274  _seconds */\n      dup2\n        /* \"contracts/core/JobBoardDelta.sol\":3266:3278  _seconds * 2 */\n      tag_109\n      swap2\n      swap1\n      tag_110\n      jump\t// in\n    tag_109:\n        /* \"contracts/core/JobBoardDelta.sol\":3259:3278  return _seconds * 2 */\n      swap1\n      pop\n      jump(tag_97)\n        /* \"contracts/core/JobBoardDelta.sol\":3207:3290  if(_duration  == Duration.TWO_WEEKS) {... */\n    tag_108:\n        /* \"contracts/core/JobBoardDelta.sol\":3318:3336  Duration.ONE_MONTH */\n      0x02\n        /* \"contracts/core/JobBoardDelta.sol\":3305:3336  _duration == Duration.ONE_MONTH */\n      dup1\n      dup2\n      gt\n      iszero\n      tag_111\n      jumpi\n      tag_112\n      tag_100\n      jump\t// in\n    tag_112:\n    tag_111:\n        /* \"contracts/core/JobBoardDelta.sol\":3305:3314  _duration */\n      dup3\n        /* \"contracts/core/JobBoardDelta.sol\":3305:3336  _duration == Duration.ONE_MONTH */\n      0x02\n      dup2\n      gt\n      iszero\n      tag_113\n      jumpi\n      tag_114\n      tag_100\n      jump\t// in\n    tag_114:\n    tag_113:\n      sub\n        /* \"contracts/core/JobBoardDelta.sol\":3302:3385  if(_duration == Duration.ONE_MONTH) {... */\n      tag_115\n      jumpi\n        /* \"contracts/core/JobBoardDelta.sol\":3371:3372  4 */\n      0x04\n        /* \"contracts/core/JobBoardDelta.sol\":3360:3368  _seconds */\n      dup2\n        /* \"contracts/core/JobBoardDelta.sol\":3360:3372  _seconds * 4 */\n      tag_116\n      swap2\n      swap1\n      tag_110\n      jump\t// in\n    tag_116:\n        /* \"contracts/core/JobBoardDelta.sol\":3353:3372  return _seconds * 4 */\n      swap1\n      pop\n      jump(tag_97)\n        /* \"contracts/core/JobBoardDelta.sol\":3302:3385  if(_duration == Duration.ONE_MONTH) {... */\n    tag_115:\n        /* \"contracts/core/JobBoardDelta.sol\":2986:3404  function getDuration(Duration _duration) pure internal returns (uint256 _seconds) {... */\n    tag_97:\n      swap2\n      swap1\n      pop\n      jump\t// out\n    tag_52:\n      mload(0x40)\n      dup1\n      0xc0\n      add\n      0x40\n      mstore\n      dup1\n      0x00\n      dup2\n      mstore\n      0x20\n      add\n      0x60\n      dup2\n      mstore\n      0x20\n      add\n      0x00\n      dup2\n      mstore\n      0x20\n      add\n      0x00\n      dup2\n      mstore\n      0x20\n      add\n      iszero(iszero(0x00))\n      dup2\n      mstore\n      0x20\n      add\n      and(0xffffffffffffffffffffffffffffffffffffffff, 0x00)\n      dup2\n      mstore\n      pop\n      swap1\n      jump\t// out\n    tag_67:\n      mload(0x40)\n      dup1\n      0x80\n      add\n      0x40\n      mstore\n      dup1\n      and(0xffffffffffffffffffffffffffffffffffffffff, 0x00)\n      dup2\n      mstore\n      0x20\n      add\n      0x00\n      dup2\n      mstore\n      0x20\n      add\n      0x00\n      dup2\n      mstore\n      0x20\n      add\n      0x00\n      dup2\n      mstore\n      pop\n      swap1\n      jump\t// out\n        /* \"#utility.yul\":7:121   */\n    tag_117:\n        /* \"#utility.yul\":74:80   */\n      0x00\n        /* \"#utility.yul\":108:113   */\n      dup2\n        /* \"#utility.yul\":102:114   */\n      mload\n        /* \"#utility.yul\":92:114   */\n      swap1\n      pop\n        /* \"#utility.yul\":7:121   */\n      swap2\n      swap1\n      pop\n      jump\t// out\n        /* \"#utility.yul\":127:311   */\n    tag_118:\n        /* \"#utility.yul\":226:237   */\n      0x00\n        /* \"#utility.yul\":260:266   */\n      dup3\n        /* \"#utility.yul\":255:258   */\n      dup3\n        /* \"#utility.yul\":248:267   */\n      mstore\n        /* \"#utility.yul\":300:304   */\n      0x20\n        /* \"#utility.yul\":295:298   */\n      dup3\n        /* \"#utility.yul\":291:305   */\n      add\n        /* \"#utility.yul\":276:305   */\n      swap1\n      pop\n        /* \"#utility.yul\":127:311   */\n      swap3\n      swap2\n      pop\n      pop\n      jump\t// out\n        /* \"#utility.yul\":317:449   */\n    tag_119:\n        /* \"#utility.yul\":384:388   */\n      0x00\n        /* \"#utility.yul\":407:410   */\n      dup2\n        /* \"#utility.yul\":399:410   */\n      swap1\n      pop\n        /* \"#utility.yul\":437:441   */\n      0x20\n        /* \"#utility.yul\":432:435   */\n      dup3\n        /* \"#utility.yul\":428:442   */\n      add\n        /* \"#utility.yul\":420:442   */\n      swap1\n      pop\n        /* \"#utility.yul\":317:449   */\n      swap2\n      swap1\n      pop\n      jump\t// out\n        /* \"#utility.yul\":455:532   */\n    tag_120:\n        /* \"#utility.yul\":492:499   */\n      0x00\n        /* \"#utility.yul\":521:526   */\n      dup2\n        /* \"#utility.yul\":510:526   */\n      swap1\n      pop\n        /* \"#utility.yul\":455:532   */\n      swap2\n      swap1\n      pop\n      jump\t// out\n        /* \"#utility.yul\":538:646   */\n    tag_121:\n        /* \"#utility.yul\":615:639   */\n      tag_184\n        /* \"#utility.yul\":633:638   */\n      dup2\n        /* \"#utility.yul\":615:639   */\n      tag_120\n      jump\t// in\n    tag_184:\n        /* \"#utility.yul\":610:613   */\n      dup3\n        /* \"#utility.yul\":603:640   */\n      mstore\n        /* \"#utility.yul\":538:646   */\n      pop\n      pop\n      jump\t// out\n        /* \"#utility.yul\":652:831   */\n    tag_122:\n        /* \"#utility.yul\":721:731   */\n      0x00\n        /* \"#utility.yul\":742:788   */\n      tag_186\n        /* \"#utility.yul\":784:787   */\n      dup4\n        /* \"#utility.yul\":776:782   */\n      dup4\n        /* \"#utility.yul\":742:788   */\n      tag_121\n      jump\t// in\n    tag_186:\n        /* \"#utility.yul\":820:824   */\n      0x20\n        /* \"#utility.yul\":815:818   */\n      dup4\n        /* \"#utility.yul\":811:825   */\n      add\n        /* \"#utility.yul\":797:825   */\n      swap1\n      pop\n        /* \"#utility.yul\":652:831   */\n      swap3\n      swap2\n      pop\n      pop\n      jump\t// out\n        /* \"#utility.yul\":837:950   */\n    tag_123:\n        /* \"#utility.yul\":907:911   */\n      0x00\n        /* \"#utility.yul\":939:943   */\n      0x20\n        /* \"#utility.yul\":934:937   */\n      dup3\n        /* \"#utility.yul\":930:944   */\n      add\n        /* \"#utility.yul\":922:944   */\n      swap1\n      pop\n        /* \"#utility.yul\":837:950   */\n      swap2\n      swap1\n      pop\n      jump\t// out\n        /* \"#utility.yul\":986:1718   */\n    tag_124:\n        /* \"#utility.yul\":1105:1108   */\n      0x00\n        /* \"#utility.yul\":1134:1188   */\n      tag_189\n        /* \"#utility.yul\":1182:1187   */\n      dup3\n        /* \"#utility.yul\":1134:1188   */\n      tag_117\n      jump\t// in\n    tag_189:\n        /* \"#utility.yul\":1204:1290   */\n      tag_190\n        /* \"#utility.yul\":1283:1289   */\n      dup2\n        /* \"#utility.yul\":1278:1281   */\n      dup6\n        /* \"#utility.yul\":1204:1290   */\n      tag_118\n      jump\t// in\n    tag_190:\n        /* \"#utility.yul\":1197:1290   */\n      swap4\n      pop\n        /* \"#utility.yul\":1314:1370   */\n      tag_191\n        /* \"#utility.yul\":1364:1369   */\n      dup4\n        /* \"#utility.yul\":1314:1370   */\n      tag_119\n      jump\t// in\n    tag_191:\n        /* \"#utility.yul\":1393:1400   */\n      dup1\n        /* \"#utility.yul\":1424:1425   */\n      0x00\n        /* \"#utility.yul\":1409:1693   */\n    tag_192:\n        /* \"#utility.yul\":1434:1440   */\n      dup4\n        /* \"#utility.yul\":1431:1432   */\n      dup2\n        /* \"#utility.yul\":1428:1441   */\n      lt\n        /* \"#utility.yul\":1409:1693   */\n      iszero\n      tag_194\n      jumpi\n        /* \"#utility.yul\":1510:1516   */\n      dup2\n        /* \"#utility.yul\":1504:1517   */\n      mload\n        /* \"#utility.yul\":1537:1600   */\n      tag_195\n        /* \"#utility.yul\":1596:1599   */\n      dup9\n        /* \"#utility.yul\":1581:1594   */\n      dup3\n        /* \"#utility.yul\":1537:1600   */\n      tag_122\n      jump\t// in\n    tag_195:\n        /* \"#utility.yul\":1530:1600   */\n      swap8\n      pop\n        /* \"#utility.yul\":1623:1683   */\n      tag_196\n        /* \"#utility.yul\":1676:1682   */\n      dup4\n        /* \"#utility.yul\":1623:1683   */\n      tag_123\n      jump\t// in\n    tag_196:\n        /* \"#utility.yul\":1613:1683   */\n      swap3\n      pop\n        /* \"#utility.yul\":1469:1693   */\n      pop\n        /* \"#utility.yul\":1456:1457   */\n      0x01\n        /* \"#utility.yul\":1453:1454   */\n      dup2\n        /* \"#utility.yul\":1449:1458   */\n      add\n        /* \"#utility.yul\":1444:1458   */\n      swap1\n      pop\n        /* \"#utility.yul\":1409:1693   */\n      jump(tag_192)\n    tag_194:\n        /* \"#utility.yul\":1413:1427   */\n      pop\n        /* \"#utility.yul\":1709:1712   */\n      dup6\n        /* \"#utility.yul\":1702:1712   */\n      swap4\n      pop\n        /* \"#utility.yul\":1110:1718   */\n      pop\n      pop\n      pop\n        /* \"#utility.yul\":986:1718   */\n      swap3\n      swap2\n      pop\n      pop\n      jump\t// out\n        /* \"#utility.yul\":1724:2097   */\n    tag_14:\n        /* \"#utility.yul\":1867:1871   */\n      0x00\n        /* \"#utility.yul\":1905:1907   */\n      0x20\n        /* \"#utility.yul\":1894:1903   */\n      dup3\n        /* \"#utility.yul\":1890:1908   */\n      add\n        /* \"#utility.yul\":1882:1908   */\n      swap1\n      pop\n        /* \"#utility.yul\":1954:1963   */\n      dup2\n        /* \"#utility.yul\":1948:1952   */\n      dup2\n        /* \"#utility.yul\":1944:1964   */\n      sub\n        /* \"#utility.yul\":1940:1941   */\n      0x00\n        /* \"#utility.yul\":1929:1938   */\n      dup4\n        /* \"#utility.yul\":1925:1942   */\n      add\n        /* \"#utility.yul\":1918:1965   */\n      mstore\n        /* \"#utility.yul\":1982:2090   */\n      tag_198\n        /* \"#utility.yul\":2085:2089   */\n      dup2\n        /* \"#utility.yul\":2076:2082   */\n      dup5\n        /* \"#utility.yul\":1982:2090   */\n      tag_124\n      jump\t// in\n    tag_198:\n        /* \"#utility.yul\":1974:2090   */\n      swap1\n      pop\n        /* \"#utility.yul\":1724:2097   */\n      swap3\n      swap2\n      pop\n      pop\n      jump\t// out\n        /* \"#utility.yul\":2103:2178   */\n    tag_125:\n        /* \"#utility.yul\":2136:2142   */\n      0x00\n        /* \"#utility.yul\":2169:2171   */\n      0x40\n        /* \"#utility.yul\":2163:2172   */\n      mload\n        /* \"#utility.yul\":2153:2172   */\n      swap1\n      pop\n        /* \"#utility.yul\":2103:2178   */\n      swap1\n      jump\t// out\n        /* \"#utility.yul\":2184:2301   */\n    tag_126:\n        /* \"#utility.yul\":2293:2294   */\n      0x00\n        /* \"#utility.yul\":2290:2291   */\n      dup1\n        /* \"#utility.yul\":2283:2295   */\n      revert\n        /* \"#utility.yul\":2307:2424   */\n    tag_127:\n        /* \"#utility.yul\":2416:2417   */\n      0x00\n        /* \"#utility.yul\":2413:2414   */\n      dup1\n        /* \"#utility.yul\":2406:2418   */\n      revert\n        /* \"#utility.yul\":2430:2552   */\n    tag_128:\n        /* \"#utility.yul\":2503:2527   */\n      tag_203\n        /* \"#utility.yul\":2521:2526   */\n      dup2\n        /* \"#utility.yul\":2503:2527   */\n      tag_120\n      jump\t// in\n    tag_203:\n        /* \"#utility.yul\":2496:2501   */\n      dup2\n        /* \"#utility.yul\":2493:2528   */\n      eq\n        /* \"#utility.yul\":2483:2546   */\n      tag_204\n      jumpi\n        /* \"#utility.yul\":2542:2543   */\n      0x00\n        /* \"#utility.yul\":2539:2540   */\n      dup1\n        /* \"#utility.yul\":2532:2544   */\n      revert\n        /* \"#utility.yul\":2483:2546   */\n    tag_204:\n        /* \"#utility.yul\":2430:2552   */\n      pop\n      jump\t// out\n        /* \"#utility.yul\":2558:2697   */\n    tag_129:\n        /* \"#utility.yul\":2604:2609   */\n      0x00\n        /* \"#utility.yul\":2642:2648   */\n      dup2\n        /* \"#utility.yul\":2629:2649   */\n      calldataload\n        /* \"#utility.yul\":2620:2649   */\n      swap1\n      pop\n        /* \"#utility.yul\":2658:2691   */\n      tag_206\n        /* \"#utility.yul\":2685:2690   */\n      dup2\n        /* \"#utility.yul\":2658:2691   */\n      tag_128\n      jump\t// in\n    tag_206:\n        /* \"#utility.yul\":2558:2697   */\n      swap3\n      swap2\n      pop\n      pop\n      jump\t// out\n        /* \"#utility.yul\":2703:3032   */\n    tag_18:\n        /* \"#utility.yul\":2762:2768   */\n      0x00\n        /* \"#utility.yul\":2811:2813   */\n      0x20\n        /* \"#utility.yul\":2799:2808   */\n      dup3\n        /* \"#utility.yul\":2790:2797   */\n      dup5\n        /* \"#utility.yul\":2786:2809   */\n      sub\n        /* \"#utility.yul\":2782:2814   */\n      slt\n        /* \"#utility.yul\":2779:2898   */\n      iszero\n      tag_208\n      jumpi\n        /* \"#utility.yul\":2817:2896   */\n      tag_209\n      tag_126\n      jump\t// in\n    tag_209:\n        /* \"#utility.yul\":2779:2898   */\n    tag_208:\n        /* \"#utility.yul\":2937:2938   */\n      0x00\n        /* \"#utility.yul\":2962:3015   */\n      tag_210\n        /* \"#utility.yul\":3007:3014   */\n      dup5\n        /* \"#utility.yul\":2998:3004   */\n      dup3\n        /* \"#utility.yul\":2987:2996   */\n      dup6\n        /* \"#utility.yul\":2983:3005   */\n      add\n        /* \"#utility.yul\":2962:3015   */\n      tag_129\n      jump\t// in\n    tag_210:\n        /* \"#utility.yul\":2952:3015   */\n      swap2\n      pop\n        /* \"#utility.yul\":2908:3025   */\n      pop\n        /* \"#utility.yul\":2703:3032   */\n      swap3\n      swap2\n      pop\n      pop\n      jump\t// out\n        /* \"#utility.yul\":3038:3137   */\n    tag_130:\n        /* \"#utility.yul\":3090:3096   */\n      0x00\n        /* \"#utility.yul\":3124:3129   */\n      dup2\n        /* \"#utility.yul\":3118:3130   */\n      mload\n        /* \"#utility.yul\":3108:3130   */\n      swap1\n      pop\n        /* \"#utility.yul\":3038:3137   */\n      swap2\n      swap1\n      pop\n      jump\t// out\n        /* \"#utility.yul\":3143:3302   */\n    tag_131:\n        /* \"#utility.yul\":3217:3228   */\n      0x00\n        /* \"#utility.yul\":3251:3257   */\n      dup3\n        /* \"#utility.yul\":3246:3249   */\n      dup3\n        /* \"#utility.yul\":3239:3258   */\n      mstore\n        /* \"#utility.yul\":3291:3295   */\n      0x20\n        /* \"#utility.yul\":3286:3289   */\n      dup3\n        /* \"#utility.yul\":3282:3296   */\n      add\n        /* \"#utility.yul\":3267:3296   */\n      swap1\n      pop\n        /* \"#utility.yul\":3143:3302   */\n      swap3\n      swap2\n      pop\n      pop\n      jump\t// out\n        /* \"#utility.yul\":3308:3447   */\n    tag_132:\n        /* \"#utility.yul\":3397:3403   */\n      dup3\n        /* \"#utility.yul\":3392:3395   */\n      dup2\n        /* \"#utility.yul\":3387:3390   */\n      dup4\n        /* \"#utility.yul\":3381:3404   */\n      mcopy\n        /* \"#utility.yul\":3438:3439   */\n      0x00\n        /* \"#utility.yul\":3429:3435   */\n      dup4\n        /* \"#utility.yul\":3424:3427   */\n      dup4\n        /* \"#utility.yul\":3420:3436   */\n      add\n        /* \"#utility.yul\":3413:3440   */\n      mstore\n        /* \"#utility.yul\":3308:3447   */\n      pop\n      pop\n      pop\n      jump\t// out\n        /* \"#utility.yul\":3453:3555   */\n    tag_133:\n        /* \"#utility.yul\":3494:3500   */\n      0x00\n        /* \"#utility.yul\":3545:3547   */\n      0x1f\n        /* \"#utility.yul\":3541:3548   */\n      not\n        /* \"#utility.yul\":3536:3538   */\n      0x1f\n        /* \"#utility.yul\":3529:3534   */\n      dup4\n        /* \"#utility.yul\":3525:3539   */\n      add\n        /* \"#utility.yul\":3521:3549   */\n      and\n        /* \"#utility.yul\":3511:3549   */\n      swap1\n      pop\n        /* \"#utility.yul\":3453:3555   */\n      swap2\n      swap1\n      pop\n      jump\t// out\n        /* \"#utility.yul\":3561:3918   */\n    tag_134:\n        /* \"#utility.yul\":3639:3642   */\n      0x00\n        /* \"#utility.yul\":3667:3706   */\n      tag_216\n        /* \"#utility.yul\":3700:3705   */\n      dup3\n        /* \"#utility.yul\":3667:3706   */\n      tag_130\n      jump\t// in\n    tag_216:\n        /* \"#utility.yul\":3722:3783   */\n      tag_217\n        /* \"#utility.yul\":3776:3782   */\n      dup2\n        /* \"#utility.yul\":3771:3774   */\n      dup6\n        /* \"#utility.yul\":3722:3783   */\n      tag_131\n      jump\t// in\n    tag_217:\n        /* \"#utility.yul\":3715:3783   */\n      swap4\n      pop\n        /* \"#utility.yul\":3792:3857   */\n      tag_218\n        /* \"#utility.yul\":3850:3856   */\n      dup2\n        /* \"#utility.yul\":3845:3848   */\n      dup6\n        /* \"#utility.yul\":3838:3842   */\n      0x20\n        /* \"#utility.yul\":3831:3836   */\n      dup7\n        /* \"#utility.yul\":3827:3843   */\n      add\n        /* \"#utility.yul\":3792:3857   */\n      tag_132\n      jump\t// in\n    tag_218:\n        /* \"#utility.yul\":3882:3911   */\n      tag_219\n        /* \"#utility.yul\":3904:3910   */\n      dup2\n        /* \"#utility.yul\":3882:3911   */\n      tag_133\n      jump\t// in\n    tag_219:\n        /* \"#utility.yul\":3877:3880   */\n      dup5\n        /* \"#utility.yul\":3873:3912   */\n      add\n        /* \"#utility.yul\":3866:3912   */\n      swap2\n      pop\n        /* \"#utility.yul\":3643:3918   */\n      pop\n        /* \"#utility.yul\":3561:3918   */\n      swap3\n      swap2\n      pop\n      pop\n      jump\t// out\n        /* \"#utility.yul\":3924:4014   */\n    tag_135:\n        /* \"#utility.yul\":3958:3965   */\n      0x00\n        /* \"#utility.yul\":4001:4006   */\n      dup2\n        /* \"#utility.yul\":3994:4007   */\n      iszero\n        /* \"#utility.yul\":3987:4008   */\n      iszero\n        /* \"#utility.yul\":3976:4008   */\n      swap1\n      pop\n        /* \"#utility.yul\":3924:4014   */\n      swap2\n      swap1\n      pop\n      jump\t// out\n        /* \"#utility.yul\":4020:4119   */\n    tag_136:\n        /* \"#utility.yul\":4091:4112   */\n      tag_222\n        /* \"#utility.yul\":4106:4111   */\n      dup2\n        /* \"#utility.yul\":4091:4112   */\n      tag_135\n      jump\t// in\n    tag_222:\n        /* \"#utility.yul\":4086:4089   */\n      dup3\n        /* \"#utility.yul\":4079:4113   */\n      mstore\n        /* \"#utility.yul\":4020:4119   */\n      pop\n      pop\n      jump\t// out\n        /* \"#utility.yul\":4125:4251   */\n    tag_137:\n        /* \"#utility.yul\":4162:4169   */\n      0x00\n        /* \"#utility.yul\":4202:4244   */\n      0xffffffffffffffffffffffffffffffffffffffff\n        /* \"#utility.yul\":4195:4200   */\n      dup3\n        /* \"#utility.yul\":4191:4245   */\n      and\n        /* \"#utility.yul\":4180:4245   */\n      swap1\n      pop\n        /* \"#utility.yul\":4125:4251   */\n      swap2\n      swap1\n      pop\n      jump\t// out\n        /* \"#utility.yul\":4257:4353   */\n    tag_138:\n        /* \"#utility.yul\":4294:4301   */\n      0x00\n        /* \"#utility.yul\":4323:4347   */\n      tag_225\n        /* \"#utility.yul\":4341:4346   */\n      dup3\n        /* \"#utility.yul\":4323:4347   */\n      tag_137\n      jump\t// in\n    tag_225:\n        /* \"#utility.yul\":4312:4347   */\n      swap1\n      pop\n        /* \"#utility.yul\":4257:4353   */\n      swap2\n      swap1\n      pop\n      jump\t// out\n        /* \"#utility.yul\":4359:4467   */\n    tag_139:\n        /* \"#utility.yul\":4436:4460   */\n      tag_227\n        /* \"#utility.yul\":4454:4459   */\n      dup2\n        /* \"#utility.yul\":4436:4460   */\n      tag_138\n      jump\t// in\n    tag_227:\n        /* \"#utility.yul\":4431:4434   */\n      dup3\n        /* \"#utility.yul\":4424:4461   */\n      mstore\n        /* \"#utility.yul\":4359:4467   */\n      pop\n      pop\n      jump\t// out\n        /* \"#utility.yul\":4505:5807   */\n    tag_140:\n        /* \"#utility.yul\":4614:4617   */\n      0x00\n        /* \"#utility.yul\":4650:4654   */\n      0xc0\n        /* \"#utility.yul\":4645:4648   */\n      dup4\n        /* \"#utility.yul\":4641:4655   */\n      add\n        /* \"#utility.yul\":4735:4739   */\n      0x00\n        /* \"#utility.yul\":4728:4733   */\n      dup4\n        /* \"#utility.yul\":4724:4740   */\n      add\n        /* \"#utility.yul\":4718:4741   */\n      mload\n        /* \"#utility.yul\":4754:4817   */\n      tag_229\n        /* \"#utility.yul\":4811:4815   */\n      0x00\n        /* \"#utility.yul\":4806:4809   */\n      dup7\n        /* \"#utility.yul\":4802:4816   */\n      add\n        /* \"#utility.yul\":4788:4800   */\n      dup3\n        /* \"#utility.yul\":4754:4817   */\n      tag_121\n      jump\t// in\n    tag_229:\n        /* \"#utility.yul\":4665:4827   */\n      pop\n        /* \"#utility.yul\":4908:4912   */\n      0x20\n        /* \"#utility.yul\":4901:4906   */\n      dup4\n        /* \"#utility.yul\":4897:4913   */\n      add\n        /* \"#utility.yul\":4891:4914   */\n      mload\n        /* \"#utility.yul\":4961:4964   */\n      dup5\n        /* \"#utility.yul\":4955:4959   */\n      dup3\n        /* \"#utility.yul\":4951:4965   */\n      sub\n        /* \"#utility.yul\":4944:4948   */\n      0x20\n        /* \"#utility.yul\":4939:4942   */\n      dup7\n        /* \"#utility.yul\":4935:4949   */\n      add\n        /* \"#utility.yul\":4928:4966   */\n      mstore\n        /* \"#utility.yul\":4987:5060   */\n      tag_230\n        /* \"#utility.yul\":5055:5059   */\n      dup3\n        /* \"#utility.yul\":5041:5053   */\n      dup3\n        /* \"#utility.yul\":4987:5060   */\n      tag_134\n      jump\t// in\n    tag_230:\n        /* \"#utility.yul\":4979:5060   */\n      swap2\n      pop\n        /* \"#utility.yul\":4837:5071   */\n      pop\n        /* \"#utility.yul\":5159:5163   */\n      0x40\n        /* \"#utility.yul\":5152:5157   */\n      dup4\n        /* \"#utility.yul\":5148:5164   */\n      add\n        /* \"#utility.yul\":5142:5165   */\n      mload\n        /* \"#utility.yul\":5178:5241   */\n      tag_231\n        /* \"#utility.yul\":5235:5239   */\n      0x40\n        /* \"#utility.yul\":5230:5233   */\n      dup7\n        /* \"#utility.yul\":5226:5240   */\n      add\n        /* \"#utility.yul\":5212:5224   */\n      dup3\n        /* \"#utility.yul\":5178:5241   */\n      tag_121\n      jump\t// in\n    tag_231:\n        /* \"#utility.yul\":5081:5251   */\n      pop\n        /* \"#utility.yul\":5340:5344   */\n      0x60\n        /* \"#utility.yul\":5333:5338   */\n      dup4\n        /* \"#utility.yul\":5329:5345   */\n      add\n        /* \"#utility.yul\":5323:5346   */\n      mload\n        /* \"#utility.yul\":5359:5422   */\n      tag_232\n        /* \"#utility.yul\":5416:5420   */\n      0x60\n        /* \"#utility.yul\":5411:5414   */\n      dup7\n        /* \"#utility.yul\":5407:5421   */\n      add\n        /* \"#utility.yul\":5393:5405   */\n      dup3\n        /* \"#utility.yul\":5359:5422   */\n      tag_121\n      jump\t// in\n    tag_232:\n        /* \"#utility.yul\":5261:5432   */\n      pop\n        /* \"#utility.yul\":5519:5523   */\n      0x80\n        /* \"#utility.yul\":5512:5517   */\n      dup4\n        /* \"#utility.yul\":5508:5524   */\n      add\n        /* \"#utility.yul\":5502:5525   */\n      mload\n        /* \"#utility.yul\":5538:5595   */\n      tag_233\n        /* \"#utility.yul\":5589:5593   */\n      0x80\n        /* \"#utility.yul\":5584:5587   */\n      dup7\n        /* \"#utility.yul\":5580:5594   */\n      add\n        /* \"#utility.yul\":5566:5578   */\n      dup3\n        /* \"#utility.yul\":5538:5595   */\n      tag_136\n      jump\t// in\n    tag_233:\n        /* \"#utility.yul\":5442:5605   */\n      pop\n        /* \"#utility.yul\":5688:5692   */\n      0xa0\n        /* \"#utility.yul\":5681:5686   */\n      dup4\n        /* \"#utility.yul\":5677:5693   */\n      add\n        /* \"#utility.yul\":5671:5694   */\n      mload\n        /* \"#utility.yul\":5707:5770   */\n      tag_234\n        /* \"#utility.yul\":5764:5768   */\n      0xa0\n        /* \"#utility.yul\":5759:5762   */\n      dup7\n        /* \"#utility.yul\":5755:5769   */\n      add\n        /* \"#utility.yul\":5741:5753   */\n      dup3\n        /* \"#utility.yul\":5707:5770   */\n      tag_139\n      jump\t// in\n    tag_234:\n        /* \"#utility.yul\":5615:5780   */\n      pop\n        /* \"#utility.yul\":5797:5801   */\n      dup1\n        /* \"#utility.yul\":5790:5801   */\n      swap2\n      pop\n        /* \"#utility.yul\":4619:5807   */\n      pop\n        /* \"#utility.yul\":4505:5807   */\n      swap3\n      swap2\n      pop\n      pop\n      jump\t// out\n        /* \"#utility.yul\":5813:6166   */\n    tag_21:\n        /* \"#utility.yul\":5946:5950   */\n      0x00\n        /* \"#utility.yul\":5984:5986   */\n      0x20\n        /* \"#utility.yul\":5973:5982   */\n      dup3\n        /* \"#utility.yul\":5969:5987   */\n      add\n        /* \"#utility.yul\":5961:5987   */\n      swap1\n      pop\n        /* \"#utility.yul\":6033:6042   */\n      dup2\n        /* \"#utility.yul\":6027:6031   */\n      dup2\n        /* \"#utility.yul\":6023:6043   */\n      sub\n        /* \"#utility.yul\":6019:6020   */\n      0x00\n        /* \"#utility.yul\":6008:6017   */\n      dup4\n        /* \"#utility.yul\":6004:6021   */\n      add\n        /* \"#utility.yul\":5997:6044   */\n      mstore\n        /* \"#utility.yul\":6061:6159   */\n      tag_236\n        /* \"#utility.yul\":6154:6158   */\n      dup2\n        /* \"#utility.yul\":6145:6151   */\n      dup5\n        /* \"#utility.yul\":6061:6159   */\n      tag_140\n      jump\t// in\n    tag_236:\n        /* \"#utility.yul\":6053:6159   */\n      swap1\n      pop\n        /* \"#utility.yul\":5813:6166   */\n      swap3\n      swap2\n      pop\n      pop\n      jump\t// out\n        /* \"#utility.yul\":6172:6294   */\n    tag_141:\n        /* \"#utility.yul\":6245:6269   */\n      tag_238\n        /* \"#utility.yul\":6263:6268   */\n      dup2\n        /* \"#utility.yul\":6245:6269   */\n      tag_138\n      jump\t// in\n    tag_238:\n        /* \"#utility.yul\":6238:6243   */\n      dup2\n        /* \"#utility.yul\":6235:6270   */\n      eq\n        /* \"#utility.yul\":6225:6288   */\n      tag_239\n      jumpi\n        /* \"#utility.yul\":6284:6285   */\n      0x00\n        /* \"#utility.yul\":6281:6282   */\n      dup1\n        /* \"#utility.yul\":6274:6286   */\n      revert\n        /* \"#utility.yul\":6225:6288   */\n    tag_239:\n        /* \"#utility.yul\":6172:6294   */\n      pop\n      jump\t// out\n        /* \"#utility.yul\":6300:6439   */\n    tag_142:\n        /* \"#utility.yul\":6346:6351   */\n      0x00\n        /* \"#utility.yul\":6384:6390   */\n      dup2\n        /* \"#utility.yul\":6371:6391   */\n      calldataload\n        /* \"#utility.yul\":6362:6391   */\n      swap1\n      pop\n        /* \"#utility.yul\":6400:6433   */\n      tag_241\n        /* \"#utility.yul\":6427:6432   */\n      dup2\n        /* \"#utility.yul\":6400:6433   */\n      tag_141\n      jump\t// in\n    tag_241:\n        /* \"#utility.yul\":6300:6439   */\n      swap3\n      swap2\n      pop\n      pop\n      jump\t// out\n        /* \"#utility.yul\":6445:7210   */\n    tag_28:\n        /* \"#utility.yul\":6531:6537   */\n      0x00\n        /* \"#utility.yul\":6539:6545   */\n      dup1\n        /* \"#utility.yul\":6547:6553   */\n      0x00\n        /* \"#utility.yul\":6555:6561   */\n      dup1\n        /* \"#utility.yul\":6604:6607   */\n      0x80\n        /* \"#utility.yul\":6592:6601   */\n      dup6\n        /* \"#utility.yul\":6583:6590   */\n      dup8\n        /* \"#utility.yul\":6579:6602   */\n      sub\n        /* \"#utility.yul\":6575:6608   */\n      slt\n        /* \"#utility.yul\":6572:6692   */\n      iszero\n      tag_243\n      jumpi\n        /* \"#utility.yul\":6611:6690   */\n      tag_244\n      tag_126\n      jump\t// in\n    tag_244:\n        /* \"#utility.yul\":6572:6692   */\n    tag_243:\n        /* \"#utility.yul\":6731:6732   */\n      0x00\n        /* \"#utility.yul\":6756:6809   */\n      tag_245\n        /* \"#utility.yul\":6801:6808   */\n      dup8\n        /* \"#utility.yul\":6792:6798   */\n      dup3\n        /* \"#utility.yul\":6781:6790   */\n      dup9\n        /* \"#utility.yul\":6777:6799   */\n      add\n        /* \"#utility.yul\":6756:6809   */\n      tag_129\n      jump\t// in\n    tag_245:\n        /* \"#utility.yul\":6746:6809   */\n      swap5\n      pop\n        /* \"#utility.yul\":6702:6819   */\n      pop\n        /* \"#utility.yul\":6858:6860   */\n      0x20\n        /* \"#utility.yul\":6884:6937   */\n      tag_246\n        /* \"#utility.yul\":6929:6936   */\n      dup8\n        /* \"#utility.yul\":6920:6926   */\n      dup3\n        /* \"#utility.yul\":6909:6918   */\n      dup9\n        /* \"#utility.yul\":6905:6927   */\n      add\n        /* \"#utility.yul\":6884:6937   */\n      tag_142\n      jump\t// in\n    tag_246:\n        /* \"#utility.yul\":6874:6937   */\n      swap4\n      pop\n        /* \"#utility.yul\":6829:6947   */\n      pop\n        /* \"#utility.yul\":6986:6988   */\n      0x40\n        /* \"#utility.yul\":7012:7065   */\n      tag_247\n        /* \"#utility.yul\":7057:7064   */\n      dup8\n        /* \"#utility.yul\":7048:7054   */\n      dup3\n        /* \"#utility.yul\":7037:7046   */\n      dup9\n        /* \"#utility.yul\":7033:7055   */\n      add\n        /* \"#utility.yul\":7012:7065   */\n      tag_129\n      jump\t// in\n    tag_247:\n        /* \"#utility.yul\":7002:7065   */\n      swap3\n      pop\n        /* \"#utility.yul\":6957:7075   */\n      pop\n        /* \"#utility.yul\":7114:7116   */\n      0x60\n        /* \"#utility.yul\":7140:7193   */\n      tag_248\n        /* \"#utility.yul\":7185:7192   */\n      dup8\n        /* \"#utility.yul\":7176:7182   */\n      dup3\n        /* \"#utility.yul\":7165:7174   */\n      dup9\n        /* \"#utility.yul\":7161:7183   */\n      add\n        /* \"#utility.yul\":7140:7193   */\n      tag_129\n      jump\t// in\n    tag_248:\n        /* \"#utility.yul\":7130:7193   */\n      swap2\n      pop\n        /* \"#utility.yul\":7085:7203   */\n      pop\n        /* \"#utility.yul\":6445:7210   */\n      swap3\n      swap6\n      swap2\n      swap5\n      pop\n      swap3\n      pop\n      jump\t// out\n        /* \"#utility.yul\":7254:8132   */\n    tag_143:\n        /* \"#utility.yul\":7397:7401   */\n      0x80\n        /* \"#utility.yul\":7392:7395   */\n      dup3\n        /* \"#utility.yul\":7388:7402   */\n      add\n        /* \"#utility.yul\":7485:7489   */\n      0x00\n        /* \"#utility.yul\":7478:7483   */\n      dup3\n        /* \"#utility.yul\":7474:7490   */\n      add\n        /* \"#utility.yul\":7468:7491   */\n      mload\n        /* \"#utility.yul\":7504:7567   */\n      tag_250\n        /* \"#utility.yul\":7561:7565   */\n      0x00\n        /* \"#utility.yul\":7556:7559   */\n      dup6\n        /* \"#utility.yul\":7552:7566   */\n      add\n        /* \"#utility.yul\":7538:7550   */\n      dup3\n        /* \"#utility.yul\":7504:7567   */\n      tag_139\n      jump\t// in\n    tag_250:\n        /* \"#utility.yul\":7412:7577   */\n      pop\n        /* \"#utility.yul\":7666:7670   */\n      0x20\n        /* \"#utility.yul\":7659:7664   */\n      dup3\n        /* \"#utility.yul\":7655:7671   */\n      add\n        /* \"#utility.yul\":7649:7672   */\n      mload\n        /* \"#utility.yul\":7685:7748   */\n      tag_251\n        /* \"#utility.yul\":7742:7746   */\n      0x20\n        /* \"#utility.yul\":7737:7740   */\n      dup6\n        /* \"#utility.yul\":7733:7747   */\n      add\n        /* \"#utility.yul\":7719:7731   */\n      dup3\n        /* \"#utility.yul\":7685:7748   */\n      tag_121\n      jump\t// in\n    tag_251:\n        /* \"#utility.yul\":7587:7758   */\n      pop\n        /* \"#utility.yul\":7852:7856   */\n      0x40\n        /* \"#utility.yul\":7845:7850   */\n      dup3\n        /* \"#utility.yul\":7841:7857   */\n      add\n        /* \"#utility.yul\":7835:7858   */\n      mload\n        /* \"#utility.yul\":7871:7934   */\n      tag_252\n        /* \"#utility.yul\":7928:7932   */\n      0x40\n        /* \"#utility.yul\":7923:7926   */\n      dup6\n        /* \"#utility.yul\":7919:7933   */\n      add\n        /* \"#utility.yul\":7905:7917   */\n      dup3\n        /* \"#utility.yul\":7871:7934   */\n      tag_121\n      jump\t// in\n    tag_252:\n        /* \"#utility.yul\":7768:7944   */\n      pop\n        /* \"#utility.yul\":8033:8037   */\n      0x60\n        /* \"#utility.yul\":8026:8031   */\n      dup3\n        /* \"#utility.yul\":8022:8038   */\n      add\n        /* \"#utility.yul\":8016:8039   */\n      mload\n        /* \"#utility.yul\":8052:8115   */\n      tag_253\n        /* \"#utility.yul\":8109:8113   */\n      0x60\n        /* \"#utility.yul\":8104:8107   */\n      dup6\n        /* \"#utility.yul\":8100:8114   */\n      add\n        /* \"#utility.yul\":8086:8098   */\n      dup3\n        /* \"#utility.yul\":8052:8115   */\n      tag_121\n      jump\t// in\n    tag_253:\n        /* \"#utility.yul\":7954:8125   */\n      pop\n        /* \"#utility.yul\":7366:8132   */\n      pop\n        /* \"#utility.yul\":7254:8132   */\n      pop\n      pop\n      jump\t// out\n        /* \"#utility.yul\":8138:8453   */\n    tag_31:\n        /* \"#utility.yul\":8277:8281   */\n      0x00\n        /* \"#utility.yul\":8315:8318   */\n      0x80\n        /* \"#utility.yul\":8304:8313   */\n      dup3\n        /* \"#utility.yul\":8300:8319   */\n      add\n        /* \"#utility.yul\":8292:8319   */\n      swap1\n      pop\n        /* \"#utility.yul\":8329:8446   */\n      tag_255\n        /* \"#utility.yul\":8443:8444   */\n      0x00\n        /* \"#utility.yul\":8432:8441   */\n      dup4\n        /* \"#utility.yul\":8428:8445   */\n      add\n        /* \"#utility.yul\":8419:8425   */\n      dup5\n        /* \"#utility.yul\":8329:8446   */\n      tag_143\n      jump\t// in\n    tag_255:\n        /* \"#utility.yul\":8138:8453   */\n      swap3\n      swap2\n      pop\n      pop\n      jump\t// out\n        /* \"#utility.yul\":8459:8568   */\n    tag_144:\n        /* \"#utility.yul\":8540:8561   */\n      tag_257\n        /* \"#utility.yul\":8555:8560   */\n      dup2\n        /* \"#utility.yul\":8540:8561   */\n      tag_135\n      jump\t// in\n    tag_257:\n        /* \"#utility.yul\":8535:8538   */\n      dup3\n        /* \"#utility.yul\":8528:8562   */\n      mstore\n        /* \"#utility.yul\":8459:8568   */\n      pop\n      pop\n      jump\t// out\n        /* \"#utility.yul\":8574:8784   */\n    tag_37:\n        /* \"#utility.yul\":8661:8665   */\n      0x00\n        /* \"#utility.yul\":8699:8701   */\n      0x20\n        /* \"#utility.yul\":8688:8697   */\n      dup3\n        /* \"#utility.yul\":8684:8702   */\n      add\n        /* \"#utility.yul\":8676:8702   */\n      swap1\n      pop\n        /* \"#utility.yul\":8712:8777   */\n      tag_259\n        /* \"#utility.yul\":8774:8775   */\n      0x00\n        /* \"#utility.yul\":8763:8772   */\n      dup4\n        /* \"#utility.yul\":8759:8776   */\n      add\n        /* \"#utility.yul\":8750:8756   */\n      dup5\n        /* \"#utility.yul\":8712:8777   */\n      tag_144\n      jump\t// in\n    tag_259:\n        /* \"#utility.yul\":8574:8784   */\n      swap3\n      swap2\n      pop\n      pop\n      jump\t// out\n        /* \"#utility.yul\":8790:8907   */\n    tag_145:\n        /* \"#utility.yul\":8899:8900   */\n      0x00\n        /* \"#utility.yul\":8896:8897   */\n      dup1\n        /* \"#utility.yul\":8889:8901   */\n      revert\n        /* \"#utility.yul\":8913:9030   */\n    tag_146:\n        /* \"#utility.yul\":9022:9023   */\n      0x00\n        /* \"#utility.yul\":9019:9020   */\n      dup1\n        /* \"#utility.yul\":9012:9024   */\n      revert\n        /* \"#utility.yul\":9036:9216   */\n    tag_147:\n        /* \"#utility.yul\":9084:9161   */\n      0x4e487b7100000000000000000000000000000000000000000000000000000000\n        /* \"#utility.yul\":9081:9082   */\n      0x00\n        /* \"#utility.yul\":9074:9162   */\n      mstore\n        /* \"#utility.yul\":9181:9185   */\n      0x41\n        /* \"#utility.yul\":9178:9179   */\n      0x04\n        /* \"#utility.yul\":9171:9186   */\n      mstore\n        /* \"#utility.yul\":9205:9209   */\n      0x24\n        /* \"#utility.yul\":9202:9203   */\n      0x00\n        /* \"#utility.yul\":9195:9210   */\n      revert\n        /* \"#utility.yul\":9222:9503   */\n    tag_148:\n        /* \"#utility.yul\":9305:9332   */\n      tag_264\n        /* \"#utility.yul\":9327:9331   */\n      dup3\n        /* \"#utility.yul\":9305:9332   */\n      tag_133\n      jump\t// in\n    tag_264:\n        /* \"#utility.yul\":9297:9303   */\n      dup2\n        /* \"#utility.yul\":9293:9333   */\n      add\n        /* \"#utility.yul\":9435:9441   */\n      dup2\n        /* \"#utility.yul\":9423:9433   */\n      dup2\n        /* \"#utility.yul\":9420:9442   */\n      lt\n        /* \"#utility.yul\":9399:9417   */\n      0xffffffffffffffff\n        /* \"#utility.yul\":9387:9397   */\n      dup3\n        /* \"#utility.yul\":9384:9418   */\n      gt\n        /* \"#utility.yul\":9381:9443   */\n      or\n        /* \"#utility.yul\":9378:9466   */\n      iszero\n      tag_265\n      jumpi\n        /* \"#utility.yul\":9446:9464   */\n      tag_266\n      tag_147\n      jump\t// in\n    tag_266:\n        /* \"#utility.yul\":9378:9466   */\n    tag_265:\n        /* \"#utility.yul\":9486:9496   */\n      dup1\n        /* \"#utility.yul\":9482:9484   */\n      0x40\n        /* \"#utility.yul\":9475:9497   */\n      mstore\n        /* \"#utility.yul\":9265:9503   */\n      pop\n        /* \"#utility.yul\":9222:9503   */\n      pop\n      pop\n      jump\t// out\n        /* \"#utility.yul\":9509:9638   */\n    tag_149:\n        /* \"#utility.yul\":9543:9549   */\n      0x00\n        /* \"#utility.yul\":9570:9590   */\n      tag_268\n      tag_125\n      jump\t// in\n    tag_268:\n        /* \"#utility.yul\":9560:9590   */\n      swap1\n      pop\n        /* \"#utility.yul\":9599:9632   */\n      tag_269\n        /* \"#utility.yul\":9627:9631   */\n      dup3\n        /* \"#utility.yul\":9619:9625   */\n      dup3\n        /* \"#utility.yul\":9599:9632   */\n      tag_148\n      jump\t// in\n    tag_269:\n        /* \"#utility.yul\":9509:9638   */\n      swap2\n      swap1\n      pop\n      jump\t// out\n        /* \"#utility.yul\":9644:9952   */\n    tag_150:\n        /* \"#utility.yul\":9706:9710   */\n      0x00\n        /* \"#utility.yul\":9796:9814   */\n      0xffffffffffffffff\n        /* \"#utility.yul\":9788:9794   */\n      dup3\n        /* \"#utility.yul\":9785:9815   */\n      gt\n        /* \"#utility.yul\":9782:9838   */\n      iszero\n      tag_271\n      jumpi\n        /* \"#utility.yul\":9818:9836   */\n      tag_272\n      tag_147\n      jump\t// in\n    tag_272:\n        /* \"#utility.yul\":9782:9838   */\n    tag_271:\n        /* \"#utility.yul\":9856:9885   */\n      tag_273\n        /* \"#utility.yul\":9878:9884   */\n      dup3\n        /* \"#utility.yul\":9856:9885   */\n      tag_133\n      jump\t// in\n    tag_273:\n        /* \"#utility.yul\":9848:9885   */\n      swap1\n      pop\n        /* \"#utility.yul\":9940:9944   */\n      0x20\n        /* \"#utility.yul\":9934:9938   */\n      dup2\n        /* \"#utility.yul\":9930:9945   */\n      add\n        /* \"#utility.yul\":9922:9945   */\n      swap1\n      pop\n        /* \"#utility.yul\":9644:9952   */\n      swap2\n      swap1\n      pop\n      jump\t// out\n        /* \"#utility.yul\":9958:10106   */\n    tag_151:\n        /* \"#utility.yul\":10056:10062   */\n      dup3\n        /* \"#utility.yul\":10051:10054   */\n      dup2\n        /* \"#utility.yul\":10046:10049   */\n      dup4\n        /* \"#utility.yul\":10033:10063   */\n      calldatacopy\n        /* \"#utility.yul\":10097:10098   */\n      0x00\n        /* \"#utility.yul\":10088:10094   */\n      dup4\n        /* \"#utility.yul\":10083:10086   */\n      dup4\n        /* \"#utility.yul\":10079:10095   */\n      add\n        /* \"#utility.yul\":10072:10099   */\n      mstore\n        /* \"#utility.yul\":9958:10106   */\n      pop\n      pop\n      pop\n      jump\t// out\n        /* \"#utility.yul\":10112:10537   */\n    tag_152:\n        /* \"#utility.yul\":10190:10195   */\n      0x00\n        /* \"#utility.yul\":10215:10281   */\n      tag_276\n        /* \"#utility.yul\":10231:10280   */\n      tag_277\n        /* \"#utility.yul\":10273:10279   */\n      dup5\n        /* \"#utility.yul\":10231:10280   */\n      tag_150\n      jump\t// in\n    tag_277:\n        /* \"#utility.yul\":10215:10281   */\n      tag_149\n      jump\t// in\n    tag_276:\n        /* \"#utility.yul\":10206:10281   */\n      swap1\n      pop\n        /* \"#utility.yul\":10304:10310   */\n      dup3\n        /* \"#utility.yul\":10297:10302   */\n      dup2\n        /* \"#utility.yul\":10290:10311   */\n      mstore\n        /* \"#utility.yul\":10342:10346   */\n      0x20\n        /* \"#utility.yul\":10335:10340   */\n      dup2\n        /* \"#utility.yul\":10331:10347   */\n      add\n        /* \"#utility.yul\":10380:10383   */\n      dup5\n        /* \"#utility.yul\":10371:10377   */\n      dup5\n        /* \"#utility.yul\":10366:10369   */\n      dup5\n        /* \"#utility.yul\":10362:10378   */\n      add\n        /* \"#utility.yul\":10359:10384   */\n      gt\n        /* \"#utility.yul\":10356:10468   */\n      iszero\n      tag_278\n      jumpi\n        /* \"#utility.yul\":10387:10466   */\n      tag_279\n      tag_146\n      jump\t// in\n    tag_279:\n        /* \"#utility.yul\":10356:10468   */\n    tag_278:\n        /* \"#utility.yul\":10477:10531   */\n      tag_280\n        /* \"#utility.yul\":10524:10530   */\n      dup5\n        /* \"#utility.yul\":10519:10522   */\n      dup3\n        /* \"#utility.yul\":10514:10517   */\n      dup6\n        /* \"#utility.yul\":10477:10531   */\n      tag_151\n      jump\t// in\n    tag_280:\n        /* \"#utility.yul\":10196:10537   */\n      pop\n        /* \"#utility.yul\":10112:10537   */\n      swap4\n      swap3\n      pop\n      pop\n      pop\n      jump\t// out\n        /* \"#utility.yul\":10557:10897   */\n    tag_153:\n        /* \"#utility.yul\":10613:10618   */\n      0x00\n        /* \"#utility.yul\":10662:10665   */\n      dup3\n        /* \"#utility.yul\":10655:10659   */\n      0x1f\n        /* \"#utility.yul\":10647:10653   */\n      dup4\n        /* \"#utility.yul\":10643:10660   */\n      add\n        /* \"#utility.yul\":10639:10666   */\n      slt\n        /* \"#utility.yul\":10629:10751   */\n      tag_282\n      jumpi\n        /* \"#utility.yul\":10670:10749   */\n      tag_283\n      tag_145\n      jump\t// in\n    tag_283:\n        /* \"#utility.yul\":10629:10751   */\n    tag_282:\n        /* \"#utility.yul\":10787:10793   */\n      dup2\n        /* \"#utility.yul\":10774:10794   */\n      calldataload\n        /* \"#utility.yul\":10812:10891   */\n      tag_284\n        /* \"#utility.yul\":10887:10890   */\n      dup5\n        /* \"#utility.yul\":10879:10885   */\n      dup3\n        /* \"#utility.yul\":10872:10876   */\n      0x20\n        /* \"#utility.yul\":10864:10870   */\n      dup7\n        /* \"#utility.yul\":10860:10877   */\n      add\n        /* \"#utility.yul\":10812:10891   */\n      tag_152\n      jump\t// in\n    tag_284:\n        /* \"#utility.yul\":10803:10891   */\n      swap2\n      pop\n        /* \"#utility.yul\":10619:10897   */\n      pop\n        /* \"#utility.yul\":10557:10897   */\n      swap3\n      swap2\n      pop\n      pop\n      jump\t// out\n        /* \"#utility.yul\":10903:11014   */\n    tag_154:\n        /* \"#utility.yul\":10988:10989   */\n      0x03\n        /* \"#utility.yul\":10981:10986   */\n      dup2\n        /* \"#utility.yul\":10978:10990   */\n      lt\n        /* \"#utility.yul\":10968:11008   */\n      tag_286\n      jumpi\n        /* \"#utility.yul\":11004:11005   */\n      0x00\n        /* \"#utility.yul\":11001:11002   */\n      dup1\n        /* \"#utility.yul\":10994:11006   */\n      revert\n        /* \"#utility.yul\":10968:11008   */\n    tag_286:\n        /* \"#utility.yul\":10903:11014   */\n      pop\n      jump\t// out\n        /* \"#utility.yul\":11020:11183   */\n    tag_155:\n        /* \"#utility.yul\":11078:11083   */\n      0x00\n        /* \"#utility.yul\":11116:11122   */\n      dup2\n        /* \"#utility.yul\":11103:11123   */\n      calldataload\n        /* \"#utility.yul\":11094:11123   */\n      swap1\n      pop\n        /* \"#utility.yul\":11132:11177   */\n      tag_288\n        /* \"#utility.yul\":11171:11176   */\n      dup2\n        /* \"#utility.yul\":11132:11177   */\n      tag_154\n      jump\t// in\n    tag_288:\n        /* \"#utility.yul\":11020:11183   */\n      swap3\n      swap2\n      pop\n      pop\n      jump\t// out\n        /* \"#utility.yul\":11189:11867   */\n    tag_40:\n        /* \"#utility.yul\":11279:11285   */\n      0x00\n        /* \"#utility.yul\":11287:11293   */\n      dup1\n        /* \"#utility.yul\":11336:11338   */\n      0x40\n        /* \"#utility.yul\":11324:11333   */\n      dup4\n        /* \"#utility.yul\":11315:11322   */\n      dup6\n        /* \"#utility.yul\":11311:11334   */\n      sub\n        /* \"#utility.yul\":11307:11339   */\n      slt\n        /* \"#utility.yul\":11304:11423   */\n      iszero\n      tag_290\n      jumpi\n        /* \"#utility.yul\":11342:11421   */\n      tag_291\n      tag_126\n      jump\t// in\n    tag_291:\n        /* \"#utility.yul\":11304:11423   */\n    tag_290:\n        /* \"#utility.yul\":11490:11491   */\n      0x00\n        /* \"#utility.yul\":11479:11488   */\n      dup4\n        /* \"#utility.yul\":11475:11492   */\n      add\n        /* \"#utility.yul\":11462:11493   */\n      calldataload\n        /* \"#utility.yul\":11520:11538   */\n      0xffffffffffffffff\n        /* \"#utility.yul\":11512:11518   */\n      dup2\n        /* \"#utility.yul\":11509:11539   */\n      gt\n        /* \"#utility.yul\":11506:11623   */\n      iszero\n      tag_292\n      jumpi\n        /* \"#utility.yul\":11542:11621   */\n      tag_293\n      tag_127\n      jump\t// in\n    tag_293:\n        /* \"#utility.yul\":11506:11623   */\n    tag_292:\n        /* \"#utility.yul\":11647:11710   */\n      tag_294\n        /* \"#utility.yul\":11702:11709   */\n      dup6\n        /* \"#utility.yul\":11693:11699   */\n      dup3\n        /* \"#utility.yul\":11682:11691   */\n      dup7\n        /* \"#utility.yul\":11678:11700   */\n      add\n        /* \"#utility.yul\":11647:11710   */\n      tag_153\n      jump\t// in\n    tag_294:\n        /* \"#utility.yul\":11637:11710   */\n      swap3\n      pop\n        /* \"#utility.yul\":11433:11720   */\n      pop\n        /* \"#utility.yul\":11759:11761   */\n      0x20\n        /* \"#utility.yul\":11785:11850   */\n      tag_295\n        /* \"#utility.yul\":11842:11849   */\n      dup6\n        /* \"#utility.yul\":11833:11839   */\n      dup3\n        /* \"#utility.yul\":11822:11831   */\n      dup7\n        /* \"#utility.yul\":11818:11840   */\n      add\n        /* \"#utility.yul\":11785:11850   */\n      tag_155\n      jump\t// in\n    tag_295:\n        /* \"#utility.yul\":11775:11850   */\n      swap2\n      pop\n        /* \"#utility.yul\":11730:11860   */\n      pop\n        /* \"#utility.yul\":11189:11867   */\n      swap3\n      pop\n      swap3\n      swap1\n      pop\n      jump\t// out\n        /* \"#utility.yul\":11873:12042   */\n    tag_156:\n        /* \"#utility.yul\":11957:11968   */\n      0x00\n        /* \"#utility.yul\":11991:11997   */\n      dup3\n        /* \"#utility.yul\":11986:11989   */\n      dup3\n        /* \"#utility.yul\":11979:11998   */\n      mstore\n        /* \"#utility.yul\":12031:12035   */\n      0x20\n        /* \"#utility.yul\":12026:12029   */\n      dup3\n        /* \"#utility.yul\":12022:12036   */\n      add\n        /* \"#utility.yul\":12007:12036   */\n      swap1\n      pop\n        /* \"#utility.yul\":11873:12042   */\n      swap3\n      swap2\n      pop\n      pop\n      jump\t// out\n        /* \"#utility.yul\":12048:12212   */\n    tag_157:\n        /* \"#utility.yul\":12188:12204   */\n      0x6a6f62206f776e6572206f6e6c79000000000000000000000000000000000000\n        /* \"#utility.yul\":12184:12185   */\n      0x00\n        /* \"#utility.yul\":12176:12182   */\n      dup3\n        /* \"#utility.yul\":12172:12186   */\n      add\n        /* \"#utility.yul\":12165:12205   */\n      mstore\n        /* \"#utility.yul\":12048:12212   */\n      pop\n      jump\t// out\n        /* \"#utility.yul\":12218:12584   */\n    tag_158:\n        /* \"#utility.yul\":12360:12363   */\n      0x00\n        /* \"#utility.yul\":12381:12448   */\n      tag_299\n        /* \"#utility.yul\":12445:12447   */\n      0x0e\n        /* \"#utility.yul\":12440:12443   */\n      dup4\n        /* \"#utility.yul\":12381:12448   */\n      tag_156\n      jump\t// in\n    tag_299:\n        /* \"#utility.yul\":12374:12448   */\n      swap2\n      pop\n        /* \"#utility.yul\":12457:12550   */\n      tag_300\n        /* \"#utility.yul\":12546:12549   */\n      dup3\n        /* \"#utility.yul\":12457:12550   */\n      tag_157\n      jump\t// in\n    tag_300:\n        /* \"#utility.yul\":12575:12577   */\n      0x20\n        /* \"#utility.yul\":12570:12573   */\n      dup3\n        /* \"#utility.yul\":12566:12578   */\n      add\n        /* \"#utility.yul\":12559:12578   */\n      swap1\n      pop\n        /* \"#utility.yul\":12218:12584   */\n      swap2\n      swap1\n      pop\n      jump\t// out\n        /* \"#utility.yul\":12590:13009   */\n    tag_56:\n        /* \"#utility.yul\":12756:12760   */\n      0x00\n        /* \"#utility.yul\":12794:12796   */\n      0x20\n        /* \"#utility.yul\":12783:12792   */\n      dup3\n        /* \"#utility.yul\":12779:12797   */\n      add\n        /* \"#utility.yul\":12771:12797   */\n      swap1\n      pop\n        /* \"#utility.yul\":12843:12852   */\n      dup2\n        /* \"#utility.yul\":12837:12841   */\n      dup2\n        /* \"#utility.yul\":12833:12853   */\n      sub\n        /* \"#utility.yul\":12829:12830   */\n      0x00\n        /* \"#utility.yul\":12818:12827   */\n      dup4\n        /* \"#utility.yul\":12814:12831   */\n      add\n        /* \"#utility.yul\":12807:12854   */\n      mstore\n        /* \"#utility.yul\":12871:13002   */\n      tag_302\n        /* \"#utility.yul\":12997:13001   */\n      dup2\n        /* \"#utility.yul\":12871:13002   */\n      tag_158\n      jump\t// in\n    tag_302:\n        /* \"#utility.yul\":12863:13002   */\n      swap1\n      pop\n        /* \"#utility.yul\":12590:13009   */\n      swap2\n      swap1\n      pop\n      jump\t// out\n        /* \"#utility.yul\":13015:13195   */\n    tag_159:\n        /* \"#utility.yul\":13063:13140   */\n      0x4e487b7100000000000000000000000000000000000000000000000000000000\n        /* \"#utility.yul\":13060:13061   */\n      0x00\n        /* \"#utility.yul\":13053:13141   */\n      mstore\n        /* \"#utility.yul\":13160:13164   */\n      0x22\n        /* \"#utility.yul\":13157:13158   */\n      0x04\n        /* \"#utility.yul\":13150:13165   */\n      mstore\n        /* \"#utility.yul\":13184:13188   */\n      0x24\n        /* \"#utility.yul\":13181:13182   */\n      0x00\n        /* \"#utility.yul\":13174:13189   */\n      revert\n        /* \"#utility.yul\":13201:13521   */\n    tag_58:\n        /* \"#utility.yul\":13245:13251   */\n      0x00\n        /* \"#utility.yul\":13282:13283   */\n      0x02\n        /* \"#utility.yul\":13276:13280   */\n      dup3\n        /* \"#utility.yul\":13272:13284   */\n      div\n        /* \"#utility.yul\":13262:13284   */\n      swap1\n      pop\n        /* \"#utility.yul\":13329:13330   */\n      0x01\n        /* \"#utility.yul\":13323:13327   */\n      dup3\n        /* \"#utility.yul\":13319:13331   */\n      and\n        /* \"#utility.yul\":13350:13368   */\n      dup1\n        /* \"#utility.yul\":13340:13421   */\n      tag_305\n      jumpi\n        /* \"#utility.yul\":13406:13410   */\n      0x7f\n        /* \"#utility.yul\":13398:13404   */\n      dup3\n        /* \"#utility.yul\":13394:13411   */\n      and\n        /* \"#utility.yul\":13384:13411   */\n      swap2\n      pop\n        /* \"#utility.yul\":13340:13421   */\n    tag_305:\n        /* \"#utility.yul\":13468:13470   */\n      0x20\n        /* \"#utility.yul\":13460:13466   */\n      dup3\n        /* \"#utility.yul\":13457:13471   */\n      lt\n        /* \"#utility.yul\":13437:13455   */\n      dup2\n        /* \"#utility.yul\":13434:13472   */\n      sub\n        /* \"#utility.yul\":13431:13515   */\n      tag_306\n      jumpi\n        /* \"#utility.yul\":13487:13505   */\n      tag_307\n      tag_159\n      jump\t// in\n    tag_307:\n        /* \"#utility.yul\":13431:13515   */\n    tag_306:\n        /* \"#utility.yul\":13252:13521   */\n      pop\n        /* \"#utility.yul\":13201:13521   */\n      swap2\n      swap1\n      pop\n      jump\t// out\n        /* \"#utility.yul\":13527:13692   */\n    tag_160:\n        /* \"#utility.yul\":13667:13684   */\n      0x6a6f6220756e617661696c61626c650000000000000000000000000000000000\n        /* \"#utility.yul\":13663:13664   */\n      0x00\n        /* \"#utility.yul\":13655:13661   */\n      dup3\n        /* \"#utility.yul\":13651:13665   */\n      add\n        /* \"#utility.yul\":13644:13685   */\n      mstore\n        /* \"#utility.yul\":13527:13692   */\n      pop\n      jump\t// out\n        /* \"#utility.yul\":13698:14064   */\n    tag_161:\n        /* \"#utility.yul\":13840:13843   */\n      0x00\n        /* \"#utility.yul\":13861:13928   */\n      tag_310\n        /* \"#utility.yul\":13925:13927   */\n      0x0f\n        /* \"#utility.yul\":13920:13923   */\n      dup4\n        /* \"#utility.yul\":13861:13928   */\n      tag_156\n      jump\t// in\n    tag_310:\n        /* \"#utility.yul\":13854:13928   */\n      swap2\n      pop\n        /* \"#utility.yul\":13937:14030   */\n      tag_311\n        /* \"#utility.yul\":14026:14029   */\n      dup3\n        /* \"#utility.yul\":13937:14030   */\n      tag_160\n      jump\t// in\n    tag_311:\n        /* \"#utility.yul\":14055:14057   */\n      0x20\n        /* \"#utility.yul\":14050:14053   */\n      dup3\n        /* \"#utility.yul\":14046:14058   */\n      add\n        /* \"#utility.yul\":14039:14058   */\n      swap1\n      pop\n        /* \"#utility.yul\":13698:14064   */\n      swap2\n      swap1\n      pop\n      jump\t// out\n        /* \"#utility.yul\":14070:14489   */\n    tag_73:\n        /* \"#utility.yul\":14236:14240   */\n      0x00\n        /* \"#utility.yul\":14274:14276   */\n      0x20\n        /* \"#utility.yul\":14263:14272   */\n      dup3\n        /* \"#utility.yul\":14259:14277   */\n      add\n        /* \"#utility.yul\":14251:14277   */\n      swap1\n      pop\n        /* \"#utility.yul\":14323:14332   */\n      dup2\n        /* \"#utility.yul\":14317:14321   */\n      dup2\n        /* \"#utility.yul\":14313:14333   */\n      sub\n        /* \"#utility.yul\":14309:14310   */\n      0x00\n        /* \"#utility.yul\":14298:14307   */\n      dup4\n        /* \"#utility.yul\":14294:14311   */\n      add\n        /* \"#utility.yul\":14287:14334   */\n      mstore\n        /* \"#utility.yul\":14351:14482   */\n      tag_313\n        /* \"#utility.yul\":14477:14481   */\n      dup2\n        /* \"#utility.yul\":14351:14482   */\n      tag_161\n      jump\t// in\n    tag_313:\n        /* \"#utility.yul\":14343:14482   */\n      swap1\n      pop\n        /* \"#utility.yul\":14070:14489   */\n      swap2\n      swap1\n      pop\n      jump\t// out\n        /* \"#utility.yul\":14495:14675   */\n    tag_162:\n        /* \"#utility.yul\":14543:14620   */\n      0x4e487b7100000000000000000000000000000000000000000000000000000000\n        /* \"#utility.yul\":14540:14541   */\n      0x00\n        /* \"#utility.yul\":14533:14621   */\n      mstore\n        /* \"#utility.yul\":14640:14644   */\n      0x11\n        /* \"#utility.yul\":14637:14638   */\n      0x04\n        /* \"#utility.yul\":14630:14645   */\n      mstore\n        /* \"#utility.yul\":14664:14668   */\n      0x24\n        /* \"#utility.yul\":14661:14662   */\n      0x00\n        /* \"#utility.yul\":14654:14669   */\n      revert\n        /* \"#utility.yul\":14681:14872   */\n    tag_83:\n        /* \"#utility.yul\":14721:14724   */\n      0x00\n        /* \"#utility.yul\":14740:14760   */\n      tag_316\n        /* \"#utility.yul\":14758:14759   */\n      dup3\n        /* \"#utility.yul\":14740:14760   */\n      tag_120\n      jump\t// in\n    tag_316:\n        /* \"#utility.yul\":14735:14760   */\n      swap2\n      pop\n        /* \"#utility.yul\":14774:14794   */\n      tag_317\n        /* \"#utility.yul\":14792:14793   */\n      dup4\n        /* \"#utility.yul\":14774:14794   */\n      tag_120\n      jump\t// in\n    tag_317:\n        /* \"#utility.yul\":14769:14794   */\n      swap3\n      pop\n        /* \"#utility.yul\":14817:14818   */\n      dup3\n        /* \"#utility.yul\":14814:14815   */\n      dup3\n        /* \"#utility.yul\":14810:14819   */\n      add\n        /* \"#utility.yul\":14803:14819   */\n      swap1\n      pop\n        /* \"#utility.yul\":14838:14841   */\n      dup1\n        /* \"#utility.yul\":14835:14836   */\n      dup3\n        /* \"#utility.yul\":14832:14842   */\n      gt\n        /* \"#utility.yul\":14829:14865   */\n      iszero\n      tag_318\n      jumpi\n        /* \"#utility.yul\":14845:14863   */\n      tag_319\n      tag_162\n      jump\t// in\n    tag_319:\n        /* \"#utility.yul\":14829:14865   */\n    tag_318:\n        /* \"#utility.yul\":14681:14872   */\n      swap3\n      swap2\n      pop\n      pop\n      jump\t// out\n        /* \"#utility.yul\":14878:15019   */\n    tag_163:\n        /* \"#utility.yul\":14927:14931   */\n      0x00\n        /* \"#utility.yul\":14950:14953   */\n      dup2\n        /* \"#utility.yul\":14942:14953   */\n      swap1\n      pop\n        /* \"#utility.yul\":14973:14976   */\n      dup2\n        /* \"#utility.yul\":14970:14971   */\n      0x00\n        /* \"#utility.yul\":14963:14977   */\n      mstore\n        /* \"#utility.yul\":15007:15011   */\n      0x20\n        /* \"#utility.yul\":15004:15005   */\n      0x00\n        /* \"#utility.yul\":14994:15012   */\n      keccak256\n        /* \"#utility.yul\":14986:15012   */\n      swap1\n      pop\n        /* \"#utility.yul\":14878:15019   */\n      swap2\n      swap1\n      pop\n      jump\t// out\n        /* \"#utility.yul\":15025:15118   */\n    tag_164:\n        /* \"#utility.yul\":15062:15068   */\n      0x00\n        /* \"#utility.yul\":15109:15111   */\n      0x20\n        /* \"#utility.yul\":15104:15106   */\n      0x1f\n        /* \"#utility.yul\":15097:15102   */\n      dup4\n        /* \"#utility.yul\":15093:15107   */\n      add\n        /* \"#utility.yul\":15089:15112   */\n      div\n        /* \"#utility.yul\":15079:15112   */\n      swap1\n      pop\n        /* \"#utility.yul\":15025:15118   */\n      swap2\n      swap1\n      pop\n      jump\t// out\n        /* \"#utility.yul\":15124:15231   */\n    tag_165:\n        /* \"#utility.yul\":15168:15176   */\n      0x00\n        /* \"#utility.yul\":15218:15223   */\n      dup3\n        /* \"#utility.yul\":15212:15216   */\n      dup3\n        /* \"#utility.yul\":15208:15224   */\n      shl\n        /* \"#utility.yul\":15187:15224   */\n      swap1\n      pop\n        /* \"#utility.yul\":15124:15231   */\n      swap3\n      swap2\n      pop\n      pop\n      jump\t// out\n        /* \"#utility.yul\":15237:15630   */\n    tag_166:\n        /* \"#utility.yul\":15306:15312   */\n      0x00\n        /* \"#utility.yul\":15356:15357   */\n      0x08\n        /* \"#utility.yul\":15344:15354   */\n      dup4\n        /* \"#utility.yul\":15340:15358   */\n      mul\n        /* \"#utility.yul\":15379:15476   */\n      tag_324\n        /* \"#utility.yul\":15409:15475   */\n      0xffffffffffffffffffffffffffffffffffffffffffffffffffffffffffffffff\n        /* \"#utility.yul\":15398:15407   */\n      dup3\n        /* \"#utility.yul\":15379:15476   */\n      tag_165\n      jump\t// in\n    tag_324:\n        /* \"#utility.yul\":15497:15536   */\n      tag_325\n        /* \"#utility.yul\":15527:15535   */\n      dup7\n        /* \"#utility.yul\":15516:15525   */\n      dup4\n        /* \"#utility.yul\":15497:15536   */\n      tag_165\n      jump\t// in\n    tag_325:\n        /* \"#utility.yul\":15485:15536   */\n      swap6\n      pop\n        /* \"#utility.yul\":15569:15573   */\n      dup1\n        /* \"#utility.yul\":15565:15574   */\n      not\n        /* \"#utility.yul\":15558:15563   */\n      dup5\n        /* \"#utility.yul\":15554:15575   */\n      and\n        /* \"#utility.yul\":15545:15575   */\n      swap4\n      pop\n        /* \"#utility.yul\":15618:15622   */\n      dup1\n        /* \"#utility.yul\":15608:15616   */\n      dup7\n        /* \"#utility.yul\":15604:15623   */\n      and\n        /* \"#utility.yul\":15597:15602   */\n      dup5\n        /* \"#utility.yul\":15594:15624   */\n      or\n        /* \"#utility.yul\":15584:15624   */\n      swap3\n      pop\n        /* \"#utility.yul\":15313:15630   */\n      pop\n      pop\n        /* \"#utility.yul\":15237:15630   */\n      swap4\n      swap3\n      pop\n      pop\n      pop\n      jump\t// out\n        /* \"#utility.yul\":15636:15696   */\n    tag_167:\n        /* \"#utility.yul\":15664:15667   */\n      0x00\n        /* \"#utility.yul\":15685:15690   */\n      dup2\n        /* \"#utility.yul\":15678:15690   */\n      swap1\n      pop\n        /* \"#utility.yul\":15636:15696   */\n      swap2\n      swap1\n      pop\n      jump\t// out\n        /* \"#utility.yul\":15702:15844   */\n    tag_168:\n        /* \"#utility.yul\":15752:15761   */\n      0x00\n        /* \"#utility.yul\":15785:15838   */\n      tag_328\n        /* \"#utility.yul\":15803:15837   */\n      tag_329\n        /* \"#utility.yul\":15812:15836   */\n      tag_330\n        /* \"#utility.yul\":15830:15835   */\n      dup5\n        /* \"#utility.yul\":15812:15836   */\n      tag_120\n      jump\t// in\n    tag_330:\n        /* \"#utility.yul\":15803:15837   */\n      tag_167\n      jump\t// in\n    tag_329:\n        /* \"#utility.yul\":15785:15838   */\n      tag_120\n      jump\t// in\n    tag_328:\n        /* \"#utility.yul\":15772:15838   */\n      swap1\n      pop\n        /* \"#utility.yul\":15702:15844   */\n      swap2\n      swap1\n      pop\n      jump\t// out\n        /* \"#utility.yul\":15850:15925   */\n    tag_169:\n        /* \"#utility.yul\":15893:15896   */\n      0x00\n        /* \"#utility.yul\":15914:15919   */\n      dup2\n        /* \"#utility.yul\":15907:15919   */\n      swap1\n      pop\n        /* \"#utility.yul\":15850:15925   */\n      swap2\n      swap1\n      pop\n      jump\t// out\n        /* \"#utility.yul\":15931:16200   */\n    tag_170:\n        /* \"#utility.yul\":16041:16080   */\n      tag_333\n        /* \"#utility.yul\":16072:16079   */\n      dup4\n        /* \"#utility.yul\":16041:16080   */\n      tag_168\n      jump\t// in\n    tag_333:\n        /* \"#utility.yul\":16102:16193   */\n      tag_334\n        /* \"#utility.yul\":16151:16192   */\n      tag_335\n        /* \"#utility.yul\":16175:16191   */\n      dup3\n        /* \"#utility.yul\":16151:16192   */\n      tag_169\n      jump\t// in\n    tag_335:\n        /* \"#utility.yul\":16143:16149   */\n      dup5\n        /* \"#utility.yul\":16136:16140   */\n      dup5\n        /* \"#utility.yul\":16130:16141   */\n      sload\n        /* \"#utility.yul\":16102:16193   */\n      tag_166\n      jump\t// in\n    tag_334:\n        /* \"#utility.yul\":16096:16100   */\n      dup3\n        /* \"#utility.yul\":16089:16194   */\n      sstore\n        /* \"#utility.yul\":16007:16200   */\n      pop\n        /* \"#utility.yul\":15931:16200   */\n      pop\n      pop\n      pop\n      jump\t// out\n        /* \"#utility.yul\":16206:16279   */\n    tag_171:\n        /* \"#utility.yul\":16251:16254   */\n      0x00\n        /* \"#utility.yul\":16206:16279   */\n      swap1\n      jump\t// out\n        /* \"#utility.yul\":16285:16474   */\n    tag_172:\n        /* \"#utility.yul\":16362:16394   */\n      tag_338\n      tag_171\n      jump\t// in\n    tag_338:\n        /* \"#utility.yul\":16403:16468   */\n      tag_339\n        /* \"#utility.yul\":16461:16467   */\n      dup2\n        /* \"#utility.yul\":16453:16459   */\n      dup5\n        /* \"#utility.yul\":16447:16451   */\n      dup5\n        /* \"#utility.yul\":16403:16468   */\n      tag_170\n      jump\t// in\n    tag_339:\n        /* \"#utility.yul\":16338:16474   */\n      pop\n        /* \"#utility.yul\":16285:16474   */\n      pop\n      pop\n      jump\t// out\n        /* \"#utility.yul\":16480:16666   */\n    tag_173:\n        /* \"#utility.yul\":16540:16660   */\n    tag_341:\n        /* \"#utility.yul\":16557:16560   */\n      dup2\n        /* \"#utility.yul\":16550:16555   */\n      dup2\n        /* \"#utility.yul\":16547:16561   */\n      lt\n        /* \"#utility.yul\":16540:16660   */\n      iszero\n      tag_343\n      jumpi\n        /* \"#utility.yul\":16611:16650   */\n      tag_344\n        /* \"#utility.yul\":16648:16649   */\n      0x00\n        /* \"#utility.yul\":16641:16646   */\n      dup3\n        /* \"#utility.yul\":16611:16650   */\n      tag_172\n      jump\t// in\n    tag_344:\n        /* \"#utility.yul\":16584:16585   */\n      0x01\n        /* \"#utility.yul\":16577:16582   */\n      dup2\n        /* \"#utility.yul\":16573:16586   */\n      add\n        /* \"#utility.yul\":16564:16586   */\n      swap1\n      pop\n        /* \"#utility.yul\":16540:16660   */\n      jump(tag_341)\n    tag_343:\n        /* \"#utility.yul\":16480:16666   */\n      pop\n      pop\n      jump\t// out\n        /* \"#utility.yul\":16672:17215   */\n    tag_174:\n        /* \"#utility.yul\":16773:16775   */\n      0x1f\n        /* \"#utility.yul\":16768:16771   */\n      dup3\n        /* \"#utility.yul\":16765:16776   */\n      gt\n        /* \"#utility.yul\":16762:17208   */\n      iszero\n      tag_346\n      jumpi\n        /* \"#utility.yul\":16807:16845   */\n      tag_347\n        /* \"#utility.yul\":16839:16844   */\n      dup2\n        /* \"#utility.yul\":16807:16845   */\n      tag_163\n      jump\t// in\n    tag_347:\n        /* \"#utility.yul\":16891:16920   */\n      tag_348\n        /* \"#utility.yul\":16909:16919   */\n      dup5\n        /* \"#utility.yul\":16891:16920   */\n      tag_164\n      jump\t// in\n    tag_348:\n        /* \"#utility.yul\":16881:16889   */\n      dup2\n        /* \"#utility.yul\":16877:16921   */\n      add\n        /* \"#utility.yul\":17074:17076   */\n      0x20\n        /* \"#utility.yul\":17062:17072   */\n      dup6\n        /* \"#utility.yul\":17059:17077   */\n      lt\n        /* \"#utility.yul\":17056:17105   */\n      iszero\n      tag_349\n      jumpi\n        /* \"#utility.yul\":17095:17103   */\n      dup2\n        /* \"#utility.yul\":17080:17103   */\n      swap1\n      pop\n        /* \"#utility.yul\":17056:17105   */\n    tag_349:\n        /* \"#utility.yul\":17118:17198   */\n      tag_350\n        /* \"#utility.yul\":17174:17196   */\n      tag_351\n        /* \"#utility.yul\":17192:17195   */\n      dup6\n        /* \"#utility.yul\":17174:17196   */\n      tag_164\n      jump\t// in\n    tag_351:\n        /* \"#utility.yul\":17164:17172   */\n      dup4\n        /* \"#utility.yul\":17160:17197   */\n      add\n        /* \"#utility.yul\":17147:17158   */\n      dup3\n        /* \"#utility.yul\":17118:17198   */\n      tag_173\n      jump\t// in\n    tag_350:\n        /* \"#utility.yul\":16777:17208   */\n      pop\n      pop\n        /* \"#utility.yul\":16762:17208   */\n    tag_346:\n        /* \"#utility.yul\":16672:17215   */\n      pop\n      pop\n      pop\n      jump\t// out\n        /* \"#utility.yul\":17221:17338   */\n    tag_175:\n        /* \"#utility.yul\":17275:17283   */\n      0x00\n        /* \"#utility.yul\":17325:17330   */\n      dup3\n        /* \"#utility.yul\":17319:17323   */\n      dup3\n        /* \"#utility.yul\":17315:17331   */\n      shr\n        /* \"#utility.yul\":17294:17331   */\n      swap1\n      pop\n        /* \"#utility.yul\":17221:17338   */\n      swap3\n      swap2\n      pop\n      pop\n      jump\t// out\n        /* \"#utility.yul\":17344:17513   */\n    tag_176:\n        /* \"#utility.yul\":17388:17394   */\n      0x00\n        /* \"#utility.yul\":17421:17472   */\n      tag_354\n        /* \"#utility.yul\":17469:17470   */\n      0x00\n        /* \"#utility.yul\":17465:17471   */\n      not\n        /* \"#utility.yul\":17457:17462   */\n      dup5\n        /* \"#utility.yul\":17454:17455   */\n      0x08\n        /* \"#utility.yul\":17450:17463   */\n      mul\n        /* \"#utility.yul\":17421:17472   */\n      tag_175\n      jump\t// in\n    tag_354:\n        /* \"#utility.yul\":17417:17473   */\n      not\n        /* \"#utility.yul\":17502:17506   */\n      dup1\n        /* \"#utility.yul\":17496:17500   */\n      dup4\n        /* \"#utility.yul\":17492:17507   */\n      and\n        /* \"#utility.yul\":17482:17507   */\n      swap2\n      pop\n        /* \"#utility.yul\":17395:17513   */\n      pop\n        /* \"#utility.yul\":17344:17513   */\n      swap3\n      swap2\n      pop\n      pop\n      jump\t// out\n        /* \"#utility.yul\":17518:17813   */\n    tag_177:\n        /* \"#utility.yul\":17594:17598   */\n      0x00\n        /* \"#utility.yul\":17740:17769   */\n      tag_356\n        /* \"#utility.yul\":17765:17768   */\n      dup4\n        /* \"#utility.yul\":17759:17763   */\n      dup4\n        /* \"#utility.yul\":17740:17769   */\n      tag_176\n      jump\t// in\n    tag_356:\n        /* \"#utility.yul\":17732:17769   */\n      swap2\n      pop\n        /* \"#utility.yul\":17802:17805   */\n      dup3\n        /* \"#utility.yul\":17799:17800   */\n      0x02\n        /* \"#utility.yul\":17795:17806   */\n      mul\n        /* \"#utility.yul\":17789:17793   */\n      dup3\n        /* \"#utility.yul\":17786:17807   */\n      or\n        /* \"#utility.yul\":17778:17807   */\n      swap1\n      pop\n        /* \"#utility.yul\":17518:17813   */\n      swap3\n      swap2\n      pop\n      pop\n      jump\t// out\n        /* \"#utility.yul\":17818:19213   */\n    tag_85:\n        /* \"#utility.yul\":17935:17972   */\n      tag_358\n        /* \"#utility.yul\":17968:17971   */\n      dup3\n        /* \"#utility.yul\":17935:17972   */\n      tag_130\n      jump\t// in\n    tag_358:\n        /* \"#utility.yul\":18037:18055   */\n      0xffffffffffffffff\n        /* \"#utility.yul\":18029:18035   */\n      dup2\n        /* \"#utility.yul\":18026:18056   */\n      gt\n        /* \"#utility.yul\":18023:18079   */\n      iszero\n      tag_359\n      jumpi\n        /* \"#utility.yul\":18059:18077   */\n      tag_360\n      tag_147\n      jump\t// in\n    tag_360:\n        /* \"#utility.yul\":18023:18079   */\n    tag_359:\n        /* \"#utility.yul\":18103:18141   */\n      tag_361\n        /* \"#utility.yul\":18135:18139   */\n      dup3\n        /* \"#utility.yul\":18129:18140   */\n      sload\n        /* \"#utility.yul\":18103:18141   */\n      tag_58\n      jump\t// in\n    tag_361:\n        /* \"#utility.yul\":18188:18255   */\n      tag_362\n        /* \"#utility.yul\":18248:18254   */\n      dup3\n        /* \"#utility.yul\":18240:18246   */\n      dup3\n        /* \"#utility.yul\":18234:18238   */\n      dup6\n        /* \"#utility.yul\":18188:18255   */\n      tag_174\n      jump\t// in\n    tag_362:\n        /* \"#utility.yul\":18282:18283   */\n      0x00\n        /* \"#utility.yul\":18306:18310   */\n      0x20\n        /* \"#utility.yul\":18293:18310   */\n      swap1\n      pop\n        /* \"#utility.yul\":18338:18340   */\n      0x1f\n        /* \"#utility.yul\":18330:18336   */\n      dup4\n        /* \"#utility.yul\":18327:18341   */\n      gt\n        /* \"#utility.yul\":18355:18356   */\n      0x01\n        /* \"#utility.yul\":18350:18968   */\n      dup2\n      eq\n      tag_364\n      jumpi\n        /* \"#utility.yul\":19012:19013   */\n      0x00\n        /* \"#utility.yul\":19029:19035   */\n      dup5\n        /* \"#utility.yul\":19026:19103   */\n      iszero\n      tag_365\n      jumpi\n        /* \"#utility.yul\":19078:19087   */\n      dup3\n        /* \"#utility.yul\":19073:19076   */\n      dup8\n        /* \"#utility.yul\":19069:19088   */\n      add\n        /* \"#utility.yul\":19063:19089   */\n      mload\n        /* \"#utility.yul\":19054:19089   */\n      swap1\n      pop\n        /* \"#utility.yul\":19026:19103   */\n    tag_365:\n        /* \"#utility.yul\":19129:19196   */\n      tag_366\n        /* \"#utility.yul\":19189:19195   */\n      dup6\n        /* \"#utility.yul\":19182:19187   */\n      dup3\n        /* \"#utility.yul\":19129:19196   */\n      tag_177\n      jump\t// in\n    tag_366:\n        /* \"#utility.yul\":19123:19127   */\n      dup7\n        /* \"#utility.yul\":19116:19197   */\n      sstore\n        /* \"#utility.yul\":18985:19207   */\n      pop\n        /* \"#utility.yul\":18320:19207   */\n      jump(tag_363)\n        /* \"#utility.yul\":18350:18968   */\n    tag_364:\n        /* \"#utility.yul\":18402:18406   */\n      0x1f\n        /* \"#utility.yul\":18398:18407   */\n      not\n        /* \"#utility.yul\":18390:18396   */\n      dup5\n        /* \"#utility.yul\":18386:18408   */\n      and\n        /* \"#utility.yul\":18436:18473   */\n      tag_367\n        /* \"#utility.yul\":18468:18472   */\n      dup7\n        /* \"#utility.yul\":18436:18473   */\n      tag_163\n      jump\t// in\n    tag_367:\n        /* \"#utility.yul\":18495:18496   */\n      0x00\n        /* \"#utility.yul\":18509:18717   */\n    tag_368:\n        /* \"#utility.yul\":18523:18530   */\n      dup3\n        /* \"#utility.yul\":18520:18521   */\n      dup2\n        /* \"#utility.yul\":18517:18531   */\n      lt\n        /* \"#utility.yul\":18509:18717   */\n      iszero\n      tag_370\n      jumpi\n        /* \"#utility.yul\":18602:18611   */\n      dup5\n        /* \"#utility.yul\":18597:18600   */\n      dup10\n        /* \"#utility.yul\":18593:18612   */\n      add\n        /* \"#utility.yul\":18587:18613   */\n      mload\n        /* \"#utility.yul\":18579:18585   */\n      dup3\n        /* \"#utility.yul\":18572:18614   */\n      sstore\n        /* \"#utility.yul\":18653:18654   */\n      0x01\n        /* \"#utility.yul\":18645:18651   */\n      dup3\n        /* \"#utility.yul\":18641:18655   */\n      add\n        /* \"#utility.yul\":18631:18655   */\n      swap2\n      pop\n        /* \"#utility.yul\":18700:18702   */\n      0x20\n        /* \"#utility.yul\":18689:18698   */\n      dup6\n        /* \"#utility.yul\":18685:18703   */\n      add\n        /* \"#utility.yul\":18672:18703   */\n      swap5\n      pop\n        /* \"#utility.yul\":18546:18550   */\n      0x20\n        /* \"#utility.yul\":18543:18544   */\n      dup2\n        /* \"#utility.yul\":18539:18551   */\n      add\n        /* \"#utility.yul\":18534:18551   */\n      swap1\n      pop\n        /* \"#utility.yul\":18509:18717   */\n      jump(tag_368)\n    tag_370:\n        /* \"#utility.yul\":18745:18751   */\n      dup7\n        /* \"#utility.yul\":18736:18743   */\n      dup4\n        /* \"#utility.yul\":18733:18752   */\n      lt\n        /* \"#utility.yul\":18730:18909   */\n      iszero\n      tag_371\n      jumpi\n        /* \"#utility.yul\":18803:18812   */\n      dup5\n        /* \"#utility.yul\":18798:18801   */\n      dup10\n        /* \"#utility.yul\":18794:18813   */\n      add\n        /* \"#utility.yul\":18788:18814   */\n      mload\n        /* \"#utility.yul\":18846:18894   */\n      tag_372\n        /* \"#utility.yul\":18888:18892   */\n      0x1f\n        /* \"#utility.yul\":18880:18886   */\n      dup10\n        /* \"#utility.yul\":18876:18893   */\n      and\n        /* \"#utility.yul\":18865:18874   */\n      dup3\n        /* \"#utility.yul\":18846:18894   */\n      tag_176\n      jump\t// in\n    tag_372:\n        /* \"#utility.yul\":18838:18844   */\n      dup4\n        /* \"#utility.yul\":18831:18895   */\n      sstore\n        /* \"#utility.yul\":18753:18909   */\n      pop\n        /* \"#utility.yul\":18730:18909   */\n    tag_371:\n        /* \"#utility.yul\":18955:18956   */\n      0x01\n        /* \"#utility.yul\":18951:18952   */\n      0x02\n        /* \"#utility.yul\":18943:18949   */\n      dup9\n        /* \"#utility.yul\":18939:18953   */\n      mul\n        /* \"#utility.yul\":18935:18957   */\n      add\n        /* \"#utility.yul\":18929:18933   */\n      dup9\n        /* \"#utility.yul\":18922:18958   */\n      sstore\n        /* \"#utility.yul\":18357:18968   */\n      pop\n      pop\n      pop\n        /* \"#utility.yul\":18320:19207   */\n    tag_363:\n      pop\n        /* \"#utility.yul\":17910:19213   */\n      pop\n      pop\n      pop\n        /* \"#utility.yul\":17818:19213   */\n      pop\n      pop\n      jump\t// out\n        /* \"#utility.yul\":19219:19452   */\n    tag_96:\n        /* \"#utility.yul\":19258:19261   */\n      0x00\n        /* \"#utility.yul\":19281:19305   */\n      tag_374\n        /* \"#utility.yul\":19299:19304   */\n      dup3\n        /* \"#utility.yul\":19281:19305   */\n      tag_120\n      jump\t// in\n    tag_374:\n        /* \"#utility.yul\":19272:19305   */\n      swap2\n      pop\n        /* \"#utility.yul\":19327:19393   */\n      0xffffffffffffffffffffffffffffffffffffffffffffffffffffffffffffffff\n        /* \"#utility.yul\":19320:19325   */\n      dup3\n        /* \"#utility.yul\":19317:19394   */\n      sub\n        /* \"#utility.yul\":19314:19417   */\n      tag_375\n      jumpi\n        /* \"#utility.yul\":19397:19415   */\n      tag_376\n      tag_162\n      jump\t// in\n    tag_376:\n        /* \"#utility.yul\":19314:19417   */\n    tag_375:\n        /* \"#utility.yul\":19444:19445   */\n      0x01\n        /* \"#utility.yul\":19437:19442   */\n      dup3\n        /* \"#utility.yul\":19433:19446   */\n      add\n        /* \"#utility.yul\":19426:19446   */\n      swap1\n      pop\n        /* \"#utility.yul\":19219:19452   */\n      swap2\n      swap1\n      pop\n      jump\t// out\n        /* \"#utility.yul\":19458:19638   */\n    tag_100:\n        /* \"#utility.yul\":19506:19583   */\n      0x4e487b7100000000000000000000000000000000000000000000000000000000\n        /* \"#utility.yul\":19503:19504   */\n      0x00\n        /* \"#utility.yul\":19496:19584   */\n      mstore\n        /* \"#utility.yul\":19603:19607   */\n      0x21\n        /* \"#utility.yul\":19600:19601   */\n      0x04\n        /* \"#utility.yul\":19593:19608   */\n      mstore\n        /* \"#utility.yul\":19627:19631   */\n      0x24\n        /* \"#utility.yul\":19624:19625   */\n      0x00\n        /* \"#utility.yul\":19617:19632   */\n      revert\n        /* \"#utility.yul\":19644:20054   */\n    tag_110:\n        /* \"#utility.yul\":19684:19691   */\n      0x00\n        /* \"#utility.yul\":19707:19727   */\n      tag_379\n        /* \"#utility.yul\":19725:19726   */\n      dup3\n        /* \"#utility.yul\":19707:19727   */\n      tag_120\n      jump\t// in\n    tag_379:\n        /* \"#utility.yul\":19702:19727   */\n      swap2\n      pop\n        /* \"#utility.yul\":19741:19761   */\n      tag_380\n        /* \"#utility.yul\":19759:19760   */\n      dup4\n        /* \"#utility.yul\":19741:19761   */\n      tag_120\n      jump\t// in\n    tag_380:\n        /* \"#utility.yul\":19736:19761   */\n      swap3\n      pop\n        /* \"#utility.yul\":19796:19797   */\n      dup3\n        /* \"#utility.yul\":19793:19794   */\n      dup3\n        /* \"#utility.yul\":19789:19798   */\n      mul\n        /* \"#utility.yul\":19818:19848   */\n      tag_381\n        /* \"#utility.yul\":19836:19847   */\n      dup2\n        /* \"#utility.yul\":19818:19848   */\n      tag_120\n      jump\t// in\n    tag_381:\n        /* \"#utility.yul\":19807:19848   */\n      swap2\n      pop\n        /* \"#utility.yul\":19997:19998   */\n      dup3\n        /* \"#utility.yul\":19988:19995   */\n      dup3\n        /* \"#utility.yul\":19984:19999   */\n      div\n        /* \"#utility.yul\":19981:19982   */\n      dup5\n        /* \"#utility.yul\":19978:20000   */\n      eq\n        /* \"#utility.yul\":19958:19959   */\n      dup4\n        /* \"#utility.yul\":19951:19960   */\n      iszero\n        /* \"#utility.yul\":19931:20014   */\n      or\n        /* \"#utility.yul\":19908:20047   */\n      tag_382\n      jumpi\n        /* \"#utility.yul\":20027:20045   */\n      tag_383\n      tag_162\n      jump\t// in\n    tag_383:\n        /* \"#utility.yul\":19908:20047   */\n    tag_382:\n        /* \"#utility.yul\":19692:20054   */\n      pop\n        /* \"#utility.yul\":19644:20054   */\n      swap3\n      swap2\n      pop\n      pop\n      jump\t// out\n\n    auxdata: 0xa264697066735822122052c585e68e690809eec0ef9d42c1570682189359bc8f074bd558010e003320a464736f6c634300081a0033\n}\n",
				"bytecode": {
					"linkReferences": {},
					"object": "608060405234801561000f575f80fd5b50604051611741380380611741833981810160405281019061003191906100d5565b8060015f6101000a81548173ffffffffffffffffffffffffffffffffffffffff021916908373ffffffffffffffffffffffffffffffffffffffff16021790555050610100565b5f80fd5b5f73ffffffffffffffffffffffffffffffffffffffff82169050919050565b5f6100a48261007b565b9050919050565b6100b48161009a565b81146100be575f80fd5b50565b5f815190506100cf816100ab565b92915050565b5f602082840312156100ea576100e9610077565b5b5f6100f7848285016100c1565b91505092915050565b6116348061010d5f395ff3fe60806040526004361061006f575f3560e01c806378d5b5171161004d57806378d5b51714610103578063970e003c14610133578063a9144e1a1461016f578063bf22c4571461019f5761006f565b8063393f190d1461007357806343351d951461009d5780634b0fa847146100d9575b5f80fd5b34801561007e575f80fd5b506100876101db565b6040516100949190610c80565b60405180910390f35b3480156100a8575f80fd5b506100c360048036038101906100be9190610cdb565b61026c565b6040516100d09190610e55565b60405180910390f35b3480156100e4575f80fd5b506100ed610481565b6040516100fa9190610c80565b60405180910390f35b61011d60048036038101906101189190610e9f565b6104d7565b60405161012a9190610f56565b60405180910390f35b34801561013e575f80fd5b5061015960048036038101906101549190610cdb565b610756565b6040516101669190610f7e565b60405180910390f35b610189600480360381019061018491906110e6565b61077c565b6040516101969190610e55565b60405180910390f35b3480156101aa575f80fd5b506101c560048036038101906101c09190610cdb565b610922565b6040516101d29190610e55565b60405180910390f35b606060045f3373ffffffffffffffffffffffffffffffffffffffff1673ffffffffffffffffffffffffffffffffffffffff1681526020019081526020015f2080548060200260200160405190810160405280929190818152602001828054801561026257602002820191905f5260205f20905b81548152602001906001019080831161024e575b5050505050905090565b610274610b3d565b3373ffffffffffffffffffffffffffffffffffffffff1660035f8481526020019081526020015f2060040160019054906101000a900473ffffffffffffffffffffffffffffffffffffffff1673ffffffffffffffffffffffffffffffffffffffff1614610316576040517f08c379a000000000000000000000000000000000000000000000000000000000815260040161030d9061119a565b60405180910390fd5b5f60035f8481526020019081526020015f206004015f6101000a81548160ff02191690831515021790555060035f8381526020019081526020015f206040518060c00160405290815f8201548152602001600182018054610376906111e5565b80601f01602080910402602001604051908101604052809291908181526020018280546103a2906111e5565b80156103ed5780601f106103c4576101008083540402835291602001916103ed565b820191905f5260205f20905b8154815290600101906020018083116103d057829003601f168201915b505050505081526020016002820154815260200160038201548152602001600482015f9054906101000a900460ff161515151581526020016004820160019054906101000a900473ffffffffffffffffffffffffffffffffffffffff1673ffffffffffffffffffffffffffffffffffffffff1673ffffffffffffffffffffffffffffffffffffffff16815250509050919050565b606060028054806020026020016040519081016040528092919081815260200182805480156104cd57602002820191905f5260205f20905b8154815260200190600101908083116104b9575b5050505050905090565b6104df610b86565b3373ffffffffffffffffffffffffffffffffffffffff1660035f8781526020019081526020015f2060040160019054906101000a900473ffffffffffffffffffffffffffffffffffffffff1673ffffffffffffffffffffffffffffffffffffffff1614610581576040517f08c379a00000000000000000000000000000000000000000000000000000000081526004016105789061119a565b60405180910390fd5b6001151560035f8781526020019081526020015f206004015f9054906101000a900460ff161515146105e8576040517f08c379a00000000000000000000000000000000000000000000000000000000081526004016105df9061125f565b60405180910390fd5b600160055f8781526020019081526020015f205f6101000a81548160ff02191690831515021790555060405180608001604052808573ffffffffffffffffffffffffffffffffffffffff1681526020018481526020018381526020015f81525060065f8781526020019081526020015f205f820151815f015f6101000a81548173ffffffffffffffffffffffffffffffffffffffff021916908373ffffffffffffffffffffffffffffffffffffffff16021790555060208201518160010155604082015181600201556060820151816003015590505060065f8681526020019081526020015f206040518060800160405290815f82015f9054906101000a900473ffffffffffffffffffffffffffffffffffffffff1673ffffffffffffffffffffffffffffffffffffffff1673ffffffffffffffffffffffffffffffffffffffff16815260200160018201548152602001600282015481526020016003820154815250509050949350505050565b5f60055f8381526020019081526020015f205f9054906101000a900460ff169050919050565b610784610b3d565b5f61078d610a6a565b9050600281908060018154018082558091505060019003905f5260205f20015f90919091909150556040518060c00160405280828152602001858152602001428152602001426107dc86610a85565b6107e691906112aa565b81526020016001151581526020013373ffffffffffffffffffffffffffffffffffffffff1681525060035f8381526020019081526020015f205f820151815f0155602082015181600101908161083c919061147a565b5060408201518160020155606082015181600301556080820151816004015f6101000a81548160ff02191690831515021790555060a08201518160040160016101000a81548173ffffffffffffffffffffffffffffffffffffffff021916908373ffffffffffffffffffffffffffffffffffffffff16021790555090505060045f3373ffffffffffffffffffffffffffffffffffffffff1673ffffffffffffffffffffffffffffffffffffffff1681526020019081526020015f2081908060018154018082558091505060019003905f5260205f20015f90919091909150555092915050565b61092a610b3d565b60035f8381526020019081526020015f206040518060c00160405290815f820154815260200160018201805461095f906111e5565b80601f016020809104026020016040519081016040528092919081815260200182805461098b906111e5565b80156109d65780601f106109ad576101008083540402835291602001916109d6565b820191905f5260205f20905b8154815290600101906020018083116109b957829003601f168201915b505050505081526020016002820154815260200160038201548152602001600482015f9054906101000a900460ff161515151581526020016004820160019054906101000a900473ffffffffffffffffffffffffffffffffffffffff1673ffffffffffffffffffffffffffffffffffffffff1673ffffffffffffffffffffffffffffffffffffffff16815250509050919050565b5f805f815480929190610a7c90611549565b91905055905090565b5f62093a8090505f6002811115610a9f57610a9e611590565b5b826002811115610ab257610ab1611590565b5b0315610b385760016002811115610acc57610acb611590565b5b826002811115610adf57610ade611590565b5b03610af857600281610af191906115bd565b9050610b38565b600280811115610b0b57610b0a611590565b5b826002811115610b1e57610b1d611590565b5b03610b3757600481610b3091906115bd565b9050610b38565b5b919050565b6040518060c001604052805f8152602001606081526020015f81526020015f81526020015f151581526020015f73ffffffffffffffffffffffffffffffffffffffff1681525090565b60405180608001604052805f73ffffffffffffffffffffffffffffffffffffffff1681526020015f81526020015f81526020015f81525090565b5f81519050919050565b5f82825260208201905092915050565b5f819050602082019050919050565b5f819050919050565b610bfb81610be9565b82525050565b5f610c0c8383610bf2565b60208301905092915050565b5f602082019050919050565b5f610c2e82610bc0565b610c388185610bca565b9350610c4383610bda565b805f5b83811015610c73578151610c5a8882610c01565b9750610c6583610c18565b925050600181019050610c46565b5085935050505092915050565b5f6020820190508181035f830152610c988184610c24565b905092915050565b5f604051905090565b5f80fd5b5f80fd5b610cba81610be9565b8114610cc4575f80fd5b50565b5f81359050610cd581610cb1565b92915050565b5f60208284031215610cf057610cef610ca9565b5b5f610cfd84828501610cc7565b91505092915050565b5f81519050919050565b5f82825260208201905092915050565b8281835e5f83830152505050565b5f601f19601f8301169050919050565b5f610d4882610d06565b610d528185610d10565b9350610d62818560208601610d20565b610d6b81610d2e565b840191505092915050565b5f8115159050919050565b610d8a81610d76565b82525050565b5f73ffffffffffffffffffffffffffffffffffffffff82169050919050565b5f610db982610d90565b9050919050565b610dc981610daf565b82525050565b5f60c083015f830151610de45f860182610bf2565b5060208301518482036020860152610dfc8282610d3e565b9150506040830151610e116040860182610bf2565b506060830151610e246060860182610bf2565b506080830151610e376080860182610d81565b5060a0830151610e4a60a0860182610dc0565b508091505092915050565b5f6020820190508181035f830152610e6d8184610dcf565b905092915050565b610e7e81610daf565b8114610e88575f80fd5b50565b5f81359050610e9981610e75565b92915050565b5f805f8060808587031215610eb757610eb6610ca9565b5b5f610ec487828801610cc7565b9450506020610ed587828801610e8b565b9350506040610ee687828801610cc7565b9250506060610ef787828801610cc7565b91505092959194509250565b608082015f820151610f175f850182610dc0565b506020820151610f2a6020850182610bf2565b506040820151610f3d6040850182610bf2565b506060820151610f506060850182610bf2565b50505050565b5f608082019050610f695f830184610f03565b92915050565b610f7881610d76565b82525050565b5f602082019050610f915f830184610f6f565b92915050565b5f80fd5b5f80fd5b7f4e487b71000000000000000000000000000000000000000000000000000000005f52604160045260245ffd5b610fd582610d2e565b810181811067ffffffffffffffff82111715610ff457610ff3610f9f565b5b80604052505050565b5f611006610ca0565b90506110128282610fcc565b919050565b5f67ffffffffffffffff82111561103157611030610f9f565b5b61103a82610d2e565b9050602081019050919050565b828183375f83830152505050565b5f61106761106284611017565b610ffd565b90508281526020810184848401111561108357611082610f9b565b5b61108e848285611047565b509392505050565b5f82601f8301126110aa576110a9610f97565b5b81356110ba848260208601611055565b91505092915050565b600381106110cf575f80fd5b50565b5f813590506110e0816110c3565b92915050565b5f80604083850312156110fc576110fb610ca9565b5b5f83013567ffffffffffffffff81111561111957611118610cad565b5b61112585828601611096565b9250506020611136858286016110d2565b9150509250929050565b5f82825260208201905092915050565b7f6a6f62206f776e6572206f6e6c790000000000000000000000000000000000005f82015250565b5f611184600e83611140565b915061118f82611150565b602082019050919050565b5f6020820190508181035f8301526111b181611178565b9050919050565b7f4e487b71000000000000000000000000000000000000000000000000000000005f52602260045260245ffd5b5f60028204905060018216806111fc57607f821691505b60208210810361120f5761120e6111b8565b5b50919050565b7f6a6f6220756e617661696c61626c6500000000000000000000000000000000005f82015250565b5f611249600f83611140565b915061125482611215565b602082019050919050565b5f6020820190508181035f8301526112768161123d565b9050919050565b7f4e487b71000000000000000000000000000000000000000000000000000000005f52601160045260245ffd5b5f6112b482610be9565b91506112bf83610be9565b92508282019050808211156112d7576112d661127d565b5b92915050565b5f819050815f5260205f209050919050565b5f6020601f8301049050919050565b5f82821b905092915050565b5f600883026113397fffffffffffffffffffffffffffffffffffffffffffffffffffffffffffffffff826112fe565b61134386836112fe565b95508019841693508086168417925050509392505050565b5f819050919050565b5f61137e61137961137484610be9565b61135b565b610be9565b9050919050565b5f819050919050565b61139783611364565b6113ab6113a382611385565b84845461130a565b825550505050565b5f90565b6113bf6113b3565b6113ca81848461138e565b505050565b5b818110156113ed576113e25f826113b7565b6001810190506113d0565b5050565b601f82111561143257611403816112dd565b61140c846112ef565b8101602085101561141b578190505b61142f611427856112ef565b8301826113cf565b50505b505050565b5f82821c905092915050565b5f6114525f1984600802611437565b1980831691505092915050565b5f61146a8383611443565b9150826002028217905092915050565b61148382610d06565b67ffffffffffffffff81111561149c5761149b610f9f565b5b6114a682546111e5565b6114b18282856113f1565b5f60209050601f8311600181146114e2575f84156114d0578287015190505b6114da858261145f565b865550611541565b601f1984166114f0866112dd565b5f5b82811015611517578489015182556001820191506020850194506020810190506114f2565b868310156115345784890151611530601f891682611443565b8355505b6001600288020188555050505b505050505050565b5f61155382610be9565b91507fffffffffffffffffffffffffffffffffffffffffffffffffffffffffffffffff82036115855761158461127d565b5b600182019050919050565b7f4e487b71000000000000000000000000000000000000000000000000000000005f52602160045260245ffd5b5f6115c782610be9565b91506115d283610be9565b92508282026115e081610be9565b915082820484148315176115f7576115f661127d565b5b509291505056fea264697066735822122052c585e68e690809eec0ef9d42c1570682189359bc8f074bd558010e003320a464736f6c634300081a0033",
					"opcodes": "PUSH1 0x80 PUSH1 0x40 MSTORE CALLVALUE DUP1 ISZERO PUSH2 0xF JUMPI PUSH0 DUP1 REVERT JUMPDEST POP PUSH1 0x40 MLOAD PUSH2 0x1741 CODESIZE SUB DUP1 PUSH2 0x1741 DUP4 CODECOPY DUP2 DUP2 ADD PUSH1 0x40 MSTORE DUP2 ADD SWAP1 PUSH2 0x31 SWAP2 SWAP1 PUSH2 0xD5 JUMP JUMPDEST DUP1 PUSH1 0x1 PUSH0 PUSH2 0x100 EXP DUP2 SLOAD DUP2 PUSH20 0xFFFFFFFFFFFFFFFFFFFFFFFFFFFFFFFFFFFFFFFF MUL NOT AND SWAP1 DUP4 PUSH20 0xFFFFFFFFFFFFFFFFFFFFFFFFFFFFFFFFFFFFFFFF AND MUL OR SWAP1 SSTORE POP POP PUSH2 0x100 JUMP JUMPDEST PUSH0 DUP1 REVERT JUMPDEST PUSH0 PUSH20 0xFFFFFFFFFFFFFFFFFFFFFFFFFFFFFFFFFFFFFFFF DUP3 AND SWAP1 POP SWAP2 SWAP1 POP JUMP JUMPDEST PUSH0 PUSH2 0xA4 DUP3 PUSH2 0x7B JUMP JUMPDEST SWAP1 POP SWAP2 SWAP1 POP JUMP JUMPDEST PUSH2 0xB4 DUP2 PUSH2 0x9A JUMP JUMPDEST DUP2 EQ PUSH2 0xBE JUMPI PUSH0 DUP1 REVERT JUMPDEST POP JUMP JUMPDEST PUSH0 DUP2 MLOAD SWAP1 POP PUSH2 0xCF DUP2 PUSH2 0xAB JUMP JUMPDEST SWAP3 SWAP2 POP POP JUMP JUMPDEST PUSH0 PUSH1 0x20 DUP3 DUP5 SUB SLT ISZERO PUSH2 0xEA JUMPI PUSH2 0xE9 PUSH2 0x77 JUMP JUMPDEST JUMPDEST PUSH0 PUSH2 0xF7 DUP5 DUP3 DUP6 ADD PUSH2 0xC1 JUMP JUMPDEST SWAP2 POP POP SWAP3 SWAP2 POP POP JUMP JUMPDEST PUSH2 0x1634 DUP1 PUSH2 0x10D PUSH0 CODECOPY PUSH0 RETURN INVALID PUSH1 0x80 PUSH1 0x40 MSTORE PUSH1 0x4 CALLDATASIZE LT PUSH2 0x6F JUMPI PUSH0 CALLDATALOAD PUSH1 0xE0 SHR DUP1 PUSH4 0x78D5B517 GT PUSH2 0x4D JUMPI DUP1 PUSH4 0x78D5B517 EQ PUSH2 0x103 JUMPI DUP1 PUSH4 0x970E003C EQ PUSH2 0x133 JUMPI DUP1 PUSH4 0xA9144E1A EQ PUSH2 0x16F JUMPI DUP1 PUSH4 0xBF22C457 EQ PUSH2 0x19F JUMPI PUSH2 0x6F JUMP JUMPDEST DUP1 PUSH4 0x393F190D EQ PUSH2 0x73 JUMPI DUP1 PUSH4 0x43351D95 EQ PUSH2 0x9D JUMPI DUP1 PUSH4 0x4B0FA847 EQ PUSH2 0xD9 JUMPI JUMPDEST PUSH0 DUP1 REVERT JUMPDEST CALLVALUE DUP1 ISZERO PUSH2 0x7E JUMPI PUSH0 DUP1 REVERT JUMPDEST POP PUSH2 0x87 PUSH2 0x1DB JUMP JUMPDEST PUSH1 0x40 MLOAD PUSH2 0x94 SWAP2 SWAP1 PUSH2 0xC80 JUMP JUMPDEST PUSH1 0x40 MLOAD DUP1 SWAP2 SUB SWAP1 RETURN JUMPDEST CALLVALUE DUP1 ISZERO PUSH2 0xA8 JUMPI PUSH0 DUP1 REVERT JUMPDEST POP PUSH2 0xC3 PUSH1 0x4 DUP1 CALLDATASIZE SUB DUP2 ADD SWAP1 PUSH2 0xBE SWAP2 SWAP1 PUSH2 0xCDB JUMP JUMPDEST PUSH2 0x26C JUMP JUMPDEST PUSH1 0x40 MLOAD PUSH2 0xD0 SWAP2 SWAP1 PUSH2 0xE55 JUMP JUMPDEST PUSH1 0x40 MLOAD DUP1 SWAP2 SUB SWAP1 RETURN JUMPDEST CALLVALUE DUP1 ISZERO PUSH2 0xE4 JUMPI PUSH0 DUP1 REVERT JUMPDEST POP PUSH2 0xED PUSH2 0x481 JUMP JUMPDEST PUSH1 0x40 MLOAD PUSH2 0xFA SWAP2 SWAP1 PUSH2 0xC80 JUMP JUMPDEST PUSH1 0x40 MLOAD DUP1 SWAP2 SUB SWAP1 RETURN JUMPDEST PUSH2 0x11D PUSH1 0x4 DUP1 CALLDATASIZE SUB DUP2 ADD SWAP1 PUSH2 0x118 SWAP2 SWAP1 PUSH2 0xE9F JUMP JUMPDEST PUSH2 0x4D7 JUMP JUMPDEST PUSH1 0x40 MLOAD PUSH2 0x12A SWAP2 SWAP1 PUSH2 0xF56 JUMP JUMPDEST PUSH1 0x40 MLOAD DUP1 SWAP2 SUB SWAP1 RETURN JUMPDEST CALLVALUE DUP1 ISZERO PUSH2 0x13E JUMPI PUSH0 DUP1 REVERT JUMPDEST POP PUSH2 0x159 PUSH1 0x4 DUP1 CALLDATASIZE SUB DUP2 ADD SWAP1 PUSH2 0x154 SWAP2 SWAP1 PUSH2 0xCDB JUMP JUMPDEST PUSH2 0x756 JUMP JUMPDEST PUSH1 0x40 MLOAD PUSH2 0x166 SWAP2 SWAP1 PUSH2 0xF7E JUMP JUMPDEST PUSH1 0x40 MLOAD DUP1 SWAP2 SUB SWAP1 RETURN JUMPDEST PUSH2 0x189 PUSH1 0x4 DUP1 CALLDATASIZE SUB DUP2 ADD SWAP1 PUSH2 0x184 SWAP2 SWAP1 PUSH2 0x10E6 JUMP JUMPDEST PUSH2 0x77C JUMP JUMPDEST PUSH1 0x40 MLOAD PUSH2 0x196 SWAP2 SWAP1 PUSH2 0xE55 JUMP JUMPDEST PUSH1 0x40 MLOAD DUP1 SWAP2 SUB SWAP1 RETURN JUMPDEST CALLVALUE DUP1 ISZERO PUSH2 0x1AA JUMPI PUSH0 DUP1 REVERT JUMPDEST POP PUSH2 0x1C5 PUSH1 0x4 DUP1 CALLDATASIZE SUB DUP2 ADD SWAP1 PUSH2 0x1C0 SWAP2 SWAP1 PUSH2 0xCDB JUMP JUMPDEST PUSH2 0x922 JUMP JUMPDEST PUSH1 0x40 MLOAD PUSH2 0x1D2 SWAP2 SWAP1 PUSH2 0xE55 JUMP JUMPDEST PUSH1 0x40 MLOAD DUP1 SWAP2 SUB SWAP1 RETURN JUMPDEST PUSH1 0x60 PUSH1 0x4 PUSH0 CALLER PUSH20 0xFFFFFFFFFFFFFFFFFFFFFFFFFFFFFFFFFFFFFFFF AND PUSH20 0xFFFFFFFFFFFFFFFFFFFFFFFFFFFFFFFFFFFFFFFF AND DUP2 MSTORE PUSH1 0x20 ADD SWAP1 DUP2 MSTORE PUSH1 0x20 ADD PUSH0 KECCAK256 DUP1 SLOAD DUP1 PUSH1 0x20 MUL PUSH1 0x20 ADD PUSH1 0x40 MLOAD SWAP1 DUP2 ADD PUSH1 0x40 MSTORE DUP1 SWAP3 SWAP2 SWAP1 DUP2 DUP2 MSTORE PUSH1 0x20 ADD DUP3 DUP1 SLOAD DUP1 ISZERO PUSH2 0x262 JUMPI PUSH1 0x20 MUL DUP3 ADD SWAP2 SWAP1 PUSH0 MSTORE PUSH1 0x20 PUSH0 KECCAK256 SWAP1 JUMPDEST DUP2 SLOAD DUP2 MSTORE PUSH1 0x20 ADD SWAP1 PUSH1 0x1 ADD SWAP1 DUP1 DUP4 GT PUSH2 0x24E JUMPI JUMPDEST POP POP POP POP POP SWAP1 POP SWAP1 JUMP JUMPDEST PUSH2 0x274 PUSH2 0xB3D JUMP JUMPDEST CALLER PUSH20 0xFFFFFFFFFFFFFFFFFFFFFFFFFFFFFFFFFFFFFFFF AND PUSH1 0x3 PUSH0 DUP5 DUP2 MSTORE PUSH1 0x20 ADD SWAP1 DUP2 MSTORE PUSH1 0x20 ADD PUSH0 KECCAK256 PUSH1 0x4 ADD PUSH1 0x1 SWAP1 SLOAD SWAP1 PUSH2 0x100 EXP SWAP1 DIV PUSH20 0xFFFFFFFFFFFFFFFFFFFFFFFFFFFFFFFFFFFFFFFF AND PUSH20 0xFFFFFFFFFFFFFFFFFFFFFFFFFFFFFFFFFFFFFFFF AND EQ PUSH2 0x316 JUMPI PUSH1 0x40 MLOAD PUSH32 0x8C379A000000000000000000000000000000000000000000000000000000000 DUP2 MSTORE PUSH1 0x4 ADD PUSH2 0x30D SWAP1 PUSH2 0x119A JUMP JUMPDEST PUSH1 0x40 MLOAD DUP1 SWAP2 SUB SWAP1 REVERT JUMPDEST PUSH0 PUSH1 0x3 PUSH0 DUP5 DUP2 MSTORE PUSH1 0x20 ADD SWAP1 DUP2 MSTORE PUSH1 0x20 ADD PUSH0 KECCAK256 PUSH1 0x4 ADD PUSH0 PUSH2 0x100 EXP DUP2 SLOAD DUP2 PUSH1 0xFF MUL NOT AND SWAP1 DUP4 ISZERO ISZERO MUL OR SWAP1 SSTORE POP PUSH1 0x3 PUSH0 DUP4 DUP2 MSTORE PUSH1 0x20 ADD SWAP1 DUP2 MSTORE PUSH1 0x20 ADD PUSH0 KECCAK256 PUSH1 0x40 MLOAD DUP1 PUSH1 0xC0 ADD PUSH1 0x40 MSTORE SWAP1 DUP2 PUSH0 DUP3 ADD SLOAD DUP2 MSTORE PUSH1 0x20 ADD PUSH1 0x1 DUP3 ADD DUP1 SLOAD PUSH2 0x376 SWAP1 PUSH2 0x11E5 JUMP JUMPDEST DUP1 PUSH1 0x1F ADD PUSH1 0x20 DUP1 SWAP2 DIV MUL PUSH1 0x20 ADD PUSH1 0x40 MLOAD SWAP1 DUP2 ADD PUSH1 0x40 MSTORE DUP1 SWAP3 SWAP2 SWAP1 DUP2 DUP2 MSTORE PUSH1 0x20 ADD DUP3 DUP1 SLOAD PUSH2 0x3A2 SWAP1 PUSH2 0x11E5 JUMP JUMPDEST DUP1 ISZERO PUSH2 0x3ED JUMPI DUP1 PUSH1 0x1F LT PUSH2 0x3C4 JUMPI PUSH2 0x100 DUP1 DUP4 SLOAD DIV MUL DUP4 MSTORE SWAP2 PUSH1 0x20 ADD SWAP2 PUSH2 0x3ED JUMP JUMPDEST DUP3 ADD SWAP2 SWAP1 PUSH0 MSTORE PUSH1 0x20 PUSH0 KECCAK256 SWAP1 JUMPDEST DUP2 SLOAD DUP2 MSTORE SWAP1 PUSH1 0x1 ADD SWAP1 PUSH1 0x20 ADD DUP1 DUP4 GT PUSH2 0x3D0 JUMPI DUP3 SWAP1 SUB PUSH1 0x1F AND DUP3 ADD SWAP2 JUMPDEST POP POP POP POP POP DUP2 MSTORE PUSH1 0x20 ADD PUSH1 0x2 DUP3 ADD SLOAD DUP2 MSTORE PUSH1 0x20 ADD PUSH1 0x3 DUP3 ADD SLOAD DUP2 MSTORE PUSH1 0x20 ADD PUSH1 0x4 DUP3 ADD PUSH0 SWAP1 SLOAD SWAP1 PUSH2 0x100 EXP SWAP1 DIV PUSH1 0xFF AND ISZERO ISZERO ISZERO ISZERO DUP2 MSTORE PUSH1 0x20 ADD PUSH1 0x4 DUP3 ADD PUSH1 0x1 SWAP1 SLOAD SWAP1 PUSH2 0x100 EXP SWAP1 DIV PUSH20 0xFFFFFFFFFFFFFFFFFFFFFFFFFFFFFFFFFFFFFFFF AND PUSH20 0xFFFFFFFFFFFFFFFFFFFFFFFFFFFFFFFFFFFFFFFF AND PUSH20 0xFFFFFFFFFFFFFFFFFFFFFFFFFFFFFFFFFFFFFFFF AND DUP2 MSTORE POP POP SWAP1 POP SWAP2 SWAP1 POP JUMP JUMPDEST PUSH1 0x60 PUSH1 0x2 DUP1 SLOAD DUP1 PUSH1 0x20 MUL PUSH1 0x20 ADD PUSH1 0x40 MLOAD SWAP1 DUP2 ADD PUSH1 0x40 MSTORE DUP1 SWAP3 SWAP2 SWAP1 DUP2 DUP2 MSTORE PUSH1 0x20 ADD DUP3 DUP1 SLOAD DUP1 ISZERO PUSH2 0x4CD JUMPI PUSH1 0x20 MUL DUP3 ADD SWAP2 SWAP1 PUSH0 MSTORE PUSH1 0x20 PUSH0 KECCAK256 SWAP1 JUMPDEST DUP2 SLOAD DUP2 MSTORE PUSH1 0x20 ADD SWAP1 PUSH1 0x1 ADD SWAP1 DUP1 DUP4 GT PUSH2 0x4B9 JUMPI JUMPDEST POP POP POP POP POP SWAP1 POP SWAP1 JUMP JUMPDEST PUSH2 0x4DF PUSH2 0xB86 JUMP JUMPDEST CALLER PUSH20 0xFFFFFFFFFFFFFFFFFFFFFFFFFFFFFFFFFFFFFFFF AND PUSH1 0x3 PUSH0 DUP8 DUP2 MSTORE PUSH1 0x20 ADD SWAP1 DUP2 MSTORE PUSH1 0x20 ADD PUSH0 KECCAK256 PUSH1 0x4 ADD PUSH1 0x1 SWAP1 SLOAD SWAP1 PUSH2 0x100 EXP SWAP1 DIV PUSH20 0xFFFFFFFFFFFFFFFFFFFFFFFFFFFFFFFFFFFFFFFF AND PUSH20 0xFFFFFFFFFFFFFFFFFFFFFFFFFFFFFFFFFFFFFFFF AND EQ PUSH2 0x581 JUMPI PUSH1 0x40 MLOAD PUSH32 0x8C379A000000000000000000000000000000000000000000000000000000000 DUP2 MSTORE PUSH1 0x4 ADD PUSH2 0x578 SWAP1 PUSH2 0x119A JUMP JUMPDEST PUSH1 0x40 MLOAD DUP1 SWAP2 SUB SWAP1 REVERT JUMPDEST PUSH1 0x1 ISZERO ISZERO PUSH1 0x3 PUSH0 DUP8 DUP2 MSTORE PUSH1 0x20 ADD SWAP1 DUP2 MSTORE PUSH1 0x20 ADD PUSH0 KECCAK256 PUSH1 0x4 ADD PUSH0 SWAP1 SLOAD SWAP1 PUSH2 0x100 EXP SWAP1 DIV PUSH1 0xFF AND ISZERO ISZERO EQ PUSH2 0x5E8 JUMPI PUSH1 0x40 MLOAD PUSH32 0x8C379A000000000000000000000000000000000000000000000000000000000 DUP2 MSTORE PUSH1 0x4 ADD PUSH2 0x5DF SWAP1 PUSH2 0x125F JUMP JUMPDEST PUSH1 0x40 MLOAD DUP1 SWAP2 SUB SWAP1 REVERT JUMPDEST PUSH1 0x1 PUSH1 0x5 PUSH0 DUP8 DUP2 MSTORE PUSH1 0x20 ADD SWAP1 DUP2 MSTORE PUSH1 0x20 ADD PUSH0 KECCAK256 PUSH0 PUSH2 0x100 EXP DUP2 SLOAD DUP2 PUSH1 0xFF MUL NOT AND SWAP1 DUP4 ISZERO ISZERO MUL OR SWAP1 SSTORE POP PUSH1 0x40 MLOAD DUP1 PUSH1 0x80 ADD PUSH1 0x40 MSTORE DUP1 DUP6 PUSH20 0xFFFFFFFFFFFFFFFFFFFFFFFFFFFFFFFFFFFFFFFF AND DUP2 MSTORE PUSH1 0x20 ADD DUP5 DUP2 MSTORE PUSH1 0x20 ADD DUP4 DUP2 MSTORE PUSH1 0x20 ADD PUSH0 DUP2 MSTORE POP PUSH1 0x6 PUSH0 DUP8 DUP2 MSTORE PUSH1 0x20 ADD SWAP1 DUP2 MSTORE PUSH1 0x20 ADD PUSH0 KECCAK256 PUSH0 DUP3 ADD MLOAD DUP2 PUSH0 ADD PUSH0 PUSH2 0x100 EXP DUP2 SLOAD DUP2 PUSH20 0xFFFFFFFFFFFFFFFFFFFFFFFFFFFFFFFFFFFFFFFF MUL NOT AND SWAP1 DUP4 PUSH20 0xFFFFFFFFFFFFFFFFFFFFFFFFFFFFFFFFFFFFFFFF AND MUL OR SWAP1 SSTORE POP PUSH1 0x20 DUP3 ADD MLOAD DUP2 PUSH1 0x1 ADD SSTORE PUSH1 0x40 DUP3 ADD MLOAD DUP2 PUSH1 0x2 ADD SSTORE PUSH1 0x60 DUP3 ADD MLOAD DUP2 PUSH1 0x3 ADD SSTORE SWAP1 POP POP PUSH1 0x6 PUSH0 DUP7 DUP2 MSTORE PUSH1 0x20 ADD SWAP1 DUP2 MSTORE PUSH1 0x20 ADD PUSH0 KECCAK256 PUSH1 0x40 MLOAD DUP1 PUSH1 0x80 ADD PUSH1 0x40 MSTORE SWAP1 DUP2 PUSH0 DUP3 ADD PUSH0 SWAP1 SLOAD SWAP1 PUSH2 0x100 EXP SWAP1 DIV PUSH20 0xFFFFFFFFFFFFFFFFFFFFFFFFFFFFFFFFFFFFFFFF AND PUSH20 0xFFFFFFFFFFFFFFFFFFFFFFFFFFFFFFFFFFFFFFFF AND PUSH20 0xFFFFFFFFFFFFFFFFFFFFFFFFFFFFFFFFFFFFFFFF AND DUP2 MSTORE PUSH1 0x20 ADD PUSH1 0x1 DUP3 ADD SLOAD DUP2 MSTORE PUSH1 0x20 ADD PUSH1 0x2 DUP3 ADD SLOAD DUP2 MSTORE PUSH1 0x20 ADD PUSH1 0x3 DUP3 ADD SLOAD DUP2 MSTORE POP POP SWAP1 POP SWAP5 SWAP4 POP POP POP POP JUMP JUMPDEST PUSH0 PUSH1 0x5 PUSH0 DUP4 DUP2 MSTORE PUSH1 0x20 ADD SWAP1 DUP2 MSTORE PUSH1 0x20 ADD PUSH0 KECCAK256 PUSH0 SWAP1 SLOAD SWAP1 PUSH2 0x100 EXP SWAP1 DIV PUSH1 0xFF AND SWAP1 POP SWAP2 SWAP1 POP JUMP JUMPDEST PUSH2 0x784 PUSH2 0xB3D JUMP JUMPDEST PUSH0 PUSH2 0x78D PUSH2 0xA6A JUMP JUMPDEST SWAP1 POP PUSH1 0x2 DUP2 SWAP1 DUP1 PUSH1 0x1 DUP2 SLOAD ADD DUP1 DUP3 SSTORE DUP1 SWAP2 POP POP PUSH1 0x1 SWAP1 SUB SWAP1 PUSH0 MSTORE PUSH1 0x20 PUSH0 KECCAK256 ADD PUSH0 SWAP1 SWAP2 SWAP1 SWAP2 SWAP1 SWAP2 POP SSTORE PUSH1 0x40 MLOAD DUP1 PUSH1 0xC0 ADD PUSH1 0x40 MSTORE DUP1 DUP3 DUP2 MSTORE PUSH1 0x20 ADD DUP6 DUP2 MSTORE PUSH1 0x20 ADD TIMESTAMP DUP2 MSTORE PUSH1 0x20 ADD TIMESTAMP PUSH2 0x7DC DUP7 PUSH2 0xA85 JUMP JUMPDEST PUSH2 0x7E6 SWAP2 SWAP1 PUSH2 0x12AA JUMP JUMPDEST DUP2 MSTORE PUSH1 0x20 ADD PUSH1 0x1 ISZERO ISZERO DUP2 MSTORE PUSH1 0x20 ADD CALLER PUSH20 0xFFFFFFFFFFFFFFFFFFFFFFFFFFFFFFFFFFFFFFFF AND DUP2 MSTORE POP PUSH1 0x3 PUSH0 DUP4 DUP2 MSTORE PUSH1 0x20 ADD SWAP1 DUP2 MSTORE PUSH1 0x20 ADD PUSH0 KECCAK256 PUSH0 DUP3 ADD MLOAD DUP2 PUSH0 ADD SSTORE PUSH1 0x20 DUP3 ADD MLOAD DUP2 PUSH1 0x1 ADD SWAP1 DUP2 PUSH2 0x83C SWAP2 SWAP1 PUSH2 0x147A JUMP JUMPDEST POP PUSH1 0x40 DUP3 ADD MLOAD DUP2 PUSH1 0x2 ADD SSTORE PUSH1 0x60 DUP3 ADD MLOAD DUP2 PUSH1 0x3 ADD SSTORE PUSH1 0x80 DUP3 ADD MLOAD DUP2 PUSH1 0x4 ADD PUSH0 PUSH2 0x100 EXP DUP2 SLOAD DUP2 PUSH1 0xFF MUL NOT AND SWAP1 DUP4 ISZERO ISZERO MUL OR SWAP1 SSTORE POP PUSH1 0xA0 DUP3 ADD MLOAD DUP2 PUSH1 0x4 ADD PUSH1 0x1 PUSH2 0x100 EXP DUP2 SLOAD DUP2 PUSH20 0xFFFFFFFFFFFFFFFFFFFFFFFFFFFFFFFFFFFFFFFF MUL NOT AND SWAP1 DUP4 PUSH20 0xFFFFFFFFFFFFFFFFFFFFFFFFFFFFFFFFFFFFFFFF AND MUL OR SWAP1 SSTORE POP SWAP1 POP POP PUSH1 0x4 PUSH0 CALLER PUSH20 0xFFFFFFFFFFFFFFFFFFFFFFFFFFFFFFFFFFFFFFFF AND PUSH20 0xFFFFFFFFFFFFFFFFFFFFFFFFFFFFFFFFFFFFFFFF AND DUP2 MSTORE PUSH1 0x20 ADD SWAP1 DUP2 MSTORE PUSH1 0x20 ADD PUSH0 KECCAK256 DUP2 SWAP1 DUP1 PUSH1 0x1 DUP2 SLOAD ADD DUP1 DUP3 SSTORE DUP1 SWAP2 POP POP PUSH1 0x1 SWAP1 SUB SWAP1 PUSH0 MSTORE PUSH1 0x20 PUSH0 KECCAK256 ADD PUSH0 SWAP1 SWAP2 SWAP1 SWAP2 SWAP1 SWAP2 POP SSTORE POP SWAP3 SWAP2 POP POP JUMP JUMPDEST PUSH2 0x92A PUSH2 0xB3D JUMP JUMPDEST PUSH1 0x3 PUSH0 DUP4 DUP2 MSTORE PUSH1 0x20 ADD SWAP1 DUP2 MSTORE PUSH1 0x20 ADD PUSH0 KECCAK256 PUSH1 0x40 MLOAD DUP1 PUSH1 0xC0 ADD PUSH1 0x40 MSTORE SWAP1 DUP2 PUSH0 DUP3 ADD SLOAD DUP2 MSTORE PUSH1 0x20 ADD PUSH1 0x1 DUP3 ADD DUP1 SLOAD PUSH2 0x95F SWAP1 PUSH2 0x11E5 JUMP JUMPDEST DUP1 PUSH1 0x1F ADD PUSH1 0x20 DUP1 SWAP2 DIV MUL PUSH1 0x20 ADD PUSH1 0x40 MLOAD SWAP1 DUP2 ADD PUSH1 0x40 MSTORE DUP1 SWAP3 SWAP2 SWAP1 DUP2 DUP2 MSTORE PUSH1 0x20 ADD DUP3 DUP1 SLOAD PUSH2 0x98B SWAP1 PUSH2 0x11E5 JUMP JUMPDEST DUP1 ISZERO PUSH2 0x9D6 JUMPI DUP1 PUSH1 0x1F LT PUSH2 0x9AD JUMPI PUSH2 0x100 DUP1 DUP4 SLOAD DIV MUL DUP4 MSTORE SWAP2 PUSH1 0x20 ADD SWAP2 PUSH2 0x9D6 JUMP JUMPDEST DUP3 ADD SWAP2 SWAP1 PUSH0 MSTORE PUSH1 0x20 PUSH0 KECCAK256 SWAP1 JUMPDEST DUP2 SLOAD DUP2 MSTORE SWAP1 PUSH1 0x1 ADD SWAP1 PUSH1 0x20 ADD DUP1 DUP4 GT PUSH2 0x9B9 JUMPI DUP3 SWAP1 SUB PUSH1 0x1F AND DUP3 ADD SWAP2 JUMPDEST POP POP POP POP POP DUP2 MSTORE PUSH1 0x20 ADD PUSH1 0x2 DUP3 ADD SLOAD DUP2 MSTORE PUSH1 0x20 ADD PUSH1 0x3 DUP3 ADD SLOAD DUP2 MSTORE PUSH1 0x20 ADD PUSH1 0x4 DUP3 ADD PUSH0 SWAP1 SLOAD SWAP1 PUSH2 0x100 EXP SWAP1 DIV PUSH1 0xFF AND ISZERO ISZERO ISZERO ISZERO DUP2 MSTORE PUSH1 0x20 ADD PUSH1 0x4 DUP3 ADD PUSH1 0x1 SWAP1 SLOAD SWAP1 PUSH2 0x100 EXP SWAP1 DIV PUSH20 0xFFFFFFFFFFFFFFFFFFFFFFFFFFFFFFFFFFFFFFFF AND PUSH20 0xFFFFFFFFFFFFFFFFFFFFFFFFFFFFFFFFFFFFFFFF AND PUSH20 0xFFFFFFFFFFFFFFFFFFFFFFFFFFFFFFFFFFFFFFFF AND DUP2 MSTORE POP POP SWAP1 POP SWAP2 SWAP1 POP JUMP JUMPDEST PUSH0 DUP1 PUSH0 DUP2 SLOAD DUP1 SWAP3 SWAP2 SWAP1 PUSH2 0xA7C SWAP1 PUSH2 0x1549 JUMP JUMPDEST SWAP2 SWAP1 POP SSTORE SWAP1 POP SWAP1 JUMP JUMPDEST PUSH0 PUSH3 0x93A80 SWAP1 POP PUSH0 PUSH1 0x2 DUP2 GT ISZERO PUSH2 0xA9F JUMPI PUSH2 0xA9E PUSH2 0x1590 JUMP JUMPDEST JUMPDEST DUP3 PUSH1 0x2 DUP2 GT ISZERO PUSH2 0xAB2 JUMPI PUSH2 0xAB1 PUSH2 0x1590 JUMP JUMPDEST JUMPDEST SUB ISZERO PUSH2 0xB38 JUMPI PUSH1 0x1 PUSH1 0x2 DUP2 GT ISZERO PUSH2 0xACC JUMPI PUSH2 0xACB PUSH2 0x1590 JUMP JUMPDEST JUMPDEST DUP3 PUSH1 0x2 DUP2 GT ISZERO PUSH2 0xADF JUMPI PUSH2 0xADE PUSH2 0x1590 JUMP JUMPDEST JUMPDEST SUB PUSH2 0xAF8 JUMPI PUSH1 0x2 DUP2 PUSH2 0xAF1 SWAP2 SWAP1 PUSH2 0x15BD JUMP JUMPDEST SWAP1 POP PUSH2 0xB38 JUMP JUMPDEST PUSH1 0x2 DUP1 DUP2 GT ISZERO PUSH2 0xB0B JUMPI PUSH2 0xB0A PUSH2 0x1590 JUMP JUMPDEST JUMPDEST DUP3 PUSH1 0x2 DUP2 GT ISZERO PUSH2 0xB1E JUMPI PUSH2 0xB1D PUSH2 0x1590 JUMP JUMPDEST JUMPDEST SUB PUSH2 0xB37 JUMPI PUSH1 0x4 DUP2 PUSH2 0xB30 SWAP2 SWAP1 PUSH2 0x15BD JUMP JUMPDEST SWAP1 POP PUSH2 0xB38 JUMP JUMPDEST JUMPDEST SWAP2 SWAP1 POP JUMP JUMPDEST PUSH1 0x40 MLOAD DUP1 PUSH1 0xC0 ADD PUSH1 0x40 MSTORE DUP1 PUSH0 DUP2 MSTORE PUSH1 0x20 ADD PUSH1 0x60 DUP2 MSTORE PUSH1 0x20 ADD PUSH0 DUP2 MSTORE PUSH1 0x20 ADD PUSH0 DUP2 MSTORE PUSH1 0x20 ADD PUSH0 ISZERO ISZERO DUP2 MSTORE PUSH1 0x20 ADD PUSH0 PUSH20 0xFFFFFFFFFFFFFFFFFFFFFFFFFFFFFFFFFFFFFFFF AND DUP2 MSTORE POP SWAP1 JUMP JUMPDEST PUSH1 0x40 MLOAD DUP1 PUSH1 0x80 ADD PUSH1 0x40 MSTORE DUP1 PUSH0 PUSH20 0xFFFFFFFFFFFFFFFFFFFFFFFFFFFFFFFFFFFFFFFF AND DUP2 MSTORE PUSH1 0x20 ADD PUSH0 DUP2 MSTORE PUSH1 0x20 ADD PUSH0 DUP2 MSTORE PUSH1 0x20 ADD PUSH0 DUP2 MSTORE POP SWAP1 JUMP JUMPDEST PUSH0 DUP2 MLOAD SWAP1 POP SWAP2 SWAP1 POP JUMP JUMPDEST PUSH0 DUP3 DUP3 MSTORE PUSH1 0x20 DUP3 ADD SWAP1 POP SWAP3 SWAP2 POP POP JUMP JUMPDEST PUSH0 DUP2 SWAP1 POP PUSH1 0x20 DUP3 ADD SWAP1 POP SWAP2 SWAP1 POP JUMP JUMPDEST PUSH0 DUP2 SWAP1 POP SWAP2 SWAP1 POP JUMP JUMPDEST PUSH2 0xBFB DUP2 PUSH2 0xBE9 JUMP JUMPDEST DUP3 MSTORE POP POP JUMP JUMPDEST PUSH0 PUSH2 0xC0C DUP4 DUP4 PUSH2 0xBF2 JUMP JUMPDEST PUSH1 0x20 DUP4 ADD SWAP1 POP SWAP3 SWAP2 POP POP JUMP JUMPDEST PUSH0 PUSH1 0x20 DUP3 ADD SWAP1 POP SWAP2 SWAP1 POP JUMP JUMPDEST PUSH0 PUSH2 0xC2E DUP3 PUSH2 0xBC0 JUMP JUMPDEST PUSH2 0xC38 DUP2 DUP6 PUSH2 0xBCA JUMP JUMPDEST SWAP4 POP PUSH2 0xC43 DUP4 PUSH2 0xBDA JUMP JUMPDEST DUP1 PUSH0 JUMPDEST DUP4 DUP2 LT ISZERO PUSH2 0xC73 JUMPI DUP2 MLOAD PUSH2 0xC5A DUP9 DUP3 PUSH2 0xC01 JUMP JUMPDEST SWAP8 POP PUSH2 0xC65 DUP4 PUSH2 0xC18 JUMP JUMPDEST SWAP3 POP POP PUSH1 0x1 DUP2 ADD SWAP1 POP PUSH2 0xC46 JUMP JUMPDEST POP DUP6 SWAP4 POP POP POP POP SWAP3 SWAP2 POP POP JUMP JUMPDEST PUSH0 PUSH1 0x20 DUP3 ADD SWAP1 POP DUP2 DUP2 SUB PUSH0 DUP4 ADD MSTORE PUSH2 0xC98 DUP2 DUP5 PUSH2 0xC24 JUMP JUMPDEST SWAP1 POP SWAP3 SWAP2 POP POP JUMP JUMPDEST PUSH0 PUSH1 0x40 MLOAD SWAP1 POP SWAP1 JUMP JUMPDEST PUSH0 DUP1 REVERT JUMPDEST PUSH0 DUP1 REVERT JUMPDEST PUSH2 0xCBA DUP2 PUSH2 0xBE9 JUMP JUMPDEST DUP2 EQ PUSH2 0xCC4 JUMPI PUSH0 DUP1 REVERT JUMPDEST POP JUMP JUMPDEST PUSH0 DUP2 CALLDATALOAD SWAP1 POP PUSH2 0xCD5 DUP2 PUSH2 0xCB1 JUMP JUMPDEST SWAP3 SWAP2 POP POP JUMP JUMPDEST PUSH0 PUSH1 0x20 DUP3 DUP5 SUB SLT ISZERO PUSH2 0xCF0 JUMPI PUSH2 0xCEF PUSH2 0xCA9 JUMP JUMPDEST JUMPDEST PUSH0 PUSH2 0xCFD DUP5 DUP3 DUP6 ADD PUSH2 0xCC7 JUMP JUMPDEST SWAP2 POP POP SWAP3 SWAP2 POP POP JUMP JUMPDEST PUSH0 DUP2 MLOAD SWAP1 POP SWAP2 SWAP1 POP JUMP JUMPDEST PUSH0 DUP3 DUP3 MSTORE PUSH1 0x20 DUP3 ADD SWAP1 POP SWAP3 SWAP2 POP POP JUMP JUMPDEST DUP3 DUP2 DUP4 MCOPY PUSH0 DUP4 DUP4 ADD MSTORE POP POP POP JUMP JUMPDEST PUSH0 PUSH1 0x1F NOT PUSH1 0x1F DUP4 ADD AND SWAP1 POP SWAP2 SWAP1 POP JUMP JUMPDEST PUSH0 PUSH2 0xD48 DUP3 PUSH2 0xD06 JUMP JUMPDEST PUSH2 0xD52 DUP2 DUP6 PUSH2 0xD10 JUMP JUMPDEST SWAP4 POP PUSH2 0xD62 DUP2 DUP6 PUSH1 0x20 DUP7 ADD PUSH2 0xD20 JUMP JUMPDEST PUSH2 0xD6B DUP2 PUSH2 0xD2E JUMP JUMPDEST DUP5 ADD SWAP2 POP POP SWAP3 SWAP2 POP POP JUMP JUMPDEST PUSH0 DUP2 ISZERO ISZERO SWAP1 POP SWAP2 SWAP1 POP JUMP JUMPDEST PUSH2 0xD8A DUP2 PUSH2 0xD76 JUMP JUMPDEST DUP3 MSTORE POP POP JUMP JUMPDEST PUSH0 PUSH20 0xFFFFFFFFFFFFFFFFFFFFFFFFFFFFFFFFFFFFFFFF DUP3 AND SWAP1 POP SWAP2 SWAP1 POP JUMP JUMPDEST PUSH0 PUSH2 0xDB9 DUP3 PUSH2 0xD90 JUMP JUMPDEST SWAP1 POP SWAP2 SWAP1 POP JUMP JUMPDEST PUSH2 0xDC9 DUP2 PUSH2 0xDAF JUMP JUMPDEST DUP3 MSTORE POP POP JUMP JUMPDEST PUSH0 PUSH1 0xC0 DUP4 ADD PUSH0 DUP4 ADD MLOAD PUSH2 0xDE4 PUSH0 DUP7 ADD DUP3 PUSH2 0xBF2 JUMP JUMPDEST POP PUSH1 0x20 DUP4 ADD MLOAD DUP5 DUP3 SUB PUSH1 0x20 DUP7 ADD MSTORE PUSH2 0xDFC DUP3 DUP3 PUSH2 0xD3E JUMP JUMPDEST SWAP2 POP POP PUSH1 0x40 DUP4 ADD MLOAD PUSH2 0xE11 PUSH1 0x40 DUP7 ADD DUP3 PUSH2 0xBF2 JUMP JUMPDEST POP PUSH1 0x60 DUP4 ADD MLOAD PUSH2 0xE24 PUSH1 0x60 DUP7 ADD DUP3 PUSH2 0xBF2 JUMP JUMPDEST POP PUSH1 0x80 DUP4 ADD MLOAD PUSH2 0xE37 PUSH1 0x80 DUP7 ADD DUP3 PUSH2 0xD81 JUMP JUMPDEST POP PUSH1 0xA0 DUP4 ADD MLOAD PUSH2 0xE4A PUSH1 0xA0 DUP7 ADD DUP3 PUSH2 0xDC0 JUMP JUMPDEST POP DUP1 SWAP2 POP POP SWAP3 SWAP2 POP POP JUMP JUMPDEST PUSH0 PUSH1 0x20 DUP3 ADD SWAP1 POP DUP2 DUP2 SUB PUSH0 DUP4 ADD MSTORE PUSH2 0xE6D DUP2 DUP5 PUSH2 0xDCF JUMP JUMPDEST SWAP1 POP SWAP3 SWAP2 POP POP JUMP JUMPDEST PUSH2 0xE7E DUP2 PUSH2 0xDAF JUMP JUMPDEST DUP2 EQ PUSH2 0xE88 JUMPI PUSH0 DUP1 REVERT JUMPDEST POP JUMP JUMPDEST PUSH0 DUP2 CALLDATALOAD SWAP1 POP PUSH2 0xE99 DUP2 PUSH2 0xE75 JUMP JUMPDEST SWAP3 SWAP2 POP POP JUMP JUMPDEST PUSH0 DUP1 PUSH0 DUP1 PUSH1 0x80 DUP6 DUP8 SUB SLT ISZERO PUSH2 0xEB7 JUMPI PUSH2 0xEB6 PUSH2 0xCA9 JUMP JUMPDEST JUMPDEST PUSH0 PUSH2 0xEC4 DUP8 DUP3 DUP9 ADD PUSH2 0xCC7 JUMP JUMPDEST SWAP5 POP POP PUSH1 0x20 PUSH2 0xED5 DUP8 DUP3 DUP9 ADD PUSH2 0xE8B JUMP JUMPDEST SWAP4 POP POP PUSH1 0x40 PUSH2 0xEE6 DUP8 DUP3 DUP9 ADD PUSH2 0xCC7 JUMP JUMPDEST SWAP3 POP POP PUSH1 0x60 PUSH2 0xEF7 DUP8 DUP3 DUP9 ADD PUSH2 0xCC7 JUMP JUMPDEST SWAP2 POP POP SWAP3 SWAP6 SWAP2 SWAP5 POP SWAP3 POP JUMP JUMPDEST PUSH1 0x80 DUP3 ADD PUSH0 DUP3 ADD MLOAD PUSH2 0xF17 PUSH0 DUP6 ADD DUP3 PUSH2 0xDC0 JUMP JUMPDEST POP PUSH1 0x20 DUP3 ADD MLOAD PUSH2 0xF2A PUSH1 0x20 DUP6 ADD DUP3 PUSH2 0xBF2 JUMP JUMPDEST POP PUSH1 0x40 DUP3 ADD MLOAD PUSH2 0xF3D PUSH1 0x40 DUP6 ADD DUP3 PUSH2 0xBF2 JUMP JUMPDEST POP PUSH1 0x60 DUP3 ADD MLOAD PUSH2 0xF50 PUSH1 0x60 DUP6 ADD DUP3 PUSH2 0xBF2 JUMP JUMPDEST POP POP POP POP JUMP JUMPDEST PUSH0 PUSH1 0x80 DUP3 ADD SWAP1 POP PUSH2 0xF69 PUSH0 DUP4 ADD DUP5 PUSH2 0xF03 JUMP JUMPDEST SWAP3 SWAP2 POP POP JUMP JUMPDEST PUSH2 0xF78 DUP2 PUSH2 0xD76 JUMP JUMPDEST DUP3 MSTORE POP POP JUMP JUMPDEST PUSH0 PUSH1 0x20 DUP3 ADD SWAP1 POP PUSH2 0xF91 PUSH0 DUP4 ADD DUP5 PUSH2 0xF6F JUMP JUMPDEST SWAP3 SWAP2 POP POP JUMP JUMPDEST PUSH0 DUP1 REVERT JUMPDEST PUSH0 DUP1 REVERT JUMPDEST PUSH32 0x4E487B7100000000000000000000000000000000000000000000000000000000 PUSH0 MSTORE PUSH1 0x41 PUSH1 0x4 MSTORE PUSH1 0x24 PUSH0 REVERT JUMPDEST PUSH2 0xFD5 DUP3 PUSH2 0xD2E JUMP JUMPDEST DUP2 ADD DUP2 DUP2 LT PUSH8 0xFFFFFFFFFFFFFFFF DUP3 GT OR ISZERO PUSH2 0xFF4 JUMPI PUSH2 0xFF3 PUSH2 0xF9F JUMP JUMPDEST JUMPDEST DUP1 PUSH1 0x40 MSTORE POP POP POP JUMP JUMPDEST PUSH0 PUSH2 0x1006 PUSH2 0xCA0 JUMP JUMPDEST SWAP1 POP PUSH2 0x1012 DUP3 DUP3 PUSH2 0xFCC JUMP JUMPDEST SWAP2 SWAP1 POP JUMP JUMPDEST PUSH0 PUSH8 0xFFFFFFFFFFFFFFFF DUP3 GT ISZERO PUSH2 0x1031 JUMPI PUSH2 0x1030 PUSH2 0xF9F JUMP JUMPDEST JUMPDEST PUSH2 0x103A DUP3 PUSH2 0xD2E JUMP JUMPDEST SWAP1 POP PUSH1 0x20 DUP2 ADD SWAP1 POP SWAP2 SWAP1 POP JUMP JUMPDEST DUP3 DUP2 DUP4 CALLDATACOPY PUSH0 DUP4 DUP4 ADD MSTORE POP POP POP JUMP JUMPDEST PUSH0 PUSH2 0x1067 PUSH2 0x1062 DUP5 PUSH2 0x1017 JUMP JUMPDEST PUSH2 0xFFD JUMP JUMPDEST SWAP1 POP DUP3 DUP2 MSTORE PUSH1 0x20 DUP2 ADD DUP5 DUP5 DUP5 ADD GT ISZERO PUSH2 0x1083 JUMPI PUSH2 0x1082 PUSH2 0xF9B JUMP JUMPDEST JUMPDEST PUSH2 0x108E DUP5 DUP3 DUP6 PUSH2 0x1047 JUMP JUMPDEST POP SWAP4 SWAP3 POP POP POP JUMP JUMPDEST PUSH0 DUP3 PUSH1 0x1F DUP4 ADD SLT PUSH2 0x10AA JUMPI PUSH2 0x10A9 PUSH2 0xF97 JUMP JUMPDEST JUMPDEST DUP2 CALLDATALOAD PUSH2 0x10BA DUP5 DUP3 PUSH1 0x20 DUP7 ADD PUSH2 0x1055 JUMP JUMPDEST SWAP2 POP POP SWAP3 SWAP2 POP POP JUMP JUMPDEST PUSH1 0x3 DUP2 LT PUSH2 0x10CF JUMPI PUSH0 DUP1 REVERT JUMPDEST POP JUMP JUMPDEST PUSH0 DUP2 CALLDATALOAD SWAP1 POP PUSH2 0x10E0 DUP2 PUSH2 0x10C3 JUMP JUMPDEST SWAP3 SWAP2 POP POP JUMP JUMPDEST PUSH0 DUP1 PUSH1 0x40 DUP4 DUP6 SUB SLT ISZERO PUSH2 0x10FC JUMPI PUSH2 0x10FB PUSH2 0xCA9 JUMP JUMPDEST JUMPDEST PUSH0 DUP4 ADD CALLDATALOAD PUSH8 0xFFFFFFFFFFFFFFFF DUP2 GT ISZERO PUSH2 0x1119 JUMPI PUSH2 0x1118 PUSH2 0xCAD JUMP JUMPDEST JUMPDEST PUSH2 0x1125 DUP6 DUP3 DUP7 ADD PUSH2 0x1096 JUMP JUMPDEST SWAP3 POP POP PUSH1 0x20 PUSH2 0x1136 DUP6 DUP3 DUP7 ADD PUSH2 0x10D2 JUMP JUMPDEST SWAP2 POP POP SWAP3 POP SWAP3 SWAP1 POP JUMP JUMPDEST PUSH0 DUP3 DUP3 MSTORE PUSH1 0x20 DUP3 ADD SWAP1 POP SWAP3 SWAP2 POP POP JUMP JUMPDEST PUSH32 0x6A6F62206F776E6572206F6E6C79000000000000000000000000000000000000 PUSH0 DUP3 ADD MSTORE POP JUMP JUMPDEST PUSH0 PUSH2 0x1184 PUSH1 0xE DUP4 PUSH2 0x1140 JUMP JUMPDEST SWAP2 POP PUSH2 0x118F DUP3 PUSH2 0x1150 JUMP JUMPDEST PUSH1 0x20 DUP3 ADD SWAP1 POP SWAP2 SWAP1 POP JUMP JUMPDEST PUSH0 PUSH1 0x20 DUP3 ADD SWAP1 POP DUP2 DUP2 SUB PUSH0 DUP4 ADD MSTORE PUSH2 0x11B1 DUP2 PUSH2 0x1178 JUMP JUMPDEST SWAP1 POP SWAP2 SWAP1 POP JUMP JUMPDEST PUSH32 0x4E487B7100000000000000000000000000000000000000000000000000000000 PUSH0 MSTORE PUSH1 0x22 PUSH1 0x4 MSTORE PUSH1 0x24 PUSH0 REVERT JUMPDEST PUSH0 PUSH1 0x2 DUP3 DIV SWAP1 POP PUSH1 0x1 DUP3 AND DUP1 PUSH2 0x11FC JUMPI PUSH1 0x7F DUP3 AND SWAP2 POP JUMPDEST PUSH1 0x20 DUP3 LT DUP2 SUB PUSH2 0x120F JUMPI PUSH2 0x120E PUSH2 0x11B8 JUMP JUMPDEST JUMPDEST POP SWAP2 SWAP1 POP JUMP JUMPDEST PUSH32 0x6A6F6220756E617661696C61626C650000000000000000000000000000000000 PUSH0 DUP3 ADD MSTORE POP JUMP JUMPDEST PUSH0 PUSH2 0x1249 PUSH1 0xF DUP4 PUSH2 0x1140 JUMP JUMPDEST SWAP2 POP PUSH2 0x1254 DUP3 PUSH2 0x1215 JUMP JUMPDEST PUSH1 0x20 DUP3 ADD SWAP1 POP SWAP2 SWAP1 POP JUMP JUMPDEST PUSH0 PUSH1 0x20 DUP3 ADD SWAP1 POP DUP2 DUP2 SUB PUSH0 DUP4 ADD MSTORE PUSH2 0x1276 DUP2 PUSH2 0x123D JUMP JUMPDEST SWAP1 POP SWAP2 SWAP1 POP JUMP JUMPDEST PUSH32 0x4E487B7100000000000000000000000000000000000000000000000000000000 PUSH0 MSTORE PUSH1 0x11 PUSH1 0x4 MSTORE PUSH1 0x24 PUSH0 REVERT JUMPDEST PUSH0 PUSH2 0x12B4 DUP3 PUSH2 0xBE9 JUMP JUMPDEST SWAP2 POP PUSH2 0x12BF DUP4 PUSH2 0xBE9 JUMP JUMPDEST SWAP3 POP DUP3 DUP3 ADD SWAP1 POP DUP1 DUP3 GT ISZERO PUSH2 0x12D7 JUMPI PUSH2 0x12D6 PUSH2 0x127D JUMP JUMPDEST JUMPDEST SWAP3 SWAP2 POP POP JUMP JUMPDEST PUSH0 DUP2 SWAP1 POP DUP2 PUSH0 MSTORE PUSH1 0x20 PUSH0 KECCAK256 SWAP1 POP SWAP2 SWAP1 POP JUMP JUMPDEST PUSH0 PUSH1 0x20 PUSH1 0x1F DUP4 ADD DIV SWAP1 POP SWAP2 SWAP1 POP JUMP JUMPDEST PUSH0 DUP3 DUP3 SHL SWAP1 POP SWAP3 SWAP2 POP POP JUMP JUMPDEST PUSH0 PUSH1 0x8 DUP4 MUL PUSH2 0x1339 PUSH32 0xFFFFFFFFFFFFFFFFFFFFFFFFFFFFFFFFFFFFFFFFFFFFFFFFFFFFFFFFFFFFFFFF DUP3 PUSH2 0x12FE JUMP JUMPDEST PUSH2 0x1343 DUP7 DUP4 PUSH2 0x12FE JUMP JUMPDEST SWAP6 POP DUP1 NOT DUP5 AND SWAP4 POP DUP1 DUP7 AND DUP5 OR SWAP3 POP POP POP SWAP4 SWAP3 POP POP POP JUMP JUMPDEST PUSH0 DUP2 SWAP1 POP SWAP2 SWAP1 POP JUMP JUMPDEST PUSH0 PUSH2 0x137E PUSH2 0x1379 PUSH2 0x1374 DUP5 PUSH2 0xBE9 JUMP JUMPDEST PUSH2 0x135B JUMP JUMPDEST PUSH2 0xBE9 JUMP JUMPDEST SWAP1 POP SWAP2 SWAP1 POP JUMP JUMPDEST PUSH0 DUP2 SWAP1 POP SWAP2 SWAP1 POP JUMP JUMPDEST PUSH2 0x1397 DUP4 PUSH2 0x1364 JUMP JUMPDEST PUSH2 0x13AB PUSH2 0x13A3 DUP3 PUSH2 0x1385 JUMP JUMPDEST DUP5 DUP5 SLOAD PUSH2 0x130A JUMP JUMPDEST DUP3 SSTORE POP POP POP POP JUMP JUMPDEST PUSH0 SWAP1 JUMP JUMPDEST PUSH2 0x13BF PUSH2 0x13B3 JUMP JUMPDEST PUSH2 0x13CA DUP2 DUP5 DUP5 PUSH2 0x138E JUMP JUMPDEST POP POP POP JUMP JUMPDEST JUMPDEST DUP2 DUP2 LT ISZERO PUSH2 0x13ED JUMPI PUSH2 0x13E2 PUSH0 DUP3 PUSH2 0x13B7 JUMP JUMPDEST PUSH1 0x1 DUP2 ADD SWAP1 POP PUSH2 0x13D0 JUMP JUMPDEST POP POP JUMP JUMPDEST PUSH1 0x1F DUP3 GT ISZERO PUSH2 0x1432 JUMPI PUSH2 0x1403 DUP2 PUSH2 0x12DD JUMP JUMPDEST PUSH2 0x140C DUP5 PUSH2 0x12EF JUMP JUMPDEST DUP2 ADD PUSH1 0x20 DUP6 LT ISZERO PUSH2 0x141B JUMPI DUP2 SWAP1 POP JUMPDEST PUSH2 0x142F PUSH2 0x1427 DUP6 PUSH2 0x12EF JUMP JUMPDEST DUP4 ADD DUP3 PUSH2 0x13CF JUMP JUMPDEST POP POP JUMPDEST POP POP POP JUMP JUMPDEST PUSH0 DUP3 DUP3 SHR SWAP1 POP SWAP3 SWAP2 POP POP JUMP JUMPDEST PUSH0 PUSH2 0x1452 PUSH0 NOT DUP5 PUSH1 0x8 MUL PUSH2 0x1437 JUMP JUMPDEST NOT DUP1 DUP4 AND SWAP2 POP POP SWAP3 SWAP2 POP POP JUMP JUMPDEST PUSH0 PUSH2 0x146A DUP4 DUP4 PUSH2 0x1443 JUMP JUMPDEST SWAP2 POP DUP3 PUSH1 0x2 MUL DUP3 OR SWAP1 POP SWAP3 SWAP2 POP POP JUMP JUMPDEST PUSH2 0x1483 DUP3 PUSH2 0xD06 JUMP JUMPDEST PUSH8 0xFFFFFFFFFFFFFFFF DUP2 GT ISZERO PUSH2 0x149C JUMPI PUSH2 0x149B PUSH2 0xF9F JUMP JUMPDEST JUMPDEST PUSH2 0x14A6 DUP3 SLOAD PUSH2 0x11E5 JUMP JUMPDEST PUSH2 0x14B1 DUP3 DUP3 DUP6 PUSH2 0x13F1 JUMP JUMPDEST PUSH0 PUSH1 0x20 SWAP1 POP PUSH1 0x1F DUP4 GT PUSH1 0x1 DUP2 EQ PUSH2 0x14E2 JUMPI PUSH0 DUP5 ISZERO PUSH2 0x14D0 JUMPI DUP3 DUP8 ADD MLOAD SWAP1 POP JUMPDEST PUSH2 0x14DA DUP6 DUP3 PUSH2 0x145F JUMP JUMPDEST DUP7 SSTORE POP PUSH2 0x1541 JUMP JUMPDEST PUSH1 0x1F NOT DUP5 AND PUSH2 0x14F0 DUP7 PUSH2 0x12DD JUMP JUMPDEST PUSH0 JUMPDEST DUP3 DUP2 LT ISZERO PUSH2 0x1517 JUMPI DUP5 DUP10 ADD MLOAD DUP3 SSTORE PUSH1 0x1 DUP3 ADD SWAP2 POP PUSH1 0x20 DUP6 ADD SWAP5 POP PUSH1 0x20 DUP2 ADD SWAP1 POP PUSH2 0x14F2 JUMP JUMPDEST DUP7 DUP4 LT ISZERO PUSH2 0x1534 JUMPI DUP5 DUP10 ADD MLOAD PUSH2 0x1530 PUSH1 0x1F DUP10 AND DUP3 PUSH2 0x1443 JUMP JUMPDEST DUP4 SSTORE POP JUMPDEST PUSH1 0x1 PUSH1 0x2 DUP9 MUL ADD DUP9 SSTORE POP POP POP JUMPDEST POP POP POP POP POP POP JUMP JUMPDEST PUSH0 PUSH2 0x1553 DUP3 PUSH2 0xBE9 JUMP JUMPDEST SWAP2 POP PUSH32 0xFFFFFFFFFFFFFFFFFFFFFFFFFFFFFFFFFFFFFFFFFFFFFFFFFFFFFFFFFFFFFFFF DUP3 SUB PUSH2 0x1585 JUMPI PUSH2 0x1584 PUSH2 0x127D JUMP JUMPDEST JUMPDEST PUSH1 0x1 DUP3 ADD SWAP1 POP SWAP2 SWAP1 POP JUMP JUMPDEST PUSH32 0x4E487B7100000000000000000000000000000000000000000000000000000000 PUSH0 MSTORE PUSH1 0x21 PUSH1 0x4 MSTORE PUSH1 0x24 PUSH0 REVERT JUMPDEST PUSH0 PUSH2 0x15C7 DUP3 PUSH2 0xBE9 JUMP JUMPDEST SWAP2 POP PUSH2 0x15D2 DUP4 PUSH2 0xBE9 JUMP JUMPDEST SWAP3 POP DUP3 DUP3 MUL PUSH2 0x15E0 DUP2 PUSH2 0xBE9 JUMP JUMPDEST SWAP2 POP DUP3 DUP3 DIV DUP5 EQ DUP4 ISZERO OR PUSH2 0x15F7 JUMPI PUSH2 0x15F6 PUSH2 0x127D JUMP JUMPDEST JUMPDEST POP SWAP3 SWAP2 POP POP JUMP INVALID LOG2 PUSH5 0x6970667358 0x22 SLT KECCAK256 MSTORE 0xC5 DUP6 0xE6 DUP15 PUSH10 0x809EEC0EF9D42C15706 DUP3 XOR SWAP4 MSIZE 0xBC DUP16 SMOD 0x4B 0xD5 PC ADD 0xE STOP CALLER KECCAK256 LOG4 PUSH5 0x736F6C6343 STOP ADDMOD BYTE STOP CALLER "
				},
				"gasEstimates": {
					"creation": {
						"codeDepositCost": "1136800",
						"executionCost": "infinite",
						"totalCost": "infinite"
					},
					"external": {
						"addReward(uint256,address,uint256,uint256)": "infinite",
						"getJob(uint256)": "infinite",
						"getJobIds()": "infinite",
						"getOwnerJobIds()": "infinite",
						"hasReward(uint256)": "2832",
						"makeJobUnavailable(uint256)": "infinite",
						"postJob(string,uint8)": "infinite"
					},
					"internal": {
						"getDuration(enum Duration)": "infinite",
						"getId()": "24371"
					}
				},
				"methodIdentifiers": {
					"addReward(uint256,address,uint256,uint256)": "78d5b517",
					"getJob(uint256)": "bf22c457",
					"getJobIds()": "4b0fa847",
					"getOwnerJobIds()": "393f190d",
					"hasReward(uint256)": "970e003c",
					"makeJobUnavailable(uint256)": "43351d95",
					"postJob(string,uint8)": "a9144e1a"
				}
			},
			"storageLayout": {
				"storage": [
					{
						"astId": 18,
						"contract": "contracts/core/JobBoardDelta.sol:JobBoardDelta",
						"label": "index",
						"offset": 0,
						"slot": "0",
						"type": "t_uint256"
					},
					{
						"astId": 20,
						"contract": "contracts/core/JobBoardDelta.sol:JobBoardDelta",
						"label": "admin",
						"offset": 0,
						"slot": "1",
						"type": "t_address"
					},
					{
						"astId": 23,
						"contract": "contracts/core/JobBoardDelta.sol:JobBoardDelta",
						"label": "jobIds",
						"offset": 0,
						"slot": "2",
						"type": "t_array(t_uint256)dyn_storage"
					},
					{
						"astId": 28,
						"contract": "contracts/core/JobBoardDelta.sol:JobBoardDelta",
						"label": "jobById",
						"offset": 0,
						"slot": "3",
						"type": "t_mapping(t_uint256,t_struct(Job)315_storage)"
					},
					{
						"astId": 33,
						"contract": "contracts/core/JobBoardDelta.sol:JobBoardDelta",
						"label": "jobIdByOwner",
						"offset": 0,
						"slot": "4",
						"type": "t_mapping(t_address,t_array(t_uint256)dyn_storage)"
					},
					{
						"astId": 37,
						"contract": "contracts/core/JobBoardDelta.sol:JobBoardDelta",
						"label": "hasRewardByJobId",
						"offset": 0,
						"slot": "5",
						"type": "t_mapping(t_uint256,t_bool)"
					},
					{
						"astId": 42,
						"contract": "contracts/core/JobBoardDelta.sol:JobBoardDelta",
						"label": "rewardByJobId",
						"offset": 0,
						"slot": "6",
						"type": "t_mapping(t_uint256,t_struct(Reward)324_storage)"
					}
				],
				"types": {
					"t_address": {
						"encoding": "inplace",
						"label": "address",
						"numberOfBytes": "20"
					},
					"t_array(t_uint256)dyn_storage": {
						"base": "t_uint256",
						"encoding": "dynamic_array",
						"label": "uint256[]",
						"numberOfBytes": "32"
					},
					"t_bool": {
						"encoding": "inplace",
						"label": "bool",
						"numberOfBytes": "1"
					},
					"t_mapping(t_address,t_array(t_uint256)dyn_storage)": {
						"encoding": "mapping",
						"key": "t_address",
						"label": "mapping(address => uint256[])",
						"numberOfBytes": "32",
						"value": "t_array(t_uint256)dyn_storage"
					},
					"t_mapping(t_uint256,t_bool)": {
						"encoding": "mapping",
						"key": "t_uint256",
						"label": "mapping(uint256 => bool)",
						"numberOfBytes": "32",
						"value": "t_bool"
					},
					"t_mapping(t_uint256,t_struct(Job)315_storage)": {
						"encoding": "mapping",
						"key": "t_uint256",
						"label": "mapping(uint256 => struct Job)",
						"numberOfBytes": "32",
						"value": "t_struct(Job)315_storage"
					},
					"t_mapping(t_uint256,t_struct(Reward)324_storage)": {
						"encoding": "mapping",
						"key": "t_uint256",
						"label": "mapping(uint256 => struct Reward)",
						"numberOfBytes": "32",
						"value": "t_struct(Reward)324_storage"
					},
					"t_string_storage": {
						"encoding": "bytes",
						"label": "string",
						"numberOfBytes": "32"
					},
					"t_struct(Job)315_storage": {
						"encoding": "inplace",
						"label": "struct Job",
						"members": [
							{
								"astId": 304,
								"contract": "contracts/core/JobBoardDelta.sol:JobBoardDelta",
								"label": "id",
								"offset": 0,
								"slot": "0",
								"type": "t_uint256"
							},
							{
								"astId": 306,
								"contract": "contracts/core/JobBoardDelta.sol:JobBoardDelta",
								"label": "cid",
								"offset": 0,
								"slot": "1",
								"type": "t_string_storage"
							},
							{
								"astId": 308,
								"contract": "contracts/core/JobBoardDelta.sol:JobBoardDelta",
								"label": "postedDate",
								"offset": 0,
								"slot": "2",
								"type": "t_uint256"
							},
							{
								"astId": 310,
								"contract": "contracts/core/JobBoardDelta.sol:JobBoardDelta",
								"label": "expiredDate",
								"offset": 0,
								"slot": "3",
								"type": "t_uint256"
							},
							{
								"astId": 312,
								"contract": "contracts/core/JobBoardDelta.sol:JobBoardDelta",
								"label": "available",
								"offset": 0,
								"slot": "4",
								"type": "t_bool"
							},
							{
								"astId": 314,
								"contract": "contracts/core/JobBoardDelta.sol:JobBoardDelta",
								"label": "owner",
								"offset": 1,
								"slot": "4",
								"type": "t_address"
							}
						],
						"numberOfBytes": "160"
					},
					"t_struct(Reward)324_storage": {
						"encoding": "inplace",
						"label": "struct Reward",
						"members": [
							{
								"astId": 317,
								"contract": "contracts/core/JobBoardDelta.sol:JobBoardDelta",
								"label": "erc20",
								"offset": 0,
								"slot": "0",
								"type": "t_address"
							},
							{
								"astId": 319,
								"contract": "contracts/core/JobBoardDelta.sol:JobBoardDelta",
								"label": "totalReward",
								"offset": 0,
								"slot": "1",
								"type": "t_uint256"
							},
							{
								"astId": 321,
								"contract": "contracts/core/JobBoardDelta.sol:JobBoardDelta",
								"label": "individualReward",
								"offset": 0,
								"slot": "2",
								"type": "t_uint256"
							},
							{
								"astId": 323,
								"contract": "contracts/core/JobBoardDelta.sol:JobBoardDelta",
								"label": "distributed",
								"offset": 0,
								"slot": "3",
								"type": "t_uint256"
							}
						],
						"numberOfBytes": "128"
					},
					"t_uint256": {
						"encoding": "inplace",
						"label": "uint256",
						"numberOfBytes": "32"
					}
				}
			},
			"userdoc": {
				"kind": "user",
				"methods": {},
				"version": 1
			}
		}
	}
}