{
	"contracts/core/JobBoardDelta_flattened.sol": {
		"JobBoardDelta": {
			"abi": [
				{
					"inputs": [
						{
							"internalType": "address",
							"name": "_admin",
							"type": "address"
						},
						{
							"internalType": "address",
							"name": "_paymentErc20",
							"type": "address"
						},
						{
							"internalType": "uint256",
							"name": "_chainId",
							"type": "uint256"
						}
					],
					"stateMutability": "nonpayable",
					"type": "constructor"
				},
				{
					"inputs": [
						{
							"internalType": "uint256",
							"name": "_jobId",
							"type": "uint256"
						},
						{
							"internalType": "address",
							"name": "_erc20",
							"type": "address"
						},
						{
							"internalType": "uint256",
							"name": "_rewardAmount",
							"type": "uint256"
						},
						{
							"internalType": "uint256",
							"name": "_amountPerApplicant",
							"type": "uint256"
						}
					],
					"name": "addReward",
					"outputs": [
						{
							"components": [
								{
									"internalType": "address",
									"name": "erc20",
									"type": "address"
								},
								{
									"internalType": "uint256",
									"name": "totalReward",
									"type": "uint256"
								},
								{
									"internalType": "uint256",
									"name": "individualReward",
									"type": "uint256"
								},
								{
									"internalType": "uint256",
									"name": "distributed",
									"type": "uint256"
								}
							],
							"internalType": "struct Reward",
							"name": "_reward",
							"type": "tuple"
						}
					],
					"stateMutability": "payable",
					"type": "function"
				},
				{
					"inputs": [
						{
							"internalType": "uint256",
							"name": "_jobId",
							"type": "uint256"
						},
						{
							"internalType": "string",
							"name": "_resumeCid",
							"type": "string"
						},
						{
							"internalType": "uint256",
							"name": "_rewardChainId",
							"type": "uint256"
						},
						{
							"internalType": "address",
							"name": "_rewardAddress",
							"type": "address"
						},
						{
							"internalType": "bool",
							"name": "_isReferral",
							"type": "bool"
						}
					],
					"name": "applyForJob",
					"outputs": [
						{
							"internalType": "uint256",
							"name": "_applicantCount",
							"type": "uint256"
						}
					],
					"stateMutability": "nonpayable",
					"type": "function"
				},
				{
					"inputs": [
						{
							"internalType": "uint256",
							"name": "_jobId",
							"type": "uint256"
						},
						{
							"internalType": "uint256[]",
							"name": "_applicantIds",
							"type": "uint256[]"
						}
					],
					"name": "approveRewards",
					"outputs": [
						{
							"internalType": "uint256",
							"name": "_rewardedCount",
							"type": "uint256"
						}
					],
					"stateMutability": "nonpayable",
					"type": "function"
				},
				{
					"inputs": [
						{
							"internalType": "uint256",
							"name": "_applicantId",
							"type": "uint256"
						}
					],
					"name": "getApplicant",
					"outputs": [
						{
							"components": [
								{
									"internalType": "uint256",
									"name": "id",
									"type": "uint256"
								},
								{
									"internalType": "string",
									"name": "resumeCid",
									"type": "string"
								},
								{
									"internalType": "uint256",
									"name": "chainId",
									"type": "uint256"
								},
								{
									"internalType": "address",
									"name": "rewardAddress",
									"type": "address"
								},
								{
									"internalType": "bool",
									"name": "referral",
									"type": "bool"
								}
							],
							"internalType": "struct Applicant",
							"name": "_applicant",
							"type": "tuple"
						}
					],
					"stateMutability": "view",
					"type": "function"
				},
				{
					"inputs": [
						{
							"internalType": "uint256",
							"name": "_jobId",
							"type": "uint256"
						}
					],
					"name": "getApplicantIds",
					"outputs": [
						{
							"internalType": "uint256[]",
							"name": "_jobIds",
							"type": "uint256[]"
						}
					],
					"stateMutability": "view",
					"type": "function"
				},
				{
					"inputs": [
						{
							"internalType": "uint256",
							"name": "_jobId",
							"type": "uint256"
						}
					],
					"name": "getJob",
					"outputs": [
						{
							"components": [
								{
									"internalType": "uint256",
									"name": "id",
									"type": "uint256"
								},
								{
									"internalType": "string",
									"name": "cid",
									"type": "string"
								},
								{
									"internalType": "uint256",
									"name": "postedDate",
									"type": "uint256"
								},
								{
									"internalType": "uint256",
									"name": "expiredDate",
									"type": "uint256"
								},
								{
									"internalType": "bool",
									"name": "available",
									"type": "bool"
								},
								{
									"internalType": "address",
									"name": "owner",
									"type": "address"
								}
							],
							"internalType": "struct Job",
							"name": "_job",
							"type": "tuple"
						}
					],
					"stateMutability": "view",
					"type": "function"
				},
				{
					"inputs": [],
					"name": "getJobIds",
					"outputs": [
						{
							"internalType": "uint256[]",
							"name": "_ids",
							"type": "uint256[]"
						}
					],
					"stateMutability": "view",
					"type": "function"
				},
				{
					"inputs": [
						{
							"internalType": "uint256",
							"name": "_jobId",
							"type": "uint256"
						}
					],
					"name": "getJobReward",
					"outputs": [
						{
							"components": [
								{
									"internalType": "address",
									"name": "erc20",
									"type": "address"
								},
								{
									"internalType": "uint256",
									"name": "totalReward",
									"type": "uint256"
								},
								{
									"internalType": "uint256",
									"name": "individualReward",
									"type": "uint256"
								},
								{
									"internalType": "uint256",
									"name": "distributed",
									"type": "uint256"
								}
							],
							"internalType": "struct Reward",
							"name": "_reward",
							"type": "tuple"
						}
					],
					"stateMutability": "view",
					"type": "function"
				},
				{
					"inputs": [],
					"name": "getOwnerJobIds",
					"outputs": [
						{
							"internalType": "uint256[]",
							"name": "_jobIds",
							"type": "uint256[]"
						}
					],
					"stateMutability": "view",
					"type": "function"
				},
				{
					"inputs": [],
					"name": "getPaymentErc20",
					"outputs": [
						{
							"internalType": "address",
							"name": "_paymentErc20",
							"type": "address"
						}
					],
					"stateMutability": "view",
					"type": "function"
				},
				{
					"inputs": [
						{
							"internalType": "enum Duration",
							"name": "_duration",
							"type": "uint8"
						}
					],
					"name": "getPrice",
					"outputs": [
						{
							"internalType": "uint256",
							"name": "_price",
							"type": "uint256"
						}
					],
					"stateMutability": "view",
					"type": "function"
				},
				{
					"inputs": [
						{
							"internalType": "uint256",
							"name": "_jobId",
							"type": "uint256"
						}
					],
					"name": "hasReward",
					"outputs": [
						{
							"internalType": "bool",
							"name": "_hasReward",
							"type": "bool"
						}
					],
					"stateMutability": "view",
					"type": "function"
				},
				{
					"inputs": [
						{
							"internalType": "uint256",
							"name": "_jobId",
							"type": "uint256"
						}
					],
					"name": "makeJobUnavailable",
					"outputs": [
						{
							"components": [
								{
									"internalType": "uint256",
									"name": "id",
									"type": "uint256"
								},
								{
									"internalType": "string",
									"name": "cid",
									"type": "string"
								},
								{
									"internalType": "uint256",
									"name": "postedDate",
									"type": "uint256"
								},
								{
									"internalType": "uint256",
									"name": "expiredDate",
									"type": "uint256"
								},
								{
									"internalType": "bool",
									"name": "available",
									"type": "bool"
								},
								{
									"internalType": "address",
									"name": "owner",
									"type": "address"
								}
							],
							"internalType": "struct Job",
							"name": "_job",
							"type": "tuple"
						}
					],
					"stateMutability": "nonpayable",
					"type": "function"
				},
				{
					"inputs": [
						{
							"internalType": "string",
							"name": "_cid",
							"type": "string"
						},
						{
							"internalType": "enum Duration",
							"name": "_duration",
							"type": "uint8"
						}
					],
					"name": "postJob",
					"outputs": [
						{
							"components": [
								{
									"internalType": "uint256",
									"name": "id",
									"type": "uint256"
								},
								{
									"internalType": "string",
									"name": "cid",
									"type": "string"
								},
								{
									"internalType": "uint256",
									"name": "postedDate",
									"type": "uint256"
								},
								{
									"internalType": "uint256",
									"name": "expiredDate",
									"type": "uint256"
								},
								{
									"internalType": "bool",
									"name": "available",
									"type": "bool"
								},
								{
									"internalType": "address",
									"name": "owner",
									"type": "address"
								}
							],
							"internalType": "struct Job",
							"name": "_job",
							"type": "tuple"
						}
					],
					"stateMutability": "payable",
					"type": "function"
				},
				{
					"inputs": [
						{
							"internalType": "enum Duration",
							"name": "_duration",
							"type": "uint8"
						},
						{
							"internalType": "uint256",
							"name": "_price",
							"type": "uint256"
						}
					],
					"name": "setPrice",
					"outputs": [
						{
							"internalType": "bool",
							"name": "_set",
							"type": "bool"
						}
					],
					"stateMutability": "nonpayable",
					"type": "function"
				}
			],
			"devdoc": {
				"kind": "dev",
				"methods": {},
				"version": 1
			},
			"evm": {
				"assembly": "    /* \"contracts/core/JobBoardDelta_flattened.sol\":10521:18531  contract JobBoardDelta is IJobBoardDelta {... */\n  mstore(0x40, 0xe0)\n    /* \"contracts/core/JobBoardDelta_flattened.sol\":11308:11507  constructor(address _admin, address _paymentErc20, uint256 _chainId) {... */\n  callvalue\n  dup1\n  iszero\n  tag_1\n  jumpi\n  0x00\n  dup1\n  revert\ntag_1:\n  pop\n  mload(0x40)\n  sub(codesize, bytecodeSize)\n  dup1\n  bytecodeSize\n  dup4\n  codecopy\n  dup2\n  dup2\n  add\n  0x40\n  mstore\n  dup2\n  add\n  swap1\n  tag_2\n  swap2\n  swap1\n  tag_3\n  jump\t// in\ntag_2:\n    /* \"contracts/core/JobBoardDelta_flattened.sol\":11395:11401  _admin */\n  dup3\n    /* \"contracts/core/JobBoardDelta_flattened.sol\":11387:11392  admin */\n  0x01\n  0x00\n    /* \"contracts/core/JobBoardDelta_flattened.sol\":11387:11401  admin = _admin */\n  0x0100\n  exp\n  dup2\n  sload\n  dup2\n  0xffffffffffffffffffffffffffffffffffffffff\n  mul\n  not\n  and\n  swap1\n  dup4\n  0xffffffffffffffffffffffffffffffffffffffff\n  and\n  mul\n  or\n  swap1\n  sstore\n  pop\n    /* \"contracts/core/JobBoardDelta_flattened.sol\":11427:11440  _paymentErc20 */\n  dup2\n    /* \"contracts/core/JobBoardDelta_flattened.sol\":11412:11440  paymentErc20 = _paymentErc20 */\n  0xffffffffffffffffffffffffffffffffffffffff\n  and\n  0xa0\n  dup2\n  0xffffffffffffffffffffffffffffffffffffffff\n  and\n  dup2\n  mstore\n  pop\n  pop\n    /* \"contracts/core/JobBoardDelta_flattened.sol\":11466:11470  this */\n  address\n    /* \"contracts/core/JobBoardDelta_flattened.sol\":11451:11471  self = address(this) */\n  0xffffffffffffffffffffffffffffffffffffffff\n  and\n  0x80\n  dup2\n  0xffffffffffffffffffffffffffffffffffffffff\n  and\n  dup2\n  mstore\n  pop\n  pop\n    /* \"contracts/core/JobBoardDelta_flattened.sol\":11491:11499  _chainId */\n  dup1\n    /* \"contracts/core/JobBoardDelta_flattened.sol\":11481:11499  chainId = _chainId */\n  0xc0\n  dup2\n  dup2\n  mstore\n  pop\n  pop\n    /* \"contracts/core/JobBoardDelta_flattened.sol\":11308:11507  constructor(address _admin, address _paymentErc20, uint256 _chainId) {... */\n  pop\n  pop\n  pop\n    /* \"contracts/core/JobBoardDelta_flattened.sol\":10521:18531  contract JobBoardDelta is IJobBoardDelta {... */\n  jump(tag_6)\n    /* \"#utility.yul\":88:205   */\ntag_8:\n    /* \"#utility.yul\":197:198   */\n  0x00\n    /* \"#utility.yul\":194:195   */\n  dup1\n    /* \"#utility.yul\":187:199   */\n  revert\n    /* \"#utility.yul\":334:460   */\ntag_10:\n    /* \"#utility.yul\":371:378   */\n  0x00\n    /* \"#utility.yul\":411:453   */\n  0xffffffffffffffffffffffffffffffffffffffff\n    /* \"#utility.yul\":404:409   */\n  dup3\n    /* \"#utility.yul\":400:454   */\n  and\n    /* \"#utility.yul\":389:454   */\n  swap1\n  pop\n    /* \"#utility.yul\":334:460   */\n  swap2\n  swap1\n  pop\n  jump\t// out\n    /* \"#utility.yul\":466:562   */\ntag_11:\n    /* \"#utility.yul\":503:510   */\n  0x00\n    /* \"#utility.yul\":532:556   */\n  tag_23\n    /* \"#utility.yul\":550:555   */\n  dup3\n    /* \"#utility.yul\":532:556   */\n  tag_10\n  jump\t// in\ntag_23:\n    /* \"#utility.yul\":521:556   */\n  swap1\n  pop\n    /* \"#utility.yul\":466:562   */\n  swap2\n  swap1\n  pop\n  jump\t// out\n    /* \"#utility.yul\":568:690   */\ntag_12:\n    /* \"#utility.yul\":641:665   */\n  tag_25\n    /* \"#utility.yul\":659:664   */\n  dup2\n    /* \"#utility.yul\":641:665   */\n  tag_11\n  jump\t// in\ntag_25:\n    /* \"#utility.yul\":634:639   */\n  dup2\n    /* \"#utility.yul\":631:666   */\n  eq\n    /* \"#utility.yul\":621:684   */\n  tag_26\n  jumpi\n    /* \"#utility.yul\":680:681   */\n  0x00\n    /* \"#utility.yul\":677:678   */\n  dup1\n    /* \"#utility.yul\":670:682   */\n  revert\n    /* \"#utility.yul\":621:684   */\ntag_26:\n    /* \"#utility.yul\":568:690   */\n  pop\n  jump\t// out\n    /* \"#utility.yul\":696:839   */\ntag_13:\n    /* \"#utility.yul\":753:758   */\n  0x00\n    /* \"#utility.yul\":784:790   */\n  dup2\n    /* \"#utility.yul\":778:791   */\n  mload\n    /* \"#utility.yul\":769:791   */\n  swap1\n  pop\n    /* \"#utility.yul\":800:833   */\n  tag_28\n    /* \"#utility.yul\":827:832   */\n  dup2\n    /* \"#utility.yul\":800:833   */\n  tag_12\n  jump\t// in\ntag_28:\n    /* \"#utility.yul\":696:839   */\n  swap3\n  swap2\n  pop\n  pop\n  jump\t// out\n    /* \"#utility.yul\":845:922   */\ntag_14:\n    /* \"#utility.yul\":882:889   */\n  0x00\n    /* \"#utility.yul\":911:916   */\n  dup2\n    /* \"#utility.yul\":900:916   */\n  swap1\n  pop\n    /* \"#utility.yul\":845:922   */\n  swap2\n  swap1\n  pop\n  jump\t// out\n    /* \"#utility.yul\":928:1050   */\ntag_15:\n    /* \"#utility.yul\":1001:1025   */\n  tag_31\n    /* \"#utility.yul\":1019:1024   */\n  dup2\n    /* \"#utility.yul\":1001:1025   */\n  tag_14\n  jump\t// in\ntag_31:\n    /* \"#utility.yul\":994:999   */\n  dup2\n    /* \"#utility.yul\":991:1026   */\n  eq\n    /* \"#utility.yul\":981:1044   */\n  tag_32\n  jumpi\n    /* \"#utility.yul\":1040:1041   */\n  0x00\n    /* \"#utility.yul\":1037:1038   */\n  dup1\n    /* \"#utility.yul\":1030:1042   */\n  revert\n    /* \"#utility.yul\":981:1044   */\ntag_32:\n    /* \"#utility.yul\":928:1050   */\n  pop\n  jump\t// out\n    /* \"#utility.yul\":1056:1199   */\ntag_16:\n    /* \"#utility.yul\":1113:1118   */\n  0x00\n    /* \"#utility.yul\":1144:1150   */\n  dup2\n    /* \"#utility.yul\":1138:1151   */\n  mload\n    /* \"#utility.yul\":1129:1151   */\n  swap1\n  pop\n    /* \"#utility.yul\":1160:1193   */\n  tag_34\n    /* \"#utility.yul\":1187:1192   */\n  dup2\n    /* \"#utility.yul\":1160:1193   */\n  tag_15\n  jump\t// in\ntag_34:\n    /* \"#utility.yul\":1056:1199   */\n  swap3\n  swap2\n  pop\n  pop\n  jump\t// out\n    /* \"#utility.yul\":1205:1868   */\ntag_3:\n    /* \"#utility.yul\":1293:1299   */\n  0x00\n    /* \"#utility.yul\":1301:1307   */\n  dup1\n    /* \"#utility.yul\":1309:1315   */\n  0x00\n    /* \"#utility.yul\":1358:1360   */\n  0x60\n    /* \"#utility.yul\":1346:1355   */\n  dup5\n    /* \"#utility.yul\":1337:1344   */\n  dup7\n    /* \"#utility.yul\":1333:1356   */\n  sub\n    /* \"#utility.yul\":1329:1361   */\n  slt\n    /* \"#utility.yul\":1326:1445   */\n  iszero\n  tag_36\n  jumpi\n    /* \"#utility.yul\":1364:1443   */\n  tag_37\n  tag_8\n  jump\t// in\ntag_37:\n    /* \"#utility.yul\":1326:1445   */\ntag_36:\n    /* \"#utility.yul\":1484:1485   */\n  0x00\n    /* \"#utility.yul\":1509:1573   */\n  tag_38\n    /* \"#utility.yul\":1565:1572   */\n  dup7\n    /* \"#utility.yul\":1556:1562   */\n  dup3\n    /* \"#utility.yul\":1545:1554   */\n  dup8\n    /* \"#utility.yul\":1541:1563   */\n  add\n    /* \"#utility.yul\":1509:1573   */\n  tag_13\n  jump\t// in\ntag_38:\n    /* \"#utility.yul\":1499:1573   */\n  swap4\n  pop\n    /* \"#utility.yul\":1455:1583   */\n  pop\n    /* \"#utility.yul\":1622:1624   */\n  0x20\n    /* \"#utility.yul\":1648:1712   */\n  tag_39\n    /* \"#utility.yul\":1704:1711   */\n  dup7\n    /* \"#utility.yul\":1695:1701   */\n  dup3\n    /* \"#utility.yul\":1684:1693   */\n  dup8\n    /* \"#utility.yul\":1680:1702   */\n  add\n    /* \"#utility.yul\":1648:1712   */\n  tag_13\n  jump\t// in\ntag_39:\n    /* \"#utility.yul\":1638:1712   */\n  swap3\n  pop\n    /* \"#utility.yul\":1593:1722   */\n  pop\n    /* \"#utility.yul\":1761:1763   */\n  0x40\n    /* \"#utility.yul\":1787:1851   */\n  tag_40\n    /* \"#utility.yul\":1843:1850   */\n  dup7\n    /* \"#utility.yul\":1834:1840   */\n  dup3\n    /* \"#utility.yul\":1823:1832   */\n  dup8\n    /* \"#utility.yul\":1819:1841   */\n  add\n    /* \"#utility.yul\":1787:1851   */\n  tag_16\n  jump\t// in\ntag_40:\n    /* \"#utility.yul\":1777:1851   */\n  swap2\n  pop\n    /* \"#utility.yul\":1732:1861   */\n  pop\n    /* \"#utility.yul\":1205:1868   */\n  swap3\n  pop\n  swap3\n  pop\n  swap3\n  jump\t// out\n    /* \"contracts/core/JobBoardDelta_flattened.sol\":10521:18531  contract JobBoardDelta is IJobBoardDelta {... */\ntag_6:\n  mload(0x80)\n  mload(0xa0)\n  mload(0xc0)\n  codecopy(0x00, dataOffset(sub_0), dataSize(sub_0))\n  0x00\n  assignImmutable(\"0x3a6b057b9d48186986616a0f5b0622760f50f4bcc4f1fc92ab446a90a1025914\")\n  0x00\n  assignImmutable(\"0xb4bf3508f2fd7bb126e7af9e4fe31dbb3cdf386df5936668ea4d8292a4a1b188\")\n  0x00\n  assignImmutable(\"0xb87264ef8bf99bc710f0d9de51012e0b2f3ac2595d912802c21dad6f786bfe81\")\n  return(0x00, dataSize(sub_0))\nstop\n\nsub_0: assembly {\n        /* \"contracts/core/JobBoardDelta_flattened.sol\":10521:18531  contract JobBoardDelta is IJobBoardDelta {... */\n      mstore(0x40, 0x80)\n      jumpi(tag_1, lt(calldatasize, 0x04))\n      shr(0xe0, calldataload(0x00))\n      dup1\n      0x78d5b517\n      gt\n      tag_17\n      jumpi\n      dup1\n      0xa9144e1a\n      gt\n      tag_18\n      jumpi\n      dup1\n      0xa9144e1a\n      eq\n      tag_13\n      jumpi\n      dup1\n      0xbf22c457\n      eq\n      tag_14\n      jumpi\n      dup1\n      0xcd449446\n      eq\n      tag_15\n      jumpi\n      dup1\n      0xeea3f82d\n      eq\n      tag_16\n      jumpi\n      jump(tag_1)\n    tag_18:\n      dup1\n      0x78d5b517\n      eq\n      tag_9\n      jumpi\n      dup1\n      0x83238fb4\n      eq\n      tag_10\n      jumpi\n      dup1\n      0x9217cbe0\n      eq\n      tag_11\n      jumpi\n      dup1\n      0x970e003c\n      eq\n      tag_12\n      jumpi\n      jump(tag_1)\n    tag_17:\n      dup1\n      0x43351d95\n      gt\n      tag_19\n      jumpi\n      dup1\n      0x43351d95\n      eq\n      tag_5\n      jumpi\n      dup1\n      0x4b0fa847\n      eq\n      tag_6\n      jumpi\n      dup1\n      0x4fb3bebc\n      eq\n      tag_7\n      jumpi\n      dup1\n      0x6a00670b\n      eq\n      tag_8\n      jumpi\n      jump(tag_1)\n    tag_19:\n      dup1\n      0x098b2cbd\n      eq\n      tag_2\n      jumpi\n      dup1\n      0x37f1e7f2\n      eq\n      tag_3\n      jumpi\n      dup1\n      0x393f190d\n      eq\n      tag_4\n      jumpi\n    tag_1:\n      0x00\n      dup1\n      revert\n        /* \"contracts/core/JobBoardDelta_flattened.sol\":13527:13669  function getApplicantIds(uint256 _jobId) view external returns (uint256 [] memory _jobIds) {... */\n    tag_2:\n      callvalue\n      dup1\n      iszero\n      tag_20\n      jumpi\n      0x00\n      dup1\n      revert\n    tag_20:\n      pop\n      tag_21\n      0x04\n      dup1\n      calldatasize\n      sub\n      dup2\n      add\n      swap1\n      tag_22\n      swap2\n      swap1\n      tag_23\n      jump\t// in\n    tag_22:\n      tag_24\n      jump\t// in\n    tag_21:\n      mload(0x40)\n      tag_25\n      swap2\n      swap1\n      tag_26\n      jump\t// in\n    tag_25:\n      mload(0x40)\n      dup1\n      swap2\n      sub\n      swap1\n      return\n        /* \"contracts/core/JobBoardDelta_flattened.sol\":12099:12227  function getPrice(Duration _duration)  view external returns (uint256 _price) {... */\n    tag_3:\n      callvalue\n      dup1\n      iszero\n      tag_27\n      jumpi\n      0x00\n      dup1\n      revert\n    tag_27:\n      pop\n      tag_28\n      0x04\n      dup1\n      calldatasize\n      sub\n      dup2\n      add\n      swap1\n      tag_29\n      swap2\n      swap1\n      tag_30\n      jump\t// in\n    tag_29:\n      tag_31\n      jump\t// in\n    tag_28:\n      mload(0x40)\n      tag_32\n      swap2\n      swap1\n      tag_33\n      jump\t// in\n    tag_32:\n      mload(0x40)\n      dup1\n      swap2\n      sub\n      swap1\n      return\n        /* \"contracts/core/JobBoardDelta_flattened.sol\":16660:16784  function getOwnerJobIds() view external returns (uint256 [] memory _jobIds) {... */\n    tag_4:\n      callvalue\n      dup1\n      iszero\n      tag_34\n      jumpi\n      0x00\n      dup1\n      revert\n    tag_34:\n      pop\n      tag_35\n      tag_36\n      jump\t// in\n    tag_35:\n      mload(0x40)\n      tag_37\n      swap2\n      swap1\n      tag_26\n      jump\t// in\n    tag_37:\n      mload(0x40)\n      dup1\n      swap2\n      sub\n      swap1\n      return\n        /* \"contracts/core/JobBoardDelta_flattened.sol\":11860:12093  function makeJobUnavailable(uint256 _jobId) external returns (Job memory _job){... */\n    tag_5:\n      callvalue\n      dup1\n      iszero\n      tag_38\n      jumpi\n      0x00\n      dup1\n      revert\n    tag_38:\n      pop\n      tag_39\n      0x04\n      dup1\n      calldatasize\n      sub\n      dup2\n      add\n      swap1\n      tag_40\n      swap2\n      swap1\n      tag_23\n      jump\t// in\n    tag_40:\n      tag_41\n      jump\t// in\n    tag_39:\n      mload(0x40)\n      tag_42\n      swap2\n      swap1\n      tag_43\n      jump\t// in\n    tag_42:\n      mload(0x40)\n      dup1\n      swap2\n      sub\n      swap1\n      return\n        /* \"contracts/core/JobBoardDelta_flattened.sol\":11513:11610  function getJobIds() view external returns (uint256 [] memory _ids){... */\n    tag_6:\n      callvalue\n      dup1\n      iszero\n      tag_44\n      jumpi\n      0x00\n      dup1\n      revert\n    tag_44:\n      pop\n      tag_45\n      tag_46\n      jump\t// in\n    tag_45:\n      mload(0x40)\n      tag_47\n      swap2\n      swap1\n      tag_26\n      jump\t// in\n    tag_47:\n      mload(0x40)\n      dup1\n      swap2\n      sub\n      swap1\n      return\n        /* \"contracts/core/JobBoardDelta_flattened.sol\":12637:13521  function applyForJob(uint256 _jobId, string memory _resumeCid, uint256 _rewardChainId, address _rewardAddress, bool _isReferral) external returns (uint256 _applicantCount) {... */\n    tag_7:\n      callvalue\n      dup1\n      iszero\n      tag_48\n      jumpi\n      0x00\n      dup1\n      revert\n    tag_48:\n      pop\n      tag_49\n      0x04\n      dup1\n      calldatasize\n      sub\n      dup2\n      add\n      swap1\n      tag_50\n      swap2\n      swap1\n      tag_51\n      jump\t// in\n    tag_50:\n      tag_52\n      jump\t// in\n    tag_49:\n      mload(0x40)\n      tag_53\n      swap2\n      swap1\n      tag_33\n      jump\t// in\n    tag_53:\n      mload(0x40)\n      dup1\n      swap2\n      sub\n      swap1\n      return\n        /* \"contracts/core/JobBoardDelta_flattened.sol\":16790:16958  function setPrice(Duration _duration, uint256 _price) external onlyAdmin returns (bool _set) {... */\n    tag_8:\n      callvalue\n      dup1\n      iszero\n      tag_54\n      jumpi\n      0x00\n      dup1\n      revert\n    tag_54:\n      pop\n      tag_55\n      0x04\n      dup1\n      calldatasize\n      sub\n      dup2\n      add\n      swap1\n      tag_56\n      swap2\n      swap1\n      tag_57\n      jump\t// in\n    tag_56:\n      tag_58\n      jump\t// in\n    tag_55:\n      mload(0x40)\n      tag_59\n      swap2\n      swap1\n      tag_60\n      jump\t// in\n    tag_59:\n      mload(0x40)\n      dup1\n      swap2\n      sub\n      swap1\n      return\n        /* \"contracts/core/JobBoardDelta_flattened.sol\":15840:16654  function addReward(uint256 _jobId, address _erc20, uint256 _rewardAmount, uint256 _amountPerApplicant) payable external returns (Reward memory _reward) {... */\n    tag_9:\n      tag_61\n      0x04\n      dup1\n      calldatasize\n      sub\n      dup2\n      add\n      swap1\n      tag_62\n      swap2\n      swap1\n      tag_63\n      jump\t// in\n    tag_62:\n      tag_64\n      jump\t// in\n    tag_61:\n      mload(0x40)\n      tag_65\n      swap2\n      swap1\n      tag_66\n      jump\t// in\n    tag_65:\n      mload(0x40)\n      dup1\n      swap2\n      sub\n      swap1\n      return\n        /* \"contracts/core/JobBoardDelta_flattened.sol\":13675:15056  function approveRewards(uint256 _jobId, uint256 [] memory _applicantIds) external returns (uint256 _rewardedCount) {... */\n    tag_10:\n      callvalue\n      dup1\n      iszero\n      tag_67\n      jumpi\n      0x00\n      dup1\n      revert\n    tag_67:\n      pop\n      tag_68\n      0x04\n      dup1\n      calldatasize\n      sub\n      dup2\n      add\n      swap1\n      tag_69\n      swap2\n      swap1\n      tag_70\n      jump\t// in\n    tag_69:\n      tag_71\n      jump\t// in\n    tag_68:\n      mload(0x40)\n      tag_72\n      swap2\n      swap1\n      tag_33\n      jump\t// in\n    tag_72:\n      mload(0x40)\n      dup1\n      swap2\n      sub\n      swap1\n      return\n        /* \"contracts/core/JobBoardDelta_flattened.sol\":12233:12343  function getPaymentErc20() view external returns (address _paymentErc20) {... */\n    tag_11:\n      callvalue\n      dup1\n      iszero\n      tag_73\n      jumpi\n      0x00\n      dup1\n      revert\n    tag_73:\n      pop\n      tag_74\n      tag_75\n      jump\t// in\n    tag_74:\n      mload(0x40)\n      tag_76\n      swap2\n      swap1\n      tag_77\n      jump\t// in\n    tag_76:\n      mload(0x40)\n      dup1\n      swap2\n      sub\n      swap1\n      return\n        /* \"contracts/core/JobBoardDelta_flattened.sol\":11732:11854  function hasReward(uint256 _jobId) view external returns (bool _hasReward) {... */\n    tag_12:\n      callvalue\n      dup1\n      iszero\n      tag_78\n      jumpi\n      0x00\n      dup1\n      revert\n    tag_78:\n      pop\n      tag_79\n      0x04\n      dup1\n      calldatasize\n      sub\n      dup2\n      add\n      swap1\n      tag_80\n      swap2\n      swap1\n      tag_23\n      jump\t// in\n    tag_80:\n      tag_81\n      jump\t// in\n    tag_79:\n      mload(0x40)\n      tag_82\n      swap2\n      swap1\n      tag_60\n      jump\t// in\n    tag_82:\n      mload(0x40)\n      dup1\n      swap2\n      sub\n      swap1\n      return\n        /* \"contracts/core/JobBoardDelta_flattened.sol\":15062:15834  function postJob(string memory _cid, Duration _duration) payable external returns (Job memory _job){... */\n    tag_13:\n      tag_83\n      0x04\n      dup1\n      calldatasize\n      sub\n      dup2\n      add\n      swap1\n      tag_84\n      swap2\n      swap1\n      tag_85\n      jump\t// in\n    tag_84:\n      tag_86\n      jump\t// in\n    tag_83:\n      mload(0x40)\n      tag_87\n      swap2\n      swap1\n      tag_43\n      jump\t// in\n    tag_87:\n      mload(0x40)\n      dup1\n      swap2\n      sub\n      swap1\n      return\n        /* \"contracts/core/JobBoardDelta_flattened.sol\":11616:11726  function getJob(uint256 _jobId) view external returns (Job memory _job){... */\n    tag_14:\n      callvalue\n      dup1\n      iszero\n      tag_88\n      jumpi\n      0x00\n      dup1\n      revert\n    tag_88:\n      pop\n      tag_89\n      0x04\n      dup1\n      calldatasize\n      sub\n      dup2\n      add\n      swap1\n      tag_90\n      swap2\n      swap1\n      tag_23\n      jump\t// in\n    tag_90:\n      tag_91\n      jump\t// in\n    tag_89:\n      mload(0x40)\n      tag_92\n      swap2\n      swap1\n      tag_43\n      jump\t// in\n    tag_92:\n      mload(0x40)\n      dup1\n      swap2\n      sub\n      swap1\n      return\n        /* \"contracts/core/JobBoardDelta_flattened.sol\":12349:12478  function getJobReward(uint256 _jobId) view external returns (Reward memory _reward) {... */\n    tag_15:\n      callvalue\n      dup1\n      iszero\n      tag_93\n      jumpi\n      0x00\n      dup1\n      revert\n    tag_93:\n      pop\n      tag_94\n      0x04\n      dup1\n      calldatasize\n      sub\n      dup2\n      add\n      swap1\n      tag_95\n      swap2\n      swap1\n      tag_23\n      jump\t// in\n    tag_95:\n      tag_96\n      jump\t// in\n    tag_94:\n      mload(0x40)\n      tag_97\n      swap2\n      swap1\n      tag_66\n      jump\t// in\n    tag_97:\n      mload(0x40)\n      dup1\n      swap2\n      sub\n      swap1\n      return\n        /* \"contracts/core/JobBoardDelta_flattened.sol\":12484:12631  function getApplicant(uint256 _applicantId) view external returns (Applicant memory _applicant) {... */\n    tag_16:\n      callvalue\n      dup1\n      iszero\n      tag_98\n      jumpi\n      0x00\n      dup1\n      revert\n    tag_98:\n      pop\n      tag_99\n      0x04\n      dup1\n      calldatasize\n      sub\n      dup2\n      add\n      swap1\n      tag_100\n      swap2\n      swap1\n      tag_23\n      jump\t// in\n    tag_100:\n      tag_101\n      jump\t// in\n    tag_99:\n      mload(0x40)\n      tag_102\n      swap2\n      swap1\n      tag_103\n      jump\t// in\n    tag_102:\n      mload(0x40)\n      dup1\n      swap2\n      sub\n      swap1\n      return\n        /* \"contracts/core/JobBoardDelta_flattened.sol\":13527:13669  function getApplicantIds(uint256 _jobId) view external returns (uint256 [] memory _jobIds) {... */\n    tag_24:\n        /* \"contracts/core/JobBoardDelta_flattened.sol\":13591:13616  uint256 [] memory _jobIds */\n      0x60\n        /* \"contracts/core/JobBoardDelta_flattened.sol\":13635:13654  applicantIdsByJobId */\n      0x08\n        /* \"contracts/core/JobBoardDelta_flattened.sol\":13635:13662  applicantIdsByJobId[_jobId] */\n      0x00\n        /* \"contracts/core/JobBoardDelta_flattened.sol\":13655:13661  _jobId */\n      dup4\n        /* \"contracts/core/JobBoardDelta_flattened.sol\":13635:13662  applicantIdsByJobId[_jobId] */\n      dup2\n      mstore\n      0x20\n      add\n      swap1\n      dup2\n      mstore\n      0x20\n      add\n      0x00\n      keccak256\n        /* \"contracts/core/JobBoardDelta_flattened.sol\":13628:13662  return applicantIdsByJobId[_jobId] */\n      dup1\n      sload\n      dup1\n      0x20\n      mul\n      0x20\n      add\n      mload(0x40)\n      swap1\n      dup2\n      add\n      0x40\n      mstore\n      dup1\n      swap3\n      swap2\n      swap1\n      dup2\n      dup2\n      mstore\n      0x20\n      add\n      dup3\n      dup1\n      sload\n      dup1\n      iszero\n      tag_105\n      jumpi\n      0x20\n      mul\n      dup3\n      add\n      swap2\n      swap1\n      0x00\n      mstore\n      keccak256(0x00, 0x20)\n      swap1\n    tag_106:\n      dup2\n      sload\n      dup2\n      mstore\n      0x20\n      add\n      swap1\n      0x01\n      add\n      swap1\n      dup1\n      dup4\n      gt\n      tag_106\n      jumpi\n    tag_105:\n      pop\n      pop\n      pop\n      pop\n      pop\n      swap1\n      pop\n        /* \"contracts/core/JobBoardDelta_flattened.sol\":13527:13669  function getApplicantIds(uint256 _jobId) view external returns (uint256 [] memory _jobIds) {... */\n      swap2\n      swap1\n      pop\n      jump\t// out\n        /* \"contracts/core/JobBoardDelta_flattened.sol\":12099:12227  function getPrice(Duration _duration)  view external returns (uint256 _price) {... */\n    tag_31:\n        /* \"contracts/core/JobBoardDelta_flattened.sol\":12161:12175  uint256 _price */\n      0x00\n        /* \"contracts/core/JobBoardDelta_flattened.sol\":12194:12209  priceByDuration */\n      0x07\n        /* \"contracts/core/JobBoardDelta_flattened.sol\":12194:12220  priceByDuration[_duration] */\n      0x00\n        /* \"contracts/core/JobBoardDelta_flattened.sol\":12210:12219  _duration */\n      dup4\n        /* \"contracts/core/JobBoardDelta_flattened.sol\":12194:12220  priceByDuration[_duration] */\n      0x02\n      dup2\n      gt\n      iszero\n      tag_108\n      jumpi\n      tag_109\n      tag_110\n      jump\t// in\n    tag_109:\n    tag_108:\n      0x02\n      dup2\n      gt\n      iszero\n      tag_111\n      jumpi\n      tag_112\n      tag_110\n      jump\t// in\n    tag_112:\n    tag_111:\n      dup2\n      mstore\n      0x20\n      add\n      swap1\n      dup2\n      mstore\n      0x20\n      add\n      0x00\n      keccak256\n      sload\n        /* \"contracts/core/JobBoardDelta_flattened.sol\":12187:12220  return priceByDuration[_duration] */\n      swap1\n      pop\n        /* \"contracts/core/JobBoardDelta_flattened.sol\":12099:12227  function getPrice(Duration _duration)  view external returns (uint256 _price) {... */\n      swap2\n      swap1\n      pop\n      jump\t// out\n        /* \"contracts/core/JobBoardDelta_flattened.sol\":16660:16784  function getOwnerJobIds() view external returns (uint256 [] memory _jobIds) {... */\n    tag_36:\n        /* \"contracts/core/JobBoardDelta_flattened.sol\":16709:16734  uint256 [] memory _jobIds */\n      0x60\n        /* \"contracts/core/JobBoardDelta_flattened.sol\":16753:16765  jobIdByOwner */\n      0x04\n        /* \"contracts/core/JobBoardDelta_flattened.sol\":16753:16777  jobIdByOwner[msg.sender] */\n      0x00\n        /* \"contracts/core/JobBoardDelta_flattened.sol\":16766:16776  msg.sender */\n      caller\n        /* \"contracts/core/JobBoardDelta_flattened.sol\":16753:16777  jobIdByOwner[msg.sender] */\n      0xffffffffffffffffffffffffffffffffffffffff\n      and\n      0xffffffffffffffffffffffffffffffffffffffff\n      and\n      dup2\n      mstore\n      0x20\n      add\n      swap1\n      dup2\n      mstore\n      0x20\n      add\n      0x00\n      keccak256\n        /* \"contracts/core/JobBoardDelta_flattened.sol\":16746:16777  return jobIdByOwner[msg.sender] */\n      dup1\n      sload\n      dup1\n      0x20\n      mul\n      0x20\n      add\n      mload(0x40)\n      swap1\n      dup2\n      add\n      0x40\n      mstore\n      dup1\n      swap3\n      swap2\n      swap1\n      dup2\n      dup2\n      mstore\n      0x20\n      add\n      dup3\n      dup1\n      sload\n      dup1\n      iszero\n      tag_114\n      jumpi\n      0x20\n      mul\n      dup3\n      add\n      swap2\n      swap1\n      0x00\n      mstore\n      keccak256(0x00, 0x20)\n      swap1\n    tag_115:\n      dup2\n      sload\n      dup2\n      mstore\n      0x20\n      add\n      swap1\n      0x01\n      add\n      swap1\n      dup1\n      dup4\n      gt\n      tag_115\n      jumpi\n    tag_114:\n      pop\n      pop\n      pop\n      pop\n      pop\n      swap1\n      pop\n        /* \"contracts/core/JobBoardDelta_flattened.sol\":16660:16784  function getOwnerJobIds() view external returns (uint256 [] memory _jobIds) {... */\n      swap1\n      jump\t// out\n        /* \"contracts/core/JobBoardDelta_flattened.sol\":11860:12093  function makeJobUnavailable(uint256 _jobId) external returns (Job memory _job){... */\n    tag_41:\n        /* \"contracts/core/JobBoardDelta_flattened.sol\":11922:11937  Job memory _job */\n      tag_116\n      tag_117\n      jump\t// in\n    tag_116:\n        /* \"contracts/core/JobBoardDelta_flattened.sol\":11981:11991  msg.sender */\n      caller\n        /* \"contracts/core/JobBoardDelta_flattened.sol\":11956:11991  jobById[_jobId].owner == msg.sender */\n      0xffffffffffffffffffffffffffffffffffffffff\n      and\n        /* \"contracts/core/JobBoardDelta_flattened.sol\":11956:11963  jobById */\n      0x03\n        /* \"contracts/core/JobBoardDelta_flattened.sol\":11956:11971  jobById[_jobId] */\n      0x00\n        /* \"contracts/core/JobBoardDelta_flattened.sol\":11964:11970  _jobId */\n      dup5\n        /* \"contracts/core/JobBoardDelta_flattened.sol\":11956:11971  jobById[_jobId] */\n      dup2\n      mstore\n      0x20\n      add\n      swap1\n      dup2\n      mstore\n      0x20\n      add\n      0x00\n      keccak256\n        /* \"contracts/core/JobBoardDelta_flattened.sol\":11956:11977  jobById[_jobId].owner */\n      0x04\n      add\n      0x01\n      swap1\n      sload\n      swap1\n      0x0100\n      exp\n      swap1\n      div\n      0xffffffffffffffffffffffffffffffffffffffff\n      and\n        /* \"contracts/core/JobBoardDelta_flattened.sol\":11956:11991  jobById[_jobId].owner == msg.sender */\n      0xffffffffffffffffffffffffffffffffffffffff\n      and\n      eq\n        /* \"contracts/core/JobBoardDelta_flattened.sol\":11948:12010  require(jobById[_jobId].owner == msg.sender, \"job owner only\") */\n      tag_119\n      jumpi\n      mload(0x40)\n      0x08c379a000000000000000000000000000000000000000000000000000000000\n      dup2\n      mstore\n      0x04\n      add\n      tag_120\n      swap1\n      tag_121\n      jump\t// in\n    tag_120:\n      mload(0x40)\n      dup1\n      swap2\n      sub\n      swap1\n      revert\n    tag_119:\n        /* \"contracts/core/JobBoardDelta_flattened.sol\":12048:12053  false */\n      0x00\n        /* \"contracts/core/JobBoardDelta_flattened.sol\":12020:12027  jobById */\n      0x03\n        /* \"contracts/core/JobBoardDelta_flattened.sol\":12020:12035  jobById[_jobId] */\n      0x00\n        /* \"contracts/core/JobBoardDelta_flattened.sol\":12028:12034  _jobId */\n      dup5\n        /* \"contracts/core/JobBoardDelta_flattened.sol\":12020:12035  jobById[_jobId] */\n      dup2\n      mstore\n      0x20\n      add\n      swap1\n      dup2\n      mstore\n      0x20\n      add\n      0x00\n      keccak256\n        /* \"contracts/core/JobBoardDelta_flattened.sol\":12020:12045  jobById[_jobId].available */\n      0x04\n      add\n      0x00\n        /* \"contracts/core/JobBoardDelta_flattened.sol\":12020:12053  jobById[_jobId].available = false */\n      0x0100\n      exp\n      dup2\n      sload\n      dup2\n      0xff\n      mul\n      not\n      and\n      swap1\n      dup4\n      iszero\n      iszero\n      mul\n      or\n      swap1\n      sstore\n      pop\n        /* \"contracts/core/JobBoardDelta_flattened.sol\":12071:12078  jobById */\n      0x03\n        /* \"contracts/core/JobBoardDelta_flattened.sol\":12071:12086  jobById[_jobId] */\n      0x00\n        /* \"contracts/core/JobBoardDelta_flattened.sol\":12079:12085  _jobId */\n      dup4\n        /* \"contracts/core/JobBoardDelta_flattened.sol\":12071:12086  jobById[_jobId] */\n      dup2\n      mstore\n      0x20\n      add\n      swap1\n      dup2\n      mstore\n      0x20\n      add\n      0x00\n      keccak256\n        /* \"contracts/core/JobBoardDelta_flattened.sol\":12064:12086  return jobById[_jobId] */\n      mload(0x40)\n      dup1\n      0xc0\n      add\n      0x40\n      mstore\n      swap1\n      dup2\n      0x00\n      dup3\n      add\n      sload\n      dup2\n      mstore\n      0x20\n      add\n      0x01\n      dup3\n      add\n      dup1\n      sload\n      tag_122\n      swap1\n      tag_123\n      jump\t// in\n    tag_122:\n      dup1\n      0x1f\n      add\n      0x20\n      dup1\n      swap2\n      div\n      mul\n      0x20\n      add\n      mload(0x40)\n      swap1\n      dup2\n      add\n      0x40\n      mstore\n      dup1\n      swap3\n      swap2\n      swap1\n      dup2\n      dup2\n      mstore\n      0x20\n      add\n      dup3\n      dup1\n      sload\n      tag_124\n      swap1\n      tag_123\n      jump\t// in\n    tag_124:\n      dup1\n      iszero\n      tag_125\n      jumpi\n      dup1\n      0x1f\n      lt\n      tag_126\n      jumpi\n      0x0100\n      dup1\n      dup4\n      sload\n      div\n      mul\n      dup4\n      mstore\n      swap2\n      0x20\n      add\n      swap2\n      jump(tag_125)\n    tag_126:\n      dup3\n      add\n      swap2\n      swap1\n      0x00\n      mstore\n      keccak256(0x00, 0x20)\n      swap1\n    tag_127:\n      dup2\n      sload\n      dup2\n      mstore\n      swap1\n      0x01\n      add\n      swap1\n      0x20\n      add\n      dup1\n      dup4\n      gt\n      tag_127\n      jumpi\n      dup3\n      swap1\n      sub\n      0x1f\n      and\n      dup3\n      add\n      swap2\n    tag_125:\n      pop\n      pop\n      pop\n      pop\n      pop\n      dup2\n      mstore\n      0x20\n      add\n      0x02\n      dup3\n      add\n      sload\n      dup2\n      mstore\n      0x20\n      add\n      0x03\n      dup3\n      add\n      sload\n      dup2\n      mstore\n      0x20\n      add\n      0x04\n      dup3\n      add\n      0x00\n      swap1\n      sload\n      swap1\n      0x0100\n      exp\n      swap1\n      div\n      0xff\n      and\n      iszero\n      iszero\n      iszero\n      iszero\n      dup2\n      mstore\n      0x20\n      add\n      0x04\n      dup3\n      add\n      0x01\n      swap1\n      sload\n      swap1\n      0x0100\n      exp\n      swap1\n      div\n      0xffffffffffffffffffffffffffffffffffffffff\n      and\n      0xffffffffffffffffffffffffffffffffffffffff\n      and\n      0xffffffffffffffffffffffffffffffffffffffff\n      and\n      dup2\n      mstore\n      pop\n      pop\n      swap1\n      pop\n        /* \"contracts/core/JobBoardDelta_flattened.sol\":11860:12093  function makeJobUnavailable(uint256 _jobId) external returns (Job memory _job){... */\n      swap2\n      swap1\n      pop\n      jump\t// out\n        /* \"contracts/core/JobBoardDelta_flattened.sol\":11513:11610  function getJobIds() view external returns (uint256 [] memory _ids){... */\n    tag_46:\n        /* \"contracts/core/JobBoardDelta_flattened.sol\":11557:11579  uint256 [] memory _ids */\n      0x60\n        /* \"contracts/core/JobBoardDelta_flattened.sol\":11597:11603  jobIds */\n      0x02\n        /* \"contracts/core/JobBoardDelta_flattened.sol\":11590:11603  return jobIds */\n      dup1\n      sload\n      dup1\n      0x20\n      mul\n      0x20\n      add\n      mload(0x40)\n      swap1\n      dup2\n      add\n      0x40\n      mstore\n      dup1\n      swap3\n      swap2\n      swap1\n      dup2\n      dup2\n      mstore\n      0x20\n      add\n      dup3\n      dup1\n      sload\n      dup1\n      iszero\n      tag_129\n      jumpi\n      0x20\n      mul\n      dup3\n      add\n      swap2\n      swap1\n      0x00\n      mstore\n      keccak256(0x00, 0x20)\n      swap1\n    tag_130:\n      dup2\n      sload\n      dup2\n      mstore\n      0x20\n      add\n      swap1\n      0x01\n      add\n      swap1\n      dup1\n      dup4\n      gt\n      tag_130\n      jumpi\n    tag_129:\n      pop\n      pop\n      pop\n      pop\n      pop\n      swap1\n      pop\n        /* \"contracts/core/JobBoardDelta_flattened.sol\":11513:11610  function getJobIds() view external returns (uint256 [] memory _ids){... */\n      swap1\n      jump\t// out\n        /* \"contracts/core/JobBoardDelta_flattened.sol\":12637:13521  function applyForJob(uint256 _jobId, string memory _resumeCid, uint256 _rewardChainId, address _rewardAddress, bool _isReferral) external returns (uint256 _applicantCount) {... */\n    tag_52:\n        /* \"contracts/core/JobBoardDelta_flattened.sol\":12784:12807  uint256 _applicantCount */\n      0x00\n        /* \"contracts/core/JobBoardDelta_flattened.sol\":12856:12860  true */\n      0x01\n        /* \"contracts/core/JobBoardDelta_flattened.sol\":12827:12860  jobById[_jobId].available == true */\n      iszero\n      iszero\n        /* \"contracts/core/JobBoardDelta_flattened.sol\":12827:12834  jobById */\n      0x03\n        /* \"contracts/core/JobBoardDelta_flattened.sol\":12827:12842  jobById[_jobId] */\n      0x00\n        /* \"contracts/core/JobBoardDelta_flattened.sol\":12835:12841  _jobId */\n      dup9\n        /* \"contracts/core/JobBoardDelta_flattened.sol\":12827:12842  jobById[_jobId] */\n      dup2\n      mstore\n      0x20\n      add\n      swap1\n      dup2\n      mstore\n      0x20\n      add\n      0x00\n      keccak256\n        /* \"contracts/core/JobBoardDelta_flattened.sol\":12827:12852  jobById[_jobId].available */\n      0x04\n      add\n      0x00\n      swap1\n      sload\n      swap1\n      0x0100\n      exp\n      swap1\n      div\n      0xff\n      and\n        /* \"contracts/core/JobBoardDelta_flattened.sol\":12827:12860  jobById[_jobId].available == true */\n      iszero\n      iszero\n      eq\n        /* \"contracts/core/JobBoardDelta_flattened.sol\":12819:12880  require(jobById[_jobId].available == true, \"job unavailable\") */\n      tag_132\n      jumpi\n      mload(0x40)\n      0x08c379a000000000000000000000000000000000000000000000000000000000\n      dup2\n      mstore\n      0x04\n      add\n      tag_133\n      swap1\n      tag_134\n      jump\t// in\n    tag_133:\n      mload(0x40)\n      dup1\n      swap2\n      sub\n      swap1\n      revert\n    tag_132:\n        /* \"contracts/core/JobBoardDelta_flattened.sol\":12890:12910  uint256 applicantId_ */\n      0x00\n        /* \"contracts/core/JobBoardDelta_flattened.sol\":12913:12920  getId() */\n      tag_135\n        /* \"contracts/core/JobBoardDelta_flattened.sol\":12913:12918  getId */\n      tag_136\n        /* \"contracts/core/JobBoardDelta_flattened.sol\":12913:12920  getId() */\n      jump\t// in\n    tag_135:\n        /* \"contracts/core/JobBoardDelta_flattened.sol\":12890:12920  uint256 applicantId_ = getId() */\n      swap1\n      pop\n        /* \"contracts/core/JobBoardDelta_flattened.sol\":12960:13406  Applicant({... */\n      mload(0x40)\n      dup1\n      0xa0\n      add\n      0x40\n      mstore\n      dup1\n        /* \"contracts/core/JobBoardDelta_flattened.sol\":13029:13041  applicantId_ */\n      dup3\n        /* \"contracts/core/JobBoardDelta_flattened.sol\":12960:13406  Applicant({... */\n      dup2\n      mstore\n      0x20\n      add\n        /* \"contracts/core/JobBoardDelta_flattened.sol\":13107:13117  _resumeCid */\n      dup8\n        /* \"contracts/core/JobBoardDelta_flattened.sol\":12960:13406  Applicant({... */\n      dup2\n      mstore\n      0x20\n      add\n        /* \"contracts/core/JobBoardDelta_flattened.sol\":13181:13195  _rewardChainId */\n      dup7\n        /* \"contracts/core/JobBoardDelta_flattened.sol\":12960:13406  Applicant({... */\n      dup2\n      mstore\n      0x20\n      add\n        /* \"contracts/core/JobBoardDelta_flattened.sol\":13265:13279  _rewardAddress */\n      dup6\n        /* \"contracts/core/JobBoardDelta_flattened.sol\":12960:13406  Applicant({... */\n      0xffffffffffffffffffffffffffffffffffffffff\n      and\n      dup2\n      mstore\n      0x20\n      add\n        /* \"contracts/core/JobBoardDelta_flattened.sol\":13344:13355  _isReferral */\n      dup5\n        /* \"contracts/core/JobBoardDelta_flattened.sol\":12960:13406  Applicant({... */\n      iszero\n      iszero\n      dup2\n      mstore\n      pop\n        /* \"contracts/core/JobBoardDelta_flattened.sol\":12930:12943  applicantById */\n      0x09\n        /* \"contracts/core/JobBoardDelta_flattened.sol\":12930:12957  applicantById[applicantId_] */\n      0x00\n        /* \"contracts/core/JobBoardDelta_flattened.sol\":12944:12956  applicantId_ */\n      dup4\n        /* \"contracts/core/JobBoardDelta_flattened.sol\":12930:12957  applicantById[applicantId_] */\n      dup2\n      mstore\n      0x20\n      add\n      swap1\n      dup2\n      mstore\n      0x20\n      add\n      0x00\n      keccak256\n        /* \"contracts/core/JobBoardDelta_flattened.sol\":12930:13406  applicantById[applicantId_] = Applicant({... */\n      0x00\n      dup3\n      add\n      mload\n      dup2\n      0x00\n      add\n      sstore\n      0x20\n      dup3\n      add\n      mload\n      dup2\n      0x01\n      add\n      swap1\n      dup2\n      tag_137\n      swap2\n      swap1\n      tag_138\n      jump\t// in\n    tag_137:\n      pop\n      0x40\n      dup3\n      add\n      mload\n      dup2\n      0x02\n      add\n      sstore\n      0x60\n      dup3\n      add\n      mload\n      dup2\n      0x03\n      add\n      exp(0x0100, 0x00)\n      dup2\n      sload\n      dup2\n      0xffffffffffffffffffffffffffffffffffffffff\n      mul\n      not\n      and\n      swap1\n      dup4\n      0xffffffffffffffffffffffffffffffffffffffff\n      and\n      mul\n      or\n      swap1\n      sstore\n      pop\n      0x80\n      dup3\n      add\n      mload\n      dup2\n      0x03\n      add\n      exp(0x0100, 0x14)\n      dup2\n      sload\n      dup2\n      0xff\n      mul\n      not\n      and\n      swap1\n      dup4\n      iszero\n      iszero\n      mul\n      or\n      swap1\n      sstore\n      pop\n      swap1\n      pop\n      pop\n        /* \"contracts/core/JobBoardDelta_flattened.sol\":13416:13435  applicantIdsByJobId */\n      0x08\n        /* \"contracts/core/JobBoardDelta_flattened.sol\":13416:13443  applicantIdsByJobId[_jobId] */\n      0x00\n        /* \"contracts/core/JobBoardDelta_flattened.sol\":13436:13442  _jobId */\n      dup9\n        /* \"contracts/core/JobBoardDelta_flattened.sol\":13416:13443  applicantIdsByJobId[_jobId] */\n      dup2\n      mstore\n      0x20\n      add\n      swap1\n      dup2\n      mstore\n      0x20\n      add\n      0x00\n      keccak256\n        /* \"contracts/core/JobBoardDelta_flattened.sol\":13449:13461  applicantId_ */\n      dup2\n        /* \"contracts/core/JobBoardDelta_flattened.sol\":13416:13462  applicantIdsByJobId[_jobId].push(applicantId_) */\n      swap1\n      dup1\n      0x01\n      dup2\n      sload\n      add\n      dup1\n      dup3\n      sstore\n      dup1\n      swap2\n      pop\n      pop\n      0x01\n      swap1\n      sub\n      swap1\n      0x00\n      mstore\n      keccak256(0x00, 0x20)\n      add\n      0x00\n      swap1\n      swap2\n      swap1\n      swap2\n      swap1\n      swap2\n      pop\n      sstore\n        /* \"contracts/core/JobBoardDelta_flattened.sol\":13479:13498  applicantIdsByJobId */\n      0x08\n        /* \"contracts/core/JobBoardDelta_flattened.sol\":13479:13506  applicantIdsByJobId[_jobId] */\n      0x00\n        /* \"contracts/core/JobBoardDelta_flattened.sol\":13499:13505  _jobId */\n      dup9\n        /* \"contracts/core/JobBoardDelta_flattened.sol\":13479:13506  applicantIdsByJobId[_jobId] */\n      dup2\n      mstore\n      0x20\n      add\n      swap1\n      dup2\n      mstore\n      0x20\n      add\n      0x00\n      keccak256\n        /* \"contracts/core/JobBoardDelta_flattened.sol\":13479:13513  applicantIdsByJobId[_jobId].length */\n      dup1\n      sload\n      swap1\n      pop\n        /* \"contracts/core/JobBoardDelta_flattened.sol\":13472:13513  return applicantIdsByJobId[_jobId].length */\n      swap2\n      pop\n      pop\n        /* \"contracts/core/JobBoardDelta_flattened.sol\":12637:13521  function applyForJob(uint256 _jobId, string memory _resumeCid, uint256 _rewardChainId, address _rewardAddress, bool _isReferral) external returns (uint256 _applicantCount) {... */\n      swap6\n      swap5\n      pop\n      pop\n      pop\n      pop\n      pop\n      jump\t// out\n        /* \"contracts/core/JobBoardDelta_flattened.sol\":16790:16958  function setPrice(Duration _duration, uint256 _price) external onlyAdmin returns (bool _set) {... */\n    tag_58:\n        /* \"contracts/core/JobBoardDelta_flattened.sol\":16872:16881  bool _set */\n      0x00\n        /* \"contracts/core/JobBoardDelta_flattened.sol\":10622:10627  admin */\n      0x01\n      0x00\n      swap1\n      sload\n      swap1\n      0x0100\n      exp\n      swap1\n      div\n      0xffffffffffffffffffffffffffffffffffffffff\n      and\n        /* \"contracts/core/JobBoardDelta_flattened.sol\":10608:10627  msg.sender == admin */\n      0xffffffffffffffffffffffffffffffffffffffff\n      and\n        /* \"contracts/core/JobBoardDelta_flattened.sol\":10608:10618  msg.sender */\n      caller\n        /* \"contracts/core/JobBoardDelta_flattened.sol\":10608:10627  msg.sender == admin */\n      0xffffffffffffffffffffffffffffffffffffffff\n      and\n      eq\n        /* \"contracts/core/JobBoardDelta_flattened.sol\":10600:10642  require(msg.sender == admin, \"admin only\") */\n      tag_141\n      jumpi\n      mload(0x40)\n      0x08c379a000000000000000000000000000000000000000000000000000000000\n      dup2\n      mstore\n      0x04\n      add\n      tag_142\n      swap1\n      tag_143\n      jump\t// in\n    tag_142:\n      mload(0x40)\n      dup1\n      swap2\n      sub\n      swap1\n      revert\n    tag_141:\n        /* \"contracts/core/JobBoardDelta_flattened.sol\":16922:16928  _price */\n      dup2\n        /* \"contracts/core/JobBoardDelta_flattened.sol\":16893:16908  priceByDuration */\n      0x07\n        /* \"contracts/core/JobBoardDelta_flattened.sol\":16893:16919  priceByDuration[_duration] */\n      0x00\n        /* \"contracts/core/JobBoardDelta_flattened.sol\":16909:16918  _duration */\n      dup6\n        /* \"contracts/core/JobBoardDelta_flattened.sol\":16893:16919  priceByDuration[_duration] */\n      0x02\n      dup2\n      gt\n      iszero\n      tag_145\n      jumpi\n      tag_146\n      tag_110\n      jump\t// in\n    tag_146:\n    tag_145:\n      0x02\n      dup2\n      gt\n      iszero\n      tag_147\n      jumpi\n      tag_148\n      tag_110\n      jump\t// in\n    tag_148:\n    tag_147:\n      dup2\n      mstore\n      0x20\n      add\n      swap1\n      dup2\n      mstore\n      0x20\n      add\n      0x00\n      keccak256\n        /* \"contracts/core/JobBoardDelta_flattened.sol\":16893:16928  priceByDuration[_duration] = _price */\n      dup2\n      swap1\n      sstore\n      pop\n        /* \"contracts/core/JobBoardDelta_flattened.sol\":16946:16950  true */\n      0x01\n        /* \"contracts/core/JobBoardDelta_flattened.sol\":16939:16950  return true */\n      swap1\n      pop\n        /* \"contracts/core/JobBoardDelta_flattened.sol\":16790:16958  function setPrice(Duration _duration, uint256 _price) external onlyAdmin returns (bool _set) {... */\n      swap3\n      swap2\n      pop\n      pop\n      jump\t// out\n        /* \"contracts/core/JobBoardDelta_flattened.sol\":15840:16654  function addReward(uint256 _jobId, address _erc20, uint256 _rewardAmount, uint256 _amountPerApplicant) payable external returns (Reward memory _reward) {... */\n    tag_64:\n        /* \"contracts/core/JobBoardDelta_flattened.sol\":15969:15990  Reward memory _reward */\n      tag_149\n      tag_150\n      jump\t// in\n    tag_149:\n        /* \"contracts/core/JobBoardDelta_flattened.sol\":16035:16045  msg.sender */\n      caller\n        /* \"contracts/core/JobBoardDelta_flattened.sol\":16010:16045  jobById[_jobId].owner == msg.sender */\n      0xffffffffffffffffffffffffffffffffffffffff\n      and\n        /* \"contracts/core/JobBoardDelta_flattened.sol\":16010:16017  jobById */\n      0x03\n        /* \"contracts/core/JobBoardDelta_flattened.sol\":16010:16025  jobById[_jobId] */\n      0x00\n        /* \"contracts/core/JobBoardDelta_flattened.sol\":16018:16024  _jobId */\n      dup8\n        /* \"contracts/core/JobBoardDelta_flattened.sol\":16010:16025  jobById[_jobId] */\n      dup2\n      mstore\n      0x20\n      add\n      swap1\n      dup2\n      mstore\n      0x20\n      add\n      0x00\n      keccak256\n        /* \"contracts/core/JobBoardDelta_flattened.sol\":16010:16031  jobById[_jobId].owner */\n      0x04\n      add\n      0x01\n      swap1\n      sload\n      swap1\n      0x0100\n      exp\n      swap1\n      div\n      0xffffffffffffffffffffffffffffffffffffffff\n      and\n        /* \"contracts/core/JobBoardDelta_flattened.sol\":16010:16045  jobById[_jobId].owner == msg.sender */\n      0xffffffffffffffffffffffffffffffffffffffff\n      and\n      eq\n        /* \"contracts/core/JobBoardDelta_flattened.sol\":16002:16064  require(jobById[_jobId].owner == msg.sender, \"job owner only\") */\n      tag_152\n      jumpi\n      mload(0x40)\n      0x08c379a000000000000000000000000000000000000000000000000000000000\n      dup2\n      mstore\n      0x04\n      add\n      tag_153\n      swap1\n      tag_121\n      jump\t// in\n    tag_153:\n      mload(0x40)\n      dup1\n      swap2\n      sub\n      swap1\n      revert\n    tag_152:\n        /* \"contracts/core/JobBoardDelta_flattened.sol\":16111:16115  true */\n      0x01\n        /* \"contracts/core/JobBoardDelta_flattened.sol\":16082:16115  jobById[_jobId].available == true */\n      iszero\n      iszero\n        /* \"contracts/core/JobBoardDelta_flattened.sol\":16082:16089  jobById */\n      0x03\n        /* \"contracts/core/JobBoardDelta_flattened.sol\":16082:16097  jobById[_jobId] */\n      0x00\n        /* \"contracts/core/JobBoardDelta_flattened.sol\":16090:16096  _jobId */\n      dup8\n        /* \"contracts/core/JobBoardDelta_flattened.sol\":16082:16097  jobById[_jobId] */\n      dup2\n      mstore\n      0x20\n      add\n      swap1\n      dup2\n      mstore\n      0x20\n      add\n      0x00\n      keccak256\n        /* \"contracts/core/JobBoardDelta_flattened.sol\":16082:16107  jobById[_jobId].available */\n      0x04\n      add\n      0x00\n      swap1\n      sload\n      swap1\n      0x0100\n      exp\n      swap1\n      div\n      0xff\n      and\n        /* \"contracts/core/JobBoardDelta_flattened.sol\":16082:16115  jobById[_jobId].available == true */\n      iszero\n      iszero\n      eq\n        /* \"contracts/core/JobBoardDelta_flattened.sol\":16074:16135  require(jobById[_jobId].available == true, \"job unavailable\") */\n      tag_154\n      jumpi\n      mload(0x40)\n      0x08c379a000000000000000000000000000000000000000000000000000000000\n      dup2\n      mstore\n      0x04\n      add\n      tag_155\n      swap1\n      tag_134\n      jump\t// in\n    tag_155:\n      mload(0x40)\n      dup1\n      swap2\n      sub\n      swap1\n      revert\n    tag_154:\n        /* \"contracts/core/JobBoardDelta_flattened.sol\":16154:16187  transferIn(_erc20, _rewardAmount) */\n      tag_156\n        /* \"contracts/core/JobBoardDelta_flattened.sol\":16165:16171  _erc20 */\n      dup5\n        /* \"contracts/core/JobBoardDelta_flattened.sol\":16173:16186  _rewardAmount */\n      dup5\n        /* \"contracts/core/JobBoardDelta_flattened.sol\":16154:16164  transferIn */\n      tag_157\n        /* \"contracts/core/JobBoardDelta_flattened.sol\":16154:16187  transferIn(_erc20, _rewardAmount) */\n      jump\t// in\n    tag_156:\n        /* \"contracts/core/JobBoardDelta_flattened.sol\":16146:16214  require(transferIn(_erc20, _rewardAmount), \"reward transfer failed\") */\n      tag_158\n      jumpi\n      mload(0x40)\n      0x08c379a000000000000000000000000000000000000000000000000000000000\n      dup2\n      mstore\n      0x04\n      add\n      tag_159\n      swap1\n      tag_160\n      jump\t// in\n    tag_159:\n      mload(0x40)\n      dup1\n      swap2\n      sub\n      swap1\n      revert\n    tag_158:\n        /* \"contracts/core/JobBoardDelta_flattened.sol\":16252:16256  true */\n      0x01\n        /* \"contracts/core/JobBoardDelta_flattened.sol\":16225:16241  hasRewardByJobId */\n      0x05\n        /* \"contracts/core/JobBoardDelta_flattened.sol\":16225:16249  hasRewardByJobId[_jobId] */\n      0x00\n        /* \"contracts/core/JobBoardDelta_flattened.sol\":16242:16248  _jobId */\n      dup8\n        /* \"contracts/core/JobBoardDelta_flattened.sol\":16225:16249  hasRewardByJobId[_jobId] */\n      dup2\n      mstore\n      0x20\n      add\n      swap1\n      dup2\n      mstore\n      0x20\n      add\n      0x00\n      keccak256\n      0x00\n        /* \"contracts/core/JobBoardDelta_flattened.sol\":16225:16256  hasRewardByJobId[_jobId] = true */\n      0x0100\n      exp\n      dup2\n      sload\n      dup2\n      0xff\n      mul\n      not\n      and\n      swap1\n      dup4\n      iszero\n      iszero\n      mul\n      or\n      swap1\n      sstore\n      pop\n        /* \"contracts/core/JobBoardDelta_flattened.sol\":16291:16609  Reward({... */\n      mload(0x40)\n      dup1\n      0x80\n      add\n      0x40\n      mstore\n      dup1\n        /* \"contracts/core/JobBoardDelta_flattened.sol\":16350:16356  _erc20 */\n      dup6\n        /* \"contracts/core/JobBoardDelta_flattened.sol\":16291:16609  Reward({... */\n      0xffffffffffffffffffffffffffffffffffffffff\n      and\n      dup2\n      mstore\n      0x20\n      add\n        /* \"contracts/core/JobBoardDelta_flattened.sol\":16413:16426  _rewardAmount */\n      dup5\n        /* \"contracts/core/JobBoardDelta_flattened.sol\":16291:16609  Reward({... */\n      dup2\n      mstore\n      0x20\n      add\n        /* \"contracts/core/JobBoardDelta_flattened.sol\":16489:16508  _amountPerApplicant */\n      dup4\n        /* \"contracts/core/JobBoardDelta_flattened.sol\":16291:16609  Reward({... */\n      dup2\n      mstore\n      0x20\n      add\n        /* \"contracts/core/JobBoardDelta_flattened.sol\":16565:16566  0 */\n      0x00\n        /* \"contracts/core/JobBoardDelta_flattened.sol\":16291:16609  Reward({... */\n      dup2\n      mstore\n      pop\n        /* \"contracts/core/JobBoardDelta_flattened.sol\":16267:16280  rewardByJobId */\n      0x06\n        /* \"contracts/core/JobBoardDelta_flattened.sol\":16267:16288  rewardByJobId[_jobId] */\n      0x00\n        /* \"contracts/core/JobBoardDelta_flattened.sol\":16281:16287  _jobId */\n      dup8\n        /* \"contracts/core/JobBoardDelta_flattened.sol\":16267:16288  rewardByJobId[_jobId] */\n      dup2\n      mstore\n      0x20\n      add\n      swap1\n      dup2\n      mstore\n      0x20\n      add\n      0x00\n      keccak256\n        /* \"contracts/core/JobBoardDelta_flattened.sol\":16267:16609  rewardByJobId[_jobId] = Reward({... */\n      0x00\n      dup3\n      add\n      mload\n      dup2\n      0x00\n      add\n      exp(0x0100, 0x00)\n      dup2\n      sload\n      dup2\n      0xffffffffffffffffffffffffffffffffffffffff\n      mul\n      not\n      and\n      swap1\n      dup4\n      0xffffffffffffffffffffffffffffffffffffffff\n      and\n      mul\n      or\n      swap1\n      sstore\n      pop\n      0x20\n      dup3\n      add\n      mload\n      dup2\n      0x01\n      add\n      sstore\n      0x40\n      dup3\n      add\n      mload\n      dup2\n      0x02\n      add\n      sstore\n      0x60\n      dup3\n      add\n      mload\n      dup2\n      0x03\n      add\n      sstore\n      swap1\n      pop\n      pop\n        /* \"contracts/core/JobBoardDelta_flattened.sol\":16626:16639  rewardByJobId */\n      0x06\n        /* \"contracts/core/JobBoardDelta_flattened.sol\":16626:16647  rewardByJobId[_jobId] */\n      0x00\n        /* \"contracts/core/JobBoardDelta_flattened.sol\":16640:16646  _jobId */\n      dup7\n        /* \"contracts/core/JobBoardDelta_flattened.sol\":16626:16647  rewardByJobId[_jobId] */\n      dup2\n      mstore\n      0x20\n      add\n      swap1\n      dup2\n      mstore\n      0x20\n      add\n      0x00\n      keccak256\n        /* \"contracts/core/JobBoardDelta_flattened.sol\":16619:16647  return rewardByJobId[_jobId] */\n      mload(0x40)\n      dup1\n      0x80\n      add\n      0x40\n      mstore\n      swap1\n      dup2\n      0x00\n      dup3\n      add\n      0x00\n      swap1\n      sload\n      swap1\n      0x0100\n      exp\n      swap1\n      div\n      0xffffffffffffffffffffffffffffffffffffffff\n      and\n      0xffffffffffffffffffffffffffffffffffffffff\n      and\n      0xffffffffffffffffffffffffffffffffffffffff\n      and\n      dup2\n      mstore\n      0x20\n      add\n      0x01\n      dup3\n      add\n      sload\n      dup2\n      mstore\n      0x20\n      add\n      0x02\n      dup3\n      add\n      sload\n      dup2\n      mstore\n      0x20\n      add\n      0x03\n      dup3\n      add\n      sload\n      dup2\n      mstore\n      pop\n      pop\n      swap1\n      pop\n        /* \"contracts/core/JobBoardDelta_flattened.sol\":15840:16654  function addReward(uint256 _jobId, address _erc20, uint256 _rewardAmount, uint256 _amountPerApplicant) payable external returns (Reward memory _reward) {... */\n      swap5\n      swap4\n      pop\n      pop\n      pop\n      pop\n      jump\t// out\n        /* \"contracts/core/JobBoardDelta_flattened.sol\":13675:15056  function approveRewards(uint256 _jobId, uint256 [] memory _applicantIds) external returns (uint256 _rewardedCount) {... */\n    tag_71:\n        /* \"contracts/core/JobBoardDelta_flattened.sol\":13766:13788  uint256 _rewardedCount */\n      0x00\n        /* \"contracts/core/JobBoardDelta_flattened.sol\":13834:13844  msg.sender */\n      caller\n        /* \"contracts/core/JobBoardDelta_flattened.sol\":13809:13844  jobById[_jobId].owner == msg.sender */\n      0xffffffffffffffffffffffffffffffffffffffff\n      and\n        /* \"contracts/core/JobBoardDelta_flattened.sol\":13809:13816  jobById */\n      0x03\n        /* \"contracts/core/JobBoardDelta_flattened.sol\":13809:13824  jobById[_jobId] */\n      0x00\n        /* \"contracts/core/JobBoardDelta_flattened.sol\":13817:13823  _jobId */\n      dup6\n        /* \"contracts/core/JobBoardDelta_flattened.sol\":13809:13824  jobById[_jobId] */\n      dup2\n      mstore\n      0x20\n      add\n      swap1\n      dup2\n      mstore\n      0x20\n      add\n      0x00\n      keccak256\n        /* \"contracts/core/JobBoardDelta_flattened.sol\":13809:13830  jobById[_jobId].owner */\n      0x04\n      add\n      0x01\n      swap1\n      sload\n      swap1\n      0x0100\n      exp\n      swap1\n      div\n      0xffffffffffffffffffffffffffffffffffffffff\n      and\n        /* \"contracts/core/JobBoardDelta_flattened.sol\":13809:13844  jobById[_jobId].owner == msg.sender */\n      0xffffffffffffffffffffffffffffffffffffffff\n      and\n      eq\n        /* \"contracts/core/JobBoardDelta_flattened.sol\":13801:13863  require(jobById[_jobId].owner == msg.sender, \"job owner only\") */\n      tag_162\n      jumpi\n      mload(0x40)\n      0x08c379a000000000000000000000000000000000000000000000000000000000\n      dup2\n      mstore\n      0x04\n      add\n      tag_163\n      swap1\n      tag_121\n      jump\t// in\n    tag_163:\n      mload(0x40)\n      dup1\n      swap2\n      sub\n      swap1\n      revert\n    tag_162:\n        /* \"contracts/core/JobBoardDelta_flattened.sol\":13878:13887  uint256 x */\n      0x00\n        /* \"contracts/core/JobBoardDelta_flattened.sol\":13874:15050  for(uint256 x = 0; x < _applicantIds.length; x++) {... */\n    tag_164:\n        /* \"contracts/core/JobBoardDelta_flattened.sol\":13897:13910  _applicantIds */\n      dup3\n        /* \"contracts/core/JobBoardDelta_flattened.sol\":13897:13917  _applicantIds.length */\n      mload\n        /* \"contracts/core/JobBoardDelta_flattened.sol\":13893:13894  x */\n      dup2\n        /* \"contracts/core/JobBoardDelta_flattened.sol\":13893:13917  x < _applicantIds.length */\n      lt\n        /* \"contracts/core/JobBoardDelta_flattened.sol\":13874:15050  for(uint256 x = 0; x < _applicantIds.length; x++) {... */\n      iszero\n      tag_165\n      jumpi\n        /* \"contracts/core/JobBoardDelta_flattened.sol\":13938:13958  uint256 applicantId_ */\n      0x00\n        /* \"contracts/core/JobBoardDelta_flattened.sol\":13961:13974  _applicantIds */\n      dup4\n        /* \"contracts/core/JobBoardDelta_flattened.sol\":13975:13976  x */\n      dup3\n        /* \"contracts/core/JobBoardDelta_flattened.sol\":13961:13977  _applicantIds[x] */\n      dup2\n      mload\n      dup2\n      lt\n      tag_167\n      jumpi\n      tag_168\n      tag_169\n      jump\t// in\n    tag_168:\n    tag_167:\n      0x20\n      mul\n      0x20\n      add\n      add\n      mload\n        /* \"contracts/core/JobBoardDelta_flattened.sol\":13938:13977  uint256 applicantId_ = _applicantIds[x] */\n      swap1\n      pop\n        /* \"contracts/core/JobBoardDelta_flattened.sol\":13992:14010  uint256 remaining_ */\n      0x00\n        /* \"contracts/core/JobBoardDelta_flattened.sol\":14049:14062  rewardByJobId */\n      0x06\n        /* \"contracts/core/JobBoardDelta_flattened.sol\":14049:14070  rewardByJobId[_jobId] */\n      0x00\n        /* \"contracts/core/JobBoardDelta_flattened.sol\":14063:14069  _jobId */\n      dup8\n        /* \"contracts/core/JobBoardDelta_flattened.sol\":14049:14070  rewardByJobId[_jobId] */\n      dup2\n      mstore\n      0x20\n      add\n      swap1\n      dup2\n      mstore\n      0x20\n      add\n      0x00\n      keccak256\n        /* \"contracts/core/JobBoardDelta_flattened.sol\":14049:14082  rewardByJobId[_jobId].distributed */\n      0x03\n      add\n      sload\n        /* \"contracts/core/JobBoardDelta_flattened.sol\":14013:14026  rewardByJobId */\n      0x06\n        /* \"contracts/core/JobBoardDelta_flattened.sol\":14013:14034  rewardByJobId[_jobId] */\n      0x00\n        /* \"contracts/core/JobBoardDelta_flattened.sol\":14027:14033  _jobId */\n      dup9\n        /* \"contracts/core/JobBoardDelta_flattened.sol\":14013:14034  rewardByJobId[_jobId] */\n      dup2\n      mstore\n      0x20\n      add\n      swap1\n      dup2\n      mstore\n      0x20\n      add\n      0x00\n      keccak256\n        /* \"contracts/core/JobBoardDelta_flattened.sol\":14013:14046  rewardByJobId[_jobId].totalReward */\n      0x01\n      add\n      sload\n        /* \"contracts/core/JobBoardDelta_flattened.sol\":14013:14082  rewardByJobId[_jobId].totalReward - rewardByJobId[_jobId].distributed */\n      tag_170\n      swap2\n      swap1\n      tag_171\n      jump\t// in\n    tag_170:\n        /* \"contracts/core/JobBoardDelta_flattened.sol\":13992:14082  uint256 remaining_ = rewardByJobId[_jobId].totalReward - rewardByJobId[_jobId].distributed */\n      swap1\n      pop\n        /* \"contracts/core/JobBoardDelta_flattened.sol\":14100:14131  isApplicantByApplicantIdByJobId */\n      0x0a\n        /* \"contracts/core/JobBoardDelta_flattened.sol\":14100:14139  isApplicantByApplicantIdByJobId[_jobId] */\n      0x00\n        /* \"contracts/core/JobBoardDelta_flattened.sol\":14132:14138  _jobId */\n      dup8\n        /* \"contracts/core/JobBoardDelta_flattened.sol\":14100:14139  isApplicantByApplicantIdByJobId[_jobId] */\n      dup2\n      mstore\n      0x20\n      add\n      swap1\n      dup2\n      mstore\n      0x20\n      add\n      0x00\n      keccak256\n        /* \"contracts/core/JobBoardDelta_flattened.sol\":14100:14153  isApplicantByApplicantIdByJobId[_jobId][applicantId_] */\n      0x00\n        /* \"contracts/core/JobBoardDelta_flattened.sol\":14140:14152  applicantId_ */\n      dup4\n        /* \"contracts/core/JobBoardDelta_flattened.sol\":14100:14153  isApplicantByApplicantIdByJobId[_jobId][applicantId_] */\n      dup2\n      mstore\n      0x20\n      add\n      swap1\n      dup2\n      mstore\n      0x20\n      add\n      0x00\n      keccak256\n      0x00\n      swap1\n      sload\n      swap1\n      0x0100\n      exp\n      swap1\n      div\n      0xff\n      and\n        /* \"contracts/core/JobBoardDelta_flattened.sol\":14100:14171  isApplicantByApplicantIdByJobId[_jobId][applicantId_] && remaining_ > 0 */\n      dup1\n      iszero\n      tag_172\n      jumpi\n      pop\n        /* \"contracts/core/JobBoardDelta_flattened.sol\":14170:14171  0 */\n      0x00\n        /* \"contracts/core/JobBoardDelta_flattened.sol\":14157:14167  remaining_ */\n      dup2\n        /* \"contracts/core/JobBoardDelta_flattened.sol\":14157:14171  remaining_ > 0 */\n      gt\n        /* \"contracts/core/JobBoardDelta_flattened.sol\":14100:14171  isApplicantByApplicantIdByJobId[_jobId][applicantId_] && remaining_ > 0 */\n    tag_172:\n        /* \"contracts/core/JobBoardDelta_flattened.sol\":14097:15040  if(isApplicantByApplicantIdByJobId[_jobId][applicantId_] && remaining_ > 0){... */\n      iszero\n      tag_173\n      jumpi\n        /* \"contracts/core/JobBoardDelta_flattened.sol\":14191:14218  Applicant memory applicant_ */\n      0x00\n        /* \"contracts/core/JobBoardDelta_flattened.sol\":14221:14234  applicantById */\n      0x09\n        /* \"contracts/core/JobBoardDelta_flattened.sol\":14221:14248  applicantById[applicantId_] */\n      0x00\n        /* \"contracts/core/JobBoardDelta_flattened.sol\":14235:14247  applicantId_ */\n      dup5\n        /* \"contracts/core/JobBoardDelta_flattened.sol\":14221:14248  applicantById[applicantId_] */\n      dup2\n      mstore\n      0x20\n      add\n      swap1\n      dup2\n      mstore\n      0x20\n      add\n      0x00\n      keccak256\n        /* \"contracts/core/JobBoardDelta_flattened.sol\":14191:14248  Applicant memory applicant_ = applicantById[applicantId_] */\n      mload(0x40)\n      dup1\n      0xa0\n      add\n      0x40\n      mstore\n      swap1\n      dup2\n      0x00\n      dup3\n      add\n      sload\n      dup2\n      mstore\n      0x20\n      add\n      0x01\n      dup3\n      add\n      dup1\n      sload\n      tag_174\n      swap1\n      tag_123\n      jump\t// in\n    tag_174:\n      dup1\n      0x1f\n      add\n      0x20\n      dup1\n      swap2\n      div\n      mul\n      0x20\n      add\n      mload(0x40)\n      swap1\n      dup2\n      add\n      0x40\n      mstore\n      dup1\n      swap3\n      swap2\n      swap1\n      dup2\n      dup2\n      mstore\n      0x20\n      add\n      dup3\n      dup1\n      sload\n      tag_175\n      swap1\n      tag_123\n      jump\t// in\n    tag_175:\n      dup1\n      iszero\n      tag_176\n      jumpi\n      dup1\n      0x1f\n      lt\n      tag_177\n      jumpi\n      0x0100\n      dup1\n      dup4\n      sload\n      div\n      mul\n      dup4\n      mstore\n      swap2\n      0x20\n      add\n      swap2\n      jump(tag_176)\n    tag_177:\n      dup3\n      add\n      swap2\n      swap1\n      0x00\n      mstore\n      keccak256(0x00, 0x20)\n      swap1\n    tag_178:\n      dup2\n      sload\n      dup2\n      mstore\n      swap1\n      0x01\n      add\n      swap1\n      0x20\n      add\n      dup1\n      dup4\n      gt\n      tag_178\n      jumpi\n      dup3\n      swap1\n      sub\n      0x1f\n      and\n      dup3\n      add\n      swap2\n    tag_176:\n      pop\n      pop\n      pop\n      pop\n      pop\n      dup2\n      mstore\n      0x20\n      add\n      0x02\n      dup3\n      add\n      sload\n      dup2\n      mstore\n      0x20\n      add\n      0x03\n      dup3\n      add\n      0x00\n      swap1\n      sload\n      swap1\n      0x0100\n      exp\n      swap1\n      div\n      0xffffffffffffffffffffffffffffffffffffffff\n      and\n      0xffffffffffffffffffffffffffffffffffffffff\n      and\n      0xffffffffffffffffffffffffffffffffffffffff\n      and\n      dup2\n      mstore\n      0x20\n      add\n      0x03\n      dup3\n      add\n      0x14\n      swap1\n      sload\n      swap1\n      0x0100\n      exp\n      swap1\n      div\n      0xff\n      and\n      iszero\n      iszero\n      iszero\n      iszero\n      dup2\n      mstore\n      pop\n      pop\n      swap1\n      pop\n        /* \"contracts/core/JobBoardDelta_flattened.sol\":14267:14290  uint256 transferAmount_ */\n      0x00\n        /* \"contracts/core/JobBoardDelta_flattened.sol\":14331:14344  rewardByJobId */\n      0x06\n        /* \"contracts/core/JobBoardDelta_flattened.sol\":14331:14352  rewardByJobId[_jobId] */\n      0x00\n        /* \"contracts/core/JobBoardDelta_flattened.sol\":14345:14351  _jobId */\n      dup10\n        /* \"contracts/core/JobBoardDelta_flattened.sol\":14331:14352  rewardByJobId[_jobId] */\n      dup2\n      mstore\n      0x20\n      add\n      swap1\n      dup2\n      mstore\n      0x20\n      add\n      0x00\n      keccak256\n        /* \"contracts/core/JobBoardDelta_flattened.sol\":14331:14369  rewardByJobId[_jobId].individualReward */\n      0x02\n      add\n      sload\n        /* \"contracts/core/JobBoardDelta_flattened.sol\":14317:14327  remaining_ */\n      dup4\n        /* \"contracts/core/JobBoardDelta_flattened.sol\":14317:14369  remaining_ >= rewardByJobId[_jobId].individualReward */\n      lt\n        /* \"contracts/core/JobBoardDelta_flattened.sol\":14314:14563  if(remaining_ >= rewardByJobId[_jobId].individualReward){... */\n      tag_179\n      jumpi\n        /* \"contracts/core/JobBoardDelta_flattened.sol\":14410:14423  rewardByJobId */\n      0x06\n        /* \"contracts/core/JobBoardDelta_flattened.sol\":14410:14431  rewardByJobId[_jobId] */\n      0x00\n        /* \"contracts/core/JobBoardDelta_flattened.sol\":14424:14430  _jobId */\n      dup10\n        /* \"contracts/core/JobBoardDelta_flattened.sol\":14410:14431  rewardByJobId[_jobId] */\n      dup2\n      mstore\n      0x20\n      add\n      swap1\n      dup2\n      mstore\n      0x20\n      add\n      0x00\n      keccak256\n        /* \"contracts/core/JobBoardDelta_flattened.sol\":14410:14448  rewardByJobId[_jobId].individualReward */\n      0x02\n      add\n      sload\n        /* \"contracts/core/JobBoardDelta_flattened.sol\":14392:14448  transferAmount_ = rewardByJobId[_jobId].individualReward */\n      swap1\n      pop\n        /* \"contracts/core/JobBoardDelta_flattened.sol\":14314:14563  if(remaining_ >= rewardByJobId[_jobId].individualReward){... */\n      jump(tag_180)\n    tag_179:\n        /* \"contracts/core/JobBoardDelta_flattened.sol\":14532:14542  remaining_ */\n      dup3\n        /* \"contracts/core/JobBoardDelta_flattened.sol\":14514:14542  transferAmount_ = remaining_ */\n      swap1\n      pop\n        /* \"contracts/core/JobBoardDelta_flattened.sol\":14314:14563  if(remaining_ >= rewardByJobId[_jobId].individualReward){... */\n    tag_180:\n        /* \"contracts/core/JobBoardDelta_flattened.sol\":14618:14633  transferAmount_ */\n      dup1\n        /* \"contracts/core/JobBoardDelta_flattened.sol\":14581:14594  rewardByJobId */\n      0x06\n        /* \"contracts/core/JobBoardDelta_flattened.sol\":14581:14602  rewardByJobId[_jobId] */\n      0x00\n        /* \"contracts/core/JobBoardDelta_flattened.sol\":14595:14601  _jobId */\n      dup11\n        /* \"contracts/core/JobBoardDelta_flattened.sol\":14581:14602  rewardByJobId[_jobId] */\n      dup2\n      mstore\n      0x20\n      add\n      swap1\n      dup2\n      mstore\n      0x20\n      add\n      0x00\n      keccak256\n        /* \"contracts/core/JobBoardDelta_flattened.sol\":14581:14614  rewardByJobId[_jobId].distributed */\n      0x03\n      add\n      0x00\n        /* \"contracts/core/JobBoardDelta_flattened.sol\":14581:14633  rewardByJobId[_jobId].distributed += transferAmount_ */\n      dup3\n      dup3\n      sload\n      tag_181\n      swap2\n      swap1\n      tag_182\n      jump\t// in\n    tag_181:\n      swap3\n      pop\n      pop\n      dup2\n      swap1\n      sstore\n      pop\n        /* \"contracts/core/JobBoardDelta_flattened.sol\":14677:14684  chainId */\n      immutable(\"0x3a6b057b9d48186986616a0f5b0622760f50f4bcc4f1fc92ab446a90a1025914\")\n        /* \"contracts/core/JobBoardDelta_flattened.sol\":14655:14665  applicant_ */\n      dup3\n        /* \"contracts/core/JobBoardDelta_flattened.sol\":14655:14673  applicant_.chainId */\n      0x40\n      add\n      mload\n        /* \"contracts/core/JobBoardDelta_flattened.sol\":14655:14684  applicant_.chainId == chainId */\n      sub\n        /* \"contracts/core/JobBoardDelta_flattened.sol\":14652:14990  if(applicant_.chainId == chainId) {... */\n      tag_183\n      jumpi\n        /* \"contracts/core/JobBoardDelta_flattened.sol\":14708:14791  transferOut(rewardByJobId[_jobId].erc20, transferAmount_, applicant_.rewardAddress) */\n      tag_184\n        /* \"contracts/core/JobBoardDelta_flattened.sol\":14720:14733  rewardByJobId */\n      0x06\n        /* \"contracts/core/JobBoardDelta_flattened.sol\":14720:14741  rewardByJobId[_jobId] */\n      0x00\n        /* \"contracts/core/JobBoardDelta_flattened.sol\":14734:14740  _jobId */\n      dup11\n        /* \"contracts/core/JobBoardDelta_flattened.sol\":14720:14741  rewardByJobId[_jobId] */\n      dup2\n      mstore\n      0x20\n      add\n      swap1\n      dup2\n      mstore\n      0x20\n      add\n      0x00\n      keccak256\n        /* \"contracts/core/JobBoardDelta_flattened.sol\":14720:14747  rewardByJobId[_jobId].erc20 */\n      0x00\n      add\n      0x00\n      swap1\n      sload\n      swap1\n      0x0100\n      exp\n      swap1\n      div\n      0xffffffffffffffffffffffffffffffffffffffff\n      and\n        /* \"contracts/core/JobBoardDelta_flattened.sol\":14749:14764  transferAmount_ */\n      dup3\n        /* \"contracts/core/JobBoardDelta_flattened.sol\":14766:14776  applicant_ */\n      dup5\n        /* \"contracts/core/JobBoardDelta_flattened.sol\":14766:14790  applicant_.rewardAddress */\n      0x60\n      add\n      mload\n        /* \"contracts/core/JobBoardDelta_flattened.sol\":14708:14719  transferOut */\n      tag_185\n        /* \"contracts/core/JobBoardDelta_flattened.sol\":14708:14791  transferOut(rewardByJobId[_jobId].erc20, transferAmount_, applicant_.rewardAddress) */\n      jump\t// in\n    tag_184:\n      pop\n        /* \"contracts/core/JobBoardDelta_flattened.sol\":14652:14990  if(applicant_.chainId == chainId) {... */\n      jump(tag_186)\n    tag_183:\n        /* \"contracts/core/JobBoardDelta_flattened.sol\":14857:14970  transferOutCrossChain(rewardByJobId[_jobId].erc20, transferAmount_, applicant_.rewardAddress, applicant_.chainId) */\n      tag_187\n        /* \"contracts/core/JobBoardDelta_flattened.sol\":14879:14892  rewardByJobId */\n      0x06\n        /* \"contracts/core/JobBoardDelta_flattened.sol\":14879:14900  rewardByJobId[_jobId] */\n      0x00\n        /* \"contracts/core/JobBoardDelta_flattened.sol\":14893:14899  _jobId */\n      dup11\n        /* \"contracts/core/JobBoardDelta_flattened.sol\":14879:14900  rewardByJobId[_jobId] */\n      dup2\n      mstore\n      0x20\n      add\n      swap1\n      dup2\n      mstore\n      0x20\n      add\n      0x00\n      keccak256\n        /* \"contracts/core/JobBoardDelta_flattened.sol\":14879:14906  rewardByJobId[_jobId].erc20 */\n      0x00\n      add\n      0x00\n      swap1\n      sload\n      swap1\n      0x0100\n      exp\n      swap1\n      div\n      0xffffffffffffffffffffffffffffffffffffffff\n      and\n        /* \"contracts/core/JobBoardDelta_flattened.sol\":14908:14923  transferAmount_ */\n      dup3\n        /* \"contracts/core/JobBoardDelta_flattened.sol\":14925:14935  applicant_ */\n      dup5\n        /* \"contracts/core/JobBoardDelta_flattened.sol\":14925:14949  applicant_.rewardAddress */\n      0x60\n      add\n      mload\n        /* \"contracts/core/JobBoardDelta_flattened.sol\":14951:14961  applicant_ */\n      dup6\n        /* \"contracts/core/JobBoardDelta_flattened.sol\":14951:14969  applicant_.chainId */\n      0x40\n      add\n      mload\n        /* \"contracts/core/JobBoardDelta_flattened.sol\":14857:14878  transferOutCrossChain */\n      tag_188\n        /* \"contracts/core/JobBoardDelta_flattened.sol\":14857:14970  transferOutCrossChain(rewardByJobId[_jobId].erc20, transferAmount_, applicant_.rewardAddress, applicant_.chainId) */\n      jump\t// in\n    tag_187:\n      pop\n        /* \"contracts/core/JobBoardDelta_flattened.sol\":14652:14990  if(applicant_.chainId == chainId) {... */\n    tag_186:\n        /* \"contracts/core/JobBoardDelta_flattened.sol\":15008:15024  _rewardedCount++ */\n      dup6\n      dup1\n      tag_189\n      swap1\n      tag_190\n      jump\t// in\n    tag_189:\n      swap7\n      pop\n      pop\n        /* \"contracts/core/JobBoardDelta_flattened.sol\":14172:15040  {... */\n      pop\n      pop\n        /* \"contracts/core/JobBoardDelta_flattened.sol\":14097:15040  if(isApplicantByApplicantIdByJobId[_jobId][applicantId_] && remaining_ > 0){... */\n    tag_173:\n        /* \"contracts/core/JobBoardDelta_flattened.sol\":13924:15050  {... */\n      pop\n      pop\n        /* \"contracts/core/JobBoardDelta_flattened.sol\":13919:13922  x++ */\n      dup1\n      dup1\n      0x01\n      add\n      swap2\n      pop\n      pop\n        /* \"contracts/core/JobBoardDelta_flattened.sol\":13874:15050  for(uint256 x = 0; x < _applicantIds.length; x++) {... */\n      jump(tag_164)\n    tag_165:\n      pop\n        /* \"contracts/core/JobBoardDelta_flattened.sol\":13675:15056  function approveRewards(uint256 _jobId, uint256 [] memory _applicantIds) external returns (uint256 _rewardedCount) {... */\n      swap3\n      swap2\n      pop\n      pop\n      jump\t// out\n        /* \"contracts/core/JobBoardDelta_flattened.sol\":12233:12343  function getPaymentErc20() view external returns (address _paymentErc20) {... */\n    tag_75:\n        /* \"contracts/core/JobBoardDelta_flattened.sol\":12283:12304  address _paymentErc20 */\n      0x00\n        /* \"contracts/core/JobBoardDelta_flattened.sol\":12323:12335  paymentErc20 */\n      immutable(\"0xb4bf3508f2fd7bb126e7af9e4fe31dbb3cdf386df5936668ea4d8292a4a1b188\")\n        /* \"contracts/core/JobBoardDelta_flattened.sol\":12316:12335  return paymentErc20 */\n      swap1\n      pop\n        /* \"contracts/core/JobBoardDelta_flattened.sol\":12233:12343  function getPaymentErc20() view external returns (address _paymentErc20) {... */\n      swap1\n      jump\t// out\n        /* \"contracts/core/JobBoardDelta_flattened.sol\":11732:11854  function hasReward(uint256 _jobId) view external returns (bool _hasReward) {... */\n    tag_81:\n        /* \"contracts/core/JobBoardDelta_flattened.sol\":11790:11805  bool _hasReward */\n      0x00\n        /* \"contracts/core/JobBoardDelta_flattened.sol\":11823:11839  hasRewardByJobId */\n      0x05\n        /* \"contracts/core/JobBoardDelta_flattened.sol\":11823:11847  hasRewardByJobId[_jobId] */\n      0x00\n        /* \"contracts/core/JobBoardDelta_flattened.sol\":11840:11846  _jobId */\n      dup4\n        /* \"contracts/core/JobBoardDelta_flattened.sol\":11823:11847  hasRewardByJobId[_jobId] */\n      dup2\n      mstore\n      0x20\n      add\n      swap1\n      dup2\n      mstore\n      0x20\n      add\n      0x00\n      keccak256\n      0x00\n      swap1\n      sload\n      swap1\n      0x0100\n      exp\n      swap1\n      div\n      0xff\n      and\n        /* \"contracts/core/JobBoardDelta_flattened.sol\":11816:11847  return hasRewardByJobId[_jobId] */\n      swap1\n      pop\n        /* \"contracts/core/JobBoardDelta_flattened.sol\":11732:11854  function hasReward(uint256 _jobId) view external returns (bool _hasReward) {... */\n      swap2\n      swap1\n      pop\n      jump\t// out\n        /* \"contracts/core/JobBoardDelta_flattened.sol\":15062:15834  function postJob(string memory _cid, Duration _duration) payable external returns (Job memory _job){... */\n    tag_86:\n        /* \"contracts/core/JobBoardDelta_flattened.sol\":15145:15160  Job memory _job */\n      tag_193\n      tag_117\n      jump\t// in\n    tag_193:\n        /* \"contracts/core/JobBoardDelta_flattened.sol\":15171:15185  uint256 jobId_ */\n      0x00\n        /* \"contracts/core/JobBoardDelta_flattened.sol\":15188:15195  getId() */\n      tag_195\n        /* \"contracts/core/JobBoardDelta_flattened.sol\":15188:15193  getId */\n      tag_136\n        /* \"contracts/core/JobBoardDelta_flattened.sol\":15188:15195  getId() */\n      jump\t// in\n    tag_195:\n        /* \"contracts/core/JobBoardDelta_flattened.sol\":15171:15195  uint256 jobId_ = getId() */\n      swap1\n      pop\n        /* \"contracts/core/JobBoardDelta_flattened.sol\":15205:15217  uint256 fee_ */\n      0x00\n        /* \"contracts/core/JobBoardDelta_flattened.sol\":15220:15235  priceByDuration */\n      0x07\n        /* \"contracts/core/JobBoardDelta_flattened.sol\":15220:15246  priceByDuration[_duration] */\n      0x00\n        /* \"contracts/core/JobBoardDelta_flattened.sol\":15236:15245  _duration */\n      dup6\n        /* \"contracts/core/JobBoardDelta_flattened.sol\":15220:15246  priceByDuration[_duration] */\n      0x02\n      dup2\n      gt\n      iszero\n      tag_196\n      jumpi\n      tag_197\n      tag_110\n      jump\t// in\n    tag_197:\n    tag_196:\n      0x02\n      dup2\n      gt\n      iszero\n      tag_198\n      jumpi\n      tag_199\n      tag_110\n      jump\t// in\n    tag_199:\n    tag_198:\n      dup2\n      mstore\n      0x20\n      add\n      swap1\n      dup2\n      mstore\n      0x20\n      add\n      0x00\n      keccak256\n      sload\n        /* \"contracts/core/JobBoardDelta_flattened.sol\":15205:15246  uint256 fee_ = priceByDuration[_duration] */\n      swap1\n      pop\n        /* \"contracts/core/JobBoardDelta_flattened.sol\":15265:15295  transferIn(paymentErc20, fee_) */\n      tag_200\n        /* \"contracts/core/JobBoardDelta_flattened.sol\":15276:15288  paymentErc20 */\n      immutable(\"0xb4bf3508f2fd7bb126e7af9e4fe31dbb3cdf386df5936668ea4d8292a4a1b188\")\n        /* \"contracts/core/JobBoardDelta_flattened.sol\":15290:15294  fee_ */\n      dup3\n        /* \"contracts/core/JobBoardDelta_flattened.sol\":15265:15275  transferIn */\n      tag_157\n        /* \"contracts/core/JobBoardDelta_flattened.sol\":15265:15295  transferIn(paymentErc20, fee_) */\n      jump\t// in\n    tag_200:\n        /* \"contracts/core/JobBoardDelta_flattened.sol\":15257:15323  require(transferIn(paymentErc20, fee_), \"payment transfer failed\") */\n      tag_201\n      jumpi\n      mload(0x40)\n      0x08c379a000000000000000000000000000000000000000000000000000000000\n      dup2\n      mstore\n      0x04\n      add\n      tag_202\n      swap1\n      tag_203\n      jump\t// in\n    tag_202:\n      mload(0x40)\n      dup1\n      swap2\n      sub\n      swap1\n      revert\n    tag_201:\n        /* \"contracts/core/JobBoardDelta_flattened.sol\":15334:15340  jobIds */\n      0x02\n        /* \"contracts/core/JobBoardDelta_flattened.sol\":15346:15352  jobId_ */\n      dup3\n        /* \"contracts/core/JobBoardDelta_flattened.sol\":15334:15353  jobIds.push(jobId_) */\n      swap1\n      dup1\n      0x01\n      dup2\n      sload\n      add\n      dup1\n      dup3\n      sstore\n      dup1\n      swap2\n      pop\n      pop\n      0x01\n      swap1\n      sub\n      swap1\n      0x00\n      mstore\n      keccak256(0x00, 0x20)\n      add\n      0x00\n      swap1\n      swap2\n      swap1\n      swap2\n      swap1\n      swap2\n      pop\n      sstore\n        /* \"contracts/core/JobBoardDelta_flattened.sol\":15381:15758  Job({... */\n      mload(0x40)\n      dup1\n      0xc0\n      add\n      0x40\n      mstore\n      dup1\n        /* \"contracts/core/JobBoardDelta_flattened.sol\":15424:15430  jobId_ */\n      dup4\n        /* \"contracts/core/JobBoardDelta_flattened.sol\":15381:15758  Job({... */\n      dup2\n      mstore\n      0x20\n      add\n        /* \"contracts/core/JobBoardDelta_flattened.sol\":15471:15475  _cid */\n      dup7\n        /* \"contracts/core/JobBoardDelta_flattened.sol\":15381:15758  Job({... */\n      dup2\n      mstore\n      0x20\n      add\n        /* \"contracts/core/JobBoardDelta_flattened.sol\":15524:15539  block.timestamp */\n      timestamp\n        /* \"contracts/core/JobBoardDelta_flattened.sol\":15381:15758  Job({... */\n      dup2\n      mstore\n      0x20\n      add\n        /* \"contracts/core/JobBoardDelta_flattened.sol\":15613:15628  block.timestamp */\n      timestamp\n        /* \"contracts/core/JobBoardDelta_flattened.sol\":15588:15610  getDuration(_duration) */\n      tag_205\n        /* \"contracts/core/JobBoardDelta_flattened.sol\":15600:15609  _duration */\n      dup8\n        /* \"contracts/core/JobBoardDelta_flattened.sol\":15588:15599  getDuration */\n      tag_206\n        /* \"contracts/core/JobBoardDelta_flattened.sol\":15588:15610  getDuration(_duration) */\n      jump\t// in\n    tag_205:\n        /* \"contracts/core/JobBoardDelta_flattened.sol\":15588:15628  getDuration(_duration) + block.timestamp */\n      tag_207\n      swap2\n      swap1\n      tag_182\n      jump\t// in\n    tag_207:\n        /* \"contracts/core/JobBoardDelta_flattened.sol\":15381:15758  Job({... */\n      dup2\n      mstore\n      0x20\n      add\n        /* \"contracts/core/JobBoardDelta_flattened.sol\":15674:15678  true */\n      0x01\n        /* \"contracts/core/JobBoardDelta_flattened.sol\":15381:15758  Job({... */\n      iszero\n      iszero\n      dup2\n      mstore\n      0x20\n      add\n        /* \"contracts/core/JobBoardDelta_flattened.sol\":15721:15731  msg.sender */\n      caller\n        /* \"contracts/core/JobBoardDelta_flattened.sol\":15381:15758  Job({... */\n      0xffffffffffffffffffffffffffffffffffffffff\n      and\n      dup2\n      mstore\n      pop\n        /* \"contracts/core/JobBoardDelta_flattened.sol\":15363:15370  jobById */\n      0x03\n        /* \"contracts/core/JobBoardDelta_flattened.sol\":15363:15378  jobById[jobId_] */\n      0x00\n        /* \"contracts/core/JobBoardDelta_flattened.sol\":15371:15377  jobId_ */\n      dup5\n        /* \"contracts/core/JobBoardDelta_flattened.sol\":15363:15378  jobById[jobId_] */\n      dup2\n      mstore\n      0x20\n      add\n      swap1\n      dup2\n      mstore\n      0x20\n      add\n      0x00\n      keccak256\n        /* \"contracts/core/JobBoardDelta_flattened.sol\":15363:15758  jobById[jobId_] = Job({... */\n      0x00\n      dup3\n      add\n      mload\n      dup2\n      0x00\n      add\n      sstore\n      0x20\n      dup3\n      add\n      mload\n      dup2\n      0x01\n      add\n      swap1\n      dup2\n      tag_208\n      swap2\n      swap1\n      tag_138\n      jump\t// in\n    tag_208:\n      pop\n      0x40\n      dup3\n      add\n      mload\n      dup2\n      0x02\n      add\n      sstore\n      0x60\n      dup3\n      add\n      mload\n      dup2\n      0x03\n      add\n      sstore\n      0x80\n      dup3\n      add\n      mload\n      dup2\n      0x04\n      add\n      exp(0x0100, 0x00)\n      dup2\n      sload\n      dup2\n      0xff\n      mul\n      not\n      and\n      swap1\n      dup4\n      iszero\n      iszero\n      mul\n      or\n      swap1\n      sstore\n      pop\n      0xa0\n      dup3\n      add\n      mload\n      dup2\n      0x04\n      add\n      exp(0x0100, 0x01)\n      dup2\n      sload\n      dup2\n      0xffffffffffffffffffffffffffffffffffffffff\n      mul\n      not\n      and\n      swap1\n      dup4\n      0xffffffffffffffffffffffffffffffffffffffff\n      and\n      mul\n      or\n      swap1\n      sstore\n      pop\n      swap1\n      pop\n      pop\n        /* \"contracts/core/JobBoardDelta_flattened.sol\":15768:15780  jobIdByOwner */\n      0x04\n        /* \"contracts/core/JobBoardDelta_flattened.sol\":15768:15792  jobIdByOwner[msg.sender] */\n      0x00\n        /* \"contracts/core/JobBoardDelta_flattened.sol\":15781:15791  msg.sender */\n      caller\n        /* \"contracts/core/JobBoardDelta_flattened.sol\":15768:15792  jobIdByOwner[msg.sender] */\n      0xffffffffffffffffffffffffffffffffffffffff\n      and\n      0xffffffffffffffffffffffffffffffffffffffff\n      and\n      dup2\n      mstore\n      0x20\n      add\n      swap1\n      dup2\n      mstore\n      0x20\n      add\n      0x00\n      keccak256\n        /* \"contracts/core/JobBoardDelta_flattened.sol\":15798:15804  jobId_ */\n      dup3\n        /* \"contracts/core/JobBoardDelta_flattened.sol\":15768:15805  jobIdByOwner[msg.sender].push(jobId_) */\n      swap1\n      dup1\n      0x01\n      dup2\n      sload\n      add\n      dup1\n      dup3\n      sstore\n      dup1\n      swap2\n      pop\n      pop\n      0x01\n      swap1\n      sub\n      swap1\n      0x00\n      mstore\n      keccak256(0x00, 0x20)\n      add\n      0x00\n      swap1\n      swap2\n      swap1\n      swap2\n      swap1\n      swap2\n      pop\n      sstore\n        /* \"contracts/core/JobBoardDelta_flattened.sol\":15815:15826  return _job */\n      pop\n      pop\n        /* \"contracts/core/JobBoardDelta_flattened.sol\":15062:15834  function postJob(string memory _cid, Duration _duration) payable external returns (Job memory _job){... */\n      swap3\n      swap2\n      pop\n      pop\n      jump\t// out\n        /* \"contracts/core/JobBoardDelta_flattened.sol\":11616:11726  function getJob(uint256 _jobId) view external returns (Job memory _job){... */\n    tag_91:\n        /* \"contracts/core/JobBoardDelta_flattened.sol\":11671:11686  Job memory _job */\n      tag_210\n      tag_117\n      jump\t// in\n    tag_210:\n        /* \"contracts/core/JobBoardDelta_flattened.sol\":11704:11711  jobById */\n      0x03\n        /* \"contracts/core/JobBoardDelta_flattened.sol\":11704:11719  jobById[_jobId] */\n      0x00\n        /* \"contracts/core/JobBoardDelta_flattened.sol\":11712:11718  _jobId */\n      dup4\n        /* \"contracts/core/JobBoardDelta_flattened.sol\":11704:11719  jobById[_jobId] */\n      dup2\n      mstore\n      0x20\n      add\n      swap1\n      dup2\n      mstore\n      0x20\n      add\n      0x00\n      keccak256\n        /* \"contracts/core/JobBoardDelta_flattened.sol\":11697:11719  return jobById[_jobId] */\n      mload(0x40)\n      dup1\n      0xc0\n      add\n      0x40\n      mstore\n      swap1\n      dup2\n      0x00\n      dup3\n      add\n      sload\n      dup2\n      mstore\n      0x20\n      add\n      0x01\n      dup3\n      add\n      dup1\n      sload\n      tag_212\n      swap1\n      tag_123\n      jump\t// in\n    tag_212:\n      dup1\n      0x1f\n      add\n      0x20\n      dup1\n      swap2\n      div\n      mul\n      0x20\n      add\n      mload(0x40)\n      swap1\n      dup2\n      add\n      0x40\n      mstore\n      dup1\n      swap3\n      swap2\n      swap1\n      dup2\n      dup2\n      mstore\n      0x20\n      add\n      dup3\n      dup1\n      sload\n      tag_213\n      swap1\n      tag_123\n      jump\t// in\n    tag_213:\n      dup1\n      iszero\n      tag_214\n      jumpi\n      dup1\n      0x1f\n      lt\n      tag_215\n      jumpi\n      0x0100\n      dup1\n      dup4\n      sload\n      div\n      mul\n      dup4\n      mstore\n      swap2\n      0x20\n      add\n      swap2\n      jump(tag_214)\n    tag_215:\n      dup3\n      add\n      swap2\n      swap1\n      0x00\n      mstore\n      keccak256(0x00, 0x20)\n      swap1\n    tag_216:\n      dup2\n      sload\n      dup2\n      mstore\n      swap1\n      0x01\n      add\n      swap1\n      0x20\n      add\n      dup1\n      dup4\n      gt\n      tag_216\n      jumpi\n      dup3\n      swap1\n      sub\n      0x1f\n      and\n      dup3\n      add\n      swap2\n    tag_214:\n      pop\n      pop\n      pop\n      pop\n      pop\n      dup2\n      mstore\n      0x20\n      add\n      0x02\n      dup3\n      add\n      sload\n      dup2\n      mstore\n      0x20\n      add\n      0x03\n      dup3\n      add\n      sload\n      dup2\n      mstore\n      0x20\n      add\n      0x04\n      dup3\n      add\n      0x00\n      swap1\n      sload\n      swap1\n      0x0100\n      exp\n      swap1\n      div\n      0xff\n      and\n      iszero\n      iszero\n      iszero\n      iszero\n      dup2\n      mstore\n      0x20\n      add\n      0x04\n      dup3\n      add\n      0x01\n      swap1\n      sload\n      swap1\n      0x0100\n      exp\n      swap1\n      div\n      0xffffffffffffffffffffffffffffffffffffffff\n      and\n      0xffffffffffffffffffffffffffffffffffffffff\n      and\n      0xffffffffffffffffffffffffffffffffffffffff\n      and\n      dup2\n      mstore\n      pop\n      pop\n      swap1\n      pop\n        /* \"contracts/core/JobBoardDelta_flattened.sol\":11616:11726  function getJob(uint256 _jobId) view external returns (Job memory _job){... */\n      swap2\n      swap1\n      pop\n      jump\t// out\n        /* \"contracts/core/JobBoardDelta_flattened.sol\":12349:12478  function getJobReward(uint256 _jobId) view external returns (Reward memory _reward) {... */\n    tag_96:\n        /* \"contracts/core/JobBoardDelta_flattened.sol\":12410:12431  Reward memory _reward */\n      tag_217\n      tag_150\n      jump\t// in\n    tag_217:\n        /* \"contracts/core/JobBoardDelta_flattened.sol\":12450:12463  rewardByJobId */\n      0x06\n        /* \"contracts/core/JobBoardDelta_flattened.sol\":12450:12471  rewardByJobId[_jobId] */\n      0x00\n        /* \"contracts/core/JobBoardDelta_flattened.sol\":12464:12470  _jobId */\n      dup4\n        /* \"contracts/core/JobBoardDelta_flattened.sol\":12450:12471  rewardByJobId[_jobId] */\n      dup2\n      mstore\n      0x20\n      add\n      swap1\n      dup2\n      mstore\n      0x20\n      add\n      0x00\n      keccak256\n        /* \"contracts/core/JobBoardDelta_flattened.sol\":12443:12471  return rewardByJobId[_jobId] */\n      mload(0x40)\n      dup1\n      0x80\n      add\n      0x40\n      mstore\n      swap1\n      dup2\n      0x00\n      dup3\n      add\n      0x00\n      swap1\n      sload\n      swap1\n      0x0100\n      exp\n      swap1\n      div\n      0xffffffffffffffffffffffffffffffffffffffff\n      and\n      0xffffffffffffffffffffffffffffffffffffffff\n      and\n      0xffffffffffffffffffffffffffffffffffffffff\n      and\n      dup2\n      mstore\n      0x20\n      add\n      0x01\n      dup3\n      add\n      sload\n      dup2\n      mstore\n      0x20\n      add\n      0x02\n      dup3\n      add\n      sload\n      dup2\n      mstore\n      0x20\n      add\n      0x03\n      dup3\n      add\n      sload\n      dup2\n      mstore\n      pop\n      pop\n      swap1\n      pop\n        /* \"contracts/core/JobBoardDelta_flattened.sol\":12349:12478  function getJobReward(uint256 _jobId) view external returns (Reward memory _reward) {... */\n      swap2\n      swap1\n      pop\n      jump\t// out\n        /* \"contracts/core/JobBoardDelta_flattened.sol\":12484:12631  function getApplicant(uint256 _applicantId) view external returns (Applicant memory _applicant) {... */\n    tag_101:\n        /* \"contracts/core/JobBoardDelta_flattened.sol\":12551:12578  Applicant memory _applicant */\n      tag_219\n      tag_220\n      jump\t// in\n    tag_219:\n        /* \"contracts/core/JobBoardDelta_flattened.sol\":12597:12610  applicantById */\n      0x09\n        /* \"contracts/core/JobBoardDelta_flattened.sol\":12597:12624  applicantById[_applicantId] */\n      0x00\n        /* \"contracts/core/JobBoardDelta_flattened.sol\":12611:12623  _applicantId */\n      dup4\n        /* \"contracts/core/JobBoardDelta_flattened.sol\":12597:12624  applicantById[_applicantId] */\n      dup2\n      mstore\n      0x20\n      add\n      swap1\n      dup2\n      mstore\n      0x20\n      add\n      0x00\n      keccak256\n        /* \"contracts/core/JobBoardDelta_flattened.sol\":12590:12624  return applicantById[_applicantId] */\n      mload(0x40)\n      dup1\n      0xa0\n      add\n      0x40\n      mstore\n      swap1\n      dup2\n      0x00\n      dup3\n      add\n      sload\n      dup2\n      mstore\n      0x20\n      add\n      0x01\n      dup3\n      add\n      dup1\n      sload\n      tag_222\n      swap1\n      tag_123\n      jump\t// in\n    tag_222:\n      dup1\n      0x1f\n      add\n      0x20\n      dup1\n      swap2\n      div\n      mul\n      0x20\n      add\n      mload(0x40)\n      swap1\n      dup2\n      add\n      0x40\n      mstore\n      dup1\n      swap3\n      swap2\n      swap1\n      dup2\n      dup2\n      mstore\n      0x20\n      add\n      dup3\n      dup1\n      sload\n      tag_223\n      swap1\n      tag_123\n      jump\t// in\n    tag_223:\n      dup1\n      iszero\n      tag_224\n      jumpi\n      dup1\n      0x1f\n      lt\n      tag_225\n      jumpi\n      0x0100\n      dup1\n      dup4\n      sload\n      div\n      mul\n      dup4\n      mstore\n      swap2\n      0x20\n      add\n      swap2\n      jump(tag_224)\n    tag_225:\n      dup3\n      add\n      swap2\n      swap1\n      0x00\n      mstore\n      keccak256(0x00, 0x20)\n      swap1\n    tag_226:\n      dup2\n      sload\n      dup2\n      mstore\n      swap1\n      0x01\n      add\n      swap1\n      0x20\n      add\n      dup1\n      dup4\n      gt\n      tag_226\n      jumpi\n      dup3\n      swap1\n      sub\n      0x1f\n      and\n      dup3\n      add\n      swap2\n    tag_224:\n      pop\n      pop\n      pop\n      pop\n      pop\n      dup2\n      mstore\n      0x20\n      add\n      0x02\n      dup3\n      add\n      sload\n      dup2\n      mstore\n      0x20\n      add\n      0x03\n      dup3\n      add\n      0x00\n      swap1\n      sload\n      swap1\n      0x0100\n      exp\n      swap1\n      div\n      0xffffffffffffffffffffffffffffffffffffffff\n      and\n      0xffffffffffffffffffffffffffffffffffffffff\n      and\n      0xffffffffffffffffffffffffffffffffffffffff\n      and\n      dup2\n      mstore\n      0x20\n      add\n      0x03\n      dup3\n      add\n      0x14\n      swap1\n      sload\n      swap1\n      0x0100\n      exp\n      swap1\n      div\n      0xff\n      and\n      iszero\n      iszero\n      iszero\n      iszero\n      dup2\n      mstore\n      pop\n      pop\n      swap1\n      pop\n        /* \"contracts/core/JobBoardDelta_flattened.sol\":12484:12631  function getApplicant(uint256 _applicantId) view external returns (Applicant memory _applicant) {... */\n      swap2\n      swap1\n      pop\n      jump\t// out\n        /* \"contracts/core/JobBoardDelta_flattened.sol\":17076:17175  function getId() internal returns (uint256 _id) {... */\n    tag_136:\n        /* \"contracts/core/JobBoardDelta_flattened.sol\":17111:17122  uint256 _id */\n      0x00\n        /* \"contracts/core/JobBoardDelta_flattened.sol\":17140:17145  index */\n      dup1\n      0x00\n        /* \"contracts/core/JobBoardDelta_flattened.sol\":17140:17147  index++ */\n      dup2\n      sload\n      dup1\n      swap3\n      swap2\n      swap1\n      tag_228\n      swap1\n      tag_190\n      jump\t// in\n    tag_228:\n      swap2\n      swap1\n      pop\n      sstore\n        /* \"contracts/core/JobBoardDelta_flattened.sol\":17134:17147  _id = index++ */\n      swap1\n      pop\n        /* \"contracts/core/JobBoardDelta_flattened.sol\":17076:17175  function getId() internal returns (uint256 _id) {... */\n      swap1\n      jump\t// out\n        /* \"contracts/core/JobBoardDelta_flattened.sol\":17580:17970  function transferIn(address _erc20, uint256 _amount ) internal returns (bool _success) {... */\n    tag_157:\n        /* \"contracts/core/JobBoardDelta_flattened.sol\":17652:17665  bool _success */\n      0x00\n        /* \"contracts/core/JobBoardDelta_flattened.sol\":10692:10734  0xEeeeeEeeeEeEeeEeEeEeeEEEeeeeEeeeeeeeEEeE */\n      0xeeeeeeeeeeeeeeeeeeeeeeeeeeeeeeeeeeeeeeee\n        /* \"contracts/core/JobBoardDelta_flattened.sol\":17680:17696  _erc20 == NATIVE */\n      0xffffffffffffffffffffffffffffffffffffffff\n      and\n        /* \"contracts/core/JobBoardDelta_flattened.sol\":17680:17686  _erc20 */\n      dup4\n        /* \"contracts/core/JobBoardDelta_flattened.sol\":17680:17696  _erc20 == NATIVE */\n      0xffffffffffffffffffffffffffffffffffffffff\n      and\n      sub\n        /* \"contracts/core/JobBoardDelta_flattened.sol\":17677:17964  if(_erc20 == NATIVE){... */\n      tag_230\n      jumpi\n        /* \"contracts/core/JobBoardDelta_flattened.sol\":17732:17739  _amount */\n      dup2\n        /* \"contracts/core/JobBoardDelta_flattened.sol\":17719:17728  msg.value */\n      callvalue\n        /* \"contracts/core/JobBoardDelta_flattened.sol\":17719:17739  msg.value >= _amount */\n      lt\n      iszero\n        /* \"contracts/core/JobBoardDelta_flattened.sol\":17711:17774  require(msg.value >= _amount, \"insufficient funds transmitted\") */\n      tag_231\n      jumpi\n      mload(0x40)\n      0x08c379a000000000000000000000000000000000000000000000000000000000\n      dup2\n      mstore\n      0x04\n      add\n      tag_232\n      swap1\n      tag_233\n      jump\t// in\n    tag_232:\n      mload(0x40)\n      dup1\n      swap2\n      sub\n      swap1\n      revert\n    tag_231:\n        /* \"contracts/core/JobBoardDelta_flattened.sol\":17795:17799  true */\n      0x01\n        /* \"contracts/core/JobBoardDelta_flattened.sol\":17788:17799  return true */\n      swap1\n      pop\n      jump(tag_229)\n        /* \"contracts/core/JobBoardDelta_flattened.sol\":17677:17964  if(_erc20 == NATIVE){... */\n    tag_230:\n        /* \"contracts/core/JobBoardDelta_flattened.sol\":17838:17851  IERC20 erc20_ */\n      0x00\n        /* \"contracts/core/JobBoardDelta_flattened.sol\":17861:17867  _erc20 */\n      dup4\n        /* \"contracts/core/JobBoardDelta_flattened.sol\":17838:17868  IERC20 erc20_ = IERC20(_erc20) */\n      swap1\n      pop\n        /* \"contracts/core/JobBoardDelta_flattened.sol\":17881:17887  erc20_ */\n      dup1\n        /* \"contracts/core/JobBoardDelta_flattened.sol\":17881:17900  erc20_.transferFrom */\n      0xffffffffffffffffffffffffffffffffffffffff\n      and\n      0x23b872dd\n        /* \"contracts/core/JobBoardDelta_flattened.sol\":17901:17911  msg.sender */\n      caller\n        /* \"contracts/core/JobBoardDelta_flattened.sol\":17913:17917  self */\n      immutable(\"0xb87264ef8bf99bc710f0d9de51012e0b2f3ac2595d912802c21dad6f786bfe81\")\n        /* \"contracts/core/JobBoardDelta_flattened.sol\":17919:17926  _amount */\n      dup7\n        /* \"contracts/core/JobBoardDelta_flattened.sol\":17881:17927  erc20_.transferFrom(msg.sender, self, _amount) */\n      mload(0x40)\n      dup5\n      0xffffffff\n      and\n      0xe0\n      shl\n      dup2\n      mstore\n      0x04\n      add\n      tag_235\n      swap4\n      swap3\n      swap2\n      swap1\n      tag_236\n      jump\t// in\n    tag_235:\n      0x20\n      mload(0x40)\n      dup1\n      dup4\n      sub\n      dup2\n      0x00\n      dup8\n      gas\n      call\n      iszero\n      dup1\n      iszero\n      tag_238\n      jumpi\n      returndatasize\n      0x00\n      dup1\n      returndatacopy\n      revert(0x00, returndatasize)\n    tag_238:\n      pop\n      pop\n      pop\n      pop\n      mload(0x40)\n      returndatasize\n      not(0x1f)\n      0x1f\n      dup3\n      add\n      and\n      dup3\n      add\n      dup1\n      0x40\n      mstore\n      pop\n      dup2\n      add\n      swap1\n      tag_239\n      swap2\n      swap1\n      tag_240\n      jump\t// in\n    tag_239:\n      pop\n        /* \"contracts/core/JobBoardDelta_flattened.sol\":17948:17952  true */\n      0x01\n        /* \"contracts/core/JobBoardDelta_flattened.sol\":17941:17952  return true */\n      swap2\n      pop\n      pop\n        /* \"contracts/core/JobBoardDelta_flattened.sol\":17580:17970  function transferIn(address _erc20, uint256 _amount ) internal returns (bool _success) {... */\n    tag_229:\n      swap3\n      swap2\n      pop\n      pop\n      jump\t// out\n        /* \"contracts/core/JobBoardDelta_flattened.sol\":17976:18367  function transferOut(address _erc20, uint256 _amount , address _destination) internal returns (bool _success) {... */\n    tag_185:\n        /* \"contracts/core/JobBoardDelta_flattened.sol\":18071:18084  bool _success */\n      0x00\n        /* \"contracts/core/JobBoardDelta_flattened.sol\":10692:10734  0xEeeeeEeeeEeEeeEeEeEeeEEEeeeeEeeeeeeeEEeE */\n      0xeeeeeeeeeeeeeeeeeeeeeeeeeeeeeeeeeeeeeeee\n        /* \"contracts/core/JobBoardDelta_flattened.sol\":18099:18115  _erc20 == NATIVE */\n      0xffffffffffffffffffffffffffffffffffffffff\n      and\n        /* \"contracts/core/JobBoardDelta_flattened.sol\":18099:18105  _erc20 */\n      dup5\n        /* \"contracts/core/JobBoardDelta_flattened.sol\":18099:18115  _erc20 == NATIVE */\n      0xffffffffffffffffffffffffffffffffffffffff\n      and\n      sub\n        /* \"contracts/core/JobBoardDelta_flattened.sol\":18096:18361  if(_erc20 == NATIVE){... */\n      tag_242\n      jumpi\n        /* \"contracts/core/JobBoardDelta_flattened.sol\":18138:18150  _destination */\n      dup2\n        /* \"contracts/core/JobBoardDelta_flattened.sol\":18130:18160  payable(_destination).transfer */\n      0xffffffffffffffffffffffffffffffffffffffff\n      and\n        /* \"contracts/core/JobBoardDelta_flattened.sol\":18130:18169  payable(_destination).transfer(_amount) */\n      0x08fc\n        /* \"contracts/core/JobBoardDelta_flattened.sol\":18161:18168  _amount */\n      dup5\n        /* \"contracts/core/JobBoardDelta_flattened.sol\":18130:18169  payable(_destination).transfer(_amount) */\n      swap1\n      dup2\n      iszero\n      mul\n      swap1\n      mload(0x40)\n      0x00\n      mload(0x40)\n      dup1\n      dup4\n      sub\n      dup2\n      dup6\n      dup9\n      dup9\n      call\n      swap4\n      pop\n      pop\n      pop\n      pop\n      iszero\n      dup1\n      iszero\n      tag_244\n      jumpi\n      returndatasize\n      0x00\n      dup1\n      returndatacopy\n      revert(0x00, returndatasize)\n    tag_244:\n      pop\n        /* \"contracts/core/JobBoardDelta_flattened.sol\":18190:18194  true */\n      0x01\n        /* \"contracts/core/JobBoardDelta_flattened.sol\":18183:18194  return true */\n      swap1\n      pop\n      jump(tag_241)\n        /* \"contracts/core/JobBoardDelta_flattened.sol\":18096:18361  if(_erc20 == NATIVE){... */\n    tag_242:\n        /* \"contracts/core/JobBoardDelta_flattened.sol\":18233:18246  IERC20 erc20_ */\n      0x00\n        /* \"contracts/core/JobBoardDelta_flattened.sol\":18256:18262  _erc20 */\n      dup5\n        /* \"contracts/core/JobBoardDelta_flattened.sol\":18233:18263  IERC20 erc20_ = IERC20(_erc20) */\n      swap1\n      pop\n        /* \"contracts/core/JobBoardDelta_flattened.sol\":18276:18282  erc20_ */\n      dup1\n        /* \"contracts/core/JobBoardDelta_flattened.sol\":18276:18295  erc20_.transferFrom */\n      0xffffffffffffffffffffffffffffffffffffffff\n      and\n      0x23b872dd\n        /* \"contracts/core/JobBoardDelta_flattened.sol\":18296:18300  self */\n      immutable(\"0xb87264ef8bf99bc710f0d9de51012e0b2f3ac2595d912802c21dad6f786bfe81\")\n        /* \"contracts/core/JobBoardDelta_flattened.sol\":18302:18314  _destination */\n      dup6\n        /* \"contracts/core/JobBoardDelta_flattened.sol\":18316:18323  _amount */\n      dup8\n        /* \"contracts/core/JobBoardDelta_flattened.sol\":18276:18324  erc20_.transferFrom(self, _destination, _amount) */\n      mload(0x40)\n      dup5\n      0xffffffff\n      and\n      0xe0\n      shl\n      dup2\n      mstore\n      0x04\n      add\n      tag_246\n      swap4\n      swap3\n      swap2\n      swap1\n      tag_236\n      jump\t// in\n    tag_246:\n      0x20\n      mload(0x40)\n      dup1\n      dup4\n      sub\n      dup2\n      0x00\n      dup8\n      gas\n      call\n      iszero\n      dup1\n      iszero\n      tag_248\n      jumpi\n      returndatasize\n      0x00\n      dup1\n      returndatacopy\n      revert(0x00, returndatasize)\n    tag_248:\n      pop\n      pop\n      pop\n      pop\n      mload(0x40)\n      returndatasize\n      not(0x1f)\n      0x1f\n      dup3\n      add\n      and\n      dup3\n      add\n      dup1\n      0x40\n      mstore\n      pop\n      dup2\n      add\n      swap1\n      tag_249\n      swap2\n      swap1\n      tag_240\n      jump\t// in\n    tag_249:\n      pop\n        /* \"contracts/core/JobBoardDelta_flattened.sol\":18345:18349  true */\n      0x01\n        /* \"contracts/core/JobBoardDelta_flattened.sol\":18338:18349  return true */\n      swap2\n      pop\n      pop\n        /* \"contracts/core/JobBoardDelta_flattened.sol\":17976:18367  function transferOut(address _erc20, uint256 _amount , address _destination) internal returns (bool _success) {... */\n    tag_241:\n      swap4\n      swap3\n      pop\n      pop\n      pop\n      jump\t// out\n        /* \"contracts/core/JobBoardDelta_flattened.sol\":18373:18528  function transferOutCrossChain(address _erc20, uint256 _amount , address _destination, uint256 _destinationChain) internal returns (bool _success) {... */\n    tag_188:\n        /* \"contracts/core/JobBoardDelta_flattened.sol\":18505:18518  bool _success */\n      0x00\n        /* \"contracts/core/JobBoardDelta_flattened.sol\":18373:18528  function transferOutCrossChain(address _erc20, uint256 _amount , address _destination, uint256 _destinationChain) internal returns (bool _success) {... */\n      swap5\n      swap4\n      pop\n      pop\n      pop\n      pop\n      jump\t// out\n        /* \"contracts/core/JobBoardDelta_flattened.sol\":17181:17574  function getDuration(Duration _duration) pure internal returns (uint256 _seconds) {... */\n    tag_206:\n        /* \"contracts/core/JobBoardDelta_flattened.sol\":17245:17261  uint256 _seconds */\n      0x00\n        /* \"contracts/core/JobBoardDelta_flattened.sol\":17284:17300  60 * 60 * 24 * 7 */\n      0x093a80\n        /* \"contracts/core/JobBoardDelta_flattened.sol\":17273:17300  _seconds = 60 * 60 * 24 * 7 */\n      swap1\n      pop\n        /* \"contracts/core/JobBoardDelta_flattened.sol\":17326:17343  Duration.ONE_WEEK */\n      0x00\n        /* \"contracts/core/JobBoardDelta_flattened.sol\":17313:17343  _duration == Duration.ONE_WEEK */\n      0x02\n      dup2\n      gt\n      iszero\n      tag_252\n      jumpi\n      tag_253\n      tag_110\n      jump\t// in\n    tag_253:\n    tag_252:\n        /* \"contracts/core/JobBoardDelta_flattened.sol\":17313:17322  _duration */\n      dup3\n        /* \"contracts/core/JobBoardDelta_flattened.sol\":17313:17343  _duration == Duration.ONE_WEEK */\n      0x02\n      dup2\n      gt\n      iszero\n      tag_254\n      jumpi\n      tag_255\n      tag_110\n      jump\t// in\n    tag_255:\n    tag_254:\n      sub\n        /* \"contracts/core/JobBoardDelta_flattened.sol\":17310:17386  if(_duration == Duration.ONE_WEEK) {... */\n      iszero\n        /* \"contracts/core/JobBoardDelta_flattened.sol\":17359:17374  return _seconds */\n      tag_251\n        /* \"contracts/core/JobBoardDelta_flattened.sol\":17310:17386  if(_duration == Duration.ONE_WEEK) {... */\n      jumpi\n        /* \"contracts/core/JobBoardDelta_flattened.sol\":17413:17431  Duration.TWO_WEEKS */\n      0x01\n        /* \"contracts/core/JobBoardDelta_flattened.sol\":17399:17431  _duration  == Duration.TWO_WEEKS */\n      0x02\n      dup2\n      gt\n      iszero\n      tag_257\n      jumpi\n      tag_258\n      tag_110\n      jump\t// in\n    tag_258:\n    tag_257:\n        /* \"contracts/core/JobBoardDelta_flattened.sol\":17399:17408  _duration */\n      dup3\n        /* \"contracts/core/JobBoardDelta_flattened.sol\":17399:17431  _duration  == Duration.TWO_WEEKS */\n      0x02\n      dup2\n      gt\n      iszero\n      tag_259\n      jumpi\n      tag_260\n      tag_110\n      jump\t// in\n    tag_260:\n    tag_259:\n      sub\n        /* \"contracts/core/JobBoardDelta_flattened.sol\":17396:17477  if(_duration  == Duration.TWO_WEEKS) {... */\n      tag_261\n      jumpi\n        /* \"contracts/core/JobBoardDelta_flattened.sol\":17465:17466  2 */\n      0x02\n        /* \"contracts/core/JobBoardDelta_flattened.sol\":17454:17462  _seconds */\n      dup2\n        /* \"contracts/core/JobBoardDelta_flattened.sol\":17454:17466  _seconds * 2 */\n      tag_262\n      swap2\n      swap1\n      tag_263\n      jump\t// in\n    tag_262:\n        /* \"contracts/core/JobBoardDelta_flattened.sol\":17447:17466  return _seconds * 2 */\n      swap1\n      pop\n      jump(tag_251)\n        /* \"contracts/core/JobBoardDelta_flattened.sol\":17396:17477  if(_duration  == Duration.TWO_WEEKS) {... */\n    tag_261:\n        /* \"contracts/core/JobBoardDelta_flattened.sol\":17503:17521  Duration.ONE_MONTH */\n      0x02\n        /* \"contracts/core/JobBoardDelta_flattened.sol\":17490:17521  _duration == Duration.ONE_MONTH */\n      dup1\n      dup2\n      gt\n      iszero\n      tag_264\n      jumpi\n      tag_265\n      tag_110\n      jump\t// in\n    tag_265:\n    tag_264:\n        /* \"contracts/core/JobBoardDelta_flattened.sol\":17490:17499  _duration */\n      dup3\n        /* \"contracts/core/JobBoardDelta_flattened.sol\":17490:17521  _duration == Duration.ONE_MONTH */\n      0x02\n      dup2\n      gt\n      iszero\n      tag_266\n      jumpi\n      tag_267\n      tag_110\n      jump\t// in\n    tag_267:\n    tag_266:\n      sub\n        /* \"contracts/core/JobBoardDelta_flattened.sol\":17487:17568  if(_duration == Duration.ONE_MONTH) {... */\n      tag_268\n      jumpi\n        /* \"contracts/core/JobBoardDelta_flattened.sol\":17555:17556  4 */\n      0x04\n        /* \"contracts/core/JobBoardDelta_flattened.sol\":17544:17552  _seconds */\n      dup2\n        /* \"contracts/core/JobBoardDelta_flattened.sol\":17544:17556  _seconds * 4 */\n      tag_269\n      swap2\n      swap1\n      tag_263\n      jump\t// in\n    tag_269:\n        /* \"contracts/core/JobBoardDelta_flattened.sol\":17537:17556  return _seconds * 4 */\n      swap1\n      pop\n      jump(tag_251)\n        /* \"contracts/core/JobBoardDelta_flattened.sol\":17487:17568  if(_duration == Duration.ONE_MONTH) {... */\n    tag_268:\n        /* \"contracts/core/JobBoardDelta_flattened.sol\":17181:17574  function getDuration(Duration _duration) pure internal returns (uint256 _seconds) {... */\n    tag_251:\n      swap2\n      swap1\n      pop\n      jump\t// out\n    tag_117:\n      mload(0x40)\n      dup1\n      0xc0\n      add\n      0x40\n      mstore\n      dup1\n      0x00\n      dup2\n      mstore\n      0x20\n      add\n      0x60\n      dup2\n      mstore\n      0x20\n      add\n      0x00\n      dup2\n      mstore\n      0x20\n      add\n      0x00\n      dup2\n      mstore\n      0x20\n      add\n      iszero(iszero(0x00))\n      dup2\n      mstore\n      0x20\n      add\n      and(0xffffffffffffffffffffffffffffffffffffffff, 0x00)\n      dup2\n      mstore\n      pop\n      swap1\n      jump\t// out\n    tag_150:\n      mload(0x40)\n      dup1\n      0x80\n      add\n      0x40\n      mstore\n      dup1\n      and(0xffffffffffffffffffffffffffffffffffffffff, 0x00)\n      dup2\n      mstore\n      0x20\n      add\n      0x00\n      dup2\n      mstore\n      0x20\n      add\n      0x00\n      dup2\n      mstore\n      0x20\n      add\n      0x00\n      dup2\n      mstore\n      pop\n      swap1\n      jump\t// out\n    tag_220:\n      mload(0x40)\n      dup1\n      0xa0\n      add\n      0x40\n      mstore\n      dup1\n      0x00\n      dup2\n      mstore\n      0x20\n      add\n      0x60\n      dup2\n      mstore\n      0x20\n      add\n      0x00\n      dup2\n      mstore\n      0x20\n      add\n      and(0xffffffffffffffffffffffffffffffffffffffff, 0x00)\n      dup2\n      mstore\n      0x20\n      add\n      iszero(iszero(0x00))\n      dup2\n      mstore\n      pop\n      swap1\n      jump\t// out\n        /* \"#utility.yul\":7:82   */\n    tag_270:\n        /* \"#utility.yul\":40:46   */\n      0x00\n        /* \"#utility.yul\":73:75   */\n      0x40\n        /* \"#utility.yul\":67:76   */\n      mload\n        /* \"#utility.yul\":57:76   */\n      swap1\n      pop\n        /* \"#utility.yul\":7:82   */\n      swap1\n      jump\t// out\n        /* \"#utility.yul\":88:205   */\n    tag_271:\n        /* \"#utility.yul\":197:198   */\n      0x00\n        /* \"#utility.yul\":194:195   */\n      dup1\n        /* \"#utility.yul\":187:199   */\n      revert\n        /* \"#utility.yul\":211:328   */\n    tag_272:\n        /* \"#utility.yul\":320:321   */\n      0x00\n        /* \"#utility.yul\":317:318   */\n      dup1\n        /* \"#utility.yul\":310:322   */\n      revert\n        /* \"#utility.yul\":334:411   */\n    tag_273:\n        /* \"#utility.yul\":371:378   */\n      0x00\n        /* \"#utility.yul\":400:405   */\n      dup2\n        /* \"#utility.yul\":389:405   */\n      swap1\n      pop\n        /* \"#utility.yul\":334:411   */\n      swap2\n      swap1\n      pop\n      jump\t// out\n        /* \"#utility.yul\":417:539   */\n    tag_274:\n        /* \"#utility.yul\":490:514   */\n      tag_355\n        /* \"#utility.yul\":508:513   */\n      dup2\n        /* \"#utility.yul\":490:514   */\n      tag_273\n      jump\t// in\n    tag_355:\n        /* \"#utility.yul\":483:488   */\n      dup2\n        /* \"#utility.yul\":480:515   */\n      eq\n        /* \"#utility.yul\":470:533   */\n      tag_356\n      jumpi\n        /* \"#utility.yul\":529:530   */\n      0x00\n        /* \"#utility.yul\":526:527   */\n      dup1\n        /* \"#utility.yul\":519:531   */\n      revert\n        /* \"#utility.yul\":470:533   */\n    tag_356:\n        /* \"#utility.yul\":417:539   */\n      pop\n      jump\t// out\n        /* \"#utility.yul\":545:684   */\n    tag_275:\n        /* \"#utility.yul\":591:596   */\n      0x00\n        /* \"#utility.yul\":629:635   */\n      dup2\n        /* \"#utility.yul\":616:636   */\n      calldataload\n        /* \"#utility.yul\":607:636   */\n      swap1\n      pop\n        /* \"#utility.yul\":645:678   */\n      tag_358\n        /* \"#utility.yul\":672:677   */\n      dup2\n        /* \"#utility.yul\":645:678   */\n      tag_274\n      jump\t// in\n    tag_358:\n        /* \"#utility.yul\":545:684   */\n      swap3\n      swap2\n      pop\n      pop\n      jump\t// out\n        /* \"#utility.yul\":690:1019   */\n    tag_23:\n        /* \"#utility.yul\":749:755   */\n      0x00\n        /* \"#utility.yul\":798:800   */\n      0x20\n        /* \"#utility.yul\":786:795   */\n      dup3\n        /* \"#utility.yul\":777:784   */\n      dup5\n        /* \"#utility.yul\":773:796   */\n      sub\n        /* \"#utility.yul\":769:801   */\n      slt\n        /* \"#utility.yul\":766:885   */\n      iszero\n      tag_360\n      jumpi\n        /* \"#utility.yul\":804:883   */\n      tag_361\n      tag_271\n      jump\t// in\n    tag_361:\n        /* \"#utility.yul\":766:885   */\n    tag_360:\n        /* \"#utility.yul\":924:925   */\n      0x00\n        /* \"#utility.yul\":949:1002   */\n      tag_362\n        /* \"#utility.yul\":994:1001   */\n      dup5\n        /* \"#utility.yul\":985:991   */\n      dup3\n        /* \"#utility.yul\":974:983   */\n      dup6\n        /* \"#utility.yul\":970:992   */\n      add\n        /* \"#utility.yul\":949:1002   */\n      tag_275\n      jump\t// in\n    tag_362:\n        /* \"#utility.yul\":939:1002   */\n      swap2\n      pop\n        /* \"#utility.yul\":895:1012   */\n      pop\n        /* \"#utility.yul\":690:1019   */\n      swap3\n      swap2\n      pop\n      pop\n      jump\t// out\n        /* \"#utility.yul\":1025:1139   */\n    tag_276:\n        /* \"#utility.yul\":1092:1098   */\n      0x00\n        /* \"#utility.yul\":1126:1131   */\n      dup2\n        /* \"#utility.yul\":1120:1132   */\n      mload\n        /* \"#utility.yul\":1110:1132   */\n      swap1\n      pop\n        /* \"#utility.yul\":1025:1139   */\n      swap2\n      swap1\n      pop\n      jump\t// out\n        /* \"#utility.yul\":1145:1329   */\n    tag_277:\n        /* \"#utility.yul\":1244:1255   */\n      0x00\n        /* \"#utility.yul\":1278:1284   */\n      dup3\n        /* \"#utility.yul\":1273:1276   */\n      dup3\n        /* \"#utility.yul\":1266:1285   */\n      mstore\n        /* \"#utility.yul\":1318:1322   */\n      0x20\n        /* \"#utility.yul\":1313:1316   */\n      dup3\n        /* \"#utility.yul\":1309:1323   */\n      add\n        /* \"#utility.yul\":1294:1323   */\n      swap1\n      pop\n        /* \"#utility.yul\":1145:1329   */\n      swap3\n      swap2\n      pop\n      pop\n      jump\t// out\n        /* \"#utility.yul\":1335:1467   */\n    tag_278:\n        /* \"#utility.yul\":1402:1406   */\n      0x00\n        /* \"#utility.yul\":1425:1428   */\n      dup2\n        /* \"#utility.yul\":1417:1428   */\n      swap1\n      pop\n        /* \"#utility.yul\":1455:1459   */\n      0x20\n        /* \"#utility.yul\":1450:1453   */\n      dup3\n        /* \"#utility.yul\":1446:1460   */\n      add\n        /* \"#utility.yul\":1438:1460   */\n      swap1\n      pop\n        /* \"#utility.yul\":1335:1467   */\n      swap2\n      swap1\n      pop\n      jump\t// out\n        /* \"#utility.yul\":1473:1581   */\n    tag_279:\n        /* \"#utility.yul\":1550:1574   */\n      tag_367\n        /* \"#utility.yul\":1568:1573   */\n      dup2\n        /* \"#utility.yul\":1550:1574   */\n      tag_273\n      jump\t// in\n    tag_367:\n        /* \"#utility.yul\":1545:1548   */\n      dup3\n        /* \"#utility.yul\":1538:1575   */\n      mstore\n        /* \"#utility.yul\":1473:1581   */\n      pop\n      pop\n      jump\t// out\n        /* \"#utility.yul\":1587:1766   */\n    tag_280:\n        /* \"#utility.yul\":1656:1666   */\n      0x00\n        /* \"#utility.yul\":1677:1723   */\n      tag_369\n        /* \"#utility.yul\":1719:1722   */\n      dup4\n        /* \"#utility.yul\":1711:1717   */\n      dup4\n        /* \"#utility.yul\":1677:1723   */\n      tag_279\n      jump\t// in\n    tag_369:\n        /* \"#utility.yul\":1755:1759   */\n      0x20\n        /* \"#utility.yul\":1750:1753   */\n      dup4\n        /* \"#utility.yul\":1746:1760   */\n      add\n        /* \"#utility.yul\":1732:1760   */\n      swap1\n      pop\n        /* \"#utility.yul\":1587:1766   */\n      swap3\n      swap2\n      pop\n      pop\n      jump\t// out\n        /* \"#utility.yul\":1772:1885   */\n    tag_281:\n        /* \"#utility.yul\":1842:1846   */\n      0x00\n        /* \"#utility.yul\":1874:1878   */\n      0x20\n        /* \"#utility.yul\":1869:1872   */\n      dup3\n        /* \"#utility.yul\":1865:1879   */\n      add\n        /* \"#utility.yul\":1857:1879   */\n      swap1\n      pop\n        /* \"#utility.yul\":1772:1885   */\n      swap2\n      swap1\n      pop\n      jump\t// out\n        /* \"#utility.yul\":1921:2653   */\n    tag_282:\n        /* \"#utility.yul\":2040:2043   */\n      0x00\n        /* \"#utility.yul\":2069:2123   */\n      tag_372\n        /* \"#utility.yul\":2117:2122   */\n      dup3\n        /* \"#utility.yul\":2069:2123   */\n      tag_276\n      jump\t// in\n    tag_372:\n        /* \"#utility.yul\":2139:2225   */\n      tag_373\n        /* \"#utility.yul\":2218:2224   */\n      dup2\n        /* \"#utility.yul\":2213:2216   */\n      dup6\n        /* \"#utility.yul\":2139:2225   */\n      tag_277\n      jump\t// in\n    tag_373:\n        /* \"#utility.yul\":2132:2225   */\n      swap4\n      pop\n        /* \"#utility.yul\":2249:2305   */\n      tag_374\n        /* \"#utility.yul\":2299:2304   */\n      dup4\n        /* \"#utility.yul\":2249:2305   */\n      tag_278\n      jump\t// in\n    tag_374:\n        /* \"#utility.yul\":2328:2335   */\n      dup1\n        /* \"#utility.yul\":2359:2360   */\n      0x00\n        /* \"#utility.yul\":2344:2628   */\n    tag_375:\n        /* \"#utility.yul\":2369:2375   */\n      dup4\n        /* \"#utility.yul\":2366:2367   */\n      dup2\n        /* \"#utility.yul\":2363:2376   */\n      lt\n        /* \"#utility.yul\":2344:2628   */\n      iszero\n      tag_377\n      jumpi\n        /* \"#utility.yul\":2445:2451   */\n      dup2\n        /* \"#utility.yul\":2439:2452   */\n      mload\n        /* \"#utility.yul\":2472:2535   */\n      tag_378\n        /* \"#utility.yul\":2531:2534   */\n      dup9\n        /* \"#utility.yul\":2516:2529   */\n      dup3\n        /* \"#utility.yul\":2472:2535   */\n      tag_280\n      jump\t// in\n    tag_378:\n        /* \"#utility.yul\":2465:2535   */\n      swap8\n      pop\n        /* \"#utility.yul\":2558:2618   */\n      tag_379\n        /* \"#utility.yul\":2611:2617   */\n      dup4\n        /* \"#utility.yul\":2558:2618   */\n      tag_281\n      jump\t// in\n    tag_379:\n        /* \"#utility.yul\":2548:2618   */\n      swap3\n      pop\n        /* \"#utility.yul\":2404:2628   */\n      pop\n        /* \"#utility.yul\":2391:2392   */\n      0x01\n        /* \"#utility.yul\":2388:2389   */\n      dup2\n        /* \"#utility.yul\":2384:2393   */\n      add\n        /* \"#utility.yul\":2379:2393   */\n      swap1\n      pop\n        /* \"#utility.yul\":2344:2628   */\n      jump(tag_375)\n    tag_377:\n        /* \"#utility.yul\":2348:2362   */\n      pop\n        /* \"#utility.yul\":2644:2647   */\n      dup6\n        /* \"#utility.yul\":2637:2647   */\n      swap4\n      pop\n        /* \"#utility.yul\":2045:2653   */\n      pop\n      pop\n      pop\n        /* \"#utility.yul\":1921:2653   */\n      swap3\n      swap2\n      pop\n      pop\n      jump\t// out\n        /* \"#utility.yul\":2659:3032   */\n    tag_26:\n        /* \"#utility.yul\":2802:2806   */\n      0x00\n        /* \"#utility.yul\":2840:2842   */\n      0x20\n        /* \"#utility.yul\":2829:2838   */\n      dup3\n        /* \"#utility.yul\":2825:2843   */\n      add\n        /* \"#utility.yul\":2817:2843   */\n      swap1\n      pop\n        /* \"#utility.yul\":2889:2898   */\n      dup2\n        /* \"#utility.yul\":2883:2887   */\n      dup2\n        /* \"#utility.yul\":2879:2899   */\n      sub\n        /* \"#utility.yul\":2875:2876   */\n      0x00\n        /* \"#utility.yul\":2864:2873   */\n      dup4\n        /* \"#utility.yul\":2860:2877   */\n      add\n        /* \"#utility.yul\":2853:2900   */\n      mstore\n        /* \"#utility.yul\":2917:3025   */\n      tag_381\n        /* \"#utility.yul\":3020:3024   */\n      dup2\n        /* \"#utility.yul\":3011:3017   */\n      dup5\n        /* \"#utility.yul\":2917:3025   */\n      tag_282\n      jump\t// in\n    tag_381:\n        /* \"#utility.yul\":2909:3025   */\n      swap1\n      pop\n        /* \"#utility.yul\":2659:3032   */\n      swap3\n      swap2\n      pop\n      pop\n      jump\t// out\n        /* \"#utility.yul\":3038:3149   */\n    tag_283:\n        /* \"#utility.yul\":3123:3124   */\n      0x03\n        /* \"#utility.yul\":3116:3121   */\n      dup2\n        /* \"#utility.yul\":3113:3125   */\n      lt\n        /* \"#utility.yul\":3103:3143   */\n      tag_383\n      jumpi\n        /* \"#utility.yul\":3139:3140   */\n      0x00\n        /* \"#utility.yul\":3136:3137   */\n      dup1\n        /* \"#utility.yul\":3129:3141   */\n      revert\n        /* \"#utility.yul\":3103:3143   */\n    tag_383:\n        /* \"#utility.yul\":3038:3149   */\n      pop\n      jump\t// out\n        /* \"#utility.yul\":3155:3318   */\n    tag_284:\n        /* \"#utility.yul\":3213:3218   */\n      0x00\n        /* \"#utility.yul\":3251:3257   */\n      dup2\n        /* \"#utility.yul\":3238:3258   */\n      calldataload\n        /* \"#utility.yul\":3229:3258   */\n      swap1\n      pop\n        /* \"#utility.yul\":3267:3312   */\n      tag_385\n        /* \"#utility.yul\":3306:3311   */\n      dup2\n        /* \"#utility.yul\":3267:3312   */\n      tag_283\n      jump\t// in\n    tag_385:\n        /* \"#utility.yul\":3155:3318   */\n      swap3\n      swap2\n      pop\n      pop\n      jump\t// out\n        /* \"#utility.yul\":3324:3677   */\n    tag_30:\n        /* \"#utility.yul\":3395:3401   */\n      0x00\n        /* \"#utility.yul\":3444:3446   */\n      0x20\n        /* \"#utility.yul\":3432:3441   */\n      dup3\n        /* \"#utility.yul\":3423:3430   */\n      dup5\n        /* \"#utility.yul\":3419:3442   */\n      sub\n        /* \"#utility.yul\":3415:3447   */\n      slt\n        /* \"#utility.yul\":3412:3531   */\n      iszero\n      tag_387\n      jumpi\n        /* \"#utility.yul\":3450:3529   */\n      tag_388\n      tag_271\n      jump\t// in\n    tag_388:\n        /* \"#utility.yul\":3412:3531   */\n    tag_387:\n        /* \"#utility.yul\":3570:3571   */\n      0x00\n        /* \"#utility.yul\":3595:3660   */\n      tag_389\n        /* \"#utility.yul\":3652:3659   */\n      dup5\n        /* \"#utility.yul\":3643:3649   */\n      dup3\n        /* \"#utility.yul\":3632:3641   */\n      dup6\n        /* \"#utility.yul\":3628:3650   */\n      add\n        /* \"#utility.yul\":3595:3660   */\n      tag_284\n      jump\t// in\n    tag_389:\n        /* \"#utility.yul\":3585:3660   */\n      swap2\n      pop\n        /* \"#utility.yul\":3541:3670   */\n      pop\n        /* \"#utility.yul\":3324:3677   */\n      swap3\n      swap2\n      pop\n      pop\n      jump\t// out\n        /* \"#utility.yul\":3683:3801   */\n    tag_285:\n        /* \"#utility.yul\":3770:3794   */\n      tag_391\n        /* \"#utility.yul\":3788:3793   */\n      dup2\n        /* \"#utility.yul\":3770:3794   */\n      tag_273\n      jump\t// in\n    tag_391:\n        /* \"#utility.yul\":3765:3768   */\n      dup3\n        /* \"#utility.yul\":3758:3795   */\n      mstore\n        /* \"#utility.yul\":3683:3801   */\n      pop\n      pop\n      jump\t// out\n        /* \"#utility.yul\":3807:4029   */\n    tag_33:\n        /* \"#utility.yul\":3900:3904   */\n      0x00\n        /* \"#utility.yul\":3938:3940   */\n      0x20\n        /* \"#utility.yul\":3927:3936   */\n      dup3\n        /* \"#utility.yul\":3923:3941   */\n      add\n        /* \"#utility.yul\":3915:3941   */\n      swap1\n      pop\n        /* \"#utility.yul\":3951:4022   */\n      tag_393\n        /* \"#utility.yul\":4019:4020   */\n      0x00\n        /* \"#utility.yul\":4008:4017   */\n      dup4\n        /* \"#utility.yul\":4004:4021   */\n      add\n        /* \"#utility.yul\":3995:4001   */\n      dup5\n        /* \"#utility.yul\":3951:4022   */\n      tag_285\n      jump\t// in\n    tag_393:\n        /* \"#utility.yul\":3807:4029   */\n      swap3\n      swap2\n      pop\n      pop\n      jump\t// out\n        /* \"#utility.yul\":4035:4134   */\n    tag_286:\n        /* \"#utility.yul\":4087:4093   */\n      0x00\n        /* \"#utility.yul\":4121:4126   */\n      dup2\n        /* \"#utility.yul\":4115:4127   */\n      mload\n        /* \"#utility.yul\":4105:4127   */\n      swap1\n      pop\n        /* \"#utility.yul\":4035:4134   */\n      swap2\n      swap1\n      pop\n      jump\t// out\n        /* \"#utility.yul\":4140:4299   */\n    tag_287:\n        /* \"#utility.yul\":4214:4225   */\n      0x00\n        /* \"#utility.yul\":4248:4254   */\n      dup3\n        /* \"#utility.yul\":4243:4246   */\n      dup3\n        /* \"#utility.yul\":4236:4255   */\n      mstore\n        /* \"#utility.yul\":4288:4292   */\n      0x20\n        /* \"#utility.yul\":4283:4286   */\n      dup3\n        /* \"#utility.yul\":4279:4293   */\n      add\n        /* \"#utility.yul\":4264:4293   */\n      swap1\n      pop\n        /* \"#utility.yul\":4140:4299   */\n      swap3\n      swap2\n      pop\n      pop\n      jump\t// out\n        /* \"#utility.yul\":4305:4444   */\n    tag_288:\n        /* \"#utility.yul\":4394:4400   */\n      dup3\n        /* \"#utility.yul\":4389:4392   */\n      dup2\n        /* \"#utility.yul\":4384:4387   */\n      dup4\n        /* \"#utility.yul\":4378:4401   */\n      mcopy\n        /* \"#utility.yul\":4435:4436   */\n      0x00\n        /* \"#utility.yul\":4426:4432   */\n      dup4\n        /* \"#utility.yul\":4421:4424   */\n      dup4\n        /* \"#utility.yul\":4417:4433   */\n      add\n        /* \"#utility.yul\":4410:4437   */\n      mstore\n        /* \"#utility.yul\":4305:4444   */\n      pop\n      pop\n      pop\n      jump\t// out\n        /* \"#utility.yul\":4450:4552   */\n    tag_289:\n        /* \"#utility.yul\":4491:4497   */\n      0x00\n        /* \"#utility.yul\":4542:4544   */\n      0x1f\n        /* \"#utility.yul\":4538:4545   */\n      not\n        /* \"#utility.yul\":4533:4535   */\n      0x1f\n        /* \"#utility.yul\":4526:4531   */\n      dup4\n        /* \"#utility.yul\":4522:4536   */\n      add\n        /* \"#utility.yul\":4518:4546   */\n      and\n        /* \"#utility.yul\":4508:4546   */\n      swap1\n      pop\n        /* \"#utility.yul\":4450:4552   */\n      swap2\n      swap1\n      pop\n      jump\t// out\n        /* \"#utility.yul\":4558:4915   */\n    tag_290:\n        /* \"#utility.yul\":4636:4639   */\n      0x00\n        /* \"#utility.yul\":4664:4703   */\n      tag_399\n        /* \"#utility.yul\":4697:4702   */\n      dup3\n        /* \"#utility.yul\":4664:4703   */\n      tag_286\n      jump\t// in\n    tag_399:\n        /* \"#utility.yul\":4719:4780   */\n      tag_400\n        /* \"#utility.yul\":4773:4779   */\n      dup2\n        /* \"#utility.yul\":4768:4771   */\n      dup6\n        /* \"#utility.yul\":4719:4780   */\n      tag_287\n      jump\t// in\n    tag_400:\n        /* \"#utility.yul\":4712:4780   */\n      swap4\n      pop\n        /* \"#utility.yul\":4789:4854   */\n      tag_401\n        /* \"#utility.yul\":4847:4853   */\n      dup2\n        /* \"#utility.yul\":4842:4845   */\n      dup6\n        /* \"#utility.yul\":4835:4839   */\n      0x20\n        /* \"#utility.yul\":4828:4833   */\n      dup7\n        /* \"#utility.yul\":4824:4840   */\n      add\n        /* \"#utility.yul\":4789:4854   */\n      tag_288\n      jump\t// in\n    tag_401:\n        /* \"#utility.yul\":4879:4908   */\n      tag_402\n        /* \"#utility.yul\":4901:4907   */\n      dup2\n        /* \"#utility.yul\":4879:4908   */\n      tag_289\n      jump\t// in\n    tag_402:\n        /* \"#utility.yul\":4874:4877   */\n      dup5\n        /* \"#utility.yul\":4870:4909   */\n      add\n        /* \"#utility.yul\":4863:4909   */\n      swap2\n      pop\n        /* \"#utility.yul\":4640:4915   */\n      pop\n        /* \"#utility.yul\":4558:4915   */\n      swap3\n      swap2\n      pop\n      pop\n      jump\t// out\n        /* \"#utility.yul\":4921:5011   */\n    tag_291:\n        /* \"#utility.yul\":4955:4962   */\n      0x00\n        /* \"#utility.yul\":4998:5003   */\n      dup2\n        /* \"#utility.yul\":4991:5004   */\n      iszero\n        /* \"#utility.yul\":4984:5005   */\n      iszero\n        /* \"#utility.yul\":4973:5005   */\n      swap1\n      pop\n        /* \"#utility.yul\":4921:5011   */\n      swap2\n      swap1\n      pop\n      jump\t// out\n        /* \"#utility.yul\":5017:5116   */\n    tag_292:\n        /* \"#utility.yul\":5088:5109   */\n      tag_405\n        /* \"#utility.yul\":5103:5108   */\n      dup2\n        /* \"#utility.yul\":5088:5109   */\n      tag_291\n      jump\t// in\n    tag_405:\n        /* \"#utility.yul\":5083:5086   */\n      dup3\n        /* \"#utility.yul\":5076:5110   */\n      mstore\n        /* \"#utility.yul\":5017:5116   */\n      pop\n      pop\n      jump\t// out\n        /* \"#utility.yul\":5122:5248   */\n    tag_293:\n        /* \"#utility.yul\":5159:5166   */\n      0x00\n        /* \"#utility.yul\":5199:5241   */\n      0xffffffffffffffffffffffffffffffffffffffff\n        /* \"#utility.yul\":5192:5197   */\n      dup3\n        /* \"#utility.yul\":5188:5242   */\n      and\n        /* \"#utility.yul\":5177:5242   */\n      swap1\n      pop\n        /* \"#utility.yul\":5122:5248   */\n      swap2\n      swap1\n      pop\n      jump\t// out\n        /* \"#utility.yul\":5254:5350   */\n    tag_294:\n        /* \"#utility.yul\":5291:5298   */\n      0x00\n        /* \"#utility.yul\":5320:5344   */\n      tag_408\n        /* \"#utility.yul\":5338:5343   */\n      dup3\n        /* \"#utility.yul\":5320:5344   */\n      tag_293\n      jump\t// in\n    tag_408:\n        /* \"#utility.yul\":5309:5344   */\n      swap1\n      pop\n        /* \"#utility.yul\":5254:5350   */\n      swap2\n      swap1\n      pop\n      jump\t// out\n        /* \"#utility.yul\":5356:5464   */\n    tag_295:\n        /* \"#utility.yul\":5433:5457   */\n      tag_410\n        /* \"#utility.yul\":5451:5456   */\n      dup2\n        /* \"#utility.yul\":5433:5457   */\n      tag_294\n      jump\t// in\n    tag_410:\n        /* \"#utility.yul\":5428:5431   */\n      dup3\n        /* \"#utility.yul\":5421:5458   */\n      mstore\n        /* \"#utility.yul\":5356:5464   */\n      pop\n      pop\n      jump\t// out\n        /* \"#utility.yul\":5502:6804   */\n    tag_296:\n        /* \"#utility.yul\":5611:5614   */\n      0x00\n        /* \"#utility.yul\":5647:5651   */\n      0xc0\n        /* \"#utility.yul\":5642:5645   */\n      dup4\n        /* \"#utility.yul\":5638:5652   */\n      add\n        /* \"#utility.yul\":5732:5736   */\n      0x00\n        /* \"#utility.yul\":5725:5730   */\n      dup4\n        /* \"#utility.yul\":5721:5737   */\n      add\n        /* \"#utility.yul\":5715:5738   */\n      mload\n        /* \"#utility.yul\":5751:5814   */\n      tag_412\n        /* \"#utility.yul\":5808:5812   */\n      0x00\n        /* \"#utility.yul\":5803:5806   */\n      dup7\n        /* \"#utility.yul\":5799:5813   */\n      add\n        /* \"#utility.yul\":5785:5797   */\n      dup3\n        /* \"#utility.yul\":5751:5814   */\n      tag_279\n      jump\t// in\n    tag_412:\n        /* \"#utility.yul\":5662:5824   */\n      pop\n        /* \"#utility.yul\":5905:5909   */\n      0x20\n        /* \"#utility.yul\":5898:5903   */\n      dup4\n        /* \"#utility.yul\":5894:5910   */\n      add\n        /* \"#utility.yul\":5888:5911   */\n      mload\n        /* \"#utility.yul\":5958:5961   */\n      dup5\n        /* \"#utility.yul\":5952:5956   */\n      dup3\n        /* \"#utility.yul\":5948:5962   */\n      sub\n        /* \"#utility.yul\":5941:5945   */\n      0x20\n        /* \"#utility.yul\":5936:5939   */\n      dup7\n        /* \"#utility.yul\":5932:5946   */\n      add\n        /* \"#utility.yul\":5925:5963   */\n      mstore\n        /* \"#utility.yul\":5984:6057   */\n      tag_413\n        /* \"#utility.yul\":6052:6056   */\n      dup3\n        /* \"#utility.yul\":6038:6050   */\n      dup3\n        /* \"#utility.yul\":5984:6057   */\n      tag_290\n      jump\t// in\n    tag_413:\n        /* \"#utility.yul\":5976:6057   */\n      swap2\n      pop\n        /* \"#utility.yul\":5834:6068   */\n      pop\n        /* \"#utility.yul\":6156:6160   */\n      0x40\n        /* \"#utility.yul\":6149:6154   */\n      dup4\n        /* \"#utility.yul\":6145:6161   */\n      add\n        /* \"#utility.yul\":6139:6162   */\n      mload\n        /* \"#utility.yul\":6175:6238   */\n      tag_414\n        /* \"#utility.yul\":6232:6236   */\n      0x40\n        /* \"#utility.yul\":6227:6230   */\n      dup7\n        /* \"#utility.yul\":6223:6237   */\n      add\n        /* \"#utility.yul\":6209:6221   */\n      dup3\n        /* \"#utility.yul\":6175:6238   */\n      tag_279\n      jump\t// in\n    tag_414:\n        /* \"#utility.yul\":6078:6248   */\n      pop\n        /* \"#utility.yul\":6337:6341   */\n      0x60\n        /* \"#utility.yul\":6330:6335   */\n      dup4\n        /* \"#utility.yul\":6326:6342   */\n      add\n        /* \"#utility.yul\":6320:6343   */\n      mload\n        /* \"#utility.yul\":6356:6419   */\n      tag_415\n        /* \"#utility.yul\":6413:6417   */\n      0x60\n        /* \"#utility.yul\":6408:6411   */\n      dup7\n        /* \"#utility.yul\":6404:6418   */\n      add\n        /* \"#utility.yul\":6390:6402   */\n      dup3\n        /* \"#utility.yul\":6356:6419   */\n      tag_279\n      jump\t// in\n    tag_415:\n        /* \"#utility.yul\":6258:6429   */\n      pop\n        /* \"#utility.yul\":6516:6520   */\n      0x80\n        /* \"#utility.yul\":6509:6514   */\n      dup4\n        /* \"#utility.yul\":6505:6521   */\n      add\n        /* \"#utility.yul\":6499:6522   */\n      mload\n        /* \"#utility.yul\":6535:6592   */\n      tag_416\n        /* \"#utility.yul\":6586:6590   */\n      0x80\n        /* \"#utility.yul\":6581:6584   */\n      dup7\n        /* \"#utility.yul\":6577:6591   */\n      add\n        /* \"#utility.yul\":6563:6575   */\n      dup3\n        /* \"#utility.yul\":6535:6592   */\n      tag_292\n      jump\t// in\n    tag_416:\n        /* \"#utility.yul\":6439:6602   */\n      pop\n        /* \"#utility.yul\":6685:6689   */\n      0xa0\n        /* \"#utility.yul\":6678:6683   */\n      dup4\n        /* \"#utility.yul\":6674:6690   */\n      add\n        /* \"#utility.yul\":6668:6691   */\n      mload\n        /* \"#utility.yul\":6704:6767   */\n      tag_417\n        /* \"#utility.yul\":6761:6765   */\n      0xa0\n        /* \"#utility.yul\":6756:6759   */\n      dup7\n        /* \"#utility.yul\":6752:6766   */\n      add\n        /* \"#utility.yul\":6738:6750   */\n      dup3\n        /* \"#utility.yul\":6704:6767   */\n      tag_295\n      jump\t// in\n    tag_417:\n        /* \"#utility.yul\":6612:6777   */\n      pop\n        /* \"#utility.yul\":6794:6798   */\n      dup1\n        /* \"#utility.yul\":6787:6798   */\n      swap2\n      pop\n        /* \"#utility.yul\":5616:6804   */\n      pop\n        /* \"#utility.yul\":5502:6804   */\n      swap3\n      swap2\n      pop\n      pop\n      jump\t// out\n        /* \"#utility.yul\":6810:7163   */\n    tag_43:\n        /* \"#utility.yul\":6943:6947   */\n      0x00\n        /* \"#utility.yul\":6981:6983   */\n      0x20\n        /* \"#utility.yul\":6970:6979   */\n      dup3\n        /* \"#utility.yul\":6966:6984   */\n      add\n        /* \"#utility.yul\":6958:6984   */\n      swap1\n      pop\n        /* \"#utility.yul\":7030:7039   */\n      dup2\n        /* \"#utility.yul\":7024:7028   */\n      dup2\n        /* \"#utility.yul\":7020:7040   */\n      sub\n        /* \"#utility.yul\":7016:7017   */\n      0x00\n        /* \"#utility.yul\":7005:7014   */\n      dup4\n        /* \"#utility.yul\":7001:7018   */\n      add\n        /* \"#utility.yul\":6994:7041   */\n      mstore\n        /* \"#utility.yul\":7058:7156   */\n      tag_419\n        /* \"#utility.yul\":7151:7155   */\n      dup2\n        /* \"#utility.yul\":7142:7148   */\n      dup5\n        /* \"#utility.yul\":7058:7156   */\n      tag_296\n      jump\t// in\n    tag_419:\n        /* \"#utility.yul\":7050:7156   */\n      swap1\n      pop\n        /* \"#utility.yul\":6810:7163   */\n      swap3\n      swap2\n      pop\n      pop\n      jump\t// out\n        /* \"#utility.yul\":7169:7286   */\n    tag_297:\n        /* \"#utility.yul\":7278:7279   */\n      0x00\n        /* \"#utility.yul\":7275:7276   */\n      dup1\n        /* \"#utility.yul\":7268:7280   */\n      revert\n        /* \"#utility.yul\":7292:7409   */\n    tag_298:\n        /* \"#utility.yul\":7401:7402   */\n      0x00\n        /* \"#utility.yul\":7398:7399   */\n      dup1\n        /* \"#utility.yul\":7391:7403   */\n      revert\n        /* \"#utility.yul\":7415:7595   */\n    tag_299:\n        /* \"#utility.yul\":7463:7540   */\n      0x4e487b7100000000000000000000000000000000000000000000000000000000\n        /* \"#utility.yul\":7460:7461   */\n      0x00\n        /* \"#utility.yul\":7453:7541   */\n      mstore\n        /* \"#utility.yul\":7560:7564   */\n      0x41\n        /* \"#utility.yul\":7557:7558   */\n      0x04\n        /* \"#utility.yul\":7550:7565   */\n      mstore\n        /* \"#utility.yul\":7584:7588   */\n      0x24\n        /* \"#utility.yul\":7581:7582   */\n      0x00\n        /* \"#utility.yul\":7574:7589   */\n      revert\n        /* \"#utility.yul\":7601:7882   */\n    tag_300:\n        /* \"#utility.yul\":7684:7711   */\n      tag_424\n        /* \"#utility.yul\":7706:7710   */\n      dup3\n        /* \"#utility.yul\":7684:7711   */\n      tag_289\n      jump\t// in\n    tag_424:\n        /* \"#utility.yul\":7676:7682   */\n      dup2\n        /* \"#utility.yul\":7672:7712   */\n      add\n        /* \"#utility.yul\":7814:7820   */\n      dup2\n        /* \"#utility.yul\":7802:7812   */\n      dup2\n        /* \"#utility.yul\":7799:7821   */\n      lt\n        /* \"#utility.yul\":7778:7796   */\n      0xffffffffffffffff\n        /* \"#utility.yul\":7766:7776   */\n      dup3\n        /* \"#utility.yul\":7763:7797   */\n      gt\n        /* \"#utility.yul\":7760:7822   */\n      or\n        /* \"#utility.yul\":7757:7845   */\n      iszero\n      tag_425\n      jumpi\n        /* \"#utility.yul\":7825:7843   */\n      tag_426\n      tag_299\n      jump\t// in\n    tag_426:\n        /* \"#utility.yul\":7757:7845   */\n    tag_425:\n        /* \"#utility.yul\":7865:7875   */\n      dup1\n        /* \"#utility.yul\":7861:7863   */\n      0x40\n        /* \"#utility.yul\":7854:7876   */\n      mstore\n        /* \"#utility.yul\":7644:7882   */\n      pop\n        /* \"#utility.yul\":7601:7882   */\n      pop\n      pop\n      jump\t// out\n        /* \"#utility.yul\":7888:8017   */\n    tag_301:\n        /* \"#utility.yul\":7922:7928   */\n      0x00\n        /* \"#utility.yul\":7949:7969   */\n      tag_428\n      tag_270\n      jump\t// in\n    tag_428:\n        /* \"#utility.yul\":7939:7969   */\n      swap1\n      pop\n        /* \"#utility.yul\":7978:8011   */\n      tag_429\n        /* \"#utility.yul\":8006:8010   */\n      dup3\n        /* \"#utility.yul\":7998:8004   */\n      dup3\n        /* \"#utility.yul\":7978:8011   */\n      tag_300\n      jump\t// in\n    tag_429:\n        /* \"#utility.yul\":7888:8017   */\n      swap2\n      swap1\n      pop\n      jump\t// out\n        /* \"#utility.yul\":8023:8331   */\n    tag_302:\n        /* \"#utility.yul\":8085:8089   */\n      0x00\n        /* \"#utility.yul\":8175:8193   */\n      0xffffffffffffffff\n        /* \"#utility.yul\":8167:8173   */\n      dup3\n        /* \"#utility.yul\":8164:8194   */\n      gt\n        /* \"#utility.yul\":8161:8217   */\n      iszero\n      tag_431\n      jumpi\n        /* \"#utility.yul\":8197:8215   */\n      tag_432\n      tag_299\n      jump\t// in\n    tag_432:\n        /* \"#utility.yul\":8161:8217   */\n    tag_431:\n        /* \"#utility.yul\":8235:8264   */\n      tag_433\n        /* \"#utility.yul\":8257:8263   */\n      dup3\n        /* \"#utility.yul\":8235:8264   */\n      tag_289\n      jump\t// in\n    tag_433:\n        /* \"#utility.yul\":8227:8264   */\n      swap1\n      pop\n        /* \"#utility.yul\":8319:8323   */\n      0x20\n        /* \"#utility.yul\":8313:8317   */\n      dup2\n        /* \"#utility.yul\":8309:8324   */\n      add\n        /* \"#utility.yul\":8301:8324   */\n      swap1\n      pop\n        /* \"#utility.yul\":8023:8331   */\n      swap2\n      swap1\n      pop\n      jump\t// out\n        /* \"#utility.yul\":8337:8485   */\n    tag_303:\n        /* \"#utility.yul\":8435:8441   */\n      dup3\n        /* \"#utility.yul\":8430:8433   */\n      dup2\n        /* \"#utility.yul\":8425:8428   */\n      dup4\n        /* \"#utility.yul\":8412:8442   */\n      calldatacopy\n        /* \"#utility.yul\":8476:8477   */\n      0x00\n        /* \"#utility.yul\":8467:8473   */\n      dup4\n        /* \"#utility.yul\":8462:8465   */\n      dup4\n        /* \"#utility.yul\":8458:8474   */\n      add\n        /* \"#utility.yul\":8451:8478   */\n      mstore\n        /* \"#utility.yul\":8337:8485   */\n      pop\n      pop\n      pop\n      jump\t// out\n        /* \"#utility.yul\":8491:8916   */\n    tag_304:\n        /* \"#utility.yul\":8569:8574   */\n      0x00\n        /* \"#utility.yul\":8594:8660   */\n      tag_436\n        /* \"#utility.yul\":8610:8659   */\n      tag_437\n        /* \"#utility.yul\":8652:8658   */\n      dup5\n        /* \"#utility.yul\":8610:8659   */\n      tag_302\n      jump\t// in\n    tag_437:\n        /* \"#utility.yul\":8594:8660   */\n      tag_301\n      jump\t// in\n    tag_436:\n        /* \"#utility.yul\":8585:8660   */\n      swap1\n      pop\n        /* \"#utility.yul\":8683:8689   */\n      dup3\n        /* \"#utility.yul\":8676:8681   */\n      dup2\n        /* \"#utility.yul\":8669:8690   */\n      mstore\n        /* \"#utility.yul\":8721:8725   */\n      0x20\n        /* \"#utility.yul\":8714:8719   */\n      dup2\n        /* \"#utility.yul\":8710:8726   */\n      add\n        /* \"#utility.yul\":8759:8762   */\n      dup5\n        /* \"#utility.yul\":8750:8756   */\n      dup5\n        /* \"#utility.yul\":8745:8748   */\n      dup5\n        /* \"#utility.yul\":8741:8757   */\n      add\n        /* \"#utility.yul\":8738:8763   */\n      gt\n        /* \"#utility.yul\":8735:8847   */\n      iszero\n      tag_438\n      jumpi\n        /* \"#utility.yul\":8766:8845   */\n      tag_439\n      tag_298\n      jump\t// in\n    tag_439:\n        /* \"#utility.yul\":8735:8847   */\n    tag_438:\n        /* \"#utility.yul\":8856:8910   */\n      tag_440\n        /* \"#utility.yul\":8903:8909   */\n      dup5\n        /* \"#utility.yul\":8898:8901   */\n      dup3\n        /* \"#utility.yul\":8893:8896   */\n      dup6\n        /* \"#utility.yul\":8856:8910   */\n      tag_303\n      jump\t// in\n    tag_440:\n        /* \"#utility.yul\":8575:8916   */\n      pop\n        /* \"#utility.yul\":8491:8916   */\n      swap4\n      swap3\n      pop\n      pop\n      pop\n      jump\t// out\n        /* \"#utility.yul\":8936:9276   */\n    tag_305:\n        /* \"#utility.yul\":8992:8997   */\n      0x00\n        /* \"#utility.yul\":9041:9044   */\n      dup3\n        /* \"#utility.yul\":9034:9038   */\n      0x1f\n        /* \"#utility.yul\":9026:9032   */\n      dup4\n        /* \"#utility.yul\":9022:9039   */\n      add\n        /* \"#utility.yul\":9018:9045   */\n      slt\n        /* \"#utility.yul\":9008:9130   */\n      tag_442\n      jumpi\n        /* \"#utility.yul\":9049:9128   */\n      tag_443\n      tag_297\n      jump\t// in\n    tag_443:\n        /* \"#utility.yul\":9008:9130   */\n    tag_442:\n        /* \"#utility.yul\":9166:9172   */\n      dup2\n        /* \"#utility.yul\":9153:9173   */\n      calldataload\n        /* \"#utility.yul\":9191:9270   */\n      tag_444\n        /* \"#utility.yul\":9266:9269   */\n      dup5\n        /* \"#utility.yul\":9258:9264   */\n      dup3\n        /* \"#utility.yul\":9251:9255   */\n      0x20\n        /* \"#utility.yul\":9243:9249   */\n      dup7\n        /* \"#utility.yul\":9239:9256   */\n      add\n        /* \"#utility.yul\":9191:9270   */\n      tag_304\n      jump\t// in\n    tag_444:\n        /* \"#utility.yul\":9182:9270   */\n      swap2\n      pop\n        /* \"#utility.yul\":8998:9276   */\n      pop\n        /* \"#utility.yul\":8936:9276   */\n      swap3\n      swap2\n      pop\n      pop\n      jump\t// out\n        /* \"#utility.yul\":9282:9404   */\n    tag_306:\n        /* \"#utility.yul\":9355:9379   */\n      tag_446\n        /* \"#utility.yul\":9373:9378   */\n      dup2\n        /* \"#utility.yul\":9355:9379   */\n      tag_294\n      jump\t// in\n    tag_446:\n        /* \"#utility.yul\":9348:9353   */\n      dup2\n        /* \"#utility.yul\":9345:9380   */\n      eq\n        /* \"#utility.yul\":9335:9398   */\n      tag_447\n      jumpi\n        /* \"#utility.yul\":9394:9395   */\n      0x00\n        /* \"#utility.yul\":9391:9392   */\n      dup1\n        /* \"#utility.yul\":9384:9396   */\n      revert\n        /* \"#utility.yul\":9335:9398   */\n    tag_447:\n        /* \"#utility.yul\":9282:9404   */\n      pop\n      jump\t// out\n        /* \"#utility.yul\":9410:9549   */\n    tag_307:\n        /* \"#utility.yul\":9456:9461   */\n      0x00\n        /* \"#utility.yul\":9494:9500   */\n      dup2\n        /* \"#utility.yul\":9481:9501   */\n      calldataload\n        /* \"#utility.yul\":9472:9501   */\n      swap1\n      pop\n        /* \"#utility.yul\":9510:9543   */\n      tag_449\n        /* \"#utility.yul\":9537:9542   */\n      dup2\n        /* \"#utility.yul\":9510:9543   */\n      tag_306\n      jump\t// in\n    tag_449:\n        /* \"#utility.yul\":9410:9549   */\n      swap3\n      swap2\n      pop\n      pop\n      jump\t// out\n        /* \"#utility.yul\":9555:9671   */\n    tag_308:\n        /* \"#utility.yul\":9625:9646   */\n      tag_451\n        /* \"#utility.yul\":9640:9645   */\n      dup2\n        /* \"#utility.yul\":9625:9646   */\n      tag_291\n      jump\t// in\n    tag_451:\n        /* \"#utility.yul\":9618:9623   */\n      dup2\n        /* \"#utility.yul\":9615:9647   */\n      eq\n        /* \"#utility.yul\":9605:9665   */\n      tag_452\n      jumpi\n        /* \"#utility.yul\":9661:9662   */\n      0x00\n        /* \"#utility.yul\":9658:9659   */\n      dup1\n        /* \"#utility.yul\":9651:9663   */\n      revert\n        /* \"#utility.yul\":9605:9665   */\n    tag_452:\n        /* \"#utility.yul\":9555:9671   */\n      pop\n      jump\t// out\n        /* \"#utility.yul\":9677:9810   */\n    tag_309:\n        /* \"#utility.yul\":9720:9725   */\n      0x00\n        /* \"#utility.yul\":9758:9764   */\n      dup2\n        /* \"#utility.yul\":9745:9765   */\n      calldataload\n        /* \"#utility.yul\":9736:9765   */\n      swap1\n      pop\n        /* \"#utility.yul\":9774:9804   */\n      tag_454\n        /* \"#utility.yul\":9798:9803   */\n      dup2\n        /* \"#utility.yul\":9774:9804   */\n      tag_308\n      jump\t// in\n    tag_454:\n        /* \"#utility.yul\":9677:9810   */\n      swap3\n      swap2\n      pop\n      pop\n      jump\t// out\n        /* \"#utility.yul\":9816:10901   */\n    tag_51:\n        /* \"#utility.yul\":9918:9924   */\n      0x00\n        /* \"#utility.yul\":9926:9932   */\n      dup1\n        /* \"#utility.yul\":9934:9940   */\n      0x00\n        /* \"#utility.yul\":9942:9948   */\n      dup1\n        /* \"#utility.yul\":9950:9956   */\n      0x00\n        /* \"#utility.yul\":9999:10002   */\n      0xa0\n        /* \"#utility.yul\":9987:9996   */\n      dup7\n        /* \"#utility.yul\":9978:9985   */\n      dup9\n        /* \"#utility.yul\":9974:9997   */\n      sub\n        /* \"#utility.yul\":9970:10003   */\n      slt\n        /* \"#utility.yul\":9967:10087   */\n      iszero\n      tag_456\n      jumpi\n        /* \"#utility.yul\":10006:10085   */\n      tag_457\n      tag_271\n      jump\t// in\n    tag_457:\n        /* \"#utility.yul\":9967:10087   */\n    tag_456:\n        /* \"#utility.yul\":10126:10127   */\n      0x00\n        /* \"#utility.yul\":10151:10204   */\n      tag_458\n        /* \"#utility.yul\":10196:10203   */\n      dup9\n        /* \"#utility.yul\":10187:10193   */\n      dup3\n        /* \"#utility.yul\":10176:10185   */\n      dup10\n        /* \"#utility.yul\":10172:10194   */\n      add\n        /* \"#utility.yul\":10151:10204   */\n      tag_275\n      jump\t// in\n    tag_458:\n        /* \"#utility.yul\":10141:10204   */\n      swap6\n      pop\n        /* \"#utility.yul\":10097:10214   */\n      pop\n        /* \"#utility.yul\":10281:10283   */\n      0x20\n        /* \"#utility.yul\":10270:10279   */\n      dup7\n        /* \"#utility.yul\":10266:10284   */\n      add\n        /* \"#utility.yul\":10253:10285   */\n      calldataload\n        /* \"#utility.yul\":10312:10330   */\n      0xffffffffffffffff\n        /* \"#utility.yul\":10304:10310   */\n      dup2\n        /* \"#utility.yul\":10301:10331   */\n      gt\n        /* \"#utility.yul\":10298:10415   */\n      iszero\n      tag_459\n      jumpi\n        /* \"#utility.yul\":10334:10413   */\n      tag_460\n      tag_272\n      jump\t// in\n    tag_460:\n        /* \"#utility.yul\":10298:10415   */\n    tag_459:\n        /* \"#utility.yul\":10439:10502   */\n      tag_461\n        /* \"#utility.yul\":10494:10501   */\n      dup9\n        /* \"#utility.yul\":10485:10491   */\n      dup3\n        /* \"#utility.yul\":10474:10483   */\n      dup10\n        /* \"#utility.yul\":10470:10492   */\n      add\n        /* \"#utility.yul\":10439:10502   */\n      tag_305\n      jump\t// in\n    tag_461:\n        /* \"#utility.yul\":10429:10502   */\n      swap5\n      pop\n        /* \"#utility.yul\":10224:10512   */\n      pop\n        /* \"#utility.yul\":10551:10553   */\n      0x40\n        /* \"#utility.yul\":10577:10630   */\n      tag_462\n        /* \"#utility.yul\":10622:10629   */\n      dup9\n        /* \"#utility.yul\":10613:10619   */\n      dup3\n        /* \"#utility.yul\":10602:10611   */\n      dup10\n        /* \"#utility.yul\":10598:10620   */\n      add\n        /* \"#utility.yul\":10577:10630   */\n      tag_275\n      jump\t// in\n    tag_462:\n        /* \"#utility.yul\":10567:10630   */\n      swap4\n      pop\n        /* \"#utility.yul\":10522:10640   */\n      pop\n        /* \"#utility.yul\":10679:10681   */\n      0x60\n        /* \"#utility.yul\":10705:10758   */\n      tag_463\n        /* \"#utility.yul\":10750:10757   */\n      dup9\n        /* \"#utility.yul\":10741:10747   */\n      dup3\n        /* \"#utility.yul\":10730:10739   */\n      dup10\n        /* \"#utility.yul\":10726:10748   */\n      add\n        /* \"#utility.yul\":10705:10758   */\n      tag_307\n      jump\t// in\n    tag_463:\n        /* \"#utility.yul\":10695:10758   */\n      swap3\n      pop\n        /* \"#utility.yul\":10650:10768   */\n      pop\n        /* \"#utility.yul\":10807:10810   */\n      0x80\n        /* \"#utility.yul\":10834:10884   */\n      tag_464\n        /* \"#utility.yul\":10876:10883   */\n      dup9\n        /* \"#utility.yul\":10867:10873   */\n      dup3\n        /* \"#utility.yul\":10856:10865   */\n      dup10\n        /* \"#utility.yul\":10852:10874   */\n      add\n        /* \"#utility.yul\":10834:10884   */\n      tag_309\n      jump\t// in\n    tag_464:\n        /* \"#utility.yul\":10824:10884   */\n      swap2\n      pop\n        /* \"#utility.yul\":10778:10894   */\n      pop\n        /* \"#utility.yul\":9816:10901   */\n      swap3\n      swap6\n      pop\n      swap3\n      swap6\n      swap1\n      swap4\n      pop\n      jump\t// out\n        /* \"#utility.yul\":10907:11405   */\n    tag_57:\n        /* \"#utility.yul\":10987:10993   */\n      0x00\n        /* \"#utility.yul\":10995:11001   */\n      dup1\n        /* \"#utility.yul\":11044:11046   */\n      0x40\n        /* \"#utility.yul\":11032:11041   */\n      dup4\n        /* \"#utility.yul\":11023:11030   */\n      dup6\n        /* \"#utility.yul\":11019:11042   */\n      sub\n        /* \"#utility.yul\":11015:11047   */\n      slt\n        /* \"#utility.yul\":11012:11131   */\n      iszero\n      tag_466\n      jumpi\n        /* \"#utility.yul\":11050:11129   */\n      tag_467\n      tag_271\n      jump\t// in\n    tag_467:\n        /* \"#utility.yul\":11012:11131   */\n    tag_466:\n        /* \"#utility.yul\":11170:11171   */\n      0x00\n        /* \"#utility.yul\":11195:11260   */\n      tag_468\n        /* \"#utility.yul\":11252:11259   */\n      dup6\n        /* \"#utility.yul\":11243:11249   */\n      dup3\n        /* \"#utility.yul\":11232:11241   */\n      dup7\n        /* \"#utility.yul\":11228:11250   */\n      add\n        /* \"#utility.yul\":11195:11260   */\n      tag_284\n      jump\t// in\n    tag_468:\n        /* \"#utility.yul\":11185:11260   */\n      swap3\n      pop\n        /* \"#utility.yul\":11141:11270   */\n      pop\n        /* \"#utility.yul\":11309:11311   */\n      0x20\n        /* \"#utility.yul\":11335:11388   */\n      tag_469\n        /* \"#utility.yul\":11380:11387   */\n      dup6\n        /* \"#utility.yul\":11371:11377   */\n      dup3\n        /* \"#utility.yul\":11360:11369   */\n      dup7\n        /* \"#utility.yul\":11356:11378   */\n      add\n        /* \"#utility.yul\":11335:11388   */\n      tag_275\n      jump\t// in\n    tag_469:\n        /* \"#utility.yul\":11325:11388   */\n      swap2\n      pop\n        /* \"#utility.yul\":11280:11398   */\n      pop\n        /* \"#utility.yul\":10907:11405   */\n      swap3\n      pop\n      swap3\n      swap1\n      pop\n      jump\t// out\n        /* \"#utility.yul\":11411:11520   */\n    tag_310:\n        /* \"#utility.yul\":11492:11513   */\n      tag_471\n        /* \"#utility.yul\":11507:11512   */\n      dup2\n        /* \"#utility.yul\":11492:11513   */\n      tag_291\n      jump\t// in\n    tag_471:\n        /* \"#utility.yul\":11487:11490   */\n      dup3\n        /* \"#utility.yul\":11480:11514   */\n      mstore\n        /* \"#utility.yul\":11411:11520   */\n      pop\n      pop\n      jump\t// out\n        /* \"#utility.yul\":11526:11736   */\n    tag_60:\n        /* \"#utility.yul\":11613:11617   */\n      0x00\n        /* \"#utility.yul\":11651:11653   */\n      0x20\n        /* \"#utility.yul\":11640:11649   */\n      dup3\n        /* \"#utility.yul\":11636:11654   */\n      add\n        /* \"#utility.yul\":11628:11654   */\n      swap1\n      pop\n        /* \"#utility.yul\":11664:11729   */\n      tag_473\n        /* \"#utility.yul\":11726:11727   */\n      0x00\n        /* \"#utility.yul\":11715:11724   */\n      dup4\n        /* \"#utility.yul\":11711:11728   */\n      add\n        /* \"#utility.yul\":11702:11708   */\n      dup5\n        /* \"#utility.yul\":11664:11729   */\n      tag_310\n      jump\t// in\n    tag_473:\n        /* \"#utility.yul\":11526:11736   */\n      swap3\n      swap2\n      pop\n      pop\n      jump\t// out\n        /* \"#utility.yul\":11742:12507   */\n    tag_63:\n        /* \"#utility.yul\":11828:11834   */\n      0x00\n        /* \"#utility.yul\":11836:11842   */\n      dup1\n        /* \"#utility.yul\":11844:11850   */\n      0x00\n        /* \"#utility.yul\":11852:11858   */\n      dup1\n        /* \"#utility.yul\":11901:11904   */\n      0x80\n        /* \"#utility.yul\":11889:11898   */\n      dup6\n        /* \"#utility.yul\":11880:11887   */\n      dup8\n        /* \"#utility.yul\":11876:11899   */\n      sub\n        /* \"#utility.yul\":11872:11905   */\n      slt\n        /* \"#utility.yul\":11869:11989   */\n      iszero\n      tag_475\n      jumpi\n        /* \"#utility.yul\":11908:11987   */\n      tag_476\n      tag_271\n      jump\t// in\n    tag_476:\n        /* \"#utility.yul\":11869:11989   */\n    tag_475:\n        /* \"#utility.yul\":12028:12029   */\n      0x00\n        /* \"#utility.yul\":12053:12106   */\n      tag_477\n        /* \"#utility.yul\":12098:12105   */\n      dup8\n        /* \"#utility.yul\":12089:12095   */\n      dup3\n        /* \"#utility.yul\":12078:12087   */\n      dup9\n        /* \"#utility.yul\":12074:12096   */\n      add\n        /* \"#utility.yul\":12053:12106   */\n      tag_275\n      jump\t// in\n    tag_477:\n        /* \"#utility.yul\":12043:12106   */\n      swap5\n      pop\n        /* \"#utility.yul\":11999:12116   */\n      pop\n        /* \"#utility.yul\":12155:12157   */\n      0x20\n        /* \"#utility.yul\":12181:12234   */\n      tag_478\n        /* \"#utility.yul\":12226:12233   */\n      dup8\n        /* \"#utility.yul\":12217:12223   */\n      dup3\n        /* \"#utility.yul\":12206:12215   */\n      dup9\n        /* \"#utility.yul\":12202:12224   */\n      add\n        /* \"#utility.yul\":12181:12234   */\n      tag_307\n      jump\t// in\n    tag_478:\n        /* \"#utility.yul\":12171:12234   */\n      swap4\n      pop\n        /* \"#utility.yul\":12126:12244   */\n      pop\n        /* \"#utility.yul\":12283:12285   */\n      0x40\n        /* \"#utility.yul\":12309:12362   */\n      tag_479\n        /* \"#utility.yul\":12354:12361   */\n      dup8\n        /* \"#utility.yul\":12345:12351   */\n      dup3\n        /* \"#utility.yul\":12334:12343   */\n      dup9\n        /* \"#utility.yul\":12330:12352   */\n      add\n        /* \"#utility.yul\":12309:12362   */\n      tag_275\n      jump\t// in\n    tag_479:\n        /* \"#utility.yul\":12299:12362   */\n      swap3\n      pop\n        /* \"#utility.yul\":12254:12372   */\n      pop\n        /* \"#utility.yul\":12411:12413   */\n      0x60\n        /* \"#utility.yul\":12437:12490   */\n      tag_480\n        /* \"#utility.yul\":12482:12489   */\n      dup8\n        /* \"#utility.yul\":12473:12479   */\n      dup3\n        /* \"#utility.yul\":12462:12471   */\n      dup9\n        /* \"#utility.yul\":12458:12480   */\n      add\n        /* \"#utility.yul\":12437:12490   */\n      tag_275\n      jump\t// in\n    tag_480:\n        /* \"#utility.yul\":12427:12490   */\n      swap2\n      pop\n        /* \"#utility.yul\":12382:12500   */\n      pop\n        /* \"#utility.yul\":11742:12507   */\n      swap3\n      swap6\n      swap2\n      swap5\n      pop\n      swap3\n      pop\n      jump\t// out\n        /* \"#utility.yul\":12551:13429   */\n    tag_311:\n        /* \"#utility.yul\":12694:12698   */\n      0x80\n        /* \"#utility.yul\":12689:12692   */\n      dup3\n        /* \"#utility.yul\":12685:12699   */\n      add\n        /* \"#utility.yul\":12782:12786   */\n      0x00\n        /* \"#utility.yul\":12775:12780   */\n      dup3\n        /* \"#utility.yul\":12771:12787   */\n      add\n        /* \"#utility.yul\":12765:12788   */\n      mload\n        /* \"#utility.yul\":12801:12864   */\n      tag_482\n        /* \"#utility.yul\":12858:12862   */\n      0x00\n        /* \"#utility.yul\":12853:12856   */\n      dup6\n        /* \"#utility.yul\":12849:12863   */\n      add\n        /* \"#utility.yul\":12835:12847   */\n      dup3\n        /* \"#utility.yul\":12801:12864   */\n      tag_295\n      jump\t// in\n    tag_482:\n        /* \"#utility.yul\":12709:12874   */\n      pop\n        /* \"#utility.yul\":12963:12967   */\n      0x20\n        /* \"#utility.yul\":12956:12961   */\n      dup3\n        /* \"#utility.yul\":12952:12968   */\n      add\n        /* \"#utility.yul\":12946:12969   */\n      mload\n        /* \"#utility.yul\":12982:13045   */\n      tag_483\n        /* \"#utility.yul\":13039:13043   */\n      0x20\n        /* \"#utility.yul\":13034:13037   */\n      dup6\n        /* \"#utility.yul\":13030:13044   */\n      add\n        /* \"#utility.yul\":13016:13028   */\n      dup3\n        /* \"#utility.yul\":12982:13045   */\n      tag_279\n      jump\t// in\n    tag_483:\n        /* \"#utility.yul\":12884:13055   */\n      pop\n        /* \"#utility.yul\":13149:13153   */\n      0x40\n        /* \"#utility.yul\":13142:13147   */\n      dup3\n        /* \"#utility.yul\":13138:13154   */\n      add\n        /* \"#utility.yul\":13132:13155   */\n      mload\n        /* \"#utility.yul\":13168:13231   */\n      tag_484\n        /* \"#utility.yul\":13225:13229   */\n      0x40\n        /* \"#utility.yul\":13220:13223   */\n      dup6\n        /* \"#utility.yul\":13216:13230   */\n      add\n        /* \"#utility.yul\":13202:13214   */\n      dup3\n        /* \"#utility.yul\":13168:13231   */\n      tag_279\n      jump\t// in\n    tag_484:\n        /* \"#utility.yul\":13065:13241   */\n      pop\n        /* \"#utility.yul\":13330:13334   */\n      0x60\n        /* \"#utility.yul\":13323:13328   */\n      dup3\n        /* \"#utility.yul\":13319:13335   */\n      add\n        /* \"#utility.yul\":13313:13336   */\n      mload\n        /* \"#utility.yul\":13349:13412   */\n      tag_485\n        /* \"#utility.yul\":13406:13410   */\n      0x60\n        /* \"#utility.yul\":13401:13404   */\n      dup6\n        /* \"#utility.yul\":13397:13411   */\n      add\n        /* \"#utility.yul\":13383:13395   */\n      dup3\n        /* \"#utility.yul\":13349:13412   */\n      tag_279\n      jump\t// in\n    tag_485:\n        /* \"#utility.yul\":13251:13422   */\n      pop\n        /* \"#utility.yul\":12663:13429   */\n      pop\n        /* \"#utility.yul\":12551:13429   */\n      pop\n      pop\n      jump\t// out\n        /* \"#utility.yul\":13435:13750   */\n    tag_66:\n        /* \"#utility.yul\":13574:13578   */\n      0x00\n        /* \"#utility.yul\":13612:13615   */\n      0x80\n        /* \"#utility.yul\":13601:13610   */\n      dup3\n        /* \"#utility.yul\":13597:13616   */\n      add\n        /* \"#utility.yul\":13589:13616   */\n      swap1\n      pop\n        /* \"#utility.yul\":13626:13743   */\n      tag_487\n        /* \"#utility.yul\":13740:13741   */\n      0x00\n        /* \"#utility.yul\":13729:13738   */\n      dup4\n        /* \"#utility.yul\":13725:13742   */\n      add\n        /* \"#utility.yul\":13716:13722   */\n      dup5\n        /* \"#utility.yul\":13626:13743   */\n      tag_311\n      jump\t// in\n    tag_487:\n        /* \"#utility.yul\":13435:13750   */\n      swap3\n      swap2\n      pop\n      pop\n      jump\t// out\n        /* \"#utility.yul\":13756:14067   */\n    tag_312:\n        /* \"#utility.yul\":13833:13837   */\n      0x00\n        /* \"#utility.yul\":13923:13941   */\n      0xffffffffffffffff\n        /* \"#utility.yul\":13915:13921   */\n      dup3\n        /* \"#utility.yul\":13912:13942   */\n      gt\n        /* \"#utility.yul\":13909:13965   */\n      iszero\n      tag_489\n      jumpi\n        /* \"#utility.yul\":13945:13963   */\n      tag_490\n      tag_299\n      jump\t// in\n    tag_490:\n        /* \"#utility.yul\":13909:13965   */\n    tag_489:\n        /* \"#utility.yul\":13995:13999   */\n      0x20\n        /* \"#utility.yul\":13987:13993   */\n      dup3\n        /* \"#utility.yul\":13983:14000   */\n      mul\n        /* \"#utility.yul\":13975:14000   */\n      swap1\n      pop\n        /* \"#utility.yul\":14055:14059   */\n      0x20\n        /* \"#utility.yul\":14049:14053   */\n      dup2\n        /* \"#utility.yul\":14045:14060   */\n      add\n        /* \"#utility.yul\":14037:14060   */\n      swap1\n      pop\n        /* \"#utility.yul\":13756:14067   */\n      swap2\n      swap1\n      pop\n      jump\t// out\n        /* \"#utility.yul\":14073:14190   */\n    tag_313:\n        /* \"#utility.yul\":14182:14183   */\n      0x00\n        /* \"#utility.yul\":14179:14180   */\n      dup1\n        /* \"#utility.yul\":14172:14184   */\n      revert\n        /* \"#utility.yul\":14213:14923   */\n    tag_314:\n        /* \"#utility.yul\":14309:14314   */\n      0x00\n        /* \"#utility.yul\":14334:14415   */\n      tag_493\n        /* \"#utility.yul\":14350:14414   */\n      tag_494\n        /* \"#utility.yul\":14407:14413   */\n      dup5\n        /* \"#utility.yul\":14350:14414   */\n      tag_312\n      jump\t// in\n    tag_494:\n        /* \"#utility.yul\":14334:14415   */\n      tag_301\n      jump\t// in\n    tag_493:\n        /* \"#utility.yul\":14325:14415   */\n      swap1\n      pop\n        /* \"#utility.yul\":14435:14440   */\n      dup1\n        /* \"#utility.yul\":14464:14470   */\n      dup4\n        /* \"#utility.yul\":14457:14462   */\n      dup3\n        /* \"#utility.yul\":14450:14471   */\n      mstore\n        /* \"#utility.yul\":14498:14502   */\n      0x20\n        /* \"#utility.yul\":14491:14496   */\n      dup3\n        /* \"#utility.yul\":14487:14503   */\n      add\n        /* \"#utility.yul\":14480:14503   */\n      swap1\n      pop\n        /* \"#utility.yul\":14551:14555   */\n      0x20\n        /* \"#utility.yul\":14543:14549   */\n      dup5\n        /* \"#utility.yul\":14539:14556   */\n      mul\n        /* \"#utility.yul\":14531:14537   */\n      dup4\n        /* \"#utility.yul\":14527:14557   */\n      add\n        /* \"#utility.yul\":14580:14583   */\n      dup6\n        /* \"#utility.yul\":14572:14578   */\n      dup2\n        /* \"#utility.yul\":14569:14584   */\n      gt\n        /* \"#utility.yul\":14566:14688   */\n      iszero\n      tag_495\n      jumpi\n        /* \"#utility.yul\":14599:14678   */\n      tag_496\n      tag_313\n      jump\t// in\n    tag_496:\n        /* \"#utility.yul\":14566:14688   */\n    tag_495:\n        /* \"#utility.yul\":14714:14720   */\n      dup4\n        /* \"#utility.yul\":14697:14917   */\n    tag_497:\n        /* \"#utility.yul\":14731:14737   */\n      dup2\n        /* \"#utility.yul\":14726:14729   */\n      dup2\n        /* \"#utility.yul\":14723:14738   */\n      lt\n        /* \"#utility.yul\":14697:14917   */\n      iszero\n      tag_499\n      jumpi\n        /* \"#utility.yul\":14806:14809   */\n      dup1\n        /* \"#utility.yul\":14835:14872   */\n      tag_500\n        /* \"#utility.yul\":14868:14871   */\n      dup9\n        /* \"#utility.yul\":14856:14866   */\n      dup3\n        /* \"#utility.yul\":14835:14872   */\n      tag_275\n      jump\t// in\n    tag_500:\n        /* \"#utility.yul\":14830:14833   */\n      dup5\n        /* \"#utility.yul\":14823:14873   */\n      mstore\n        /* \"#utility.yul\":14902:14906   */\n      0x20\n        /* \"#utility.yul\":14897:14900   */\n      dup5\n        /* \"#utility.yul\":14893:14907   */\n      add\n        /* \"#utility.yul\":14886:14907   */\n      swap4\n      pop\n        /* \"#utility.yul\":14773:14917   */\n      pop\n        /* \"#utility.yul\":14757:14761   */\n      0x20\n        /* \"#utility.yul\":14752:14755   */\n      dup2\n        /* \"#utility.yul\":14748:14762   */\n      add\n        /* \"#utility.yul\":14741:14762   */\n      swap1\n      pop\n        /* \"#utility.yul\":14697:14917   */\n      jump(tag_497)\n    tag_499:\n        /* \"#utility.yul\":14701:14722   */\n      pop\n        /* \"#utility.yul\":14315:14923   */\n      pop\n      pop\n        /* \"#utility.yul\":14213:14923   */\n      swap4\n      swap3\n      pop\n      pop\n      pop\n      jump\t// out\n        /* \"#utility.yul\":14946:15316   */\n    tag_315:\n        /* \"#utility.yul\":15017:15022   */\n      0x00\n        /* \"#utility.yul\":15066:15069   */\n      dup3\n        /* \"#utility.yul\":15059:15063   */\n      0x1f\n        /* \"#utility.yul\":15051:15057   */\n      dup4\n        /* \"#utility.yul\":15047:15064   */\n      add\n        /* \"#utility.yul\":15043:15070   */\n      slt\n        /* \"#utility.yul\":15033:15155   */\n      tag_502\n      jumpi\n        /* \"#utility.yul\":15074:15153   */\n      tag_503\n      tag_297\n      jump\t// in\n    tag_503:\n        /* \"#utility.yul\":15033:15155   */\n    tag_502:\n        /* \"#utility.yul\":15191:15197   */\n      dup2\n        /* \"#utility.yul\":15178:15198   */\n      calldataload\n        /* \"#utility.yul\":15216:15310   */\n      tag_504\n        /* \"#utility.yul\":15306:15309   */\n      dup5\n        /* \"#utility.yul\":15298:15304   */\n      dup3\n        /* \"#utility.yul\":15291:15295   */\n      0x20\n        /* \"#utility.yul\":15283:15289   */\n      dup7\n        /* \"#utility.yul\":15279:15296   */\n      add\n        /* \"#utility.yul\":15216:15310   */\n      tag_314\n      jump\t// in\n    tag_504:\n        /* \"#utility.yul\":15207:15310   */\n      swap2\n      pop\n        /* \"#utility.yul\":15023:15316   */\n      pop\n        /* \"#utility.yul\":14946:15316   */\n      swap3\n      swap2\n      pop\n      pop\n      jump\t// out\n        /* \"#utility.yul\":15322:16006   */\n    tag_70:\n        /* \"#utility.yul\":15415:15421   */\n      0x00\n        /* \"#utility.yul\":15423:15429   */\n      dup1\n        /* \"#utility.yul\":15472:15474   */\n      0x40\n        /* \"#utility.yul\":15460:15469   */\n      dup4\n        /* \"#utility.yul\":15451:15458   */\n      dup6\n        /* \"#utility.yul\":15447:15470   */\n      sub\n        /* \"#utility.yul\":15443:15475   */\n      slt\n        /* \"#utility.yul\":15440:15559   */\n      iszero\n      tag_506\n      jumpi\n        /* \"#utility.yul\":15478:15557   */\n      tag_507\n      tag_271\n      jump\t// in\n    tag_507:\n        /* \"#utility.yul\":15440:15559   */\n    tag_506:\n        /* \"#utility.yul\":15598:15599   */\n      0x00\n        /* \"#utility.yul\":15623:15676   */\n      tag_508\n        /* \"#utility.yul\":15668:15675   */\n      dup6\n        /* \"#utility.yul\":15659:15665   */\n      dup3\n        /* \"#utility.yul\":15648:15657   */\n      dup7\n        /* \"#utility.yul\":15644:15666   */\n      add\n        /* \"#utility.yul\":15623:15676   */\n      tag_275\n      jump\t// in\n    tag_508:\n        /* \"#utility.yul\":15613:15676   */\n      swap3\n      pop\n        /* \"#utility.yul\":15569:15686   */\n      pop\n        /* \"#utility.yul\":15753:15755   */\n      0x20\n        /* \"#utility.yul\":15742:15751   */\n      dup4\n        /* \"#utility.yul\":15738:15756   */\n      add\n        /* \"#utility.yul\":15725:15757   */\n      calldataload\n        /* \"#utility.yul\":15784:15802   */\n      0xffffffffffffffff\n        /* \"#utility.yul\":15776:15782   */\n      dup2\n        /* \"#utility.yul\":15773:15803   */\n      gt\n        /* \"#utility.yul\":15770:15887   */\n      iszero\n      tag_509\n      jumpi\n        /* \"#utility.yul\":15806:15885   */\n      tag_510\n      tag_272\n      jump\t// in\n    tag_510:\n        /* \"#utility.yul\":15770:15887   */\n    tag_509:\n        /* \"#utility.yul\":15911:15989   */\n      tag_511\n        /* \"#utility.yul\":15981:15988   */\n      dup6\n        /* \"#utility.yul\":15972:15978   */\n      dup3\n        /* \"#utility.yul\":15961:15970   */\n      dup7\n        /* \"#utility.yul\":15957:15979   */\n      add\n        /* \"#utility.yul\":15911:15989   */\n      tag_315\n      jump\t// in\n    tag_511:\n        /* \"#utility.yul\":15901:15989   */\n      swap2\n      pop\n        /* \"#utility.yul\":15696:15999   */\n      pop\n        /* \"#utility.yul\":15322:16006   */\n      swap3\n      pop\n      swap3\n      swap1\n      pop\n      jump\t// out\n        /* \"#utility.yul\":16012:16130   */\n    tag_316:\n        /* \"#utility.yul\":16099:16123   */\n      tag_513\n        /* \"#utility.yul\":16117:16122   */\n      dup2\n        /* \"#utility.yul\":16099:16123   */\n      tag_294\n      jump\t// in\n    tag_513:\n        /* \"#utility.yul\":16094:16097   */\n      dup3\n        /* \"#utility.yul\":16087:16124   */\n      mstore\n        /* \"#utility.yul\":16012:16130   */\n      pop\n      pop\n      jump\t// out\n        /* \"#utility.yul\":16136:16358   */\n    tag_77:\n        /* \"#utility.yul\":16229:16233   */\n      0x00\n        /* \"#utility.yul\":16267:16269   */\n      0x20\n        /* \"#utility.yul\":16256:16265   */\n      dup3\n        /* \"#utility.yul\":16252:16270   */\n      add\n        /* \"#utility.yul\":16244:16270   */\n      swap1\n      pop\n        /* \"#utility.yul\":16280:16351   */\n      tag_515\n        /* \"#utility.yul\":16348:16349   */\n      0x00\n        /* \"#utility.yul\":16337:16346   */\n      dup4\n        /* \"#utility.yul\":16333:16350   */\n      add\n        /* \"#utility.yul\":16324:16330   */\n      dup5\n        /* \"#utility.yul\":16280:16351   */\n      tag_316\n      jump\t// in\n    tag_515:\n        /* \"#utility.yul\":16136:16358   */\n      swap3\n      swap2\n      pop\n      pop\n      jump\t// out\n        /* \"#utility.yul\":16364:17042   */\n    tag_85:\n        /* \"#utility.yul\":16454:16460   */\n      0x00\n        /* \"#utility.yul\":16462:16468   */\n      dup1\n        /* \"#utility.yul\":16511:16513   */\n      0x40\n        /* \"#utility.yul\":16499:16508   */\n      dup4\n        /* \"#utility.yul\":16490:16497   */\n      dup6\n        /* \"#utility.yul\":16486:16509   */\n      sub\n        /* \"#utility.yul\":16482:16514   */\n      slt\n        /* \"#utility.yul\":16479:16598   */\n      iszero\n      tag_517\n      jumpi\n        /* \"#utility.yul\":16517:16596   */\n      tag_518\n      tag_271\n      jump\t// in\n    tag_518:\n        /* \"#utility.yul\":16479:16598   */\n    tag_517:\n        /* \"#utility.yul\":16665:16666   */\n      0x00\n        /* \"#utility.yul\":16654:16663   */\n      dup4\n        /* \"#utility.yul\":16650:16667   */\n      add\n        /* \"#utility.yul\":16637:16668   */\n      calldataload\n        /* \"#utility.yul\":16695:16713   */\n      0xffffffffffffffff\n        /* \"#utility.yul\":16687:16693   */\n      dup2\n        /* \"#utility.yul\":16684:16714   */\n      gt\n        /* \"#utility.yul\":16681:16798   */\n      iszero\n      tag_519\n      jumpi\n        /* \"#utility.yul\":16717:16796   */\n      tag_520\n      tag_272\n      jump\t// in\n    tag_520:\n        /* \"#utility.yul\":16681:16798   */\n    tag_519:\n        /* \"#utility.yul\":16822:16885   */\n      tag_521\n        /* \"#utility.yul\":16877:16884   */\n      dup6\n        /* \"#utility.yul\":16868:16874   */\n      dup3\n        /* \"#utility.yul\":16857:16866   */\n      dup7\n        /* \"#utility.yul\":16853:16875   */\n      add\n        /* \"#utility.yul\":16822:16885   */\n      tag_305\n      jump\t// in\n    tag_521:\n        /* \"#utility.yul\":16812:16885   */\n      swap3\n      pop\n        /* \"#utility.yul\":16608:16895   */\n      pop\n        /* \"#utility.yul\":16934:16936   */\n      0x20\n        /* \"#utility.yul\":16960:17025   */\n      tag_522\n        /* \"#utility.yul\":17017:17024   */\n      dup6\n        /* \"#utility.yul\":17008:17014   */\n      dup3\n        /* \"#utility.yul\":16997:17006   */\n      dup7\n        /* \"#utility.yul\":16993:17015   */\n      add\n        /* \"#utility.yul\":16960:17025   */\n      tag_284\n      jump\t// in\n    tag_522:\n        /* \"#utility.yul\":16950:17025   */\n      swap2\n      pop\n        /* \"#utility.yul\":16905:17035   */\n      pop\n        /* \"#utility.yul\":16364:17042   */\n      swap3\n      pop\n      swap3\n      swap1\n      pop\n      jump\t// out\n        /* \"#utility.yul\":17092:18235   */\n    tag_317:\n        /* \"#utility.yul\":17213:17216   */\n      0x00\n        /* \"#utility.yul\":17249:17253   */\n      0xa0\n        /* \"#utility.yul\":17244:17247   */\n      dup4\n        /* \"#utility.yul\":17240:17254   */\n      add\n        /* \"#utility.yul\":17334:17338   */\n      0x00\n        /* \"#utility.yul\":17327:17332   */\n      dup4\n        /* \"#utility.yul\":17323:17339   */\n      add\n        /* \"#utility.yul\":17317:17340   */\n      mload\n        /* \"#utility.yul\":17353:17416   */\n      tag_524\n        /* \"#utility.yul\":17410:17414   */\n      0x00\n        /* \"#utility.yul\":17405:17408   */\n      dup7\n        /* \"#utility.yul\":17401:17415   */\n      add\n        /* \"#utility.yul\":17387:17399   */\n      dup3\n        /* \"#utility.yul\":17353:17416   */\n      tag_279\n      jump\t// in\n    tag_524:\n        /* \"#utility.yul\":17264:17426   */\n      pop\n        /* \"#utility.yul\":17513:17517   */\n      0x20\n        /* \"#utility.yul\":17506:17511   */\n      dup4\n        /* \"#utility.yul\":17502:17518   */\n      add\n        /* \"#utility.yul\":17496:17519   */\n      mload\n        /* \"#utility.yul\":17566:17569   */\n      dup5\n        /* \"#utility.yul\":17560:17564   */\n      dup3\n        /* \"#utility.yul\":17556:17570   */\n      sub\n        /* \"#utility.yul\":17549:17553   */\n      0x20\n        /* \"#utility.yul\":17544:17547   */\n      dup7\n        /* \"#utility.yul\":17540:17554   */\n      add\n        /* \"#utility.yul\":17533:17571   */\n      mstore\n        /* \"#utility.yul\":17592:17665   */\n      tag_525\n        /* \"#utility.yul\":17660:17664   */\n      dup3\n        /* \"#utility.yul\":17646:17658   */\n      dup3\n        /* \"#utility.yul\":17592:17665   */\n      tag_290\n      jump\t// in\n    tag_525:\n        /* \"#utility.yul\":17584:17665   */\n      swap2\n      pop\n        /* \"#utility.yul\":17436:17676   */\n      pop\n        /* \"#utility.yul\":17761:17765   */\n      0x40\n        /* \"#utility.yul\":17754:17759   */\n      dup4\n        /* \"#utility.yul\":17750:17766   */\n      add\n        /* \"#utility.yul\":17744:17767   */\n      mload\n        /* \"#utility.yul\":17780:17843   */\n      tag_526\n        /* \"#utility.yul\":17837:17841   */\n      0x40\n        /* \"#utility.yul\":17832:17835   */\n      dup7\n        /* \"#utility.yul\":17828:17842   */\n      add\n        /* \"#utility.yul\":17814:17826   */\n      dup3\n        /* \"#utility.yul\":17780:17843   */\n      tag_279\n      jump\t// in\n    tag_526:\n        /* \"#utility.yul\":17686:17853   */\n      pop\n        /* \"#utility.yul\":17944:17948   */\n      0x60\n        /* \"#utility.yul\":17937:17942   */\n      dup4\n        /* \"#utility.yul\":17933:17949   */\n      add\n        /* \"#utility.yul\":17927:17950   */\n      mload\n        /* \"#utility.yul\":17963:18026   */\n      tag_527\n        /* \"#utility.yul\":18020:18024   */\n      0x60\n        /* \"#utility.yul\":18015:18018   */\n      dup7\n        /* \"#utility.yul\":18011:18025   */\n      add\n        /* \"#utility.yul\":17997:18009   */\n      dup3\n        /* \"#utility.yul\":17963:18026   */\n      tag_295\n      jump\t// in\n    tag_527:\n        /* \"#utility.yul\":17863:18036   */\n      pop\n        /* \"#utility.yul\":18122:18126   */\n      0x80\n        /* \"#utility.yul\":18115:18120   */\n      dup4\n        /* \"#utility.yul\":18111:18127   */\n      add\n        /* \"#utility.yul\":18105:18128   */\n      mload\n        /* \"#utility.yul\":18141:18198   */\n      tag_528\n        /* \"#utility.yul\":18192:18196   */\n      0x80\n        /* \"#utility.yul\":18187:18190   */\n      dup7\n        /* \"#utility.yul\":18183:18197   */\n      add\n        /* \"#utility.yul\":18169:18181   */\n      dup3\n        /* \"#utility.yul\":18141:18198   */\n      tag_292\n      jump\t// in\n    tag_528:\n        /* \"#utility.yul\":18046:18208   */\n      pop\n        /* \"#utility.yul\":18225:18229   */\n      dup1\n        /* \"#utility.yul\":18218:18229   */\n      swap2\n      pop\n        /* \"#utility.yul\":17218:18235   */\n      pop\n        /* \"#utility.yul\":17092:18235   */\n      swap3\n      swap2\n      pop\n      pop\n      jump\t// out\n        /* \"#utility.yul\":18241:18618   */\n    tag_103:\n        /* \"#utility.yul\":18386:18390   */\n      0x00\n        /* \"#utility.yul\":18424:18426   */\n      0x20\n        /* \"#utility.yul\":18413:18422   */\n      dup3\n        /* \"#utility.yul\":18409:18427   */\n      add\n        /* \"#utility.yul\":18401:18427   */\n      swap1\n      pop\n        /* \"#utility.yul\":18473:18482   */\n      dup2\n        /* \"#utility.yul\":18467:18471   */\n      dup2\n        /* \"#utility.yul\":18463:18483   */\n      sub\n        /* \"#utility.yul\":18459:18460   */\n      0x00\n        /* \"#utility.yul\":18448:18457   */\n      dup4\n        /* \"#utility.yul\":18444:18461   */\n      add\n        /* \"#utility.yul\":18437:18484   */\n      mstore\n        /* \"#utility.yul\":18501:18611   */\n      tag_530\n        /* \"#utility.yul\":18606:18610   */\n      dup2\n        /* \"#utility.yul\":18597:18603   */\n      dup5\n        /* \"#utility.yul\":18501:18611   */\n      tag_317\n      jump\t// in\n    tag_530:\n        /* \"#utility.yul\":18493:18611   */\n      swap1\n      pop\n        /* \"#utility.yul\":18241:18618   */\n      swap3\n      swap2\n      pop\n      pop\n      jump\t// out\n        /* \"#utility.yul\":18624:18804   */\n    tag_110:\n        /* \"#utility.yul\":18672:18749   */\n      0x4e487b7100000000000000000000000000000000000000000000000000000000\n        /* \"#utility.yul\":18669:18670   */\n      0x00\n        /* \"#utility.yul\":18662:18750   */\n      mstore\n        /* \"#utility.yul\":18769:18773   */\n      0x21\n        /* \"#utility.yul\":18766:18767   */\n      0x04\n        /* \"#utility.yul\":18759:18774   */\n      mstore\n        /* \"#utility.yul\":18793:18797   */\n      0x24\n        /* \"#utility.yul\":18790:18791   */\n      0x00\n        /* \"#utility.yul\":18783:18798   */\n      revert\n        /* \"#utility.yul\":18810:18979   */\n    tag_318:\n        /* \"#utility.yul\":18894:18905   */\n      0x00\n        /* \"#utility.yul\":18928:18934   */\n      dup3\n        /* \"#utility.yul\":18923:18926   */\n      dup3\n        /* \"#utility.yul\":18916:18935   */\n      mstore\n        /* \"#utility.yul\":18968:18972   */\n      0x20\n        /* \"#utility.yul\":18963:18966   */\n      dup3\n        /* \"#utility.yul\":18959:18973   */\n      add\n        /* \"#utility.yul\":18944:18973   */\n      swap1\n      pop\n        /* \"#utility.yul\":18810:18979   */\n      swap3\n      swap2\n      pop\n      pop\n      jump\t// out\n        /* \"#utility.yul\":18985:19149   */\n    tag_319:\n        /* \"#utility.yul\":19125:19141   */\n      0x6a6f62206f776e6572206f6e6c79000000000000000000000000000000000000\n        /* \"#utility.yul\":19121:19122   */\n      0x00\n        /* \"#utility.yul\":19113:19119   */\n      dup3\n        /* \"#utility.yul\":19109:19123   */\n      add\n        /* \"#utility.yul\":19102:19142   */\n      mstore\n        /* \"#utility.yul\":18985:19149   */\n      pop\n      jump\t// out\n        /* \"#utility.yul\":19155:19521   */\n    tag_320:\n        /* \"#utility.yul\":19297:19300   */\n      0x00\n        /* \"#utility.yul\":19318:19385   */\n      tag_535\n        /* \"#utility.yul\":19382:19384   */\n      0x0e\n        /* \"#utility.yul\":19377:19380   */\n      dup4\n        /* \"#utility.yul\":19318:19385   */\n      tag_318\n      jump\t// in\n    tag_535:\n        /* \"#utility.yul\":19311:19385   */\n      swap2\n      pop\n        /* \"#utility.yul\":19394:19487   */\n      tag_536\n        /* \"#utility.yul\":19483:19486   */\n      dup3\n        /* \"#utility.yul\":19394:19487   */\n      tag_319\n      jump\t// in\n    tag_536:\n        /* \"#utility.yul\":19512:19514   */\n      0x20\n        /* \"#utility.yul\":19507:19510   */\n      dup3\n        /* \"#utility.yul\":19503:19515   */\n      add\n        /* \"#utility.yul\":19496:19515   */\n      swap1\n      pop\n        /* \"#utility.yul\":19155:19521   */\n      swap2\n      swap1\n      pop\n      jump\t// out\n        /* \"#utility.yul\":19527:19946   */\n    tag_121:\n        /* \"#utility.yul\":19693:19697   */\n      0x00\n        /* \"#utility.yul\":19731:19733   */\n      0x20\n        /* \"#utility.yul\":19720:19729   */\n      dup3\n        /* \"#utility.yul\":19716:19734   */\n      add\n        /* \"#utility.yul\":19708:19734   */\n      swap1\n      pop\n        /* \"#utility.yul\":19780:19789   */\n      dup2\n        /* \"#utility.yul\":19774:19778   */\n      dup2\n        /* \"#utility.yul\":19770:19790   */\n      sub\n        /* \"#utility.yul\":19766:19767   */\n      0x00\n        /* \"#utility.yul\":19755:19764   */\n      dup4\n        /* \"#utility.yul\":19751:19768   */\n      add\n        /* \"#utility.yul\":19744:19791   */\n      mstore\n        /* \"#utility.yul\":19808:19939   */\n      tag_538\n        /* \"#utility.yul\":19934:19938   */\n      dup2\n        /* \"#utility.yul\":19808:19939   */\n      tag_320\n      jump\t// in\n    tag_538:\n        /* \"#utility.yul\":19800:19939   */\n      swap1\n      pop\n        /* \"#utility.yul\":19527:19946   */\n      swap2\n      swap1\n      pop\n      jump\t// out\n        /* \"#utility.yul\":19952:20132   */\n    tag_321:\n        /* \"#utility.yul\":20000:20077   */\n      0x4e487b7100000000000000000000000000000000000000000000000000000000\n        /* \"#utility.yul\":19997:19998   */\n      0x00\n        /* \"#utility.yul\":19990:20078   */\n      mstore\n        /* \"#utility.yul\":20097:20101   */\n      0x22\n        /* \"#utility.yul\":20094:20095   */\n      0x04\n        /* \"#utility.yul\":20087:20102   */\n      mstore\n        /* \"#utility.yul\":20121:20125   */\n      0x24\n        /* \"#utility.yul\":20118:20119   */\n      0x00\n        /* \"#utility.yul\":20111:20126   */\n      revert\n        /* \"#utility.yul\":20138:20458   */\n    tag_123:\n        /* \"#utility.yul\":20182:20188   */\n      0x00\n        /* \"#utility.yul\":20219:20220   */\n      0x02\n        /* \"#utility.yul\":20213:20217   */\n      dup3\n        /* \"#utility.yul\":20209:20221   */\n      div\n        /* \"#utility.yul\":20199:20221   */\n      swap1\n      pop\n        /* \"#utility.yul\":20266:20267   */\n      0x01\n        /* \"#utility.yul\":20260:20264   */\n      dup3\n        /* \"#utility.yul\":20256:20268   */\n      and\n        /* \"#utility.yul\":20287:20305   */\n      dup1\n        /* \"#utility.yul\":20277:20358   */\n      tag_541\n      jumpi\n        /* \"#utility.yul\":20343:20347   */\n      0x7f\n        /* \"#utility.yul\":20335:20341   */\n      dup3\n        /* \"#utility.yul\":20331:20348   */\n      and\n        /* \"#utility.yul\":20321:20348   */\n      swap2\n      pop\n        /* \"#utility.yul\":20277:20358   */\n    tag_541:\n        /* \"#utility.yul\":20405:20407   */\n      0x20\n        /* \"#utility.yul\":20397:20403   */\n      dup3\n        /* \"#utility.yul\":20394:20408   */\n      lt\n        /* \"#utility.yul\":20374:20392   */\n      dup2\n        /* \"#utility.yul\":20371:20409   */\n      sub\n        /* \"#utility.yul\":20368:20452   */\n      tag_542\n      jumpi\n        /* \"#utility.yul\":20424:20442   */\n      tag_543\n      tag_321\n      jump\t// in\n    tag_543:\n        /* \"#utility.yul\":20368:20452   */\n    tag_542:\n        /* \"#utility.yul\":20189:20458   */\n      pop\n        /* \"#utility.yul\":20138:20458   */\n      swap2\n      swap1\n      pop\n      jump\t// out\n        /* \"#utility.yul\":20464:20629   */\n    tag_322:\n        /* \"#utility.yul\":20604:20621   */\n      0x6a6f6220756e617661696c61626c650000000000000000000000000000000000\n        /* \"#utility.yul\":20600:20601   */\n      0x00\n        /* \"#utility.yul\":20592:20598   */\n      dup3\n        /* \"#utility.yul\":20588:20602   */\n      add\n        /* \"#utility.yul\":20581:20622   */\n      mstore\n        /* \"#utility.yul\":20464:20629   */\n      pop\n      jump\t// out\n        /* \"#utility.yul\":20635:21001   */\n    tag_323:\n        /* \"#utility.yul\":20777:20780   */\n      0x00\n        /* \"#utility.yul\":20798:20865   */\n      tag_546\n        /* \"#utility.yul\":20862:20864   */\n      0x0f\n        /* \"#utility.yul\":20857:20860   */\n      dup4\n        /* \"#utility.yul\":20798:20865   */\n      tag_318\n      jump\t// in\n    tag_546:\n        /* \"#utility.yul\":20791:20865   */\n      swap2\n      pop\n        /* \"#utility.yul\":20874:20967   */\n      tag_547\n        /* \"#utility.yul\":20963:20966   */\n      dup3\n        /* \"#utility.yul\":20874:20967   */\n      tag_322\n      jump\t// in\n    tag_547:\n        /* \"#utility.yul\":20992:20994   */\n      0x20\n        /* \"#utility.yul\":20987:20990   */\n      dup3\n        /* \"#utility.yul\":20983:20995   */\n      add\n        /* \"#utility.yul\":20976:20995   */\n      swap1\n      pop\n        /* \"#utility.yul\":20635:21001   */\n      swap2\n      swap1\n      pop\n      jump\t// out\n        /* \"#utility.yul\":21007:21426   */\n    tag_134:\n        /* \"#utility.yul\":21173:21177   */\n      0x00\n        /* \"#utility.yul\":21211:21213   */\n      0x20\n        /* \"#utility.yul\":21200:21209   */\n      dup3\n        /* \"#utility.yul\":21196:21214   */\n      add\n        /* \"#utility.yul\":21188:21214   */\n      swap1\n      pop\n        /* \"#utility.yul\":21260:21269   */\n      dup2\n        /* \"#utility.yul\":21254:21258   */\n      dup2\n        /* \"#utility.yul\":21250:21270   */\n      sub\n        /* \"#utility.yul\":21246:21247   */\n      0x00\n        /* \"#utility.yul\":21235:21244   */\n      dup4\n        /* \"#utility.yul\":21231:21248   */\n      add\n        /* \"#utility.yul\":21224:21271   */\n      mstore\n        /* \"#utility.yul\":21288:21419   */\n      tag_549\n        /* \"#utility.yul\":21414:21418   */\n      dup2\n        /* \"#utility.yul\":21288:21419   */\n      tag_323\n      jump\t// in\n    tag_549:\n        /* \"#utility.yul\":21280:21419   */\n      swap1\n      pop\n        /* \"#utility.yul\":21007:21426   */\n      swap2\n      swap1\n      pop\n      jump\t// out\n        /* \"#utility.yul\":21432:21573   */\n    tag_324:\n        /* \"#utility.yul\":21481:21485   */\n      0x00\n        /* \"#utility.yul\":21504:21507   */\n      dup2\n        /* \"#utility.yul\":21496:21507   */\n      swap1\n      pop\n        /* \"#utility.yul\":21527:21530   */\n      dup2\n        /* \"#utility.yul\":21524:21525   */\n      0x00\n        /* \"#utility.yul\":21517:21531   */\n      mstore\n        /* \"#utility.yul\":21561:21565   */\n      0x20\n        /* \"#utility.yul\":21558:21559   */\n      0x00\n        /* \"#utility.yul\":21548:21566   */\n      keccak256\n        /* \"#utility.yul\":21540:21566   */\n      swap1\n      pop\n        /* \"#utility.yul\":21432:21573   */\n      swap2\n      swap1\n      pop\n      jump\t// out\n        /* \"#utility.yul\":21579:21672   */\n    tag_325:\n        /* \"#utility.yul\":21616:21622   */\n      0x00\n        /* \"#utility.yul\":21663:21665   */\n      0x20\n        /* \"#utility.yul\":21658:21660   */\n      0x1f\n        /* \"#utility.yul\":21651:21656   */\n      dup4\n        /* \"#utility.yul\":21647:21661   */\n      add\n        /* \"#utility.yul\":21643:21666   */\n      div\n        /* \"#utility.yul\":21633:21666   */\n      swap1\n      pop\n        /* \"#utility.yul\":21579:21672   */\n      swap2\n      swap1\n      pop\n      jump\t// out\n        /* \"#utility.yul\":21678:21785   */\n    tag_326:\n        /* \"#utility.yul\":21722:21730   */\n      0x00\n        /* \"#utility.yul\":21772:21777   */\n      dup3\n        /* \"#utility.yul\":21766:21770   */\n      dup3\n        /* \"#utility.yul\":21762:21778   */\n      shl\n        /* \"#utility.yul\":21741:21778   */\n      swap1\n      pop\n        /* \"#utility.yul\":21678:21785   */\n      swap3\n      swap2\n      pop\n      pop\n      jump\t// out\n        /* \"#utility.yul\":21791:22184   */\n    tag_327:\n        /* \"#utility.yul\":21860:21866   */\n      0x00\n        /* \"#utility.yul\":21910:21911   */\n      0x08\n        /* \"#utility.yul\":21898:21908   */\n      dup4\n        /* \"#utility.yul\":21894:21912   */\n      mul\n        /* \"#utility.yul\":21933:22030   */\n      tag_554\n        /* \"#utility.yul\":21963:22029   */\n      0xffffffffffffffffffffffffffffffffffffffffffffffffffffffffffffffff\n        /* \"#utility.yul\":21952:21961   */\n      dup3\n        /* \"#utility.yul\":21933:22030   */\n      tag_326\n      jump\t// in\n    tag_554:\n        /* \"#utility.yul\":22051:22090   */\n      tag_555\n        /* \"#utility.yul\":22081:22089   */\n      dup7\n        /* \"#utility.yul\":22070:22079   */\n      dup4\n        /* \"#utility.yul\":22051:22090   */\n      tag_326\n      jump\t// in\n    tag_555:\n        /* \"#utility.yul\":22039:22090   */\n      swap6\n      pop\n        /* \"#utility.yul\":22123:22127   */\n      dup1\n        /* \"#utility.yul\":22119:22128   */\n      not\n        /* \"#utility.yul\":22112:22117   */\n      dup5\n        /* \"#utility.yul\":22108:22129   */\n      and\n        /* \"#utility.yul\":22099:22129   */\n      swap4\n      pop\n        /* \"#utility.yul\":22172:22176   */\n      dup1\n        /* \"#utility.yul\":22162:22170   */\n      dup7\n        /* \"#utility.yul\":22158:22177   */\n      and\n        /* \"#utility.yul\":22151:22156   */\n      dup5\n        /* \"#utility.yul\":22148:22178   */\n      or\n        /* \"#utility.yul\":22138:22178   */\n      swap3\n      pop\n        /* \"#utility.yul\":21867:22184   */\n      pop\n      pop\n        /* \"#utility.yul\":21791:22184   */\n      swap4\n      swap3\n      pop\n      pop\n      pop\n      jump\t// out\n        /* \"#utility.yul\":22190:22250   */\n    tag_328:\n        /* \"#utility.yul\":22218:22221   */\n      0x00\n        /* \"#utility.yul\":22239:22244   */\n      dup2\n        /* \"#utility.yul\":22232:22244   */\n      swap1\n      pop\n        /* \"#utility.yul\":22190:22250   */\n      swap2\n      swap1\n      pop\n      jump\t// out\n        /* \"#utility.yul\":22256:22398   */\n    tag_329:\n        /* \"#utility.yul\":22306:22315   */\n      0x00\n        /* \"#utility.yul\":22339:22392   */\n      tag_558\n        /* \"#utility.yul\":22357:22391   */\n      tag_559\n        /* \"#utility.yul\":22366:22390   */\n      tag_560\n        /* \"#utility.yul\":22384:22389   */\n      dup5\n        /* \"#utility.yul\":22366:22390   */\n      tag_273\n      jump\t// in\n    tag_560:\n        /* \"#utility.yul\":22357:22391   */\n      tag_328\n      jump\t// in\n    tag_559:\n        /* \"#utility.yul\":22339:22392   */\n      tag_273\n      jump\t// in\n    tag_558:\n        /* \"#utility.yul\":22326:22392   */\n      swap1\n      pop\n        /* \"#utility.yul\":22256:22398   */\n      swap2\n      swap1\n      pop\n      jump\t// out\n        /* \"#utility.yul\":22404:22479   */\n    tag_330:\n        /* \"#utility.yul\":22447:22450   */\n      0x00\n        /* \"#utility.yul\":22468:22473   */\n      dup2\n        /* \"#utility.yul\":22461:22473   */\n      swap1\n      pop\n        /* \"#utility.yul\":22404:22479   */\n      swap2\n      swap1\n      pop\n      jump\t// out\n        /* \"#utility.yul\":22485:22754   */\n    tag_331:\n        /* \"#utility.yul\":22595:22634   */\n      tag_563\n        /* \"#utility.yul\":22626:22633   */\n      dup4\n        /* \"#utility.yul\":22595:22634   */\n      tag_329\n      jump\t// in\n    tag_563:\n        /* \"#utility.yul\":22656:22747   */\n      tag_564\n        /* \"#utility.yul\":22705:22746   */\n      tag_565\n        /* \"#utility.yul\":22729:22745   */\n      dup3\n        /* \"#utility.yul\":22705:22746   */\n      tag_330\n      jump\t// in\n    tag_565:\n        /* \"#utility.yul\":22697:22703   */\n      dup5\n        /* \"#utility.yul\":22690:22694   */\n      dup5\n        /* \"#utility.yul\":22684:22695   */\n      sload\n        /* \"#utility.yul\":22656:22747   */\n      tag_327\n      jump\t// in\n    tag_564:\n        /* \"#utility.yul\":22650:22654   */\n      dup3\n        /* \"#utility.yul\":22643:22748   */\n      sstore\n        /* \"#utility.yul\":22561:22754   */\n      pop\n        /* \"#utility.yul\":22485:22754   */\n      pop\n      pop\n      pop\n      jump\t// out\n        /* \"#utility.yul\":22760:22833   */\n    tag_332:\n        /* \"#utility.yul\":22805:22808   */\n      0x00\n        /* \"#utility.yul\":22760:22833   */\n      swap1\n      jump\t// out\n        /* \"#utility.yul\":22839:23028   */\n    tag_333:\n        /* \"#utility.yul\":22916:22948   */\n      tag_568\n      tag_332\n      jump\t// in\n    tag_568:\n        /* \"#utility.yul\":22957:23022   */\n      tag_569\n        /* \"#utility.yul\":23015:23021   */\n      dup2\n        /* \"#utility.yul\":23007:23013   */\n      dup5\n        /* \"#utility.yul\":23001:23005   */\n      dup5\n        /* \"#utility.yul\":22957:23022   */\n      tag_331\n      jump\t// in\n    tag_569:\n        /* \"#utility.yul\":22892:23028   */\n      pop\n        /* \"#utility.yul\":22839:23028   */\n      pop\n      pop\n      jump\t// out\n        /* \"#utility.yul\":23034:23220   */\n    tag_334:\n        /* \"#utility.yul\":23094:23214   */\n    tag_571:\n        /* \"#utility.yul\":23111:23114   */\n      dup2\n        /* \"#utility.yul\":23104:23109   */\n      dup2\n        /* \"#utility.yul\":23101:23115   */\n      lt\n        /* \"#utility.yul\":23094:23214   */\n      iszero\n      tag_573\n      jumpi\n        /* \"#utility.yul\":23165:23204   */\n      tag_574\n        /* \"#utility.yul\":23202:23203   */\n      0x00\n        /* \"#utility.yul\":23195:23200   */\n      dup3\n        /* \"#utility.yul\":23165:23204   */\n      tag_333\n      jump\t// in\n    tag_574:\n        /* \"#utility.yul\":23138:23139   */\n      0x01\n        /* \"#utility.yul\":23131:23136   */\n      dup2\n        /* \"#utility.yul\":23127:23140   */\n      add\n        /* \"#utility.yul\":23118:23140   */\n      swap1\n      pop\n        /* \"#utility.yul\":23094:23214   */\n      jump(tag_571)\n    tag_573:\n        /* \"#utility.yul\":23034:23220   */\n      pop\n      pop\n      jump\t// out\n        /* \"#utility.yul\":23226:23769   */\n    tag_335:\n        /* \"#utility.yul\":23327:23329   */\n      0x1f\n        /* \"#utility.yul\":23322:23325   */\n      dup3\n        /* \"#utility.yul\":23319:23330   */\n      gt\n        /* \"#utility.yul\":23316:23762   */\n      iszero\n      tag_576\n      jumpi\n        /* \"#utility.yul\":23361:23399   */\n      tag_577\n        /* \"#utility.yul\":23393:23398   */\n      dup2\n        /* \"#utility.yul\":23361:23399   */\n      tag_324\n      jump\t// in\n    tag_577:\n        /* \"#utility.yul\":23445:23474   */\n      tag_578\n        /* \"#utility.yul\":23463:23473   */\n      dup5\n        /* \"#utility.yul\":23445:23474   */\n      tag_325\n      jump\t// in\n    tag_578:\n        /* \"#utility.yul\":23435:23443   */\n      dup2\n        /* \"#utility.yul\":23431:23475   */\n      add\n        /* \"#utility.yul\":23628:23630   */\n      0x20\n        /* \"#utility.yul\":23616:23626   */\n      dup6\n        /* \"#utility.yul\":23613:23631   */\n      lt\n        /* \"#utility.yul\":23610:23659   */\n      iszero\n      tag_579\n      jumpi\n        /* \"#utility.yul\":23649:23657   */\n      dup2\n        /* \"#utility.yul\":23634:23657   */\n      swap1\n      pop\n        /* \"#utility.yul\":23610:23659   */\n    tag_579:\n        /* \"#utility.yul\":23672:23752   */\n      tag_580\n        /* \"#utility.yul\":23728:23750   */\n      tag_581\n        /* \"#utility.yul\":23746:23749   */\n      dup6\n        /* \"#utility.yul\":23728:23750   */\n      tag_325\n      jump\t// in\n    tag_581:\n        /* \"#utility.yul\":23718:23726   */\n      dup4\n        /* \"#utility.yul\":23714:23751   */\n      add\n        /* \"#utility.yul\":23701:23712   */\n      dup3\n        /* \"#utility.yul\":23672:23752   */\n      tag_334\n      jump\t// in\n    tag_580:\n        /* \"#utility.yul\":23331:23762   */\n      pop\n      pop\n        /* \"#utility.yul\":23316:23762   */\n    tag_576:\n        /* \"#utility.yul\":23226:23769   */\n      pop\n      pop\n      pop\n      jump\t// out\n        /* \"#utility.yul\":23775:23892   */\n    tag_336:\n        /* \"#utility.yul\":23829:23837   */\n      0x00\n        /* \"#utility.yul\":23879:23884   */\n      dup3\n        /* \"#utility.yul\":23873:23877   */\n      dup3\n        /* \"#utility.yul\":23869:23885   */\n      shr\n        /* \"#utility.yul\":23848:23885   */\n      swap1\n      pop\n        /* \"#utility.yul\":23775:23892   */\n      swap3\n      swap2\n      pop\n      pop\n      jump\t// out\n        /* \"#utility.yul\":23898:24067   */\n    tag_337:\n        /* \"#utility.yul\":23942:23948   */\n      0x00\n        /* \"#utility.yul\":23975:24026   */\n      tag_584\n        /* \"#utility.yul\":24023:24024   */\n      0x00\n        /* \"#utility.yul\":24019:24025   */\n      not\n        /* \"#utility.yul\":24011:24016   */\n      dup5\n        /* \"#utility.yul\":24008:24009   */\n      0x08\n        /* \"#utility.yul\":24004:24017   */\n      mul\n        /* \"#utility.yul\":23975:24026   */\n      tag_336\n      jump\t// in\n    tag_584:\n        /* \"#utility.yul\":23971:24027   */\n      not\n        /* \"#utility.yul\":24056:24060   */\n      dup1\n        /* \"#utility.yul\":24050:24054   */\n      dup4\n        /* \"#utility.yul\":24046:24061   */\n      and\n        /* \"#utility.yul\":24036:24061   */\n      swap2\n      pop\n        /* \"#utility.yul\":23949:24067   */\n      pop\n        /* \"#utility.yul\":23898:24067   */\n      swap3\n      swap2\n      pop\n      pop\n      jump\t// out\n        /* \"#utility.yul\":24072:24367   */\n    tag_338:\n        /* \"#utility.yul\":24148:24152   */\n      0x00\n        /* \"#utility.yul\":24294:24323   */\n      tag_586\n        /* \"#utility.yul\":24319:24322   */\n      dup4\n        /* \"#utility.yul\":24313:24317   */\n      dup4\n        /* \"#utility.yul\":24294:24323   */\n      tag_337\n      jump\t// in\n    tag_586:\n        /* \"#utility.yul\":24286:24323   */\n      swap2\n      pop\n        /* \"#utility.yul\":24356:24359   */\n      dup3\n        /* \"#utility.yul\":24353:24354   */\n      0x02\n        /* \"#utility.yul\":24349:24360   */\n      mul\n        /* \"#utility.yul\":24343:24347   */\n      dup3\n        /* \"#utility.yul\":24340:24361   */\n      or\n        /* \"#utility.yul\":24332:24361   */\n      swap1\n      pop\n        /* \"#utility.yul\":24072:24367   */\n      swap3\n      swap2\n      pop\n      pop\n      jump\t// out\n        /* \"#utility.yul\":24372:25767   */\n    tag_138:\n        /* \"#utility.yul\":24489:24526   */\n      tag_588\n        /* \"#utility.yul\":24522:24525   */\n      dup3\n        /* \"#utility.yul\":24489:24526   */\n      tag_286\n      jump\t// in\n    tag_588:\n        /* \"#utility.yul\":24591:24609   */\n      0xffffffffffffffff\n        /* \"#utility.yul\":24583:24589   */\n      dup2\n        /* \"#utility.yul\":24580:24610   */\n      gt\n        /* \"#utility.yul\":24577:24633   */\n      iszero\n      tag_589\n      jumpi\n        /* \"#utility.yul\":24613:24631   */\n      tag_590\n      tag_299\n      jump\t// in\n    tag_590:\n        /* \"#utility.yul\":24577:24633   */\n    tag_589:\n        /* \"#utility.yul\":24657:24695   */\n      tag_591\n        /* \"#utility.yul\":24689:24693   */\n      dup3\n        /* \"#utility.yul\":24683:24694   */\n      sload\n        /* \"#utility.yul\":24657:24695   */\n      tag_123\n      jump\t// in\n    tag_591:\n        /* \"#utility.yul\":24742:24809   */\n      tag_592\n        /* \"#utility.yul\":24802:24808   */\n      dup3\n        /* \"#utility.yul\":24794:24800   */\n      dup3\n        /* \"#utility.yul\":24788:24792   */\n      dup6\n        /* \"#utility.yul\":24742:24809   */\n      tag_335\n      jump\t// in\n    tag_592:\n        /* \"#utility.yul\":24836:24837   */\n      0x00\n        /* \"#utility.yul\":24860:24864   */\n      0x20\n        /* \"#utility.yul\":24847:24864   */\n      swap1\n      pop\n        /* \"#utility.yul\":24892:24894   */\n      0x1f\n        /* \"#utility.yul\":24884:24890   */\n      dup4\n        /* \"#utility.yul\":24881:24895   */\n      gt\n        /* \"#utility.yul\":24909:24910   */\n      0x01\n        /* \"#utility.yul\":24904:25522   */\n      dup2\n      eq\n      tag_594\n      jumpi\n        /* \"#utility.yul\":25566:25567   */\n      0x00\n        /* \"#utility.yul\":25583:25589   */\n      dup5\n        /* \"#utility.yul\":25580:25657   */\n      iszero\n      tag_595\n      jumpi\n        /* \"#utility.yul\":25632:25641   */\n      dup3\n        /* \"#utility.yul\":25627:25630   */\n      dup8\n        /* \"#utility.yul\":25623:25642   */\n      add\n        /* \"#utility.yul\":25617:25643   */\n      mload\n        /* \"#utility.yul\":25608:25643   */\n      swap1\n      pop\n        /* \"#utility.yul\":25580:25657   */\n    tag_595:\n        /* \"#utility.yul\":25683:25750   */\n      tag_596\n        /* \"#utility.yul\":25743:25749   */\n      dup6\n        /* \"#utility.yul\":25736:25741   */\n      dup3\n        /* \"#utility.yul\":25683:25750   */\n      tag_338\n      jump\t// in\n    tag_596:\n        /* \"#utility.yul\":25677:25681   */\n      dup7\n        /* \"#utility.yul\":25670:25751   */\n      sstore\n        /* \"#utility.yul\":25539:25761   */\n      pop\n        /* \"#utility.yul\":24874:25761   */\n      jump(tag_593)\n        /* \"#utility.yul\":24904:25522   */\n    tag_594:\n        /* \"#utility.yul\":24956:24960   */\n      0x1f\n        /* \"#utility.yul\":24952:24961   */\n      not\n        /* \"#utility.yul\":24944:24950   */\n      dup5\n        /* \"#utility.yul\":24940:24962   */\n      and\n        /* \"#utility.yul\":24990:25027   */\n      tag_597\n        /* \"#utility.yul\":25022:25026   */\n      dup7\n        /* \"#utility.yul\":24990:25027   */\n      tag_324\n      jump\t// in\n    tag_597:\n        /* \"#utility.yul\":25049:25050   */\n      0x00\n        /* \"#utility.yul\":25063:25271   */\n    tag_598:\n        /* \"#utility.yul\":25077:25084   */\n      dup3\n        /* \"#utility.yul\":25074:25075   */\n      dup2\n        /* \"#utility.yul\":25071:25085   */\n      lt\n        /* \"#utility.yul\":25063:25271   */\n      iszero\n      tag_600\n      jumpi\n        /* \"#utility.yul\":25156:25165   */\n      dup5\n        /* \"#utility.yul\":25151:25154   */\n      dup10\n        /* \"#utility.yul\":25147:25166   */\n      add\n        /* \"#utility.yul\":25141:25167   */\n      mload\n        /* \"#utility.yul\":25133:25139   */\n      dup3\n        /* \"#utility.yul\":25126:25168   */\n      sstore\n        /* \"#utility.yul\":25207:25208   */\n      0x01\n        /* \"#utility.yul\":25199:25205   */\n      dup3\n        /* \"#utility.yul\":25195:25209   */\n      add\n        /* \"#utility.yul\":25185:25209   */\n      swap2\n      pop\n        /* \"#utility.yul\":25254:25256   */\n      0x20\n        /* \"#utility.yul\":25243:25252   */\n      dup6\n        /* \"#utility.yul\":25239:25257   */\n      add\n        /* \"#utility.yul\":25226:25257   */\n      swap5\n      pop\n        /* \"#utility.yul\":25100:25104   */\n      0x20\n        /* \"#utility.yul\":25097:25098   */\n      dup2\n        /* \"#utility.yul\":25093:25105   */\n      add\n        /* \"#utility.yul\":25088:25105   */\n      swap1\n      pop\n        /* \"#utility.yul\":25063:25271   */\n      jump(tag_598)\n    tag_600:\n        /* \"#utility.yul\":25299:25305   */\n      dup7\n        /* \"#utility.yul\":25290:25297   */\n      dup4\n        /* \"#utility.yul\":25287:25306   */\n      lt\n        /* \"#utility.yul\":25284:25463   */\n      iszero\n      tag_601\n      jumpi\n        /* \"#utility.yul\":25357:25366   */\n      dup5\n        /* \"#utility.yul\":25352:25355   */\n      dup10\n        /* \"#utility.yul\":25348:25367   */\n      add\n        /* \"#utility.yul\":25342:25368   */\n      mload\n        /* \"#utility.yul\":25400:25448   */\n      tag_602\n        /* \"#utility.yul\":25442:25446   */\n      0x1f\n        /* \"#utility.yul\":25434:25440   */\n      dup10\n        /* \"#utility.yul\":25430:25447   */\n      and\n        /* \"#utility.yul\":25419:25428   */\n      dup3\n        /* \"#utility.yul\":25400:25448   */\n      tag_337\n      jump\t// in\n    tag_602:\n        /* \"#utility.yul\":25392:25398   */\n      dup4\n        /* \"#utility.yul\":25385:25449   */\n      sstore\n        /* \"#utility.yul\":25307:25463   */\n      pop\n        /* \"#utility.yul\":25284:25463   */\n    tag_601:\n        /* \"#utility.yul\":25509:25510   */\n      0x01\n        /* \"#utility.yul\":25505:25506   */\n      0x02\n        /* \"#utility.yul\":25497:25503   */\n      dup9\n        /* \"#utility.yul\":25493:25507   */\n      mul\n        /* \"#utility.yul\":25489:25511   */\n      add\n        /* \"#utility.yul\":25483:25487   */\n      dup9\n        /* \"#utility.yul\":25476:25512   */\n      sstore\n        /* \"#utility.yul\":24911:25522   */\n      pop\n      pop\n      pop\n        /* \"#utility.yul\":24874:25761   */\n    tag_593:\n      pop\n        /* \"#utility.yul\":24464:25767   */\n      pop\n      pop\n      pop\n        /* \"#utility.yul\":24372:25767   */\n      pop\n      pop\n      jump\t// out\n        /* \"#utility.yul\":25773:25933   */\n    tag_339:\n        /* \"#utility.yul\":25913:25925   */\n      0x61646d696e206f6e6c7900000000000000000000000000000000000000000000\n        /* \"#utility.yul\":25909:25910   */\n      0x00\n        /* \"#utility.yul\":25901:25907   */\n      dup3\n        /* \"#utility.yul\":25897:25911   */\n      add\n        /* \"#utility.yul\":25890:25926   */\n      mstore\n        /* \"#utility.yul\":25773:25933   */\n      pop\n      jump\t// out\n        /* \"#utility.yul\":25939:26305   */\n    tag_340:\n        /* \"#utility.yul\":26081:26084   */\n      0x00\n        /* \"#utility.yul\":26102:26169   */\n      tag_605\n        /* \"#utility.yul\":26166:26168   */\n      0x0a\n        /* \"#utility.yul\":26161:26164   */\n      dup4\n        /* \"#utility.yul\":26102:26169   */\n      tag_318\n      jump\t// in\n    tag_605:\n        /* \"#utility.yul\":26095:26169   */\n      swap2\n      pop\n        /* \"#utility.yul\":26178:26271   */\n      tag_606\n        /* \"#utility.yul\":26267:26270   */\n      dup3\n        /* \"#utility.yul\":26178:26271   */\n      tag_339\n      jump\t// in\n    tag_606:\n        /* \"#utility.yul\":26296:26298   */\n      0x20\n        /* \"#utility.yul\":26291:26294   */\n      dup3\n        /* \"#utility.yul\":26287:26299   */\n      add\n        /* \"#utility.yul\":26280:26299   */\n      swap1\n      pop\n        /* \"#utility.yul\":25939:26305   */\n      swap2\n      swap1\n      pop\n      jump\t// out\n        /* \"#utility.yul\":26311:26730   */\n    tag_143:\n        /* \"#utility.yul\":26477:26481   */\n      0x00\n        /* \"#utility.yul\":26515:26517   */\n      0x20\n        /* \"#utility.yul\":26504:26513   */\n      dup3\n        /* \"#utility.yul\":26500:26518   */\n      add\n        /* \"#utility.yul\":26492:26518   */\n      swap1\n      pop\n        /* \"#utility.yul\":26564:26573   */\n      dup2\n        /* \"#utility.yul\":26558:26562   */\n      dup2\n        /* \"#utility.yul\":26554:26574   */\n      sub\n        /* \"#utility.yul\":26550:26551   */\n      0x00\n        /* \"#utility.yul\":26539:26548   */\n      dup4\n        /* \"#utility.yul\":26535:26552   */\n      add\n        /* \"#utility.yul\":26528:26575   */\n      mstore\n        /* \"#utility.yul\":26592:26723   */\n      tag_608\n        /* \"#utility.yul\":26718:26722   */\n      dup2\n        /* \"#utility.yul\":26592:26723   */\n      tag_340\n      jump\t// in\n    tag_608:\n        /* \"#utility.yul\":26584:26723   */\n      swap1\n      pop\n        /* \"#utility.yul\":26311:26730   */\n      swap2\n      swap1\n      pop\n      jump\t// out\n        /* \"#utility.yul\":26736:26908   */\n    tag_341:\n        /* \"#utility.yul\":26876:26900   */\n      0x726577617264207472616e73666572206661696c656400000000000000000000\n        /* \"#utility.yul\":26872:26873   */\n      0x00\n        /* \"#utility.yul\":26864:26870   */\n      dup3\n        /* \"#utility.yul\":26860:26874   */\n      add\n        /* \"#utility.yul\":26853:26901   */\n      mstore\n        /* \"#utility.yul\":26736:26908   */\n      pop\n      jump\t// out\n        /* \"#utility.yul\":26914:27280   */\n    tag_342:\n        /* \"#utility.yul\":27056:27059   */\n      0x00\n        /* \"#utility.yul\":27077:27144   */\n      tag_611\n        /* \"#utility.yul\":27141:27143   */\n      0x16\n        /* \"#utility.yul\":27136:27139   */\n      dup4\n        /* \"#utility.yul\":27077:27144   */\n      tag_318\n      jump\t// in\n    tag_611:\n        /* \"#utility.yul\":27070:27144   */\n      swap2\n      pop\n        /* \"#utility.yul\":27153:27246   */\n      tag_612\n        /* \"#utility.yul\":27242:27245   */\n      dup3\n        /* \"#utility.yul\":27153:27246   */\n      tag_341\n      jump\t// in\n    tag_612:\n        /* \"#utility.yul\":27271:27273   */\n      0x20\n        /* \"#utility.yul\":27266:27269   */\n      dup3\n        /* \"#utility.yul\":27262:27274   */\n      add\n        /* \"#utility.yul\":27255:27274   */\n      swap1\n      pop\n        /* \"#utility.yul\":26914:27280   */\n      swap2\n      swap1\n      pop\n      jump\t// out\n        /* \"#utility.yul\":27286:27705   */\n    tag_160:\n        /* \"#utility.yul\":27452:27456   */\n      0x00\n        /* \"#utility.yul\":27490:27492   */\n      0x20\n        /* \"#utility.yul\":27479:27488   */\n      dup3\n        /* \"#utility.yul\":27475:27493   */\n      add\n        /* \"#utility.yul\":27467:27493   */\n      swap1\n      pop\n        /* \"#utility.yul\":27539:27548   */\n      dup2\n        /* \"#utility.yul\":27533:27537   */\n      dup2\n        /* \"#utility.yul\":27529:27549   */\n      sub\n        /* \"#utility.yul\":27525:27526   */\n      0x00\n        /* \"#utility.yul\":27514:27523   */\n      dup4\n        /* \"#utility.yul\":27510:27527   */\n      add\n        /* \"#utility.yul\":27503:27550   */\n      mstore\n        /* \"#utility.yul\":27567:27698   */\n      tag_614\n        /* \"#utility.yul\":27693:27697   */\n      dup2\n        /* \"#utility.yul\":27567:27698   */\n      tag_342\n      jump\t// in\n    tag_614:\n        /* \"#utility.yul\":27559:27698   */\n      swap1\n      pop\n        /* \"#utility.yul\":27286:27705   */\n      swap2\n      swap1\n      pop\n      jump\t// out\n        /* \"#utility.yul\":27711:27891   */\n    tag_169:\n        /* \"#utility.yul\":27759:27836   */\n      0x4e487b7100000000000000000000000000000000000000000000000000000000\n        /* \"#utility.yul\":27756:27757   */\n      0x00\n        /* \"#utility.yul\":27749:27837   */\n      mstore\n        /* \"#utility.yul\":27856:27860   */\n      0x32\n        /* \"#utility.yul\":27853:27854   */\n      0x04\n        /* \"#utility.yul\":27846:27861   */\n      mstore\n        /* \"#utility.yul\":27880:27884   */\n      0x24\n        /* \"#utility.yul\":27877:27878   */\n      0x00\n        /* \"#utility.yul\":27870:27885   */\n      revert\n        /* \"#utility.yul\":27897:28077   */\n    tag_343:\n        /* \"#utility.yul\":27945:28022   */\n      0x4e487b7100000000000000000000000000000000000000000000000000000000\n        /* \"#utility.yul\":27942:27943   */\n      0x00\n        /* \"#utility.yul\":27935:28023   */\n      mstore\n        /* \"#utility.yul\":28042:28046   */\n      0x11\n        /* \"#utility.yul\":28039:28040   */\n      0x04\n        /* \"#utility.yul\":28032:28047   */\n      mstore\n        /* \"#utility.yul\":28066:28070   */\n      0x24\n        /* \"#utility.yul\":28063:28064   */\n      0x00\n        /* \"#utility.yul\":28056:28071   */\n      revert\n        /* \"#utility.yul\":28083:28277   */\n    tag_171:\n        /* \"#utility.yul\":28123:28127   */\n      0x00\n        /* \"#utility.yul\":28143:28163   */\n      tag_618\n        /* \"#utility.yul\":28161:28162   */\n      dup3\n        /* \"#utility.yul\":28143:28163   */\n      tag_273\n      jump\t// in\n    tag_618:\n        /* \"#utility.yul\":28138:28163   */\n      swap2\n      pop\n        /* \"#utility.yul\":28177:28197   */\n      tag_619\n        /* \"#utility.yul\":28195:28196   */\n      dup4\n        /* \"#utility.yul\":28177:28197   */\n      tag_273\n      jump\t// in\n    tag_619:\n        /* \"#utility.yul\":28172:28197   */\n      swap3\n      pop\n        /* \"#utility.yul\":28221:28222   */\n      dup3\n        /* \"#utility.yul\":28218:28219   */\n      dup3\n        /* \"#utility.yul\":28214:28223   */\n      sub\n        /* \"#utility.yul\":28206:28223   */\n      swap1\n      pop\n        /* \"#utility.yul\":28245:28246   */\n      dup2\n        /* \"#utility.yul\":28239:28243   */\n      dup2\n        /* \"#utility.yul\":28236:28247   */\n      gt\n        /* \"#utility.yul\":28233:28270   */\n      iszero\n      tag_620\n      jumpi\n        /* \"#utility.yul\":28250:28268   */\n      tag_621\n      tag_343\n      jump\t// in\n    tag_621:\n        /* \"#utility.yul\":28233:28270   */\n    tag_620:\n        /* \"#utility.yul\":28083:28277   */\n      swap3\n      swap2\n      pop\n      pop\n      jump\t// out\n        /* \"#utility.yul\":28283:28474   */\n    tag_182:\n        /* \"#utility.yul\":28323:28326   */\n      0x00\n        /* \"#utility.yul\":28342:28362   */\n      tag_623\n        /* \"#utility.yul\":28360:28361   */\n      dup3\n        /* \"#utility.yul\":28342:28362   */\n      tag_273\n      jump\t// in\n    tag_623:\n        /* \"#utility.yul\":28337:28362   */\n      swap2\n      pop\n        /* \"#utility.yul\":28376:28396   */\n      tag_624\n        /* \"#utility.yul\":28394:28395   */\n      dup4\n        /* \"#utility.yul\":28376:28396   */\n      tag_273\n      jump\t// in\n    tag_624:\n        /* \"#utility.yul\":28371:28396   */\n      swap3\n      pop\n        /* \"#utility.yul\":28419:28420   */\n      dup3\n        /* \"#utility.yul\":28416:28417   */\n      dup3\n        /* \"#utility.yul\":28412:28421   */\n      add\n        /* \"#utility.yul\":28405:28421   */\n      swap1\n      pop\n        /* \"#utility.yul\":28440:28443   */\n      dup1\n        /* \"#utility.yul\":28437:28438   */\n      dup3\n        /* \"#utility.yul\":28434:28444   */\n      gt\n        /* \"#utility.yul\":28431:28467   */\n      iszero\n      tag_625\n      jumpi\n        /* \"#utility.yul\":28447:28465   */\n      tag_626\n      tag_343\n      jump\t// in\n    tag_626:\n        /* \"#utility.yul\":28431:28467   */\n    tag_625:\n        /* \"#utility.yul\":28283:28474   */\n      swap3\n      swap2\n      pop\n      pop\n      jump\t// out\n        /* \"#utility.yul\":28480:28713   */\n    tag_190:\n        /* \"#utility.yul\":28519:28522   */\n      0x00\n        /* \"#utility.yul\":28542:28566   */\n      tag_628\n        /* \"#utility.yul\":28560:28565   */\n      dup3\n        /* \"#utility.yul\":28542:28566   */\n      tag_273\n      jump\t// in\n    tag_628:\n        /* \"#utility.yul\":28533:28566   */\n      swap2\n      pop\n        /* \"#utility.yul\":28588:28654   */\n      0xffffffffffffffffffffffffffffffffffffffffffffffffffffffffffffffff\n        /* \"#utility.yul\":28581:28586   */\n      dup3\n        /* \"#utility.yul\":28578:28655   */\n      sub\n        /* \"#utility.yul\":28575:28678   */\n      tag_629\n      jumpi\n        /* \"#utility.yul\":28658:28676   */\n      tag_630\n      tag_343\n      jump\t// in\n    tag_630:\n        /* \"#utility.yul\":28575:28678   */\n    tag_629:\n        /* \"#utility.yul\":28705:28706   */\n      0x01\n        /* \"#utility.yul\":28698:28703   */\n      dup3\n        /* \"#utility.yul\":28694:28707   */\n      add\n        /* \"#utility.yul\":28687:28707   */\n      swap1\n      pop\n        /* \"#utility.yul\":28480:28713   */\n      swap2\n      swap1\n      pop\n      jump\t// out\n        /* \"#utility.yul\":28719:28892   */\n    tag_344:\n        /* \"#utility.yul\":28859:28884   */\n      0x7061796d656e74207472616e73666572206661696c6564000000000000000000\n        /* \"#utility.yul\":28855:28856   */\n      0x00\n        /* \"#utility.yul\":28847:28853   */\n      dup3\n        /* \"#utility.yul\":28843:28857   */\n      add\n        /* \"#utility.yul\":28836:28885   */\n      mstore\n        /* \"#utility.yul\":28719:28892   */\n      pop\n      jump\t// out\n        /* \"#utility.yul\":28898:29264   */\n    tag_345:\n        /* \"#utility.yul\":29040:29043   */\n      0x00\n        /* \"#utility.yul\":29061:29128   */\n      tag_633\n        /* \"#utility.yul\":29125:29127   */\n      0x17\n        /* \"#utility.yul\":29120:29123   */\n      dup4\n        /* \"#utility.yul\":29061:29128   */\n      tag_318\n      jump\t// in\n    tag_633:\n        /* \"#utility.yul\":29054:29128   */\n      swap2\n      pop\n        /* \"#utility.yul\":29137:29230   */\n      tag_634\n        /* \"#utility.yul\":29226:29229   */\n      dup3\n        /* \"#utility.yul\":29137:29230   */\n      tag_344\n      jump\t// in\n    tag_634:\n        /* \"#utility.yul\":29255:29257   */\n      0x20\n        /* \"#utility.yul\":29250:29253   */\n      dup3\n        /* \"#utility.yul\":29246:29258   */\n      add\n        /* \"#utility.yul\":29239:29258   */\n      swap1\n      pop\n        /* \"#utility.yul\":28898:29264   */\n      swap2\n      swap1\n      pop\n      jump\t// out\n        /* \"#utility.yul\":29270:29689   */\n    tag_203:\n        /* \"#utility.yul\":29436:29440   */\n      0x00\n        /* \"#utility.yul\":29474:29476   */\n      0x20\n        /* \"#utility.yul\":29463:29472   */\n      dup3\n        /* \"#utility.yul\":29459:29477   */\n      add\n        /* \"#utility.yul\":29451:29477   */\n      swap1\n      pop\n        /* \"#utility.yul\":29523:29532   */\n      dup2\n        /* \"#utility.yul\":29517:29521   */\n      dup2\n        /* \"#utility.yul\":29513:29533   */\n      sub\n        /* \"#utility.yul\":29509:29510   */\n      0x00\n        /* \"#utility.yul\":29498:29507   */\n      dup4\n        /* \"#utility.yul\":29494:29511   */\n      add\n        /* \"#utility.yul\":29487:29534   */\n      mstore\n        /* \"#utility.yul\":29551:29682   */\n      tag_636\n        /* \"#utility.yul\":29677:29681   */\n      dup2\n        /* \"#utility.yul\":29551:29682   */\n      tag_345\n      jump\t// in\n    tag_636:\n        /* \"#utility.yul\":29543:29682   */\n      swap1\n      pop\n        /* \"#utility.yul\":29270:29689   */\n      swap2\n      swap1\n      pop\n      jump\t// out\n        /* \"#utility.yul\":29695:29875   */\n    tag_346:\n        /* \"#utility.yul\":29835:29867   */\n      0x696e73756666696369656e742066756e6473207472616e736d69747465640000\n        /* \"#utility.yul\":29831:29832   */\n      0x00\n        /* \"#utility.yul\":29823:29829   */\n      dup3\n        /* \"#utility.yul\":29819:29833   */\n      add\n        /* \"#utility.yul\":29812:29868   */\n      mstore\n        /* \"#utility.yul\":29695:29875   */\n      pop\n      jump\t// out\n        /* \"#utility.yul\":29881:30247   */\n    tag_347:\n        /* \"#utility.yul\":30023:30026   */\n      0x00\n        /* \"#utility.yul\":30044:30111   */\n      tag_639\n        /* \"#utility.yul\":30108:30110   */\n      0x1e\n        /* \"#utility.yul\":30103:30106   */\n      dup4\n        /* \"#utility.yul\":30044:30111   */\n      tag_318\n      jump\t// in\n    tag_639:\n        /* \"#utility.yul\":30037:30111   */\n      swap2\n      pop\n        /* \"#utility.yul\":30120:30213   */\n      tag_640\n        /* \"#utility.yul\":30209:30212   */\n      dup3\n        /* \"#utility.yul\":30120:30213   */\n      tag_346\n      jump\t// in\n    tag_640:\n        /* \"#utility.yul\":30238:30240   */\n      0x20\n        /* \"#utility.yul\":30233:30236   */\n      dup3\n        /* \"#utility.yul\":30229:30241   */\n      add\n        /* \"#utility.yul\":30222:30241   */\n      swap1\n      pop\n        /* \"#utility.yul\":29881:30247   */\n      swap2\n      swap1\n      pop\n      jump\t// out\n        /* \"#utility.yul\":30253:30672   */\n    tag_233:\n        /* \"#utility.yul\":30419:30423   */\n      0x00\n        /* \"#utility.yul\":30457:30459   */\n      0x20\n        /* \"#utility.yul\":30446:30455   */\n      dup3\n        /* \"#utility.yul\":30442:30460   */\n      add\n        /* \"#utility.yul\":30434:30460   */\n      swap1\n      pop\n        /* \"#utility.yul\":30506:30515   */\n      dup2\n        /* \"#utility.yul\":30500:30504   */\n      dup2\n        /* \"#utility.yul\":30496:30516   */\n      sub\n        /* \"#utility.yul\":30492:30493   */\n      0x00\n        /* \"#utility.yul\":30481:30490   */\n      dup4\n        /* \"#utility.yul\":30477:30494   */\n      add\n        /* \"#utility.yul\":30470:30517   */\n      mstore\n        /* \"#utility.yul\":30534:30665   */\n      tag_642\n        /* \"#utility.yul\":30660:30664   */\n      dup2\n        /* \"#utility.yul\":30534:30665   */\n      tag_347\n      jump\t// in\n    tag_642:\n        /* \"#utility.yul\":30526:30665   */\n      swap1\n      pop\n        /* \"#utility.yul\":30253:30672   */\n      swap2\n      swap1\n      pop\n      jump\t// out\n        /* \"#utility.yul\":30678:31120   */\n    tag_236:\n        /* \"#utility.yul\":30827:30831   */\n      0x00\n        /* \"#utility.yul\":30865:30867   */\n      0x60\n        /* \"#utility.yul\":30854:30863   */\n      dup3\n        /* \"#utility.yul\":30850:30868   */\n      add\n        /* \"#utility.yul\":30842:30868   */\n      swap1\n      pop\n        /* \"#utility.yul\":30878:30949   */\n      tag_644\n        /* \"#utility.yul\":30946:30947   */\n      0x00\n        /* \"#utility.yul\":30935:30944   */\n      dup4\n        /* \"#utility.yul\":30931:30948   */\n      add\n        /* \"#utility.yul\":30922:30928   */\n      dup7\n        /* \"#utility.yul\":30878:30949   */\n      tag_316\n      jump\t// in\n    tag_644:\n        /* \"#utility.yul\":30959:31031   */\n      tag_645\n        /* \"#utility.yul\":31027:31029   */\n      0x20\n        /* \"#utility.yul\":31016:31025   */\n      dup4\n        /* \"#utility.yul\":31012:31030   */\n      add\n        /* \"#utility.yul\":31003:31009   */\n      dup6\n        /* \"#utility.yul\":30959:31031   */\n      tag_316\n      jump\t// in\n    tag_645:\n        /* \"#utility.yul\":31041:31113   */\n      tag_646\n        /* \"#utility.yul\":31109:31111   */\n      0x40\n        /* \"#utility.yul\":31098:31107   */\n      dup4\n        /* \"#utility.yul\":31094:31112   */\n      add\n        /* \"#utility.yul\":31085:31091   */\n      dup5\n        /* \"#utility.yul\":31041:31113   */\n      tag_285\n      jump\t// in\n    tag_646:\n        /* \"#utility.yul\":30678:31120   */\n      swap5\n      swap4\n      pop\n      pop\n      pop\n      pop\n      jump\t// out\n        /* \"#utility.yul\":31126:31263   */\n    tag_348:\n        /* \"#utility.yul\":31180:31185   */\n      0x00\n        /* \"#utility.yul\":31211:31217   */\n      dup2\n        /* \"#utility.yul\":31205:31218   */\n      mload\n        /* \"#utility.yul\":31196:31218   */\n      swap1\n      pop\n        /* \"#utility.yul\":31227:31257   */\n      tag_648\n        /* \"#utility.yul\":31251:31256   */\n      dup2\n        /* \"#utility.yul\":31227:31257   */\n      tag_308\n      jump\t// in\n    tag_648:\n        /* \"#utility.yul\":31126:31263   */\n      swap3\n      swap2\n      pop\n      pop\n      jump\t// out\n        /* \"#utility.yul\":31269:31614   */\n    tag_240:\n        /* \"#utility.yul\":31336:31342   */\n      0x00\n        /* \"#utility.yul\":31385:31387   */\n      0x20\n        /* \"#utility.yul\":31373:31382   */\n      dup3\n        /* \"#utility.yul\":31364:31371   */\n      dup5\n        /* \"#utility.yul\":31360:31383   */\n      sub\n        /* \"#utility.yul\":31356:31388   */\n      slt\n        /* \"#utility.yul\":31353:31472   */\n      iszero\n      tag_650\n      jumpi\n        /* \"#utility.yul\":31391:31470   */\n      tag_651\n      tag_271\n      jump\t// in\n    tag_651:\n        /* \"#utility.yul\":31353:31472   */\n    tag_650:\n        /* \"#utility.yul\":31511:31512   */\n      0x00\n        /* \"#utility.yul\":31536:31597   */\n      tag_652\n        /* \"#utility.yul\":31589:31596   */\n      dup5\n        /* \"#utility.yul\":31580:31586   */\n      dup3\n        /* \"#utility.yul\":31569:31578   */\n      dup6\n        /* \"#utility.yul\":31565:31587   */\n      add\n        /* \"#utility.yul\":31536:31597   */\n      tag_348\n      jump\t// in\n    tag_652:\n        /* \"#utility.yul\":31526:31597   */\n      swap2\n      pop\n        /* \"#utility.yul\":31482:31607   */\n      pop\n        /* \"#utility.yul\":31269:31614   */\n      swap3\n      swap2\n      pop\n      pop\n      jump\t// out\n        /* \"#utility.yul\":31620:32030   */\n    tag_263:\n        /* \"#utility.yul\":31660:31667   */\n      0x00\n        /* \"#utility.yul\":31683:31703   */\n      tag_654\n        /* \"#utility.yul\":31701:31702   */\n      dup3\n        /* \"#utility.yul\":31683:31703   */\n      tag_273\n      jump\t// in\n    tag_654:\n        /* \"#utility.yul\":31678:31703   */\n      swap2\n      pop\n        /* \"#utility.yul\":31717:31737   */\n      tag_655\n        /* \"#utility.yul\":31735:31736   */\n      dup4\n        /* \"#utility.yul\":31717:31737   */\n      tag_273\n      jump\t// in\n    tag_655:\n        /* \"#utility.yul\":31712:31737   */\n      swap3\n      pop\n        /* \"#utility.yul\":31772:31773   */\n      dup3\n        /* \"#utility.yul\":31769:31770   */\n      dup3\n        /* \"#utility.yul\":31765:31774   */\n      mul\n        /* \"#utility.yul\":31794:31824   */\n      tag_656\n        /* \"#utility.yul\":31812:31823   */\n      dup2\n        /* \"#utility.yul\":31794:31824   */\n      tag_273\n      jump\t// in\n    tag_656:\n        /* \"#utility.yul\":31783:31824   */\n      swap2\n      pop\n        /* \"#utility.yul\":31973:31974   */\n      dup3\n        /* \"#utility.yul\":31964:31971   */\n      dup3\n        /* \"#utility.yul\":31960:31975   */\n      div\n        /* \"#utility.yul\":31957:31958   */\n      dup5\n        /* \"#utility.yul\":31954:31976   */\n      eq\n        /* \"#utility.yul\":31934:31935   */\n      dup4\n        /* \"#utility.yul\":31927:31936   */\n      iszero\n        /* \"#utility.yul\":31907:31990   */\n      or\n        /* \"#utility.yul\":31884:32023   */\n      tag_657\n      jumpi\n        /* \"#utility.yul\":32003:32021   */\n      tag_658\n      tag_343\n      jump\t// in\n    tag_658:\n        /* \"#utility.yul\":31884:32023   */\n    tag_657:\n        /* \"#utility.yul\":31668:32030   */\n      pop\n        /* \"#utility.yul\":31620:32030   */\n      swap3\n      swap2\n      pop\n      pop\n      jump\t// out\n\n    auxdata: 0xa26469706673582212205f4586900fa95f035bbee307a59623fc2b5d2c69776a26bc287575cfddf203b764736f6c634300081a0033\n}\n",
				"bytecode": {
					"linkReferences": {},
					"object": "60e060405234801561000f575f80fd5b50604051612cb3380380612cb38339818101604052810190610031919061017a565b8260015f6101000a81548173ffffffffffffffffffffffffffffffffffffffff021916908373ffffffffffffffffffffffffffffffffffffffff1602179055508173ffffffffffffffffffffffffffffffffffffffff1660a08173ffffffffffffffffffffffffffffffffffffffff16815250503073ffffffffffffffffffffffffffffffffffffffff1660808173ffffffffffffffffffffffffffffffffffffffff16815250508060c081815250505050506101ca565b5f80fd5b5f73ffffffffffffffffffffffffffffffffffffffff82169050919050565b5f610116826100ed565b9050919050565b6101268161010c565b8114610130575f80fd5b50565b5f815190506101418161011d565b92915050565b5f819050919050565b61015981610147565b8114610163575f80fd5b50565b5f8151905061017481610150565b92915050565b5f805f60608486031215610191576101906100e9565b5b5f61019e86828701610133565b93505060206101af86828701610133565b92505060406101c086828701610166565b9150509250925092565b60805160a05160c051612ab16102025f395f610fe201525f81816110c4015261115f01525f818161174c015261188e0152612ab15ff3fe6080604052600436106100e7575f3560e01c806378d5b51711610089578063a9144e1a11610058578063a9144e1a1461033d578063bf22c4571461036d578063cd449446146103a9578063eea3f82d146103e5576100e7565b806378d5b5171461026b57806383238fb41461029b5780639217cbe0146102d7578063970e003c14610301576100e7565b806343351d95116100c557806343351d951461018d5780634b0fa847146101c95780634fb3bebc146101f35780636a00670b1461022f576100e7565b8063098b2cbd146100eb57806337f1e7f214610127578063393f190d14610163575b5f80fd5b3480156100f6575f80fd5b50610111600480360381019061010c9190611ae6565b610421565b60405161011e9190611bc8565b60405180910390f35b348015610132575f80fd5b5061014d60048036038101906101489190611c0b565b610488565b60405161015a9190611c45565b60405180910390f35b34801561016e575f80fd5b506101776104c6565b6040516101849190611bc8565b60405180910390f35b348015610198575f80fd5b506101b360048036038101906101ae9190611ae6565b610557565b6040516101c09190611dad565b60405180910390f35b3480156101d4575f80fd5b506101dd61076c565b6040516101ea9190611bc8565b60405180910390f35b3480156101fe575f80fd5b5061021960048036038101906102149190611f4d565b6107c2565b6040516102269190611c45565b60405180910390f35b34801561023a575f80fd5b5061025560048036038101906102509190611fe0565b61096c565b604051610262919061202d565b60405180910390f35b61028560048036038101906102809190612046565b610a40565b60405161029291906120fd565b60405180910390f35b3480156102a6575f80fd5b506102c160048036038101906102bc91906121da565b610d08565b6040516102ce9190611c45565b60405180910390f35b3480156102e2575f80fd5b506102eb6110c1565b6040516102f89190612243565b60405180910390f35b34801561030c575f80fd5b5061032760048036038101906103229190611ae6565b6110e8565b604051610334919061202d565b60405180910390f35b6103576004803603810190610352919061225c565b61110e565b6040516103649190611dad565b60405180910390f35b348015610378575f80fd5b50610393600480360381019061038e9190611ae6565b611357565b6040516103a09190611dad565b60405180910390f35b3480156103b4575f80fd5b506103cf60048036038101906103ca9190611ae6565b61149f565b6040516103dc91906120fd565b60405180910390f35b3480156103f0575f80fd5b5061040b60048036038101906104069190611ae6565b61153c565b6040516104189190612329565b60405180910390f35b606060085f8381526020019081526020015f2080548060200260200160405190810160405280929190818152602001828054801561047c57602002820191905f5260205f20905b815481526020019060010190808311610468575b50505050509050919050565b5f60075f83600281111561049f5761049e612349565b5b60028111156104b1576104b0612349565b5b81526020019081526020015f20549050919050565b606060045f3373ffffffffffffffffffffffffffffffffffffffff1673ffffffffffffffffffffffffffffffffffffffff1681526020019081526020015f2080548060200260200160405190810160405280929190818152602001828054801561054d57602002820191905f5260205f20905b815481526020019060010190808311610539575b5050505050905090565b61055f6119dc565b3373ffffffffffffffffffffffffffffffffffffffff1660035f8481526020019081526020015f2060040160019054906101000a900473ffffffffffffffffffffffffffffffffffffffff1673ffffffffffffffffffffffffffffffffffffffff1614610601576040517f08c379a00000000000000000000000000000000000000000000000000000000081526004016105f8906123d0565b60405180910390fd5b5f60035f8481526020019081526020015f206004015f6101000a81548160ff02191690831515021790555060035f8381526020019081526020015f206040518060c00160405290815f82015481526020016001820180546106619061241b565b80601f016020809104026020016040519081016040528092919081815260200182805461068d9061241b565b80156106d85780601f106106af576101008083540402835291602001916106d8565b820191905f5260205f20905b8154815290600101906020018083116106bb57829003601f168201915b505050505081526020016002820154815260200160038201548152602001600482015f9054906101000a900460ff161515151581526020016004820160019054906101000a900473ffffffffffffffffffffffffffffffffffffffff1673ffffffffffffffffffffffffffffffffffffffff1673ffffffffffffffffffffffffffffffffffffffff16815250509050919050565b606060028054806020026020016040519081016040528092919081815260200182805480156107b857602002820191905f5260205f20905b8154815260200190600101908083116107a4575b5050505050905090565b5f6001151560035f8881526020019081526020015f206004015f9054906101000a900460ff1615151461082a576040517f08c379a000000000000000000000000000000000000000000000000000000000815260040161082190612495565b60405180910390fd5b5f61083361167a565b90506040518060a001604052808281526020018781526020018681526020018573ffffffffffffffffffffffffffffffffffffffff16815260200184151581525060095f8381526020019081526020015f205f820151815f015560208201518160010190816108a29190612650565b50604082015181600201556060820151816003015f6101000a81548173ffffffffffffffffffffffffffffffffffffffff021916908373ffffffffffffffffffffffffffffffffffffffff16021790555060808201518160030160146101000a81548160ff02191690831515021790555090505060085f8881526020019081526020015f2081908060018154018082558091505060019003905f5260205f20015f909190919091505560085f8881526020019081526020015f208054905091505095945050505050565b5f60015f9054906101000a900473ffffffffffffffffffffffffffffffffffffffff1673ffffffffffffffffffffffffffffffffffffffff163373ffffffffffffffffffffffffffffffffffffffff16146109fc576040517f08c379a00000000000000000000000000000000000000000000000000000000081526004016109f390612769565b60405180910390fd5b8160075f856002811115610a1357610a12612349565b5b6002811115610a2557610a24612349565b5b81526020019081526020015f20819055506001905092915050565b610a48611a25565b3373ffffffffffffffffffffffffffffffffffffffff1660035f8781526020019081526020015f2060040160019054906101000a900473ffffffffffffffffffffffffffffffffffffffff1673ffffffffffffffffffffffffffffffffffffffff1614610aea576040517f08c379a0000000000000000000000000000000000000000000000000000000008152600401610ae1906123d0565b60405180910390fd5b6001151560035f8781526020019081526020015f206004015f9054906101000a900460ff16151514610b51576040517f08c379a0000000000000000000000000000000000000000000000000000000008152600401610b4890612495565b60405180910390fd5b610b5b8484611695565b610b9a576040517f08c379a0000000000000000000000000000000000000000000000000000000008152600401610b91906127d1565b60405180910390fd5b600160055f8781526020019081526020015f205f6101000a81548160ff02191690831515021790555060405180608001604052808573ffffffffffffffffffffffffffffffffffffffff1681526020018481526020018381526020015f81525060065f8781526020019081526020015f205f820151815f015f6101000a81548173ffffffffffffffffffffffffffffffffffffffff021916908373ffffffffffffffffffffffffffffffffffffffff16021790555060208201518160010155604082015181600201556060820151816003015590505060065f8681526020019081526020015f206040518060800160405290815f82015f9054906101000a900473ffffffffffffffffffffffffffffffffffffffff1673ffffffffffffffffffffffffffffffffffffffff1673ffffffffffffffffffffffffffffffffffffffff16815260200160018201548152602001600282015481526020016003820154815250509050949350505050565b5f3373ffffffffffffffffffffffffffffffffffffffff1660035f8581526020019081526020015f2060040160019054906101000a900473ffffffffffffffffffffffffffffffffffffffff1673ffffffffffffffffffffffffffffffffffffffff1614610dab576040517f08c379a0000000000000000000000000000000000000000000000000000000008152600401610da2906123d0565b60405180910390fd5b5f5b82518110156110ba575f838281518110610dca57610dc96127ef565b5b602002602001015190505f60065f8781526020019081526020015f206003015460065f8881526020019081526020015f2060010154610e099190612849565b9050600a5f8781526020019081526020015f205f8381526020019081526020015f205f9054906101000a900460ff168015610e4357505f81115b156110ab575f60095f8481526020019081526020015f206040518060a00160405290815f8201548152602001600182018054610e7e9061241b565b80601f0160208091040260200160405190810160405280929190818152602001828054610eaa9061241b565b8015610ef55780601f10610ecc57610100808354040283529160200191610ef5565b820191905f5260205f20905b815481529060010190602001808311610ed857829003601f168201915b5050505050815260200160028201548152602001600382015f9054906101000a900473ffffffffffffffffffffffffffffffffffffffff1673ffffffffffffffffffffffffffffffffffffffff1673ffffffffffffffffffffffffffffffffffffffff1681526020016003820160149054906101000a900460ff16151515158152505090505f60065f8981526020019081526020015f20600201548310610fb25760065f8981526020019081526020015f20600201549050610fb6565b8290505b8060065f8a81526020019081526020015f206003015f828254610fd9919061287c565b925050819055507f00000000000000000000000000000000000000000000000000000000000000008260400151036110525761104c60065f8a81526020019081526020015f205f015f9054906101000a900473ffffffffffffffffffffffffffffffffffffffff168284606001516117d7565b5061109a565b61109860065f8a81526020019081526020015f205f015f9054906101000a900473ffffffffffffffffffffffffffffffffffffffff16828460600151856040015161191b565b505b85806110a5906128af565b96505050505b50508080600101915050610dad565b5092915050565b5f7f0000000000000000000000000000000000000000000000000000000000000000905090565b5f60055f8381526020019081526020015f205f9054906101000a900460ff169050919050565b6111166119dc565b5f61111f61167a565b90505f60075f85600281111561113857611137612349565b5b600281111561114a57611149612349565b5b81526020019081526020015f205490506111847f000000000000000000000000000000000000000000000000000000000000000082611695565b6111c3576040517f08c379a00000000000000000000000000000000000000000000000000000000081526004016111ba90612940565b60405180910390fd5b600282908060018154018082558091505060019003905f5260205f20015f90919091909150556040518060c001604052808381526020018681526020014281526020014261121087611924565b61121a919061287c565b81526020016001151581526020013373ffffffffffffffffffffffffffffffffffffffff1681525060035f8481526020019081526020015f205f820151815f015560208201518160010190816112709190612650565b5060408201518160020155606082015181600301556080820151816004015f6101000a81548160ff02191690831515021790555060a08201518160040160016101000a81548173ffffffffffffffffffffffffffffffffffffffff021916908373ffffffffffffffffffffffffffffffffffffffff16021790555090505060045f3373ffffffffffffffffffffffffffffffffffffffff1673ffffffffffffffffffffffffffffffffffffffff1681526020019081526020015f2082908060018154018082558091505060019003905f5260205f20015f9091909190915055505092915050565b61135f6119dc565b60035f8381526020019081526020015f206040518060c00160405290815f82015481526020016001820180546113949061241b565b80601f01602080910402602001604051908101604052809291908181526020018280546113c09061241b565b801561140b5780601f106113e25761010080835404028352916020019161140b565b820191905f5260205f20905b8154815290600101906020018083116113ee57829003601f168201915b505050505081526020016002820154815260200160038201548152602001600482015f9054906101000a900460ff161515151581526020016004820160019054906101000a900473ffffffffffffffffffffffffffffffffffffffff1673ffffffffffffffffffffffffffffffffffffffff1673ffffffffffffffffffffffffffffffffffffffff16815250509050919050565b6114a7611a25565b60065f8381526020019081526020015f206040518060800160405290815f82015f9054906101000a900473ffffffffffffffffffffffffffffffffffffffff1673ffffffffffffffffffffffffffffffffffffffff1673ffffffffffffffffffffffffffffffffffffffff16815260200160018201548152602001600282015481526020016003820154815250509050919050565b611544611a5f565b60095f8381526020019081526020015f206040518060a00160405290815f82015481526020016001820180546115799061241b565b80601f01602080910402602001604051908101604052809291908181526020018280546115a59061241b565b80156115f05780601f106115c7576101008083540402835291602001916115f0565b820191905f5260205f20905b8154815290600101906020018083116115d357829003601f168201915b5050505050815260200160028201548152602001600382015f9054906101000a900473ffffffffffffffffffffffffffffffffffffffff1673ffffffffffffffffffffffffffffffffffffffff1673ffffffffffffffffffffffffffffffffffffffff1681526020016003820160149054906101000a900460ff1615151515815250509050919050565b5f805f81548092919061168c906128af565b91905055905090565b5f73eeeeeeeeeeeeeeeeeeeeeeeeeeeeeeeeeeeeeeee73ffffffffffffffffffffffffffffffffffffffff168373ffffffffffffffffffffffffffffffffffffffff16036117295781341015611720576040517f08c379a0000000000000000000000000000000000000000000000000000000008152600401611717906129a8565b60405180910390fd5b600190506117d1565b5f8390508073ffffffffffffffffffffffffffffffffffffffff166323b872dd337f0000000000000000000000000000000000000000000000000000000000000000866040518463ffffffff1660e01b815260040161178a939291906129c6565b6020604051808303815f875af11580156117a6573d5f803e3d5ffd5b505050506040513d601f19601f820116820180604052508101906117ca9190612a0f565b5060019150505b92915050565b5f73eeeeeeeeeeeeeeeeeeeeeeeeeeeeeeeeeeeeeeee73ffffffffffffffffffffffffffffffffffffffff168473ffffffffffffffffffffffffffffffffffffffff160361186c578173ffffffffffffffffffffffffffffffffffffffff166108fc8490811502906040515f60405180830381858888f19350505050158015611862573d5f803e3d5ffd5b5060019050611914565b5f8490508073ffffffffffffffffffffffffffffffffffffffff166323b872dd7f000000000000000000000000000000000000000000000000000000000000000085876040518463ffffffff1660e01b81526004016118cd939291906129c6565b6020604051808303815f875af11580156118e9573d5f803e3d5ffd5b505050506040513d601f19601f8201168201806040525081019061190d9190612a0f565b5060019150505b9392505050565b5f949350505050565b5f62093a8090505f600281111561193e5761193d612349565b5b82600281111561195157611950612349565b5b03156119d7576001600281111561196b5761196a612349565b5b82600281111561197e5761197d612349565b5b03611997576002816119909190612a3a565b90506119d7565b6002808111156119aa576119a9612349565b5b8260028111156119bd576119bc612349565b5b036119d6576004816119cf9190612a3a565b90506119d7565b5b919050565b6040518060c001604052805f8152602001606081526020015f81526020015f81526020015f151581526020015f73ffffffffffffffffffffffffffffffffffffffff1681525090565b60405180608001604052805f73ffffffffffffffffffffffffffffffffffffffff1681526020015f81526020015f81526020015f81525090565b6040518060a001604052805f8152602001606081526020015f81526020015f73ffffffffffffffffffffffffffffffffffffffff1681526020015f151581525090565b5f604051905090565b5f80fd5b5f80fd5b5f819050919050565b611ac581611ab3565b8114611acf575f80fd5b50565b5f81359050611ae081611abc565b92915050565b5f60208284031215611afb57611afa611aab565b5b5f611b0884828501611ad2565b91505092915050565b5f81519050919050565b5f82825260208201905092915050565b5f819050602082019050919050565b611b4381611ab3565b82525050565b5f611b548383611b3a565b60208301905092915050565b5f602082019050919050565b5f611b7682611b11565b611b808185611b1b565b9350611b8b83611b2b565b805f5b83811015611bbb578151611ba28882611b49565b9750611bad83611b60565b925050600181019050611b8e565b5085935050505092915050565b5f6020820190508181035f830152611be08184611b6c565b905092915050565b60038110611bf4575f80fd5b50565b5f81359050611c0581611be8565b92915050565b5f60208284031215611c2057611c1f611aab565b5b5f611c2d84828501611bf7565b91505092915050565b611c3f81611ab3565b82525050565b5f602082019050611c585f830184611c36565b92915050565b5f81519050919050565b5f82825260208201905092915050565b8281835e5f83830152505050565b5f601f19601f8301169050919050565b5f611ca082611c5e565b611caa8185611c68565b9350611cba818560208601611c78565b611cc381611c86565b840191505092915050565b5f8115159050919050565b611ce281611cce565b82525050565b5f73ffffffffffffffffffffffffffffffffffffffff82169050919050565b5f611d1182611ce8565b9050919050565b611d2181611d07565b82525050565b5f60c083015f830151611d3c5f860182611b3a565b5060208301518482036020860152611d548282611c96565b9150506040830151611d696040860182611b3a565b506060830151611d7c6060860182611b3a565b506080830151611d8f6080860182611cd9565b5060a0830151611da260a0860182611d18565b508091505092915050565b5f6020820190508181035f830152611dc58184611d27565b905092915050565b5f80fd5b5f80fd5b7f4e487b71000000000000000000000000000000000000000000000000000000005f52604160045260245ffd5b611e0b82611c86565b810181811067ffffffffffffffff82111715611e2a57611e29611dd5565b5b80604052505050565b5f611e3c611aa2565b9050611e488282611e02565b919050565b5f67ffffffffffffffff821115611e6757611e66611dd5565b5b611e7082611c86565b9050602081019050919050565b828183375f83830152505050565b5f611e9d611e9884611e4d565b611e33565b905082815260208101848484011115611eb957611eb8611dd1565b5b611ec4848285611e7d565b509392505050565b5f82601f830112611ee057611edf611dcd565b5b8135611ef0848260208601611e8b565b91505092915050565b611f0281611d07565b8114611f0c575f80fd5b50565b5f81359050611f1d81611ef9565b92915050565b611f2c81611cce565b8114611f36575f80fd5b50565b5f81359050611f4781611f23565b92915050565b5f805f805f60a08688031215611f6657611f65611aab565b5b5f611f7388828901611ad2565b955050602086013567ffffffffffffffff811115611f9457611f93611aaf565b5b611fa088828901611ecc565b9450506040611fb188828901611ad2565b9350506060611fc288828901611f0f565b9250506080611fd388828901611f39565b9150509295509295909350565b5f8060408385031215611ff657611ff5611aab565b5b5f61200385828601611bf7565b925050602061201485828601611ad2565b9150509250929050565b61202781611cce565b82525050565b5f6020820190506120405f83018461201e565b92915050565b5f805f806080858703121561205e5761205d611aab565b5b5f61206b87828801611ad2565b945050602061207c87828801611f0f565b935050604061208d87828801611ad2565b925050606061209e87828801611ad2565b91505092959194509250565b608082015f8201516120be5f850182611d18565b5060208201516120d16020850182611b3a565b5060408201516120e46040850182611b3a565b5060608201516120f76060850182611b3a565b50505050565b5f6080820190506121105f8301846120aa565b92915050565b5f67ffffffffffffffff8211156121305761212f611dd5565b5b602082029050602081019050919050565b5f80fd5b5f61215761215284612116565b611e33565b9050808382526020820190506020840283018581111561217a57612179612141565b5b835b818110156121a3578061218f8882611ad2565b84526020840193505060208101905061217c565b5050509392505050565b5f82601f8301126121c1576121c0611dcd565b5b81356121d1848260208601612145565b91505092915050565b5f80604083850312156121f0576121ef611aab565b5b5f6121fd85828601611ad2565b925050602083013567ffffffffffffffff81111561221e5761221d611aaf565b5b61222a858286016121ad565b9150509250929050565b61223d81611d07565b82525050565b5f6020820190506122565f830184612234565b92915050565b5f806040838503121561227257612271611aab565b5b5f83013567ffffffffffffffff81111561228f5761228e611aaf565b5b61229b85828601611ecc565b92505060206122ac85828601611bf7565b9150509250929050565b5f60a083015f8301516122cb5f860182611b3a565b50602083015184820360208601526122e38282611c96565b91505060408301516122f86040860182611b3a565b50606083015161230b6060860182611d18565b50608083015161231e6080860182611cd9565b508091505092915050565b5f6020820190508181035f83015261234181846122b6565b905092915050565b7f4e487b71000000000000000000000000000000000000000000000000000000005f52602160045260245ffd5b5f82825260208201905092915050565b7f6a6f62206f776e6572206f6e6c790000000000000000000000000000000000005f82015250565b5f6123ba600e83612376565b91506123c582612386565b602082019050919050565b5f6020820190508181035f8301526123e7816123ae565b9050919050565b7f4e487b71000000000000000000000000000000000000000000000000000000005f52602260045260245ffd5b5f600282049050600182168061243257607f821691505b602082108103612445576124446123ee565b5b50919050565b7f6a6f6220756e617661696c61626c6500000000000000000000000000000000005f82015250565b5f61247f600f83612376565b915061248a8261244b565b602082019050919050565b5f6020820190508181035f8301526124ac81612473565b9050919050565b5f819050815f5260205f209050919050565b5f6020601f8301049050919050565b5f82821b905092915050565b5f6008830261250f7fffffffffffffffffffffffffffffffffffffffffffffffffffffffffffffffff826124d4565b61251986836124d4565b95508019841693508086168417925050509392505050565b5f819050919050565b5f61255461254f61254a84611ab3565b612531565b611ab3565b9050919050565b5f819050919050565b61256d8361253a565b6125816125798261255b565b8484546124e0565b825550505050565b5f90565b612595612589565b6125a0818484612564565b505050565b5b818110156125c3576125b85f8261258d565b6001810190506125a6565b5050565b601f821115612608576125d9816124b3565b6125e2846124c5565b810160208510156125f1578190505b6126056125fd856124c5565b8301826125a5565b50505b505050565b5f82821c905092915050565b5f6126285f198460080261260d565b1980831691505092915050565b5f6126408383612619565b9150826002028217905092915050565b61265982611c5e565b67ffffffffffffffff81111561267257612671611dd5565b5b61267c825461241b565b6126878282856125c7565b5f60209050601f8311600181146126b8575f84156126a6578287015190505b6126b08582612635565b865550612717565b601f1984166126c6866124b3565b5f5b828110156126ed578489015182556001820191506020850194506020810190506126c8565b8683101561270a5784890151612706601f891682612619565b8355505b6001600288020188555050505b505050505050565b7f61646d696e206f6e6c79000000000000000000000000000000000000000000005f82015250565b5f612753600a83612376565b915061275e8261271f565b602082019050919050565b5f6020820190508181035f83015261278081612747565b9050919050565b7f726577617264207472616e73666572206661696c6564000000000000000000005f82015250565b5f6127bb601683612376565b91506127c682612787565b602082019050919050565b5f6020820190508181035f8301526127e8816127af565b9050919050565b7f4e487b71000000000000000000000000000000000000000000000000000000005f52603260045260245ffd5b7f4e487b71000000000000000000000000000000000000000000000000000000005f52601160045260245ffd5b5f61285382611ab3565b915061285e83611ab3565b92508282039050818111156128765761287561281c565b5b92915050565b5f61288682611ab3565b915061289183611ab3565b92508282019050808211156128a9576128a861281c565b5b92915050565b5f6128b982611ab3565b91507fffffffffffffffffffffffffffffffffffffffffffffffffffffffffffffffff82036128eb576128ea61281c565b5b600182019050919050565b7f7061796d656e74207472616e73666572206661696c65640000000000000000005f82015250565b5f61292a601783612376565b9150612935826128f6565b602082019050919050565b5f6020820190508181035f8301526129578161291e565b9050919050565b7f696e73756666696369656e742066756e6473207472616e736d697474656400005f82015250565b5f612992601e83612376565b915061299d8261295e565b602082019050919050565b5f6020820190508181035f8301526129bf81612986565b9050919050565b5f6060820190506129d95f830186612234565b6129e66020830185612234565b6129f36040830184611c36565b949350505050565b5f81519050612a0981611f23565b92915050565b5f60208284031215612a2457612a23611aab565b5b5f612a31848285016129fb565b91505092915050565b5f612a4482611ab3565b9150612a4f83611ab3565b9250828202612a5d81611ab3565b91508282048414831517612a7457612a7361281c565b5b509291505056fea26469706673582212205f4586900fa95f035bbee307a59623fc2b5d2c69776a26bc287575cfddf203b764736f6c634300081a0033",
					"opcodes": "PUSH1 0xE0 PUSH1 0x40 MSTORE CALLVALUE DUP1 ISZERO PUSH2 0xF JUMPI PUSH0 DUP1 REVERT JUMPDEST POP PUSH1 0x40 MLOAD PUSH2 0x2CB3 CODESIZE SUB DUP1 PUSH2 0x2CB3 DUP4 CODECOPY DUP2 DUP2 ADD PUSH1 0x40 MSTORE DUP2 ADD SWAP1 PUSH2 0x31 SWAP2 SWAP1 PUSH2 0x17A JUMP JUMPDEST DUP3 PUSH1 0x1 PUSH0 PUSH2 0x100 EXP DUP2 SLOAD DUP2 PUSH20 0xFFFFFFFFFFFFFFFFFFFFFFFFFFFFFFFFFFFFFFFF MUL NOT AND SWAP1 DUP4 PUSH20 0xFFFFFFFFFFFFFFFFFFFFFFFFFFFFFFFFFFFFFFFF AND MUL OR SWAP1 SSTORE POP DUP2 PUSH20 0xFFFFFFFFFFFFFFFFFFFFFFFFFFFFFFFFFFFFFFFF AND PUSH1 0xA0 DUP2 PUSH20 0xFFFFFFFFFFFFFFFFFFFFFFFFFFFFFFFFFFFFFFFF AND DUP2 MSTORE POP POP ADDRESS PUSH20 0xFFFFFFFFFFFFFFFFFFFFFFFFFFFFFFFFFFFFFFFF AND PUSH1 0x80 DUP2 PUSH20 0xFFFFFFFFFFFFFFFFFFFFFFFFFFFFFFFFFFFFFFFF AND DUP2 MSTORE POP POP DUP1 PUSH1 0xC0 DUP2 DUP2 MSTORE POP POP POP POP POP PUSH2 0x1CA JUMP JUMPDEST PUSH0 DUP1 REVERT JUMPDEST PUSH0 PUSH20 0xFFFFFFFFFFFFFFFFFFFFFFFFFFFFFFFFFFFFFFFF DUP3 AND SWAP1 POP SWAP2 SWAP1 POP JUMP JUMPDEST PUSH0 PUSH2 0x116 DUP3 PUSH2 0xED JUMP JUMPDEST SWAP1 POP SWAP2 SWAP1 POP JUMP JUMPDEST PUSH2 0x126 DUP2 PUSH2 0x10C JUMP JUMPDEST DUP2 EQ PUSH2 0x130 JUMPI PUSH0 DUP1 REVERT JUMPDEST POP JUMP JUMPDEST PUSH0 DUP2 MLOAD SWAP1 POP PUSH2 0x141 DUP2 PUSH2 0x11D JUMP JUMPDEST SWAP3 SWAP2 POP POP JUMP JUMPDEST PUSH0 DUP2 SWAP1 POP SWAP2 SWAP1 POP JUMP JUMPDEST PUSH2 0x159 DUP2 PUSH2 0x147 JUMP JUMPDEST DUP2 EQ PUSH2 0x163 JUMPI PUSH0 DUP1 REVERT JUMPDEST POP JUMP JUMPDEST PUSH0 DUP2 MLOAD SWAP1 POP PUSH2 0x174 DUP2 PUSH2 0x150 JUMP JUMPDEST SWAP3 SWAP2 POP POP JUMP JUMPDEST PUSH0 DUP1 PUSH0 PUSH1 0x60 DUP5 DUP7 SUB SLT ISZERO PUSH2 0x191 JUMPI PUSH2 0x190 PUSH2 0xE9 JUMP JUMPDEST JUMPDEST PUSH0 PUSH2 0x19E DUP7 DUP3 DUP8 ADD PUSH2 0x133 JUMP JUMPDEST SWAP4 POP POP PUSH1 0x20 PUSH2 0x1AF DUP7 DUP3 DUP8 ADD PUSH2 0x133 JUMP JUMPDEST SWAP3 POP POP PUSH1 0x40 PUSH2 0x1C0 DUP7 DUP3 DUP8 ADD PUSH2 0x166 JUMP JUMPDEST SWAP2 POP POP SWAP3 POP SWAP3 POP SWAP3 JUMP JUMPDEST PUSH1 0x80 MLOAD PUSH1 0xA0 MLOAD PUSH1 0xC0 MLOAD PUSH2 0x2AB1 PUSH2 0x202 PUSH0 CODECOPY PUSH0 PUSH2 0xFE2 ADD MSTORE PUSH0 DUP2 DUP2 PUSH2 0x10C4 ADD MSTORE PUSH2 0x115F ADD MSTORE PUSH0 DUP2 DUP2 PUSH2 0x174C ADD MSTORE PUSH2 0x188E ADD MSTORE PUSH2 0x2AB1 PUSH0 RETURN INVALID PUSH1 0x80 PUSH1 0x40 MSTORE PUSH1 0x4 CALLDATASIZE LT PUSH2 0xE7 JUMPI PUSH0 CALLDATALOAD PUSH1 0xE0 SHR DUP1 PUSH4 0x78D5B517 GT PUSH2 0x89 JUMPI DUP1 PUSH4 0xA9144E1A GT PUSH2 0x58 JUMPI DUP1 PUSH4 0xA9144E1A EQ PUSH2 0x33D JUMPI DUP1 PUSH4 0xBF22C457 EQ PUSH2 0x36D JUMPI DUP1 PUSH4 0xCD449446 EQ PUSH2 0x3A9 JUMPI DUP1 PUSH4 0xEEA3F82D EQ PUSH2 0x3E5 JUMPI PUSH2 0xE7 JUMP JUMPDEST DUP1 PUSH4 0x78D5B517 EQ PUSH2 0x26B JUMPI DUP1 PUSH4 0x83238FB4 EQ PUSH2 0x29B JUMPI DUP1 PUSH4 0x9217CBE0 EQ PUSH2 0x2D7 JUMPI DUP1 PUSH4 0x970E003C EQ PUSH2 0x301 JUMPI PUSH2 0xE7 JUMP JUMPDEST DUP1 PUSH4 0x43351D95 GT PUSH2 0xC5 JUMPI DUP1 PUSH4 0x43351D95 EQ PUSH2 0x18D JUMPI DUP1 PUSH4 0x4B0FA847 EQ PUSH2 0x1C9 JUMPI DUP1 PUSH4 0x4FB3BEBC EQ PUSH2 0x1F3 JUMPI DUP1 PUSH4 0x6A00670B EQ PUSH2 0x22F JUMPI PUSH2 0xE7 JUMP JUMPDEST DUP1 PUSH4 0x98B2CBD EQ PUSH2 0xEB JUMPI DUP1 PUSH4 0x37F1E7F2 EQ PUSH2 0x127 JUMPI DUP1 PUSH4 0x393F190D EQ PUSH2 0x163 JUMPI JUMPDEST PUSH0 DUP1 REVERT JUMPDEST CALLVALUE DUP1 ISZERO PUSH2 0xF6 JUMPI PUSH0 DUP1 REVERT JUMPDEST POP PUSH2 0x111 PUSH1 0x4 DUP1 CALLDATASIZE SUB DUP2 ADD SWAP1 PUSH2 0x10C SWAP2 SWAP1 PUSH2 0x1AE6 JUMP JUMPDEST PUSH2 0x421 JUMP JUMPDEST PUSH1 0x40 MLOAD PUSH2 0x11E SWAP2 SWAP1 PUSH2 0x1BC8 JUMP JUMPDEST PUSH1 0x40 MLOAD DUP1 SWAP2 SUB SWAP1 RETURN JUMPDEST CALLVALUE DUP1 ISZERO PUSH2 0x132 JUMPI PUSH0 DUP1 REVERT JUMPDEST POP PUSH2 0x14D PUSH1 0x4 DUP1 CALLDATASIZE SUB DUP2 ADD SWAP1 PUSH2 0x148 SWAP2 SWAP1 PUSH2 0x1C0B JUMP JUMPDEST PUSH2 0x488 JUMP JUMPDEST PUSH1 0x40 MLOAD PUSH2 0x15A SWAP2 SWAP1 PUSH2 0x1C45 JUMP JUMPDEST PUSH1 0x40 MLOAD DUP1 SWAP2 SUB SWAP1 RETURN JUMPDEST CALLVALUE DUP1 ISZERO PUSH2 0x16E JUMPI PUSH0 DUP1 REVERT JUMPDEST POP PUSH2 0x177 PUSH2 0x4C6 JUMP JUMPDEST PUSH1 0x40 MLOAD PUSH2 0x184 SWAP2 SWAP1 PUSH2 0x1BC8 JUMP JUMPDEST PUSH1 0x40 MLOAD DUP1 SWAP2 SUB SWAP1 RETURN JUMPDEST CALLVALUE DUP1 ISZERO PUSH2 0x198 JUMPI PUSH0 DUP1 REVERT JUMPDEST POP PUSH2 0x1B3 PUSH1 0x4 DUP1 CALLDATASIZE SUB DUP2 ADD SWAP1 PUSH2 0x1AE SWAP2 SWAP1 PUSH2 0x1AE6 JUMP JUMPDEST PUSH2 0x557 JUMP JUMPDEST PUSH1 0x40 MLOAD PUSH2 0x1C0 SWAP2 SWAP1 PUSH2 0x1DAD JUMP JUMPDEST PUSH1 0x40 MLOAD DUP1 SWAP2 SUB SWAP1 RETURN JUMPDEST CALLVALUE DUP1 ISZERO PUSH2 0x1D4 JUMPI PUSH0 DUP1 REVERT JUMPDEST POP PUSH2 0x1DD PUSH2 0x76C JUMP JUMPDEST PUSH1 0x40 MLOAD PUSH2 0x1EA SWAP2 SWAP1 PUSH2 0x1BC8 JUMP JUMPDEST PUSH1 0x40 MLOAD DUP1 SWAP2 SUB SWAP1 RETURN JUMPDEST CALLVALUE DUP1 ISZERO PUSH2 0x1FE JUMPI PUSH0 DUP1 REVERT JUMPDEST POP PUSH2 0x219 PUSH1 0x4 DUP1 CALLDATASIZE SUB DUP2 ADD SWAP1 PUSH2 0x214 SWAP2 SWAP1 PUSH2 0x1F4D JUMP JUMPDEST PUSH2 0x7C2 JUMP JUMPDEST PUSH1 0x40 MLOAD PUSH2 0x226 SWAP2 SWAP1 PUSH2 0x1C45 JUMP JUMPDEST PUSH1 0x40 MLOAD DUP1 SWAP2 SUB SWAP1 RETURN JUMPDEST CALLVALUE DUP1 ISZERO PUSH2 0x23A JUMPI PUSH0 DUP1 REVERT JUMPDEST POP PUSH2 0x255 PUSH1 0x4 DUP1 CALLDATASIZE SUB DUP2 ADD SWAP1 PUSH2 0x250 SWAP2 SWAP1 PUSH2 0x1FE0 JUMP JUMPDEST PUSH2 0x96C JUMP JUMPDEST PUSH1 0x40 MLOAD PUSH2 0x262 SWAP2 SWAP1 PUSH2 0x202D JUMP JUMPDEST PUSH1 0x40 MLOAD DUP1 SWAP2 SUB SWAP1 RETURN JUMPDEST PUSH2 0x285 PUSH1 0x4 DUP1 CALLDATASIZE SUB DUP2 ADD SWAP1 PUSH2 0x280 SWAP2 SWAP1 PUSH2 0x2046 JUMP JUMPDEST PUSH2 0xA40 JUMP JUMPDEST PUSH1 0x40 MLOAD PUSH2 0x292 SWAP2 SWAP1 PUSH2 0x20FD JUMP JUMPDEST PUSH1 0x40 MLOAD DUP1 SWAP2 SUB SWAP1 RETURN JUMPDEST CALLVALUE DUP1 ISZERO PUSH2 0x2A6 JUMPI PUSH0 DUP1 REVERT JUMPDEST POP PUSH2 0x2C1 PUSH1 0x4 DUP1 CALLDATASIZE SUB DUP2 ADD SWAP1 PUSH2 0x2BC SWAP2 SWAP1 PUSH2 0x21DA JUMP JUMPDEST PUSH2 0xD08 JUMP JUMPDEST PUSH1 0x40 MLOAD PUSH2 0x2CE SWAP2 SWAP1 PUSH2 0x1C45 JUMP JUMPDEST PUSH1 0x40 MLOAD DUP1 SWAP2 SUB SWAP1 RETURN JUMPDEST CALLVALUE DUP1 ISZERO PUSH2 0x2E2 JUMPI PUSH0 DUP1 REVERT JUMPDEST POP PUSH2 0x2EB PUSH2 0x10C1 JUMP JUMPDEST PUSH1 0x40 MLOAD PUSH2 0x2F8 SWAP2 SWAP1 PUSH2 0x2243 JUMP JUMPDEST PUSH1 0x40 MLOAD DUP1 SWAP2 SUB SWAP1 RETURN JUMPDEST CALLVALUE DUP1 ISZERO PUSH2 0x30C JUMPI PUSH0 DUP1 REVERT JUMPDEST POP PUSH2 0x327 PUSH1 0x4 DUP1 CALLDATASIZE SUB DUP2 ADD SWAP1 PUSH2 0x322 SWAP2 SWAP1 PUSH2 0x1AE6 JUMP JUMPDEST PUSH2 0x10E8 JUMP JUMPDEST PUSH1 0x40 MLOAD PUSH2 0x334 SWAP2 SWAP1 PUSH2 0x202D JUMP JUMPDEST PUSH1 0x40 MLOAD DUP1 SWAP2 SUB SWAP1 RETURN JUMPDEST PUSH2 0x357 PUSH1 0x4 DUP1 CALLDATASIZE SUB DUP2 ADD SWAP1 PUSH2 0x352 SWAP2 SWAP1 PUSH2 0x225C JUMP JUMPDEST PUSH2 0x110E JUMP JUMPDEST PUSH1 0x40 MLOAD PUSH2 0x364 SWAP2 SWAP1 PUSH2 0x1DAD JUMP JUMPDEST PUSH1 0x40 MLOAD DUP1 SWAP2 SUB SWAP1 RETURN JUMPDEST CALLVALUE DUP1 ISZERO PUSH2 0x378 JUMPI PUSH0 DUP1 REVERT JUMPDEST POP PUSH2 0x393 PUSH1 0x4 DUP1 CALLDATASIZE SUB DUP2 ADD SWAP1 PUSH2 0x38E SWAP2 SWAP1 PUSH2 0x1AE6 JUMP JUMPDEST PUSH2 0x1357 JUMP JUMPDEST PUSH1 0x40 MLOAD PUSH2 0x3A0 SWAP2 SWAP1 PUSH2 0x1DAD JUMP JUMPDEST PUSH1 0x40 MLOAD DUP1 SWAP2 SUB SWAP1 RETURN JUMPDEST CALLVALUE DUP1 ISZERO PUSH2 0x3B4 JUMPI PUSH0 DUP1 REVERT JUMPDEST POP PUSH2 0x3CF PUSH1 0x4 DUP1 CALLDATASIZE SUB DUP2 ADD SWAP1 PUSH2 0x3CA SWAP2 SWAP1 PUSH2 0x1AE6 JUMP JUMPDEST PUSH2 0x149F JUMP JUMPDEST PUSH1 0x40 MLOAD PUSH2 0x3DC SWAP2 SWAP1 PUSH2 0x20FD JUMP JUMPDEST PUSH1 0x40 MLOAD DUP1 SWAP2 SUB SWAP1 RETURN JUMPDEST CALLVALUE DUP1 ISZERO PUSH2 0x3F0 JUMPI PUSH0 DUP1 REVERT JUMPDEST POP PUSH2 0x40B PUSH1 0x4 DUP1 CALLDATASIZE SUB DUP2 ADD SWAP1 PUSH2 0x406 SWAP2 SWAP1 PUSH2 0x1AE6 JUMP JUMPDEST PUSH2 0x153C JUMP JUMPDEST PUSH1 0x40 MLOAD PUSH2 0x418 SWAP2 SWAP1 PUSH2 0x2329 JUMP JUMPDEST PUSH1 0x40 MLOAD DUP1 SWAP2 SUB SWAP1 RETURN JUMPDEST PUSH1 0x60 PUSH1 0x8 PUSH0 DUP4 DUP2 MSTORE PUSH1 0x20 ADD SWAP1 DUP2 MSTORE PUSH1 0x20 ADD PUSH0 KECCAK256 DUP1 SLOAD DUP1 PUSH1 0x20 MUL PUSH1 0x20 ADD PUSH1 0x40 MLOAD SWAP1 DUP2 ADD PUSH1 0x40 MSTORE DUP1 SWAP3 SWAP2 SWAP1 DUP2 DUP2 MSTORE PUSH1 0x20 ADD DUP3 DUP1 SLOAD DUP1 ISZERO PUSH2 0x47C JUMPI PUSH1 0x20 MUL DUP3 ADD SWAP2 SWAP1 PUSH0 MSTORE PUSH1 0x20 PUSH0 KECCAK256 SWAP1 JUMPDEST DUP2 SLOAD DUP2 MSTORE PUSH1 0x20 ADD SWAP1 PUSH1 0x1 ADD SWAP1 DUP1 DUP4 GT PUSH2 0x468 JUMPI JUMPDEST POP POP POP POP POP SWAP1 POP SWAP2 SWAP1 POP JUMP JUMPDEST PUSH0 PUSH1 0x7 PUSH0 DUP4 PUSH1 0x2 DUP2 GT ISZERO PUSH2 0x49F JUMPI PUSH2 0x49E PUSH2 0x2349 JUMP JUMPDEST JUMPDEST PUSH1 0x2 DUP2 GT ISZERO PUSH2 0x4B1 JUMPI PUSH2 0x4B0 PUSH2 0x2349 JUMP JUMPDEST JUMPDEST DUP2 MSTORE PUSH1 0x20 ADD SWAP1 DUP2 MSTORE PUSH1 0x20 ADD PUSH0 KECCAK256 SLOAD SWAP1 POP SWAP2 SWAP1 POP JUMP JUMPDEST PUSH1 0x60 PUSH1 0x4 PUSH0 CALLER PUSH20 0xFFFFFFFFFFFFFFFFFFFFFFFFFFFFFFFFFFFFFFFF AND PUSH20 0xFFFFFFFFFFFFFFFFFFFFFFFFFFFFFFFFFFFFFFFF AND DUP2 MSTORE PUSH1 0x20 ADD SWAP1 DUP2 MSTORE PUSH1 0x20 ADD PUSH0 KECCAK256 DUP1 SLOAD DUP1 PUSH1 0x20 MUL PUSH1 0x20 ADD PUSH1 0x40 MLOAD SWAP1 DUP2 ADD PUSH1 0x40 MSTORE DUP1 SWAP3 SWAP2 SWAP1 DUP2 DUP2 MSTORE PUSH1 0x20 ADD DUP3 DUP1 SLOAD DUP1 ISZERO PUSH2 0x54D JUMPI PUSH1 0x20 MUL DUP3 ADD SWAP2 SWAP1 PUSH0 MSTORE PUSH1 0x20 PUSH0 KECCAK256 SWAP1 JUMPDEST DUP2 SLOAD DUP2 MSTORE PUSH1 0x20 ADD SWAP1 PUSH1 0x1 ADD SWAP1 DUP1 DUP4 GT PUSH2 0x539 JUMPI JUMPDEST POP POP POP POP POP SWAP1 POP SWAP1 JUMP JUMPDEST PUSH2 0x55F PUSH2 0x19DC JUMP JUMPDEST CALLER PUSH20 0xFFFFFFFFFFFFFFFFFFFFFFFFFFFFFFFFFFFFFFFF AND PUSH1 0x3 PUSH0 DUP5 DUP2 MSTORE PUSH1 0x20 ADD SWAP1 DUP2 MSTORE PUSH1 0x20 ADD PUSH0 KECCAK256 PUSH1 0x4 ADD PUSH1 0x1 SWAP1 SLOAD SWAP1 PUSH2 0x100 EXP SWAP1 DIV PUSH20 0xFFFFFFFFFFFFFFFFFFFFFFFFFFFFFFFFFFFFFFFF AND PUSH20 0xFFFFFFFFFFFFFFFFFFFFFFFFFFFFFFFFFFFFFFFF AND EQ PUSH2 0x601 JUMPI PUSH1 0x40 MLOAD PUSH32 0x8C379A000000000000000000000000000000000000000000000000000000000 DUP2 MSTORE PUSH1 0x4 ADD PUSH2 0x5F8 SWAP1 PUSH2 0x23D0 JUMP JUMPDEST PUSH1 0x40 MLOAD DUP1 SWAP2 SUB SWAP1 REVERT JUMPDEST PUSH0 PUSH1 0x3 PUSH0 DUP5 DUP2 MSTORE PUSH1 0x20 ADD SWAP1 DUP2 MSTORE PUSH1 0x20 ADD PUSH0 KECCAK256 PUSH1 0x4 ADD PUSH0 PUSH2 0x100 EXP DUP2 SLOAD DUP2 PUSH1 0xFF MUL NOT AND SWAP1 DUP4 ISZERO ISZERO MUL OR SWAP1 SSTORE POP PUSH1 0x3 PUSH0 DUP4 DUP2 MSTORE PUSH1 0x20 ADD SWAP1 DUP2 MSTORE PUSH1 0x20 ADD PUSH0 KECCAK256 PUSH1 0x40 MLOAD DUP1 PUSH1 0xC0 ADD PUSH1 0x40 MSTORE SWAP1 DUP2 PUSH0 DUP3 ADD SLOAD DUP2 MSTORE PUSH1 0x20 ADD PUSH1 0x1 DUP3 ADD DUP1 SLOAD PUSH2 0x661 SWAP1 PUSH2 0x241B JUMP JUMPDEST DUP1 PUSH1 0x1F ADD PUSH1 0x20 DUP1 SWAP2 DIV MUL PUSH1 0x20 ADD PUSH1 0x40 MLOAD SWAP1 DUP2 ADD PUSH1 0x40 MSTORE DUP1 SWAP3 SWAP2 SWAP1 DUP2 DUP2 MSTORE PUSH1 0x20 ADD DUP3 DUP1 SLOAD PUSH2 0x68D SWAP1 PUSH2 0x241B JUMP JUMPDEST DUP1 ISZERO PUSH2 0x6D8 JUMPI DUP1 PUSH1 0x1F LT PUSH2 0x6AF JUMPI PUSH2 0x100 DUP1 DUP4 SLOAD DIV MUL DUP4 MSTORE SWAP2 PUSH1 0x20 ADD SWAP2 PUSH2 0x6D8 JUMP JUMPDEST DUP3 ADD SWAP2 SWAP1 PUSH0 MSTORE PUSH1 0x20 PUSH0 KECCAK256 SWAP1 JUMPDEST DUP2 SLOAD DUP2 MSTORE SWAP1 PUSH1 0x1 ADD SWAP1 PUSH1 0x20 ADD DUP1 DUP4 GT PUSH2 0x6BB JUMPI DUP3 SWAP1 SUB PUSH1 0x1F AND DUP3 ADD SWAP2 JUMPDEST POP POP POP POP POP DUP2 MSTORE PUSH1 0x20 ADD PUSH1 0x2 DUP3 ADD SLOAD DUP2 MSTORE PUSH1 0x20 ADD PUSH1 0x3 DUP3 ADD SLOAD DUP2 MSTORE PUSH1 0x20 ADD PUSH1 0x4 DUP3 ADD PUSH0 SWAP1 SLOAD SWAP1 PUSH2 0x100 EXP SWAP1 DIV PUSH1 0xFF AND ISZERO ISZERO ISZERO ISZERO DUP2 MSTORE PUSH1 0x20 ADD PUSH1 0x4 DUP3 ADD PUSH1 0x1 SWAP1 SLOAD SWAP1 PUSH2 0x100 EXP SWAP1 DIV PUSH20 0xFFFFFFFFFFFFFFFFFFFFFFFFFFFFFFFFFFFFFFFF AND PUSH20 0xFFFFFFFFFFFFFFFFFFFFFFFFFFFFFFFFFFFFFFFF AND PUSH20 0xFFFFFFFFFFFFFFFFFFFFFFFFFFFFFFFFFFFFFFFF AND DUP2 MSTORE POP POP SWAP1 POP SWAP2 SWAP1 POP JUMP JUMPDEST PUSH1 0x60 PUSH1 0x2 DUP1 SLOAD DUP1 PUSH1 0x20 MUL PUSH1 0x20 ADD PUSH1 0x40 MLOAD SWAP1 DUP2 ADD PUSH1 0x40 MSTORE DUP1 SWAP3 SWAP2 SWAP1 DUP2 DUP2 MSTORE PUSH1 0x20 ADD DUP3 DUP1 SLOAD DUP1 ISZERO PUSH2 0x7B8 JUMPI PUSH1 0x20 MUL DUP3 ADD SWAP2 SWAP1 PUSH0 MSTORE PUSH1 0x20 PUSH0 KECCAK256 SWAP1 JUMPDEST DUP2 SLOAD DUP2 MSTORE PUSH1 0x20 ADD SWAP1 PUSH1 0x1 ADD SWAP1 DUP1 DUP4 GT PUSH2 0x7A4 JUMPI JUMPDEST POP POP POP POP POP SWAP1 POP SWAP1 JUMP JUMPDEST PUSH0 PUSH1 0x1 ISZERO ISZERO PUSH1 0x3 PUSH0 DUP9 DUP2 MSTORE PUSH1 0x20 ADD SWAP1 DUP2 MSTORE PUSH1 0x20 ADD PUSH0 KECCAK256 PUSH1 0x4 ADD PUSH0 SWAP1 SLOAD SWAP1 PUSH2 0x100 EXP SWAP1 DIV PUSH1 0xFF AND ISZERO ISZERO EQ PUSH2 0x82A JUMPI PUSH1 0x40 MLOAD PUSH32 0x8C379A000000000000000000000000000000000000000000000000000000000 DUP2 MSTORE PUSH1 0x4 ADD PUSH2 0x821 SWAP1 PUSH2 0x2495 JUMP JUMPDEST PUSH1 0x40 MLOAD DUP1 SWAP2 SUB SWAP1 REVERT JUMPDEST PUSH0 PUSH2 0x833 PUSH2 0x167A JUMP JUMPDEST SWAP1 POP PUSH1 0x40 MLOAD DUP1 PUSH1 0xA0 ADD PUSH1 0x40 MSTORE DUP1 DUP3 DUP2 MSTORE PUSH1 0x20 ADD DUP8 DUP2 MSTORE PUSH1 0x20 ADD DUP7 DUP2 MSTORE PUSH1 0x20 ADD DUP6 PUSH20 0xFFFFFFFFFFFFFFFFFFFFFFFFFFFFFFFFFFFFFFFF AND DUP2 MSTORE PUSH1 0x20 ADD DUP5 ISZERO ISZERO DUP2 MSTORE POP PUSH1 0x9 PUSH0 DUP4 DUP2 MSTORE PUSH1 0x20 ADD SWAP1 DUP2 MSTORE PUSH1 0x20 ADD PUSH0 KECCAK256 PUSH0 DUP3 ADD MLOAD DUP2 PUSH0 ADD SSTORE PUSH1 0x20 DUP3 ADD MLOAD DUP2 PUSH1 0x1 ADD SWAP1 DUP2 PUSH2 0x8A2 SWAP2 SWAP1 PUSH2 0x2650 JUMP JUMPDEST POP PUSH1 0x40 DUP3 ADD MLOAD DUP2 PUSH1 0x2 ADD SSTORE PUSH1 0x60 DUP3 ADD MLOAD DUP2 PUSH1 0x3 ADD PUSH0 PUSH2 0x100 EXP DUP2 SLOAD DUP2 PUSH20 0xFFFFFFFFFFFFFFFFFFFFFFFFFFFFFFFFFFFFFFFF MUL NOT AND SWAP1 DUP4 PUSH20 0xFFFFFFFFFFFFFFFFFFFFFFFFFFFFFFFFFFFFFFFF AND MUL OR SWAP1 SSTORE POP PUSH1 0x80 DUP3 ADD MLOAD DUP2 PUSH1 0x3 ADD PUSH1 0x14 PUSH2 0x100 EXP DUP2 SLOAD DUP2 PUSH1 0xFF MUL NOT AND SWAP1 DUP4 ISZERO ISZERO MUL OR SWAP1 SSTORE POP SWAP1 POP POP PUSH1 0x8 PUSH0 DUP9 DUP2 MSTORE PUSH1 0x20 ADD SWAP1 DUP2 MSTORE PUSH1 0x20 ADD PUSH0 KECCAK256 DUP2 SWAP1 DUP1 PUSH1 0x1 DUP2 SLOAD ADD DUP1 DUP3 SSTORE DUP1 SWAP2 POP POP PUSH1 0x1 SWAP1 SUB SWAP1 PUSH0 MSTORE PUSH1 0x20 PUSH0 KECCAK256 ADD PUSH0 SWAP1 SWAP2 SWAP1 SWAP2 SWAP1 SWAP2 POP SSTORE PUSH1 0x8 PUSH0 DUP9 DUP2 MSTORE PUSH1 0x20 ADD SWAP1 DUP2 MSTORE PUSH1 0x20 ADD PUSH0 KECCAK256 DUP1 SLOAD SWAP1 POP SWAP2 POP POP SWAP6 SWAP5 POP POP POP POP POP JUMP JUMPDEST PUSH0 PUSH1 0x1 PUSH0 SWAP1 SLOAD SWAP1 PUSH2 0x100 EXP SWAP1 DIV PUSH20 0xFFFFFFFFFFFFFFFFFFFFFFFFFFFFFFFFFFFFFFFF AND PUSH20 0xFFFFFFFFFFFFFFFFFFFFFFFFFFFFFFFFFFFFFFFF AND CALLER PUSH20 0xFFFFFFFFFFFFFFFFFFFFFFFFFFFFFFFFFFFFFFFF AND EQ PUSH2 0x9FC JUMPI PUSH1 0x40 MLOAD PUSH32 0x8C379A000000000000000000000000000000000000000000000000000000000 DUP2 MSTORE PUSH1 0x4 ADD PUSH2 0x9F3 SWAP1 PUSH2 0x2769 JUMP JUMPDEST PUSH1 0x40 MLOAD DUP1 SWAP2 SUB SWAP1 REVERT JUMPDEST DUP2 PUSH1 0x7 PUSH0 DUP6 PUSH1 0x2 DUP2 GT ISZERO PUSH2 0xA13 JUMPI PUSH2 0xA12 PUSH2 0x2349 JUMP JUMPDEST JUMPDEST PUSH1 0x2 DUP2 GT ISZERO PUSH2 0xA25 JUMPI PUSH2 0xA24 PUSH2 0x2349 JUMP JUMPDEST JUMPDEST DUP2 MSTORE PUSH1 0x20 ADD SWAP1 DUP2 MSTORE PUSH1 0x20 ADD PUSH0 KECCAK256 DUP2 SWAP1 SSTORE POP PUSH1 0x1 SWAP1 POP SWAP3 SWAP2 POP POP JUMP JUMPDEST PUSH2 0xA48 PUSH2 0x1A25 JUMP JUMPDEST CALLER PUSH20 0xFFFFFFFFFFFFFFFFFFFFFFFFFFFFFFFFFFFFFFFF AND PUSH1 0x3 PUSH0 DUP8 DUP2 MSTORE PUSH1 0x20 ADD SWAP1 DUP2 MSTORE PUSH1 0x20 ADD PUSH0 KECCAK256 PUSH1 0x4 ADD PUSH1 0x1 SWAP1 SLOAD SWAP1 PUSH2 0x100 EXP SWAP1 DIV PUSH20 0xFFFFFFFFFFFFFFFFFFFFFFFFFFFFFFFFFFFFFFFF AND PUSH20 0xFFFFFFFFFFFFFFFFFFFFFFFFFFFFFFFFFFFFFFFF AND EQ PUSH2 0xAEA JUMPI PUSH1 0x40 MLOAD PUSH32 0x8C379A000000000000000000000000000000000000000000000000000000000 DUP2 MSTORE PUSH1 0x4 ADD PUSH2 0xAE1 SWAP1 PUSH2 0x23D0 JUMP JUMPDEST PUSH1 0x40 MLOAD DUP1 SWAP2 SUB SWAP1 REVERT JUMPDEST PUSH1 0x1 ISZERO ISZERO PUSH1 0x3 PUSH0 DUP8 DUP2 MSTORE PUSH1 0x20 ADD SWAP1 DUP2 MSTORE PUSH1 0x20 ADD PUSH0 KECCAK256 PUSH1 0x4 ADD PUSH0 SWAP1 SLOAD SWAP1 PUSH2 0x100 EXP SWAP1 DIV PUSH1 0xFF AND ISZERO ISZERO EQ PUSH2 0xB51 JUMPI PUSH1 0x40 MLOAD PUSH32 0x8C379A000000000000000000000000000000000000000000000000000000000 DUP2 MSTORE PUSH1 0x4 ADD PUSH2 0xB48 SWAP1 PUSH2 0x2495 JUMP JUMPDEST PUSH1 0x40 MLOAD DUP1 SWAP2 SUB SWAP1 REVERT JUMPDEST PUSH2 0xB5B DUP5 DUP5 PUSH2 0x1695 JUMP JUMPDEST PUSH2 0xB9A JUMPI PUSH1 0x40 MLOAD PUSH32 0x8C379A000000000000000000000000000000000000000000000000000000000 DUP2 MSTORE PUSH1 0x4 ADD PUSH2 0xB91 SWAP1 PUSH2 0x27D1 JUMP JUMPDEST PUSH1 0x40 MLOAD DUP1 SWAP2 SUB SWAP1 REVERT JUMPDEST PUSH1 0x1 PUSH1 0x5 PUSH0 DUP8 DUP2 MSTORE PUSH1 0x20 ADD SWAP1 DUP2 MSTORE PUSH1 0x20 ADD PUSH0 KECCAK256 PUSH0 PUSH2 0x100 EXP DUP2 SLOAD DUP2 PUSH1 0xFF MUL NOT AND SWAP1 DUP4 ISZERO ISZERO MUL OR SWAP1 SSTORE POP PUSH1 0x40 MLOAD DUP1 PUSH1 0x80 ADD PUSH1 0x40 MSTORE DUP1 DUP6 PUSH20 0xFFFFFFFFFFFFFFFFFFFFFFFFFFFFFFFFFFFFFFFF AND DUP2 MSTORE PUSH1 0x20 ADD DUP5 DUP2 MSTORE PUSH1 0x20 ADD DUP4 DUP2 MSTORE PUSH1 0x20 ADD PUSH0 DUP2 MSTORE POP PUSH1 0x6 PUSH0 DUP8 DUP2 MSTORE PUSH1 0x20 ADD SWAP1 DUP2 MSTORE PUSH1 0x20 ADD PUSH0 KECCAK256 PUSH0 DUP3 ADD MLOAD DUP2 PUSH0 ADD PUSH0 PUSH2 0x100 EXP DUP2 SLOAD DUP2 PUSH20 0xFFFFFFFFFFFFFFFFFFFFFFFFFFFFFFFFFFFFFFFF MUL NOT AND SWAP1 DUP4 PUSH20 0xFFFFFFFFFFFFFFFFFFFFFFFFFFFFFFFFFFFFFFFF AND MUL OR SWAP1 SSTORE POP PUSH1 0x20 DUP3 ADD MLOAD DUP2 PUSH1 0x1 ADD SSTORE PUSH1 0x40 DUP3 ADD MLOAD DUP2 PUSH1 0x2 ADD SSTORE PUSH1 0x60 DUP3 ADD MLOAD DUP2 PUSH1 0x3 ADD SSTORE SWAP1 POP POP PUSH1 0x6 PUSH0 DUP7 DUP2 MSTORE PUSH1 0x20 ADD SWAP1 DUP2 MSTORE PUSH1 0x20 ADD PUSH0 KECCAK256 PUSH1 0x40 MLOAD DUP1 PUSH1 0x80 ADD PUSH1 0x40 MSTORE SWAP1 DUP2 PUSH0 DUP3 ADD PUSH0 SWAP1 SLOAD SWAP1 PUSH2 0x100 EXP SWAP1 DIV PUSH20 0xFFFFFFFFFFFFFFFFFFFFFFFFFFFFFFFFFFFFFFFF AND PUSH20 0xFFFFFFFFFFFFFFFFFFFFFFFFFFFFFFFFFFFFFFFF AND PUSH20 0xFFFFFFFFFFFFFFFFFFFFFFFFFFFFFFFFFFFFFFFF AND DUP2 MSTORE PUSH1 0x20 ADD PUSH1 0x1 DUP3 ADD SLOAD DUP2 MSTORE PUSH1 0x20 ADD PUSH1 0x2 DUP3 ADD SLOAD DUP2 MSTORE PUSH1 0x20 ADD PUSH1 0x3 DUP3 ADD SLOAD DUP2 MSTORE POP POP SWAP1 POP SWAP5 SWAP4 POP POP POP POP JUMP JUMPDEST PUSH0 CALLER PUSH20 0xFFFFFFFFFFFFFFFFFFFFFFFFFFFFFFFFFFFFFFFF AND PUSH1 0x3 PUSH0 DUP6 DUP2 MSTORE PUSH1 0x20 ADD SWAP1 DUP2 MSTORE PUSH1 0x20 ADD PUSH0 KECCAK256 PUSH1 0x4 ADD PUSH1 0x1 SWAP1 SLOAD SWAP1 PUSH2 0x100 EXP SWAP1 DIV PUSH20 0xFFFFFFFFFFFFFFFFFFFFFFFFFFFFFFFFFFFFFFFF AND PUSH20 0xFFFFFFFFFFFFFFFFFFFFFFFFFFFFFFFFFFFFFFFF AND EQ PUSH2 0xDAB JUMPI PUSH1 0x40 MLOAD PUSH32 0x8C379A000000000000000000000000000000000000000000000000000000000 DUP2 MSTORE PUSH1 0x4 ADD PUSH2 0xDA2 SWAP1 PUSH2 0x23D0 JUMP JUMPDEST PUSH1 0x40 MLOAD DUP1 SWAP2 SUB SWAP1 REVERT JUMPDEST PUSH0 JUMPDEST DUP3 MLOAD DUP2 LT ISZERO PUSH2 0x10BA JUMPI PUSH0 DUP4 DUP3 DUP2 MLOAD DUP2 LT PUSH2 0xDCA JUMPI PUSH2 0xDC9 PUSH2 0x27EF JUMP JUMPDEST JUMPDEST PUSH1 0x20 MUL PUSH1 0x20 ADD ADD MLOAD SWAP1 POP PUSH0 PUSH1 0x6 PUSH0 DUP8 DUP2 MSTORE PUSH1 0x20 ADD SWAP1 DUP2 MSTORE PUSH1 0x20 ADD PUSH0 KECCAK256 PUSH1 0x3 ADD SLOAD PUSH1 0x6 PUSH0 DUP9 DUP2 MSTORE PUSH1 0x20 ADD SWAP1 DUP2 MSTORE PUSH1 0x20 ADD PUSH0 KECCAK256 PUSH1 0x1 ADD SLOAD PUSH2 0xE09 SWAP2 SWAP1 PUSH2 0x2849 JUMP JUMPDEST SWAP1 POP PUSH1 0xA PUSH0 DUP8 DUP2 MSTORE PUSH1 0x20 ADD SWAP1 DUP2 MSTORE PUSH1 0x20 ADD PUSH0 KECCAK256 PUSH0 DUP4 DUP2 MSTORE PUSH1 0x20 ADD SWAP1 DUP2 MSTORE PUSH1 0x20 ADD PUSH0 KECCAK256 PUSH0 SWAP1 SLOAD SWAP1 PUSH2 0x100 EXP SWAP1 DIV PUSH1 0xFF AND DUP1 ISZERO PUSH2 0xE43 JUMPI POP PUSH0 DUP2 GT JUMPDEST ISZERO PUSH2 0x10AB JUMPI PUSH0 PUSH1 0x9 PUSH0 DUP5 DUP2 MSTORE PUSH1 0x20 ADD SWAP1 DUP2 MSTORE PUSH1 0x20 ADD PUSH0 KECCAK256 PUSH1 0x40 MLOAD DUP1 PUSH1 0xA0 ADD PUSH1 0x40 MSTORE SWAP1 DUP2 PUSH0 DUP3 ADD SLOAD DUP2 MSTORE PUSH1 0x20 ADD PUSH1 0x1 DUP3 ADD DUP1 SLOAD PUSH2 0xE7E SWAP1 PUSH2 0x241B JUMP JUMPDEST DUP1 PUSH1 0x1F ADD PUSH1 0x20 DUP1 SWAP2 DIV MUL PUSH1 0x20 ADD PUSH1 0x40 MLOAD SWAP1 DUP2 ADD PUSH1 0x40 MSTORE DUP1 SWAP3 SWAP2 SWAP1 DUP2 DUP2 MSTORE PUSH1 0x20 ADD DUP3 DUP1 SLOAD PUSH2 0xEAA SWAP1 PUSH2 0x241B JUMP JUMPDEST DUP1 ISZERO PUSH2 0xEF5 JUMPI DUP1 PUSH1 0x1F LT PUSH2 0xECC JUMPI PUSH2 0x100 DUP1 DUP4 SLOAD DIV MUL DUP4 MSTORE SWAP2 PUSH1 0x20 ADD SWAP2 PUSH2 0xEF5 JUMP JUMPDEST DUP3 ADD SWAP2 SWAP1 PUSH0 MSTORE PUSH1 0x20 PUSH0 KECCAK256 SWAP1 JUMPDEST DUP2 SLOAD DUP2 MSTORE SWAP1 PUSH1 0x1 ADD SWAP1 PUSH1 0x20 ADD DUP1 DUP4 GT PUSH2 0xED8 JUMPI DUP3 SWAP1 SUB PUSH1 0x1F AND DUP3 ADD SWAP2 JUMPDEST POP POP POP POP POP DUP2 MSTORE PUSH1 0x20 ADD PUSH1 0x2 DUP3 ADD SLOAD DUP2 MSTORE PUSH1 0x20 ADD PUSH1 0x3 DUP3 ADD PUSH0 SWAP1 SLOAD SWAP1 PUSH2 0x100 EXP SWAP1 DIV PUSH20 0xFFFFFFFFFFFFFFFFFFFFFFFFFFFFFFFFFFFFFFFF AND PUSH20 0xFFFFFFFFFFFFFFFFFFFFFFFFFFFFFFFFFFFFFFFF AND PUSH20 0xFFFFFFFFFFFFFFFFFFFFFFFFFFFFFFFFFFFFFFFF AND DUP2 MSTORE PUSH1 0x20 ADD PUSH1 0x3 DUP3 ADD PUSH1 0x14 SWAP1 SLOAD SWAP1 PUSH2 0x100 EXP SWAP1 DIV PUSH1 0xFF AND ISZERO ISZERO ISZERO ISZERO DUP2 MSTORE POP POP SWAP1 POP PUSH0 PUSH1 0x6 PUSH0 DUP10 DUP2 MSTORE PUSH1 0x20 ADD SWAP1 DUP2 MSTORE PUSH1 0x20 ADD PUSH0 KECCAK256 PUSH1 0x2 ADD SLOAD DUP4 LT PUSH2 0xFB2 JUMPI PUSH1 0x6 PUSH0 DUP10 DUP2 MSTORE PUSH1 0x20 ADD SWAP1 DUP2 MSTORE PUSH1 0x20 ADD PUSH0 KECCAK256 PUSH1 0x2 ADD SLOAD SWAP1 POP PUSH2 0xFB6 JUMP JUMPDEST DUP3 SWAP1 POP JUMPDEST DUP1 PUSH1 0x6 PUSH0 DUP11 DUP2 MSTORE PUSH1 0x20 ADD SWAP1 DUP2 MSTORE PUSH1 0x20 ADD PUSH0 KECCAK256 PUSH1 0x3 ADD PUSH0 DUP3 DUP3 SLOAD PUSH2 0xFD9 SWAP2 SWAP1 PUSH2 0x287C JUMP JUMPDEST SWAP3 POP POP DUP2 SWAP1 SSTORE POP PUSH32 0x0 DUP3 PUSH1 0x40 ADD MLOAD SUB PUSH2 0x1052 JUMPI PUSH2 0x104C PUSH1 0x6 PUSH0 DUP11 DUP2 MSTORE PUSH1 0x20 ADD SWAP1 DUP2 MSTORE PUSH1 0x20 ADD PUSH0 KECCAK256 PUSH0 ADD PUSH0 SWAP1 SLOAD SWAP1 PUSH2 0x100 EXP SWAP1 DIV PUSH20 0xFFFFFFFFFFFFFFFFFFFFFFFFFFFFFFFFFFFFFFFF AND DUP3 DUP5 PUSH1 0x60 ADD MLOAD PUSH2 0x17D7 JUMP JUMPDEST POP PUSH2 0x109A JUMP JUMPDEST PUSH2 0x1098 PUSH1 0x6 PUSH0 DUP11 DUP2 MSTORE PUSH1 0x20 ADD SWAP1 DUP2 MSTORE PUSH1 0x20 ADD PUSH0 KECCAK256 PUSH0 ADD PUSH0 SWAP1 SLOAD SWAP1 PUSH2 0x100 EXP SWAP1 DIV PUSH20 0xFFFFFFFFFFFFFFFFFFFFFFFFFFFFFFFFFFFFFFFF AND DUP3 DUP5 PUSH1 0x60 ADD MLOAD DUP6 PUSH1 0x40 ADD MLOAD PUSH2 0x191B JUMP JUMPDEST POP JUMPDEST DUP6 DUP1 PUSH2 0x10A5 SWAP1 PUSH2 0x28AF JUMP JUMPDEST SWAP7 POP POP POP POP JUMPDEST POP POP DUP1 DUP1 PUSH1 0x1 ADD SWAP2 POP POP PUSH2 0xDAD JUMP JUMPDEST POP SWAP3 SWAP2 POP POP JUMP JUMPDEST PUSH0 PUSH32 0x0 SWAP1 POP SWAP1 JUMP JUMPDEST PUSH0 PUSH1 0x5 PUSH0 DUP4 DUP2 MSTORE PUSH1 0x20 ADD SWAP1 DUP2 MSTORE PUSH1 0x20 ADD PUSH0 KECCAK256 PUSH0 SWAP1 SLOAD SWAP1 PUSH2 0x100 EXP SWAP1 DIV PUSH1 0xFF AND SWAP1 POP SWAP2 SWAP1 POP JUMP JUMPDEST PUSH2 0x1116 PUSH2 0x19DC JUMP JUMPDEST PUSH0 PUSH2 0x111F PUSH2 0x167A JUMP JUMPDEST SWAP1 POP PUSH0 PUSH1 0x7 PUSH0 DUP6 PUSH1 0x2 DUP2 GT ISZERO PUSH2 0x1138 JUMPI PUSH2 0x1137 PUSH2 0x2349 JUMP JUMPDEST JUMPDEST PUSH1 0x2 DUP2 GT ISZERO PUSH2 0x114A JUMPI PUSH2 0x1149 PUSH2 0x2349 JUMP JUMPDEST JUMPDEST DUP2 MSTORE PUSH1 0x20 ADD SWAP1 DUP2 MSTORE PUSH1 0x20 ADD PUSH0 KECCAK256 SLOAD SWAP1 POP PUSH2 0x1184 PUSH32 0x0 DUP3 PUSH2 0x1695 JUMP JUMPDEST PUSH2 0x11C3 JUMPI PUSH1 0x40 MLOAD PUSH32 0x8C379A000000000000000000000000000000000000000000000000000000000 DUP2 MSTORE PUSH1 0x4 ADD PUSH2 0x11BA SWAP1 PUSH2 0x2940 JUMP JUMPDEST PUSH1 0x40 MLOAD DUP1 SWAP2 SUB SWAP1 REVERT JUMPDEST PUSH1 0x2 DUP3 SWAP1 DUP1 PUSH1 0x1 DUP2 SLOAD ADD DUP1 DUP3 SSTORE DUP1 SWAP2 POP POP PUSH1 0x1 SWAP1 SUB SWAP1 PUSH0 MSTORE PUSH1 0x20 PUSH0 KECCAK256 ADD PUSH0 SWAP1 SWAP2 SWAP1 SWAP2 SWAP1 SWAP2 POP SSTORE PUSH1 0x40 MLOAD DUP1 PUSH1 0xC0 ADD PUSH1 0x40 MSTORE DUP1 DUP4 DUP2 MSTORE PUSH1 0x20 ADD DUP7 DUP2 MSTORE PUSH1 0x20 ADD TIMESTAMP DUP2 MSTORE PUSH1 0x20 ADD TIMESTAMP PUSH2 0x1210 DUP8 PUSH2 0x1924 JUMP JUMPDEST PUSH2 0x121A SWAP2 SWAP1 PUSH2 0x287C JUMP JUMPDEST DUP2 MSTORE PUSH1 0x20 ADD PUSH1 0x1 ISZERO ISZERO DUP2 MSTORE PUSH1 0x20 ADD CALLER PUSH20 0xFFFFFFFFFFFFFFFFFFFFFFFFFFFFFFFFFFFFFFFF AND DUP2 MSTORE POP PUSH1 0x3 PUSH0 DUP5 DUP2 MSTORE PUSH1 0x20 ADD SWAP1 DUP2 MSTORE PUSH1 0x20 ADD PUSH0 KECCAK256 PUSH0 DUP3 ADD MLOAD DUP2 PUSH0 ADD SSTORE PUSH1 0x20 DUP3 ADD MLOAD DUP2 PUSH1 0x1 ADD SWAP1 DUP2 PUSH2 0x1270 SWAP2 SWAP1 PUSH2 0x2650 JUMP JUMPDEST POP PUSH1 0x40 DUP3 ADD MLOAD DUP2 PUSH1 0x2 ADD SSTORE PUSH1 0x60 DUP3 ADD MLOAD DUP2 PUSH1 0x3 ADD SSTORE PUSH1 0x80 DUP3 ADD MLOAD DUP2 PUSH1 0x4 ADD PUSH0 PUSH2 0x100 EXP DUP2 SLOAD DUP2 PUSH1 0xFF MUL NOT AND SWAP1 DUP4 ISZERO ISZERO MUL OR SWAP1 SSTORE POP PUSH1 0xA0 DUP3 ADD MLOAD DUP2 PUSH1 0x4 ADD PUSH1 0x1 PUSH2 0x100 EXP DUP2 SLOAD DUP2 PUSH20 0xFFFFFFFFFFFFFFFFFFFFFFFFFFFFFFFFFFFFFFFF MUL NOT AND SWAP1 DUP4 PUSH20 0xFFFFFFFFFFFFFFFFFFFFFFFFFFFFFFFFFFFFFFFF AND MUL OR SWAP1 SSTORE POP SWAP1 POP POP PUSH1 0x4 PUSH0 CALLER PUSH20 0xFFFFFFFFFFFFFFFFFFFFFFFFFFFFFFFFFFFFFFFF AND PUSH20 0xFFFFFFFFFFFFFFFFFFFFFFFFFFFFFFFFFFFFFFFF AND DUP2 MSTORE PUSH1 0x20 ADD SWAP1 DUP2 MSTORE PUSH1 0x20 ADD PUSH0 KECCAK256 DUP3 SWAP1 DUP1 PUSH1 0x1 DUP2 SLOAD ADD DUP1 DUP3 SSTORE DUP1 SWAP2 POP POP PUSH1 0x1 SWAP1 SUB SWAP1 PUSH0 MSTORE PUSH1 0x20 PUSH0 KECCAK256 ADD PUSH0 SWAP1 SWAP2 SWAP1 SWAP2 SWAP1 SWAP2 POP SSTORE POP POP SWAP3 SWAP2 POP POP JUMP JUMPDEST PUSH2 0x135F PUSH2 0x19DC JUMP JUMPDEST PUSH1 0x3 PUSH0 DUP4 DUP2 MSTORE PUSH1 0x20 ADD SWAP1 DUP2 MSTORE PUSH1 0x20 ADD PUSH0 KECCAK256 PUSH1 0x40 MLOAD DUP1 PUSH1 0xC0 ADD PUSH1 0x40 MSTORE SWAP1 DUP2 PUSH0 DUP3 ADD SLOAD DUP2 MSTORE PUSH1 0x20 ADD PUSH1 0x1 DUP3 ADD DUP1 SLOAD PUSH2 0x1394 SWAP1 PUSH2 0x241B JUMP JUMPDEST DUP1 PUSH1 0x1F ADD PUSH1 0x20 DUP1 SWAP2 DIV MUL PUSH1 0x20 ADD PUSH1 0x40 MLOAD SWAP1 DUP2 ADD PUSH1 0x40 MSTORE DUP1 SWAP3 SWAP2 SWAP1 DUP2 DUP2 MSTORE PUSH1 0x20 ADD DUP3 DUP1 SLOAD PUSH2 0x13C0 SWAP1 PUSH2 0x241B JUMP JUMPDEST DUP1 ISZERO PUSH2 0x140B JUMPI DUP1 PUSH1 0x1F LT PUSH2 0x13E2 JUMPI PUSH2 0x100 DUP1 DUP4 SLOAD DIV MUL DUP4 MSTORE SWAP2 PUSH1 0x20 ADD SWAP2 PUSH2 0x140B JUMP JUMPDEST DUP3 ADD SWAP2 SWAP1 PUSH0 MSTORE PUSH1 0x20 PUSH0 KECCAK256 SWAP1 JUMPDEST DUP2 SLOAD DUP2 MSTORE SWAP1 PUSH1 0x1 ADD SWAP1 PUSH1 0x20 ADD DUP1 DUP4 GT PUSH2 0x13EE JUMPI DUP3 SWAP1 SUB PUSH1 0x1F AND DUP3 ADD SWAP2 JUMPDEST POP POP POP POP POP DUP2 MSTORE PUSH1 0x20 ADD PUSH1 0x2 DUP3 ADD SLOAD DUP2 MSTORE PUSH1 0x20 ADD PUSH1 0x3 DUP3 ADD SLOAD DUP2 MSTORE PUSH1 0x20 ADD PUSH1 0x4 DUP3 ADD PUSH0 SWAP1 SLOAD SWAP1 PUSH2 0x100 EXP SWAP1 DIV PUSH1 0xFF AND ISZERO ISZERO ISZERO ISZERO DUP2 MSTORE PUSH1 0x20 ADD PUSH1 0x4 DUP3 ADD PUSH1 0x1 SWAP1 SLOAD SWAP1 PUSH2 0x100 EXP SWAP1 DIV PUSH20 0xFFFFFFFFFFFFFFFFFFFFFFFFFFFFFFFFFFFFFFFF AND PUSH20 0xFFFFFFFFFFFFFFFFFFFFFFFFFFFFFFFFFFFFFFFF AND PUSH20 0xFFFFFFFFFFFFFFFFFFFFFFFFFFFFFFFFFFFFFFFF AND DUP2 MSTORE POP POP SWAP1 POP SWAP2 SWAP1 POP JUMP JUMPDEST PUSH2 0x14A7 PUSH2 0x1A25 JUMP JUMPDEST PUSH1 0x6 PUSH0 DUP4 DUP2 MSTORE PUSH1 0x20 ADD SWAP1 DUP2 MSTORE PUSH1 0x20 ADD PUSH0 KECCAK256 PUSH1 0x40 MLOAD DUP1 PUSH1 0x80 ADD PUSH1 0x40 MSTORE SWAP1 DUP2 PUSH0 DUP3 ADD PUSH0 SWAP1 SLOAD SWAP1 PUSH2 0x100 EXP SWAP1 DIV PUSH20 0xFFFFFFFFFFFFFFFFFFFFFFFFFFFFFFFFFFFFFFFF AND PUSH20 0xFFFFFFFFFFFFFFFFFFFFFFFFFFFFFFFFFFFFFFFF AND PUSH20 0xFFFFFFFFFFFFFFFFFFFFFFFFFFFFFFFFFFFFFFFF AND DUP2 MSTORE PUSH1 0x20 ADD PUSH1 0x1 DUP3 ADD SLOAD DUP2 MSTORE PUSH1 0x20 ADD PUSH1 0x2 DUP3 ADD SLOAD DUP2 MSTORE PUSH1 0x20 ADD PUSH1 0x3 DUP3 ADD SLOAD DUP2 MSTORE POP POP SWAP1 POP SWAP2 SWAP1 POP JUMP JUMPDEST PUSH2 0x1544 PUSH2 0x1A5F JUMP JUMPDEST PUSH1 0x9 PUSH0 DUP4 DUP2 MSTORE PUSH1 0x20 ADD SWAP1 DUP2 MSTORE PUSH1 0x20 ADD PUSH0 KECCAK256 PUSH1 0x40 MLOAD DUP1 PUSH1 0xA0 ADD PUSH1 0x40 MSTORE SWAP1 DUP2 PUSH0 DUP3 ADD SLOAD DUP2 MSTORE PUSH1 0x20 ADD PUSH1 0x1 DUP3 ADD DUP1 SLOAD PUSH2 0x1579 SWAP1 PUSH2 0x241B JUMP JUMPDEST DUP1 PUSH1 0x1F ADD PUSH1 0x20 DUP1 SWAP2 DIV MUL PUSH1 0x20 ADD PUSH1 0x40 MLOAD SWAP1 DUP2 ADD PUSH1 0x40 MSTORE DUP1 SWAP3 SWAP2 SWAP1 DUP2 DUP2 MSTORE PUSH1 0x20 ADD DUP3 DUP1 SLOAD PUSH2 0x15A5 SWAP1 PUSH2 0x241B JUMP JUMPDEST DUP1 ISZERO PUSH2 0x15F0 JUMPI DUP1 PUSH1 0x1F LT PUSH2 0x15C7 JUMPI PUSH2 0x100 DUP1 DUP4 SLOAD DIV MUL DUP4 MSTORE SWAP2 PUSH1 0x20 ADD SWAP2 PUSH2 0x15F0 JUMP JUMPDEST DUP3 ADD SWAP2 SWAP1 PUSH0 MSTORE PUSH1 0x20 PUSH0 KECCAK256 SWAP1 JUMPDEST DUP2 SLOAD DUP2 MSTORE SWAP1 PUSH1 0x1 ADD SWAP1 PUSH1 0x20 ADD DUP1 DUP4 GT PUSH2 0x15D3 JUMPI DUP3 SWAP1 SUB PUSH1 0x1F AND DUP3 ADD SWAP2 JUMPDEST POP POP POP POP POP DUP2 MSTORE PUSH1 0x20 ADD PUSH1 0x2 DUP3 ADD SLOAD DUP2 MSTORE PUSH1 0x20 ADD PUSH1 0x3 DUP3 ADD PUSH0 SWAP1 SLOAD SWAP1 PUSH2 0x100 EXP SWAP1 DIV PUSH20 0xFFFFFFFFFFFFFFFFFFFFFFFFFFFFFFFFFFFFFFFF AND PUSH20 0xFFFFFFFFFFFFFFFFFFFFFFFFFFFFFFFFFFFFFFFF AND PUSH20 0xFFFFFFFFFFFFFFFFFFFFFFFFFFFFFFFFFFFFFFFF AND DUP2 MSTORE PUSH1 0x20 ADD PUSH1 0x3 DUP3 ADD PUSH1 0x14 SWAP1 SLOAD SWAP1 PUSH2 0x100 EXP SWAP1 DIV PUSH1 0xFF AND ISZERO ISZERO ISZERO ISZERO DUP2 MSTORE POP POP SWAP1 POP SWAP2 SWAP1 POP JUMP JUMPDEST PUSH0 DUP1 PUSH0 DUP2 SLOAD DUP1 SWAP3 SWAP2 SWAP1 PUSH2 0x168C SWAP1 PUSH2 0x28AF JUMP JUMPDEST SWAP2 SWAP1 POP SSTORE SWAP1 POP SWAP1 JUMP JUMPDEST PUSH0 PUSH20 0xEEEEEEEEEEEEEEEEEEEEEEEEEEEEEEEEEEEEEEEE PUSH20 0xFFFFFFFFFFFFFFFFFFFFFFFFFFFFFFFFFFFFFFFF AND DUP4 PUSH20 0xFFFFFFFFFFFFFFFFFFFFFFFFFFFFFFFFFFFFFFFF AND SUB PUSH2 0x1729 JUMPI DUP2 CALLVALUE LT ISZERO PUSH2 0x1720 JUMPI PUSH1 0x40 MLOAD PUSH32 0x8C379A000000000000000000000000000000000000000000000000000000000 DUP2 MSTORE PUSH1 0x4 ADD PUSH2 0x1717 SWAP1 PUSH2 0x29A8 JUMP JUMPDEST PUSH1 0x40 MLOAD DUP1 SWAP2 SUB SWAP1 REVERT JUMPDEST PUSH1 0x1 SWAP1 POP PUSH2 0x17D1 JUMP JUMPDEST PUSH0 DUP4 SWAP1 POP DUP1 PUSH20 0xFFFFFFFFFFFFFFFFFFFFFFFFFFFFFFFFFFFFFFFF AND PUSH4 0x23B872DD CALLER PUSH32 0x0 DUP7 PUSH1 0x40 MLOAD DUP5 PUSH4 0xFFFFFFFF AND PUSH1 0xE0 SHL DUP2 MSTORE PUSH1 0x4 ADD PUSH2 0x178A SWAP4 SWAP3 SWAP2 SWAP1 PUSH2 0x29C6 JUMP JUMPDEST PUSH1 0x20 PUSH1 0x40 MLOAD DUP1 DUP4 SUB DUP2 PUSH0 DUP8 GAS CALL ISZERO DUP1 ISZERO PUSH2 0x17A6 JUMPI RETURNDATASIZE PUSH0 DUP1 RETURNDATACOPY RETURNDATASIZE PUSH0 REVERT JUMPDEST POP POP POP POP PUSH1 0x40 MLOAD RETURNDATASIZE PUSH1 0x1F NOT PUSH1 0x1F DUP3 ADD AND DUP3 ADD DUP1 PUSH1 0x40 MSTORE POP DUP2 ADD SWAP1 PUSH2 0x17CA SWAP2 SWAP1 PUSH2 0x2A0F JUMP JUMPDEST POP PUSH1 0x1 SWAP2 POP POP JUMPDEST SWAP3 SWAP2 POP POP JUMP JUMPDEST PUSH0 PUSH20 0xEEEEEEEEEEEEEEEEEEEEEEEEEEEEEEEEEEEEEEEE PUSH20 0xFFFFFFFFFFFFFFFFFFFFFFFFFFFFFFFFFFFFFFFF AND DUP5 PUSH20 0xFFFFFFFFFFFFFFFFFFFFFFFFFFFFFFFFFFFFFFFF AND SUB PUSH2 0x186C JUMPI DUP2 PUSH20 0xFFFFFFFFFFFFFFFFFFFFFFFFFFFFFFFFFFFFFFFF AND PUSH2 0x8FC DUP5 SWAP1 DUP2 ISZERO MUL SWAP1 PUSH1 0x40 MLOAD PUSH0 PUSH1 0x40 MLOAD DUP1 DUP4 SUB DUP2 DUP6 DUP9 DUP9 CALL SWAP4 POP POP POP POP ISZERO DUP1 ISZERO PUSH2 0x1862 JUMPI RETURNDATASIZE PUSH0 DUP1 RETURNDATACOPY RETURNDATASIZE PUSH0 REVERT JUMPDEST POP PUSH1 0x1 SWAP1 POP PUSH2 0x1914 JUMP JUMPDEST PUSH0 DUP5 SWAP1 POP DUP1 PUSH20 0xFFFFFFFFFFFFFFFFFFFFFFFFFFFFFFFFFFFFFFFF AND PUSH4 0x23B872DD PUSH32 0x0 DUP6 DUP8 PUSH1 0x40 MLOAD DUP5 PUSH4 0xFFFFFFFF AND PUSH1 0xE0 SHL DUP2 MSTORE PUSH1 0x4 ADD PUSH2 0x18CD SWAP4 SWAP3 SWAP2 SWAP1 PUSH2 0x29C6 JUMP JUMPDEST PUSH1 0x20 PUSH1 0x40 MLOAD DUP1 DUP4 SUB DUP2 PUSH0 DUP8 GAS CALL ISZERO DUP1 ISZERO PUSH2 0x18E9 JUMPI RETURNDATASIZE PUSH0 DUP1 RETURNDATACOPY RETURNDATASIZE PUSH0 REVERT JUMPDEST POP POP POP POP PUSH1 0x40 MLOAD RETURNDATASIZE PUSH1 0x1F NOT PUSH1 0x1F DUP3 ADD AND DUP3 ADD DUP1 PUSH1 0x40 MSTORE POP DUP2 ADD SWAP1 PUSH2 0x190D SWAP2 SWAP1 PUSH2 0x2A0F JUMP JUMPDEST POP PUSH1 0x1 SWAP2 POP POP JUMPDEST SWAP4 SWAP3 POP POP POP JUMP JUMPDEST PUSH0 SWAP5 SWAP4 POP POP POP POP JUMP JUMPDEST PUSH0 PUSH3 0x93A80 SWAP1 POP PUSH0 PUSH1 0x2 DUP2 GT ISZERO PUSH2 0x193E JUMPI PUSH2 0x193D PUSH2 0x2349 JUMP JUMPDEST JUMPDEST DUP3 PUSH1 0x2 DUP2 GT ISZERO PUSH2 0x1951 JUMPI PUSH2 0x1950 PUSH2 0x2349 JUMP JUMPDEST JUMPDEST SUB ISZERO PUSH2 0x19D7 JUMPI PUSH1 0x1 PUSH1 0x2 DUP2 GT ISZERO PUSH2 0x196B JUMPI PUSH2 0x196A PUSH2 0x2349 JUMP JUMPDEST JUMPDEST DUP3 PUSH1 0x2 DUP2 GT ISZERO PUSH2 0x197E JUMPI PUSH2 0x197D PUSH2 0x2349 JUMP JUMPDEST JUMPDEST SUB PUSH2 0x1997 JUMPI PUSH1 0x2 DUP2 PUSH2 0x1990 SWAP2 SWAP1 PUSH2 0x2A3A JUMP JUMPDEST SWAP1 POP PUSH2 0x19D7 JUMP JUMPDEST PUSH1 0x2 DUP1 DUP2 GT ISZERO PUSH2 0x19AA JUMPI PUSH2 0x19A9 PUSH2 0x2349 JUMP JUMPDEST JUMPDEST DUP3 PUSH1 0x2 DUP2 GT ISZERO PUSH2 0x19BD JUMPI PUSH2 0x19BC PUSH2 0x2349 JUMP JUMPDEST JUMPDEST SUB PUSH2 0x19D6 JUMPI PUSH1 0x4 DUP2 PUSH2 0x19CF SWAP2 SWAP1 PUSH2 0x2A3A JUMP JUMPDEST SWAP1 POP PUSH2 0x19D7 JUMP JUMPDEST JUMPDEST SWAP2 SWAP1 POP JUMP JUMPDEST PUSH1 0x40 MLOAD DUP1 PUSH1 0xC0 ADD PUSH1 0x40 MSTORE DUP1 PUSH0 DUP2 MSTORE PUSH1 0x20 ADD PUSH1 0x60 DUP2 MSTORE PUSH1 0x20 ADD PUSH0 DUP2 MSTORE PUSH1 0x20 ADD PUSH0 DUP2 MSTORE PUSH1 0x20 ADD PUSH0 ISZERO ISZERO DUP2 MSTORE PUSH1 0x20 ADD PUSH0 PUSH20 0xFFFFFFFFFFFFFFFFFFFFFFFFFFFFFFFFFFFFFFFF AND DUP2 MSTORE POP SWAP1 JUMP JUMPDEST PUSH1 0x40 MLOAD DUP1 PUSH1 0x80 ADD PUSH1 0x40 MSTORE DUP1 PUSH0 PUSH20 0xFFFFFFFFFFFFFFFFFFFFFFFFFFFFFFFFFFFFFFFF AND DUP2 MSTORE PUSH1 0x20 ADD PUSH0 DUP2 MSTORE PUSH1 0x20 ADD PUSH0 DUP2 MSTORE PUSH1 0x20 ADD PUSH0 DUP2 MSTORE POP SWAP1 JUMP JUMPDEST PUSH1 0x40 MLOAD DUP1 PUSH1 0xA0 ADD PUSH1 0x40 MSTORE DUP1 PUSH0 DUP2 MSTORE PUSH1 0x20 ADD PUSH1 0x60 DUP2 MSTORE PUSH1 0x20 ADD PUSH0 DUP2 MSTORE PUSH1 0x20 ADD PUSH0 PUSH20 0xFFFFFFFFFFFFFFFFFFFFFFFFFFFFFFFFFFFFFFFF AND DUP2 MSTORE PUSH1 0x20 ADD PUSH0 ISZERO ISZERO DUP2 MSTORE POP SWAP1 JUMP JUMPDEST PUSH0 PUSH1 0x40 MLOAD SWAP1 POP SWAP1 JUMP JUMPDEST PUSH0 DUP1 REVERT JUMPDEST PUSH0 DUP1 REVERT JUMPDEST PUSH0 DUP2 SWAP1 POP SWAP2 SWAP1 POP JUMP JUMPDEST PUSH2 0x1AC5 DUP2 PUSH2 0x1AB3 JUMP JUMPDEST DUP2 EQ PUSH2 0x1ACF JUMPI PUSH0 DUP1 REVERT JUMPDEST POP JUMP JUMPDEST PUSH0 DUP2 CALLDATALOAD SWAP1 POP PUSH2 0x1AE0 DUP2 PUSH2 0x1ABC JUMP JUMPDEST SWAP3 SWAP2 POP POP JUMP JUMPDEST PUSH0 PUSH1 0x20 DUP3 DUP5 SUB SLT ISZERO PUSH2 0x1AFB JUMPI PUSH2 0x1AFA PUSH2 0x1AAB JUMP JUMPDEST JUMPDEST PUSH0 PUSH2 0x1B08 DUP5 DUP3 DUP6 ADD PUSH2 0x1AD2 JUMP JUMPDEST SWAP2 POP POP SWAP3 SWAP2 POP POP JUMP JUMPDEST PUSH0 DUP2 MLOAD SWAP1 POP SWAP2 SWAP1 POP JUMP JUMPDEST PUSH0 DUP3 DUP3 MSTORE PUSH1 0x20 DUP3 ADD SWAP1 POP SWAP3 SWAP2 POP POP JUMP JUMPDEST PUSH0 DUP2 SWAP1 POP PUSH1 0x20 DUP3 ADD SWAP1 POP SWAP2 SWAP1 POP JUMP JUMPDEST PUSH2 0x1B43 DUP2 PUSH2 0x1AB3 JUMP JUMPDEST DUP3 MSTORE POP POP JUMP JUMPDEST PUSH0 PUSH2 0x1B54 DUP4 DUP4 PUSH2 0x1B3A JUMP JUMPDEST PUSH1 0x20 DUP4 ADD SWAP1 POP SWAP3 SWAP2 POP POP JUMP JUMPDEST PUSH0 PUSH1 0x20 DUP3 ADD SWAP1 POP SWAP2 SWAP1 POP JUMP JUMPDEST PUSH0 PUSH2 0x1B76 DUP3 PUSH2 0x1B11 JUMP JUMPDEST PUSH2 0x1B80 DUP2 DUP6 PUSH2 0x1B1B JUMP JUMPDEST SWAP4 POP PUSH2 0x1B8B DUP4 PUSH2 0x1B2B JUMP JUMPDEST DUP1 PUSH0 JUMPDEST DUP4 DUP2 LT ISZERO PUSH2 0x1BBB JUMPI DUP2 MLOAD PUSH2 0x1BA2 DUP9 DUP3 PUSH2 0x1B49 JUMP JUMPDEST SWAP8 POP PUSH2 0x1BAD DUP4 PUSH2 0x1B60 JUMP JUMPDEST SWAP3 POP POP PUSH1 0x1 DUP2 ADD SWAP1 POP PUSH2 0x1B8E JUMP JUMPDEST POP DUP6 SWAP4 POP POP POP POP SWAP3 SWAP2 POP POP JUMP JUMPDEST PUSH0 PUSH1 0x20 DUP3 ADD SWAP1 POP DUP2 DUP2 SUB PUSH0 DUP4 ADD MSTORE PUSH2 0x1BE0 DUP2 DUP5 PUSH2 0x1B6C JUMP JUMPDEST SWAP1 POP SWAP3 SWAP2 POP POP JUMP JUMPDEST PUSH1 0x3 DUP2 LT PUSH2 0x1BF4 JUMPI PUSH0 DUP1 REVERT JUMPDEST POP JUMP JUMPDEST PUSH0 DUP2 CALLDATALOAD SWAP1 POP PUSH2 0x1C05 DUP2 PUSH2 0x1BE8 JUMP JUMPDEST SWAP3 SWAP2 POP POP JUMP JUMPDEST PUSH0 PUSH1 0x20 DUP3 DUP5 SUB SLT ISZERO PUSH2 0x1C20 JUMPI PUSH2 0x1C1F PUSH2 0x1AAB JUMP JUMPDEST JUMPDEST PUSH0 PUSH2 0x1C2D DUP5 DUP3 DUP6 ADD PUSH2 0x1BF7 JUMP JUMPDEST SWAP2 POP POP SWAP3 SWAP2 POP POP JUMP JUMPDEST PUSH2 0x1C3F DUP2 PUSH2 0x1AB3 JUMP JUMPDEST DUP3 MSTORE POP POP JUMP JUMPDEST PUSH0 PUSH1 0x20 DUP3 ADD SWAP1 POP PUSH2 0x1C58 PUSH0 DUP4 ADD DUP5 PUSH2 0x1C36 JUMP JUMPDEST SWAP3 SWAP2 POP POP JUMP JUMPDEST PUSH0 DUP2 MLOAD SWAP1 POP SWAP2 SWAP1 POP JUMP JUMPDEST PUSH0 DUP3 DUP3 MSTORE PUSH1 0x20 DUP3 ADD SWAP1 POP SWAP3 SWAP2 POP POP JUMP JUMPDEST DUP3 DUP2 DUP4 MCOPY PUSH0 DUP4 DUP4 ADD MSTORE POP POP POP JUMP JUMPDEST PUSH0 PUSH1 0x1F NOT PUSH1 0x1F DUP4 ADD AND SWAP1 POP SWAP2 SWAP1 POP JUMP JUMPDEST PUSH0 PUSH2 0x1CA0 DUP3 PUSH2 0x1C5E JUMP JUMPDEST PUSH2 0x1CAA DUP2 DUP6 PUSH2 0x1C68 JUMP JUMPDEST SWAP4 POP PUSH2 0x1CBA DUP2 DUP6 PUSH1 0x20 DUP7 ADD PUSH2 0x1C78 JUMP JUMPDEST PUSH2 0x1CC3 DUP2 PUSH2 0x1C86 JUMP JUMPDEST DUP5 ADD SWAP2 POP POP SWAP3 SWAP2 POP POP JUMP JUMPDEST PUSH0 DUP2 ISZERO ISZERO SWAP1 POP SWAP2 SWAP1 POP JUMP JUMPDEST PUSH2 0x1CE2 DUP2 PUSH2 0x1CCE JUMP JUMPDEST DUP3 MSTORE POP POP JUMP JUMPDEST PUSH0 PUSH20 0xFFFFFFFFFFFFFFFFFFFFFFFFFFFFFFFFFFFFFFFF DUP3 AND SWAP1 POP SWAP2 SWAP1 POP JUMP JUMPDEST PUSH0 PUSH2 0x1D11 DUP3 PUSH2 0x1CE8 JUMP JUMPDEST SWAP1 POP SWAP2 SWAP1 POP JUMP JUMPDEST PUSH2 0x1D21 DUP2 PUSH2 0x1D07 JUMP JUMPDEST DUP3 MSTORE POP POP JUMP JUMPDEST PUSH0 PUSH1 0xC0 DUP4 ADD PUSH0 DUP4 ADD MLOAD PUSH2 0x1D3C PUSH0 DUP7 ADD DUP3 PUSH2 0x1B3A JUMP JUMPDEST POP PUSH1 0x20 DUP4 ADD MLOAD DUP5 DUP3 SUB PUSH1 0x20 DUP7 ADD MSTORE PUSH2 0x1D54 DUP3 DUP3 PUSH2 0x1C96 JUMP JUMPDEST SWAP2 POP POP PUSH1 0x40 DUP4 ADD MLOAD PUSH2 0x1D69 PUSH1 0x40 DUP7 ADD DUP3 PUSH2 0x1B3A JUMP JUMPDEST POP PUSH1 0x60 DUP4 ADD MLOAD PUSH2 0x1D7C PUSH1 0x60 DUP7 ADD DUP3 PUSH2 0x1B3A JUMP JUMPDEST POP PUSH1 0x80 DUP4 ADD MLOAD PUSH2 0x1D8F PUSH1 0x80 DUP7 ADD DUP3 PUSH2 0x1CD9 JUMP JUMPDEST POP PUSH1 0xA0 DUP4 ADD MLOAD PUSH2 0x1DA2 PUSH1 0xA0 DUP7 ADD DUP3 PUSH2 0x1D18 JUMP JUMPDEST POP DUP1 SWAP2 POP POP SWAP3 SWAP2 POP POP JUMP JUMPDEST PUSH0 PUSH1 0x20 DUP3 ADD SWAP1 POP DUP2 DUP2 SUB PUSH0 DUP4 ADD MSTORE PUSH2 0x1DC5 DUP2 DUP5 PUSH2 0x1D27 JUMP JUMPDEST SWAP1 POP SWAP3 SWAP2 POP POP JUMP JUMPDEST PUSH0 DUP1 REVERT JUMPDEST PUSH0 DUP1 REVERT JUMPDEST PUSH32 0x4E487B7100000000000000000000000000000000000000000000000000000000 PUSH0 MSTORE PUSH1 0x41 PUSH1 0x4 MSTORE PUSH1 0x24 PUSH0 REVERT JUMPDEST PUSH2 0x1E0B DUP3 PUSH2 0x1C86 JUMP JUMPDEST DUP2 ADD DUP2 DUP2 LT PUSH8 0xFFFFFFFFFFFFFFFF DUP3 GT OR ISZERO PUSH2 0x1E2A JUMPI PUSH2 0x1E29 PUSH2 0x1DD5 JUMP JUMPDEST JUMPDEST DUP1 PUSH1 0x40 MSTORE POP POP POP JUMP JUMPDEST PUSH0 PUSH2 0x1E3C PUSH2 0x1AA2 JUMP JUMPDEST SWAP1 POP PUSH2 0x1E48 DUP3 DUP3 PUSH2 0x1E02 JUMP JUMPDEST SWAP2 SWAP1 POP JUMP JUMPDEST PUSH0 PUSH8 0xFFFFFFFFFFFFFFFF DUP3 GT ISZERO PUSH2 0x1E67 JUMPI PUSH2 0x1E66 PUSH2 0x1DD5 JUMP JUMPDEST JUMPDEST PUSH2 0x1E70 DUP3 PUSH2 0x1C86 JUMP JUMPDEST SWAP1 POP PUSH1 0x20 DUP2 ADD SWAP1 POP SWAP2 SWAP1 POP JUMP JUMPDEST DUP3 DUP2 DUP4 CALLDATACOPY PUSH0 DUP4 DUP4 ADD MSTORE POP POP POP JUMP JUMPDEST PUSH0 PUSH2 0x1E9D PUSH2 0x1E98 DUP5 PUSH2 0x1E4D JUMP JUMPDEST PUSH2 0x1E33 JUMP JUMPDEST SWAP1 POP DUP3 DUP2 MSTORE PUSH1 0x20 DUP2 ADD DUP5 DUP5 DUP5 ADD GT ISZERO PUSH2 0x1EB9 JUMPI PUSH2 0x1EB8 PUSH2 0x1DD1 JUMP JUMPDEST JUMPDEST PUSH2 0x1EC4 DUP5 DUP3 DUP6 PUSH2 0x1E7D JUMP JUMPDEST POP SWAP4 SWAP3 POP POP POP JUMP JUMPDEST PUSH0 DUP3 PUSH1 0x1F DUP4 ADD SLT PUSH2 0x1EE0 JUMPI PUSH2 0x1EDF PUSH2 0x1DCD JUMP JUMPDEST JUMPDEST DUP2 CALLDATALOAD PUSH2 0x1EF0 DUP5 DUP3 PUSH1 0x20 DUP7 ADD PUSH2 0x1E8B JUMP JUMPDEST SWAP2 POP POP SWAP3 SWAP2 POP POP JUMP JUMPDEST PUSH2 0x1F02 DUP2 PUSH2 0x1D07 JUMP JUMPDEST DUP2 EQ PUSH2 0x1F0C JUMPI PUSH0 DUP1 REVERT JUMPDEST POP JUMP JUMPDEST PUSH0 DUP2 CALLDATALOAD SWAP1 POP PUSH2 0x1F1D DUP2 PUSH2 0x1EF9 JUMP JUMPDEST SWAP3 SWAP2 POP POP JUMP JUMPDEST PUSH2 0x1F2C DUP2 PUSH2 0x1CCE JUMP JUMPDEST DUP2 EQ PUSH2 0x1F36 JUMPI PUSH0 DUP1 REVERT JUMPDEST POP JUMP JUMPDEST PUSH0 DUP2 CALLDATALOAD SWAP1 POP PUSH2 0x1F47 DUP2 PUSH2 0x1F23 JUMP JUMPDEST SWAP3 SWAP2 POP POP JUMP JUMPDEST PUSH0 DUP1 PUSH0 DUP1 PUSH0 PUSH1 0xA0 DUP7 DUP9 SUB SLT ISZERO PUSH2 0x1F66 JUMPI PUSH2 0x1F65 PUSH2 0x1AAB JUMP JUMPDEST JUMPDEST PUSH0 PUSH2 0x1F73 DUP9 DUP3 DUP10 ADD PUSH2 0x1AD2 JUMP JUMPDEST SWAP6 POP POP PUSH1 0x20 DUP7 ADD CALLDATALOAD PUSH8 0xFFFFFFFFFFFFFFFF DUP2 GT ISZERO PUSH2 0x1F94 JUMPI PUSH2 0x1F93 PUSH2 0x1AAF JUMP JUMPDEST JUMPDEST PUSH2 0x1FA0 DUP9 DUP3 DUP10 ADD PUSH2 0x1ECC JUMP JUMPDEST SWAP5 POP POP PUSH1 0x40 PUSH2 0x1FB1 DUP9 DUP3 DUP10 ADD PUSH2 0x1AD2 JUMP JUMPDEST SWAP4 POP POP PUSH1 0x60 PUSH2 0x1FC2 DUP9 DUP3 DUP10 ADD PUSH2 0x1F0F JUMP JUMPDEST SWAP3 POP POP PUSH1 0x80 PUSH2 0x1FD3 DUP9 DUP3 DUP10 ADD PUSH2 0x1F39 JUMP JUMPDEST SWAP2 POP POP SWAP3 SWAP6 POP SWAP3 SWAP6 SWAP1 SWAP4 POP JUMP JUMPDEST PUSH0 DUP1 PUSH1 0x40 DUP4 DUP6 SUB SLT ISZERO PUSH2 0x1FF6 JUMPI PUSH2 0x1FF5 PUSH2 0x1AAB JUMP JUMPDEST JUMPDEST PUSH0 PUSH2 0x2003 DUP6 DUP3 DUP7 ADD PUSH2 0x1BF7 JUMP JUMPDEST SWAP3 POP POP PUSH1 0x20 PUSH2 0x2014 DUP6 DUP3 DUP7 ADD PUSH2 0x1AD2 JUMP JUMPDEST SWAP2 POP POP SWAP3 POP SWAP3 SWAP1 POP JUMP JUMPDEST PUSH2 0x2027 DUP2 PUSH2 0x1CCE JUMP JUMPDEST DUP3 MSTORE POP POP JUMP JUMPDEST PUSH0 PUSH1 0x20 DUP3 ADD SWAP1 POP PUSH2 0x2040 PUSH0 DUP4 ADD DUP5 PUSH2 0x201E JUMP JUMPDEST SWAP3 SWAP2 POP POP JUMP JUMPDEST PUSH0 DUP1 PUSH0 DUP1 PUSH1 0x80 DUP6 DUP8 SUB SLT ISZERO PUSH2 0x205E JUMPI PUSH2 0x205D PUSH2 0x1AAB JUMP JUMPDEST JUMPDEST PUSH0 PUSH2 0x206B DUP8 DUP3 DUP9 ADD PUSH2 0x1AD2 JUMP JUMPDEST SWAP5 POP POP PUSH1 0x20 PUSH2 0x207C DUP8 DUP3 DUP9 ADD PUSH2 0x1F0F JUMP JUMPDEST SWAP4 POP POP PUSH1 0x40 PUSH2 0x208D DUP8 DUP3 DUP9 ADD PUSH2 0x1AD2 JUMP JUMPDEST SWAP3 POP POP PUSH1 0x60 PUSH2 0x209E DUP8 DUP3 DUP9 ADD PUSH2 0x1AD2 JUMP JUMPDEST SWAP2 POP POP SWAP3 SWAP6 SWAP2 SWAP5 POP SWAP3 POP JUMP JUMPDEST PUSH1 0x80 DUP3 ADD PUSH0 DUP3 ADD MLOAD PUSH2 0x20BE PUSH0 DUP6 ADD DUP3 PUSH2 0x1D18 JUMP JUMPDEST POP PUSH1 0x20 DUP3 ADD MLOAD PUSH2 0x20D1 PUSH1 0x20 DUP6 ADD DUP3 PUSH2 0x1B3A JUMP JUMPDEST POP PUSH1 0x40 DUP3 ADD MLOAD PUSH2 0x20E4 PUSH1 0x40 DUP6 ADD DUP3 PUSH2 0x1B3A JUMP JUMPDEST POP PUSH1 0x60 DUP3 ADD MLOAD PUSH2 0x20F7 PUSH1 0x60 DUP6 ADD DUP3 PUSH2 0x1B3A JUMP JUMPDEST POP POP POP POP JUMP JUMPDEST PUSH0 PUSH1 0x80 DUP3 ADD SWAP1 POP PUSH2 0x2110 PUSH0 DUP4 ADD DUP5 PUSH2 0x20AA JUMP JUMPDEST SWAP3 SWAP2 POP POP JUMP JUMPDEST PUSH0 PUSH8 0xFFFFFFFFFFFFFFFF DUP3 GT ISZERO PUSH2 0x2130 JUMPI PUSH2 0x212F PUSH2 0x1DD5 JUMP JUMPDEST JUMPDEST PUSH1 0x20 DUP3 MUL SWAP1 POP PUSH1 0x20 DUP2 ADD SWAP1 POP SWAP2 SWAP1 POP JUMP JUMPDEST PUSH0 DUP1 REVERT JUMPDEST PUSH0 PUSH2 0x2157 PUSH2 0x2152 DUP5 PUSH2 0x2116 JUMP JUMPDEST PUSH2 0x1E33 JUMP JUMPDEST SWAP1 POP DUP1 DUP4 DUP3 MSTORE PUSH1 0x20 DUP3 ADD SWAP1 POP PUSH1 0x20 DUP5 MUL DUP4 ADD DUP6 DUP2 GT ISZERO PUSH2 0x217A JUMPI PUSH2 0x2179 PUSH2 0x2141 JUMP JUMPDEST JUMPDEST DUP4 JUMPDEST DUP2 DUP2 LT ISZERO PUSH2 0x21A3 JUMPI DUP1 PUSH2 0x218F DUP9 DUP3 PUSH2 0x1AD2 JUMP JUMPDEST DUP5 MSTORE PUSH1 0x20 DUP5 ADD SWAP4 POP POP PUSH1 0x20 DUP2 ADD SWAP1 POP PUSH2 0x217C JUMP JUMPDEST POP POP POP SWAP4 SWAP3 POP POP POP JUMP JUMPDEST PUSH0 DUP3 PUSH1 0x1F DUP4 ADD SLT PUSH2 0x21C1 JUMPI PUSH2 0x21C0 PUSH2 0x1DCD JUMP JUMPDEST JUMPDEST DUP2 CALLDATALOAD PUSH2 0x21D1 DUP5 DUP3 PUSH1 0x20 DUP7 ADD PUSH2 0x2145 JUMP JUMPDEST SWAP2 POP POP SWAP3 SWAP2 POP POP JUMP JUMPDEST PUSH0 DUP1 PUSH1 0x40 DUP4 DUP6 SUB SLT ISZERO PUSH2 0x21F0 JUMPI PUSH2 0x21EF PUSH2 0x1AAB JUMP JUMPDEST JUMPDEST PUSH0 PUSH2 0x21FD DUP6 DUP3 DUP7 ADD PUSH2 0x1AD2 JUMP JUMPDEST SWAP3 POP POP PUSH1 0x20 DUP4 ADD CALLDATALOAD PUSH8 0xFFFFFFFFFFFFFFFF DUP2 GT ISZERO PUSH2 0x221E JUMPI PUSH2 0x221D PUSH2 0x1AAF JUMP JUMPDEST JUMPDEST PUSH2 0x222A DUP6 DUP3 DUP7 ADD PUSH2 0x21AD JUMP JUMPDEST SWAP2 POP POP SWAP3 POP SWAP3 SWAP1 POP JUMP JUMPDEST PUSH2 0x223D DUP2 PUSH2 0x1D07 JUMP JUMPDEST DUP3 MSTORE POP POP JUMP JUMPDEST PUSH0 PUSH1 0x20 DUP3 ADD SWAP1 POP PUSH2 0x2256 PUSH0 DUP4 ADD DUP5 PUSH2 0x2234 JUMP JUMPDEST SWAP3 SWAP2 POP POP JUMP JUMPDEST PUSH0 DUP1 PUSH1 0x40 DUP4 DUP6 SUB SLT ISZERO PUSH2 0x2272 JUMPI PUSH2 0x2271 PUSH2 0x1AAB JUMP JUMPDEST JUMPDEST PUSH0 DUP4 ADD CALLDATALOAD PUSH8 0xFFFFFFFFFFFFFFFF DUP2 GT ISZERO PUSH2 0x228F JUMPI PUSH2 0x228E PUSH2 0x1AAF JUMP JUMPDEST JUMPDEST PUSH2 0x229B DUP6 DUP3 DUP7 ADD PUSH2 0x1ECC JUMP JUMPDEST SWAP3 POP POP PUSH1 0x20 PUSH2 0x22AC DUP6 DUP3 DUP7 ADD PUSH2 0x1BF7 JUMP JUMPDEST SWAP2 POP POP SWAP3 POP SWAP3 SWAP1 POP JUMP JUMPDEST PUSH0 PUSH1 0xA0 DUP4 ADD PUSH0 DUP4 ADD MLOAD PUSH2 0x22CB PUSH0 DUP7 ADD DUP3 PUSH2 0x1B3A JUMP JUMPDEST POP PUSH1 0x20 DUP4 ADD MLOAD DUP5 DUP3 SUB PUSH1 0x20 DUP7 ADD MSTORE PUSH2 0x22E3 DUP3 DUP3 PUSH2 0x1C96 JUMP JUMPDEST SWAP2 POP POP PUSH1 0x40 DUP4 ADD MLOAD PUSH2 0x22F8 PUSH1 0x40 DUP7 ADD DUP3 PUSH2 0x1B3A JUMP JUMPDEST POP PUSH1 0x60 DUP4 ADD MLOAD PUSH2 0x230B PUSH1 0x60 DUP7 ADD DUP3 PUSH2 0x1D18 JUMP JUMPDEST POP PUSH1 0x80 DUP4 ADD MLOAD PUSH2 0x231E PUSH1 0x80 DUP7 ADD DUP3 PUSH2 0x1CD9 JUMP JUMPDEST POP DUP1 SWAP2 POP POP SWAP3 SWAP2 POP POP JUMP JUMPDEST PUSH0 PUSH1 0x20 DUP3 ADD SWAP1 POP DUP2 DUP2 SUB PUSH0 DUP4 ADD MSTORE PUSH2 0x2341 DUP2 DUP5 PUSH2 0x22B6 JUMP JUMPDEST SWAP1 POP SWAP3 SWAP2 POP POP JUMP JUMPDEST PUSH32 0x4E487B7100000000000000000000000000000000000000000000000000000000 PUSH0 MSTORE PUSH1 0x21 PUSH1 0x4 MSTORE PUSH1 0x24 PUSH0 REVERT JUMPDEST PUSH0 DUP3 DUP3 MSTORE PUSH1 0x20 DUP3 ADD SWAP1 POP SWAP3 SWAP2 POP POP JUMP JUMPDEST PUSH32 0x6A6F62206F776E6572206F6E6C79000000000000000000000000000000000000 PUSH0 DUP3 ADD MSTORE POP JUMP JUMPDEST PUSH0 PUSH2 0x23BA PUSH1 0xE DUP4 PUSH2 0x2376 JUMP JUMPDEST SWAP2 POP PUSH2 0x23C5 DUP3 PUSH2 0x2386 JUMP JUMPDEST PUSH1 0x20 DUP3 ADD SWAP1 POP SWAP2 SWAP1 POP JUMP JUMPDEST PUSH0 PUSH1 0x20 DUP3 ADD SWAP1 POP DUP2 DUP2 SUB PUSH0 DUP4 ADD MSTORE PUSH2 0x23E7 DUP2 PUSH2 0x23AE JUMP JUMPDEST SWAP1 POP SWAP2 SWAP1 POP JUMP JUMPDEST PUSH32 0x4E487B7100000000000000000000000000000000000000000000000000000000 PUSH0 MSTORE PUSH1 0x22 PUSH1 0x4 MSTORE PUSH1 0x24 PUSH0 REVERT JUMPDEST PUSH0 PUSH1 0x2 DUP3 DIV SWAP1 POP PUSH1 0x1 DUP3 AND DUP1 PUSH2 0x2432 JUMPI PUSH1 0x7F DUP3 AND SWAP2 POP JUMPDEST PUSH1 0x20 DUP3 LT DUP2 SUB PUSH2 0x2445 JUMPI PUSH2 0x2444 PUSH2 0x23EE JUMP JUMPDEST JUMPDEST POP SWAP2 SWAP1 POP JUMP JUMPDEST PUSH32 0x6A6F6220756E617661696C61626C650000000000000000000000000000000000 PUSH0 DUP3 ADD MSTORE POP JUMP JUMPDEST PUSH0 PUSH2 0x247F PUSH1 0xF DUP4 PUSH2 0x2376 JUMP JUMPDEST SWAP2 POP PUSH2 0x248A DUP3 PUSH2 0x244B JUMP JUMPDEST PUSH1 0x20 DUP3 ADD SWAP1 POP SWAP2 SWAP1 POP JUMP JUMPDEST PUSH0 PUSH1 0x20 DUP3 ADD SWAP1 POP DUP2 DUP2 SUB PUSH0 DUP4 ADD MSTORE PUSH2 0x24AC DUP2 PUSH2 0x2473 JUMP JUMPDEST SWAP1 POP SWAP2 SWAP1 POP JUMP JUMPDEST PUSH0 DUP2 SWAP1 POP DUP2 PUSH0 MSTORE PUSH1 0x20 PUSH0 KECCAK256 SWAP1 POP SWAP2 SWAP1 POP JUMP JUMPDEST PUSH0 PUSH1 0x20 PUSH1 0x1F DUP4 ADD DIV SWAP1 POP SWAP2 SWAP1 POP JUMP JUMPDEST PUSH0 DUP3 DUP3 SHL SWAP1 POP SWAP3 SWAP2 POP POP JUMP JUMPDEST PUSH0 PUSH1 0x8 DUP4 MUL PUSH2 0x250F PUSH32 0xFFFFFFFFFFFFFFFFFFFFFFFFFFFFFFFFFFFFFFFFFFFFFFFFFFFFFFFFFFFFFFFF DUP3 PUSH2 0x24D4 JUMP JUMPDEST PUSH2 0x2519 DUP7 DUP4 PUSH2 0x24D4 JUMP JUMPDEST SWAP6 POP DUP1 NOT DUP5 AND SWAP4 POP DUP1 DUP7 AND DUP5 OR SWAP3 POP POP POP SWAP4 SWAP3 POP POP POP JUMP JUMPDEST PUSH0 DUP2 SWAP1 POP SWAP2 SWAP1 POP JUMP JUMPDEST PUSH0 PUSH2 0x2554 PUSH2 0x254F PUSH2 0x254A DUP5 PUSH2 0x1AB3 JUMP JUMPDEST PUSH2 0x2531 JUMP JUMPDEST PUSH2 0x1AB3 JUMP JUMPDEST SWAP1 POP SWAP2 SWAP1 POP JUMP JUMPDEST PUSH0 DUP2 SWAP1 POP SWAP2 SWAP1 POP JUMP JUMPDEST PUSH2 0x256D DUP4 PUSH2 0x253A JUMP JUMPDEST PUSH2 0x2581 PUSH2 0x2579 DUP3 PUSH2 0x255B JUMP JUMPDEST DUP5 DUP5 SLOAD PUSH2 0x24E0 JUMP JUMPDEST DUP3 SSTORE POP POP POP POP JUMP JUMPDEST PUSH0 SWAP1 JUMP JUMPDEST PUSH2 0x2595 PUSH2 0x2589 JUMP JUMPDEST PUSH2 0x25A0 DUP2 DUP5 DUP5 PUSH2 0x2564 JUMP JUMPDEST POP POP POP JUMP JUMPDEST JUMPDEST DUP2 DUP2 LT ISZERO PUSH2 0x25C3 JUMPI PUSH2 0x25B8 PUSH0 DUP3 PUSH2 0x258D JUMP JUMPDEST PUSH1 0x1 DUP2 ADD SWAP1 POP PUSH2 0x25A6 JUMP JUMPDEST POP POP JUMP JUMPDEST PUSH1 0x1F DUP3 GT ISZERO PUSH2 0x2608 JUMPI PUSH2 0x25D9 DUP2 PUSH2 0x24B3 JUMP JUMPDEST PUSH2 0x25E2 DUP5 PUSH2 0x24C5 JUMP JUMPDEST DUP2 ADD PUSH1 0x20 DUP6 LT ISZERO PUSH2 0x25F1 JUMPI DUP2 SWAP1 POP JUMPDEST PUSH2 0x2605 PUSH2 0x25FD DUP6 PUSH2 0x24C5 JUMP JUMPDEST DUP4 ADD DUP3 PUSH2 0x25A5 JUMP JUMPDEST POP POP JUMPDEST POP POP POP JUMP JUMPDEST PUSH0 DUP3 DUP3 SHR SWAP1 POP SWAP3 SWAP2 POP POP JUMP JUMPDEST PUSH0 PUSH2 0x2628 PUSH0 NOT DUP5 PUSH1 0x8 MUL PUSH2 0x260D JUMP JUMPDEST NOT DUP1 DUP4 AND SWAP2 POP POP SWAP3 SWAP2 POP POP JUMP JUMPDEST PUSH0 PUSH2 0x2640 DUP4 DUP4 PUSH2 0x2619 JUMP JUMPDEST SWAP2 POP DUP3 PUSH1 0x2 MUL DUP3 OR SWAP1 POP SWAP3 SWAP2 POP POP JUMP JUMPDEST PUSH2 0x2659 DUP3 PUSH2 0x1C5E JUMP JUMPDEST PUSH8 0xFFFFFFFFFFFFFFFF DUP2 GT ISZERO PUSH2 0x2672 JUMPI PUSH2 0x2671 PUSH2 0x1DD5 JUMP JUMPDEST JUMPDEST PUSH2 0x267C DUP3 SLOAD PUSH2 0x241B JUMP JUMPDEST PUSH2 0x2687 DUP3 DUP3 DUP6 PUSH2 0x25C7 JUMP JUMPDEST PUSH0 PUSH1 0x20 SWAP1 POP PUSH1 0x1F DUP4 GT PUSH1 0x1 DUP2 EQ PUSH2 0x26B8 JUMPI PUSH0 DUP5 ISZERO PUSH2 0x26A6 JUMPI DUP3 DUP8 ADD MLOAD SWAP1 POP JUMPDEST PUSH2 0x26B0 DUP6 DUP3 PUSH2 0x2635 JUMP JUMPDEST DUP7 SSTORE POP PUSH2 0x2717 JUMP JUMPDEST PUSH1 0x1F NOT DUP5 AND PUSH2 0x26C6 DUP7 PUSH2 0x24B3 JUMP JUMPDEST PUSH0 JUMPDEST DUP3 DUP2 LT ISZERO PUSH2 0x26ED JUMPI DUP5 DUP10 ADD MLOAD DUP3 SSTORE PUSH1 0x1 DUP3 ADD SWAP2 POP PUSH1 0x20 DUP6 ADD SWAP5 POP PUSH1 0x20 DUP2 ADD SWAP1 POP PUSH2 0x26C8 JUMP JUMPDEST DUP7 DUP4 LT ISZERO PUSH2 0x270A JUMPI DUP5 DUP10 ADD MLOAD PUSH2 0x2706 PUSH1 0x1F DUP10 AND DUP3 PUSH2 0x2619 JUMP JUMPDEST DUP4 SSTORE POP JUMPDEST PUSH1 0x1 PUSH1 0x2 DUP9 MUL ADD DUP9 SSTORE POP POP POP JUMPDEST POP POP POP POP POP POP JUMP JUMPDEST PUSH32 0x61646D696E206F6E6C7900000000000000000000000000000000000000000000 PUSH0 DUP3 ADD MSTORE POP JUMP JUMPDEST PUSH0 PUSH2 0x2753 PUSH1 0xA DUP4 PUSH2 0x2376 JUMP JUMPDEST SWAP2 POP PUSH2 0x275E DUP3 PUSH2 0x271F JUMP JUMPDEST PUSH1 0x20 DUP3 ADD SWAP1 POP SWAP2 SWAP1 POP JUMP JUMPDEST PUSH0 PUSH1 0x20 DUP3 ADD SWAP1 POP DUP2 DUP2 SUB PUSH0 DUP4 ADD MSTORE PUSH2 0x2780 DUP2 PUSH2 0x2747 JUMP JUMPDEST SWAP1 POP SWAP2 SWAP1 POP JUMP JUMPDEST PUSH32 0x726577617264207472616E73666572206661696C656400000000000000000000 PUSH0 DUP3 ADD MSTORE POP JUMP JUMPDEST PUSH0 PUSH2 0x27BB PUSH1 0x16 DUP4 PUSH2 0x2376 JUMP JUMPDEST SWAP2 POP PUSH2 0x27C6 DUP3 PUSH2 0x2787 JUMP JUMPDEST PUSH1 0x20 DUP3 ADD SWAP1 POP SWAP2 SWAP1 POP JUMP JUMPDEST PUSH0 PUSH1 0x20 DUP3 ADD SWAP1 POP DUP2 DUP2 SUB PUSH0 DUP4 ADD MSTORE PUSH2 0x27E8 DUP2 PUSH2 0x27AF JUMP JUMPDEST SWAP1 POP SWAP2 SWAP1 POP JUMP JUMPDEST PUSH32 0x4E487B7100000000000000000000000000000000000000000000000000000000 PUSH0 MSTORE PUSH1 0x32 PUSH1 0x4 MSTORE PUSH1 0x24 PUSH0 REVERT JUMPDEST PUSH32 0x4E487B7100000000000000000000000000000000000000000000000000000000 PUSH0 MSTORE PUSH1 0x11 PUSH1 0x4 MSTORE PUSH1 0x24 PUSH0 REVERT JUMPDEST PUSH0 PUSH2 0x2853 DUP3 PUSH2 0x1AB3 JUMP JUMPDEST SWAP2 POP PUSH2 0x285E DUP4 PUSH2 0x1AB3 JUMP JUMPDEST SWAP3 POP DUP3 DUP3 SUB SWAP1 POP DUP2 DUP2 GT ISZERO PUSH2 0x2876 JUMPI PUSH2 0x2875 PUSH2 0x281C JUMP JUMPDEST JUMPDEST SWAP3 SWAP2 POP POP JUMP JUMPDEST PUSH0 PUSH2 0x2886 DUP3 PUSH2 0x1AB3 JUMP JUMPDEST SWAP2 POP PUSH2 0x2891 DUP4 PUSH2 0x1AB3 JUMP JUMPDEST SWAP3 POP DUP3 DUP3 ADD SWAP1 POP DUP1 DUP3 GT ISZERO PUSH2 0x28A9 JUMPI PUSH2 0x28A8 PUSH2 0x281C JUMP JUMPDEST JUMPDEST SWAP3 SWAP2 POP POP JUMP JUMPDEST PUSH0 PUSH2 0x28B9 DUP3 PUSH2 0x1AB3 JUMP JUMPDEST SWAP2 POP PUSH32 0xFFFFFFFFFFFFFFFFFFFFFFFFFFFFFFFFFFFFFFFFFFFFFFFFFFFFFFFFFFFFFFFF DUP3 SUB PUSH2 0x28EB JUMPI PUSH2 0x28EA PUSH2 0x281C JUMP JUMPDEST JUMPDEST PUSH1 0x1 DUP3 ADD SWAP1 POP SWAP2 SWAP1 POP JUMP JUMPDEST PUSH32 0x7061796D656E74207472616E73666572206661696C6564000000000000000000 PUSH0 DUP3 ADD MSTORE POP JUMP JUMPDEST PUSH0 PUSH2 0x292A PUSH1 0x17 DUP4 PUSH2 0x2376 JUMP JUMPDEST SWAP2 POP PUSH2 0x2935 DUP3 PUSH2 0x28F6 JUMP JUMPDEST PUSH1 0x20 DUP3 ADD SWAP1 POP SWAP2 SWAP1 POP JUMP JUMPDEST PUSH0 PUSH1 0x20 DUP3 ADD SWAP1 POP DUP2 DUP2 SUB PUSH0 DUP4 ADD MSTORE PUSH2 0x2957 DUP2 PUSH2 0x291E JUMP JUMPDEST SWAP1 POP SWAP2 SWAP1 POP JUMP JUMPDEST PUSH32 0x696E73756666696369656E742066756E6473207472616E736D69747465640000 PUSH0 DUP3 ADD MSTORE POP JUMP JUMPDEST PUSH0 PUSH2 0x2992 PUSH1 0x1E DUP4 PUSH2 0x2376 JUMP JUMPDEST SWAP2 POP PUSH2 0x299D DUP3 PUSH2 0x295E JUMP JUMPDEST PUSH1 0x20 DUP3 ADD SWAP1 POP SWAP2 SWAP1 POP JUMP JUMPDEST PUSH0 PUSH1 0x20 DUP3 ADD SWAP1 POP DUP2 DUP2 SUB PUSH0 DUP4 ADD MSTORE PUSH2 0x29BF DUP2 PUSH2 0x2986 JUMP JUMPDEST SWAP1 POP SWAP2 SWAP1 POP JUMP JUMPDEST PUSH0 PUSH1 0x60 DUP3 ADD SWAP1 POP PUSH2 0x29D9 PUSH0 DUP4 ADD DUP7 PUSH2 0x2234 JUMP JUMPDEST PUSH2 0x29E6 PUSH1 0x20 DUP4 ADD DUP6 PUSH2 0x2234 JUMP JUMPDEST PUSH2 0x29F3 PUSH1 0x40 DUP4 ADD DUP5 PUSH2 0x1C36 JUMP JUMPDEST SWAP5 SWAP4 POP POP POP POP JUMP JUMPDEST PUSH0 DUP2 MLOAD SWAP1 POP PUSH2 0x2A09 DUP2 PUSH2 0x1F23 JUMP JUMPDEST SWAP3 SWAP2 POP POP JUMP JUMPDEST PUSH0 PUSH1 0x20 DUP3 DUP5 SUB SLT ISZERO PUSH2 0x2A24 JUMPI PUSH2 0x2A23 PUSH2 0x1AAB JUMP JUMPDEST JUMPDEST PUSH0 PUSH2 0x2A31 DUP5 DUP3 DUP6 ADD PUSH2 0x29FB JUMP JUMPDEST SWAP2 POP POP SWAP3 SWAP2 POP POP JUMP JUMPDEST PUSH0 PUSH2 0x2A44 DUP3 PUSH2 0x1AB3 JUMP JUMPDEST SWAP2 POP PUSH2 0x2A4F DUP4 PUSH2 0x1AB3 JUMP JUMPDEST SWAP3 POP DUP3 DUP3 MUL PUSH2 0x2A5D DUP2 PUSH2 0x1AB3 JUMP JUMPDEST SWAP2 POP DUP3 DUP3 DIV DUP5 EQ DUP4 ISZERO OR PUSH2 0x2A74 JUMPI PUSH2 0x2A73 PUSH2 0x281C JUMP JUMPDEST JUMPDEST POP SWAP3 SWAP2 POP POP JUMP INVALID LOG2 PUSH5 0x6970667358 0x22 SLT KECCAK256 PUSH0 GASLIMIT DUP7 SWAP1 0xF 0xA9 PUSH0 SUB JUMPDEST 0xBE 0xE3 SMOD 0xA5 SWAP7 0x23 0xFC 0x2B TSTORE 0x2C PUSH10 0x776A26BC287575CFDDF2 SUB 0xB7 PUSH5 0x736F6C6343 STOP ADDMOD BYTE STOP CALLER "
				},
				"gasEstimates": {
					"creation": {
						"codeDepositCost": "2185800",
						"executionCost": "infinite",
						"totalCost": "infinite"
					},
					"external": {
						"addReward(uint256,address,uint256,uint256)": "infinite",
						"applyForJob(uint256,string,uint256,address,bool)": "infinite",
						"approveRewards(uint256,uint256[])": "infinite",
						"getApplicant(uint256)": "infinite",
						"getApplicantIds(uint256)": "infinite",
						"getJob(uint256)": "infinite",
						"getJobIds()": "infinite",
						"getJobReward(uint256)": "infinite",
						"getOwnerJobIds()": "infinite",
						"getPaymentErc20()": "infinite",
						"getPrice(uint8)": "2825",
						"hasReward(uint256)": "2899",
						"makeJobUnavailable(uint256)": "infinite",
						"postJob(string,uint8)": "infinite",
						"setPrice(uint8,uint256)": "25228"
					},
					"internal": {
						"getDuration(enum Duration)": "infinite",
						"getId()": "24371",
						"transferIn(address,uint256)": "infinite",
						"transferOut(address,uint256,address)": "infinite",
						"transferOutCrossChain(address,uint256,address,uint256)": "25"
					}
				},
				"methodIdentifiers": {
					"addReward(uint256,address,uint256,uint256)": "78d5b517",
					"applyForJob(uint256,string,uint256,address,bool)": "4fb3bebc",
					"approveRewards(uint256,uint256[])": "83238fb4",
					"getApplicant(uint256)": "eea3f82d",
					"getApplicantIds(uint256)": "098b2cbd",
					"getJob(uint256)": "bf22c457",
					"getJobIds()": "4b0fa847",
					"getJobReward(uint256)": "cd449446",
					"getOwnerJobIds()": "393f190d",
					"getPaymentErc20()": "9217cbe0",
					"getPrice(uint8)": "37f1e7f2",
					"hasReward(uint256)": "970e003c",
					"makeJobUnavailable(uint256)": "43351d95",
					"postJob(string,uint8)": "a9144e1a",
					"setPrice(uint8,uint256)": "6a00670b"
				}
			},
			"storageLayout": {
				"storage": [
					{
						"astId": 482,
						"contract": "contracts/core/JobBoardDelta_flattened.sol:JobBoardDelta",
						"label": "index",
						"offset": 0,
						"slot": "0",
						"type": "t_uint256"
					},
					{
						"astId": 484,
						"contract": "contracts/core/JobBoardDelta_flattened.sol:JobBoardDelta",
						"label": "admin",
						"offset": 0,
						"slot": "1",
						"type": "t_address"
					},
					{
						"astId": 491,
						"contract": "contracts/core/JobBoardDelta_flattened.sol:JobBoardDelta",
						"label": "jobIds",
						"offset": 0,
						"slot": "2",
						"type": "t_array(t_uint256)dyn_storage"
					},
					{
						"astId": 496,
						"contract": "contracts/core/JobBoardDelta_flattened.sol:JobBoardDelta",
						"label": "jobById",
						"offset": 0,
						"slot": "3",
						"type": "t_mapping(t_uint256,t_struct(Job)402_storage)"
					},
					{
						"astId": 501,
						"contract": "contracts/core/JobBoardDelta_flattened.sol:JobBoardDelta",
						"label": "jobIdByOwner",
						"offset": 0,
						"slot": "4",
						"type": "t_mapping(t_address,t_array(t_uint256)dyn_storage)"
					},
					{
						"astId": 505,
						"contract": "contracts/core/JobBoardDelta_flattened.sol:JobBoardDelta",
						"label": "hasRewardByJobId",
						"offset": 0,
						"slot": "5",
						"type": "t_mapping(t_uint256,t_bool)"
					},
					{
						"astId": 510,
						"contract": "contracts/core/JobBoardDelta_flattened.sol:JobBoardDelta",
						"label": "rewardByJobId",
						"offset": 0,
						"slot": "6",
						"type": "t_mapping(t_uint256,t_struct(Reward)411_storage)"
					},
					{
						"astId": 515,
						"contract": "contracts/core/JobBoardDelta_flattened.sol:JobBoardDelta",
						"label": "priceByDuration",
						"offset": 0,
						"slot": "7",
						"type": "t_mapping(t_enum(Duration)426,t_uint256)"
					},
					{
						"astId": 520,
						"contract": "contracts/core/JobBoardDelta_flattened.sol:JobBoardDelta",
						"label": "applicantIdsByJobId",
						"offset": 0,
						"slot": "8",
						"type": "t_mapping(t_uint256,t_array(t_uint256)dyn_storage)"
					},
					{
						"astId": 525,
						"contract": "contracts/core/JobBoardDelta_flattened.sol:JobBoardDelta",
						"label": "applicantById",
						"offset": 0,
						"slot": "9",
						"type": "t_mapping(t_uint256,t_struct(Applicant)422_storage)"
					},
					{
						"astId": 531,
						"contract": "contracts/core/JobBoardDelta_flattened.sol:JobBoardDelta",
						"label": "isApplicantByApplicantIdByJobId",
						"offset": 0,
						"slot": "10",
						"type": "t_mapping(t_uint256,t_mapping(t_uint256,t_bool))"
					}
				],
				"types": {
					"t_address": {
						"encoding": "inplace",
						"label": "address",
						"numberOfBytes": "20"
					},
					"t_array(t_uint256)dyn_storage": {
						"base": "t_uint256",
						"encoding": "dynamic_array",
						"label": "uint256[]",
						"numberOfBytes": "32"
					},
					"t_bool": {
						"encoding": "inplace",
						"label": "bool",
						"numberOfBytes": "1"
					},
					"t_enum(Duration)426": {
						"encoding": "inplace",
						"label": "enum Duration",
						"numberOfBytes": "1"
					},
					"t_mapping(t_address,t_array(t_uint256)dyn_storage)": {
						"encoding": "mapping",
						"key": "t_address",
						"label": "mapping(address => uint256[])",
						"numberOfBytes": "32",
						"value": "t_array(t_uint256)dyn_storage"
					},
					"t_mapping(t_enum(Duration)426,t_uint256)": {
						"encoding": "mapping",
						"key": "t_enum(Duration)426",
						"label": "mapping(enum Duration => uint256)",
						"numberOfBytes": "32",
						"value": "t_uint256"
					},
					"t_mapping(t_uint256,t_array(t_uint256)dyn_storage)": {
						"encoding": "mapping",
						"key": "t_uint256",
						"label": "mapping(uint256 => uint256[])",
						"numberOfBytes": "32",
						"value": "t_array(t_uint256)dyn_storage"
					},
					"t_mapping(t_uint256,t_bool)": {
						"encoding": "mapping",
						"key": "t_uint256",
						"label": "mapping(uint256 => bool)",
						"numberOfBytes": "32",
						"value": "t_bool"
					},
					"t_mapping(t_uint256,t_mapping(t_uint256,t_bool))": {
						"encoding": "mapping",
						"key": "t_uint256",
						"label": "mapping(uint256 => mapping(uint256 => bool))",
						"numberOfBytes": "32",
						"value": "t_mapping(t_uint256,t_bool)"
					},
					"t_mapping(t_uint256,t_struct(Applicant)422_storage)": {
						"encoding": "mapping",
						"key": "t_uint256",
						"label": "mapping(uint256 => struct Applicant)",
						"numberOfBytes": "32",
						"value": "t_struct(Applicant)422_storage"
					},
					"t_mapping(t_uint256,t_struct(Job)402_storage)": {
						"encoding": "mapping",
						"key": "t_uint256",
						"label": "mapping(uint256 => struct Job)",
						"numberOfBytes": "32",
						"value": "t_struct(Job)402_storage"
					},
					"t_mapping(t_uint256,t_struct(Reward)411_storage)": {
						"encoding": "mapping",
						"key": "t_uint256",
						"label": "mapping(uint256 => struct Reward)",
						"numberOfBytes": "32",
						"value": "t_struct(Reward)411_storage"
					},
					"t_string_storage": {
						"encoding": "bytes",
						"label": "string",
						"numberOfBytes": "32"
					},
					"t_struct(Applicant)422_storage": {
						"encoding": "inplace",
						"label": "struct Applicant",
						"members": [
							{
								"astId": 413,
								"contract": "contracts/core/JobBoardDelta_flattened.sol:JobBoardDelta",
								"label": "id",
								"offset": 0,
								"slot": "0",
								"type": "t_uint256"
							},
							{
								"astId": 415,
								"contract": "contracts/core/JobBoardDelta_flattened.sol:JobBoardDelta",
								"label": "resumeCid",
								"offset": 0,
								"slot": "1",
								"type": "t_string_storage"
							},
							{
								"astId": 417,
								"contract": "contracts/core/JobBoardDelta_flattened.sol:JobBoardDelta",
								"label": "chainId",
								"offset": 0,
								"slot": "2",
								"type": "t_uint256"
							},
							{
								"astId": 419,
								"contract": "contracts/core/JobBoardDelta_flattened.sol:JobBoardDelta",
								"label": "rewardAddress",
								"offset": 0,
								"slot": "3",
								"type": "t_address"
							},
							{
								"astId": 421,
								"contract": "contracts/core/JobBoardDelta_flattened.sol:JobBoardDelta",
								"label": "referral",
								"offset": 20,
								"slot": "3",
								"type": "t_bool"
							}
						],
						"numberOfBytes": "128"
					},
					"t_struct(Job)402_storage": {
						"encoding": "inplace",
						"label": "struct Job",
						"members": [
							{
								"astId": 391,
								"contract": "contracts/core/JobBoardDelta_flattened.sol:JobBoardDelta",
								"label": "id",
								"offset": 0,
								"slot": "0",
								"type": "t_uint256"
							},
							{
								"astId": 393,
								"contract": "contracts/core/JobBoardDelta_flattened.sol:JobBoardDelta",
								"label": "cid",
								"offset": 0,
								"slot": "1",
								"type": "t_string_storage"
							},
							{
								"astId": 395,
								"contract": "contracts/core/JobBoardDelta_flattened.sol:JobBoardDelta",
								"label": "postedDate",
								"offset": 0,
								"slot": "2",
								"type": "t_uint256"
							},
							{
								"astId": 397,
								"contract": "contracts/core/JobBoardDelta_flattened.sol:JobBoardDelta",
								"label": "expiredDate",
								"offset": 0,
								"slot": "3",
								"type": "t_uint256"
							},
							{
								"astId": 399,
								"contract": "contracts/core/JobBoardDelta_flattened.sol:JobBoardDelta",
								"label": "available",
								"offset": 0,
								"slot": "4",
								"type": "t_bool"
							},
							{
								"astId": 401,
								"contract": "contracts/core/JobBoardDelta_flattened.sol:JobBoardDelta",
								"label": "owner",
								"offset": 1,
								"slot": "4",
								"type": "t_address"
							}
						],
						"numberOfBytes": "160"
					},
					"t_struct(Reward)411_storage": {
						"encoding": "inplace",
						"label": "struct Reward",
						"members": [
							{
								"astId": 404,
								"contract": "contracts/core/JobBoardDelta_flattened.sol:JobBoardDelta",
								"label": "erc20",
								"offset": 0,
								"slot": "0",
								"type": "t_address"
							},
							{
								"astId": 406,
								"contract": "contracts/core/JobBoardDelta_flattened.sol:JobBoardDelta",
								"label": "totalReward",
								"offset": 0,
								"slot": "1",
								"type": "t_uint256"
							},
							{
								"astId": 408,
								"contract": "contracts/core/JobBoardDelta_flattened.sol:JobBoardDelta",
								"label": "individualReward",
								"offset": 0,
								"slot": "2",
								"type": "t_uint256"
							},
							{
								"astId": 410,
								"contract": "contracts/core/JobBoardDelta_flattened.sol:JobBoardDelta",
								"label": "distributed",
								"offset": 0,
								"slot": "3",
								"type": "t_uint256"
							}
						],
						"numberOfBytes": "128"
					},
					"t_uint256": {
						"encoding": "inplace",
						"label": "uint256",
						"numberOfBytes": "32"
					}
				}
			},
			"userdoc": {
				"kind": "user",
				"methods": {},
				"version": 1
			}
		}
	}
}